{
  "_format": "hh-sol-artifact-1",
  "contractName": "Quiz",
  "sourceName": "src/contracts/quiz/quiz.sol",
  "abi": [
    {
      "inputs": [
        {
          "internalType": "address payable",
          "name": "_operator",
          "type": "address"
        },
        {
          "internalType": "contract ILottery",
          "name": "_lottery",
          "type": "address"
        },
        {
          "internalType": "contract IQuizToken",
          "name": "_quizToken",
          "type": "address"
        },
        {
          "internalType": "contract IDataStorage",
          "name": "_storage",
          "type": "address"
        },
        {
          "internalType": "uint256",
          "name": "_rewardAmount",
          "type": "uint256"
        }
      ],
      "stateMutability": "nonpayable",
      "type": "constructor"
    },
    {
      "anonymous": false,
      "inputs": [
        {
          "indexed": false,
          "internalType": "bytes32",
          "name": "_quizId",
          "type": "bytes32"
        }
      ],
      "name": "Awards",
      "type": "event"
    },
    {
      "anonymous": false,
      "inputs": [
        {
          "indexed": false,
          "internalType": "string",
          "name": "_appId",
          "type": "string"
        },
        {
          "indexed": false,
          "internalType": "uint256",
          "name": "_quizId",
          "type": "uint256"
        },
        {
          "indexed": false,
          "internalType": "int256",
          "name": "_groupId",
          "type": "int256"
        },
        {
          "indexed": false,
          "internalType": "uint256",
          "name": "_botType",
          "type": "uint256"
        },
        {
          "indexed": false,
          "internalType": "string[]",
          "name": "questions",
          "type": "string[]"
        },
        {
          "indexed": false,
          "internalType": "uint256",
          "name": "_rewardAmount",
          "type": "uint256"
        },
        {
          "indexed": false,
          "internalType": "uint256",
          "name": "_startTime",
          "type": "uint256"
        },
        {
          "indexed": false,
          "internalType": "uint256",
          "name": "_activeTime",
          "type": "uint256"
        }
      ],
      "name": "CreateQuiz",
      "type": "event"
    },
    {
      "inputs": [
        {
          "internalType": "string",
          "name": "_appId",
          "type": "string"
        },
        {
          "internalType": "address payable",
          "name": "_newOperator",
          "type": "address"
        }
      ],
      "name": "addAppOperator",
      "outputs": [],
      "stateMutability": "nonpayable",
      "type": "function"
    },
    {
      "inputs": [
        {
          "internalType": "string",
          "name": "_appId",
          "type": "string"
        },
        {
          "internalType": "uint256",
          "name": "_quizId",
          "type": "uint256"
        },
        {
          "internalType": "address[]",
          "name": "_inductees",
          "type": "address[]"
        },
        {
          "internalType": "uint256",
          "name": "_participateNumber",
          "type": "uint256"
        }
      ],
      "name": "addInductees",
      "outputs": [],
      "stateMutability": "nonpayable",
      "type": "function"
    },
    {
      "inputs": [
        {
          "internalType": "string",
          "name": "_appId",
          "type": "string"
        },
        {
          "internalType": "uint256",
          "name": "_quizId",
          "type": "uint256"
        }
      ],
      "name": "awards",
      "outputs": [],
      "stateMutability": "nonpayable",
      "type": "function"
    },
    {
      "inputs": [
        {
          "internalType": "contract ILottery",
          "name": "_newLottery",
          "type": "address"
        }
      ],
      "name": "changeLottery",
      "outputs": [],
      "stateMutability": "nonpayable",
      "type": "function"
    },
    {
      "inputs": [
        {
          "internalType": "address payable",
          "name": "_newOperator",
          "type": "address"
        }
      ],
      "name": "changeOperator",
      "outputs": [],
      "stateMutability": "nonpayable",
      "type": "function"
    },
    {
      "inputs": [
        {
          "internalType": "contract IQuizToken",
          "name": "_newQuizToken",
          "type": "address"
        }
      ],
      "name": "changeQuizToken",
      "outputs": [],
      "stateMutability": "nonpayable",
      "type": "function"
    },
    {
      "inputs": [
        {
          "internalType": "uint256",
          "name": "_newAmount",
          "type": "uint256"
        }
      ],
      "name": "changeRewardAmount",
      "outputs": [],
      "stateMutability": "nonpayable",
      "type": "function"
    },
    {
      "inputs": [],
      "name": "correctRewardAmount",
      "outputs": [
        {
          "internalType": "uint256",
          "name": "",
          "type": "uint256"
        }
      ],
      "stateMutability": "view",
      "type": "function"
    },
    {
      "inputs": [
        {
          "internalType": "string",
          "name": "_appId",
          "type": "string"
        },
        {
          "internalType": "uint256",
          "name": "_quizId",
          "type": "uint256"
        },
        {
          "internalType": "int256",
          "name": "_groupId",
          "type": "int256"
        },
        {
          "internalType": "uint256",
          "name": "_botType",
          "type": "uint256"
        },
        {
          "internalType": "string[]",
          "name": "_questions",
          "type": "string[]"
        },
        {
          "internalType": "uint256",
          "name": "_rewardAmount",
          "type": "uint256"
        },
        {
          "internalType": "uint256",
          "name": "_startTime",
          "type": "uint256"
        },
        {
          "internalType": "uint256",
          "name": "_activeTime",
          "type": "uint256"
        },
        {
          "internalType": "string",
          "name": "_title",
          "type": "string"
        },
        {
          "internalType": "string",
          "name": "_photo",
          "type": "string"
        }
      ],
      "name": "createQuiz",
      "outputs": [],
      "stateMutability": "payable",
      "type": "function"
    },
    {
      "inputs": [],
      "name": "dataStorage",
      "outputs": [
        {
          "internalType": "contract IDataStorage",
          "name": "",
          "type": "address"
        }
      ],
      "stateMutability": "view",
      "type": "function"
    },
    {
      "inputs": [
        {
          "internalType": "string",
          "name": "_appId",
          "type": "string"
        },
        {
          "internalType": "uint256",
          "name": "_quizId",
          "type": "uint256"
        },
        {
          "internalType": "int256",
          "name": "_groupId",
          "type": "int256"
        },
        {
          "internalType": "string[]",
          "name": "_questions",
          "type": "string[]"
        },
        {
          "internalType": "uint256",
          "name": "_startTime",
          "type": "uint256"
        },
        {
          "internalType": "uint256",
          "name": "_activeTime",
          "type": "uint256"
        },
        {
          "internalType": "string",
          "name": "_title",
          "type": "string"
        },
        {
          "internalType": "string",
          "name": "_photo",
          "type": "string"
        }
      ],
      "name": "editQuiz",
      "outputs": [],
      "stateMutability": "nonpayable",
      "type": "function"
    },
    {
      "inputs": [
        {
          "internalType": "string",
          "name": "_appId",
          "type": "string"
        }
      ],
      "name": "getAppQuizIds",
      "outputs": [
        {
          "internalType": "uint256[]",
          "name": "",
          "type": "uint256[]"
        }
      ],
      "stateMutability": "view",
      "type": "function"
    },
    {
      "inputs": [
        {
          "internalType": "uint256",
          "name": "_quizId",
          "type": "uint256"
        }
      ],
      "name": "getInductees",
      "outputs": [
        {
          "internalType": "address[]",
          "name": "",
          "type": "address[]"
        }
      ],
      "stateMutability": "view",
      "type": "function"
    },
    {
      "inputs": [
        {
          "internalType": "uint256",
          "name": "_quizId",
          "type": "uint256"
        },
        {
          "internalType": "uint256",
          "name": "_index",
          "type": "uint256"
        }
      ],
      "name": "getLotteryResults",
      "outputs": [
        {
          "internalType": "address[]",
          "name": "",
          "type": "address[]"
        }
      ],
      "stateMutability": "view",
      "type": "function"
    },
    {
      "inputs": [
        {
          "internalType": "uint256",
          "name": "_quizId",
          "type": "uint256"
        }
      ],
      "name": "getQuiz",
      "outputs": [
        {
          "components": [
            {
              "internalType": "uint256",
              "name": "id",
              "type": "uint256"
            },
            {
              "internalType": "string",
              "name": "app_id",
              "type": "string"
            },
            {
              "internalType": "string[]",
              "name": "questions",
              "type": "string[]"
            },
            {
              "internalType": "uint256",
              "name": "amount",
              "type": "uint256"
            },
            {
              "internalType": "int256",
              "name": "group",
              "type": "int256"
            },
            {
              "internalType": "uint256",
              "name": "botType",
              "type": "uint256"
            },
            {
              "internalType": "bool",
              "name": "exist",
              "type": "bool"
            },
            {
              "internalType": "bool",
              "name": "over",
              "type": "bool"
            },
            {
              "internalType": "uint256",
              "name": "startTime",
              "type": "uint256"
            },
            {
              "internalType": "uint256",
              "name": "activeTime",
              "type": "uint256"
            },
            {
              "internalType": "string",
              "name": "title",
              "type": "string"
            },
            {
              "internalType": "string",
              "name": "photo",
              "type": "string"
            },
            {
              "internalType": "uint256",
              "name": "participate",
              "type": "uint256"
            }
          ],
          "internalType": "struct IDataStorage.QuizDetail",
          "name": "",
          "type": "tuple"
        }
      ],
      "stateMutability": "view",
      "type": "function"
    },
    {
      "inputs": [
        {
          "internalType": "uint256[]",
          "name": "_ids",
          "type": "uint256[]"
        }
      ],
      "name": "getQuizzes",
      "outputs": [
        {
          "components": [
            {
              "internalType": "uint256",
              "name": "id",
              "type": "uint256"
            },
            {
              "internalType": "string",
              "name": "app_id",
              "type": "string"
            },
            {
              "internalType": "string[]",
              "name": "questions",
              "type": "string[]"
            },
            {
              "internalType": "uint256",
              "name": "amount",
              "type": "uint256"
            },
            {
              "internalType": "int256",
              "name": "group",
              "type": "int256"
            },
            {
              "internalType": "uint256",
              "name": "botType",
              "type": "uint256"
            },
            {
              "internalType": "bool",
              "name": "exist",
              "type": "bool"
            },
            {
              "internalType": "bool",
              "name": "over",
              "type": "bool"
            },
            {
              "internalType": "uint256",
              "name": "startTime",
              "type": "uint256"
            },
            {
              "internalType": "uint256",
              "name": "activeTime",
              "type": "uint256"
            },
            {
              "internalType": "string",
              "name": "title",
              "type": "string"
            },
            {
              "internalType": "string",
              "name": "photo",
              "type": "string"
            },
            {
              "internalType": "uint256",
              "name": "participate",
              "type": "uint256"
            }
          ],
          "internalType": "struct IDataStorage.QuizDetail[]",
          "name": "",
          "type": "tuple[]"
        }
      ],
      "stateMutability": "view",
      "type": "function"
    },
    {
      "inputs": [],
      "name": "getShouldAwardQuizIds",
      "outputs": [
        {
          "internalType": "uint256[]",
          "name": "",
          "type": "uint256[]"
        }
      ],
      "stateMutability": "view",
      "type": "function"
    },
    {
      "inputs": [],
      "name": "lottery",
      "outputs": [
        {
          "internalType": "contract ILottery",
          "name": "",
          "type": "address"
        }
      ],
      "stateMutability": "view",
      "type": "function"
    },
    {
      "inputs": [],
      "name": "operator",
      "outputs": [
        {
          "internalType": "address payable",
          "name": "",
          "type": "address"
        }
      ],
      "stateMutability": "view",
      "type": "function"
    },
    {
      "inputs": [],
      "name": "owner",
      "outputs": [
        {
          "internalType": "address",
          "name": "",
          "type": "address"
        }
      ],
      "stateMutability": "view",
      "type": "function"
    },
    {
      "inputs": [],
      "name": "quizToken",
      "outputs": [
        {
          "internalType": "contract IQuizToken",
          "name": "",
          "type": "address"
        }
      ],
      "stateMutability": "view",
      "type": "function"
    },
    {
      "inputs": [
        {
          "internalType": "address",
          "name": "_newOwner",
          "type": "address"
        }
      ],
      "name": "transferOwner",
      "outputs": [],
      "stateMutability": "nonpayable",
      "type": "function"
    }
  ],
  "bytecode": "0x60806040523480156200001157600080fd5b5060405162004c5d38038062004c5d833981810160405281019062000037919062000315565b336000806101000a81548173ffffffffffffffffffffffffffffffffffffffff021916908373ffffffffffffffffffffffffffffffffffffffff16021790555084600160006101000a81548173ffffffffffffffffffffffffffffffffffffffff021916908373ffffffffffffffffffffffffffffffffffffffff16021790555083600360006101000a81548173ffffffffffffffffffffffffffffffffffffffff021916908373ffffffffffffffffffffffffffffffffffffffff16021790555082600460006101000a81548173ffffffffffffffffffffffffffffffffffffffff021916908373ffffffffffffffffffffffffffffffffffffffff16021790555081600560006101000a81548173ffffffffffffffffffffffffffffffffffffffff021916908373ffffffffffffffffffffffffffffffffffffffff1602179055508060068190555050505050506200039d565b600080fd5b600073ffffffffffffffffffffffffffffffffffffffff82169050919050565b6000620001bf8262000192565b9050919050565b620001d181620001b2565b8114620001dd57600080fd5b50565b600081519050620001f181620001c6565b92915050565b6000620002048262000192565b9050919050565b60006200021882620001f7565b9050919050565b6200022a816200020b565b81146200023657600080fd5b50565b6000815190506200024a816200021f565b92915050565b60006200025d82620001f7565b9050919050565b6200026f8162000250565b81146200027b57600080fd5b50565b6000815190506200028f8162000264565b92915050565b6000620002a282620001f7565b9050919050565b620002b48162000295565b8114620002c057600080fd5b50565b600081519050620002d481620002a9565b92915050565b6000819050919050565b620002ef81620002da565b8114620002fb57600080fd5b50565b6000815190506200030f81620002e4565b92915050565b600080600080600060a086880312156200033457620003336200018d565b5b60006200034488828901620001e0565b9550506020620003578882890162000239565b94505060406200036a888289016200027e565b93505060606200037d88828901620002c3565b92505060806200039088828901620002fe565b9150509295509295909350565b6148b080620003ad6000396000f3fe6080604052600436106101755760003560e01c80638da5cb5b116100cb578063b93833c31161007f578063db27e1ab11610059578063db27e1ab146104c2578063e5ee25cf146104ff578063f3f811221461052857610175565b8063b93833c314610452578063ba13a5721461047b578063d35a8ff8146104a657610175565b8063a772c8f8116100b0578063a772c8f8146103bf578063abc8b107146103fc578063b68e71bf1461042757610175565b80638da5cb5b14610357578063a3f7e0961461038257610175565b80634fb2e45d1161012d5780638307173f116101075780638307173f146102c65780638870455f146102ef5780638a20d49c1461031a57610175565b80634fb2e45d14610249578063512f8f9214610272578063570ca7351461029b57610175565b80630bd099791161015e5780630bd09979146101cc57806327ea2132146101f557806331d9a5f31461021e57610175565b806306394c9b1461017a57806308d199f8146101a3575b600080fd5b34801561018657600080fd5b506101a1600480360381019061019c91906128fc565b610565565b005b3480156101af57600080fd5b506101ca60048036038101906101c59190612bc1565b610637565b005b3480156101d857600080fd5b506101f360048036038101906101ee9190612ce7565b610b49565b005b34801561020157600080fd5b5061021c60048036038101906102179190612d93565b610c38565b005b34801561022a57600080fd5b50610233610d0a565b6040516102409190612e7e565b60405180910390f35b34801561025557600080fd5b50610270600480360381019061026b9190612ecc565b610db6565b005b34801561027e57600080fd5b5061029960048036038101906102949190612f37565b610e87565b005b3480156102a757600080fd5b506102b0611043565b6040516102bd9190612f73565b60405180910390f35b3480156102d257600080fd5b506102ed60048036038101906102e89190613051565b611069565b005b3480156102fb57600080fd5b50610304611543565b604051610311919061314f565b60405180910390f35b34801561032657600080fd5b50610341600480360381019061033c919061316a565b611569565b60405161034e9190613268565b60405180910390f35b34801561036357600080fd5b5061036c611625565b6040516103799190613299565b60405180910390f35b34801561038e57600080fd5b506103a960048036038101906103a491906132b4565b611649565b6040516103b69190613583565b60405180910390f35b3480156103cb57600080fd5b506103e660048036038101906103e19190613668565b611708565b6040516103f391906138a1565b60405180910390f35b34801561040857600080fd5b506104116117c1565b60405161041e91906138d2565b60405180910390f35b34801561043357600080fd5b5061043c6117c7565b604051610449919061390e565b60405180910390f35b34801561045e57600080fd5b50610479600480360381019061047491906132b4565b6117ed565b005b34801561048757600080fd5b50610490611885565b60405161049d919061394a565b60405180910390f35b6104c060048036038101906104bb9190613965565b6118ab565b005b3480156104ce57600080fd5b506104e960048036038101906104e49190613ab4565b611fb7565b6040516104f69190612e7e565b60405180910390f35b34801561050b57600080fd5b5061052660048036038101906105219190613afd565b612070565b005b34801561053457600080fd5b5061054f600480360381019061054a91906132b4565b612765565b60405161055c9190613268565b60405180910390f35b60008054906101000a900473ffffffffffffffffffffffffffffffffffffffff1673ffffffffffffffffffffffffffffffffffffffff163373ffffffffffffffffffffffffffffffffffffffff16146105f3576040517f08c379a00000000000000000000000000000000000000000000000000000000081526004016105ea90613bb6565b60405180910390fd5b80600160006101000a81548173ffffffffffffffffffffffffffffffffffffffff021916908373ffffffffffffffffffffffffffffffffffffffff16021790555050565b87600560009054906101000a900473ffffffffffffffffffffffffffffffffffffffff1673ffffffffffffffffffffffffffffffffffffffff1663b796e2b082336040518363ffffffff1660e01b8152600401610695929190613c0f565b60206040518083038186803b1580156106ad57600080fd5b505afa1580156106c1573d6000803e3d6000fd5b505050506040513d601f19601f820116820180604052508101906106e59190613c6b565b8061073d57503373ffffffffffffffffffffffffffffffffffffffff16600160009054906101000a900473ffffffffffffffffffffffffffffffffffffffff1673ffffffffffffffffffffffffffffffffffffffff16145b806107b157503373ffffffffffffffffffffffffffffffffffffffff1660028260405161076a9190613cd4565b908152602001604051809103902060009054906101000a900473ffffffffffffffffffffffffffffffffffffffff1673ffffffffffffffffffffffffffffffffffffffff16145b8061080757503373ffffffffffffffffffffffffffffffffffffffff1660008054906101000a900473ffffffffffffffffffffffffffffffffffffffff1673ffffffffffffffffffffffffffffffffffffffff16145b610846576040517f08c379a000000000000000000000000000000000000000000000000000000000815260040161083d90613d37565b60405180910390fd5b87600081141561088b576040517f08c379a000000000000000000000000000000000000000000000000000000000815260040161088290613da3565b60405180910390fd5b600560009054906101000a900473ffffffffffffffffffffffffffffffffffffffff1673ffffffffffffffffffffffffffffffffffffffff1663a3f7e096826040518263ffffffff1660e01b81526004016108e691906138d2565b60006040518083038186803b1580156108fe57600080fd5b505afa158015610912573d6000803e3d6000fd5b505050506040513d6000823e3d601f19601f8201168201806040525081019061093b91906140c4565b60c0015161097e576040517f08c379a000000000000000000000000000000000000000000000000000000000815260040161097590614159565b60405180910390fd5b6000600560009054906101000a900473ffffffffffffffffffffffffffffffffffffffff1673ffffffffffffffffffffffffffffffffffffffff1663a3f7e0968b6040518263ffffffff1660e01b81526004016109db91906138d2565b60006040518083038186803b1580156109f357600080fd5b505afa158015610a07573d6000803e3d6000fd5b505050506040513d6000823e3d601f19601f82011682018060405250810190610a3091906140c4565b905060008914610a4557888160800181815250505b600088511115610a59578781604001819052505b6000871115610a6e5786816101000181815250505b6000861115610a835785816101200181815250505b600085511115610a9857848161014001819052505b600084511115610aad57838161016001819052505b600560009054906101000a900473ffffffffffffffffffffffffffffffffffffffff1673ffffffffffffffffffffffffffffffffffffffff166301354e318c836040518363ffffffff1660e01b8152600401610b0a929190614179565b600060405180830381600087803b158015610b2457600080fd5b505af1158015610b38573d6000803e3d6000fd5b505050505050505050505050505050565b60008054906101000a900473ffffffffffffffffffffffffffffffffffffffff1673ffffffffffffffffffffffffffffffffffffffff163373ffffffffffffffffffffffffffffffffffffffff1614610bd7576040517f08c379a0000000000000000000000000000000000000000000000000000000008152600401610bce90613bb6565b60405180910390fd5b80600283604051610be89190613cd4565b908152602001604051809103902060006101000a81548173ffffffffffffffffffffffffffffffffffffffff021916908373ffffffffffffffffffffffffffffffffffffffff1602179055505050565b60008054906101000a900473ffffffffffffffffffffffffffffffffffffffff1673ffffffffffffffffffffffffffffffffffffffff163373ffffffffffffffffffffffffffffffffffffffff1614610cc6576040517f08c379a0000000000000000000000000000000000000000000000000000000008152600401610cbd90613bb6565b60405180910390fd5b80600460006101000a81548173ffffffffffffffffffffffffffffffffffffffff021916908373ffffffffffffffffffffffffffffffffffffffff16021790555050565b6060600560009054906101000a900473ffffffffffffffffffffffffffffffffffffffff1673ffffffffffffffffffffffffffffffffffffffff166331d9a5f36040518163ffffffff1660e01b815260040160006040518083038186803b158015610d7457600080fd5b505afa158015610d88573d6000803e3d6000fd5b505050506040513d6000823e3d601f19601f82011682018060405250810190610db19190614247565b905090565b60008054906101000a900473ffffffffffffffffffffffffffffffffffffffff1673ffffffffffffffffffffffffffffffffffffffff163373ffffffffffffffffffffffffffffffffffffffff1614610e44576040517f08c379a0000000000000000000000000000000000000000000000000000000008152600401610e3b90613bb6565b60405180910390fd5b806000806101000a81548173ffffffffffffffffffffffffffffffffffffffff021916908373ffffffffffffffffffffffffffffffffffffffff16021790555050565b60008054906101000a900473ffffffffffffffffffffffffffffffffffffffff1673ffffffffffffffffffffffffffffffffffffffff163373ffffffffffffffffffffffffffffffffffffffff1614610f15576040517f08c379a0000000000000000000000000000000000000000000000000000000008152600401610f0c90613bb6565b60405180910390fd5b600073ffffffffffffffffffffffffffffffffffffffff16600360009054906101000a900473ffffffffffffffffffffffffffffffffffffffff1673ffffffffffffffffffffffffffffffffffffffff1614610fff576000819050600360009054906101000a900473ffffffffffffffffffffffffffffffffffffffff1673ffffffffffffffffffffffffffffffffffffffff1663c7d7b660826040518263ffffffff1660e01b8152600401610fcb9190612f73565b600060405180830381600087803b158015610fe557600080fd5b505af1158015610ff9573d6000803e3d6000fd5b50505050505b80600360006101000a81548173ffffffffffffffffffffffffffffffffffffffff021916908373ffffffffffffffffffffffffffffffffffffffff16021790555050565b600160009054906101000a900473ffffffffffffffffffffffffffffffffffffffff1681565b8260008114156110ae576040517f08c379a00000000000000000000000000000000000000000000000000000000081526004016110a590613da3565b60405180910390fd5b600560009054906101000a900473ffffffffffffffffffffffffffffffffffffffff1673ffffffffffffffffffffffffffffffffffffffff1663a3f7e096826040518263ffffffff1660e01b815260040161110991906138d2565b60006040518083038186803b15801561112157600080fd5b505afa158015611135573d6000803e3d6000fd5b505050506040513d6000823e3d601f19601f8201168201806040525081019061115e91906140c4565b60c001516111a1576040517f08c379a000000000000000000000000000000000000000000000000000000000815260040161119890614159565b60405180910390fd5b84600560009054906101000a900473ffffffffffffffffffffffffffffffffffffffff1673ffffffffffffffffffffffffffffffffffffffff1663b796e2b082336040518363ffffffff1660e01b81526004016111ff929190613c0f565b60206040518083038186803b15801561121757600080fd5b505afa15801561122b573d6000803e3d6000fd5b505050506040513d601f19601f8201168201806040525081019061124f9190613c6b565b806112a757503373ffffffffffffffffffffffffffffffffffffffff16600160009054906101000a900473ffffffffffffffffffffffffffffffffffffffff1673ffffffffffffffffffffffffffffffffffffffff16145b8061131b57503373ffffffffffffffffffffffffffffffffffffffff166002826040516112d49190613cd4565b908152602001604051809103902060009054906101000a900473ffffffffffffffffffffffffffffffffffffffff1673ffffffffffffffffffffffffffffffffffffffff16145b8061137157503373ffffffffffffffffffffffffffffffffffffffff1660008054906101000a900473ffffffffffffffffffffffffffffffffffffffff1673ffffffffffffffffffffffffffffffffffffffff16145b6113b0576040517f08c379a00000000000000000000000000000000000000000000000000000000081526004016113a790613d37565b60405180910390fd5b6000600560009054906101000a900473ffffffffffffffffffffffffffffffffffffffff1673ffffffffffffffffffffffffffffffffffffffff1663a3f7e096876040518263ffffffff1660e01b815260040161140d91906138d2565b60006040518083038186803b15801561142557600080fd5b505afa158015611439573d6000803e3d6000fd5b505050506040513d6000823e3d601f19601f8201168201806040525081019061146291906140c4565b90508060e00151156114a9576040517f08c379a00000000000000000000000000000000000000000000000000000000081526004016114a0906142dc565b60405180910390fd5b600560009054906101000a900473ffffffffffffffffffffffffffffffffffffffff1673ffffffffffffffffffffffffffffffffffffffff1663766be05c8787876040518463ffffffff1660e01b8152600401611508939291906142fc565b600060405180830381600087803b15801561152257600080fd5b505af1158015611536573d6000803e3d6000fd5b5050505050505050505050565b600560009054906101000a900473ffffffffffffffffffffffffffffffffffffffff1681565b6060600560009054906101000a900473ffffffffffffffffffffffffffffffffffffffff1673ffffffffffffffffffffffffffffffffffffffff1663a890cb3a84846040518363ffffffff1660e01b81526004016115c892919061433a565b60006040518083038186803b1580156115e057600080fd5b505afa1580156115f4573d6000803e3d6000fd5b505050506040513d6000823e3d601f19601f8201168201806040525081019061161d919061440f565b905092915050565b60008054906101000a900473ffffffffffffffffffffffffffffffffffffffff1681565b61165161281e565b600560009054906101000a900473ffffffffffffffffffffffffffffffffffffffff1673ffffffffffffffffffffffffffffffffffffffff1663a3f7e096836040518263ffffffff1660e01b81526004016116ac91906138d2565b60006040518083038186803b1580156116c457600080fd5b505afa1580156116d8573d6000803e3d6000fd5b505050506040513d6000823e3d601f19601f8201168201806040525081019061170191906140c4565b9050919050565b6060600560009054906101000a900473ffffffffffffffffffffffffffffffffffffffff1673ffffffffffffffffffffffffffffffffffffffff1663a772c8f8836040518263ffffffff1660e01b81526004016117659190612e7e565b60006040518083038186803b15801561177d57600080fd5b505afa158015611791573d6000803e3d6000fd5b505050506040513d6000823e3d601f19601f820116820180604052508101906117ba9190614539565b9050919050565b60065481565b600460009054906101000a900473ffffffffffffffffffffffffffffffffffffffff1681565b60008054906101000a900473ffffffffffffffffffffffffffffffffffffffff1673ffffffffffffffffffffffffffffffffffffffff163373ffffffffffffffffffffffffffffffffffffffff161461187b576040517f08c379a000000000000000000000000000000000000000000000000000000000815260040161187290613bb6565b60405180910390fd5b8060068190555050565b600360009054906101000a900473ffffffffffffffffffffffffffffffffffffffff1681565b89600560009054906101000a900473ffffffffffffffffffffffffffffffffffffffff1673ffffffffffffffffffffffffffffffffffffffff1663b796e2b082336040518363ffffffff1660e01b8152600401611909929190613c0f565b60206040518083038186803b15801561192157600080fd5b505afa158015611935573d6000803e3d6000fd5b505050506040513d601f19601f820116820180604052508101906119599190613c6b565b806119b157503373ffffffffffffffffffffffffffffffffffffffff16600160009054906101000a900473ffffffffffffffffffffffffffffffffffffffff1673ffffffffffffffffffffffffffffffffffffffff16145b80611a2557503373ffffffffffffffffffffffffffffffffffffffff166002826040516119de9190613cd4565b908152602001604051809103902060009054906101000a900473ffffffffffffffffffffffffffffffffffffffff1673ffffffffffffffffffffffffffffffffffffffff16145b80611a7b57503373ffffffffffffffffffffffffffffffffffffffff1660008054906101000a900473ffffffffffffffffffffffffffffffffffffffff1673ffffffffffffffffffffffffffffffffffffffff16145b611aba576040517f08c379a0000000000000000000000000000000000000000000000000000000008152600401611ab190613d37565b60405180910390fd5b60008a1415611afe576040517f08c379a0000000000000000000000000000000000000000000000000000000008152600401611af590613da3565b60405180910390fd5b6000600560009054906101000a900473ffffffffffffffffffffffffffffffffffffffff1673ffffffffffffffffffffffffffffffffffffffff1663a3f7e0968c6040518263ffffffff1660e01b8152600401611b5b91906138d2565b60006040518083038186803b158015611b7357600080fd5b505afa158015611b87573d6000803e3d6000fd5b505050506040513d6000823e3d601f19601f82011682018060405250810190611bb091906140c4565b90508060c0015115611bf7576040517f08c379a0000000000000000000000000000000000000000000000000000000008152600401611bee906145ce565b60405180910390fd5b6006549650600060028d604051611c0e9190613cd4565b908152602001604051809103902060009054906101000a900473ffffffffffffffffffffffffffffffffffffffff169050600160009054906101000a900473ffffffffffffffffffffffffffffffffffffffff1673ffffffffffffffffffffffffffffffffffffffff163373ffffffffffffffffffffffffffffffffffffffff1614158015611ce9575060008054906101000a900473ffffffffffffffffffffffffffffffffffffffff1673ffffffffffffffffffffffffffffffffffffffff163373ffffffffffffffffffffffffffffffffffffffff1614155b15611e5f5760003411611d31576040517f08c379a0000000000000000000000000000000000000000000000000000000008152600401611d289061463a565b60405180910390fd5b600073ffffffffffffffffffffffffffffffffffffffff168173ffffffffffffffffffffffffffffffffffffffff1614611df45760003411611da8576040517f08c379a0000000000000000000000000000000000000000000000000000000008152600401611d9f9061463a565b60405180910390fd5b8073ffffffffffffffffffffffffffffffffffffffff166108fc349081150290604051600060405180830381858888f19350505050158015611dee573d6000803e3d6000fd5b50611e5e565b600160009054906101000a900473ffffffffffffffffffffffffffffffffffffffff1673ffffffffffffffffffffffffffffffffffffffff166108fc349081150290604051600060405180830381858888f19350505050158015611e5c573d6000803e3d6000fd5b505b5b8b8260000181815250508c8260200181905250878260600181815250508882604001819052508a82608001818152505060018260c0019015159081151581525050898260a0018181525050848261014001819052508382610160018190525086826101000181815250508582610120018181525050600560009054906101000a900473ffffffffffffffffffffffffffffffffffffffff1673ffffffffffffffffffffffffffffffffffffffff166301354e318e846040518363ffffffff1660e01b8152600401611f31929190614179565b600060405180830381600087803b158015611f4b57600080fd5b505af1158015611f5f573d6000803e3d6000fd5b505050507f12d6be7d5b357e475ec38073de7e8d794f6d75a7fa0088146043f22255067e278d8d8d8d8d8d8d8d604051611fa09897969594939291906146ef565b60405180910390a150505050505050505050505050565b6060600560009054906101000a900473ffffffffffffffffffffffffffffffffffffffff1673ffffffffffffffffffffffffffffffffffffffff1663db27e1ab836040518263ffffffff1660e01b8152600401612014919061477b565b60006040518083038186803b15801561202c57600080fd5b505afa158015612040573d6000803e3d6000fd5b505050506040513d6000823e3d601f19601f820116820180604052508101906120699190614247565b9050919050565b8060008114156120b5576040517f08c379a00000000000000000000000000000000000000000000000000000000081526004016120ac90613da3565b60405180910390fd5b600560009054906101000a900473ffffffffffffffffffffffffffffffffffffffff1673ffffffffffffffffffffffffffffffffffffffff1663a3f7e096826040518263ffffffff1660e01b815260040161211091906138d2565b60006040518083038186803b15801561212857600080fd5b505afa15801561213c573d6000803e3d6000fd5b505050506040513d6000823e3d601f19601f8201168201806040525081019061216591906140c4565b60c001516121a8576040517f08c379a000000000000000000000000000000000000000000000000000000000815260040161219f90614159565b60405180910390fd5b82600560009054906101000a900473ffffffffffffffffffffffffffffffffffffffff1673ffffffffffffffffffffffffffffffffffffffff1663b796e2b082336040518363ffffffff1660e01b8152600401612206929190613c0f565b60206040518083038186803b15801561221e57600080fd5b505afa158015612232573d6000803e3d6000fd5b505050506040513d601f19601f820116820180604052508101906122569190613c6b565b806122ae57503373ffffffffffffffffffffffffffffffffffffffff16600160009054906101000a900473ffffffffffffffffffffffffffffffffffffffff1673ffffffffffffffffffffffffffffffffffffffff16145b8061232257503373ffffffffffffffffffffffffffffffffffffffff166002826040516122db9190613cd4565b908152602001604051809103902060009054906101000a900473ffffffffffffffffffffffffffffffffffffffff1673ffffffffffffffffffffffffffffffffffffffff16145b8061237857503373ffffffffffffffffffffffffffffffffffffffff1660008054906101000a900473ffffffffffffffffffffffffffffffffffffffff1673ffffffffffffffffffffffffffffffffffffffff16145b6123b7576040517f08c379a00000000000000000000000000000000000000000000000000000000081526004016123ae90613d37565b60405180910390fd5b6000600560009054906101000a900473ffffffffffffffffffffffffffffffffffffffff1673ffffffffffffffffffffffffffffffffffffffff1663a3f7e096856040518263ffffffff1660e01b815260040161241491906138d2565b60006040518083038186803b15801561242c57600080fd5b505afa158015612440573d6000803e3d6000fd5b505050506040513d6000823e3d601f19601f8201168201806040525081019061246991906140c4565b90508060e00151156124b0576040517f08c379a00000000000000000000000000000000000000000000000000000000081526004016124a7906142dc565b60405180910390fd5b6000600560009054906101000a900473ffffffffffffffffffffffffffffffffffffffff1673ffffffffffffffffffffffffffffffffffffffff1663f3f81122866040518263ffffffff1660e01b815260040161250d91906138d2565b60006040518083038186803b15801561252557600080fd5b505afa158015612539573d6000803e3d6000fd5b505050506040513d6000823e3d601f19601f82011682018060405250810190612562919061440f565b905060005b815181101561263157600460009054906101000a900473ffffffffffffffffffffffffffffffffffffffff1673ffffffffffffffffffffffffffffffffffffffff166340c10f198383815181106125c1576125c061479d565b5b602002602001015185606001516040518363ffffffff1660e01b81526004016125eb9291906147cc565b600060405180830381600087803b15801561260557600080fd5b505af1158015612619573d6000803e3d6000fd5b5050505060018161262a9190614824565b9050612567565b60018360e0019015159081151581525050600560009054906101000a900473ffffffffffffffffffffffffffffffffffffffff1673ffffffffffffffffffffffffffffffffffffffff1663828dd967876040518263ffffffff1660e01b815260040161269d91906138d2565b600060405180830381600087803b1580156126b757600080fd5b505af11580156126cb573d6000803e3d6000fd5b50505050600360009054906101000a900473ffffffffffffffffffffffffffffffffffffffff1673ffffffffffffffffffffffffffffffffffffffff166363e71afa876040518263ffffffff1660e01b815260040161272a91906138d2565b600060405180830381600087803b15801561274457600080fd5b505af1158015612758573d6000803e3d6000fd5b5050505050505050505050565b6060600560009054906101000a900473ffffffffffffffffffffffffffffffffffffffff1673ffffffffffffffffffffffffffffffffffffffff1663f3f81122836040518263ffffffff1660e01b81526004016127c291906138d2565b60006040518083038186803b1580156127da57600080fd5b505afa1580156127ee573d6000803e3d6000fd5b505050506040513d6000823e3d601f19601f82011682018060405250810190612817919061440f565b9050919050565b604051806101a0016040528060008152602001606081526020016060815260200160008152602001600081526020016000815260200160001515815260200160001515815260200160008152602001600081526020016060815260200160608152602001600081525090565b6000604051905090565b600080fd5b600080fd5b600073ffffffffffffffffffffffffffffffffffffffff82169050919050565b60006128c98261289e565b9050919050565b6128d9816128be565b81146128e457600080fd5b50565b6000813590506128f6816128d0565b92915050565b60006020828403121561291257612911612894565b5b6000612920848285016128e7565b91505092915050565b600080fd5b600080fd5b6000601f19601f8301169050919050565b7f4e487b7100000000000000000000000000000000000000000000000000000000600052604160045260246000fd5b61297c82612933565b810181811067ffffffffffffffff8211171561299b5761299a612944565b5b80604052505050565b60006129ae61288a565b90506129ba8282612973565b919050565b600067ffffffffffffffff8211156129da576129d9612944565b5b6129e382612933565b9050602081019050919050565b82818337600083830152505050565b6000612a12612a0d846129bf565b6129a4565b905082815260208101848484011115612a2e57612a2d61292e565b5b612a398482856129f0565b509392505050565b600082601f830112612a5657612a55612929565b5b8135612a668482602086016129ff565b91505092915050565b6000819050919050565b612a8281612a6f565b8114612a8d57600080fd5b50565b600081359050612a9f81612a79565b92915050565b6000819050919050565b612ab881612aa5565b8114612ac357600080fd5b50565b600081359050612ad581612aaf565b92915050565b600067ffffffffffffffff821115612af657612af5612944565b5b602082029050602081019050919050565b600080fd5b6000612b1f612b1a84612adb565b6129a4565b90508083825260208201905060208402830185811115612b4257612b41612b07565b5b835b81811015612b8957803567ffffffffffffffff811115612b6757612b66612929565b5b808601612b748982612a41565b85526020850194505050602081019050612b44565b5050509392505050565b600082601f830112612ba857612ba7612929565b5b8135612bb8848260208601612b0c565b91505092915050565b600080600080600080600080610100898b031215612be257612be1612894565b5b600089013567ffffffffffffffff811115612c0057612bff612899565b5b612c0c8b828c01612a41565b9850506020612c1d8b828c01612a90565b9750506040612c2e8b828c01612ac6565b965050606089013567ffffffffffffffff811115612c4f57612c4e612899565b5b612c5b8b828c01612b93565b9550506080612c6c8b828c01612a90565b94505060a0612c7d8b828c01612a90565b93505060c089013567ffffffffffffffff811115612c9e57612c9d612899565b5b612caa8b828c01612a41565b92505060e089013567ffffffffffffffff811115612ccb57612cca612899565b5b612cd78b828c01612a41565b9150509295985092959890939650565b60008060408385031215612cfe57612cfd612894565b5b600083013567ffffffffffffffff811115612d1c57612d1b612899565b5b612d2885828601612a41565b9250506020612d39858286016128e7565b9150509250929050565b6000612d4e8261289e565b9050919050565b6000612d6082612d43565b9050919050565b612d7081612d55565b8114612d7b57600080fd5b50565b600081359050612d8d81612d67565b92915050565b600060208284031215612da957612da8612894565b5b6000612db784828501612d7e565b91505092915050565b600081519050919050565b600082825260208201905092915050565b6000819050602082019050919050565b612df581612a6f565b82525050565b6000612e078383612dec565b60208301905092915050565b6000602082019050919050565b6000612e2b82612dc0565b612e358185612dcb565b9350612e4083612ddc565b8060005b83811015612e71578151612e588882612dfb565b9750612e6383612e13565b925050600181019050612e44565b5085935050505092915050565b60006020820190508181036000830152612e988184612e20565b905092915050565b612ea981612d43565b8114612eb457600080fd5b50565b600081359050612ec681612ea0565b92915050565b600060208284031215612ee257612ee1612894565b5b6000612ef084828501612eb7565b91505092915050565b6000612f0482612d43565b9050919050565b612f1481612ef9565b8114612f1f57600080fd5b50565b600081359050612f3181612f0b565b92915050565b600060208284031215612f4d57612f4c612894565b5b6000612f5b84828501612f22565b91505092915050565b612f6d816128be565b82525050565b6000602082019050612f886000830184612f64565b92915050565b600067ffffffffffffffff821115612fa957612fa8612944565b5b602082029050602081019050919050565b6000612fcd612fc884612f8e565b6129a4565b90508083825260208201905060208402830185811115612ff057612fef612b07565b5b835b8181101561301957806130058882612eb7565b845260208401935050602081019050612ff2565b5050509392505050565b600082601f83011261303857613037612929565b5b8135613048848260208601612fba565b91505092915050565b6000806000806080858703121561306b5761306a612894565b5b600085013567ffffffffffffffff81111561308957613088612899565b5b61309587828801612a41565b94505060206130a687828801612a90565b935050604085013567ffffffffffffffff8111156130c7576130c6612899565b5b6130d387828801613023565b92505060606130e487828801612a90565b91505092959194509250565b6000819050919050565b600061311561311061310b8461289e565b6130f0565b61289e565b9050919050565b6000613127826130fa565b9050919050565b60006131398261311c565b9050919050565b6131498161312e565b82525050565b60006020820190506131646000830184613140565b92915050565b6000806040838503121561318157613180612894565b5b600061318f85828601612a90565b92505060206131a085828601612a90565b9150509250929050565b600081519050919050565b600082825260208201905092915050565b6000819050602082019050919050565b6131df81612d43565b82525050565b60006131f183836131d6565b60208301905092915050565b6000602082019050919050565b6000613215826131aa565b61321f81856131b5565b935061322a836131c6565b8060005b8381101561325b57815161324288826131e5565b975061324d836131fd565b92505060018101905061322e565b5085935050505092915050565b60006020820190508181036000830152613282818461320a565b905092915050565b61329381612d43565b82525050565b60006020820190506132ae600083018461328a565b92915050565b6000602082840312156132ca576132c9612894565b5b60006132d884828501612a90565b91505092915050565b600081519050919050565b600082825260208201905092915050565b60005b8381101561331b578082015181840152602081019050613300565b8381111561332a576000848401525b50505050565b600061333b826132e1565b61334581856132ec565b93506133558185602086016132fd565b61335e81612933565b840191505092915050565b600081519050919050565b600082825260208201905092915050565b6000819050602082019050919050565b60006133a18383613330565b905092915050565b6000602082019050919050565b60006133c182613369565b6133cb8185613374565b9350836020820285016133dd85613385565b8060005b8581101561341957848403895281516133fa8582613395565b9450613405836133a9565b925060208a019950506001810190506133e1565b50829750879550505050505092915050565b61343481612aa5565b82525050565b60008115159050919050565b61344f8161343a565b82525050565b60006101a08301600083015161346e6000860182612dec565b50602083015184820360208601526134868282613330565b915050604083015184820360408601526134a082826133b6565b91505060608301516134b56060860182612dec565b5060808301516134c8608086018261342b565b5060a08301516134db60a0860182612dec565b5060c08301516134ee60c0860182613446565b5060e083015161350160e0860182613446565b50610100830151613516610100860182612dec565b5061012083015161352b610120860182612dec565b506101408301518482036101408601526135458282613330565b9150506101608301518482036101608601526135618282613330565b915050610180830151613578610180860182612dec565b508091505092915050565b6000602082019050818103600083015261359d8184613455565b905092915050565b600067ffffffffffffffff8211156135c0576135bf612944565b5b602082029050602081019050919050565b60006135e46135df846135a5565b6129a4565b9050808382526020820190506020840283018581111561360757613606612b07565b5b835b81811015613630578061361c8882612a90565b845260208401935050602081019050613609565b5050509392505050565b600082601f83011261364f5761364e612929565b5b813561365f8482602086016135d1565b91505092915050565b60006020828403121561367e5761367d612894565b5b600082013567ffffffffffffffff81111561369c5761369b612899565b5b6136a88482850161363a565b91505092915050565b600081519050919050565b600082825260208201905092915050565b6000819050602082019050919050565b60006101a0830160008301516136f66000860182612dec565b506020830151848203602086015261370e8282613330565b9150506040830151848203604086015261372882826133b6565b915050606083015161373d6060860182612dec565b506080830151613750608086018261342b565b5060a083015161376360a0860182612dec565b5060c083015161377660c0860182613446565b5060e083015161378960e0860182613446565b5061010083015161379e610100860182612dec565b506101208301516137b3610120860182612dec565b506101408301518482036101408601526137cd8282613330565b9150506101608301518482036101608601526137e98282613330565b915050610180830151613800610180860182612dec565b508091505092915050565b600061381783836136dd565b905092915050565b6000602082019050919050565b6000613837826136b1565b61384181856136bc565b935083602082028501613853856136cd565b8060005b8581101561388f5784840389528151613870858261380b565b945061387b8361381f565b925060208a01995050600181019050613857565b50829750879550505050505092915050565b600060208201905081810360008301526138bb818461382c565b905092915050565b6138cc81612a6f565b82525050565b60006020820190506138e760008301846138c3565b92915050565b60006138f88261311c565b9050919050565b613908816138ed565b82525050565b600060208201905061392360008301846138ff565b92915050565b60006139348261311c565b9050919050565b61394481613929565b82525050565b600060208201905061395f600083018461393b565b92915050565b6000806000806000806000806000806101408b8d03121561398957613988612894565b5b60008b013567ffffffffffffffff8111156139a7576139a6612899565b5b6139b38d828e01612a41565b9a505060206139c48d828e01612a90565b99505060406139d58d828e01612ac6565b98505060606139e68d828e01612a90565b97505060808b013567ffffffffffffffff811115613a0757613a06612899565b5b613a138d828e01612b93565b96505060a0613a248d828e01612a90565b95505060c0613a358d828e01612a90565b94505060e0613a468d828e01612a90565b9350506101008b013567ffffffffffffffff811115613a6857613a67612899565b5b613a748d828e01612a41565b9250506101208b013567ffffffffffffffff811115613a9657613a95612899565b5b613aa28d828e01612a41565b9150509295989b9194979a5092959850565b600060208284031215613aca57613ac9612894565b5b600082013567ffffffffffffffff811115613ae857613ae7612899565b5b613af484828501612a41565b91505092915050565b60008060408385031215613b1457613b13612894565b5b600083013567ffffffffffffffff811115613b3257613b31612899565b5b613b3e85828601612a41565b9250506020613b4f85828601612a90565b9150509250929050565b600082825260208201905092915050565b7f4f6e6c79204f776e657200000000000000000000000000000000000000000000600082015250565b6000613ba0600a83613b59565b9150613bab82613b6a565b602082019050919050565b60006020820190508181036000830152613bcf81613b93565b9050919050565b6000613be1826132e1565b613beb8185613b59565b9350613bfb8185602086016132fd565b613c0481612933565b840191505092915050565b60006040820190508181036000830152613c298185613bd6565b9050613c38602083018461328a565b9392505050565b613c488161343a565b8114613c5357600080fd5b50565b600081519050613c6581613c3f565b92915050565b600060208284031215613c8157613c80612894565b5b6000613c8f84828501613c56565b91505092915050565b600081905092915050565b6000613cae826132e1565b613cb88185613c98565b9350613cc88185602086016132fd565b80840191505092915050565b6000613ce08284613ca3565b915081905092915050565b7f4f6e6c792061646d696e00000000000000000000000000000000000000000000600082015250565b6000613d21600a83613b59565b9150613d2c82613ceb565b602082019050919050565b60006020820190508181036000830152613d5081613d14565b9050919050565b7f696e76616c6964207175697a4964203000000000000000000000000000000000600082015250565b6000613d8d601083613b59565b9150613d9882613d57565b602082019050919050565b60006020820190508181036000830152613dbc81613d80565b9050919050565b600080fd5b600080fd5b600081519050613ddc81612a79565b92915050565b6000613df5613df0846129bf565b6129a4565b905082815260208101848484011115613e1157613e1061292e565b5b613e1c8482856132fd565b509392505050565b600082601f830112613e3957613e38612929565b5b8151613e49848260208601613de2565b91505092915050565b6000613e65613e6084612adb565b6129a4565b90508083825260208201905060208402830185811115613e8857613e87612b07565b5b835b81811015613ecf57805167ffffffffffffffff811115613ead57613eac612929565b5b808601613eba8982613e24565b85526020850194505050602081019050613e8a565b5050509392505050565b600082601f830112613eee57613eed612929565b5b8151613efe848260208601613e52565b91505092915050565b600081519050613f1681612aaf565b92915050565b60006101a08284031215613f3357613f32613dc3565b5b613f3e6101a06129a4565b90506000613f4e84828501613dcd565b600083015250602082015167ffffffffffffffff811115613f7257613f71613dc8565b5b613f7e84828501613e24565b602083015250604082015167ffffffffffffffff811115613fa257613fa1613dc8565b5b613fae84828501613ed9565b6040830152506060613fc284828501613dcd565b6060830152506080613fd684828501613f07565b60808301525060a0613fea84828501613dcd565b60a08301525060c0613ffe84828501613c56565b60c08301525060e061401284828501613c56565b60e08301525061010061402784828501613dcd565b6101008301525061012061403d84828501613dcd565b6101208301525061014082015167ffffffffffffffff81111561406357614062613dc8565b5b61406f84828501613e24565b6101408301525061016082015167ffffffffffffffff81111561409557614094613dc8565b5b6140a184828501613e24565b610160830152506101806140b784828501613dcd565b6101808301525092915050565b6000602082840312156140da576140d9612894565b5b600082015167ffffffffffffffff8111156140f8576140f7612899565b5b61410484828501613f1c565b91505092915050565b7f6e6f6e6578697374656e74207175697a00000000000000000000000000000000600082015250565b6000614143601083613b59565b915061414e8261410d565b602082019050919050565b6000602082019050818103600083015261417281614136565b9050919050565b600060408201905081810360008301526141938185613bd6565b905081810360208301526141a78184613455565b90509392505050565b60006141c36141be846135a5565b6129a4565b905080838252602082019050602084028301858111156141e6576141e5612b07565b5b835b8181101561420f57806141fb8882613dcd565b8452602084019350506020810190506141e8565b5050509392505050565b600082601f83011261422e5761422d612929565b5b815161423e8482602086016141b0565b91505092915050565b60006020828403121561425d5761425c612894565b5b600082015167ffffffffffffffff81111561427b5761427a612899565b5b61428784828501614219565b91505092915050565b7f7175697a206973206f7665720000000000000000000000000000000000000000600082015250565b60006142c6600c83613b59565b91506142d182614290565b602082019050919050565b600060208201905081810360008301526142f5816142b9565b9050919050565b600060608201905061431160008301866138c3565b8181036020830152614323818561320a565b905061433260408301846138c3565b949350505050565b600060408201905061434f60008301856138c3565b61435c60208301846138c3565b9392505050565b60008151905061437281612ea0565b92915050565b600061438b61438684612f8e565b6129a4565b905080838252602082019050602084028301858111156143ae576143ad612b07565b5b835b818110156143d757806143c38882614363565b8452602084019350506020810190506143b0565b5050509392505050565b600082601f8301126143f6576143f5612929565b5b8151614406848260208601614378565b91505092915050565b60006020828403121561442557614424612894565b5b600082015167ffffffffffffffff81111561444357614442612899565b5b61444f848285016143e1565b91505092915050565b600067ffffffffffffffff82111561447357614472612944565b5b602082029050602081019050919050565b600061449761449284614458565b6129a4565b905080838252602082019050602084028301858111156144ba576144b9612b07565b5b835b8181101561450157805167ffffffffffffffff8111156144df576144de612929565b5b8086016144ec8982613f1c565b855260208501945050506020810190506144bc565b5050509392505050565b600082601f8301126145205761451f612929565b5b8151614530848260208601614484565b91505092915050565b60006020828403121561454f5761454e612894565b5b600082015167ffffffffffffffff81111561456d5761456c612899565b5b6145798482850161450b565b91505092915050565b7f6578697374207175697a00000000000000000000000000000000000000000000600082015250565b60006145b8600a83613b59565b91506145c382614582565b602082019050919050565b600060208201905081810360008301526145e7816145ab565b9050919050565b7f796f752073686f756c642070726570617920666f722067617300000000000000600082015250565b6000614624601983613b59565b915061462f826145ee565b602082019050919050565b6000602082019050818103600083015261465381614617565b9050919050565b61466381612aa5565b82525050565b600082825260208201905092915050565b600061468582613369565b61468f8185614669565b9350836020820285016146a185613385565b8060005b858110156146dd57848403895281516146be8582613395565b94506146c9836133a9565b925060208a019950506001810190506146a5565b50829750879550505050505092915050565b600061010082019050818103600083015261470a818b613bd6565b9050614719602083018a6138c3565b614726604083018961465a565b61473360608301886138c3565b8181036080830152614745818761467a565b905061475460a08301866138c3565b61476160c08301856138c3565b61476e60e08301846138c3565b9998505050505050505050565b600060208201905081810360008301526147958184613bd6565b905092915050565b7f4e487b7100000000000000000000000000000000000000000000000000000000600052603260045260246000fd5b60006040820190506147e1600083018561328a565b6147ee60208301846138c3565b9392505050565b7f4e487b7100000000000000000000000000000000000000000000000000000000600052601160045260246000fd5b600061482f82612a6f565b915061483a83612a6f565b9250827fffffffffffffffffffffffffffffffffffffffffffffffffffffffffffffffff0382111561486f5761486e6147f5565b5b82820190509291505056fea26469706673582212203a9292153db9e5fa0b11b393440eedb0b750af93fd277359b7142c6dae1b491c64736f6c63430008090033",
  "linkReferences": {},
  "deployedLinkReferences": {}
}