{
  "_format": "hh-sol-artifact-1",
  "contractName": "LotteryPool",
  "sourceName": "src/contracts/lottery/lottery.sol",
  "abi": [
    {
      "inputs": [
        {
          "internalType": "address",
          "name": "_operator",
          "type": "address"
        },
        {
          "internalType": "contract IDataStorage",
          "name": "_storage",
          "type": "address"
        },
        {
          "internalType": "contract IIntegrateToken",
          "name": "_excitationToken",
          "type": "address"
        },
        {
          "internalType": "uint256",
          "name": "_exciteAmount",
          "type": "uint256"
        }
      ],
      "stateMutability": "nonpayable",
      "type": "constructor"
    },
    {
      "inputs": [
        {
          "internalType": "address",
          "name": "_newOperator",
          "type": "address"
        }
      ],
      "name": "addOperator",
      "outputs": [],
      "stateMutability": "nonpayable",
      "type": "function"
    },
    {
      "inputs": [
        {
          "internalType": "contract IIntegrateToken",
          "name": "_newToken",
          "type": "address"
        }
      ],
      "name": "changeExcitationToken",
      "outputs": [],
      "stateMutability": "nonpayable",
      "type": "function"
    },
    {
      "inputs": [
        {
          "internalType": "uint256",
          "name": "_newAmount",
          "type": "uint256"
        }
      ],
      "name": "changeExciteAmount",
      "outputs": [],
      "stateMutability": "nonpayable",
      "type": "function"
    },
    {
      "inputs": [
        {
          "internalType": "contract IDataStorage",
          "name": "_newStorage",
          "type": "address"
        }
      ],
      "name": "changeStorage",
      "outputs": [],
      "stateMutability": "nonpayable",
      "type": "function"
    },
    {
      "inputs": [
        {
          "internalType": "string",
          "name": "_appId",
          "type": "string"
        },
        {
          "internalType": "uint256",
          "name": "_lotteryId",
          "type": "uint256"
        },
        {
          "internalType": "uint256[]",
          "name": "_fixedNum",
          "type": "uint256[]"
        },
        {
          "internalType": "uint256[]",
          "name": "_proportionNum",
          "type": "uint256[]"
        },
        {
          "internalType": "uint256[]",
          "name": "_amounts",
          "type": "uint256[]"
        }
      ],
      "name": "createEthLottery",
      "outputs": [],
      "stateMutability": "payable",
      "type": "function"
    },
    {
      "inputs": [
        {
          "internalType": "string",
          "name": "_appId",
          "type": "string"
        },
        {
          "internalType": "uint256",
          "name": "_lotteryId",
          "type": "uint256"
        },
        {
          "internalType": "contract IERC20",
          "name": "_rewardToken",
          "type": "address"
        },
        {
          "internalType": "uint256[]",
          "name": "_fixedNum",
          "type": "uint256[]"
        },
        {
          "internalType": "uint256[]",
          "name": "_proportionNum",
          "type": "uint256[]"
        },
        {
          "internalType": "uint256[]",
          "name": "_amounts",
          "type": "uint256[]"
        }
      ],
      "name": "createLottery",
      "outputs": [],
      "stateMutability": "nonpayable",
      "type": "function"
    },
    {
      "inputs": [],
      "name": "dataStorage",
      "outputs": [
        {
          "internalType": "contract IDataStorage",
          "name": "",
          "type": "address"
        }
      ],
      "stateMutability": "view",
      "type": "function"
    },
    {
      "inputs": [
        {
          "internalType": "uint256",
          "name": "_lotteryId",
          "type": "uint256"
        }
      ],
      "name": "drawALottery",
      "outputs": [],
      "stateMutability": "nonpayable",
      "type": "function"
    },
    {
      "inputs": [],
      "name": "excitationToken",
      "outputs": [
        {
          "internalType": "contract IIntegrateToken",
          "name": "",
          "type": "address"
        }
      ],
      "stateMutability": "view",
      "type": "function"
    },
    {
      "inputs": [],
      "name": "exciteAmount",
      "outputs": [
        {
          "internalType": "uint256",
          "name": "",
          "type": "uint256"
        }
      ],
      "stateMutability": "view",
      "type": "function"
    },
    {
      "inputs": [],
      "name": "getErc20List",
      "outputs": [
        {
          "internalType": "contract IERC20[]",
          "name": "",
          "type": "address[]"
        }
      ],
      "stateMutability": "view",
      "type": "function"
    },
    {
      "inputs": [
        {
          "internalType": "uint256[]",
          "name": "_ids",
          "type": "uint256[]"
        }
      ],
      "name": "getLotteries",
      "outputs": [
        {
          "components": [
            {
              "internalType": "contract IERC20",
              "name": "token",
              "type": "address"
            },
            {
              "internalType": "uint256[]",
              "name": "amounts",
              "type": "uint256[]"
            },
            {
              "internalType": "uint256[]",
              "name": "fixedNum",
              "type": "uint256[]"
            },
            {
              "internalType": "uint256[]",
              "name": "proportionNum",
              "type": "uint256[]"
            },
            {
              "internalType": "uint256",
              "name": "totalAmount",
              "type": "uint256"
            },
            {
              "internalType": "bool",
              "name": "isEth",
              "type": "bool"
            },
            {
              "internalType": "bool",
              "name": "over",
              "type": "bool"
            },
            {
              "internalType": "bool",
              "name": "exist",
              "type": "bool"
            }
          ],
          "internalType": "struct IDataStorage.Lottery[]",
          "name": "",
          "type": "tuple[]"
        }
      ],
      "stateMutability": "view",
      "type": "function"
    },
    {
      "inputs": [
        {
          "internalType": "uint256",
          "name": "_lotteryId",
          "type": "uint256"
        }
      ],
      "name": "getLottery",
      "outputs": [
        {
          "components": [
            {
              "internalType": "contract IERC20",
              "name": "token",
              "type": "address"
            },
            {
              "internalType": "uint256[]",
              "name": "amounts",
              "type": "uint256[]"
            },
            {
              "internalType": "uint256[]",
              "name": "fixedNum",
              "type": "uint256[]"
            },
            {
              "internalType": "uint256[]",
              "name": "proportionNum",
              "type": "uint256[]"
            },
            {
              "internalType": "uint256",
              "name": "totalAmount",
              "type": "uint256"
            },
            {
              "internalType": "bool",
              "name": "isEth",
              "type": "bool"
            },
            {
              "internalType": "bool",
              "name": "over",
              "type": "bool"
            },
            {
              "internalType": "bool",
              "name": "exist",
              "type": "bool"
            }
          ],
          "internalType": "struct IDataStorage.Lottery",
          "name": "",
          "type": "tuple"
        }
      ],
      "stateMutability": "view",
      "type": "function"
    },
    {
      "inputs": [
        {
          "internalType": "uint256",
          "name": "_lotteryId",
          "type": "uint256"
        },
        {
          "internalType": "uint256",
          "name": "_index",
          "type": "uint256"
        }
      ],
      "name": "getLotteryResults",
      "outputs": [
        {
          "internalType": "address[]",
          "name": "",
          "type": "address[]"
        }
      ],
      "stateMutability": "view",
      "type": "function"
    },
    {
      "inputs": [
        {
          "internalType": "address",
          "name": "",
          "type": "address"
        }
      ],
      "name": "operators",
      "outputs": [
        {
          "internalType": "bool",
          "name": "",
          "type": "bool"
        }
      ],
      "stateMutability": "view",
      "type": "function"
    },
    {
      "inputs": [],
      "name": "owner",
      "outputs": [
        {
          "internalType": "address",
          "name": "",
          "type": "address"
        }
      ],
      "stateMutability": "view",
      "type": "function"
    },
    {
      "inputs": [
        {
          "internalType": "address payable",
          "name": "_to",
          "type": "address"
        }
      ],
      "name": "transferAsset",
      "outputs": [],
      "stateMutability": "nonpayable",
      "type": "function"
    },
    {
      "inputs": [
        {
          "internalType": "address",
          "name": "_newOwner",
          "type": "address"
        }
      ],
      "name": "transferOwner",
      "outputs": [],
      "stateMutability": "nonpayable",
      "type": "function"
    }
  ],
  "bytecode": "0x60806040523480156200001157600080fd5b5060405162003f6538038062003f658339810160408190526200003491620000bc565b60008054336001600160a01b0319918216811783556002805483166001600160a01b039788161790558252600160208190526040808420805460ff1990811684179091559787168452909220805490961690911790945560048054909416919092161790915560055562000116565b6001600160a01b0381168114620000b957600080fd5b50565b60008060008060808587031215620000d357600080fd5b8451620000e081620000a3565b6020860151909450620000f381620000a3565b60408601519093506200010681620000a3565b6060959095015193969295505050565b613e3f80620001266000396000f3fe6080604052600436106101295760003560e01c806390c909b2116100a5578063c5d790a511610074578063dcdb1a6011610059578063dcdb1a601461039d578063ecb4e810146103c1578063ef3a4bb4146103e157600080fd5b8063c5d790a51461035d578063c7d7b6601461037d57600080fd5b806390c909b2146102c357806392e845f6146102f05780639870d7fe1461031d578063c50c97d01461033d57600080fd5b80637ed0b846116100fc5780638870455f116100e15780638870455f1461023c5780638a20d49c146102695780638da5cb5b1461029657600080fd5b80637ed0b846146101c857806385a5d8fa1461021a57600080fd5b806313e7c9d81461012e5780632ccc5e20146101735780634fb2e45d1461018857806363e71afa146101a8575b600080fd5b34801561013a57600080fd5b5061015e6101493660046131f5565b60016020526000908152604090205460ff1681565b60405190151581526020015b60405180910390f35b6101866101813660046133d7565b610401565b005b34801561019457600080fd5b506101866101a33660046131f5565b610bd8565b3480156101b457600080fd5b506101866101c336600461348e565b610cd7565b3480156101d457600080fd5b506004546101f59073ffffffffffffffffffffffffffffffffffffffff1681565b60405173ffffffffffffffffffffffffffffffffffffffff909116815260200161016a565b34801561022657600080fd5b5061022f610f8a565b60405161016a91906134a7565b34801561024857600080fd5b506002546101f59073ffffffffffffffffffffffffffffffffffffffff1681565b34801561027557600080fd5b50610289610284366004613501565b610ff9565b60405161016a9190613574565b3480156102a257600080fd5b506000546101f59073ffffffffffffffffffffffffffffffffffffffff1681565b3480156102cf57600080fd5b506102e36102de366004613587565b6110ce565b60405161016a91906136ae565b3480156102fc57600080fd5b5061031061030b36600461348e565b611197565b60405161016a919061372e565b34801561032957600080fd5b506101866103383660046131f5565b6112bf565b34801561034957600080fd5b506101866103583660046131f5565b611392565b34801561036957600080fd5b506101866103783660046131f5565b61145a565b34801561038957600080fd5b506101866103983660046131f5565b611522565b3480156103a957600080fd5b506103b360055481565b60405190815260200161016a565b3480156103cd57600080fd5b506101866103dc36600461348e565b611796565b3480156103ed57600080fd5b506101866103fc366004613751565b61181c565b6002546040517f92e845f600000000000000000000000000000000000000000000000000000000815260048101869052859173ffffffffffffffffffffffffffffffffffffffff16906392e845f69060240160006040518083038186803b15801561046b57600080fd5b505afa15801561047f573d6000803e3d6000fd5b505050506040513d6000823e601f3d9081017fffffffffffffffffffffffffffffffffffffffffffffffffffffffffffffffe01682016040526104c59190810190613970565b60e0015115610535576040517f08c379a000000000000000000000000000000000000000000000000000000000815260206004820152600d60248201527f6578697374206c6f74746572790000000000000000000000000000000000000060448201526064015b60405180910390fd5b6002546040517fb796e2b00000000000000000000000000000000000000000000000000000000081528791339160009173ffffffffffffffffffffffffffffffffffffffff169063b796e2b0906105929086908690600401613a10565b60206040518083038186803b1580156105aa57600080fd5b505afa1580156105be573d6000803e3d6000fd5b505050506040513d601f19601f820116820180604052508101906105e29190613a48565b905080806105ff57503360009081526001602052604090205460ff165b610665576040517f08c379a000000000000000000000000000000000000000000000000000000000815260206004820152600a60248201527f4f6e6c792041646d696e00000000000000000000000000000000000000000000604482015260640161052c565b865185511480610676575085518551145b610701576040517f08c379a0000000000000000000000000000000000000000000000000000000008152602060048201526024808201527f616d6f756e747320616e64206c6f7474657279206e756d626572206e6f74206d60448201527f6174636800000000000000000000000000000000000000000000000000000000606482015260840161052c565b6000805b865181101561074e5761073a87828151811061072357610723613a63565b60200260200101518361206290919063ffffffff16565b91508061074681613ac1565b915050610705565b50600081116107df576040517f08c379a000000000000000000000000000000000000000000000000000000000815260206004820152602860248201527f746f74616c20616d6f756e742073686f756c642062652067726561746572207460448201527f68616e207a65726f000000000000000000000000000000000000000000000000606482015260840161052c565b8034101561086f576040517f08c379a000000000000000000000000000000000000000000000000000000000815260206004820152602360248201527f73656e742076616c75652073686f756c64206265206772656174657220616d6f60448201527f756e740000000000000000000000000000000000000000000000000000000000606482015260840161052c565b6002546040517f92e845f6000000000000000000000000000000000000000000000000000000008152600481018b905260009173ffffffffffffffffffffffffffffffffffffffff16906392e845f69060240160006040518083038186803b1580156108da57600080fd5b505afa1580156108ee573d6000803e3d6000fd5b505050506040513d6000823e601f3d9081017fffffffffffffffffffffffffffffffffffffffffffffffffffffffffffffffe01682016040526109349190810190613970565b600160e0820181905260a0820152602081018890526080810183905260408082018b9052606082018a905260025490517f3630d48c00000000000000000000000000000000000000000000000000000000815291925073ffffffffffffffffffffffffffffffffffffffff1690633630d48c906109b99033908e908690600401613afa565b600060405180830381600087803b1580156109d357600080fd5b505af11580156109e7573d6000803e3d6000fd5b50506002546040517f3cb8aecd0000000000000000000000000000000000000000000000000000000081523360048201526000935073ffffffffffffffffffffffffffffffffffffffff9091169150633cb8aecd9060240160206040518083038186803b158015610a5757600080fd5b505afa158015610a6b573d6000803e3d6000fd5b505050506040513d601f19601f82011682018060405250810190610a8f9190613b2f565b60025490915073ffffffffffffffffffffffffffffffffffffffff166337ae802b33610abb8434612062565b6040517fffffffff0000000000000000000000000000000000000000000000000000000060e085901b16815273ffffffffffffffffffffffffffffffffffffffff90921660048301526024820152604401600060405180830381600087803b158015610b2657600080fd5b505af1158015610b3a573d6000803e3d6000fd5b5050600480546005546040517f40c10f190000000000000000000000000000000000000000000000000000000081523393810193909352602483015273ffffffffffffffffffffffffffffffffffffffff1692506340c10f199150604401600060405180830381600087803b158015610bb257600080fd5b505af1158015610bc6573d6000803e3d6000fd5b50505050505050505050505050505050565b60005473ffffffffffffffffffffffffffffffffffffffff163314610c59576040517f08c379a000000000000000000000000000000000000000000000000000000000815260206004820152600a60248201527f4f6e6c79204f776e657200000000000000000000000000000000000000000000604482015260640161052c565b6000805473ffffffffffffffffffffffffffffffffffffffff9092167fffffffffffffffffffffffff00000000000000000000000000000000000000009092168217815590815260016020819052604090912080547fffffffffffffffffffffffffffffffffffffffffffffffffffffffffffffff00169091179055565b3360009081526001602052604090205460ff16610d50576040517f08c379a000000000000000000000000000000000000000000000000000000000815260206004820152600d60248201527f4f6e6c79204f70657261746f7200000000000000000000000000000000000000604482015260640161052c565b6002546040517f92e845f60000000000000000000000000000000000000000000000000000000081526004810183905260009173ffffffffffffffffffffffffffffffffffffffff16906392e845f69060240160006040518083038186803b158015610dbb57600080fd5b505afa158015610dcf573d6000803e3d6000fd5b505050506040513d6000823e601f3d9081017fffffffffffffffffffffffffffffffffffffffffffffffffffffffffffffffe0168201604052610e159190810190613970565b90508060e00151610e24575050565b8060c0015115610e90576040517f08c379a000000000000000000000000000000000000000000000000000000000815260206004820152600f60248201527f6c6f7474657279206973206f7665720000000000000000000000000000000000604482015260640161052c565b6002546040517f4251fcd80000000000000000000000000000000000000000000000000000000081526004810184905273ffffffffffffffffffffffffffffffffffffffff90911690634251fcd890602401600060405180830381600087803b158015610efc57600080fd5b505af1158015610f10573d6000803e3d6000fd5b5050505060408101515115610f545760005b816040015151811015610f4e57610f3c82848360016120db565b80610f4681613ac1565b915050610f22565b50610f85565b60005b816060015151811015610f8357610f7182848360006120db565b80610f7b81613ac1565b915050610f57565b505b505b50565b60606003805480602002602001604051908101604052809291908181526020018280548015610fef57602002820191906000526020600020905b815473ffffffffffffffffffffffffffffffffffffffff168152600190910190602001808311610fc4575b5050505050905090565b6002546040517fa890cb3a000000000000000000000000000000000000000000000000000000008152600481018490526024810183905260609173ffffffffffffffffffffffffffffffffffffffff169063a890cb3a9060440160006040518083038186803b15801561106b57600080fd5b505afa15801561107f573d6000803e3d6000fd5b505050506040513d6000823e601f3d9081017fffffffffffffffffffffffffffffffffffffffffffffffffffffffffffffffe01682016040526110c59190810190613b48565b90505b92915050565b6002546040517f90c909b200000000000000000000000000000000000000000000000000000000815260609173ffffffffffffffffffffffffffffffffffffffff16906390c909b290611125908590600401613be2565b60006040518083038186803b15801561113d57600080fd5b505afa158015611151573d6000803e3d6000fd5b505050506040513d6000823e601f3d9081017fffffffffffffffffffffffffffffffffffffffffffffffffffffffffffffffe01682016040526110c89190810190613bf5565b6111fb604051806101000160405280600073ffffffffffffffffffffffffffffffffffffffff168152602001606081526020016060815260200160608152602001600081526020016000151581526020016000151581526020016000151581525090565b6002546040517f92e845f60000000000000000000000000000000000000000000000000000000081526004810184905273ffffffffffffffffffffffffffffffffffffffff909116906392e845f69060240160006040518083038186803b15801561126557600080fd5b505afa158015611279573d6000803e3d6000fd5b505050506040513d6000823e601f3d9081017fffffffffffffffffffffffffffffffffffffffffffffffffffffffffffffffe01682016040526110c89190810190613970565b60005473ffffffffffffffffffffffffffffffffffffffff163314611340576040517f08c379a000000000000000000000000000000000000000000000000000000000815260206004820152600a60248201527f4f6e6c79204f776e657200000000000000000000000000000000000000000000604482015260640161052c565b73ffffffffffffffffffffffffffffffffffffffff16600090815260016020819052604090912080547fffffffffffffffffffffffffffffffffffffffffffffffffffffffffffffff00169091179055565b60005473ffffffffffffffffffffffffffffffffffffffff163314611413576040517f08c379a000000000000000000000000000000000000000000000000000000000815260206004820152600a60248201527f4f6e6c79204f776e657200000000000000000000000000000000000000000000604482015260640161052c565b600280547fffffffffffffffffffffffff00000000000000000000000000000000000000001673ffffffffffffffffffffffffffffffffffffffff92909216919091179055565b60005473ffffffffffffffffffffffffffffffffffffffff1633146114db576040517f08c379a000000000000000000000000000000000000000000000000000000000815260206004820152600a60248201527f4f6e6c79204f776e657200000000000000000000000000000000000000000000604482015260640161052c565b600480547fffffffffffffffffffffffff00000000000000000000000000000000000000001673ffffffffffffffffffffffffffffffffffffffff92909216919091179055565b3360009081526001602052604090205460ff1661159b576040517f08c379a000000000000000000000000000000000000000000000000000000000815260206004820152600d60248201527f4f6e6c79204f70657261746f7200000000000000000000000000000000000000604482015260640161052c565b47156115e55760405173ffffffffffffffffffffffffffffffffffffffff8216904780156108fc02916000818181858888f193505050501580156115e3573d6000803e3d6000fd5b505b60005b600354811015610f855760006003828154811061160757611607613a63565b6000918252602090912001546040517f70a0823100000000000000000000000000000000000000000000000000000000815230600482015273ffffffffffffffffffffffffffffffffffffffff909116906370a082319060240160206040518083038186803b15801561167957600080fd5b505afa15801561168d573d6000803e3d6000fd5b505050506040513d601f19601f820116820180604052508101906116b19190613b2f565b9050801561178357600382815481106116cc576116cc613a63565b6000918252602090912001546040517fa9059cbb00000000000000000000000000000000000000000000000000000000815273ffffffffffffffffffffffffffffffffffffffff8581166004830152602482018490529091169063a9059cbb90604401602060405180830381600087803b15801561174957600080fd5b505af115801561175d573d6000803e3d6000fd5b505050506040513d601f19601f820116820180604052508101906117819190613a48565b505b508061178e81613ac1565b9150506115e8565b60005473ffffffffffffffffffffffffffffffffffffffff163314611817576040517f08c379a000000000000000000000000000000000000000000000000000000000815260206004820152600a60248201527f4f6e6c79204f776e657200000000000000000000000000000000000000000000604482015260640161052c565b600555565b6002546040517f92e845f600000000000000000000000000000000000000000000000000000000815260048101879052869173ffffffffffffffffffffffffffffffffffffffff16906392e845f69060240160006040518083038186803b15801561188657600080fd5b505afa15801561189a573d6000803e3d6000fd5b505050506040513d6000823e601f3d9081017fffffffffffffffffffffffffffffffffffffffffffffffffffffffffffffffe01682016040526118e09190810190613970565b60e001511561194b576040517f08c379a000000000000000000000000000000000000000000000000000000000815260206004820152600d60248201527f6578697374206c6f747465727900000000000000000000000000000000000000604482015260640161052c565b6002546040517fb796e2b00000000000000000000000000000000000000000000000000000000081528891339160009173ffffffffffffffffffffffffffffffffffffffff169063b796e2b0906119a89086908690600401613a10565b60206040518083038186803b1580156119c057600080fd5b505afa1580156119d4573d6000803e3d6000fd5b505050506040513d601f19601f820116820180604052508101906119f89190613a48565b90508080611a1557503360009081526001602052604090205460ff165b611a7b576040517f08c379a000000000000000000000000000000000000000000000000000000000815260206004820152600a60248201527f4f6e6c792041646d696e00000000000000000000000000000000000000000000604482015260640161052c565b865185511480611a8c575085518551145b611b17576040517f08c379a0000000000000000000000000000000000000000000000000000000008152602060048201526024808201527f616d6f756e747320616e64206c6f7474657279206e756d626572206e6f74206d60448201527f6174636800000000000000000000000000000000000000000000000000000000606482015260840161052c565b6000805b8651811015611b4d57611b3987828151811061072357610723613a63565b915080611b4581613ac1565b915050611b1b565b5060008111611bde576040517f08c379a000000000000000000000000000000000000000000000000000000000815260206004820152602860248201527f746f74616c20616d6f756e742073686f756c642062652067726561746572207460448201527f68616e207a65726f000000000000000000000000000000000000000000000000606482015260840161052c565b6040517f23b872dd0000000000000000000000000000000000000000000000000000000081523360048201523060248201526044810182905273ffffffffffffffffffffffffffffffffffffffff8a16906323b872dd90606401602060405180830381600087803b158015611c5257600080fd5b505af1158015611c66573d6000803e3d6000fd5b505050506040513d601f19601f82011682018060405250810190611c8a9190613a48565b506003805460018101825560009182527fc2575a0e9e593c00f959f8c92f12db2869c3395a3b0502d05e2516446f71f85b0180547fffffffffffffffffffffffff00000000000000000000000000000000000000001673ffffffffffffffffffffffffffffffffffffffff8c8116919091179091556002546040517f92e845f6000000000000000000000000000000000000000000000000000000008152600481018e90529116906392e845f69060240160006040518083038186803b158015611d5357600080fd5b505afa158015611d67573d6000803e3d6000fd5b505050506040513d6000823e601f3d9081017fffffffffffffffffffffffffffffffffffffffffffffffffffffffffffffffe0168201604052611dad9190810190613970565b600160e082015273ffffffffffffffffffffffffffffffffffffffff808c168252602082018990526080820184905260408083018c9052606083018b905260025490517f3630d48c0000000000000000000000000000000000000000000000000000000081529293501690633630d48c90611e309033908f908690600401613afa565b600060405180830381600087803b158015611e4a57600080fd5b505af1158015611e5e573d6000803e3d6000fd5b50506002546040517f6f8e4b4100000000000000000000000000000000000000000000000000000000815233600482015273ffffffffffffffffffffffffffffffffffffffff8e81166024830152600094509091169150636f8e4b419060440160206040518083038186803b158015611ed657600080fd5b505afa158015611eea573d6000803e3d6000fd5b505050506040513d601f19601f82011682018060405250810190611f0e9190613b2f565b60025490915073ffffffffffffffffffffffffffffffffffffffff16631ecf6bdb338d611f3b8588612062565b6040517fffffffff0000000000000000000000000000000000000000000000000000000060e086901b16815273ffffffffffffffffffffffffffffffffffffffff93841660048201529290911660248301526044820152606401600060405180830381600087803b158015611faf57600080fd5b505af1158015611fc3573d6000803e3d6000fd5b5050600480546005546040517f40c10f190000000000000000000000000000000000000000000000000000000081523393810193909352602483015273ffffffffffffffffffffffffffffffffffffffff1692506340c10f199150604401600060405180830381600087803b15801561203b57600080fd5b505af115801561204f573d6000803e3d6000fd5b5050505050505050505050505050505050565b60008061206f8385613ca6565b9050838110156110c5576040517f08c379a000000000000000000000000000000000000000000000000000000000815260206004820152601b60248201527f536166654d6174683a206164646974696f6e206f766572666c6f770000000000604482015260640161052c565b836020015182815181106120f1576120f1613a63565b60200260200101516000141561210657612bb9565b6002546040517ff3f811220000000000000000000000000000000000000000000000000000000081526004810185905273ffffffffffffffffffffffffffffffffffffffff9091169063f3f811229060240160006040518083038186803b15801561217057600080fd5b505afa158015612184573d6000803e3d6000fd5b505050506040513d6000823e601f3d9081017fffffffffffffffffffffffffffffffffffffffffffffffffffffffffffffffe01682016040526121ca9190810190613b48565b600084815260066020908152604090912082516121ed9391929190910190613134565b50600081156122b957846040015151831115612265576040517f08c379a000000000000000000000000000000000000000000000000000000000815260206004820152601b60248201527f6c6f747465727920696e646578206f7574206f6620626f756e64730000000000604482015260640161052c565b8460400151838151811061227b5761227b613a63565b6020026020010151905060066000858152602001908152602001600020805490508111156122b457506000838152600660205260409020545b612393565b846060015151831115612328576040517f08c379a000000000000000000000000000000000000000000000000000000000815260206004820152601b60248201527f6c6f747465727920696e646578206f7574206f6620626f756e64730000000000604482015260640161052c565b60008560600151848151811061234057612340613a63565b602002602001015190506000811115612391576064811061235f575060645b6000858152600660205260409020546123859060649061237f9084612bbf565b90612c74565b91508161239157600191505b505b8061239e5750612bb9565b60008167ffffffffffffffff8111156123b9576123b9613212565b6040519080825280602002602001820160405280156123e2578160200160208202803683370190505b50905060005b828110156125f6576000868152600660205260408120549061240b600183613cbe565b905060006124198385612cb6565b60008a81526006602052604090208054919250908290811061243d5761243d613a63565b9060005260206000200160009054906101000a900473ffffffffffffffffffffffffffffffffffffffff1685858151811061247a5761247a613a63565b602002602001019073ffffffffffffffffffffffffffffffffffffffff16908173ffffffffffffffffffffffffffffffffffffffff168152505081811461256a5760008981526006602052604090208054839081106124db576124db613a63565b60009182526020808320909101548b835260069091526040909120805473ffffffffffffffffffffffffffffffffffffffff909216918390811061252157612521613a63565b9060005260206000200160006101000a81548173ffffffffffffffffffffffffffffffffffffffff021916908373ffffffffffffffffffffffffffffffffffffffff1602179055505b600089815260066020526040902080548061258757612587613cd5565b60008281526020902081017fffffffffffffffffffffffffffffffffffffffffffffffffffffffffffffffff90810180547fffffffffffffffffffffffff0000000000000000000000000000000000000000169055019055508291506125ee905081613ac1565b9150506123e8565b506002546040517fa7351f600000000000000000000000000000000000000000000000000000000081526004810187905260009173ffffffffffffffffffffffffffffffffffffffff169063a7351f609060240160206040518083038186803b15801561266257600080fd5b505afa158015612676573d6000803e3d6000fd5b505050506040513d601f19601f8201168201806040525081019061269a9190613d04565b90508660a00151156128da576002546040517f3cb8aecd00000000000000000000000000000000000000000000000000000000815273ffffffffffffffffffffffffffffffffffffffff83811660048301526000921690633cb8aecd9060240160206040518083038186803b15801561271257600080fd5b505afa158015612726573d6000803e3d6000fd5b505050506040513d601f19601f8201168201806040525081019061274a9190613b2f565b90508760200151868151811061276257612762613a63565b60200260200101518110156127d3576040517f08c379a000000000000000000000000000000000000000000000000000000000815260206004820152601860248201527f63726561746f72277320657468206e6f7420656e6f7567680000000000000000604482015260640161052c565b6002546020890151805173ffffffffffffffffffffffffffffffffffffffff909216916337ae802b91859161282a91908b90811061281357612813613a63565b602002602001015185612d3590919063ffffffff16565b6040517fffffffff0000000000000000000000000000000000000000000000000000000060e085901b16815273ffffffffffffffffffffffffffffffffffffffff90921660048301526024820152604401600060405180830381600087803b15801561289557600080fd5b505af11580156128a9573d6000803e3d6000fd5b505050506128d4886020015187815181106128c6576128c6613a63565b602002602001015184612d77565b50612b29565b60025487516040517f6f8e4b4100000000000000000000000000000000000000000000000000000000815273ffffffffffffffffffffffffffffffffffffffff848116600483015291821660248201526000929190911690636f8e4b419060440160206040518083038186803b15801561295357600080fd5b505afa158015612967573d6000803e3d6000fd5b505050506040513d601f19601f8201168201806040525081019061298b9190613b2f565b9050876020015186815181106129a3576129a3613a63565b6020026020010151811015612a14576040517f08c379a000000000000000000000000000000000000000000000000000000000815260206004820152601a60248201527f63726561746f72277320746f6b656e206e6f7420656e6f756768000000000000604482015260640161052c565b600254885160208a0151805173ffffffffffffffffffffffffffffffffffffffff90931692631ecf6bdb9286929091612a6f91908c908110612a5857612a58613a63565b602002602001015186612d3590919063ffffffff16565b6040517fffffffff0000000000000000000000000000000000000000000000000000000060e086901b16815273ffffffffffffffffffffffffffffffffffffffff93841660048201529290911660248301526044820152606401600060405180830381600087803b158015612ae357600080fd5b505af1158015612af7573d6000803e3d6000fd5b50505050612b27886000015189602001518881518110612b1957612b19613a63565b602002602001015185612e81565b505b6002546040517fba2c020f00000000000000000000000000000000000000000000000000000000815273ffffffffffffffffffffffffffffffffffffffff9091169063ba2c020f90612b8390899089908790600401613d21565b600060405180830381600087803b158015612b9d57600080fd5b505af1158015612bb1573d6000803e3d6000fd5b505050505050505b50505050565b600082612bce575060006110c8565b6000612bda8385613d40565b905082612be78583613dac565b146110c5576040517f08c379a000000000000000000000000000000000000000000000000000000000815260206004820152602160248201527f536166654d6174683a206d756c7469706c69636174696f6e206f766572666c6f60448201527f7700000000000000000000000000000000000000000000000000000000000000606482015260840161052c565b60006110c583836040518060400160405280601a81526020017f536166654d6174683a206469766973696f6e206279207a65726f000000000000815250613098565b6000824244604051602001612cd5929190918252602082015260400190565b604080517fffffffffffffffffffffffffffffffffffffffffffffffffffffffffffffffe081840301815290829052612d12918590602001613dc0565b6040516020818303038152906040528051906020012060001c6110c59190613de2565b60006110c583836040518060400160405280601e81526020017f536166654d6174683a207375627472616374696f6e206f766572666c6f7700008152506130e9565b8051612d81575050565b81471015612deb576040517f08c379a000000000000000000000000000000000000000000000000000000000815260206004820152600e60248201527f657468206e6f7420656e6f756768000000000000000000000000000000000000604482015260640161052c565b6000612e01825184612c7490919063ffffffff16565b905060005b8251811015612bb957828181518110612e2157612e21613a63565b602002602001015173ffffffffffffffffffffffffffffffffffffffff166108fc839081150290604051600060405180830381858888f19350505050158015612e6e573d6000803e3d6000fd5b5080612e7981613ac1565b915050612e06565b8051612e8c57505050565b6040517f70a08231000000000000000000000000000000000000000000000000000000008152306004820152829073ffffffffffffffffffffffffffffffffffffffff8516906370a082319060240160206040518083038186803b158015612ef357600080fd5b505afa158015612f07573d6000803e3d6000fd5b505050506040513d601f19601f82011682018060405250810190612f2b9190613b2f565b1015612f93576040517f08c379a000000000000000000000000000000000000000000000000000000000815260206004820152601760248201527f746f6b656e2072656d61696e206e6f7420656e6f756768000000000000000000604482015260640161052c565b6000612fa9825184612c7490919063ffffffff16565b905060005b8251811015613091578473ffffffffffffffffffffffffffffffffffffffff1663a9059cbb848381518110612fe557612fe5613a63565b6020026020010151846040518363ffffffff1660e01b815260040161302c92919073ffffffffffffffffffffffffffffffffffffffff929092168252602082015260400190565b602060405180830381600087803b15801561304657600080fd5b505af115801561305a573d6000803e3d6000fd5b505050506040513d601f19601f8201168201806040525081019061307e9190613a48565b508061308981613ac1565b915050612fae565b5050505050565b600081836130d3576040517f08c379a000000000000000000000000000000000000000000000000000000000815260040161052c9190613df6565b5060006130e08486613dac565b95945050505050565b60008184841115613127576040517f08c379a000000000000000000000000000000000000000000000000000000000815260040161052c9190613df6565b5060006130e08486613cbe565b8280548282559060005260206000209081019282156131ae579160200282015b828111156131ae57825182547fffffffffffffffffffffffff00000000000000000000000000000000000000001673ffffffffffffffffffffffffffffffffffffffff909116178255602090920191600190910190613154565b506131ba9291506131be565b5090565b5b808211156131ba57600081556001016131bf565b73ffffffffffffffffffffffffffffffffffffffff81168114610f8757600080fd5b60006020828403121561320757600080fd5b81356110c5816131d3565b7f4e487b7100000000000000000000000000000000000000000000000000000000600052604160045260246000fd5b604051610100810167ffffffffffffffff8111828210171561326557613265613212565b60405290565b604051601f82017fffffffffffffffffffffffffffffffffffffffffffffffffffffffffffffffe016810167ffffffffffffffff811182821017156132b2576132b2613212565b604052919050565b600082601f8301126132cb57600080fd5b813567ffffffffffffffff8111156132e5576132e5613212565b61331660207fffffffffffffffffffffffffffffffffffffffffffffffffffffffffffffffe0601f8401160161326b565b81815284602083860101111561332b57600080fd5b816020850160208301376000918101602001919091529392505050565b600067ffffffffffffffff82111561336257613362613212565b5060051b60200190565b600082601f83011261337d57600080fd5b8135602061339261338d83613348565b61326b565b82815260059290921b840181019181810190868411156133b157600080fd5b8286015b848110156133cc57803583529183019183016133b5565b509695505050505050565b600080600080600060a086880312156133ef57600080fd5b853567ffffffffffffffff8082111561340757600080fd5b61341389838a016132ba565b965060208801359550604088013591508082111561343057600080fd5b61343c89838a0161336c565b9450606088013591508082111561345257600080fd5b61345e89838a0161336c565b9350608088013591508082111561347457600080fd5b506134818882890161336c565b9150509295509295909350565b6000602082840312156134a057600080fd5b5035919050565b6020808252825182820181905260009190848201906040850190845b818110156134f557835173ffffffffffffffffffffffffffffffffffffffff16835292840192918401916001016134c3565b50909695505050505050565b6000806040838503121561351457600080fd5b50508035926020909101359150565b600081518084526020808501945080840160005b8381101561356957815173ffffffffffffffffffffffffffffffffffffffff1687529582019590820190600101613537565b509495945050505050565b6020815260006110c56020830184613523565b60006020828403121561359957600080fd5b813567ffffffffffffffff8111156135b057600080fd5b6135bc8482850161336c565b949350505050565b600081518084526020808501945080840160005b83811015613569578151875295820195908201906001016135d8565b600061010073ffffffffffffffffffffffffffffffffffffffff8351168452602083015181602086015261362a828601826135c4565b9150506040830151848203604086015261364482826135c4565b9150506060830151848203606086015261365e82826135c4565b9150506080830151608085015260a083015161367e60a086018215159052565b5060c083015161369260c086018215159052565b5060e08301516136a660e086018215159052565b509392505050565b6000602080830181845280855180835260408601915060408160051b870101925083870160005b82811015613721577fffffffffffffffffffffffffffffffffffffffffffffffffffffffffffffffc088860301845261370f8583516135f4565b945092850192908501906001016136d5565b5092979650505050505050565b6020815260006110c560208301846135f4565b803561374c816131d3565b919050565b60008060008060008060c0878903121561376a57600080fd5b863567ffffffffffffffff8082111561378257600080fd5b61378e8a838b016132ba565b9750602089013596506137a360408a01613741565b955060608901359150808211156137b957600080fd5b6137c58a838b0161336c565b945060808901359150808211156137db57600080fd5b6137e78a838b0161336c565b935060a08901359150808211156137fd57600080fd5b5061380a89828a0161336c565b9150509295509295509295565b805161374c816131d3565b600082601f83011261383357600080fd5b8151602061384361338d83613348565b82815260059290921b8401810191818101908684111561386257600080fd5b8286015b848110156133cc5780518352918301918301613866565b8051801515811461374c57600080fd5b600061010082840312156138a057600080fd5b6138a8613241565b90506138b382613817565b8152602082015167ffffffffffffffff808211156138d057600080fd5b6138dc85838601613822565b602084015260408401519150808211156138f557600080fd5b61390185838601613822565b6040840152606084015191508082111561391a57600080fd5b5061392784828501613822565b6060830152506080820151608082015261394360a0830161387d565b60a082015261395460c0830161387d565b60c082015261396560e0830161387d565b60e082015292915050565b60006020828403121561398257600080fd5b815167ffffffffffffffff81111561399957600080fd5b6135bc8482850161388d565b6000815180845260005b818110156139cb576020818501810151868301820152016139af565b818111156139dd576000602083870101525b50601f017fffffffffffffffffffffffffffffffffffffffffffffffffffffffffffffffe0169290920160200192915050565b604081526000613a2360408301856139a5565b905073ffffffffffffffffffffffffffffffffffffffff831660208301529392505050565b600060208284031215613a5a57600080fd5b6110c58261387d565b7f4e487b7100000000000000000000000000000000000000000000000000000000600052603260045260246000fd5b7f4e487b7100000000000000000000000000000000000000000000000000000000600052601160045260246000fd5b60007fffffffffffffffffffffffffffffffffffffffffffffffffffffffffffffffff821415613af357613af3613a92565b5060010190565b73ffffffffffffffffffffffffffffffffffffffff841681528260208201526060604082015260006130e060608301846135f4565b600060208284031215613b4157600080fd5b5051919050565b60006020808385031215613b5b57600080fd5b825167ffffffffffffffff811115613b7257600080fd5b8301601f81018513613b8357600080fd5b8051613b9161338d82613348565b81815260059190911b82018301908381019087831115613bb057600080fd5b928401925b82841015613bd7578351613bc8816131d3565b82529284019290840190613bb5565b979650505050505050565b6020815260006110c560208301846135c4565b60006020808385031215613c0857600080fd5b825167ffffffffffffffff80821115613c2057600080fd5b818501915085601f830112613c3457600080fd5b8151613c4261338d82613348565b81815260059190911b83018401908481019088831115613c6157600080fd5b8585015b83811015613c9957805185811115613c7d5760008081fd5b613c8b8b89838a010161388d565b845250918601918601613c65565b5098975050505050505050565b60008219821115613cb957613cb9613a92565b500190565b600082821015613cd057613cd0613a92565b500390565b7f4e487b7100000000000000000000000000000000000000000000000000000000600052603160045260246000fd5b600060208284031215613d1657600080fd5b81516110c5816131d3565b8381528260208201526060604082015260006130e06060830184613523565b6000817fffffffffffffffffffffffffffffffffffffffffffffffffffffffffffffffff0483118215151615613d7857613d78613a92565b500290565b7f4e487b7100000000000000000000000000000000000000000000000000000000600052601260045260246000fd5b600082613dbb57613dbb613d7d565b500490565b604081526000613dd360408301856139a5565b90508260208301529392505050565b600082613df157613df1613d7d565b500690565b6020815260006110c560208301846139a556fea2646970667358221220ddd9dba3d7cc75fbab09b7db8a47bff6f223a134cc4c22a1435d3d5cf5c1f04064736f6c63430008090033",
  "linkReferences": {},
  "deployedLinkReferences": {}
}