{
  "_format": "hh-sol-artifact-1",
  "contractName": "LotteryPool",
  "sourceName": "src/contracts/lottery/lottery.sol",
  "abi": [
    {
      "inputs": [
        {
          "internalType": "address",
          "name": "_operator",
          "type": "address"
        },
        {
          "internalType": "contract IDataStorage",
          "name": "_storage",
          "type": "address"
        },
        {
          "internalType": "contract IIntegrateToken",
          "name": "_excitationToken",
          "type": "address"
        },
        {
          "internalType": "uint256",
          "name": "_exciteAmount",
          "type": "uint256"
        }
      ],
      "stateMutability": "nonpayable",
      "type": "constructor"
    },
    {
      "inputs": [
        {
          "internalType": "address",
          "name": "_newOperator",
          "type": "address"
        }
      ],
      "name": "addOperator",
      "outputs": [],
      "stateMutability": "nonpayable",
      "type": "function"
    },
    {
      "inputs": [
        {
          "internalType": "contract IIntegrateToken",
          "name": "_newToken",
          "type": "address"
        }
      ],
      "name": "changeExcitationToken",
      "outputs": [],
      "stateMutability": "nonpayable",
      "type": "function"
    },
    {
      "inputs": [
        {
          "internalType": "uint256",
          "name": "_newAmount",
          "type": "uint256"
        }
      ],
      "name": "changeExciteAmount",
      "outputs": [],
      "stateMutability": "nonpayable",
      "type": "function"
    },
    {
      "inputs": [
        {
          "internalType": "contract IDataStorage",
          "name": "_newStorage",
          "type": "address"
        }
      ],
      "name": "changeStorage",
      "outputs": [],
      "stateMutability": "nonpayable",
      "type": "function"
    },
    {
      "inputs": [
        {
          "internalType": "string",
          "name": "_appId",
          "type": "string"
        },
        {
          "internalType": "uint256",
          "name": "_lotteryId",
          "type": "uint256"
        },
        {
          "internalType": "uint256[]",
          "name": "_fixedNum",
          "type": "uint256[]"
        },
        {
          "internalType": "uint256[]",
          "name": "_proportionNum",
          "type": "uint256[]"
        },
        {
          "internalType": "uint256[]",
          "name": "_amounts",
          "type": "uint256[]"
        }
      ],
      "name": "createEthLottery",
      "outputs": [],
      "stateMutability": "payable",
      "type": "function"
    },
    {
      "inputs": [
        {
          "internalType": "string",
          "name": "_appId",
          "type": "string"
        },
        {
          "internalType": "uint256",
          "name": "_lotteryId",
          "type": "uint256"
        },
        {
          "internalType": "contract IERC20",
          "name": "_rewardToken",
          "type": "address"
        },
        {
          "internalType": "uint256[]",
          "name": "_fixedNum",
          "type": "uint256[]"
        },
        {
          "internalType": "uint256[]",
          "name": "_proportionNum",
          "type": "uint256[]"
        },
        {
          "internalType": "uint256[]",
          "name": "_amounts",
          "type": "uint256[]"
        }
      ],
      "name": "createLottery",
      "outputs": [],
      "stateMutability": "nonpayable",
      "type": "function"
    },
    {
      "inputs": [],
      "name": "dataStorage",
      "outputs": [
        {
          "internalType": "contract IDataStorage",
          "name": "",
          "type": "address"
        }
      ],
      "stateMutability": "view",
      "type": "function"
    },
    {
      "inputs": [
        {
          "internalType": "uint256",
          "name": "_lotteryId",
          "type": "uint256"
        }
      ],
      "name": "drawALottery",
      "outputs": [],
      "stateMutability": "nonpayable",
      "type": "function"
    },
    {
      "inputs": [],
      "name": "excitationToken",
      "outputs": [
        {
          "internalType": "contract IIntegrateToken",
          "name": "",
          "type": "address"
        }
      ],
      "stateMutability": "view",
      "type": "function"
    },
    {
      "inputs": [],
      "name": "exciteAmount",
      "outputs": [
        {
          "internalType": "uint256",
          "name": "",
          "type": "uint256"
        }
      ],
      "stateMutability": "view",
      "type": "function"
    },
    {
      "inputs": [],
      "name": "getErc20List",
      "outputs": [
        {
          "internalType": "contract IERC20[]",
          "name": "",
          "type": "address[]"
        }
      ],
      "stateMutability": "view",
      "type": "function"
    },
    {
      "inputs": [
        {
          "internalType": "uint256[]",
          "name": "_ids",
          "type": "uint256[]"
        }
      ],
      "name": "getLotteries",
      "outputs": [
        {
          "components": [
            {
              "internalType": "contract IERC20",
              "name": "token",
              "type": "address"
            },
            {
              "internalType": "uint256[]",
              "name": "amounts",
              "type": "uint256[]"
            },
            {
              "internalType": "uint256[]",
              "name": "fixedNum",
              "type": "uint256[]"
            },
            {
              "internalType": "uint256[]",
              "name": "proportionNum",
              "type": "uint256[]"
            },
            {
              "internalType": "uint256",
              "name": "totalAmount",
              "type": "uint256"
            },
            {
              "internalType": "bool",
              "name": "isEth",
              "type": "bool"
            },
            {
              "internalType": "bool",
              "name": "over",
              "type": "bool"
            },
            {
              "internalType": "bool",
              "name": "exist",
              "type": "bool"
            }
          ],
          "internalType": "struct IDataStorage.Lottery[]",
          "name": "",
          "type": "tuple[]"
        }
      ],
      "stateMutability": "view",
      "type": "function"
    },
    {
      "inputs": [
        {
          "internalType": "uint256",
          "name": "_lotteryId",
          "type": "uint256"
        }
      ],
      "name": "getLottery",
      "outputs": [
        {
          "components": [
            {
              "internalType": "contract IERC20",
              "name": "token",
              "type": "address"
            },
            {
              "internalType": "uint256[]",
              "name": "amounts",
              "type": "uint256[]"
            },
            {
              "internalType": "uint256[]",
              "name": "fixedNum",
              "type": "uint256[]"
            },
            {
              "internalType": "uint256[]",
              "name": "proportionNum",
              "type": "uint256[]"
            },
            {
              "internalType": "uint256",
              "name": "totalAmount",
              "type": "uint256"
            },
            {
              "internalType": "bool",
              "name": "isEth",
              "type": "bool"
            },
            {
              "internalType": "bool",
              "name": "over",
              "type": "bool"
            },
            {
              "internalType": "bool",
              "name": "exist",
              "type": "bool"
            }
          ],
          "internalType": "struct IDataStorage.Lottery",
          "name": "",
          "type": "tuple"
        }
      ],
      "stateMutability": "view",
      "type": "function"
    },
    {
      "inputs": [
        {
          "internalType": "uint256",
          "name": "_lotteryId",
          "type": "uint256"
        },
        {
          "internalType": "uint256",
          "name": "_index",
          "type": "uint256"
        }
      ],
      "name": "getLotteryResults",
      "outputs": [
        {
          "internalType": "address[]",
          "name": "",
          "type": "address[]"
        }
      ],
      "stateMutability": "view",
      "type": "function"
    },
    {
      "inputs": [
        {
          "internalType": "address",
          "name": "",
          "type": "address"
        }
      ],
      "name": "operators",
      "outputs": [
        {
          "internalType": "bool",
          "name": "",
          "type": "bool"
        }
      ],
      "stateMutability": "view",
      "type": "function"
    },
    {
      "inputs": [],
      "name": "owner",
      "outputs": [
        {
          "internalType": "address",
          "name": "",
          "type": "address"
        }
      ],
      "stateMutability": "view",
      "type": "function"
    },
    {
      "inputs": [
        {
          "internalType": "address payable",
          "name": "_to",
          "type": "address"
        }
      ],
      "name": "transferAsset",
      "outputs": [],
      "stateMutability": "nonpayable",
      "type": "function"
    },
    {
      "inputs": [
        {
          "internalType": "address",
          "name": "_newOwner",
          "type": "address"
        }
      ],
      "name": "transferOwner",
      "outputs": [],
      "stateMutability": "nonpayable",
      "type": "function"
    }
  ],
  "bytecode": "0x60806040523480156200001157600080fd5b50604051620053c8380380620053c88339818101604052810190620000379190620002e7565b336000806101000a81548173ffffffffffffffffffffffffffffffffffffffff021916908373ffffffffffffffffffffffffffffffffffffffff16021790555082600260006101000a81548173ffffffffffffffffffffffffffffffffffffffff021916908373ffffffffffffffffffffffffffffffffffffffff16021790555060018060003373ffffffffffffffffffffffffffffffffffffffff1673ffffffffffffffffffffffffffffffffffffffff16815260200190815260200160002060006101000a81548160ff02191690831515021790555060018060008673ffffffffffffffffffffffffffffffffffffffff1673ffffffffffffffffffffffffffffffffffffffff16815260200190815260200160002060006101000a81548160ff02191690831515021790555081600460006101000a81548173ffffffffffffffffffffffffffffffffffffffff021916908373ffffffffffffffffffffffffffffffffffffffff160217905550806005819055505050505062000359565b600080fd5b600073ffffffffffffffffffffffffffffffffffffffff82169050919050565b6000620001ea82620001bd565b9050919050565b620001fc81620001dd565b81146200020857600080fd5b50565b6000815190506200021c81620001f1565b92915050565b60006200022f82620001dd565b9050919050565b620002418162000222565b81146200024d57600080fd5b50565b600081519050620002618162000236565b92915050565b60006200027482620001dd565b9050919050565b620002868162000267565b81146200029257600080fd5b50565b600081519050620002a6816200027b565b92915050565b6000819050919050565b620002c181620002ac565b8114620002cd57600080fd5b50565b600081519050620002e181620002b6565b92915050565b60008060008060808587031215620003045762000303620001b8565b5b600062000314878288016200020b565b9450506020620003278782880162000250565b93505060406200033a8782880162000295565b92505060606200034d87828801620002d0565b91505092959194509250565b61505f80620003696000396000f3fe6080604052600436106101295760003560e01c806390c909b2116100a5578063c5d790a511610074578063dcdb1a6011610059578063dcdb1a60146103e0578063ecb4e8101461040b578063ef3a4bb41461043457610129565b8063c5d790a51461038e578063c7d7b660146103b757610129565b806390c909b2146102c257806392e845f6146102ff5780639870d7fe1461033c578063c50c97d01461036557610129565b80637ed0b846116100fc5780638870455f116100e15780638870455f1461022f5780638a20d49c1461025a5780638da5cb5b1461029757610129565b80637ed0b846146101d957806385a5d8fa1461020457610129565b806313e7c9d81461012e5780632ccc5e201461016b5780634fb2e45d1461018757806363e71afa146101b0575b600080fd5b34801561013a57600080fd5b50610155600480360381019061015091906130e9565b61045d565b6040516101629190613131565b60405180910390f35b61018560048036038101906101809190613390565b61047d565b005b34801561019357600080fd5b506101ae60048036038101906101a991906130e9565b610b5a565b005b3480156101bc57600080fd5b506101d760048036038101906101d2919061347b565b610c82565b005b3480156101e557600080fd5b506101ee610f1e565b6040516101fb9190613507565b60405180910390f35b34801561021057600080fd5b50610219610f44565b60405161022691906135f2565b60405180910390f35b34801561023b57600080fd5b50610244610fd2565b6040516102519190613635565b60405180910390f35b34801561026657600080fd5b50610281600480360381019061027c9190613650565b610ff8565b60405161028e919061373d565b60405180910390f35b3480156102a357600080fd5b506102ac6110b4565b6040516102b9919061376e565b60405180910390f35b3480156102ce57600080fd5b506102e960048036038101906102e49190613789565b6110d8565b6040516102f69190613a1f565b60405180910390f35b34801561030b57600080fd5b506103266004803603810190610321919061347b565b611191565b6040516103339190613aff565b60405180910390f35b34801561034857600080fd5b50610363600480360381019061035e91906130e9565b611250565b005b34801561037157600080fd5b5061038c60048036038101906103879190613b5f565b611338565b005b34801561039a57600080fd5b506103b560048036038101906103b09190613bca565b61140a565b005b3480156103c357600080fd5b506103de60048036038101906103d99190613c35565b6114dc565b005b3480156103ec57600080fd5b506103f5611782565b6040516104029190613c71565b60405180910390f35b34801561041757600080fd5b50610432600480360381019061042d919061347b565b611788565b005b34801561044057600080fd5b5061045b60048036038101906104569190613cca565b611820565b005b60016020528060005260406000206000915054906101000a900460ff1681565b83600260009054906101000a900473ffffffffffffffffffffffffffffffffffffffff1673ffffffffffffffffffffffffffffffffffffffff166392e845f6826040518263ffffffff1660e01b81526004016104d99190613c71565b60006040518083038186803b1580156104f157600080fd5b505afa158015610505573d6000803e3d6000fd5b505050506040513d6000823e3d601f19601f8201168201806040525081019061052e9190613fdc565b60e0015115610572576040517f08c379a000000000000000000000000000000000000000000000000000000000815260040161056990614082565b60405180910390fd5b85336000600260009054906101000a900473ffffffffffffffffffffffffffffffffffffffff1673ffffffffffffffffffffffffffffffffffffffff1663b796e2b084846040518363ffffffff1660e01b81526004016105d3929190614119565b60206040518083038186803b1580156105eb57600080fd5b505afa1580156105ff573d6000803e3d6000fd5b505050506040513d601f19601f820116820180604052508101906106239190614149565b9050808061067a5750600160003373ffffffffffffffffffffffffffffffffffffffff1673ffffffffffffffffffffffffffffffffffffffff16815260200190815260200160002060009054906101000a900460ff165b6106b9576040517f08c379a00000000000000000000000000000000000000000000000000000000081526004016106b0906141c2565b60405180910390fd5b8651855114806106ca575085518551145b610709576040517f08c379a000000000000000000000000000000000000000000000000000000000815260040161070090614254565b60405180910390fd5b6000805b86518110156107585761074387828151811061072c5761072b614274565b5b602002602001015183611fd990919063ffffffff16565b91508080610750906142d2565b91505061070d565b506000811161079c576040517f08c379a00000000000000000000000000000000000000000000000000000000081526004016107939061438d565b60405180910390fd5b803410156107df576040517f08c379a00000000000000000000000000000000000000000000000000000000081526004016107d69061441f565b60405180910390fd5b6000600260009054906101000a900473ffffffffffffffffffffffffffffffffffffffff1673ffffffffffffffffffffffffffffffffffffffff166392e845f68b6040518263ffffffff1660e01b815260040161083c9190613c71565b60006040518083038186803b15801561085457600080fd5b505afa158015610868573d6000803e3d6000fd5b505050506040513d6000823e3d601f19601f820116820180604052508101906108919190613fdc565b905060018160e001901515908115158152505060018160a001901515908115158152505086816020018190525081816080018181525050888160400181905250878160600181905250600260009054906101000a900473ffffffffffffffffffffffffffffffffffffffff1673ffffffffffffffffffffffffffffffffffffffff16633630d48c338c846040518463ffffffff1660e01b81526004016109399392919061443f565b600060405180830381600087803b15801561095357600080fd5b505af1158015610967573d6000803e3d6000fd5b505050506000600260009054906101000a900473ffffffffffffffffffffffffffffffffffffffff1673ffffffffffffffffffffffffffffffffffffffff16633cb8aecd336040518263ffffffff1660e01b81526004016109c8919061376e565b60206040518083038186803b1580156109e057600080fd5b505afa1580156109f4573d6000803e3d6000fd5b505050506040513d601f19601f82011682018060405250810190610a18919061447d565b9050600260009054906101000a900473ffffffffffffffffffffffffffffffffffffffff1673ffffffffffffffffffffffffffffffffffffffff166337ae802b33610a6c3485611fd990919063ffffffff16565b6040518363ffffffff1660e01b8152600401610a899291906144aa565b600060405180830381600087803b158015610aa357600080fd5b505af1158015610ab7573d6000803e3d6000fd5b50505050600460009054906101000a900473ffffffffffffffffffffffffffffffffffffffff1673ffffffffffffffffffffffffffffffffffffffff166340c10f19336005546040518363ffffffff1660e01b8152600401610b1a9291906144aa565b600060405180830381600087803b158015610b3457600080fd5b505af1158015610b48573d6000803e3d6000fd5b50505050505050505050505050505050565b60008054906101000a900473ffffffffffffffffffffffffffffffffffffffff1673ffffffffffffffffffffffffffffffffffffffff163373ffffffffffffffffffffffffffffffffffffffff1614610be8576040517f08c379a0000000000000000000000000000000000000000000000000000000008152600401610bdf9061451f565b60405180910390fd5b806000806101000a81548173ffffffffffffffffffffffffffffffffffffffff021916908373ffffffffffffffffffffffffffffffffffffffff16021790555060018060008373ffffffffffffffffffffffffffffffffffffffff1673ffffffffffffffffffffffffffffffffffffffff16815260200190815260200160002060006101000a81548160ff02191690831515021790555050565b600160003373ffffffffffffffffffffffffffffffffffffffff1673ffffffffffffffffffffffffffffffffffffffff16815260200190815260200160002060009054906101000a900460ff16610d0e576040517f08c379a0000000000000000000000000000000000000000000000000000000008152600401610d059061458b565b60405180910390fd5b6000600260009054906101000a900473ffffffffffffffffffffffffffffffffffffffff1673ffffffffffffffffffffffffffffffffffffffff166392e845f6836040518263ffffffff1660e01b8152600401610d6b9190613c71565b60006040518083038186803b158015610d8357600080fd5b505afa158015610d97573d6000803e3d6000fd5b505050506040513d6000823e3d601f19601f82011682018060405250810190610dc09190613fdc565b90508060e00151610dd15750610f1b565b8060c0015115610e16576040517f08c379a0000000000000000000000000000000000000000000000000000000008152600401610e0d906145f7565b60405180910390fd5b600260009054906101000a900473ffffffffffffffffffffffffffffffffffffffff1673ffffffffffffffffffffffffffffffffffffffff16634251fcd8836040518263ffffffff1660e01b8152600401610e719190613c71565b600060405180830381600087803b158015610e8b57600080fd5b505af1158015610e9f573d6000803e3d6000fd5b5050505060008160400151511115610ee75760005b816040015151811015610ee157610ece8284836001612037565b8080610ed9906142d2565b915050610eb4565b50610f19565b60005b816060015151811015610f1757610f048284836000612037565b8080610f0f906142d2565b915050610eea565b505b505b50565b600460009054906101000a900473ffffffffffffffffffffffffffffffffffffffff1681565b60606003805480602002602001604051908101604052809291908181526020018280548015610fc857602002820191906000526020600020905b8160009054906101000a900473ffffffffffffffffffffffffffffffffffffffff1673ffffffffffffffffffffffffffffffffffffffff1681526020019060010190808311610f7e575b5050505050905090565b600260009054906101000a900473ffffffffffffffffffffffffffffffffffffffff1681565b6060600260009054906101000a900473ffffffffffffffffffffffffffffffffffffffff1673ffffffffffffffffffffffffffffffffffffffff1663a890cb3a84846040518363ffffffff1660e01b8152600401611057929190614617565b60006040518083038186803b15801561106f57600080fd5b505afa158015611083573d6000803e3d6000fd5b505050506040513d6000823e3d601f19601f820116820180604052508101906110ac9190614718565b905092915050565b60008054906101000a900473ffffffffffffffffffffffffffffffffffffffff1681565b6060600260009054906101000a900473ffffffffffffffffffffffffffffffffffffffff1673ffffffffffffffffffffffffffffffffffffffff166390c909b2836040518263ffffffff1660e01b815260040161113591906147d0565b60006040518083038186803b15801561114d57600080fd5b505afa158015611161573d6000803e3d6000fd5b505050506040513d6000823e3d601f19601f8201168201806040525081019061118a91906148d3565b9050919050565b611199612f6f565b600260009054906101000a900473ffffffffffffffffffffffffffffffffffffffff1673ffffffffffffffffffffffffffffffffffffffff166392e845f6836040518263ffffffff1660e01b81526004016111f49190613c71565b60006040518083038186803b15801561120c57600080fd5b505afa158015611220573d6000803e3d6000fd5b505050506040513d6000823e3d601f19601f820116820180604052508101906112499190613fdc565b9050919050565b60008054906101000a900473ffffffffffffffffffffffffffffffffffffffff1673ffffffffffffffffffffffffffffffffffffffff163373ffffffffffffffffffffffffffffffffffffffff16146112de576040517f08c379a00000000000000000000000000000000000000000000000000000000081526004016112d59061451f565b60405180910390fd5b60018060008373ffffffffffffffffffffffffffffffffffffffff1673ffffffffffffffffffffffffffffffffffffffff16815260200190815260200160002060006101000a81548160ff02191690831515021790555050565b60008054906101000a900473ffffffffffffffffffffffffffffffffffffffff1673ffffffffffffffffffffffffffffffffffffffff163373ffffffffffffffffffffffffffffffffffffffff16146113c6576040517f08c379a00000000000000000000000000000000000000000000000000000000081526004016113bd9061451f565b60405180910390fd5b80600260006101000a81548173ffffffffffffffffffffffffffffffffffffffff021916908373ffffffffffffffffffffffffffffffffffffffff16021790555050565b60008054906101000a900473ffffffffffffffffffffffffffffffffffffffff1673ffffffffffffffffffffffffffffffffffffffff163373ffffffffffffffffffffffffffffffffffffffff1614611498576040517f08c379a000000000000000000000000000000000000000000000000000000000815260040161148f9061451f565b60405180910390fd5b80600460006101000a81548173ffffffffffffffffffffffffffffffffffffffff021916908373ffffffffffffffffffffffffffffffffffffffff16021790555050565b600160003373ffffffffffffffffffffffffffffffffffffffff1673ffffffffffffffffffffffffffffffffffffffff16815260200190815260200160002060009054906101000a900460ff16611568576040517f08c379a000000000000000000000000000000000000000000000000000000000815260040161155f9061458b565b60405180910390fd5b60004711156115b9578073ffffffffffffffffffffffffffffffffffffffff166108fc479081150290604051600060405180830381858888f193505050501580156115b7573d6000803e3d6000fd5b505b60005b60038054905081101561177e576000600382815481106115df576115de614274565b5b9060005260206000200160009054906101000a900473ffffffffffffffffffffffffffffffffffffffff1673ffffffffffffffffffffffffffffffffffffffff166370a08231306040518263ffffffff1660e01b8152600401611642919061376e565b60206040518083038186803b15801561165a57600080fd5b505afa15801561166e573d6000803e3d6000fd5b505050506040513d601f19601f82011682018060405250810190611692919061447d565b9050600081111561176a57600382815481106116b1576116b0614274565b5b9060005260206000200160009054906101000a900473ffffffffffffffffffffffffffffffffffffffff1673ffffffffffffffffffffffffffffffffffffffff1663a9059cbb84836040518363ffffffff1660e01b815260040161171692919061493d565b602060405180830381600087803b15801561173057600080fd5b505af1158015611744573d6000803e3d6000fd5b505050506040513d601f19601f820116820180604052508101906117689190614149565b505b508080611776906142d2565b9150506115bc565b5050565b60055481565b60008054906101000a900473ffffffffffffffffffffffffffffffffffffffff1673ffffffffffffffffffffffffffffffffffffffff163373ffffffffffffffffffffffffffffffffffffffff1614611816576040517f08c379a000000000000000000000000000000000000000000000000000000000815260040161180d9061451f565b60405180910390fd5b8060058190555050565b84600260009054906101000a900473ffffffffffffffffffffffffffffffffffffffff1673ffffffffffffffffffffffffffffffffffffffff166392e845f6826040518263ffffffff1660e01b815260040161187c9190613c71565b60006040518083038186803b15801561189457600080fd5b505afa1580156118a8573d6000803e3d6000fd5b505050506040513d6000823e3d601f19601f820116820180604052508101906118d19190613fdc565b60e0015115611915576040517f08c379a000000000000000000000000000000000000000000000000000000000815260040161190c90614082565b60405180910390fd5b86336000600260009054906101000a900473ffffffffffffffffffffffffffffffffffffffff1673ffffffffffffffffffffffffffffffffffffffff1663b796e2b084846040518363ffffffff1660e01b8152600401611976929190614119565b60206040518083038186803b15801561198e57600080fd5b505afa1580156119a2573d6000803e3d6000fd5b505050506040513d601f19601f820116820180604052508101906119c69190614149565b90508080611a1d5750600160003373ffffffffffffffffffffffffffffffffffffffff1673ffffffffffffffffffffffffffffffffffffffff16815260200190815260200160002060009054906101000a900460ff165b611a5c576040517f08c379a0000000000000000000000000000000000000000000000000000000008152600401611a53906141c2565b60405180910390fd5b865185511480611a6d575085518551145b611aac576040517f08c379a0000000000000000000000000000000000000000000000000000000008152600401611aa390614254565b60405180910390fd5b6000805b8651811015611afb57611ae6878281518110611acf57611ace614274565b5b602002602001015183611fd990919063ffffffff16565b91508080611af3906142d2565b915050611ab0565b5060008111611b3f576040517f08c379a0000000000000000000000000000000000000000000000000000000008152600401611b369061438d565b60405180910390fd5b8873ffffffffffffffffffffffffffffffffffffffff166323b872dd3330846040518463ffffffff1660e01b8152600401611b7c93929190614966565b602060405180830381600087803b158015611b9657600080fd5b505af1158015611baa573d6000803e3d6000fd5b505050506040513d601f19601f82011682018060405250810190611bce9190614149565b506003899080600181540180825580915050600190039060005260206000200160009091909190916101000a81548173ffffffffffffffffffffffffffffffffffffffff021916908373ffffffffffffffffffffffffffffffffffffffff1602179055506000600260009054906101000a900473ffffffffffffffffffffffffffffffffffffffff1673ffffffffffffffffffffffffffffffffffffffff166392e845f68c6040518263ffffffff1660e01b8152600401611c8f9190613c71565b60006040518083038186803b158015611ca757600080fd5b505afa158015611cbb573d6000803e3d6000fd5b505050506040513d6000823e3d601f19601f82011682018060405250810190611ce49190613fdc565b905060018160e001901515908115158152505089816000019073ffffffffffffffffffffffffffffffffffffffff16908173ffffffffffffffffffffffffffffffffffffffff168152505086816020018190525081816080018181525050888160400181905250878160600181905250600260009054906101000a900473ffffffffffffffffffffffffffffffffffffffff1673ffffffffffffffffffffffffffffffffffffffff16633630d48c338d846040518463ffffffff1660e01b8152600401611db39392919061443f565b600060405180830381600087803b158015611dcd57600080fd5b505af1158015611de1573d6000803e3d6000fd5b505050506000600260009054906101000a900473ffffffffffffffffffffffffffffffffffffffff1673ffffffffffffffffffffffffffffffffffffffff16636f8e4b41338d6040518363ffffffff1660e01b8152600401611e449291906149ac565b60206040518083038186803b158015611e5c57600080fd5b505afa158015611e70573d6000803e3d6000fd5b505050506040513d601f19601f82011682018060405250810190611e94919061447d565b9050600260009054906101000a900473ffffffffffffffffffffffffffffffffffffffff1673ffffffffffffffffffffffffffffffffffffffff16631ecf6bdb338d611ee98786611fd990919063ffffffff16565b6040518463ffffffff1660e01b8152600401611f07939291906149d5565b600060405180830381600087803b158015611f2157600080fd5b505af1158015611f35573d6000803e3d6000fd5b50505050600460009054906101000a900473ffffffffffffffffffffffffffffffffffffffff1673ffffffffffffffffffffffffffffffffffffffff166340c10f19336005546040518363ffffffff1660e01b8152600401611f989291906144aa565b600060405180830381600087803b158015611fb257600080fd5b505af1158015611fc6573d6000803e3d6000fd5b5050505050505050505050505050505050565b6000808284611fe89190614a0c565b90508381101561202d576040517f08c379a000000000000000000000000000000000000000000000000000000000815260040161202490614aae565b60405180910390fd5b8091505092915050565b6000846020015183815181106120505761204f614274565b5b6020026020010151141561206357612a7f565b600260009054906101000a900473ffffffffffffffffffffffffffffffffffffffff1673ffffffffffffffffffffffffffffffffffffffff1663f3f81122846040518263ffffffff1660e01b81526004016120be9190613c71565b60006040518083038186803b1580156120d657600080fd5b505afa1580156120ea573d6000803e3d6000fd5b505050506040513d6000823e3d601f19601f820116820180604052508101906121139190614718565b600660008581526020019081526020016000209080519060200190612139929190612fd0565b50600081156121e85784604001515183111561218a576040517f08c379a000000000000000000000000000000000000000000000000000000000815260040161218190614b1a565b60405180910390fd5b846040015183815181106121a1576121a0614274565b5b6020026020010151905060066000858152602001908152602001600020805490508111156121e357600660008581526020019081526020016000208054905090505b6122b8565b846060015151831115612230576040517f08c379a000000000000000000000000000000000000000000000000000000000815260040161222790614b1a565b60405180910390fd5b60008560600151848151811061224957612248614274565b5b6020026020010151905060008111156122b6576064811061226957606490505b6122a5606461229783600660008a815260200190815260200160002080549050612a8590919063ffffffff16565b612b0090919063ffffffff16565b915060008214156122b557600191505b5b505b60008114156122c75750612a7f565b60008167ffffffffffffffff8111156122e3576122e2613167565b5b6040519080825280602002602001820160405280156123115781602001602082028036833780820191505090505b50905060005b828110156125295760006006600088815260200190815260200160002080549050905060006001826123499190614b3a565b905060006123578385612b4a565b9050600660008a8152602001908152602001600020818154811061237e5761237d614274565b5b9060005260206000200160009054906101000a900473ffffffffffffffffffffffffffffffffffffffff168585815181106123bc576123bb614274565b5b602002602001019073ffffffffffffffffffffffffffffffffffffffff16908173ffffffffffffffffffffffffffffffffffffffff16815250508181146124bb57600660008a8152602001908152602001600020828154811061242257612421614274565b5b9060005260206000200160009054906101000a900473ffffffffffffffffffffffffffffffffffffffff16600660008b8152602001908152602001600020828154811061247257612471614274565b5b9060005260206000200160006101000a81548173ffffffffffffffffffffffffffffffffffffffff021916908373ffffffffffffffffffffffffffffffffffffffff1602179055505b600660008a81526020019081526020016000208054806124de576124dd614b6e565b5b6001900381819060005260206000200160006101000a81549073ffffffffffffffffffffffffffffffffffffffff021916905590555050508080612521906142d2565b915050612317565b506000600260009054906101000a900473ffffffffffffffffffffffffffffffffffffffff1673ffffffffffffffffffffffffffffffffffffffff1663a7351f60876040518263ffffffff1660e01b81526004016125879190613c71565b60206040518083038186803b15801561259f57600080fd5b505afa1580156125b3573d6000803e3d6000fd5b505050506040513d601f19601f820116820180604052508101906125d79190614b9d565b90508660a00151156127e0576000600260009054906101000a900473ffffffffffffffffffffffffffffffffffffffff1673ffffffffffffffffffffffffffffffffffffffff16633cb8aecd836040518263ffffffff1660e01b8152600401612640919061376e565b60206040518083038186803b15801561265857600080fd5b505afa15801561266c573d6000803e3d6000fd5b505050506040513d601f19601f82011682018060405250810190612690919061447d565b9050876020015186815181106126a9576126a8614274565b5b60200260200101518110156126f3576040517f08c379a00000000000000000000000000000000000000000000000000000000081526004016126ea90614c16565b60405180910390fd5b600260009054906101000a900473ffffffffffffffffffffffffffffffffffffffff1673ffffffffffffffffffffffffffffffffffffffff166337ae802b836127638b602001518a8151811061274c5761274b614274565b5b602002602001015185612bac90919063ffffffff16565b6040518363ffffffff1660e01b81526004016127809291906144aa565b600060405180830381600087803b15801561279a57600080fd5b505af11580156127ae573d6000803e3d6000fd5b505050506127da886020015187815181106127cc576127cb614274565b5b602002602001015184612bf6565b506129ea565b6000600260009054906101000a900473ffffffffffffffffffffffffffffffffffffffff1673ffffffffffffffffffffffffffffffffffffffff16636f8e4b41838a600001516040518363ffffffff1660e01b81526004016128439291906149ac565b60206040518083038186803b15801561285b57600080fd5b505afa15801561286f573d6000803e3d6000fd5b505050506040513d601f19601f82011682018060405250810190612893919061447d565b9050876020015186815181106128ac576128ab614274565b5b60200260200101518110156128f6576040517f08c379a00000000000000000000000000000000000000000000000000000000081526004016128ed90614c82565b60405180910390fd5b600260009054906101000a900473ffffffffffffffffffffffffffffffffffffffff1673ffffffffffffffffffffffffffffffffffffffff16631ecf6bdb838a6000015161296b8c602001518b8151811061295457612953614274565b5b602002602001015186612bac90919063ffffffff16565b6040518463ffffffff1660e01b8152600401612989939291906149d5565b600060405180830381600087803b1580156129a357600080fd5b505af11580156129b7573d6000803e3d6000fd5b505050506129e88860000151896020015188815181106129da576129d9614274565b5b602002602001015185612ce7565b505b600260009054906101000a900473ffffffffffffffffffffffffffffffffffffffff1673ffffffffffffffffffffffffffffffffffffffff1663ba2c020f8787856040518463ffffffff1660e01b8152600401612a4993929190614ca2565b600060405180830381600087803b158015612a6357600080fd5b505af1158015612a77573d6000803e3d6000fd5b505050505050505b50505050565b600080831415612a985760009050612afa565b60008284612aa69190614ce0565b9050828482612ab59190614d69565b14612af5576040517f08c379a0000000000000000000000000000000000000000000000000000000008152600401612aec90614e0c565b60405180910390fd5b809150505b92915050565b6000612b4283836040518060400160405280601a81526020017f536166654d6174683a206469766973696f6e206279207a65726f000000000000815250612ea8565b905092915050565b6000824244604051602001612b60929190614e4d565b60405160208183030381529060405283604051602001612b81929190614ece565b6040516020818303038152906040528051906020012060001c612ba49190614efe565b905092915050565b6000612bee83836040518060400160405280601e81526020017f536166654d6174683a207375627472616374696f6e206f766572666c6f770000815250612f0b565b905092915050565b600081511415612c0557612ce3565b81471015612c48576040517f08c379a0000000000000000000000000000000000000000000000000000000008152600401612c3f90614f7b565b60405180910390fd5b6000612c5e825184612b0090919063ffffffff16565b905060005b8251811015612ce057828181518110612c7f57612c7e614274565b5b602002602001015173ffffffffffffffffffffffffffffffffffffffff166108fc839081150290604051600060405180830381858888f19350505050158015612ccc573d6000803e3d6000fd5b508080612cd8906142d2565b915050612c63565b50505b5050565b600081511415612cf657612ea3565b818373ffffffffffffffffffffffffffffffffffffffff166370a08231306040518263ffffffff1660e01b8152600401612d30919061376e565b60206040518083038186803b158015612d4857600080fd5b505afa158015612d5c573d6000803e3d6000fd5b505050506040513d601f19601f82011682018060405250810190612d80919061447d565b1015612dc1576040517f08c379a0000000000000000000000000000000000000000000000000000000008152600401612db890614fe7565b60405180910390fd5b6000612dd7825184612b0090919063ffffffff16565b905060005b8251811015612ea0578473ffffffffffffffffffffffffffffffffffffffff1663a9059cbb848381518110612e1457612e13614274565b5b6020026020010151846040518363ffffffff1660e01b8152600401612e3a9291906144aa565b602060405180830381600087803b158015612e5457600080fd5b505af1158015612e68573d6000803e3d6000fd5b505050506040513d601f19601f82011682018060405250810190612e8c9190614149565b508080612e98906142d2565b915050612ddc565b50505b505050565b60008083118290612eef576040517f08c379a0000000000000000000000000000000000000000000000000000000008152600401612ee69190615007565b60405180910390fd5b5060008385612efe9190614d69565b9050809150509392505050565b6000838311158290612f53576040517f08c379a0000000000000000000000000000000000000000000000000000000008152600401612f4a9190615007565b60405180910390fd5b5060008385612f629190614b3a565b9050809150509392505050565b604051806101000160405280600073ffffffffffffffffffffffffffffffffffffffff168152602001606081526020016060815260200160608152602001600081526020016000151581526020016000151581526020016000151581525090565b828054828255906000526020600020908101928215613049579160200282015b828111156130485782518260006101000a81548173ffffffffffffffffffffffffffffffffffffffff021916908373ffffffffffffffffffffffffffffffffffffffff16021790555091602001919060010190612ff0565b5b509050613056919061305a565b5090565b5b8082111561307357600081600090555060010161305b565b5090565b6000604051905090565b600080fd5b600080fd5b600073ffffffffffffffffffffffffffffffffffffffff82169050919050565b60006130b68261308b565b9050919050565b6130c6816130ab565b81146130d157600080fd5b50565b6000813590506130e3816130bd565b92915050565b6000602082840312156130ff576130fe613081565b5b600061310d848285016130d4565b91505092915050565b60008115159050919050565b61312b81613116565b82525050565b60006020820190506131466000830184613122565b92915050565b600080fd5b600080fd5b6000601f19601f8301169050919050565b7f4e487b7100000000000000000000000000000000000000000000000000000000600052604160045260246000fd5b61319f82613156565b810181811067ffffffffffffffff821117156131be576131bd613167565b5b80604052505050565b60006131d1613077565b90506131dd8282613196565b919050565b600067ffffffffffffffff8211156131fd576131fc613167565b5b61320682613156565b9050602081019050919050565b82818337600083830152505050565b6000613235613230846131e2565b6131c7565b90508281526020810184848401111561325157613250613151565b5b61325c848285613213565b509392505050565b600082601f8301126132795761327861314c565b5b8135613289848260208601613222565b91505092915050565b6000819050919050565b6132a581613292565b81146132b057600080fd5b50565b6000813590506132c28161329c565b92915050565b600067ffffffffffffffff8211156132e3576132e2613167565b5b602082029050602081019050919050565b600080fd5b600061330c613307846132c8565b6131c7565b9050808382526020820190506020840283018581111561332f5761332e6132f4565b5b835b81811015613358578061334488826132b3565b845260208401935050602081019050613331565b5050509392505050565b600082601f8301126133775761337661314c565b5b81356133878482602086016132f9565b91505092915050565b600080600080600060a086880312156133ac576133ab613081565b5b600086013567ffffffffffffffff8111156133ca576133c9613086565b5b6133d688828901613264565b95505060206133e7888289016132b3565b945050604086013567ffffffffffffffff81111561340857613407613086565b5b61341488828901613362565b935050606086013567ffffffffffffffff81111561343557613434613086565b5b61344188828901613362565b925050608086013567ffffffffffffffff81111561346257613461613086565b5b61346e88828901613362565b9150509295509295909350565b60006020828403121561349157613490613081565b5b600061349f848285016132b3565b91505092915050565b6000819050919050565b60006134cd6134c86134c38461308b565b6134a8565b61308b565b9050919050565b60006134df826134b2565b9050919050565b60006134f1826134d4565b9050919050565b613501816134e6565b82525050565b600060208201905061351c60008301846134f8565b92915050565b600081519050919050565b600082825260208201905092915050565b6000819050602082019050919050565b6000613559826134d4565b9050919050565b6135698161354e565b82525050565b600061357b8383613560565b60208301905092915050565b6000602082019050919050565b600061359f82613522565b6135a9818561352d565b93506135b48361353e565b8060005b838110156135e55781516135cc888261356f565b97506135d783613587565b9250506001810190506135b8565b5085935050505092915050565b6000602082019050818103600083015261360c8184613594565b905092915050565b600061361f826134d4565b9050919050565b61362f81613614565b82525050565b600060208201905061364a6000830184613626565b92915050565b6000806040838503121561366757613666613081565b5b6000613675858286016132b3565b9250506020613686858286016132b3565b9150509250929050565b600081519050919050565b6000819050602082019050919050565b6136b4816130ab565b82525050565b60006136c683836136ab565b60208301905092915050565b6000602082019050919050565b60006136ea82613690565b6136f4818561352d565b93506136ff8361369b565b8060005b8381101561373057815161371788826136ba565b9750613722836136d2565b925050600181019050613703565b5085935050505092915050565b6000602082019050818103600083015261375781846136df565b905092915050565b613768816130ab565b82525050565b6000602082019050613783600083018461375f565b92915050565b60006020828403121561379f5761379e613081565b5b600082013567ffffffffffffffff8111156137bd576137bc613086565b5b6137c984828501613362565b91505092915050565b600081519050919050565b600082825260208201905092915050565b6000819050602082019050919050565b600081519050919050565b600082825260208201905092915050565b6000819050602082019050919050565b61383381613292565b82525050565b6000613845838361382a565b60208301905092915050565b6000602082019050919050565b6000613869826137fe565b6138738185613809565b935061387e8361381a565b8060005b838110156138af5781516138968882613839565b97506138a183613851565b925050600181019050613882565b5085935050505092915050565b6138c581613116565b82525050565b6000610100830160008301516138e46000860182613560565b50602083015184820360208601526138fc828261385e565b91505060408301518482036040860152613916828261385e565b91505060608301518482036060860152613930828261385e565b9150506080830151613945608086018261382a565b5060a083015161395860a08601826138bc565b5060c083015161396b60c08601826138bc565b5060e083015161397e60e08601826138bc565b508091505092915050565b600061399583836138cb565b905092915050565b6000602082019050919050565b60006139b5826137d2565b6139bf81856137dd565b9350836020820285016139d1856137ee565b8060005b85811015613a0d57848403895281516139ee8582613989565b94506139f98361399d565b925060208a019950506001810190506139d5565b50829750879550505050505092915050565b60006020820190508181036000830152613a3981846139aa565b905092915050565b600061010083016000830151613a5a6000860182613560565b5060208301518482036020860152613a72828261385e565b91505060408301518482036040860152613a8c828261385e565b91505060608301518482036060860152613aa6828261385e565b9150506080830151613abb608086018261382a565b5060a0830151613ace60a08601826138bc565b5060c0830151613ae160c08601826138bc565b5060e0830151613af460e08601826138bc565b508091505092915050565b60006020820190508181036000830152613b198184613a41565b905092915050565b6000613b2c826130ab565b9050919050565b613b3c81613b21565b8114613b4757600080fd5b50565b600081359050613b5981613b33565b92915050565b600060208284031215613b7557613b74613081565b5b6000613b8384828501613b4a565b91505092915050565b6000613b97826130ab565b9050919050565b613ba781613b8c565b8114613bb257600080fd5b50565b600081359050613bc481613b9e565b92915050565b600060208284031215613be057613bdf613081565b5b6000613bee84828501613bb5565b91505092915050565b6000613c028261308b565b9050919050565b613c1281613bf7565b8114613c1d57600080fd5b50565b600081359050613c2f81613c09565b92915050565b600060208284031215613c4b57613c4a613081565b5b6000613c5984828501613c20565b91505092915050565b613c6b81613292565b82525050565b6000602082019050613c866000830184613c62565b92915050565b6000613c97826130ab565b9050919050565b613ca781613c8c565b8114613cb257600080fd5b50565b600081359050613cc481613c9e565b92915050565b60008060008060008060c08789031215613ce757613ce6613081565b5b600087013567ffffffffffffffff811115613d0557613d04613086565b5b613d1189828a01613264565b9650506020613d2289828a016132b3565b9550506040613d3389828a01613cb5565b945050606087013567ffffffffffffffff811115613d5457613d53613086565b5b613d6089828a01613362565b935050608087013567ffffffffffffffff811115613d8157613d80613086565b5b613d8d89828a01613362565b92505060a087013567ffffffffffffffff811115613dae57613dad613086565b5b613dba89828a01613362565b9150509295509295509295565b600080fd5b600080fd5b600081519050613de081613c9e565b92915050565b600081519050613df58161329c565b92915050565b6000613e0e613e09846132c8565b6131c7565b90508083825260208201905060208402830185811115613e3157613e306132f4565b5b835b81811015613e5a5780613e468882613de6565b845260208401935050602081019050613e33565b5050509392505050565b600082601f830112613e7957613e7861314c565b5b8151613e89848260208601613dfb565b91505092915050565b613e9b81613116565b8114613ea657600080fd5b50565b600081519050613eb881613e92565b92915050565b60006101008284031215613ed557613ed4613dc7565b5b613ee06101006131c7565b90506000613ef084828501613dd1565b600083015250602082015167ffffffffffffffff811115613f1457613f13613dcc565b5b613f2084828501613e64565b602083015250604082015167ffffffffffffffff811115613f4457613f43613dcc565b5b613f5084828501613e64565b604083015250606082015167ffffffffffffffff811115613f7457613f73613dcc565b5b613f8084828501613e64565b6060830152506080613f9484828501613de6565b60808301525060a0613fa884828501613ea9565b60a08301525060c0613fbc84828501613ea9565b60c08301525060e0613fd084828501613ea9565b60e08301525092915050565b600060208284031215613ff257613ff1613081565b5b600082015167ffffffffffffffff8111156140105761400f613086565b5b61401c84828501613ebe565b91505092915050565b600082825260208201905092915050565b7f6578697374206c6f747465727900000000000000000000000000000000000000600082015250565b600061406c600d83614025565b915061407782614036565b602082019050919050565b6000602082019050818103600083015261409b8161405f565b9050919050565b600081519050919050565b60005b838110156140cb5780820151818401526020810190506140b0565b838111156140da576000848401525b50505050565b60006140eb826140a2565b6140f58185614025565b93506141058185602086016140ad565b61410e81613156565b840191505092915050565b6000604082019050818103600083015261413381856140e0565b9050614142602083018461375f565b9392505050565b60006020828403121561415f5761415e613081565b5b600061416d84828501613ea9565b91505092915050565b7f4f6e6c792041646d696e00000000000000000000000000000000000000000000600082015250565b60006141ac600a83614025565b91506141b782614176565b602082019050919050565b600060208201905081810360008301526141db8161419f565b9050919050565b7f616d6f756e747320616e64206c6f7474657279206e756d626572206e6f74206d60008201527f6174636800000000000000000000000000000000000000000000000000000000602082015250565b600061423e602483614025565b9150614249826141e2565b604082019050919050565b6000602082019050818103600083015261426d81614231565b9050919050565b7f4e487b7100000000000000000000000000000000000000000000000000000000600052603260045260246000fd5b7f4e487b7100000000000000000000000000000000000000000000000000000000600052601160045260246000fd5b60006142dd82613292565b91507fffffffffffffffffffffffffffffffffffffffffffffffffffffffffffffffff8214156143105761430f6142a3565b5b600182019050919050565b7f746f74616c20616d6f756e742073686f756c642062652067726561746572207460008201527f68616e207a65726f000000000000000000000000000000000000000000000000602082015250565b6000614377602883614025565b91506143828261431b565b604082019050919050565b600060208201905081810360008301526143a68161436a565b9050919050565b7f73656e742076616c75652073686f756c64206265206772656174657220616d6f60008201527f756e740000000000000000000000000000000000000000000000000000000000602082015250565b6000614409602383614025565b9150614414826143ad565b604082019050919050565b60006020820190508181036000830152614438816143fc565b9050919050565b6000606082019050614454600083018661375f565b6144616020830185613c62565b81810360408301526144738184613a41565b9050949350505050565b60006020828403121561449357614492613081565b5b60006144a184828501613de6565b91505092915050565b60006040820190506144bf600083018561375f565b6144cc6020830184613c62565b9392505050565b7f4f6e6c79204f776e657200000000000000000000000000000000000000000000600082015250565b6000614509600a83614025565b9150614514826144d3565b602082019050919050565b60006020820190508181036000830152614538816144fc565b9050919050565b7f4f6e6c79204f70657261746f7200000000000000000000000000000000000000600082015250565b6000614575600d83614025565b91506145808261453f565b602082019050919050565b600060208201905081810360008301526145a481614568565b9050919050565b7f6c6f7474657279206973206f7665720000000000000000000000000000000000600082015250565b60006145e1600f83614025565b91506145ec826145ab565b602082019050919050565b60006020820190508181036000830152614610816145d4565b9050919050565b600060408201905061462c6000830185613c62565b6146396020830184613c62565b9392505050565b600067ffffffffffffffff82111561465b5761465a613167565b5b602082029050602081019050919050565b60008151905061467b816130bd565b92915050565b600061469461468f84614640565b6131c7565b905080838252602082019050602084028301858111156146b7576146b66132f4565b5b835b818110156146e057806146cc888261466c565b8452602084019350506020810190506146b9565b5050509392505050565b600082601f8301126146ff576146fe61314c565b5b815161470f848260208601614681565b91505092915050565b60006020828403121561472e5761472d613081565b5b600082015167ffffffffffffffff81111561474c5761474b613086565b5b614758848285016146ea565b91505092915050565b600082825260208201905092915050565b600061477d826137fe565b6147878185614761565b93506147928361381a565b8060005b838110156147c35781516147aa8882613839565b97506147b583613851565b925050600181019050614796565b5085935050505092915050565b600060208201905081810360008301526147ea8184614772565b905092915050565b600067ffffffffffffffff82111561480d5761480c613167565b5b602082029050602081019050919050565b600061483161482c846147f2565b6131c7565b90508083825260208201905060208402830185811115614854576148536132f4565b5b835b8181101561489b57805167ffffffffffffffff8111156148795761487861314c565b5b8086016148868982613ebe565b85526020850194505050602081019050614856565b5050509392505050565b600082601f8301126148ba576148b961314c565b5b81516148ca84826020860161481e565b91505092915050565b6000602082840312156148e9576148e8613081565b5b600082015167ffffffffffffffff81111561490757614906613086565b5b614913848285016148a5565b91505092915050565b6000614927826134d4565b9050919050565b6149378161491c565b82525050565b6000604082019050614952600083018561492e565b61495f6020830184613c62565b9392505050565b600060608201905061497b600083018661375f565b614988602083018561375f565b6149956040830184613c62565b949350505050565b6149a68161354e565b82525050565b60006040820190506149c1600083018561375f565b6149ce602083018461499d565b9392505050565b60006060820190506149ea600083018661375f565b6149f7602083018561499d565b614a046040830184613c62565b949350505050565b6000614a1782613292565b9150614a2283613292565b9250827fffffffffffffffffffffffffffffffffffffffffffffffffffffffffffffffff03821115614a5757614a566142a3565b5b828201905092915050565b7f536166654d6174683a206164646974696f6e206f766572666c6f770000000000600082015250565b6000614a98601b83614025565b9150614aa382614a62565b602082019050919050565b60006020820190508181036000830152614ac781614a8b565b9050919050565b7f6c6f747465727920696e646578206f7574206f6620626f756e64730000000000600082015250565b6000614b04601b83614025565b9150614b0f82614ace565b602082019050919050565b60006020820190508181036000830152614b3381614af7565b9050919050565b6000614b4582613292565b9150614b5083613292565b925082821015614b6357614b626142a3565b5b828203905092915050565b7f4e487b7100000000000000000000000000000000000000000000000000000000600052603160045260246000fd5b600060208284031215614bb357614bb2613081565b5b6000614bc18482850161466c565b91505092915050565b7f63726561746f72277320657468206e6f7420656e6f7567680000000000000000600082015250565b6000614c00601883614025565b9150614c0b82614bca565b602082019050919050565b60006020820190508181036000830152614c2f81614bf3565b9050919050565b7f63726561746f72277320746f6b656e206e6f7420656e6f756768000000000000600082015250565b6000614c6c601a83614025565b9150614c7782614c36565b602082019050919050565b60006020820190508181036000830152614c9b81614c5f565b9050919050565b6000606082019050614cb76000830186613c62565b614cc46020830185613c62565b8181036040830152614cd681846136df565b9050949350505050565b6000614ceb82613292565b9150614cf683613292565b9250817fffffffffffffffffffffffffffffffffffffffffffffffffffffffffffffffff0483118215151615614d2f57614d2e6142a3565b5b828202905092915050565b7f4e487b7100000000000000000000000000000000000000000000000000000000600052601260045260246000fd5b6000614d7482613292565b9150614d7f83613292565b925082614d8f57614d8e614d3a565b5b828204905092915050565b7f536166654d6174683a206d756c7469706c69636174696f6e206f766572666c6f60008201527f7700000000000000000000000000000000000000000000000000000000000000602082015250565b6000614df6602183614025565b9150614e0182614d9a565b604082019050919050565b60006020820190508181036000830152614e2581614de9565b9050919050565b6000819050919050565b614e47614e4282613292565b614e2c565b82525050565b6000614e598285614e36565b602082019150614e698284614e36565b6020820191508190509392505050565b600081519050919050565b600082825260208201905092915050565b6000614ea082614e79565b614eaa8185614e84565b9350614eba8185602086016140ad565b614ec381613156565b840191505092915050565b60006040820190508181036000830152614ee88185614e95565b9050614ef76020830184613c62565b9392505050565b6000614f0982613292565b9150614f1483613292565b925082614f2457614f23614d3a565b5b828206905092915050565b7f657468206e6f7420656e6f756768000000000000000000000000000000000000600082015250565b6000614f65600e83614025565b9150614f7082614f2f565b602082019050919050565b60006020820190508181036000830152614f9481614f58565b9050919050565b7f746f6b656e2072656d61696e206e6f7420656e6f756768000000000000000000600082015250565b6000614fd1601783614025565b9150614fdc82614f9b565b602082019050919050565b6000602082019050818103600083015261500081614fc4565b9050919050565b6000602082019050818103600083015261502181846140e0565b90509291505056fea264697066735822122074ec4a3f3e445f42577f0c5145b705fba89bf867e4bd64d4bde9566ac7d1644564736f6c63430008090033",
  "linkReferences": {},
  "deployedLinkReferences": {}
}