{
  "_format": "hh-sol-artifact-1",
  "contractName": "LotteryPool",
  "sourceName": "src/contracts/lottery/lottery.sol",
  "abi": [
    {
      "inputs": [
        {
          "internalType": "address",
          "name": "_operator",
          "type": "address"
        },
        {
          "internalType": "contract IDataStorage",
          "name": "_storage",
          "type": "address"
        }
      ],
      "stateMutability": "nonpayable",
      "type": "constructor"
    },
    {
      "inputs": [
        {
          "internalType": "address",
          "name": "_newOperator",
          "type": "address"
        }
      ],
      "name": "addOperator",
      "outputs": [],
      "stateMutability": "nonpayable",
      "type": "function"
    },
    {
      "inputs": [
        {
          "internalType": "contract IDataStorage",
          "name": "_newStorage",
          "type": "address"
        }
      ],
      "name": "changeStorage",
      "outputs": [],
      "stateMutability": "nonpayable",
      "type": "function"
    },
    {
      "inputs": [
        {
          "internalType": "string",
          "name": "_appId",
          "type": "string"
        },
        {
          "internalType": "uint256",
          "name": "_lotteryId",
          "type": "uint256"
        },
        {
          "internalType": "uint256[]",
          "name": "_fixedNum",
          "type": "uint256[]"
        },
        {
          "internalType": "uint256[]",
          "name": "_proportionNum",
          "type": "uint256[]"
        },
        {
          "internalType": "uint256[]",
          "name": "_amounts",
          "type": "uint256[]"
        }
      ],
      "name": "createEthLottery",
      "outputs": [],
      "stateMutability": "payable",
      "type": "function"
    },
    {
      "inputs": [
        {
          "internalType": "string",
          "name": "_appId",
          "type": "string"
        },
        {
          "internalType": "uint256",
          "name": "_lotteryId",
          "type": "uint256"
        },
        {
          "internalType": "contract IERC20",
          "name": "_rewardToken",
          "type": "address"
        },
        {
          "internalType": "uint256[]",
          "name": "_fixedNum",
          "type": "uint256[]"
        },
        {
          "internalType": "uint256[]",
          "name": "_proportionNum",
          "type": "uint256[]"
        },
        {
          "internalType": "uint256[]",
          "name": "_amounts",
          "type": "uint256[]"
        }
      ],
      "name": "createLottery",
      "outputs": [],
      "stateMutability": "nonpayable",
      "type": "function"
    },
    {
      "inputs": [],
      "name": "dataStorage",
      "outputs": [
        {
          "internalType": "contract IDataStorage",
          "name": "",
          "type": "address"
        }
      ],
      "stateMutability": "view",
      "type": "function"
    },
    {
      "inputs": [
        {
          "internalType": "uint256",
          "name": "_lotteryId",
          "type": "uint256"
        }
      ],
      "name": "drawALottery",
      "outputs": [],
      "stateMutability": "nonpayable",
      "type": "function"
    },
    {
      "inputs": [],
      "name": "getErc20List",
      "outputs": [
        {
          "internalType": "contract IERC20[]",
          "name": "",
          "type": "address[]"
        }
      ],
      "stateMutability": "view",
      "type": "function"
    },
    {
      "inputs": [
        {
          "internalType": "uint256[]",
          "name": "_ids",
          "type": "uint256[]"
        }
      ],
      "name": "getLotteries",
      "outputs": [
        {
          "components": [
            {
              "internalType": "contract IERC20",
              "name": "token",
              "type": "address"
            },
            {
              "internalType": "uint256[]",
              "name": "amounts",
              "type": "uint256[]"
            },
            {
              "internalType": "uint256[]",
              "name": "fixedNum",
              "type": "uint256[]"
            },
            {
              "internalType": "uint256[]",
              "name": "proportionNum",
              "type": "uint256[]"
            },
            {
              "internalType": "uint256",
              "name": "totalAmount",
              "type": "uint256"
            },
            {
              "internalType": "bool",
              "name": "isEth",
              "type": "bool"
            },
            {
              "internalType": "bool",
              "name": "over",
              "type": "bool"
            },
            {
              "internalType": "bool",
              "name": "exist",
              "type": "bool"
            }
          ],
          "internalType": "struct IDataStorage.Lottery[]",
          "name": "",
          "type": "tuple[]"
        }
      ],
      "stateMutability": "view",
      "type": "function"
    },
    {
      "inputs": [
        {
          "internalType": "uint256",
          "name": "_lotteryId",
          "type": "uint256"
        }
      ],
      "name": "getLottery",
      "outputs": [
        {
          "components": [
            {
              "internalType": "contract IERC20",
              "name": "token",
              "type": "address"
            },
            {
              "internalType": "uint256[]",
              "name": "amounts",
              "type": "uint256[]"
            },
            {
              "internalType": "uint256[]",
              "name": "fixedNum",
              "type": "uint256[]"
            },
            {
              "internalType": "uint256[]",
              "name": "proportionNum",
              "type": "uint256[]"
            },
            {
              "internalType": "uint256",
              "name": "totalAmount",
              "type": "uint256"
            },
            {
              "internalType": "bool",
              "name": "isEth",
              "type": "bool"
            },
            {
              "internalType": "bool",
              "name": "over",
              "type": "bool"
            },
            {
              "internalType": "bool",
              "name": "exist",
              "type": "bool"
            }
          ],
          "internalType": "struct IDataStorage.Lottery",
          "name": "",
          "type": "tuple"
        }
      ],
      "stateMutability": "view",
      "type": "function"
    },
    {
      "inputs": [
        {
          "internalType": "uint256",
          "name": "_lotteryId",
          "type": "uint256"
        },
        {
          "internalType": "uint256",
          "name": "_index",
          "type": "uint256"
        }
      ],
      "name": "getLotteryResults",
      "outputs": [
        {
          "internalType": "address[]",
          "name": "",
          "type": "address[]"
        }
      ],
      "stateMutability": "view",
      "type": "function"
    },
    {
      "inputs": [
        {
          "internalType": "address",
          "name": "",
          "type": "address"
        }
      ],
      "name": "operators",
      "outputs": [
        {
          "internalType": "bool",
          "name": "",
          "type": "bool"
        }
      ],
      "stateMutability": "view",
      "type": "function"
    },
    {
      "inputs": [],
      "name": "owner",
      "outputs": [
        {
          "internalType": "address",
          "name": "",
          "type": "address"
        }
      ],
      "stateMutability": "view",
      "type": "function"
    },
    {
      "inputs": [
        {
          "internalType": "address payable",
          "name": "_to",
          "type": "address"
        }
      ],
      "name": "transferAsset",
      "outputs": [],
      "stateMutability": "nonpayable",
      "type": "function"
    },
    {
      "inputs": [
        {
          "internalType": "address",
          "name": "_newOwner",
          "type": "address"
        }
      ],
      "name": "transferOwner",
      "outputs": [],
      "stateMutability": "nonpayable",
      "type": "function"
    }
  ],
  "bytecode": "0x60806040523480156200001157600080fd5b5060405162004e8038038062004e8083398181016040528101906200003791906200021d565b336000806101000a81548173ffffffffffffffffffffffffffffffffffffffff021916908373ffffffffffffffffffffffffffffffffffffffff16021790555080600260006101000a81548173ffffffffffffffffffffffffffffffffffffffff021916908373ffffffffffffffffffffffffffffffffffffffff16021790555060018060003373ffffffffffffffffffffffffffffffffffffffff1673ffffffffffffffffffffffffffffffffffffffff16815260200190815260200160002060006101000a81548160ff02191690831515021790555060018060008473ffffffffffffffffffffffffffffffffffffffff1673ffffffffffffffffffffffffffffffffffffffff16815260200190815260200160002060006101000a81548160ff021916908315150217905550505062000264565b600080fd5b600073ffffffffffffffffffffffffffffffffffffffff82169050919050565b6000620001a08262000173565b9050919050565b620001b28162000193565b8114620001be57600080fd5b50565b600081519050620001d281620001a7565b92915050565b6000620001e58262000193565b9050919050565b620001f781620001d8565b81146200020357600080fd5b50565b6000815190506200021781620001ec565b92915050565b600080604083850312156200023757620002366200016e565b5b60006200024785828601620001c1565b92505060206200025a8582860162000206565b9150509250929050565b614c0c80620002746000396000f3fe6080604052600436106100dd5760003560e01c80638da5cb5b1161007f5780639870d7fe116100595780639870d7fe146102c5578063c50c97d0146102ee578063c7d7b66014610317578063ef3a4bb414610340576100dd565b80638da5cb5b1461022057806390c909b21461024b57806392e845f614610288576100dd565b806363e71afa116100bb57806363e71afa1461016457806385a5d8fa1461018d5780638870455f146101b85780638a20d49c146101e3576100dd565b806313e7c9d8146100e25780632ccc5e201461011f5780634fb2e45d1461013b575b600080fd5b3480156100ee57600080fd5b5061010960048036038101906101049190612d3d565b610369565b6040516101169190612d85565b60405180910390f35b61013960048036038101906101349190612fe4565b610389565b005b34801561014757600080fd5b50610162600480360381019061015d9190612d3d565b6109d5565b005b34801561017057600080fd5b5061018b600480360381019061018691906130cf565b610afd565b005b34801561019957600080fd5b506101a2610d99565b6040516101af919061320a565b60405180910390f35b3480156101c457600080fd5b506101cd610e27565b6040516101da919061324d565b60405180910390f35b3480156101ef57600080fd5b5061020a60048036038101906102059190613268565b610e4d565b6040516102179190613355565b60405180910390f35b34801561022c57600080fd5b50610235610f09565b6040516102429190613386565b60405180910390f35b34801561025757600080fd5b50610272600480360381019061026d91906133a1565b610f2d565b60405161027f9190613637565b60405180910390f35b34801561029457600080fd5b506102af60048036038101906102aa91906130cf565b610fe6565b6040516102bc9190613717565b60405180910390f35b3480156102d157600080fd5b506102ec60048036038101906102e79190612d3d565b6110a5565b005b3480156102fa57600080fd5b5061031560048036038101906103109190613777565b61118d565b005b34801561032357600080fd5b5061033e600480360381019061033991906137e2565b61125f565b005b34801561034c57600080fd5b506103676004803603810190610362919061384d565b611505565b005b60016020528060005260406000206000915054906101000a900460ff1681565b83600260009054906101000a900473ffffffffffffffffffffffffffffffffffffffff1673ffffffffffffffffffffffffffffffffffffffff166392e845f6826040518263ffffffff1660e01b81526004016103e59190613959565b60006040518083038186803b1580156103fd57600080fd5b505afa158015610411573d6000803e3d6000fd5b505050506040513d6000823e3d601f19601f8201168201806040525081019061043a9190613b89565b60e001511561047e576040517f08c379a000000000000000000000000000000000000000000000000000000000815260040161047590613c2f565b60405180910390fd5b85336000600260009054906101000a900473ffffffffffffffffffffffffffffffffffffffff1673ffffffffffffffffffffffffffffffffffffffff1663b796e2b084846040518363ffffffff1660e01b81526004016104df929190613cc6565b60206040518083038186803b1580156104f757600080fd5b505afa15801561050b573d6000803e3d6000fd5b505050506040513d601f19601f8201168201806040525081019061052f9190613cf6565b905080806105865750600160003373ffffffffffffffffffffffffffffffffffffffff1673ffffffffffffffffffffffffffffffffffffffff16815260200190815260200160002060009054906101000a900460ff165b6105c5576040517f08c379a00000000000000000000000000000000000000000000000000000000081526004016105bc90613d6f565b60405180910390fd5b8651855114806105d6575085518551145b610615576040517f08c379a000000000000000000000000000000000000000000000000000000000815260040161060c90613e01565b60405180910390fd5b6000805b86518110156106645761064f87828151811061063857610637613e21565b5b602002602001015183611c2d90919063ffffffff16565b9150808061065c90613e7f565b915050610619565b50600081116106a8576040517f08c379a000000000000000000000000000000000000000000000000000000000815260040161069f90613f3a565b60405180910390fd5b803410156106eb576040517f08c379a00000000000000000000000000000000000000000000000000000000081526004016106e290613fcc565b60405180910390fd5b6000600260009054906101000a900473ffffffffffffffffffffffffffffffffffffffff1673ffffffffffffffffffffffffffffffffffffffff166392e845f68b6040518263ffffffff1660e01b81526004016107489190613959565b60006040518083038186803b15801561076057600080fd5b505afa158015610774573d6000803e3d6000fd5b505050506040513d6000823e3d601f19601f8201168201806040525081019061079d9190613b89565b905060018160e001901515908115158152505060018160a001901515908115158152505086816020018190525081816080018181525050888160400181905250878160600181905250600260009054906101000a900473ffffffffffffffffffffffffffffffffffffffff1673ffffffffffffffffffffffffffffffffffffffff16633630d48c338c846040518463ffffffff1660e01b815260040161084593929190613fec565b600060405180830381600087803b15801561085f57600080fd5b505af1158015610873573d6000803e3d6000fd5b505050506000600260009054906101000a900473ffffffffffffffffffffffffffffffffffffffff1673ffffffffffffffffffffffffffffffffffffffff16633cb8aecd336040518263ffffffff1660e01b81526004016108d49190613386565b60206040518083038186803b1580156108ec57600080fd5b505afa158015610900573d6000803e3d6000fd5b505050506040513d601f19601f82011682018060405250810190610924919061402a565b9050600260009054906101000a900473ffffffffffffffffffffffffffffffffffffffff1673ffffffffffffffffffffffffffffffffffffffff166337ae802b336109783485611c2d90919063ffffffff16565b6040518363ffffffff1660e01b8152600401610995929190614057565b600060405180830381600087803b1580156109af57600080fd5b505af11580156109c3573d6000803e3d6000fd5b50505050505050505050505050505050565b60008054906101000a900473ffffffffffffffffffffffffffffffffffffffff1673ffffffffffffffffffffffffffffffffffffffff163373ffffffffffffffffffffffffffffffffffffffff1614610a63576040517f08c379a0000000000000000000000000000000000000000000000000000000008152600401610a5a906140cc565b60405180910390fd5b806000806101000a81548173ffffffffffffffffffffffffffffffffffffffff021916908373ffffffffffffffffffffffffffffffffffffffff16021790555060018060008373ffffffffffffffffffffffffffffffffffffffff1673ffffffffffffffffffffffffffffffffffffffff16815260200190815260200160002060006101000a81548160ff02191690831515021790555050565b600160003373ffffffffffffffffffffffffffffffffffffffff1673ffffffffffffffffffffffffffffffffffffffff16815260200190815260200160002060009054906101000a900460ff16610b89576040517f08c379a0000000000000000000000000000000000000000000000000000000008152600401610b8090614138565b60405180910390fd5b6000600260009054906101000a900473ffffffffffffffffffffffffffffffffffffffff1673ffffffffffffffffffffffffffffffffffffffff166392e845f6836040518263ffffffff1660e01b8152600401610be69190613959565b60006040518083038186803b158015610bfe57600080fd5b505afa158015610c12573d6000803e3d6000fd5b505050506040513d6000823e3d601f19601f82011682018060405250810190610c3b9190613b89565b90508060e00151610c4c5750610d96565b8060c0015115610c91576040517f08c379a0000000000000000000000000000000000000000000000000000000008152600401610c88906141a4565b60405180910390fd5b600260009054906101000a900473ffffffffffffffffffffffffffffffffffffffff1673ffffffffffffffffffffffffffffffffffffffff16634251fcd8836040518263ffffffff1660e01b8152600401610cec9190613959565b600060405180830381600087803b158015610d0657600080fd5b505af1158015610d1a573d6000803e3d6000fd5b5050505060008160400151511115610d625760005b816040015151811015610d5c57610d498284836001611c8b565b8080610d5490613e7f565b915050610d2f565b50610d94565b60005b816060015151811015610d9257610d7f8284836000611c8b565b8080610d8a90613e7f565b915050610d65565b505b505b50565b60606003805480602002602001604051908101604052809291908181526020018280548015610e1d57602002820191906000526020600020905b8160009054906101000a900473ffffffffffffffffffffffffffffffffffffffff1673ffffffffffffffffffffffffffffffffffffffff1681526020019060010190808311610dd3575b5050505050905090565b600260009054906101000a900473ffffffffffffffffffffffffffffffffffffffff1681565b6060600260009054906101000a900473ffffffffffffffffffffffffffffffffffffffff1673ffffffffffffffffffffffffffffffffffffffff1663a890cb3a84846040518363ffffffff1660e01b8152600401610eac9291906141c4565b60006040518083038186803b158015610ec457600080fd5b505afa158015610ed8573d6000803e3d6000fd5b505050506040513d6000823e3d601f19601f82011682018060405250810190610f0191906142c5565b905092915050565b60008054906101000a900473ffffffffffffffffffffffffffffffffffffffff1681565b6060600260009054906101000a900473ffffffffffffffffffffffffffffffffffffffff1673ffffffffffffffffffffffffffffffffffffffff166390c909b2836040518263ffffffff1660e01b8152600401610f8a919061437d565b60006040518083038186803b158015610fa257600080fd5b505afa158015610fb6573d6000803e3d6000fd5b505050506040513d6000823e3d601f19601f82011682018060405250810190610fdf9190614480565b9050919050565b610fee612bc3565b600260009054906101000a900473ffffffffffffffffffffffffffffffffffffffff1673ffffffffffffffffffffffffffffffffffffffff166392e845f6836040518263ffffffff1660e01b81526004016110499190613959565b60006040518083038186803b15801561106157600080fd5b505afa158015611075573d6000803e3d6000fd5b505050506040513d6000823e3d601f19601f8201168201806040525081019061109e9190613b89565b9050919050565b60008054906101000a900473ffffffffffffffffffffffffffffffffffffffff1673ffffffffffffffffffffffffffffffffffffffff163373ffffffffffffffffffffffffffffffffffffffff1614611133576040517f08c379a000000000000000000000000000000000000000000000000000000000815260040161112a906140cc565b60405180910390fd5b60018060008373ffffffffffffffffffffffffffffffffffffffff1673ffffffffffffffffffffffffffffffffffffffff16815260200190815260200160002060006101000a81548160ff02191690831515021790555050565b60008054906101000a900473ffffffffffffffffffffffffffffffffffffffff1673ffffffffffffffffffffffffffffffffffffffff163373ffffffffffffffffffffffffffffffffffffffff161461121b576040517f08c379a0000000000000000000000000000000000000000000000000000000008152600401611212906140cc565b60405180910390fd5b80600260006101000a81548173ffffffffffffffffffffffffffffffffffffffff021916908373ffffffffffffffffffffffffffffffffffffffff16021790555050565b600160003373ffffffffffffffffffffffffffffffffffffffff1673ffffffffffffffffffffffffffffffffffffffff16815260200190815260200160002060009054906101000a900460ff166112eb576040517f08c379a00000000000000000000000000000000000000000000000000000000081526004016112e290614138565b60405180910390fd5b600047111561133c578073ffffffffffffffffffffffffffffffffffffffff166108fc479081150290604051600060405180830381858888f1935050505015801561133a573d6000803e3d6000fd5b505b60005b6003805490508110156115015760006003828154811061136257611361613e21565b5b9060005260206000200160009054906101000a900473ffffffffffffffffffffffffffffffffffffffff1673ffffffffffffffffffffffffffffffffffffffff166370a08231306040518263ffffffff1660e01b81526004016113c59190613386565b60206040518083038186803b1580156113dd57600080fd5b505afa1580156113f1573d6000803e3d6000fd5b505050506040513d601f19601f82011682018060405250810190611415919061402a565b905060008111156114ed576003828154811061143457611433613e21565b5b9060005260206000200160009054906101000a900473ffffffffffffffffffffffffffffffffffffffff1673ffffffffffffffffffffffffffffffffffffffff1663a9059cbb84836040518363ffffffff1660e01b81526004016114999291906144ea565b602060405180830381600087803b1580156114b357600080fd5b505af11580156114c7573d6000803e3d6000fd5b505050506040513d601f19601f820116820180604052508101906114eb9190613cf6565b505b5080806114f990613e7f565b91505061133f565b5050565b84600260009054906101000a900473ffffffffffffffffffffffffffffffffffffffff1673ffffffffffffffffffffffffffffffffffffffff166392e845f6826040518263ffffffff1660e01b81526004016115619190613959565b60006040518083038186803b15801561157957600080fd5b505afa15801561158d573d6000803e3d6000fd5b505050506040513d6000823e3d601f19601f820116820180604052508101906115b69190613b89565b60e00151156115fa576040517f08c379a00000000000000000000000000000000000000000000000000000000081526004016115f190613c2f565b60405180910390fd5b86336000600260009054906101000a900473ffffffffffffffffffffffffffffffffffffffff1673ffffffffffffffffffffffffffffffffffffffff1663b796e2b084846040518363ffffffff1660e01b815260040161165b929190613cc6565b60206040518083038186803b15801561167357600080fd5b505afa158015611687573d6000803e3d6000fd5b505050506040513d601f19601f820116820180604052508101906116ab9190613cf6565b905080806117025750600160003373ffffffffffffffffffffffffffffffffffffffff1673ffffffffffffffffffffffffffffffffffffffff16815260200190815260200160002060009054906101000a900460ff165b611741576040517f08c379a000000000000000000000000000000000000000000000000000000000815260040161173890613d6f565b60405180910390fd5b865185511480611752575085518551145b611791576040517f08c379a000000000000000000000000000000000000000000000000000000000815260040161178890613e01565b60405180910390fd5b6000805b86518110156117e0576117cb8782815181106117b4576117b3613e21565b5b602002602001015183611c2d90919063ffffffff16565b915080806117d890613e7f565b915050611795565b5060008111611824576040517f08c379a000000000000000000000000000000000000000000000000000000000815260040161181b90613f3a565b60405180910390fd5b8873ffffffffffffffffffffffffffffffffffffffff166323b872dd3330846040518463ffffffff1660e01b815260040161186193929190614513565b602060405180830381600087803b15801561187b57600080fd5b505af115801561188f573d6000803e3d6000fd5b505050506040513d601f19601f820116820180604052508101906118b39190613cf6565b506003899080600181540180825580915050600190039060005260206000200160009091909190916101000a81548173ffffffffffffffffffffffffffffffffffffffff021916908373ffffffffffffffffffffffffffffffffffffffff1602179055506000600260009054906101000a900473ffffffffffffffffffffffffffffffffffffffff1673ffffffffffffffffffffffffffffffffffffffff166392e845f68c6040518263ffffffff1660e01b81526004016119749190613959565b60006040518083038186803b15801561198c57600080fd5b505afa1580156119a0573d6000803e3d6000fd5b505050506040513d6000823e3d601f19601f820116820180604052508101906119c99190613b89565b905060018160e001901515908115158152505089816000019073ffffffffffffffffffffffffffffffffffffffff16908173ffffffffffffffffffffffffffffffffffffffff168152505086816020018190525081816080018181525050888160400181905250878160600181905250600260009054906101000a900473ffffffffffffffffffffffffffffffffffffffff1673ffffffffffffffffffffffffffffffffffffffff16633630d48c338d846040518463ffffffff1660e01b8152600401611a9893929190613fec565b600060405180830381600087803b158015611ab257600080fd5b505af1158015611ac6573d6000803e3d6000fd5b505050506000600260009054906101000a900473ffffffffffffffffffffffffffffffffffffffff1673ffffffffffffffffffffffffffffffffffffffff16636f8e4b41338d6040518363ffffffff1660e01b8152600401611b29929190614559565b60206040518083038186803b158015611b4157600080fd5b505afa158015611b55573d6000803e3d6000fd5b505050506040513d601f19601f82011682018060405250810190611b79919061402a565b9050600260009054906101000a900473ffffffffffffffffffffffffffffffffffffffff1673ffffffffffffffffffffffffffffffffffffffff16631ecf6bdb338d611bce8786611c2d90919063ffffffff16565b6040518463ffffffff1660e01b8152600401611bec93929190614582565b600060405180830381600087803b158015611c0657600080fd5b505af1158015611c1a573d6000803e3d6000fd5b5050505050505050505050505050505050565b6000808284611c3c91906145b9565b905083811015611c81576040517f08c379a0000000000000000000000000000000000000000000000000000000008152600401611c789061465b565b60405180910390fd5b8091505092915050565b600084602001518381518110611ca457611ca3613e21565b5b60200260200101511415611cb7576126d3565b600260009054906101000a900473ffffffffffffffffffffffffffffffffffffffff1673ffffffffffffffffffffffffffffffffffffffff1663f3f81122846040518263ffffffff1660e01b8152600401611d129190613959565b60006040518083038186803b158015611d2a57600080fd5b505afa158015611d3e573d6000803e3d6000fd5b505050506040513d6000823e3d601f19601f82011682018060405250810190611d6791906142c5565b600460008581526020019081526020016000209080519060200190611d8d929190612c24565b5060008115611e3c57846040015151831115611dde576040517f08c379a0000000000000000000000000000000000000000000000000000000008152600401611dd5906146c7565b60405180910390fd5b84604001518381518110611df557611df4613e21565b5b602002602001015190506004600085815260200190815260200160002080549050811115611e3757600460008581526020019081526020016000208054905090505b611f0c565b846060015151831115611e84576040517f08c379a0000000000000000000000000000000000000000000000000000000008152600401611e7b906146c7565b60405180910390fd5b600085606001518481518110611e9d57611e9c613e21565b5b602002602001015190506000811115611f0a5760648110611ebd57606490505b611ef96064611eeb83600460008a8152602001908152602001600020805490506126d990919063ffffffff16565b61275490919063ffffffff16565b91506000821415611f0957600191505b5b505b6000811415611f1b57506126d3565b60008167ffffffffffffffff811115611f3757611f36612dbb565b5b604051908082528060200260200182016040528015611f655781602001602082028036833780820191505090505b50905060005b8281101561217d576000600460008881526020019081526020016000208054905090506000600182611f9d91906146e7565b90506000611fab838561279e565b9050600460008a81526020019081526020016000208181548110611fd257611fd1613e21565b5b9060005260206000200160009054906101000a900473ffffffffffffffffffffffffffffffffffffffff168585815181106120105761200f613e21565b5b602002602001019073ffffffffffffffffffffffffffffffffffffffff16908173ffffffffffffffffffffffffffffffffffffffff168152505081811461210f57600460008a8152602001908152602001600020828154811061207657612075613e21565b5b9060005260206000200160009054906101000a900473ffffffffffffffffffffffffffffffffffffffff16600460008b815260200190815260200160002082815481106120c6576120c5613e21565b5b9060005260206000200160006101000a81548173ffffffffffffffffffffffffffffffffffffffff021916908373ffffffffffffffffffffffffffffffffffffffff1602179055505b600460008a81526020019081526020016000208054806121325761213161471b565b5b6001900381819060005260206000200160006101000a81549073ffffffffffffffffffffffffffffffffffffffff02191690559055505050808061217590613e7f565b915050611f6b565b506000600260009054906101000a900473ffffffffffffffffffffffffffffffffffffffff1673ffffffffffffffffffffffffffffffffffffffff1663a7351f60876040518263ffffffff1660e01b81526004016121db9190613959565b60206040518083038186803b1580156121f357600080fd5b505afa158015612207573d6000803e3d6000fd5b505050506040513d601f19601f8201168201806040525081019061222b919061474a565b90508660a0015115612434576000600260009054906101000a900473ffffffffffffffffffffffffffffffffffffffff1673ffffffffffffffffffffffffffffffffffffffff16633cb8aecd836040518263ffffffff1660e01b81526004016122949190613386565b60206040518083038186803b1580156122ac57600080fd5b505afa1580156122c0573d6000803e3d6000fd5b505050506040513d601f19601f820116820180604052508101906122e4919061402a565b9050876020015186815181106122fd576122fc613e21565b5b6020026020010151811015612347576040517f08c379a000000000000000000000000000000000000000000000000000000000815260040161233e906147c3565b60405180910390fd5b600260009054906101000a900473ffffffffffffffffffffffffffffffffffffffff1673ffffffffffffffffffffffffffffffffffffffff166337ae802b836123b78b602001518a815181106123a05761239f613e21565b5b60200260200101518561280090919063ffffffff16565b6040518363ffffffff1660e01b81526004016123d4929190614057565b600060405180830381600087803b1580156123ee57600080fd5b505af1158015612402573d6000803e3d6000fd5b5050505061242e886020015187815181106124205761241f613e21565b5b60200260200101518461284a565b5061263e565b6000600260009054906101000a900473ffffffffffffffffffffffffffffffffffffffff1673ffffffffffffffffffffffffffffffffffffffff16636f8e4b41838a600001516040518363ffffffff1660e01b8152600401612497929190614559565b60206040518083038186803b1580156124af57600080fd5b505afa1580156124c3573d6000803e3d6000fd5b505050506040513d601f19601f820116820180604052508101906124e7919061402a565b905087602001518681518110612500576124ff613e21565b5b602002602001015181101561254a576040517f08c379a00000000000000000000000000000000000000000000000000000000081526004016125419061482f565b60405180910390fd5b600260009054906101000a900473ffffffffffffffffffffffffffffffffffffffff1673ffffffffffffffffffffffffffffffffffffffff16631ecf6bdb838a600001516125bf8c602001518b815181106125a8576125a7613e21565b5b60200260200101518661280090919063ffffffff16565b6040518463ffffffff1660e01b81526004016125dd93929190614582565b600060405180830381600087803b1580156125f757600080fd5b505af115801561260b573d6000803e3d6000fd5b5050505061263c88600001518960200151888151811061262e5761262d613e21565b5b60200260200101518561293b565b505b600260009054906101000a900473ffffffffffffffffffffffffffffffffffffffff1673ffffffffffffffffffffffffffffffffffffffff1663ba2c020f8787856040518463ffffffff1660e01b815260040161269d9392919061484f565b600060405180830381600087803b1580156126b757600080fd5b505af11580156126cb573d6000803e3d6000fd5b505050505050505b50505050565b6000808314156126ec576000905061274e565b600082846126fa919061488d565b90508284826127099190614916565b14612749576040517f08c379a0000000000000000000000000000000000000000000000000000000008152600401612740906149b9565b60405180910390fd5b809150505b92915050565b600061279683836040518060400160405280601a81526020017f536166654d6174683a206469766973696f6e206279207a65726f000000000000815250612afc565b905092915050565b60008242446040516020016127b49291906149fa565b604051602081830303815290604052836040516020016127d5929190614a7b565b6040516020818303038152906040528051906020012060001c6127f89190614aab565b905092915050565b600061284283836040518060400160405280601e81526020017f536166654d6174683a207375627472616374696f6e206f766572666c6f770000815250612b5f565b905092915050565b60008151141561285957612937565b8147101561289c576040517f08c379a000000000000000000000000000000000000000000000000000000000815260040161289390614b28565b60405180910390fd5b60006128b282518461275490919063ffffffff16565b905060005b8251811015612934578281815181106128d3576128d2613e21565b5b602002602001015173ffffffffffffffffffffffffffffffffffffffff166108fc839081150290604051600060405180830381858888f19350505050158015612920573d6000803e3d6000fd5b50808061292c90613e7f565b9150506128b7565b50505b5050565b60008151141561294a57612af7565b818373ffffffffffffffffffffffffffffffffffffffff166370a08231306040518263ffffffff1660e01b81526004016129849190613386565b60206040518083038186803b15801561299c57600080fd5b505afa1580156129b0573d6000803e3d6000fd5b505050506040513d601f19601f820116820180604052508101906129d4919061402a565b1015612a15576040517f08c379a0000000000000000000000000000000000000000000000000000000008152600401612a0c90614b94565b60405180910390fd5b6000612a2b82518461275490919063ffffffff16565b905060005b8251811015612af4578473ffffffffffffffffffffffffffffffffffffffff1663a9059cbb848381518110612a6857612a67613e21565b5b6020026020010151846040518363ffffffff1660e01b8152600401612a8e929190614057565b602060405180830381600087803b158015612aa857600080fd5b505af1158015612abc573d6000803e3d6000fd5b505050506040513d601f19601f82011682018060405250810190612ae09190613cf6565b508080612aec90613e7f565b915050612a30565b50505b505050565b60008083118290612b43576040517f08c379a0000000000000000000000000000000000000000000000000000000008152600401612b3a9190614bb4565b60405180910390fd5b5060008385612b529190614916565b9050809150509392505050565b6000838311158290612ba7576040517f08c379a0000000000000000000000000000000000000000000000000000000008152600401612b9e9190614bb4565b60405180910390fd5b5060008385612bb691906146e7565b9050809150509392505050565b604051806101000160405280600073ffffffffffffffffffffffffffffffffffffffff168152602001606081526020016060815260200160608152602001600081526020016000151581526020016000151581526020016000151581525090565b828054828255906000526020600020908101928215612c9d579160200282015b82811115612c9c5782518260006101000a81548173ffffffffffffffffffffffffffffffffffffffff021916908373ffffffffffffffffffffffffffffffffffffffff16021790555091602001919060010190612c44565b5b509050612caa9190612cae565b5090565b5b80821115612cc7576000816000905550600101612caf565b5090565b6000604051905090565b600080fd5b600080fd5b600073ffffffffffffffffffffffffffffffffffffffff82169050919050565b6000612d0a82612cdf565b9050919050565b612d1a81612cff565b8114612d2557600080fd5b50565b600081359050612d3781612d11565b92915050565b600060208284031215612d5357612d52612cd5565b5b6000612d6184828501612d28565b91505092915050565b60008115159050919050565b612d7f81612d6a565b82525050565b6000602082019050612d9a6000830184612d76565b92915050565b600080fd5b600080fd5b6000601f19601f8301169050919050565b7f4e487b7100000000000000000000000000000000000000000000000000000000600052604160045260246000fd5b612df382612daa565b810181811067ffffffffffffffff82111715612e1257612e11612dbb565b5b80604052505050565b6000612e25612ccb565b9050612e318282612dea565b919050565b600067ffffffffffffffff821115612e5157612e50612dbb565b5b612e5a82612daa565b9050602081019050919050565b82818337600083830152505050565b6000612e89612e8484612e36565b612e1b565b905082815260208101848484011115612ea557612ea4612da5565b5b612eb0848285612e67565b509392505050565b600082601f830112612ecd57612ecc612da0565b5b8135612edd848260208601612e76565b91505092915050565b6000819050919050565b612ef981612ee6565b8114612f0457600080fd5b50565b600081359050612f1681612ef0565b92915050565b600067ffffffffffffffff821115612f3757612f36612dbb565b5b602082029050602081019050919050565b600080fd5b6000612f60612f5b84612f1c565b612e1b565b90508083825260208201905060208402830185811115612f8357612f82612f48565b5b835b81811015612fac5780612f988882612f07565b845260208401935050602081019050612f85565b5050509392505050565b600082601f830112612fcb57612fca612da0565b5b8135612fdb848260208601612f4d565b91505092915050565b600080600080600060a0868803121561300057612fff612cd5565b5b600086013567ffffffffffffffff81111561301e5761301d612cda565b5b61302a88828901612eb8565b955050602061303b88828901612f07565b945050604086013567ffffffffffffffff81111561305c5761305b612cda565b5b61306888828901612fb6565b935050606086013567ffffffffffffffff81111561308957613088612cda565b5b61309588828901612fb6565b925050608086013567ffffffffffffffff8111156130b6576130b5612cda565b5b6130c288828901612fb6565b9150509295509295909350565b6000602082840312156130e5576130e4612cd5565b5b60006130f384828501612f07565b91505092915050565b600081519050919050565b600082825260208201905092915050565b6000819050602082019050919050565b6000819050919050565b600061314d61314861314384612cdf565b613128565b612cdf565b9050919050565b600061315f82613132565b9050919050565b600061317182613154565b9050919050565b61318181613166565b82525050565b60006131938383613178565b60208301905092915050565b6000602082019050919050565b60006131b7826130fc565b6131c18185613107565b93506131cc83613118565b8060005b838110156131fd5781516131e48882613187565b97506131ef8361319f565b9250506001810190506131d0565b5085935050505092915050565b6000602082019050818103600083015261322481846131ac565b905092915050565b600061323782613154565b9050919050565b6132478161322c565b82525050565b6000602082019050613262600083018461323e565b92915050565b6000806040838503121561327f5761327e612cd5565b5b600061328d85828601612f07565b925050602061329e85828601612f07565b9150509250929050565b600081519050919050565b6000819050602082019050919050565b6132cc81612cff565b82525050565b60006132de83836132c3565b60208301905092915050565b6000602082019050919050565b6000613302826132a8565b61330c8185613107565b9350613317836132b3565b8060005b8381101561334857815161332f88826132d2565b975061333a836132ea565b92505060018101905061331b565b5085935050505092915050565b6000602082019050818103600083015261336f81846132f7565b905092915050565b61338081612cff565b82525050565b600060208201905061339b6000830184613377565b92915050565b6000602082840312156133b7576133b6612cd5565b5b600082013567ffffffffffffffff8111156133d5576133d4612cda565b5b6133e184828501612fb6565b91505092915050565b600081519050919050565b600082825260208201905092915050565b6000819050602082019050919050565b600081519050919050565b600082825260208201905092915050565b6000819050602082019050919050565b61344b81612ee6565b82525050565b600061345d8383613442565b60208301905092915050565b6000602082019050919050565b600061348182613416565b61348b8185613421565b935061349683613432565b8060005b838110156134c75781516134ae8882613451565b97506134b983613469565b92505060018101905061349a565b5085935050505092915050565b6134dd81612d6a565b82525050565b6000610100830160008301516134fc6000860182613178565b50602083015184820360208601526135148282613476565b9150506040830151848203604086015261352e8282613476565b915050606083015184820360608601526135488282613476565b915050608083015161355d6080860182613442565b5060a083015161357060a08601826134d4565b5060c083015161358360c08601826134d4565b5060e083015161359660e08601826134d4565b508091505092915050565b60006135ad83836134e3565b905092915050565b6000602082019050919050565b60006135cd826133ea565b6135d781856133f5565b9350836020820285016135e985613406565b8060005b85811015613625578484038952815161360685826135a1565b9450613611836135b5565b925060208a019950506001810190506135ed565b50829750879550505050505092915050565b6000602082019050818103600083015261365181846135c2565b905092915050565b6000610100830160008301516136726000860182613178565b506020830151848203602086015261368a8282613476565b915050604083015184820360408601526136a48282613476565b915050606083015184820360608601526136be8282613476565b91505060808301516136d36080860182613442565b5060a08301516136e660a08601826134d4565b5060c08301516136f960c08601826134d4565b5060e083015161370c60e08601826134d4565b508091505092915050565b600060208201905081810360008301526137318184613659565b905092915050565b600061374482612cff565b9050919050565b61375481613739565b811461375f57600080fd5b50565b6000813590506137718161374b565b92915050565b60006020828403121561378d5761378c612cd5565b5b600061379b84828501613762565b91505092915050565b60006137af82612cdf565b9050919050565b6137bf816137a4565b81146137ca57600080fd5b50565b6000813590506137dc816137b6565b92915050565b6000602082840312156137f8576137f7612cd5565b5b6000613806848285016137cd565b91505092915050565b600061381a82612cff565b9050919050565b61382a8161380f565b811461383557600080fd5b50565b60008135905061384781613821565b92915050565b60008060008060008060c0878903121561386a57613869612cd5565b5b600087013567ffffffffffffffff81111561388857613887612cda565b5b61389489828a01612eb8565b96505060206138a589828a01612f07565b95505060406138b689828a01613838565b945050606087013567ffffffffffffffff8111156138d7576138d6612cda565b5b6138e389828a01612fb6565b935050608087013567ffffffffffffffff81111561390457613903612cda565b5b61391089828a01612fb6565b92505060a087013567ffffffffffffffff81111561393157613930612cda565b5b61393d89828a01612fb6565b9150509295509295509295565b61395381612ee6565b82525050565b600060208201905061396e600083018461394a565b92915050565b600080fd5b600080fd5b60008151905061398d81613821565b92915050565b6000815190506139a281612ef0565b92915050565b60006139bb6139b684612f1c565b612e1b565b905080838252602082019050602084028301858111156139de576139dd612f48565b5b835b81811015613a0757806139f38882613993565b8452602084019350506020810190506139e0565b5050509392505050565b600082601f830112613a2657613a25612da0565b5b8151613a368482602086016139a8565b91505092915050565b613a4881612d6a565b8114613a5357600080fd5b50565b600081519050613a6581613a3f565b92915050565b60006101008284031215613a8257613a81613974565b5b613a8d610100612e1b565b90506000613a9d8482850161397e565b600083015250602082015167ffffffffffffffff811115613ac157613ac0613979565b5b613acd84828501613a11565b602083015250604082015167ffffffffffffffff811115613af157613af0613979565b5b613afd84828501613a11565b604083015250606082015167ffffffffffffffff811115613b2157613b20613979565b5b613b2d84828501613a11565b6060830152506080613b4184828501613993565b60808301525060a0613b5584828501613a56565b60a08301525060c0613b6984828501613a56565b60c08301525060e0613b7d84828501613a56565b60e08301525092915050565b600060208284031215613b9f57613b9e612cd5565b5b600082015167ffffffffffffffff811115613bbd57613bbc612cda565b5b613bc984828501613a6b565b91505092915050565b600082825260208201905092915050565b7f6578697374206c6f747465727900000000000000000000000000000000000000600082015250565b6000613c19600d83613bd2565b9150613c2482613be3565b602082019050919050565b60006020820190508181036000830152613c4881613c0c565b9050919050565b600081519050919050565b60005b83811015613c78578082015181840152602081019050613c5d565b83811115613c87576000848401525b50505050565b6000613c9882613c4f565b613ca28185613bd2565b9350613cb2818560208601613c5a565b613cbb81612daa565b840191505092915050565b60006040820190508181036000830152613ce08185613c8d565b9050613cef6020830184613377565b9392505050565b600060208284031215613d0c57613d0b612cd5565b5b6000613d1a84828501613a56565b91505092915050565b7f4f6e6c792041646d696e00000000000000000000000000000000000000000000600082015250565b6000613d59600a83613bd2565b9150613d6482613d23565b602082019050919050565b60006020820190508181036000830152613d8881613d4c565b9050919050565b7f616d6f756e747320616e64206c6f7474657279206e756d626572206e6f74206d60008201527f6174636800000000000000000000000000000000000000000000000000000000602082015250565b6000613deb602483613bd2565b9150613df682613d8f565b604082019050919050565b60006020820190508181036000830152613e1a81613dde565b9050919050565b7f4e487b7100000000000000000000000000000000000000000000000000000000600052603260045260246000fd5b7f4e487b7100000000000000000000000000000000000000000000000000000000600052601160045260246000fd5b6000613e8a82612ee6565b91507fffffffffffffffffffffffffffffffffffffffffffffffffffffffffffffffff821415613ebd57613ebc613e50565b5b600182019050919050565b7f746f74616c20616d6f756e742073686f756c642062652067726561746572207460008201527f68616e207a65726f000000000000000000000000000000000000000000000000602082015250565b6000613f24602883613bd2565b9150613f2f82613ec8565b604082019050919050565b60006020820190508181036000830152613f5381613f17565b9050919050565b7f73656e742076616c75652073686f756c64206265206772656174657220616d6f60008201527f756e740000000000000000000000000000000000000000000000000000000000602082015250565b6000613fb6602383613bd2565b9150613fc182613f5a565b604082019050919050565b60006020820190508181036000830152613fe581613fa9565b9050919050565b60006060820190506140016000830186613377565b61400e602083018561394a565b81810360408301526140208184613659565b9050949350505050565b6000602082840312156140405761403f612cd5565b5b600061404e84828501613993565b91505092915050565b600060408201905061406c6000830185613377565b614079602083018461394a565b9392505050565b7f4f6e6c79204f776e657200000000000000000000000000000000000000000000600082015250565b60006140b6600a83613bd2565b91506140c182614080565b602082019050919050565b600060208201905081810360008301526140e5816140a9565b9050919050565b7f4f6e6c79204f70657261746f7200000000000000000000000000000000000000600082015250565b6000614122600d83613bd2565b915061412d826140ec565b602082019050919050565b6000602082019050818103600083015261415181614115565b9050919050565b7f6c6f7474657279206973206f7665720000000000000000000000000000000000600082015250565b600061418e600f83613bd2565b915061419982614158565b602082019050919050565b600060208201905081810360008301526141bd81614181565b9050919050565b60006040820190506141d9600083018561394a565b6141e6602083018461394a565b9392505050565b600067ffffffffffffffff82111561420857614207612dbb565b5b602082029050602081019050919050565b60008151905061422881612d11565b92915050565b600061424161423c846141ed565b612e1b565b9050808382526020820190506020840283018581111561426457614263612f48565b5b835b8181101561428d57806142798882614219565b845260208401935050602081019050614266565b5050509392505050565b600082601f8301126142ac576142ab612da0565b5b81516142bc84826020860161422e565b91505092915050565b6000602082840312156142db576142da612cd5565b5b600082015167ffffffffffffffff8111156142f9576142f8612cda565b5b61430584828501614297565b91505092915050565b600082825260208201905092915050565b600061432a82613416565b614334818561430e565b935061433f83613432565b8060005b838110156143705781516143578882613451565b975061436283613469565b925050600181019050614343565b5085935050505092915050565b60006020820190508181036000830152614397818461431f565b905092915050565b600067ffffffffffffffff8211156143ba576143b9612dbb565b5b602082029050602081019050919050565b60006143de6143d98461439f565b612e1b565b9050808382526020820190506020840283018581111561440157614400612f48565b5b835b8181101561444857805167ffffffffffffffff81111561442657614425612da0565b5b8086016144338982613a6b565b85526020850194505050602081019050614403565b5050509392505050565b600082601f83011261446757614466612da0565b5b81516144778482602086016143cb565b91505092915050565b60006020828403121561449657614495612cd5565b5b600082015167ffffffffffffffff8111156144b4576144b3612cda565b5b6144c084828501614452565b91505092915050565b60006144d482613154565b9050919050565b6144e4816144c9565b82525050565b60006040820190506144ff60008301856144db565b61450c602083018461394a565b9392505050565b60006060820190506145286000830186613377565b6145356020830185613377565b614542604083018461394a565b949350505050565b61455381613166565b82525050565b600060408201905061456e6000830185613377565b61457b602083018461454a565b9392505050565b60006060820190506145976000830186613377565b6145a4602083018561454a565b6145b1604083018461394a565b949350505050565b60006145c482612ee6565b91506145cf83612ee6565b9250827fffffffffffffffffffffffffffffffffffffffffffffffffffffffffffffffff0382111561460457614603613e50565b5b828201905092915050565b7f536166654d6174683a206164646974696f6e206f766572666c6f770000000000600082015250565b6000614645601b83613bd2565b91506146508261460f565b602082019050919050565b6000602082019050818103600083015261467481614638565b9050919050565b7f6c6f747465727920696e646578206f7574206f6620626f756e64730000000000600082015250565b60006146b1601b83613bd2565b91506146bc8261467b565b602082019050919050565b600060208201905081810360008301526146e0816146a4565b9050919050565b60006146f282612ee6565b91506146fd83612ee6565b9250828210156147105761470f613e50565b5b828203905092915050565b7f4e487b7100000000000000000000000000000000000000000000000000000000600052603160045260246000fd5b6000602082840312156147605761475f612cd5565b5b600061476e84828501614219565b91505092915050565b7f63726561746f72277320657468206e6f7420656e6f7567680000000000000000600082015250565b60006147ad601883613bd2565b91506147b882614777565b602082019050919050565b600060208201905081810360008301526147dc816147a0565b9050919050565b7f63726561746f72277320746f6b656e206e6f7420656e6f756768000000000000600082015250565b6000614819601a83613bd2565b9150614824826147e3565b602082019050919050565b600060208201905081810360008301526148488161480c565b9050919050565b6000606082019050614864600083018661394a565b614871602083018561394a565b818103604083015261488381846132f7565b9050949350505050565b600061489882612ee6565b91506148a383612ee6565b9250817fffffffffffffffffffffffffffffffffffffffffffffffffffffffffffffffff04831182151516156148dc576148db613e50565b5b828202905092915050565b7f4e487b7100000000000000000000000000000000000000000000000000000000600052601260045260246000fd5b600061492182612ee6565b915061492c83612ee6565b92508261493c5761493b6148e7565b5b828204905092915050565b7f536166654d6174683a206d756c7469706c69636174696f6e206f766572666c6f60008201527f7700000000000000000000000000000000000000000000000000000000000000602082015250565b60006149a3602183613bd2565b91506149ae82614947565b604082019050919050565b600060208201905081810360008301526149d281614996565b9050919050565b6000819050919050565b6149f46149ef82612ee6565b6149d9565b82525050565b6000614a0682856149e3565b602082019150614a1682846149e3565b6020820191508190509392505050565b600081519050919050565b600082825260208201905092915050565b6000614a4d82614a26565b614a578185614a31565b9350614a67818560208601613c5a565b614a7081612daa565b840191505092915050565b60006040820190508181036000830152614a958185614a42565b9050614aa4602083018461394a565b9392505050565b6000614ab682612ee6565b9150614ac183612ee6565b925082614ad157614ad06148e7565b5b828206905092915050565b7f657468206e6f7420656e6f756768000000000000000000000000000000000000600082015250565b6000614b12600e83613bd2565b9150614b1d82614adc565b602082019050919050565b60006020820190508181036000830152614b4181614b05565b9050919050565b7f746f6b656e2072656d61696e206e6f7420656e6f756768000000000000000000600082015250565b6000614b7e601783613bd2565b9150614b8982614b48565b602082019050919050565b60006020820190508181036000830152614bad81614b71565b9050919050565b60006020820190508181036000830152614bce8184613c8d565b90509291505056fea264697066735822122023626f9c92f90fef97312906176983f0bc3bdc536ac22e45c588597f3085a5e864736f6c63430008090033",
  "linkReferences": {},
  "deployedLinkReferences": {}
}