{
  "address": "0x32390820D2603e9cb2d98fc831C5ded6697c8b53",
  "abi": [
    {
      "inputs": [
        {
          "internalType": "string",
          "name": "_name",
          "type": "string"
        },
        {
          "internalType": "string",
          "name": "_symbol",
          "type": "string"
        }
      ],
      "stateMutability": "nonpayable",
      "type": "constructor"
    },
    {
      "anonymous": false,
      "inputs": [
        {
          "indexed": true,
          "internalType": "address",
          "name": "owner",
          "type": "address"
        },
        {
          "indexed": true,
          "internalType": "address",
          "name": "spender",
          "type": "address"
        },
        {
          "indexed": false,
          "internalType": "uint256",
          "name": "value",
          "type": "uint256"
        }
      ],
      "name": "Approval",
      "type": "event"
    },
    {
      "anonymous": false,
      "inputs": [
        {
          "indexed": true,
          "internalType": "address",
          "name": "from",
          "type": "address"
        },
        {
          "indexed": true,
          "internalType": "address",
          "name": "to",
          "type": "address"
        },
        {
          "indexed": false,
          "internalType": "uint256",
          "name": "value",
          "type": "uint256"
        }
      ],
      "name": "Transfer",
      "type": "event"
    },
    {
      "inputs": [
        {
          "internalType": "address",
          "name": "_operator",
          "type": "address"
        }
      ],
      "name": "addOperator",
      "outputs": [],
      "stateMutability": "nonpayable",
      "type": "function"
    },
    {
      "inputs": [
        {
          "internalType": "address",
          "name": "owner",
          "type": "address"
        },
        {
          "internalType": "address",
          "name": "spender",
          "type": "address"
        }
      ],
      "name": "allowance",
      "outputs": [
        {
          "internalType": "uint256",
          "name": "",
          "type": "uint256"
        }
      ],
      "stateMutability": "view",
      "type": "function"
    },
    {
      "inputs": [
        {
          "internalType": "address",
          "name": "spender",
          "type": "address"
        },
        {
          "internalType": "uint256",
          "name": "amount",
          "type": "uint256"
        }
      ],
      "name": "approve",
      "outputs": [
        {
          "internalType": "bool",
          "name": "",
          "type": "bool"
        }
      ],
      "stateMutability": "nonpayable",
      "type": "function"
    },
    {
      "inputs": [
        {
          "internalType": "address",
          "name": "account",
          "type": "address"
        }
      ],
      "name": "balanceOf",
      "outputs": [
        {
          "internalType": "uint256",
          "name": "",
          "type": "uint256"
        }
      ],
      "stateMutability": "view",
      "type": "function"
    },
    {
      "inputs": [
        {
          "internalType": "address",
          "name": "account",
          "type": "address"
        },
        {
          "internalType": "uint256",
          "name": "amount",
          "type": "uint256"
        }
      ],
      "name": "burn",
      "outputs": [],
      "stateMutability": "nonpayable",
      "type": "function"
    },
    {
      "inputs": [],
      "name": "decimals",
      "outputs": [
        {
          "internalType": "uint8",
          "name": "",
          "type": "uint8"
        }
      ],
      "stateMutability": "view",
      "type": "function"
    },
    {
      "inputs": [
        {
          "internalType": "address",
          "name": "spender",
          "type": "address"
        },
        {
          "internalType": "uint256",
          "name": "subtractedValue",
          "type": "uint256"
        }
      ],
      "name": "decreaseAllowance",
      "outputs": [
        {
          "internalType": "bool",
          "name": "",
          "type": "bool"
        }
      ],
      "stateMutability": "nonpayable",
      "type": "function"
    },
    {
      "inputs": [
        {
          "internalType": "address",
          "name": "spender",
          "type": "address"
        },
        {
          "internalType": "uint256",
          "name": "addedValue",
          "type": "uint256"
        }
      ],
      "name": "increaseAllowance",
      "outputs": [
        {
          "internalType": "bool",
          "name": "",
          "type": "bool"
        }
      ],
      "stateMutability": "nonpayable",
      "type": "function"
    },
    {
      "inputs": [
        {
          "internalType": "address",
          "name": "account",
          "type": "address"
        },
        {
          "internalType": "uint256",
          "name": "amount",
          "type": "uint256"
        }
      ],
      "name": "mint",
      "outputs": [],
      "stateMutability": "nonpayable",
      "type": "function"
    },
    {
      "inputs": [],
      "name": "name",
      "outputs": [
        {
          "internalType": "string",
          "name": "",
          "type": "string"
        }
      ],
      "stateMutability": "view",
      "type": "function"
    },
    {
      "inputs": [
        {
          "internalType": "address",
          "name": "",
          "type": "address"
        }
      ],
      "name": "operators",
      "outputs": [
        {
          "internalType": "bool",
          "name": "",
          "type": "bool"
        }
      ],
      "stateMutability": "view",
      "type": "function"
    },
    {
      "inputs": [],
      "name": "owner",
      "outputs": [
        {
          "internalType": "address",
          "name": "",
          "type": "address"
        }
      ],
      "stateMutability": "view",
      "type": "function"
    },
    {
      "inputs": [],
      "name": "symbol",
      "outputs": [
        {
          "internalType": "string",
          "name": "",
          "type": "string"
        }
      ],
      "stateMutability": "view",
      "type": "function"
    },
    {
      "inputs": [],
      "name": "totalSupply",
      "outputs": [
        {
          "internalType": "uint256",
          "name": "",
          "type": "uint256"
        }
      ],
      "stateMutability": "view",
      "type": "function"
    },
    {
      "inputs": [
        {
          "internalType": "address",
          "name": "recipient",
          "type": "address"
        },
        {
          "internalType": "uint256",
          "name": "amount",
          "type": "uint256"
        }
      ],
      "name": "transfer",
      "outputs": [
        {
          "internalType": "bool",
          "name": "",
          "type": "bool"
        }
      ],
      "stateMutability": "nonpayable",
      "type": "function"
    },
    {
      "inputs": [
        {
          "internalType": "address",
          "name": "sender",
          "type": "address"
        },
        {
          "internalType": "address",
          "name": "recipient",
          "type": "address"
        },
        {
          "internalType": "uint256",
          "name": "amount",
          "type": "uint256"
        }
      ],
      "name": "transferFrom",
      "outputs": [
        {
          "internalType": "bool",
          "name": "",
          "type": "bool"
        }
      ],
      "stateMutability": "nonpayable",
      "type": "function"
    }
  ],
  "transactionHash": "0x4d1ccd71bd0f09e8dbec17137e8732091dcf17a586e0fa25df8e102aa9cd7aa2",
  "args": [
    "QuizToken",
    "QZT"
  ],
  "solcInputHash": "bcbe050bcf334f2bc70ef734d813584d",
  "bytecode": "0x60806040523480156200001157600080fd5b50604051620013d3380380620013d3833981016040819052620000349162000224565b8151829082906200004d906003906020850190620000b1565b50805162000063906004906020840190620000b1565b50506005805460126001600160a81b03199091166101003390810291909117821783556000908152600660205260409020805460ff19908116600117909155825416179055505050620002cb565b828054620000bf906200028e565b90600052602060002090601f016020900481019282620000e357600085556200012e565b82601f10620000fe57805160ff19168380011785556200012e565b828001600101855582156200012e579182015b828111156200012e57825182559160200191906001019062000111565b506200013c92915062000140565b5090565b5b808211156200013c576000815560010162000141565b634e487b7160e01b600052604160045260246000fd5b600082601f8301126200017f57600080fd5b81516001600160401b03808211156200019c576200019c62000157565b604051601f8301601f19908116603f01168101908282118183101715620001c757620001c762000157565b81604052838152602092508683858801011115620001e457600080fd5b600091505b83821015620002085785820183015181830184015290820190620001e9565b838211156200021a5760008385830101525b9695505050505050565b600080604083850312156200023857600080fd5b82516001600160401b03808211156200025057600080fd5b6200025e868387016200016d565b935060208501519150808211156200027557600080fd5b5062000284858286016200016d565b9150509250929050565b600181811c90821680620002a357607f821691505b60208210811415620002c557634e487b7160e01b600052602260045260246000fd5b50919050565b6110f880620002db6000396000f3fe608060405234801561001057600080fd5b50600436106101005760003560e01c806370a08231116100975780639dc29fac116100665780639dc29fac14610266578063a457c2d714610279578063a9059cbb1461028c578063dd62ed3e1461029f57600080fd5b806370a08231146101cb5780638da5cb5b1461020157806395d89b411461024b5780639870d7fe1461025357600080fd5b806323b872dd116100d357806323b872dd1461017b578063313ce5671461018e57806339509351146101a357806340c10f19146101b657600080fd5b806306fdde0314610105578063095ea7b31461012357806313e7c9d81461014657806318160ddd14610169575b600080fd5b61010d6102e5565b60405161011a9190610e2b565b60405180910390f35b610136610131366004610ec7565b610377565b604051901515815260200161011a565b610136610154366004610ef1565b60066020526000908152604090205460ff1681565b6002545b60405190815260200161011a565b610136610189366004610f0c565b61038d565b60055460405160ff909116815260200161011a565b6101366101b1366004610ec7565b610403565b6101c96101c4366004610ec7565b610446565b005b61016d6101d9366004610ef1565b73ffffffffffffffffffffffffffffffffffffffff1660009081526020819052604090205490565b60055461022690610100900473ffffffffffffffffffffffffffffffffffffffff1681565b60405173ffffffffffffffffffffffffffffffffffffffff909116815260200161011a565b61010d6104d2565b6101c9610261366004610ef1565b6104e1565b6101c9610274366004610ec7565b6105b6565b610136610287366004610ec7565b610639565b61013661029a366004610ec7565b610695565b61016d6102ad366004610f48565b73ffffffffffffffffffffffffffffffffffffffff918216600090815260016020908152604080832093909416825291909152205490565b6060600380546102f490610f7b565b80601f016020809104026020016040519081016040528092919081815260200182805461032090610f7b565b801561036d5780601f106103425761010080835404028352916020019161036d565b820191906000526020600020905b81548152906001019060200180831161035057829003601f168201915b5050505050905090565b60006103843384846106a2565b50600192915050565b600061039a848484610856565b6103f984336103f4856040518060600160405280602881526020016110766028913973ffffffffffffffffffffffffffffffffffffffff8a1660009081526001602090815260408083203384529091529020549190610a80565b6106a2565b5060019392505050565b33600081815260016020908152604080832073ffffffffffffffffffffffffffffffffffffffff8716845290915281205490916103849185906103f49086610ad4565b3360009081526006602052604090205460ff166104c4576040517f08c379a000000000000000000000000000000000000000000000000000000000815260206004820152600b60248201527f6e6f7420616c6c6f77656400000000000000000000000000000000000000000060448201526064015b60405180910390fd5b6104ce8282610b54565b5050565b6060600480546102f490610f7b565b600554610100900473ffffffffffffffffffffffffffffffffffffffff163314610567576040517f08c379a000000000000000000000000000000000000000000000000000000000815260206004820152600a60248201527f4f6e6c79204f776e65720000000000000000000000000000000000000000000060448201526064016104bb565b73ffffffffffffffffffffffffffffffffffffffff16600090815260066020526040902080547fffffffffffffffffffffffffffffffffffffffffffffffffffffffffffffff00166001179055565b3360009081526006602052604090205460ff1661062f576040517f08c379a000000000000000000000000000000000000000000000000000000000815260206004820152600b60248201527f6e6f7420616c6c6f77656400000000000000000000000000000000000000000060448201526064016104bb565b6104ce8282610c74565b600061038433846103f48560405180606001604052806025815260200161109e6025913933600090815260016020908152604080832073ffffffffffffffffffffffffffffffffffffffff8d1684529091529020549190610a80565b6000610384338484610856565b73ffffffffffffffffffffffffffffffffffffffff8316610744576040517f08c379a0000000000000000000000000000000000000000000000000000000008152602060048201526024808201527f45524332303a20617070726f76652066726f6d20746865207a65726f2061646460448201527f726573730000000000000000000000000000000000000000000000000000000060648201526084016104bb565b73ffffffffffffffffffffffffffffffffffffffff82166107e7576040517f08c379a000000000000000000000000000000000000000000000000000000000815260206004820152602260248201527f45524332303a20617070726f766520746f20746865207a65726f20616464726560448201527f737300000000000000000000000000000000000000000000000000000000000060648201526084016104bb565b73ffffffffffffffffffffffffffffffffffffffff83811660008181526001602090815260408083209487168084529482529182902085905590518481527f8c5be1e5ebec7d5bd14f71427d1e84f3dd0314c0f7b2291e5b200ac8c7c3b92591015b60405180910390a3505050565b73ffffffffffffffffffffffffffffffffffffffff83166108f9576040517f08c379a000000000000000000000000000000000000000000000000000000000815260206004820152602560248201527f45524332303a207472616e736665722066726f6d20746865207a65726f20616460448201527f647265737300000000000000000000000000000000000000000000000000000060648201526084016104bb565b73ffffffffffffffffffffffffffffffffffffffff821661099c576040517f08c379a000000000000000000000000000000000000000000000000000000000815260206004820152602360248201527f45524332303a207472616e7366657220746f20746865207a65726f206164647260448201527f657373000000000000000000000000000000000000000000000000000000000060648201526084016104bb565b6109e6816040518060600160405280602681526020016110506026913973ffffffffffffffffffffffffffffffffffffffff86166000908152602081905260409020549190610a80565b73ffffffffffffffffffffffffffffffffffffffff8085166000908152602081905260408082209390935590841681522054610a229082610ad4565b73ffffffffffffffffffffffffffffffffffffffff8381166000818152602081815260409182902094909455518481529092918616917fddf252ad1be2c89b69c2b068fc378daa952ba7f163c4a11628f55a4df523b3ef9101610849565b60008184841115610abe576040517f08c379a00000000000000000000000000000000000000000000000000000000081526004016104bb9190610e2b565b506000610acb8486610ffe565b95945050505050565b600080610ae18385611015565b905083811015610b4d576040517f08c379a000000000000000000000000000000000000000000000000000000000815260206004820152601b60248201527f536166654d6174683a206164646974696f6e206f766572666c6f77000000000060448201526064016104bb565b9392505050565b73ffffffffffffffffffffffffffffffffffffffff8216610bd1576040517f08c379a000000000000000000000000000000000000000000000000000000000815260206004820152601f60248201527f45524332303a206d696e7420746f20746865207a65726f20616464726573730060448201526064016104bb565b600254600090610be19083610ad4565b600281905573ffffffffffffffffffffffffffffffffffffffff8416600090815260208190526040902054909150610c199083610ad4565b73ffffffffffffffffffffffffffffffffffffffff8416600081815260208181526040808320949094559251858152919290917fddf252ad1be2c89b69c2b068fc378daa952ba7f163c4a11628f55a4df523b3ef9101610849565b73ffffffffffffffffffffffffffffffffffffffff8216610d17576040517f08c379a000000000000000000000000000000000000000000000000000000000815260206004820152602160248201527f45524332303a206275726e2066726f6d20746865207a65726f2061646472657360448201527f730000000000000000000000000000000000000000000000000000000000000060648201526084016104bb565b610d618160405180606001604052806022815260200161102e6022913973ffffffffffffffffffffffffffffffffffffffff85166000908152602081905260409020549190610a80565b73ffffffffffffffffffffffffffffffffffffffff8316600090815260208190526040902055600254610d949082610de9565b60025560405181815260009073ffffffffffffffffffffffffffffffffffffffff8416907fddf252ad1be2c89b69c2b068fc378daa952ba7f163c4a11628f55a4df523b3ef9060200160405180910390a35050565b6000610b4d83836040518060400160405280601e81526020017f536166654d6174683a207375627472616374696f6e206f766572666c6f770000815250610a80565b600060208083528351808285015260005b81811015610e5857858101830151858201604001528201610e3c565b81811115610e6a576000604083870101525b50601f017fffffffffffffffffffffffffffffffffffffffffffffffffffffffffffffffe016929092016040019392505050565b803573ffffffffffffffffffffffffffffffffffffffff81168114610ec257600080fd5b919050565b60008060408385031215610eda57600080fd5b610ee383610e9e565b946020939093013593505050565b600060208284031215610f0357600080fd5b610b4d82610e9e565b600080600060608486031215610f2157600080fd5b610f2a84610e9e565b9250610f3860208501610e9e565b9150604084013590509250925092565b60008060408385031215610f5b57600080fd5b610f6483610e9e565b9150610f7260208401610e9e565b90509250929050565b600181811c90821680610f8f57607f821691505b60208210811415610fc9577f4e487b7100000000000000000000000000000000000000000000000000000000600052602260045260246000fd5b50919050565b7f4e487b7100000000000000000000000000000000000000000000000000000000600052601160045260246000fd5b60008282101561101057611010610fcf565b500390565b6000821982111561102857611028610fcf565b50019056fe45524332303a206275726e20616d6f756e7420657863656564732062616c616e636545524332303a207472616e7366657220616d6f756e7420657863656564732062616c616e636545524332303a207472616e7366657220616d6f756e74206578636565647320616c6c6f77616e636545524332303a2064656372656173656420616c6c6f77616e63652062656c6f77207a65726fa264697066735822122025c6d723589ff62de9971f14a104af051a82173f97f736adccbffc670eaaeece64736f6c63430008090033",
  "devdoc": {
    "kind": "dev",
    "methods": {},
    "version": 1
  },
  "userdoc": {
    "kind": "user",
    "methods": {},
    "version": 1
  },
  "storageLayout": {
    "storage": [
      {
        "astId": 288,
        "contract": "src/contracts/unlimitedtoken.sol:UnlimitedToken",
        "label": "_balances",
        "offset": 0,
        "slot": "0",
        "type": "t_mapping(t_address,t_uint256)"
      },
      {
        "astId": 294,
        "contract": "src/contracts/unlimitedtoken.sol:UnlimitedToken",
        "label": "_allowances",
        "offset": 0,
        "slot": "1",
        "type": "t_mapping(t_address,t_mapping(t_address,t_uint256))"
      },
      {
        "astId": 296,
        "contract": "src/contracts/unlimitedtoken.sol:UnlimitedToken",
        "label": "_totalSupply",
        "offset": 0,
        "slot": "2",
        "type": "t_uint256"
      },
      {
        "astId": 298,
        "contract": "src/contracts/unlimitedtoken.sol:UnlimitedToken",
        "label": "_name",
        "offset": 0,
        "slot": "3",
        "type": "t_string_storage"
      },
      {
        "astId": 300,
        "contract": "src/contracts/unlimitedtoken.sol:UnlimitedToken",
        "label": "_symbol",
        "offset": 0,
        "slot": "4",
        "type": "t_string_storage"
      },
      {
        "astId": 302,
        "contract": "src/contracts/unlimitedtoken.sol:UnlimitedToken",
        "label": "_decimals",
        "offset": 0,
        "slot": "5",
        "type": "t_uint8"
      },
      {
        "astId": 764,
        "contract": "src/contracts/unlimitedtoken.sol:UnlimitedToken",
        "label": "owner",
        "offset": 1,
        "slot": "5",
        "type": "t_address"
      },
      {
        "astId": 768,
        "contract": "src/contracts/unlimitedtoken.sol:UnlimitedToken",
        "label": "operators",
        "offset": 0,
        "slot": "6",
        "type": "t_mapping(t_address,t_bool)"
      }
    ],
    "types": {
      "t_address": {
        "encoding": "inplace",
        "label": "address",
        "numberOfBytes": "20"
      },
      "t_bool": {
        "encoding": "inplace",
        "label": "bool",
        "numberOfBytes": "1"
      },
      "t_mapping(t_address,t_bool)": {
        "encoding": "mapping",
        "key": "t_address",
        "label": "mapping(address => bool)",
        "numberOfBytes": "32",
        "value": "t_bool"
      },
      "t_mapping(t_address,t_mapping(t_address,t_uint256))": {
        "encoding": "mapping",
        "key": "t_address",
        "label": "mapping(address => mapping(address => uint256))",
        "numberOfBytes": "32",
        "value": "t_mapping(t_address,t_uint256)"
      },
      "t_mapping(t_address,t_uint256)": {
        "encoding": "mapping",
        "key": "t_address",
        "label": "mapping(address => uint256)",
        "numberOfBytes": "32",
        "value": "t_uint256"
      },
      "t_string_storage": {
        "encoding": "bytes",
        "label": "string",
        "numberOfBytes": "32"
      },
      "t_uint256": {
        "encoding": "inplace",
        "label": "uint256",
        "numberOfBytes": "32"
      },
      "t_uint8": {
        "encoding": "inplace",
        "label": "uint8",
        "numberOfBytes": "1"
      }
    }
  }
}