{
  "_format": "hh-sol-artifact-1",
  "contractName": "DataStorage",
  "sourceName": "src/contracts/admin/data_storage.sol",
  "abi": [
    {
      "inputs": [],
      "stateMutability": "nonpayable",
      "type": "constructor"
    },
    {
      "inputs": [
        {
          "internalType": "string",
          "name": "_appId",
          "type": "string"
        },
        {
          "internalType": "address",
          "name": "_admin",
          "type": "address"
        }
      ],
      "name": "addAdmin",
      "outputs": [],
      "stateMutability": "nonpayable",
      "type": "function"
    },
    {
      "inputs": [
        {
          "internalType": "uint256",
          "name": "_quizId",
          "type": "uint256"
        },
        {
          "internalType": "address[]",
          "name": "_inductees",
          "type": "address[]"
        },
        {
          "internalType": "uint256",
          "name": "_participate",
          "type": "uint256"
        }
      ],
      "name": "addInductees",
      "outputs": [],
      "stateMutability": "nonpayable",
      "type": "function"
    },
    {
      "inputs": [
        {
          "internalType": "address",
          "name": "_newOperator",
          "type": "address"
        }
      ],
      "name": "addOperator",
      "outputs": [],
      "stateMutability": "nonpayable",
      "type": "function"
    },
    {
      "inputs": [
        {
          "internalType": "string",
          "name": "",
          "type": "string"
        },
        {
          "internalType": "uint256",
          "name": "",
          "type": "uint256"
        }
      ],
      "name": "admins",
      "outputs": [
        {
          "internalType": "address",
          "name": "",
          "type": "address"
        }
      ],
      "stateMutability": "view",
      "type": "function"
    },
    {
      "inputs": [
        {
          "internalType": "string",
          "name": "",
          "type": "string"
        },
        {
          "internalType": "uint256",
          "name": "",
          "type": "uint256"
        }
      ],
      "name": "appQuizzes",
      "outputs": [
        {
          "internalType": "uint256",
          "name": "",
          "type": "uint256"
        }
      ],
      "stateMutability": "view",
      "type": "function"
    },
    {
      "inputs": [
        {
          "internalType": "string",
          "name": "_appId",
          "type": "string"
        },
        {
          "internalType": "address",
          "name": "_sender",
          "type": "address"
        }
      ],
      "name": "checkAdmin",
      "outputs": [
        {
          "internalType": "bool",
          "name": "",
          "type": "bool"
        }
      ],
      "stateMutability": "view",
      "type": "function"
    },
    {
      "inputs": [
        {
          "internalType": "string",
          "name": "_appId",
          "type": "string"
        },
        {
          "internalType": "address",
          "name": "_delAdmin",
          "type": "address"
        }
      ],
      "name": "delAdmin",
      "outputs": [],
      "stateMutability": "nonpayable",
      "type": "function"
    },
    {
      "inputs": [
        {
          "internalType": "string",
          "name": "_appId",
          "type": "string"
        }
      ],
      "name": "getAppAdmins",
      "outputs": [
        {
          "internalType": "address[]",
          "name": "",
          "type": "address[]"
        }
      ],
      "stateMutability": "view",
      "type": "function"
    },
    {
      "inputs": [
        {
          "internalType": "string",
          "name": "_appId",
          "type": "string"
        }
      ],
      "name": "getAppQuizIds",
      "outputs": [
        {
          "internalType": "uint256[]",
          "name": "",
          "type": "uint256[]"
        }
      ],
      "stateMutability": "view",
      "type": "function"
    },
    {
      "inputs": [
        {
          "internalType": "address",
          "name": "_holder",
          "type": "address"
        },
        {
          "internalType": "contract IERC20",
          "name": "_token",
          "type": "address"
        }
      ],
      "name": "getErc20Bank",
      "outputs": [
        {
          "internalType": "uint256",
          "name": "",
          "type": "uint256"
        }
      ],
      "stateMutability": "view",
      "type": "function"
    },
    {
      "inputs": [
        {
          "internalType": "address",
          "name": "_holder",
          "type": "address"
        }
      ],
      "name": "getEthBank",
      "outputs": [
        {
          "internalType": "uint256",
          "name": "",
          "type": "uint256"
        }
      ],
      "stateMutability": "view",
      "type": "function"
    },
    {
      "inputs": [
        {
          "internalType": "uint256",
          "name": "_quizId",
          "type": "uint256"
        }
      ],
      "name": "getInductees",
      "outputs": [
        {
          "internalType": "address[]",
          "name": "",
          "type": "address[]"
        }
      ],
      "stateMutability": "view",
      "type": "function"
    },
    {
      "inputs": [
        {
          "internalType": "uint256[]",
          "name": "_lotteryIds",
          "type": "uint256[]"
        }
      ],
      "name": "getLotteries",
      "outputs": [
        {
          "components": [
            {
              "internalType": "contract IERC20",
              "name": "token",
              "type": "address"
            },
            {
              "internalType": "uint256[]",
              "name": "amounts",
              "type": "uint256[]"
            },
            {
              "internalType": "uint256[]",
              "name": "fixedNum",
              "type": "uint256[]"
            },
            {
              "internalType": "uint256[]",
              "name": "proportionNum",
              "type": "uint256[]"
            },
            {
              "internalType": "uint256",
              "name": "totalAmount",
              "type": "uint256"
            },
            {
              "internalType": "bool",
              "name": "isEth",
              "type": "bool"
            },
            {
              "internalType": "bool",
              "name": "over",
              "type": "bool"
            },
            {
              "internalType": "bool",
              "name": "exist",
              "type": "bool"
            }
          ],
          "internalType": "struct DataStorage.Lottery[]",
          "name": "",
          "type": "tuple[]"
        }
      ],
      "stateMutability": "view",
      "type": "function"
    },
    {
      "inputs": [
        {
          "internalType": "uint256",
          "name": "_lotteryId",
          "type": "uint256"
        }
      ],
      "name": "getLottery",
      "outputs": [
        {
          "components": [
            {
              "internalType": "contract IERC20",
              "name": "token",
              "type": "address"
            },
            {
              "internalType": "uint256[]",
              "name": "amounts",
              "type": "uint256[]"
            },
            {
              "internalType": "uint256[]",
              "name": "fixedNum",
              "type": "uint256[]"
            },
            {
              "internalType": "uint256[]",
              "name": "proportionNum",
              "type": "uint256[]"
            },
            {
              "internalType": "uint256",
              "name": "totalAmount",
              "type": "uint256"
            },
            {
              "internalType": "bool",
              "name": "isEth",
              "type": "bool"
            },
            {
              "internalType": "bool",
              "name": "over",
              "type": "bool"
            },
            {
              "internalType": "bool",
              "name": "exist",
              "type": "bool"
            }
          ],
          "internalType": "struct DataStorage.Lottery",
          "name": "",
          "type": "tuple"
        }
      ],
      "stateMutability": "view",
      "type": "function"
    },
    {
      "inputs": [
        {
          "internalType": "uint256",
          "name": "_lotteryId",
          "type": "uint256"
        }
      ],
      "name": "getLotteryCreator",
      "outputs": [
        {
          "internalType": "address",
          "name": "",
          "type": "address"
        }
      ],
      "stateMutability": "view",
      "type": "function"
    },
    {
      "inputs": [
        {
          "internalType": "uint256",
          "name": "_lotteryId",
          "type": "uint256"
        },
        {
          "internalType": "uint256",
          "name": "_index",
          "type": "uint256"
        }
      ],
      "name": "getLotteryResult",
      "outputs": [
        {
          "internalType": "address[]",
          "name": "",
          "type": "address[]"
        }
      ],
      "stateMutability": "view",
      "type": "function"
    },
    {
      "inputs": [
        {
          "internalType": "uint256",
          "name": "_quizId",
          "type": "uint256"
        }
      ],
      "name": "getQuiz",
      "outputs": [
        {
          "components": [
            {
              "internalType": "uint256",
              "name": "id",
              "type": "uint256"
            },
            {
              "internalType": "string",
              "name": "app_id",
              "type": "string"
            },
            {
              "internalType": "string[]",
              "name": "questions",
              "type": "string[]"
            },
            {
              "internalType": "uint256",
              "name": "amount",
              "type": "uint256"
            },
            {
              "internalType": "int256",
              "name": "group",
              "type": "int256"
            },
            {
              "internalType": "uint256",
              "name": "botType",
              "type": "uint256"
            },
            {
              "internalType": "bool",
              "name": "exist",
              "type": "bool"
            },
            {
              "internalType": "bool",
              "name": "over",
              "type": "bool"
            },
            {
              "internalType": "uint256",
              "name": "startTime",
              "type": "uint256"
            },
            {
              "internalType": "uint256",
              "name": "activeTime",
              "type": "uint256"
            },
            {
              "internalType": "string",
              "name": "title",
              "type": "string"
            },
            {
              "internalType": "string",
              "name": "photo",
              "type": "string"
            },
            {
              "internalType": "uint256",
              "name": "participate",
              "type": "uint256"
            }
          ],
          "internalType": "struct DataStorage.QuizDetail",
          "name": "",
          "type": "tuple"
        }
      ],
      "stateMutability": "view",
      "type": "function"
    },
    {
      "inputs": [
        {
          "internalType": "uint256[]",
          "name": "_quizIds",
          "type": "uint256[]"
        }
      ],
      "name": "getQuizzes",
      "outputs": [
        {
          "components": [
            {
              "internalType": "uint256",
              "name": "id",
              "type": "uint256"
            },
            {
              "internalType": "string",
              "name": "app_id",
              "type": "string"
            },
            {
              "internalType": "string[]",
              "name": "questions",
              "type": "string[]"
            },
            {
              "internalType": "uint256",
              "name": "amount",
              "type": "uint256"
            },
            {
              "internalType": "int256",
              "name": "group",
              "type": "int256"
            },
            {
              "internalType": "uint256",
              "name": "botType",
              "type": "uint256"
            },
            {
              "internalType": "bool",
              "name": "exist",
              "type": "bool"
            },
            {
              "internalType": "bool",
              "name": "over",
              "type": "bool"
            },
            {
              "internalType": "uint256",
              "name": "startTime",
              "type": "uint256"
            },
            {
              "internalType": "uint256",
              "name": "activeTime",
              "type": "uint256"
            },
            {
              "internalType": "string",
              "name": "title",
              "type": "string"
            },
            {
              "internalType": "string",
              "name": "photo",
              "type": "string"
            },
            {
              "internalType": "uint256",
              "name": "participate",
              "type": "uint256"
            }
          ],
          "internalType": "struct DataStorage.QuizDetail[]",
          "name": "",
          "type": "tuple[]"
        }
      ],
      "stateMutability": "view",
      "type": "function"
    },
    {
      "inputs": [],
      "name": "getShouldAwardQuizIds",
      "outputs": [
        {
          "internalType": "uint256[]",
          "name": "",
          "type": "uint256[]"
        }
      ],
      "stateMutability": "view",
      "type": "function"
    },
    {
      "inputs": [
        {
          "internalType": "address",
          "name": "",
          "type": "address"
        }
      ],
      "name": "operators",
      "outputs": [
        {
          "internalType": "bool",
          "name": "",
          "type": "bool"
        }
      ],
      "stateMutability": "view",
      "type": "function"
    },
    {
      "inputs": [
        {
          "internalType": "uint256",
          "name": "_lotteryId",
          "type": "uint256"
        }
      ],
      "name": "overLottery",
      "outputs": [],
      "stateMutability": "nonpayable",
      "type": "function"
    },
    {
      "inputs": [
        {
          "internalType": "uint256",
          "name": "_quizId",
          "type": "uint256"
        }
      ],
      "name": "overQuiz",
      "outputs": [],
      "stateMutability": "nonpayable",
      "type": "function"
    },
    {
      "inputs": [],
      "name": "owner",
      "outputs": [
        {
          "internalType": "address",
          "name": "",
          "type": "address"
        }
      ],
      "stateMutability": "view",
      "type": "function"
    },
    {
      "inputs": [
        {
          "internalType": "address",
          "name": "_holder",
          "type": "address"
        },
        {
          "internalType": "contract IERC20",
          "name": "_token",
          "type": "address"
        },
        {
          "internalType": "uint256",
          "name": "_amount",
          "type": "uint256"
        }
      ],
      "name": "setErc20Bank",
      "outputs": [],
      "stateMutability": "nonpayable",
      "type": "function"
    },
    {
      "inputs": [
        {
          "internalType": "address",
          "name": "_holder",
          "type": "address"
        },
        {
          "internalType": "uint256",
          "name": "_amount",
          "type": "uint256"
        }
      ],
      "name": "setEthBank",
      "outputs": [],
      "stateMutability": "nonpayable",
      "type": "function"
    },
    {
      "inputs": [
        {
          "internalType": "address",
          "name": "_creator",
          "type": "address"
        },
        {
          "internalType": "uint256",
          "name": "_lotteryId",
          "type": "uint256"
        },
        {
          "components": [
            {
              "internalType": "contract IERC20",
              "name": "token",
              "type": "address"
            },
            {
              "internalType": "uint256[]",
              "name": "amounts",
              "type": "uint256[]"
            },
            {
              "internalType": "uint256[]",
              "name": "fixedNum",
              "type": "uint256[]"
            },
            {
              "internalType": "uint256[]",
              "name": "proportionNum",
              "type": "uint256[]"
            },
            {
              "internalType": "uint256",
              "name": "totalAmount",
              "type": "uint256"
            },
            {
              "internalType": "bool",
              "name": "isEth",
              "type": "bool"
            },
            {
              "internalType": "bool",
              "name": "over",
              "type": "bool"
            },
            {
              "internalType": "bool",
              "name": "exist",
              "type": "bool"
            }
          ],
          "internalType": "struct DataStorage.Lottery",
          "name": "_lottery",
          "type": "tuple"
        }
      ],
      "name": "setLottery",
      "outputs": [],
      "stateMutability": "nonpayable",
      "type": "function"
    },
    {
      "inputs": [
        {
          "internalType": "uint256",
          "name": "_lotteryId",
          "type": "uint256"
        },
        {
          "internalType": "uint256",
          "name": "_index",
          "type": "uint256"
        },
        {
          "internalType": "address[]",
          "name": "_winner",
          "type": "address[]"
        }
      ],
      "name": "setLotteryResult",
      "outputs": [],
      "stateMutability": "nonpayable",
      "type": "function"
    },
    {
      "inputs": [
        {
          "internalType": "string",
          "name": "_appId",
          "type": "string"
        },
        {
          "components": [
            {
              "internalType": "uint256",
              "name": "id",
              "type": "uint256"
            },
            {
              "internalType": "string",
              "name": "app_id",
              "type": "string"
            },
            {
              "internalType": "string[]",
              "name": "questions",
              "type": "string[]"
            },
            {
              "internalType": "uint256",
              "name": "amount",
              "type": "uint256"
            },
            {
              "internalType": "int256",
              "name": "group",
              "type": "int256"
            },
            {
              "internalType": "uint256",
              "name": "botType",
              "type": "uint256"
            },
            {
              "internalType": "bool",
              "name": "exist",
              "type": "bool"
            },
            {
              "internalType": "bool",
              "name": "over",
              "type": "bool"
            },
            {
              "internalType": "uint256",
              "name": "startTime",
              "type": "uint256"
            },
            {
              "internalType": "uint256",
              "name": "activeTime",
              "type": "uint256"
            },
            {
              "internalType": "string",
              "name": "title",
              "type": "string"
            },
            {
              "internalType": "string",
              "name": "photo",
              "type": "string"
            },
            {
              "internalType": "uint256",
              "name": "participate",
              "type": "uint256"
            }
          ],
          "internalType": "struct DataStorage.QuizDetail",
          "name": "_quiz",
          "type": "tuple"
        }
      ],
      "name": "setQuiz",
      "outputs": [],
      "stateMutability": "nonpayable",
      "type": "function"
    },
    {
      "inputs": [
        {
          "internalType": "address",
          "name": "_newOwner",
          "type": "address"
        }
      ],
      "name": "transferOwner",
      "outputs": [],
      "stateMutability": "nonpayable",
      "type": "function"
    }
  ],
  "bytecode": "0x608060405234801561001057600080fd5b50336000806101000a81548173ffffffffffffffffffffffffffffffffffffffff021916908373ffffffffffffffffffffffffffffffffffffffff16021790555060018060003373ffffffffffffffffffffffffffffffffffffffff1673ffffffffffffffffffffffffffffffffffffffff16815260200190815260200160002060006101000a81548160ff0219169083151502179055506143f3806100b76000396000f3fe608060405234801561001057600080fd5b50600436106101cf5760003560e01c80638da5cb5b11610104578063a772c8f8116100a2578063dae2033211610071578063dae2033214610584578063db27e1ab146105b4578063e4c5acb8146105e4578063f3f8112214610600576101cf565b8063a772c8f8146104d8578063a890cb3a14610508578063b796e2b014610538578063ba2c020f14610568576101cf565b806392e845f6116100de57806392e845f61461042c5780639870d7fe1461045c578063a3f7e09614610478578063a7351f60146104a8576101cf565b80638da5cb5b146103ae5780638fdeafcc146103cc57806390c909b2146103fc576101cf565b80633cb8aecd1161017157806365200d6e1161014b57806365200d6e146103165780636f8e4b4114610346578063766be05c14610376578063828dd96714610392576101cf565b80633cb8aecd146102ae5780634251fcd8146102de5780634fb2e45d146102fa576101cf565b80631ecf6bdb116101ad5780631ecf6bdb1461023c57806331d9a5f3146102585780633630d48c1461027657806337ae802b14610292576101cf565b806301354e31146101d45780630831b05f146101f057806313e7c9d81461020c575b600080fd5b6101ee60048036038101906101e99190612f02565b610630565b005b61020a60048036038101906102059190612fd8565b61087d565b005b61022660048036038101906102219190613034565b61098e565b6040516102339190613070565b60405180910390f35b610256600480360381019061025191906130c9565b6109ae565b005b610260610ac0565b60405161026d91906131da565b60405180910390f35b610290600480360381019061028b91906133dd565b610b18565b005b6102ac60048036038101906102a7919061344c565b610d43565b005b6102c860048036038101906102c39190613034565b610e17565b6040516102d5919061349b565b60405180910390f35b6102f860048036038101906102f391906134b6565b610e60565b005b610314600480360381019061030f9190613034565b610f1e565b005b610330600480360381019061032b91906134e3565b611046565b60405161033d919061349b565b60405180910390f35b610360600480360381019061035b919061353f565b61108d565b60405161036d919061349b565b60405180910390f35b610390600480360381019061038b9190613642565b611114565b005b6103ac60048036038101906103a791906134b6565b6111e8565b005b6103b66112af565b6040516103c391906136c0565b60405180910390f35b6103e660048036038101906103e191906136db565b6112d3565b6040516103f391906137e2565b60405180910390f35b61041660048036038101906104119190613804565b61137f565b6040516104239190613aaa565b60405180910390f35b610446600480360381019061044191906134b6565b611613565b6040516104539190613b8a565b60405180910390f35b61047660048036038101906104719190613034565b6117fa565b005b610492600480360381019061048d91906134b6565b6118e2565b60405161049f9190613e33565b60405180910390f35b6104c260048036038101906104bd91906134b6565b611ca7565b6040516104cf91906136c0565b60405180910390f35b6104f260048036038101906104ed9190613804565b611ce4565b6040516104ff9190614045565b60405180910390f35b610522600480360381019061051d9190614067565b6120ca565b60405161052f91906137e2565b60405180910390f35b610552600480360381019061054d9190612fd8565b61217d565b60405161055f9190613070565b60405180910390f35b610582600480360381019061057d91906140a7565b612265565b005b61059e600480360381019061059991906134e3565b61232f565b6040516105ab91906136c0565b60405180910390f35b6105ce60048036038101906105c991906136db565b612393565b6040516105db91906131da565b60405180910390f35b6105fe60048036038101906105f99190612fd8565b612409565b005b61061a600480360381019061061591906134b6565b6125ea565b60405161062791906137e2565b60405180910390f35b600160003373ffffffffffffffffffffffffffffffffffffffff1673ffffffffffffffffffffffffffffffffffffffff16815260200190815260200160002060009054906101000a900460ff166106bc576040517f08c379a00000000000000000000000000000000000000000000000000000000081526004016106b390614173565b60405180910390fd5b600560008260000151815260200190815260200160002060060160009054906101000a900460ff1661075f5760038160000151908060018154018082558091505060019003906000526020600020016000909190919091505560068260405161072591906141cf565b9081526020016040518091039020816000015190806001815401808255809150506001900390600052602060002001600090919091909150555b80600560008360000151815260200190815260200160002060008201518160000155602082015181600101908051906020019061079d929190612761565b5060408201518160020190805190602001906107ba9291906127e7565b50606082015181600301556080820151816004015560a0820151816005015560c08201518160060160006101000a81548160ff02191690831515021790555060e08201518160060160016101000a81548160ff0219169083151502179055506101008201518160070155610120820151816008015561014082015181600901908051906020019061084c929190612761565b5061016082015181600a01908051906020019061086a929190612761565b5061018082015181600b01559050505050565b60008054906101000a900473ffffffffffffffffffffffffffffffffffffffff1673ffffffffffffffffffffffffffffffffffffffff163373ffffffffffffffffffffffffffffffffffffffff161461090b576040517f08c379a000000000000000000000000000000000000000000000000000000000815260040161090290614232565b60405180910390fd5b60028260405161091b91906141cf565b9081526020016040518091039020819080600181540180825580915050600190039060005260206000200160009091909190916101000a81548173ffffffffffffffffffffffffffffffffffffffff021916908373ffffffffffffffffffffffffffffffffffffffff1602179055505050565b60016020528060005260406000206000915054906101000a900460ff1681565b600160003373ffffffffffffffffffffffffffffffffffffffff1673ffffffffffffffffffffffffffffffffffffffff16815260200190815260200160002060009054906101000a900460ff16610a3a576040517f08c379a0000000000000000000000000000000000000000000000000000000008152600401610a3190614173565b60405180910390fd5b80600860008573ffffffffffffffffffffffffffffffffffffffff1673ffffffffffffffffffffffffffffffffffffffff16815260200190815260200160002060008473ffffffffffffffffffffffffffffffffffffffff1673ffffffffffffffffffffffffffffffffffffffff16815260200190815260200160002081905550505050565b60606003805480602002602001604051908101604052809291908181526020018280548015610b0e57602002820191906000526020600020905b815481526020019060010190808311610afa575b5050505050905090565b600160003373ffffffffffffffffffffffffffffffffffffffff1673ffffffffffffffffffffffffffffffffffffffff16815260200190815260200160002060009054906101000a900460ff16610ba4576040517f08c379a0000000000000000000000000000000000000000000000000000000008152600401610b9b90614173565b60405180910390fd5b600a600083815260200190815260200160002060050160029054906101000a900460ff16610c1f5782600b600084815260200190815260200160002060006101000a81548173ffffffffffffffffffffffffffffffffffffffff021916908373ffffffffffffffffffffffffffffffffffffffff1602179055505b80600a600084815260200190815260200160002060008201518160000160006101000a81548173ffffffffffffffffffffffffffffffffffffffff021916908373ffffffffffffffffffffffffffffffffffffffff1602179055506020820151816001019080519060200190610c96929190612847565b506040820151816002019080519060200190610cb3929190612847565b506060820151816003019080519060200190610cd0929190612847565b506080820151816004015560a08201518160050160006101000a81548160ff02191690831515021790555060c08201518160050160016101000a81548160ff02191690831515021790555060e08201518160050160026101000a81548160ff021916908315150217905550905050505050565b600160003373ffffffffffffffffffffffffffffffffffffffff1673ffffffffffffffffffffffffffffffffffffffff16815260200190815260200160002060009054906101000a900460ff16610dcf576040517f08c379a0000000000000000000000000000000000000000000000000000000008152600401610dc690614173565b60405180910390fd5b80600760008473ffffffffffffffffffffffffffffffffffffffff1673ffffffffffffffffffffffffffffffffffffffff168152602001908152602001600020819055505050565b6000600760008373ffffffffffffffffffffffffffffffffffffffff1673ffffffffffffffffffffffffffffffffffffffff168152602001908152602001600020549050919050565b600160003373ffffffffffffffffffffffffffffffffffffffff1673ffffffffffffffffffffffffffffffffffffffff16815260200190815260200160002060009054906101000a900460ff16610eec576040517f08c379a0000000000000000000000000000000000000000000000000000000008152600401610ee390614173565b60405180910390fd5b6001600a600083815260200190815260200160002060050160016101000a81548160ff02191690831515021790555050565b60008054906101000a900473ffffffffffffffffffffffffffffffffffffffff1673ffffffffffffffffffffffffffffffffffffffff163373ffffffffffffffffffffffffffffffffffffffff1614610fac576040517f08c379a0000000000000000000000000000000000000000000000000000000008152600401610fa390614232565b60405180910390fd5b806000806101000a81548173ffffffffffffffffffffffffffffffffffffffff021916908373ffffffffffffffffffffffffffffffffffffffff16021790555060018060008373ffffffffffffffffffffffffffffffffffffffff1673ffffffffffffffffffffffffffffffffffffffff16815260200190815260200160002060006101000a81548160ff02191690831515021790555050565b600682805160208101820180518482526020830160208501208183528095505050505050818154811061107857600080fd5b90600052602060002001600091509150505481565b6000600860008473ffffffffffffffffffffffffffffffffffffffff1673ffffffffffffffffffffffffffffffffffffffff16815260200190815260200160002060008373ffffffffffffffffffffffffffffffffffffffff1673ffffffffffffffffffffffffffffffffffffffff16815260200190815260200160002054905092915050565b600160003373ffffffffffffffffffffffffffffffffffffffff1673ffffffffffffffffffffffffffffffffffffffff16815260200190815260200160002060009054906101000a900460ff166111a0576040517f08c379a000000000000000000000000000000000000000000000000000000000815260040161119790614173565b60405180910390fd5b8060056000858152602001908152602001600020600b0181905550816004600085815260200190815260200160002090805190602001906111e2929190612894565b50505050565b600160003373ffffffffffffffffffffffffffffffffffffffff1673ffffffffffffffffffffffffffffffffffffffff16815260200190815260200160002060009054906101000a900460ff16611274576040517f08c379a000000000000000000000000000000000000000000000000000000000815260040161126b90614173565b60405180910390fd5b60016005600083815260200190815260200160002060060160016101000a81548160ff0219169083151502179055506112ac8161268b565b50565b60008054906101000a900473ffffffffffffffffffffffffffffffffffffffff1681565b60606002826040516112e591906141cf565b908152602001604051809103902080548060200260200160405190810160405280929190818152602001828054801561137357602002820191906000526020600020905b8160009054906101000a900473ffffffffffffffffffffffffffffffffffffffff1673ffffffffffffffffffffffffffffffffffffffff1681526020019060010190808311611329575b50505050509050919050565b60606000825167ffffffffffffffff81111561139e5761139d612a9b565b5b6040519080825280602002602001820160405280156113d757816020015b6113c461291e565b8152602001906001900390816113bc5790505b50905060005b835181101561160957600a60008583815181106113fd576113fc614252565b5b60200260200101518152602001908152602001600020604051806101000160405290816000820160009054906101000a900473ffffffffffffffffffffffffffffffffffffffff1673ffffffffffffffffffffffffffffffffffffffff1673ffffffffffffffffffffffffffffffffffffffff168152602001600182018054806020026020016040519081016040528092919081815260200182805480156114c457602002820191906000526020600020905b8154815260200190600101908083116114b0575b505050505081526020016002820180548060200260200160405190810160405280929190818152602001828054801561151c57602002820191906000526020600020905b815481526020019060010190808311611508575b505050505081526020016003820180548060200260200160405190810160405280929190818152602001828054801561157457602002820191906000526020600020905b815481526020019060010190808311611560575b50505050508152602001600482015481526020016005820160009054906101000a900460ff161515151581526020016005820160019054906101000a900460ff161515151581526020016005820160029054906101000a900460ff1615151515815250508282815181106115eb576115ea614252565b5b60200260200101819052508080611601906142b0565b9150506113dd565b5080915050919050565b61161b61291e565b600a6000838152602001908152602001600020604051806101000160405290816000820160009054906101000a900473ffffffffffffffffffffffffffffffffffffffff1673ffffffffffffffffffffffffffffffffffffffff1673ffffffffffffffffffffffffffffffffffffffff168152602001600182018054806020026020016040519081016040528092919081815260200182805480156116df57602002820191906000526020600020905b8154815260200190600101908083116116cb575b505050505081526020016002820180548060200260200160405190810160405280929190818152602001828054801561173757602002820191906000526020600020905b815481526020019060010190808311611723575b505050505081526020016003820180548060200260200160405190810160405280929190818152602001828054801561178f57602002820191906000526020600020905b81548152602001906001019080831161177b575b50505050508152602001600482015481526020016005820160009054906101000a900460ff161515151581526020016005820160019054906101000a900460ff161515151581526020016005820160029054906101000a900460ff1615151515815250509050919050565b60008054906101000a900473ffffffffffffffffffffffffffffffffffffffff1673ffffffffffffffffffffffffffffffffffffffff163373ffffffffffffffffffffffffffffffffffffffff1614611888576040517f08c379a000000000000000000000000000000000000000000000000000000000815260040161187f90614232565b60405180910390fd5b60018060008373ffffffffffffffffffffffffffffffffffffffff1673ffffffffffffffffffffffffffffffffffffffff16815260200190815260200160002060006101000a81548160ff02191690831515021790555050565b6118ea61297f565b600160003373ffffffffffffffffffffffffffffffffffffffff1673ffffffffffffffffffffffffffffffffffffffff16815260200190815260200160002060009054906101000a900460ff16611976576040517f08c379a000000000000000000000000000000000000000000000000000000000815260040161196d90614173565b60405180910390fd5b60056000838152602001908152602001600020604051806101a0016040529081600082015481526020016001820180546119af90614328565b80601f01602080910402602001604051908101604052809291908181526020018280546119db90614328565b8015611a285780601f106119fd57610100808354040283529160200191611a28565b820191906000526020600020905b815481529060010190602001808311611a0b57829003601f168201915b5050505050815260200160028201805480602002602001604051908101604052809291908181526020016000905b82821015611b02578382906000526020600020018054611a7590614328565b80601f0160208091040260200160405190810160405280929190818152602001828054611aa190614328565b8015611aee5780601f10611ac357610100808354040283529160200191611aee565b820191906000526020600020905b815481529060010190602001808311611ad157829003601f168201915b505050505081526020019060010190611a56565b5050505081526020016003820154815260200160048201548152602001600582015481526020016006820160009054906101000a900460ff161515151581526020016006820160019054906101000a900460ff161515151581526020016007820154815260200160088201548152602001600982018054611b8290614328565b80601f0160208091040260200160405190810160405280929190818152602001828054611bae90614328565b8015611bfb5780601f10611bd057610100808354040283529160200191611bfb565b820191906000526020600020905b815481529060010190602001808311611bde57829003601f168201915b50505050508152602001600a82018054611c1490614328565b80601f0160208091040260200160405190810160405280929190818152602001828054611c4090614328565b8015611c8d5780601f10611c6257610100808354040283529160200191611c8d565b820191906000526020600020905b815481529060010190602001808311611c7057829003601f168201915b50505050508152602001600b820154815250509050919050565b6000600b600083815260200190815260200160002060009054906101000a900473ffffffffffffffffffffffffffffffffffffffff169050919050565b60606000825167ffffffffffffffff811115611d0357611d02612a9b565b5b604051908082528060200260200182016040528015611d3c57816020015b611d2961297f565b815260200190600190039081611d215790505b50905060005b83518110156120c05760056000858381518110611d6257611d61614252565b5b60200260200101518152602001908152602001600020604051806101a001604052908160008201548152602001600182018054611d9e90614328565b80601f0160208091040260200160405190810160405280929190818152602001828054611dca90614328565b8015611e175780601f10611dec57610100808354040283529160200191611e17565b820191906000526020600020905b815481529060010190602001808311611dfa57829003601f168201915b5050505050815260200160028201805480602002602001604051908101604052809291908181526020016000905b82821015611ef1578382906000526020600020018054611e6490614328565b80601f0160208091040260200160405190810160405280929190818152602001828054611e9090614328565b8015611edd5780601f10611eb257610100808354040283529160200191611edd565b820191906000526020600020905b815481529060010190602001808311611ec057829003601f168201915b505050505081526020019060010190611e45565b5050505081526020016003820154815260200160048201548152602001600582015481526020016006820160009054906101000a900460ff161515151581526020016006820160019054906101000a900460ff161515151581526020016007820154815260200160088201548152602001600982018054611f7190614328565b80601f0160208091040260200160405190810160405280929190818152602001828054611f9d90614328565b8015611fea5780601f10611fbf57610100808354040283529160200191611fea565b820191906000526020600020905b815481529060010190602001808311611fcd57829003601f168201915b50505050508152602001600a8201805461200390614328565b80601f016020809104026020016040519081016040528092919081815260200182805461202f90614328565b801561207c5780601f106120515761010080835404028352916020019161207c565b820191906000526020600020905b81548152906001019060200180831161205f57829003601f168201915b50505050508152602001600b820154815250508282815181106120a2576120a1614252565b5b602002602001018190525080806120b8906142b0565b915050611d42565b5080915050919050565b606060096000848152602001908152602001600020600083815260200190815260200160002080548060200260200160405190810160405280929190818152602001828054801561217057602002820191906000526020600020905b8160009054906101000a900473ffffffffffffffffffffffffffffffffffffffff1673ffffffffffffffffffffffffffffffffffffffff1681526020019060010190808311612126575b5050505050905092915050565b600080600090505b60028460405161219591906141cf565b908152602001604051809103902080549050811015612259578273ffffffffffffffffffffffffffffffffffffffff166002856040516121d591906141cf565b908152602001604051809103902082815481106121f5576121f4614252565b5b9060005260206000200160009054906101000a900473ffffffffffffffffffffffffffffffffffffffff1673ffffffffffffffffffffffffffffffffffffffff16141561224657600191505061225f565b8080612251906142b0565b915050612185565b50600090505b92915050565b600160003373ffffffffffffffffffffffffffffffffffffffff1673ffffffffffffffffffffffffffffffffffffffff16815260200190815260200160002060009054906101000a900460ff166122f1576040517f08c379a00000000000000000000000000000000000000000000000000000000081526004016122e890614173565b60405180910390fd5b806009600085815260200190815260200160002060008481526020019081526020016000209080519060200190612329929190612894565b50505050565b600282805160208101820180518482526020830160208501208183528095505050505050818154811061236157600080fd5b906000526020600020016000915091509054906101000a900473ffffffffffffffffffffffffffffffffffffffff1681565b60606006826040516123a591906141cf565b90815260200160405180910390208054806020026020016040519081016040528092919081815260200182805480156123fd57602002820191906000526020600020905b8154815260200190600101908083116123e9575b50505050509050919050565b60008054906101000a900473ffffffffffffffffffffffffffffffffffffffff1673ffffffffffffffffffffffffffffffffffffffff163373ffffffffffffffffffffffffffffffffffffffff1614612497576040517f08c379a000000000000000000000000000000000000000000000000000000000815260040161248e90614232565b60405180910390fd5b60005b6002836040516124aa91906141cf565b9081526020016040518091039020805490508110156125e4578173ffffffffffffffffffffffffffffffffffffffff166002846040516124ea91906141cf565b9081526020016040518091039020828154811061250a57612509614252565b5b9060005260206000200160009054906101000a900473ffffffffffffffffffffffffffffffffffffffff1673ffffffffffffffffffffffffffffffffffffffff1614156125d157600060028460405161256391906141cf565b9081526020016040518091039020828154811061258357612582614252565b5b9060005260206000200160006101000a81548173ffffffffffffffffffffffffffffffffffffffff021916908373ffffffffffffffffffffffffffffffffffffffff160217905550506125e6565b80806125dc906142b0565b91505061249a565b505b5050565b60606004600083815260200190815260200160002080548060200260200160405190810160405280929190818152602001828054801561267f57602002820191906000526020600020905b8160009054906101000a900473ffffffffffffffffffffffffffffffffffffffff1673ffffffffffffffffffffffffffffffffffffffff1681526020019060010190808311612635575b50505050509050919050565b6000600160038054905061269f919061435a565b90506000805b828110156126ea5783600382815481106126c2576126c1614252565b5b906000526020600020015414156126d7578091505b80806126e2906142b0565b9150506126a5565b50808214612734576003828154811061270657612705614252565b5b90600052602060002001546003828154811061272557612724614252565b5b90600052602060002001819055505b60038054806127465761274561438e565b5b60019003818190600052602060002001600090559055505050565b82805461276d90614328565b90600052602060002090601f01602090048101928261278f57600085556127d6565b82601f106127a857805160ff19168380011785556127d6565b828001600101855582156127d6579182015b828111156127d55782518255916020019190600101906127ba565b5b5090506127e391906129eb565b5090565b828054828255906000526020600020908101928215612836579160200282015b82811115612835578251829080519060200190612825929190612761565b5091602001919060010190612807565b5b5090506128439190612a08565b5090565b828054828255906000526020600020908101928215612883579160200282015b82811115612882578251825591602001919060010190612867565b5b50905061289091906129eb565b5090565b82805482825590600052602060002090810192821561290d579160200282015b8281111561290c5782518260006101000a81548173ffffffffffffffffffffffffffffffffffffffff021916908373ffffffffffffffffffffffffffffffffffffffff160217905550916020019190600101906128b4565b5b50905061291a91906129eb565b5090565b604051806101000160405280600073ffffffffffffffffffffffffffffffffffffffff168152602001606081526020016060815260200160608152602001600081526020016000151581526020016000151581526020016000151581525090565b604051806101a0016040528060008152602001606081526020016060815260200160008152602001600081526020016000815260200160001515815260200160001515815260200160008152602001600081526020016060815260200160608152602001600081525090565b5b80821115612a045760008160009055506001016129ec565b5090565b5b80821115612a285760008181612a1f9190612a2c565b50600101612a09565b5090565b508054612a3890614328565b6000825580601f10612a4a5750612a69565b601f016020900490600052602060002090810190612a6891906129eb565b5b50565b6000604051905090565b600080fd5b600080fd5b600080fd5b600080fd5b6000601f19601f8301169050919050565b7f4e487b7100000000000000000000000000000000000000000000000000000000600052604160045260246000fd5b612ad382612a8a565b810181811067ffffffffffffffff82111715612af257612af1612a9b565b5b80604052505050565b6000612b05612a6c565b9050612b118282612aca565b919050565b600067ffffffffffffffff821115612b3157612b30612a9b565b5b612b3a82612a8a565b9050602081019050919050565b82818337600083830152505050565b6000612b69612b6484612b16565b612afb565b905082815260208101848484011115612b8557612b84612a85565b5b612b90848285612b47565b509392505050565b600082601f830112612bad57612bac612a80565b5b8135612bbd848260208601612b56565b91505092915050565b600080fd5b600080fd5b6000819050919050565b612be381612bd0565b8114612bee57600080fd5b50565b600081359050612c0081612bda565b92915050565b600067ffffffffffffffff821115612c2157612c20612a9b565b5b602082029050602081019050919050565b600080fd5b6000612c4a612c4584612c06565b612afb565b90508083825260208201905060208402830185811115612c6d57612c6c612c32565b5b835b81811015612cb457803567ffffffffffffffff811115612c9257612c91612a80565b5b808601612c9f8982612b98565b85526020850194505050602081019050612c6f565b5050509392505050565b600082601f830112612cd357612cd2612a80565b5b8135612ce3848260208601612c37565b91505092915050565b6000819050919050565b612cff81612cec565b8114612d0a57600080fd5b50565b600081359050612d1c81612cf6565b92915050565b60008115159050919050565b612d3781612d22565b8114612d4257600080fd5b50565b600081359050612d5481612d2e565b92915050565b60006101a08284031215612d7157612d70612bc6565b5b612d7c6101a0612afb565b90506000612d8c84828501612bf1565b600083015250602082013567ffffffffffffffff811115612db057612daf612bcb565b5b612dbc84828501612b98565b602083015250604082013567ffffffffffffffff811115612de057612ddf612bcb565b5b612dec84828501612cbe565b6040830152506060612e0084828501612bf1565b6060830152506080612e1484828501612d0d565b60808301525060a0612e2884828501612bf1565b60a08301525060c0612e3c84828501612d45565b60c08301525060e0612e5084828501612d45565b60e083015250610100612e6584828501612bf1565b61010083015250610120612e7b84828501612bf1565b6101208301525061014082013567ffffffffffffffff811115612ea157612ea0612bcb565b5b612ead84828501612b98565b6101408301525061016082013567ffffffffffffffff811115612ed357612ed2612bcb565b5b612edf84828501612b98565b61016083015250610180612ef584828501612bf1565b6101808301525092915050565b60008060408385031215612f1957612f18612a76565b5b600083013567ffffffffffffffff811115612f3757612f36612a7b565b5b612f4385828601612b98565b925050602083013567ffffffffffffffff811115612f6457612f63612a7b565b5b612f7085828601612d5a565b9150509250929050565b600073ffffffffffffffffffffffffffffffffffffffff82169050919050565b6000612fa582612f7a565b9050919050565b612fb581612f9a565b8114612fc057600080fd5b50565b600081359050612fd281612fac565b92915050565b60008060408385031215612fef57612fee612a76565b5b600083013567ffffffffffffffff81111561300d5761300c612a7b565b5b61301985828601612b98565b925050602061302a85828601612fc3565b9150509250929050565b60006020828403121561304a57613049612a76565b5b600061305884828501612fc3565b91505092915050565b61306a81612d22565b82525050565b60006020820190506130856000830184613061565b92915050565b600061309682612f9a565b9050919050565b6130a68161308b565b81146130b157600080fd5b50565b6000813590506130c38161309d565b92915050565b6000806000606084860312156130e2576130e1612a76565b5b60006130f086828701612fc3565b9350506020613101868287016130b4565b925050604061311286828701612bf1565b9150509250925092565b600081519050919050565b600082825260208201905092915050565b6000819050602082019050919050565b61315181612bd0565b82525050565b60006131638383613148565b60208301905092915050565b6000602082019050919050565b60006131878261311c565b6131918185613127565b935061319c83613138565b8060005b838110156131cd5781516131b48882613157565b97506131bf8361316f565b9250506001810190506131a0565b5085935050505092915050565b600060208201905081810360008301526131f4818461317c565b905092915050565b600067ffffffffffffffff82111561321757613216612a9b565b5b602082029050602081019050919050565b600061323b613236846131fc565b612afb565b9050808382526020820190506020840283018581111561325e5761325d612c32565b5b835b8181101561328757806132738882612bf1565b845260208401935050602081019050613260565b5050509392505050565b600082601f8301126132a6576132a5612a80565b5b81356132b6848260208601613228565b91505092915050565b600061010082840312156132d6576132d5612bc6565b5b6132e1610100612afb565b905060006132f1848285016130b4565b600083015250602082013567ffffffffffffffff81111561331557613314612bcb565b5b61332184828501613291565b602083015250604082013567ffffffffffffffff81111561334557613344612bcb565b5b61335184828501613291565b604083015250606082013567ffffffffffffffff81111561337557613374612bcb565b5b61338184828501613291565b606083015250608061339584828501612bf1565b60808301525060a06133a984828501612d45565b60a08301525060c06133bd84828501612d45565b60c08301525060e06133d184828501612d45565b60e08301525092915050565b6000806000606084860312156133f6576133f5612a76565b5b600061340486828701612fc3565b935050602061341586828701612bf1565b925050604084013567ffffffffffffffff81111561343657613435612a7b565b5b613442868287016132bf565b9150509250925092565b6000806040838503121561346357613462612a76565b5b600061347185828601612fc3565b925050602061348285828601612bf1565b9150509250929050565b61349581612bd0565b82525050565b60006020820190506134b0600083018461348c565b92915050565b6000602082840312156134cc576134cb612a76565b5b60006134da84828501612bf1565b91505092915050565b600080604083850312156134fa576134f9612a76565b5b600083013567ffffffffffffffff81111561351857613517612a7b565b5b61352485828601612b98565b925050602061353585828601612bf1565b9150509250929050565b6000806040838503121561355657613555612a76565b5b600061356485828601612fc3565b9250506020613575858286016130b4565b9150509250929050565b600067ffffffffffffffff82111561359a57613599612a9b565b5b602082029050602081019050919050565b60006135be6135b98461357f565b612afb565b905080838252602082019050602084028301858111156135e1576135e0612c32565b5b835b8181101561360a57806135f68882612fc3565b8452602084019350506020810190506135e3565b5050509392505050565b600082601f83011261362957613628612a80565b5b81356136398482602086016135ab565b91505092915050565b60008060006060848603121561365b5761365a612a76565b5b600061366986828701612bf1565b935050602084013567ffffffffffffffff81111561368a57613689612a7b565b5b61369686828701613614565b92505060406136a786828701612bf1565b9150509250925092565b6136ba81612f9a565b82525050565b60006020820190506136d560008301846136b1565b92915050565b6000602082840312156136f1576136f0612a76565b5b600082013567ffffffffffffffff81111561370f5761370e612a7b565b5b61371b84828501612b98565b91505092915050565b600081519050919050565b600082825260208201905092915050565b6000819050602082019050919050565b61375981612f9a565b82525050565b600061376b8383613750565b60208301905092915050565b6000602082019050919050565b600061378f82613724565b613799818561372f565b93506137a483613740565b8060005b838110156137d55781516137bc888261375f565b97506137c783613777565b9250506001810190506137a8565b5085935050505092915050565b600060208201905081810360008301526137fc8184613784565b905092915050565b60006020828403121561381a57613819612a76565b5b600082013567ffffffffffffffff81111561383857613837612a7b565b5b61384484828501613291565b91505092915050565b600081519050919050565b600082825260208201905092915050565b6000819050602082019050919050565b6000819050919050565b600061389e61389961389484612f7a565b613879565b612f7a565b9050919050565b60006138b082613883565b9050919050565b60006138c2826138a5565b9050919050565b6138d2816138b7565b82525050565b600082825260208201905092915050565b60006138f48261311c565b6138fe81856138d8565b935061390983613138565b8060005b8381101561393a5781516139218882613157565b975061392c8361316f565b92505060018101905061390d565b5085935050505092915050565b61395081612d22565b82525050565b60006101008301600083015161396f60008601826138c9565b506020830151848203602086015261398782826138e9565b915050604083015184820360408601526139a182826138e9565b915050606083015184820360608601526139bb82826138e9565b91505060808301516139d06080860182613148565b5060a08301516139e360a0860182613947565b5060c08301516139f660c0860182613947565b5060e0830151613a0960e0860182613947565b508091505092915050565b6000613a208383613956565b905092915050565b6000602082019050919050565b6000613a408261384d565b613a4a8185613858565b935083602082028501613a5c85613869565b8060005b85811015613a985784840389528151613a798582613a14565b9450613a8483613a28565b925060208a01995050600181019050613a60565b50829750879550505050505092915050565b60006020820190508181036000830152613ac48184613a35565b905092915050565b600061010083016000830151613ae560008601826138c9565b5060208301518482036020860152613afd82826138e9565b91505060408301518482036040860152613b1782826138e9565b91505060608301518482036060860152613b3182826138e9565b9150506080830151613b466080860182613148565b5060a0830151613b5960a0860182613947565b5060c0830151613b6c60c0860182613947565b5060e0830151613b7f60e0860182613947565b508091505092915050565b60006020820190508181036000830152613ba48184613acc565b905092915050565b600081519050919050565b600082825260208201905092915050565b60005b83811015613be6578082015181840152602081019050613bcb565b83811115613bf5576000848401525b50505050565b6000613c0682613bac565b613c108185613bb7565b9350613c20818560208601613bc8565b613c2981612a8a565b840191505092915050565b600081519050919050565b600082825260208201905092915050565b6000819050602082019050919050565b6000613c6c8383613bfb565b905092915050565b6000602082019050919050565b6000613c8c82613c34565b613c968185613c3f565b935083602082028501613ca885613c50565b8060005b85811015613ce45784840389528151613cc58582613c60565b9450613cd083613c74565b925060208a01995050600181019050613cac565b50829750879550505050505092915050565b613cff81612cec565b82525050565b60006101a083016000830151613d1e6000860182613148565b5060208301518482036020860152613d368282613bfb565b91505060408301518482036040860152613d508282613c81565b9150506060830151613d656060860182613148565b506080830151613d786080860182613cf6565b5060a0830151613d8b60a0860182613148565b5060c0830151613d9e60c0860182613947565b5060e0830151613db160e0860182613947565b50610100830151613dc6610100860182613148565b50610120830151613ddb610120860182613148565b50610140830151848203610140860152613df58282613bfb565b915050610160830151848203610160860152613e118282613bfb565b915050610180830151613e28610180860182613148565b508091505092915050565b60006020820190508181036000830152613e4d8184613d05565b905092915050565b600081519050919050565b600082825260208201905092915050565b6000819050602082019050919050565b60006101a083016000830151613e9a6000860182613148565b5060208301518482036020860152613eb28282613bfb565b91505060408301518482036040860152613ecc8282613c81565b9150506060830151613ee16060860182613148565b506080830151613ef46080860182613cf6565b5060a0830151613f0760a0860182613148565b5060c0830151613f1a60c0860182613947565b5060e0830151613f2d60e0860182613947565b50610100830151613f42610100860182613148565b50610120830151613f57610120860182613148565b50610140830151848203610140860152613f718282613bfb565b915050610160830151848203610160860152613f8d8282613bfb565b915050610180830151613fa4610180860182613148565b508091505092915050565b6000613fbb8383613e81565b905092915050565b6000602082019050919050565b6000613fdb82613e55565b613fe58185613e60565b935083602082028501613ff785613e71565b8060005b8581101561403357848403895281516140148582613faf565b945061401f83613fc3565b925060208a01995050600181019050613ffb565b50829750879550505050505092915050565b6000602082019050818103600083015261405f8184613fd0565b905092915050565b6000806040838503121561407e5761407d612a76565b5b600061408c85828601612bf1565b925050602061409d85828601612bf1565b9150509250929050565b6000806000606084860312156140c0576140bf612a76565b5b60006140ce86828701612bf1565b93505060206140df86828701612bf1565b925050604084013567ffffffffffffffff811115614100576140ff612a7b565b5b61410c86828701613614565b9150509250925092565b600082825260208201905092915050565b7f4f6e6c79204f70657261746f7200000000000000000000000000000000000000600082015250565b600061415d600d83614116565b915061416882614127565b602082019050919050565b6000602082019050818103600083015261418c81614150565b9050919050565b600081905092915050565b60006141a982613bac565b6141b38185614193565b93506141c3818560208601613bc8565b80840191505092915050565b60006141db828461419e565b915081905092915050565b7f4f6e6c79204f776e657200000000000000000000000000000000000000000000600082015250565b600061421c600a83614116565b9150614227826141e6565b602082019050919050565b6000602082019050818103600083015261424b8161420f565b9050919050565b7f4e487b7100000000000000000000000000000000000000000000000000000000600052603260045260246000fd5b7f4e487b7100000000000000000000000000000000000000000000000000000000600052601160045260246000fd5b60006142bb82612bd0565b91507fffffffffffffffffffffffffffffffffffffffffffffffffffffffffffffffff8214156142ee576142ed614281565b5b600182019050919050565b7f4e487b7100000000000000000000000000000000000000000000000000000000600052602260045260246000fd5b6000600282049050600182168061434057607f821691505b60208210811415614354576143536142f9565b5b50919050565b600061436582612bd0565b915061437083612bd0565b92508282101561438357614382614281565b5b828203905092915050565b7f4e487b7100000000000000000000000000000000000000000000000000000000600052603160045260246000fdfea264697066735822122065c16ab981c1cc073b763c85f5c3d347474ca553e43c03e97e674d44f149e9c664736f6c63430008090033",
  "linkReferences": {},
  "deployedLinkReferences": {}
}