{
  "_format": "hh-sol-artifact-1",
  "contractName": "GameDataStorage",
  "sourceName": "src/contracts/game/data_storage.sol",
  "abi": [
    {
      "inputs": [],
      "stateMutability": "nonpayable",
      "type": "constructor"
    },
    {
      "inputs": [
        {
          "internalType": "uint256",
          "name": "_gameId",
          "type": "uint256"
        },
        {
          "internalType": "uint256",
          "name": "_round",
          "type": "uint256"
        },
        {
          "internalType": "uint256",
          "name": "_index",
          "type": "uint256"
        }
      ],
      "name": "addBuffPlayers",
      "outputs": [],
      "stateMutability": "nonpayable",
      "type": "function"
    },
    {
      "inputs": [
        {
          "internalType": "address",
          "name": "_newOperator",
          "type": "address"
        }
      ],
      "name": "addOperator",
      "outputs": [],
      "stateMutability": "nonpayable",
      "type": "function"
    },
    {
      "inputs": [
        {
          "internalType": "uint256",
          "name": "_gameId",
          "type": "uint256"
        },
        {
          "internalType": "uint256",
          "name": "_round",
          "type": "uint256"
        },
        {
          "internalType": "address",
          "name": "_player",
          "type": "address"
        }
      ],
      "name": "addPlayer",
      "outputs": [],
      "stateMutability": "nonpayable",
      "type": "function"
    },
    {
      "inputs": [
        {
          "internalType": "address",
          "name": "_removeOperator",
          "type": "address"
        }
      ],
      "name": "delOperator",
      "outputs": [],
      "stateMutability": "nonpayable",
      "type": "function"
    },
    {
      "inputs": [
        {
          "internalType": "uint256",
          "name": "_gameId",
          "type": "uint256"
        },
        {
          "internalType": "uint256",
          "name": "_round",
          "type": "uint256"
        },
        {
          "components": [
            {
              "internalType": "uint256",
              "name": "gameId",
              "type": "uint256"
            },
            {
              "internalType": "address[]",
              "name": "winners",
              "type": "address[]"
            },
            {
              "internalType": "uint256",
              "name": "participate",
              "type": "uint256"
            },
            {
              "internalType": "address",
              "name": "sponsor",
              "type": "address"
            },
            {
              "internalType": "uint256",
              "name": "launchTime",
              "type": "uint256"
            },
            {
              "internalType": "int256[]",
              "name": "eliminatePlayerIndexes",
              "type": "int256[]"
            },
            {
              "internalType": "int256[]",
              "name": "buffUsersIndexes",
              "type": "int256[]"
            },
            {
              "internalType": "int256[]",
              "name": "eventsIndexes",
              "type": "int256[]"
            },
            {
              "internalType": "bool",
              "name": "over",
              "type": "bool"
            },
            {
              "internalType": "bool",
              "name": "exist",
              "type": "bool"
            }
          ],
          "internalType": "struct GameDataStorage.GameRound",
          "name": "_gameRound",
          "type": "tuple"
        }
      ],
      "name": "editGameRound",
      "outputs": [],
      "stateMutability": "nonpayable",
      "type": "function"
    },
    {
      "inputs": [
        {
          "internalType": "string",
          "name": "_appId",
          "type": "string"
        }
      ],
      "name": "getAppGames",
      "outputs": [
        {
          "internalType": "uint256[]",
          "name": "",
          "type": "uint256[]"
        }
      ],
      "stateMutability": "view",
      "type": "function"
    },
    {
      "inputs": [
        {
          "internalType": "uint256",
          "name": "_gameId",
          "type": "uint256"
        },
        {
          "internalType": "uint256",
          "name": "_round",
          "type": "uint256"
        }
      ],
      "name": "getBuffPlayers",
      "outputs": [
        {
          "internalType": "uint256[]",
          "name": "",
          "type": "uint256[]"
        }
      ],
      "stateMutability": "view",
      "type": "function"
    },
    {
      "inputs": [
        {
          "internalType": "uint256",
          "name": "_id",
          "type": "uint256"
        }
      ],
      "name": "getGame",
      "outputs": [
        {
          "components": [
            {
              "internalType": "uint256",
              "name": "id",
              "type": "uint256"
            },
            {
              "internalType": "uint256",
              "name": "category",
              "type": "uint256"
            },
            {
              "internalType": "string",
              "name": "appId",
              "type": "string"
            },
            {
              "internalType": "int256",
              "name": "groupId",
              "type": "int256"
            },
            {
              "internalType": "uint256",
              "name": "botType",
              "type": "uint256"
            },
            {
              "internalType": "string",
              "name": "title",
              "type": "string"
            },
            {
              "internalType": "string",
              "name": "introduction",
              "type": "string"
            },
            {
              "internalType": "string",
              "name": "story",
              "type": "string"
            },
            {
              "internalType": "uint256",
              "name": "eliminateProportion",
              "type": "uint256"
            },
            {
              "internalType": "uint256",
              "name": "awardProportion",
              "type": "uint256"
            },
            {
              "internalType": "uint256",
              "name": "winNum",
              "type": "uint256"
            },
            {
              "internalType": "uint256[]",
              "name": "buffIds",
              "type": "uint256[]"
            },
            {
              "internalType": "string[]",
              "name": "events",
              "type": "string[]"
            },
            {
              "internalType": "bool",
              "name": "ticketIsEth",
              "type": "bool"
            },
            {
              "internalType": "contract IERC20",
              "name": "ticketsToken",
              "type": "address"
            },
            {
              "internalType": "uint256",
              "name": "ticketAmount",
              "type": "uint256"
            },
            {
              "internalType": "uint256",
              "name": "effectStartTime",
              "type": "uint256"
            },
            {
              "internalType": "uint256",
              "name": "effectEndTime",
              "type": "uint256"
            },
            {
              "internalType": "bool",
              "name": "daily",
              "type": "bool"
            },
            {
              "internalType": "uint256",
              "name": "startH",
              "type": "uint256"
            },
            {
              "internalType": "uint256",
              "name": "startM",
              "type": "uint256"
            },
            {
              "internalType": "bool",
              "name": "exist",
              "type": "bool"
            },
            {
              "internalType": "address",
              "name": "creator",
              "type": "address"
            }
          ],
          "internalType": "struct GameDataStorage.GameDetail",
          "name": "",
          "type": "tuple"
        }
      ],
      "stateMutability": "view",
      "type": "function"
    },
    {
      "inputs": [],
      "name": "getGameIds",
      "outputs": [
        {
          "internalType": "uint256[]",
          "name": "",
          "type": "uint256[]"
        }
      ],
      "stateMutability": "view",
      "type": "function"
    },
    {
      "inputs": [
        {
          "internalType": "uint256",
          "name": "_gameId",
          "type": "uint256"
        }
      ],
      "name": "getGameLatestRoundNum",
      "outputs": [
        {
          "internalType": "int256",
          "name": "",
          "type": "int256"
        }
      ],
      "stateMutability": "view",
      "type": "function"
    },
    {
      "inputs": [
        {
          "internalType": "uint256",
          "name": "_gameId",
          "type": "uint256"
        },
        {
          "internalType": "uint256",
          "name": "_round",
          "type": "uint256"
        }
      ],
      "name": "getGameRound",
      "outputs": [
        {
          "components": [
            {
              "internalType": "uint256",
              "name": "gameId",
              "type": "uint256"
            },
            {
              "internalType": "address[]",
              "name": "winners",
              "type": "address[]"
            },
            {
              "internalType": "uint256",
              "name": "participate",
              "type": "uint256"
            },
            {
              "internalType": "address",
              "name": "sponsor",
              "type": "address"
            },
            {
              "internalType": "uint256",
              "name": "launchTime",
              "type": "uint256"
            },
            {
              "internalType": "int256[]",
              "name": "eliminatePlayerIndexes",
              "type": "int256[]"
            },
            {
              "internalType": "int256[]",
              "name": "buffUsersIndexes",
              "type": "int256[]"
            },
            {
              "internalType": "int256[]",
              "name": "eventsIndexes",
              "type": "int256[]"
            },
            {
              "internalType": "bool",
              "name": "over",
              "type": "bool"
            },
            {
              "internalType": "bool",
              "name": "exist",
              "type": "bool"
            }
          ],
          "internalType": "struct GameDataStorage.GameRound",
          "name": "",
          "type": "tuple"
        }
      ],
      "stateMutability": "view",
      "type": "function"
    },
    {
      "inputs": [
        {
          "internalType": "uint256",
          "name": "_gameId",
          "type": "uint256"
        }
      ],
      "name": "getGameRoundList",
      "outputs": [
        {
          "components": [
            {
              "internalType": "uint256",
              "name": "gameId",
              "type": "uint256"
            },
            {
              "internalType": "address[]",
              "name": "winners",
              "type": "address[]"
            },
            {
              "internalType": "uint256",
              "name": "participate",
              "type": "uint256"
            },
            {
              "internalType": "address",
              "name": "sponsor",
              "type": "address"
            },
            {
              "internalType": "uint256",
              "name": "launchTime",
              "type": "uint256"
            },
            {
              "internalType": "int256[]",
              "name": "eliminatePlayerIndexes",
              "type": "int256[]"
            },
            {
              "internalType": "int256[]",
              "name": "buffUsersIndexes",
              "type": "int256[]"
            },
            {
              "internalType": "int256[]",
              "name": "eventsIndexes",
              "type": "int256[]"
            },
            {
              "internalType": "bool",
              "name": "over",
              "type": "bool"
            },
            {
              "internalType": "bool",
              "name": "exist",
              "type": "bool"
            }
          ],
          "internalType": "struct GameDataStorage.GameRound[]",
          "name": "",
          "type": "tuple[]"
        }
      ],
      "stateMutability": "view",
      "type": "function"
    },
    {
      "inputs": [
        {
          "internalType": "uint256[]",
          "name": "_ids",
          "type": "uint256[]"
        }
      ],
      "name": "getGames",
      "outputs": [
        {
          "components": [
            {
              "internalType": "uint256",
              "name": "id",
              "type": "uint256"
            },
            {
              "internalType": "uint256",
              "name": "category",
              "type": "uint256"
            },
            {
              "internalType": "string",
              "name": "appId",
              "type": "string"
            },
            {
              "internalType": "int256",
              "name": "groupId",
              "type": "int256"
            },
            {
              "internalType": "uint256",
              "name": "botType",
              "type": "uint256"
            },
            {
              "internalType": "string",
              "name": "title",
              "type": "string"
            },
            {
              "internalType": "string",
              "name": "introduction",
              "type": "string"
            },
            {
              "internalType": "string",
              "name": "story",
              "type": "string"
            },
            {
              "internalType": "uint256",
              "name": "eliminateProportion",
              "type": "uint256"
            },
            {
              "internalType": "uint256",
              "name": "awardProportion",
              "type": "uint256"
            },
            {
              "internalType": "uint256",
              "name": "winNum",
              "type": "uint256"
            },
            {
              "internalType": "uint256[]",
              "name": "buffIds",
              "type": "uint256[]"
            },
            {
              "internalType": "string[]",
              "name": "events",
              "type": "string[]"
            },
            {
              "internalType": "bool",
              "name": "ticketIsEth",
              "type": "bool"
            },
            {
              "internalType": "contract IERC20",
              "name": "ticketsToken",
              "type": "address"
            },
            {
              "internalType": "uint256",
              "name": "ticketAmount",
              "type": "uint256"
            },
            {
              "internalType": "uint256",
              "name": "effectStartTime",
              "type": "uint256"
            },
            {
              "internalType": "uint256",
              "name": "effectEndTime",
              "type": "uint256"
            },
            {
              "internalType": "bool",
              "name": "daily",
              "type": "bool"
            },
            {
              "internalType": "uint256",
              "name": "startH",
              "type": "uint256"
            },
            {
              "internalType": "uint256",
              "name": "startM",
              "type": "uint256"
            },
            {
              "internalType": "bool",
              "name": "exist",
              "type": "bool"
            },
            {
              "internalType": "address",
              "name": "creator",
              "type": "address"
            }
          ],
          "internalType": "struct GameDataStorage.GameDetail[]",
          "name": "",
          "type": "tuple[]"
        }
      ],
      "stateMutability": "view",
      "type": "function"
    },
    {
      "inputs": [
        {
          "internalType": "uint256",
          "name": "_gameId",
          "type": "uint256"
        },
        {
          "internalType": "uint256",
          "name": "_ground",
          "type": "uint256"
        }
      ],
      "name": "getPlayers",
      "outputs": [
        {
          "internalType": "address[]",
          "name": "",
          "type": "address[]"
        }
      ],
      "stateMutability": "view",
      "type": "function"
    },
    {
      "inputs": [
        {
          "internalType": "uint256",
          "name": "_gameId",
          "type": "uint256"
        },
        {
          "internalType": "uint256",
          "name": "_round",
          "type": "uint256"
        }
      ],
      "name": "getTicketsPool",
      "outputs": [
        {
          "internalType": "uint256",
          "name": "",
          "type": "uint256"
        }
      ],
      "stateMutability": "view",
      "type": "function"
    },
    {
      "inputs": [
        {
          "internalType": "uint256",
          "name": "_gameId",
          "type": "uint256"
        },
        {
          "internalType": "address",
          "name": "_sponsor",
          "type": "address"
        },
        {
          "internalType": "uint256",
          "name": "_launchTime",
          "type": "uint256"
        }
      ],
      "name": "initGameRound",
      "outputs": [],
      "stateMutability": "nonpayable",
      "type": "function"
    },
    {
      "inputs": [
        {
          "internalType": "address",
          "name": "",
          "type": "address"
        }
      ],
      "name": "operators",
      "outputs": [
        {
          "internalType": "bool",
          "name": "",
          "type": "bool"
        }
      ],
      "stateMutability": "view",
      "type": "function"
    },
    {
      "inputs": [],
      "name": "owner",
      "outputs": [
        {
          "internalType": "address",
          "name": "",
          "type": "address"
        }
      ],
      "stateMutability": "view",
      "type": "function"
    },
    {
      "inputs": [
        {
          "internalType": "uint256",
          "name": "_gameId",
          "type": "uint256"
        },
        {
          "internalType": "uint256",
          "name": "_round",
          "type": "uint256"
        },
        {
          "internalType": "uint256[]",
          "name": "_indexes",
          "type": "uint256[]"
        }
      ],
      "name": "setBuffPlayers",
      "outputs": [],
      "stateMutability": "nonpayable",
      "type": "function"
    },
    {
      "inputs": [
        {
          "internalType": "string",
          "name": "_appId",
          "type": "string"
        },
        {
          "components": [
            {
              "internalType": "uint256",
              "name": "id",
              "type": "uint256"
            },
            {
              "internalType": "uint256",
              "name": "category",
              "type": "uint256"
            },
            {
              "internalType": "string",
              "name": "appId",
              "type": "string"
            },
            {
              "internalType": "int256",
              "name": "groupId",
              "type": "int256"
            },
            {
              "internalType": "uint256",
              "name": "botType",
              "type": "uint256"
            },
            {
              "internalType": "string",
              "name": "title",
              "type": "string"
            },
            {
              "internalType": "string",
              "name": "introduction",
              "type": "string"
            },
            {
              "internalType": "string",
              "name": "story",
              "type": "string"
            },
            {
              "internalType": "uint256",
              "name": "eliminateProportion",
              "type": "uint256"
            },
            {
              "internalType": "uint256",
              "name": "awardProportion",
              "type": "uint256"
            },
            {
              "internalType": "uint256",
              "name": "winNum",
              "type": "uint256"
            },
            {
              "internalType": "uint256[]",
              "name": "buffIds",
              "type": "uint256[]"
            },
            {
              "internalType": "string[]",
              "name": "events",
              "type": "string[]"
            },
            {
              "internalType": "bool",
              "name": "ticketIsEth",
              "type": "bool"
            },
            {
              "internalType": "contract IERC20",
              "name": "ticketsToken",
              "type": "address"
            },
            {
              "internalType": "uint256",
              "name": "ticketAmount",
              "type": "uint256"
            },
            {
              "internalType": "uint256",
              "name": "effectStartTime",
              "type": "uint256"
            },
            {
              "internalType": "uint256",
              "name": "effectEndTime",
              "type": "uint256"
            },
            {
              "internalType": "bool",
              "name": "daily",
              "type": "bool"
            },
            {
              "internalType": "uint256",
              "name": "startH",
              "type": "uint256"
            },
            {
              "internalType": "uint256",
              "name": "startM",
              "type": "uint256"
            },
            {
              "internalType": "bool",
              "name": "exist",
              "type": "bool"
            },
            {
              "internalType": "address",
              "name": "creator",
              "type": "address"
            }
          ],
          "internalType": "struct GameDataStorage.GameDetail",
          "name": "_game",
          "type": "tuple"
        }
      ],
      "name": "setGame",
      "outputs": [],
      "stateMutability": "nonpayable",
      "type": "function"
    },
    {
      "inputs": [
        {
          "internalType": "uint256",
          "name": "_gameId",
          "type": "uint256"
        },
        {
          "internalType": "uint256",
          "name": "_round",
          "type": "uint256"
        },
        {
          "internalType": "address[]",
          "name": "_players",
          "type": "address[]"
        }
      ],
      "name": "setPlayers",
      "outputs": [],
      "stateMutability": "nonpayable",
      "type": "function"
    },
    {
      "inputs": [
        {
          "internalType": "address",
          "name": "_newOwner",
          "type": "address"
        }
      ],
      "name": "transferOwner",
      "outputs": [],
      "stateMutability": "nonpayable",
      "type": "function"
    }
  ],
  "bytecode": "0x60806040523480156200001157600080fd5b50336000806101000a81548173ffffffffffffffffffffffffffffffffffffffff021916908373ffffffffffffffffffffffffffffffffffffffff16021790555062000063336200006960201b60201c565b620001d7565b60008054906101000a900473ffffffffffffffffffffffffffffffffffffffff1673ffffffffffffffffffffffffffffffffffffffff163373ffffffffffffffffffffffffffffffffffffffff1614620000fa576040517f08c379a0000000000000000000000000000000000000000000000000000000008152600401620000f190620001b5565b60405180910390fd5b60018060008373ffffffffffffffffffffffffffffffffffffffff1673ffffffffffffffffffffffffffffffffffffffff16815260200190815260200160002060006101000a81548160ff02191690831515021790555050565b600082825260208201905092915050565b7f4f6e6c79204f776e657200000000000000000000000000000000000000000000600082015250565b60006200019d600a8362000154565b9150620001aa8262000165565b602082019050919050565b60006020820190508181036000830152620001d0816200018e565b9050919050565b61517280620001e76000396000f3fe608060405234801561001057600080fd5b50600436106101825760003560e01c80638da5cb5b116100d8578063a996265a1161008c578063e635765411610066578063e635765414610453578063ea7a48da14610483578063ffe41ad31461049f57610182565b8063a996265a146103d7578063b49d53a214610407578063dc3dd69e1461042357610182565b80639870d7fe116100bd5780639870d7fe1461036d5780639f668bba14610389578063a2f77bcc146103a757610182565b80638da5cb5b146103335780639851ad4b1461035157610182565b80634fb2e45d1161013a5780636cc5f3ad116101145780636cc5f3ad146102a357806370c1b1d7146102d3578063751938af1461030357610182565b80634fb2e45d1461023b57806357e40a64146102575780636a3f5dc51461027357610182565b80632c22c0361161016b5780632c22c036146101e75780633e30838d1461020357806342f2a5e31461021f57610182565b80630d2dce221461018757806313e7c9d8146101b7575b600080fd5b6101a1600480360381019061019c9190613250565b6104bb565b6040516101ae9190613380565b60405180910390f35b6101d160048036038101906101cc91906133ce565b61056e565b6040516101de9190613416565b60405180910390f35b61020160048036038101906101fc919061358a565b61058e565b005b61021d600480360381019061021891906133ce565b610713565b005b610239600480360381019061023491906135f9565b6107fc565b005b610255600480360381019061025091906133ce565b6108d8565b005b610271600480360381019061026c919061364c565b610a79565b005b61028d60048036038101906102889190613250565b610e1a565b60405161029a919061375d565b60405180910390f35b6102bd60048036038101906102b8919061377f565b610e97565b6040516102ca9190613cd8565b60405180910390f35b6102ed60048036038101906102e89190613250565b611460565b6040516102fa9190613f07565b60405180910390f35b61031d60048036038101906103189190613250565b6118e1565b60405161032a9190613f38565b60405180910390f35b61033b611910565b6040516103489190613f62565b60405180910390f35b61036b6004803603810190610366919061446f565b611934565b005b610387600480360381019061038291906133ce565b611ca5565b005b610391611d8d565b60405161039e919061375d565b60405180910390f35b6103c160048036038101906103bc91906144e7565b611de5565b6040516103ce9190614722565b60405180910390f35b6103f160048036038101906103ec9190614744565b612301565b6040516103fe919061375d565b60405180910390f35b610421600480360381019061041c9190614850565b612377565b005b61043d600480360381019061043891906144e7565b61266a565b60405161044a91906148ce565b60405180910390f35b61046d600480360381019061046891906144e7565b6126e4565b60405161047a9190614a9a565b60405180910390f35b61049d60048036038101906104989190614ce5565b612997565b005b6104b960048036038101906104b49190614d54565b612b7a565b005b606060056000848152602001908152602001600020600083815260200190815260200160002080548060200260200160405190810160405280929190818152602001828054801561056157602002820191906000526020600020905b8160009054906101000a900473ffffffffffffffffffffffffffffffffffffffff1673ffffffffffffffffffffffffffffffffffffffff1681526020019060010190808311610517575b5050505050905092915050565b60016020528060005260406000206000915054906101000a900460ff1681565b600160003373ffffffffffffffffffffffffffffffffffffffff1673ffffffffffffffffffffffffffffffffffffffff16815260200190815260200160002060009054906101000a900460ff1661061a576040517f08c379a000000000000000000000000000000000000000000000000000000000815260040161061190614e04565b60405180910390fd5b600060046000858152602001908152602001600020600084815260200190815260200160002080549050141561068857806004600085815260200190815260200160002060008481526020019081526020016000209080519060200190610682929190612e11565b5061070e565b60005b815181101561070c576004600085815260200190815260200160002060008481526020019081526020016000208282815181106106cb576106ca614e24565b5b60200260200101519080600181540180825580915050600190039060005260206000200160009091909190915055808061070490614e82565b91505061068b565b505b505050565b60008054906101000a900473ffffffffffffffffffffffffffffffffffffffff1673ffffffffffffffffffffffffffffffffffffffff163373ffffffffffffffffffffffffffffffffffffffff16146107a1576040517f08c379a000000000000000000000000000000000000000000000000000000000815260040161079890614f17565b60405180910390fd5b6000600160008373ffffffffffffffffffffffffffffffffffffffff1673ffffffffffffffffffffffffffffffffffffffff16815260200190815260200160002060006101000a81548160ff02191690831515021790555050565b600160003373ffffffffffffffffffffffffffffffffffffffff1673ffffffffffffffffffffffffffffffffffffffff16815260200190815260200160002060009054906101000a900460ff16610888576040517f08c379a000000000000000000000000000000000000000000000000000000000815260040161087f90614e04565b60405180910390fd5b600460008481526020019081526020016000206000838152602001908152602001600020819080600181540180825580915050600190039060005260206000200160009091909190915055505050565b60008054906101000a900473ffffffffffffffffffffffffffffffffffffffff1673ffffffffffffffffffffffffffffffffffffffff163373ffffffffffffffffffffffffffffffffffffffff1614610966576040517f08c379a000000000000000000000000000000000000000000000000000000000815260040161095d90614f17565b60405180910390fd5b6000600160008060009054906101000a900473ffffffffffffffffffffffffffffffffffffffff1673ffffffffffffffffffffffffffffffffffffffff1673ffffffffffffffffffffffffffffffffffffffff16815260200190815260200160002060006101000a81548160ff021916908315150217905550806000806101000a81548173ffffffffffffffffffffffffffffffffffffffff021916908373ffffffffffffffffffffffffffffffffffffffff16021790555060018060008373ffffffffffffffffffffffffffffffffffffffff1673ffffffffffffffffffffffffffffffffffffffff16815260200190815260200160002060006101000a81548160ff02191690831515021790555050565b600160003373ffffffffffffffffffffffffffffffffffffffff1673ffffffffffffffffffffffffffffffffffffffff16815260200190815260200160002060009054906101000a900460ff16610b05576040517f08c379a0000000000000000000000000000000000000000000000000000000008152600401610afc90614e04565b60405180910390fd5b6002600084815260200190815260200160002060140160009054906101000a900460ff1615610e15576000604051806101400160405280858152602001600067ffffffffffffffff811115610b5d57610b5c613447565b5b604051908082528060200260200182016040528015610b8b5781602001602082028036833780820191505090505b508152602001600081526020018473ffffffffffffffffffffffffffffffffffffffff168152602001838152602001600067ffffffffffffffff811115610bd557610bd4613447565b5b604051908082528060200260200182016040528015610c035781602001602082028036833780820191505090505b508152602001600067ffffffffffffffff811115610c2457610c23613447565b5b604051908082528060200260200182016040528015610c525781602001602082028036833780820191505090505b508152602001600067ffffffffffffffff811115610c7357610c72613447565b5b604051908082528060200260200182016040528015610ca15781602001602082028036833780820191505090505b50815260200160011515815260200160001515815250905060086000858152602001908152602001600020819080600181540180825580915050600190039060005260206000209060090201600090919091909150600082015181600001556020820151816001019080519060200190610d1c929190612e5e565b506040820151816002015560608201518160030160006101000a81548173ffffffffffffffffffffffffffffffffffffffff021916908373ffffffffffffffffffffffffffffffffffffffff1602179055506080820151816004015560a0820151816005019080519060200190610d94929190612ee8565b5060c0820151816006019080519060200190610db1929190612ee8565b5060e0820151816007019080519060200190610dce929190612ee8565b506101008201518160080160006101000a81548160ff0219169083151502179055506101208201518160080160016101000a81548160ff0219169083151502179055505050505b505050565b6060600460008481526020019081526020016000206000838152602001908152602001600020805480602002602001604051908101604052809291908181526020018280548015610e8a57602002820191906000526020600020905b815481526020019060010190808311610e76575b5050505050905092915050565b60606000825167ffffffffffffffff811115610eb657610eb5613447565b5b604051908082528060200260200182016040528015610eef57816020015b610edc612f35565b815260200190600190039081610ed45790505b50905060005b83518110156114565760026000858381518110610f1557610f14614e24565b5b60200260200101518152602001908152602001600020604051806102e00160405290816000820154815260200160018201548152602001600282018054610f5b90614f66565b80601f0160208091040260200160405190810160405280929190818152602001828054610f8790614f66565b8015610fd45780601f10610fa957610100808354040283529160200191610fd4565b820191906000526020600020905b815481529060010190602001808311610fb757829003601f168201915b50505050508152602001600382015481526020016004820154815260200160058201805461100190614f66565b80601f016020809104026020016040519081016040528092919081815260200182805461102d90614f66565b801561107a5780601f1061104f5761010080835404028352916020019161107a565b820191906000526020600020905b81548152906001019060200180831161105d57829003601f168201915b5050505050815260200160068201805461109390614f66565b80601f01602080910402602001604051908101604052809291908181526020018280546110bf90614f66565b801561110c5780601f106110e15761010080835404028352916020019161110c565b820191906000526020600020905b8154815290600101906020018083116110ef57829003601f168201915b5050505050815260200160078201805461112590614f66565b80601f016020809104026020016040519081016040528092919081815260200182805461115190614f66565b801561119e5780601f106111735761010080835404028352916020019161119e565b820191906000526020600020905b81548152906001019060200180831161118157829003601f168201915b505050505081526020016008820154815260200160098201548152602001600a8201548152602001600b820180548060200260200160405190810160405280929190818152602001828054801561121457602002820191906000526020600020905b815481526020019060010190808311611200575b50505050508152602001600c8201805480602002602001604051908101604052809291908181526020016000905b828210156112ee57838290600052602060002001805461126190614f66565b80601f016020809104026020016040519081016040528092919081815260200182805461128d90614f66565b80156112da5780601f106112af576101008083540402835291602001916112da565b820191906000526020600020905b8154815290600101906020018083116112bd57829003601f168201915b505050505081526020019060010190611242565b505050508152602001600d820160009054906101000a900460ff16151515158152602001600d820160019054906101000a900473ffffffffffffffffffffffffffffffffffffffff1673ffffffffffffffffffffffffffffffffffffffff1673ffffffffffffffffffffffffffffffffffffffff168152602001600e8201548152602001600f8201548152602001601082015481526020016011820160009054906101000a900460ff1615151515815260200160128201548152602001601382015481526020016014820160009054906101000a900460ff161515151581526020016014820160019054906101000a900473ffffffffffffffffffffffffffffffffffffffff1673ffffffffffffffffffffffffffffffffffffffff1673ffffffffffffffffffffffffffffffffffffffff168152505082828151811061143857611437614e24565b5b6020026020010181905250808061144e90614e82565b915050610ef5565b5080915050919050565b611468613015565b600060405180610140016040528060008152602001600067ffffffffffffffff81111561149857611497613447565b5b6040519080825280602002602001820160405280156114c65781602001602082028036833780820191505090505b50815260200160008152602001600073ffffffffffffffffffffffffffffffffffffffff16815260200160008152602001600067ffffffffffffffff81111561151257611511613447565b5b6040519080825280602002602001820160405280156115405781602001602082028036833780820191505090505b508152602001600067ffffffffffffffff81111561156157611560613447565b5b60405190808252806020026020018201604052801561158f5781602001602082028036833780820191505090505b508152602001600067ffffffffffffffff8111156115b0576115af613447565b5b6040519080825280602002602001820160405280156115de5781602001602082028036833780820191505090505b50815260200160001515815260200160001515815250905060006008600086815260200190815260200160002080549050141561161e57809150506118db565b8261164960016008600088815260200190815260200160002080549050612d0590919063ffffffff16565b101561165857809150506118db565b60086000858152602001908152602001600020838154811061167d5761167c614e24565b5b906000526020600020906009020160405180610140016040529081600082015481526020016001820180548060200260200160405190810160405280929190818152602001828054801561172657602002820191906000526020600020905b8160009054906101000a900473ffffffffffffffffffffffffffffffffffffffff1673ffffffffffffffffffffffffffffffffffffffff16815260200190600101908083116116dc575b50505050508152602001600282015481526020016003820160009054906101000a900473ffffffffffffffffffffffffffffffffffffffff1673ffffffffffffffffffffffffffffffffffffffff1673ffffffffffffffffffffffffffffffffffffffff16815260200160048201548152602001600582018054806020026020016040519081016040528092919081815260200182805480156117e857602002820191906000526020600020905b8154815260200190600101908083116117d4575b505050505081526020016006820180548060200260200160405190810160405280929190818152602001828054801561184057602002820191906000526020600020905b81548152602001906001019080831161182c575b505050505081526020016007820180548060200260200160405190810160405280929190818152602001828054801561189857602002820191906000526020600020905b815481526020019060010190808311611884575b505050505081526020016008820160009054906101000a900460ff161515151581526020016008820160019054906101000a900460ff1615151515815250509150505b92915050565b600060066000848152602001908152602001600020600083815260200190815260200160002054905092915050565b60008054906101000a900473ffffffffffffffffffffffffffffffffffffffff1681565b600160003373ffffffffffffffffffffffffffffffffffffffff1673ffffffffffffffffffffffffffffffffffffffff16815260200190815260200160002060009054906101000a900460ff166119c0576040517f08c379a00000000000000000000000000000000000000000000000000000000081526004016119b790614e04565b60405180910390fd5b600260008260000151815260200190815260200160002060140160009054906101000a900460ff16611ca15780600260008360000151815260200190815260200160002060008201518160000155602082015181600101556040820151816002019080519060200190611a34929190613082565b50606082015181600301556080820151816004015560a0820151816005019080519060200190611a65929190613082565b5060c0820151816006019080519060200190611a82929190613082565b5060e0820151816007019080519060200190611a9f929190613082565b506101008201518160080155610120820151816009015561014082015181600a015561016082015181600b019080519060200190611ade929190612e11565b5061018082015181600c019080519060200190611afc929190613108565b506101a082015181600d0160006101000a81548160ff0219169083151502179055506101c082015181600d0160016101000a81548173ffffffffffffffffffffffffffffffffffffffff021916908373ffffffffffffffffffffffffffffffffffffffff1602179055506101e082015181600e015561020082015181600f015561022082015181601001556102408201518160110160006101000a81548160ff021916908315150217905550610260820151816012015561028082015181601301556102a08201518160140160006101000a81548160ff0219169083151502179055506102c08201518160140160016101000a81548173ffffffffffffffffffffffffffffffffffffffff021916908373ffffffffffffffffffffffffffffffffffffffff160217905550905050600382604051611c3a9190614fd4565b9081526020016040518091039020816000015190806001815401808255809150506001900390600052602060002001600090919091909150556007816000015190806001815401808255809150506001900390600052602060002001600090919091909150555b5050565b60008054906101000a900473ffffffffffffffffffffffffffffffffffffffff1673ffffffffffffffffffffffffffffffffffffffff163373ffffffffffffffffffffffffffffffffffffffff1614611d33576040517f08c379a0000000000000000000000000000000000000000000000000000000008152600401611d2a90614f17565b60405180910390fd5b60018060008373ffffffffffffffffffffffffffffffffffffffff1673ffffffffffffffffffffffffffffffffffffffff16815260200190815260200160002060006101000a81548160ff02191690831515021790555050565b60606007805480602002602001604051908101604052809291908181526020018280548015611ddb57602002820191906000526020600020905b815481526020019060010190808311611dc7575b5050505050905090565b611ded612f35565b60026000838152602001908152602001600020604051806102e00160405290816000820154815260200160018201548152602001600282018054611e3090614f66565b80601f0160208091040260200160405190810160405280929190818152602001828054611e5c90614f66565b8015611ea95780601f10611e7e57610100808354040283529160200191611ea9565b820191906000526020600020905b815481529060010190602001808311611e8c57829003601f168201915b505050505081526020016003820154815260200160048201548152602001600582018054611ed690614f66565b80601f0160208091040260200160405190810160405280929190818152602001828054611f0290614f66565b8015611f4f5780601f10611f2457610100808354040283529160200191611f4f565b820191906000526020600020905b815481529060010190602001808311611f3257829003601f168201915b50505050508152602001600682018054611f6890614f66565b80601f0160208091040260200160405190810160405280929190818152602001828054611f9490614f66565b8015611fe15780601f10611fb657610100808354040283529160200191611fe1565b820191906000526020600020905b815481529060010190602001808311611fc457829003601f168201915b50505050508152602001600782018054611ffa90614f66565b80601f016020809104026020016040519081016040528092919081815260200182805461202690614f66565b80156120735780601f1061204857610100808354040283529160200191612073565b820191906000526020600020905b81548152906001019060200180831161205657829003601f168201915b505050505081526020016008820154815260200160098201548152602001600a8201548152602001600b82018054806020026020016040519081016040528092919081815260200182805480156120e957602002820191906000526020600020905b8154815260200190600101908083116120d5575b50505050508152602001600c8201805480602002602001604051908101604052809291908181526020016000905b828210156121c357838290600052602060002001805461213690614f66565b80601f016020809104026020016040519081016040528092919081815260200182805461216290614f66565b80156121af5780601f10612184576101008083540402835291602001916121af565b820191906000526020600020905b81548152906001019060200180831161219257829003601f168201915b505050505081526020019060010190612117565b505050508152602001600d820160009054906101000a900460ff16151515158152602001600d820160019054906101000a900473ffffffffffffffffffffffffffffffffffffffff1673ffffffffffffffffffffffffffffffffffffffff1673ffffffffffffffffffffffffffffffffffffffff168152602001600e8201548152602001600f8201548152602001601082015481526020016011820160009054906101000a900460ff1615151515815260200160128201548152602001601382015481526020016014820160009054906101000a900460ff161515151581526020016014820160019054906101000a900473ffffffffffffffffffffffffffffffffffffffff1673ffffffffffffffffffffffffffffffffffffffff1673ffffffffffffffffffffffffffffffffffffffff16815250509050919050565b60606003826040516123139190614fd4565b908152602001604051809103902080548060200260200160405190810160405280929190818152602001828054801561236b57602002820191906000526020600020905b815481526020019060010190808311612357575b50505050509050919050565b600160003373ffffffffffffffffffffffffffffffffffffffff1673ffffffffffffffffffffffffffffffffffffffff16815260200190815260200160002060009054906101000a900460ff16612403576040517f08c379a00000000000000000000000000000000000000000000000000000000081526004016123fa90614e04565b60405180910390fd5b60005b81518110156125365760056000858152602001908152602001600020600084815260200190815260200160002082828151811061244657612445614e24565b5b60200260200101519080600181540180825580915050600190039060005260206000200160009091909190916101000a81548173ffffffffffffffffffffffffffffffffffffffff021916908373ffffffffffffffffffffffffffffffffffffffff1602179055506124fb60026000868152602001908152602001600020600e015460066000878152602001908152602001600020600086815260200190815260200160002054612d4f90919063ffffffff16565b60066000868152602001908152602001600020600085815260200190815260200160002081905550808061252e90614e82565b915050612406565b5060006005600085815260200190815260200160002060008481526020019081526020016000208054905014156125a55780600560008581526020019081526020016000206000848152602001908152602001600020908051906020019061259f929190612e5e565b50612665565b60005b8151811015612663576005600085815260200190815260200160002060008481526020019081526020016000208282815181106125e8576125e7614e24565b5b60200260200101519080600181540180825580915050600190039060005260206000200160009091909190916101000a81548173ffffffffffffffffffffffffffffffffffffffff021916908373ffffffffffffffffffffffffffffffffffffffff160217905550808061265b90614e82565b9150506125a8565b505b505050565b600080600860008481526020019081526020016000208054905011156126bb576126b460016008600085815260200190815260200160002080549050612d0590919063ffffffff16565b90506126df565b7fffffffffffffffffffffffffffffffffffffffffffffffffffffffffffffffff90505b919050565b606060086000838152602001908152602001600020805480602002602001604051908101604052809291908181526020016000905b8282101561298c57838290600052602060002090600902016040518061014001604052908160008201548152602001600182018054806020026020016040519081016040528092919081815260200182805480156127cc57602002820191906000526020600020905b8160009054906101000a900473ffffffffffffffffffffffffffffffffffffffff1673ffffffffffffffffffffffffffffffffffffffff1681526020019060010190808311612782575b50505050508152602001600282015481526020016003820160009054906101000a900473ffffffffffffffffffffffffffffffffffffffff1673ffffffffffffffffffffffffffffffffffffffff1673ffffffffffffffffffffffffffffffffffffffff168152602001600482015481526020016005820180548060200260200160405190810160405280929190818152602001828054801561288e57602002820191906000526020600020905b81548152602001906001019080831161287a575b50505050508152602001600682018054806020026020016040519081016040528092919081815260200182805480156128e657602002820191906000526020600020905b8154815260200190600101908083116128d2575b505050505081526020016007820180548060200260200160405190810160405280929190818152602001828054801561293e57602002820191906000526020600020905b81548152602001906001019080831161292a575b505050505081526020016008820160009054906101000a900460ff161515151581526020016008820160019054906101000a900460ff16151515158152505081526020019060010190612719565b505050509050919050565b600160003373ffffffffffffffffffffffffffffffffffffffff1673ffffffffffffffffffffffffffffffffffffffff16815260200190815260200160002060009054906101000a900460ff16612a23576040517f08c379a0000000000000000000000000000000000000000000000000000000008152600401612a1a90614e04565b60405180910390fd5b80600860008581526020019081526020016000208381548110612a4957612a48614e24565b5b9060005260206000209060090201600082015181600001556020820151816001019080519060200190612a7d929190612e5e565b506040820151816002015560608201518160030160006101000a81548173ffffffffffffffffffffffffffffffffffffffff021916908373ffffffffffffffffffffffffffffffffffffffff1602179055506080820151816004015560a0820151816005019080519060200190612af5929190612ee8565b5060c0820151816006019080519060200190612b12929190612ee8565b5060e0820151816007019080519060200190612b2f929190612ee8565b506101008201518160080160006101000a81548160ff0219169083151502179055506101208201518160080160016101000a81548160ff021916908315150217905550905050505050565b600160003373ffffffffffffffffffffffffffffffffffffffff1673ffffffffffffffffffffffffffffffffffffffff16815260200190815260200160002060009054906101000a900460ff16612c06576040517f08c379a0000000000000000000000000000000000000000000000000000000008152600401612bfd90614e04565b60405180910390fd5b600560008481526020019081526020016000206000838152602001908152602001600020819080600181540180825580915050600190039060005260206000200160009091909190916101000a81548173ffffffffffffffffffffffffffffffffffffffff021916908373ffffffffffffffffffffffffffffffffffffffff160217905550612cd860026000858152602001908152602001600020600e015460066000868152602001908152602001600020600085815260200190815260200160002054612d4f90919063ffffffff16565b60066000858152602001908152602001600020600084815260200190815260200160002081905550505050565b6000612d4783836040518060400160405280601e81526020017f536166654d6174683a207375627472616374696f6e206f766572666c6f770000815250612dad565b905092915050565b6000808284612d5e9190614feb565b905083811015612da3576040517f08c379a0000000000000000000000000000000000000000000000000000000008152600401612d9a9061508d565b60405180910390fd5b8091505092915050565b6000838311158290612df5576040517f08c379a0000000000000000000000000000000000000000000000000000000008152600401612dec91906150e6565b60405180910390fd5b5060008385612e049190615108565b9050809150509392505050565b828054828255906000526020600020908101928215612e4d579160200282015b82811115612e4c578251825591602001919060010190612e31565b5b509050612e5a9190613168565b5090565b828054828255906000526020600020908101928215612ed7579160200282015b82811115612ed65782518260006101000a81548173ffffffffffffffffffffffffffffffffffffffff021916908373ffffffffffffffffffffffffffffffffffffffff16021790555091602001919060010190612e7e565b5b509050612ee49190613168565b5090565b828054828255906000526020600020908101928215612f24579160200282015b82811115612f23578251825591602001919060010190612f08565b5b509050612f319190613185565b5090565b604051806102e0016040528060008152602001600081526020016060815260200160008152602001600081526020016060815260200160608152602001606081526020016000815260200160008152602001600081526020016060815260200160608152602001600015158152602001600073ffffffffffffffffffffffffffffffffffffffff1681526020016000815260200160008152602001600081526020016000151581526020016000815260200160008152602001600015158152602001600073ffffffffffffffffffffffffffffffffffffffff1681525090565b604051806101400160405280600081526020016060815260200160008152602001600073ffffffffffffffffffffffffffffffffffffffff168152602001600081526020016060815260200160608152602001606081526020016000151581526020016000151581525090565b82805461308e90614f66565b90600052602060002090601f0160209004810192826130b057600085556130f7565b82601f106130c957805160ff19168380011785556130f7565b828001600101855582156130f7579182015b828111156130f65782518255916020019190600101906130db565b5b5090506131049190613168565b5090565b828054828255906000526020600020908101928215613157579160200282015b82811115613156578251829080519060200190613146929190613082565b5091602001919060010190613128565b5b50905061316491906131a2565b5090565b5b80821115613181576000816000905550600101613169565b5090565b5b8082111561319e576000816000905550600101613186565b5090565b5b808211156131c257600081816131b991906131c6565b506001016131a3565b5090565b5080546131d290614f66565b6000825580601f106131e45750613203565b601f0160209004906000526020600020908101906132029190613168565b5b50565b6000604051905090565b600080fd5b600080fd5b6000819050919050565b61322d8161321a565b811461323857600080fd5b50565b60008135905061324a81613224565b92915050565b6000806040838503121561326757613266613210565b5b60006132758582860161323b565b92505060206132868582860161323b565b9150509250929050565b600081519050919050565b600082825260208201905092915050565b6000819050602082019050919050565b600073ffffffffffffffffffffffffffffffffffffffff82169050919050565b60006132e7826132bc565b9050919050565b6132f7816132dc565b82525050565b600061330983836132ee565b60208301905092915050565b6000602082019050919050565b600061332d82613290565b613337818561329b565b9350613342836132ac565b8060005b8381101561337357815161335a88826132fd565b975061336583613315565b925050600181019050613346565b5085935050505092915050565b6000602082019050818103600083015261339a8184613322565b905092915050565b6133ab816132dc565b81146133b657600080fd5b50565b6000813590506133c8816133a2565b92915050565b6000602082840312156133e4576133e3613210565b5b60006133f2848285016133b9565b91505092915050565b60008115159050919050565b613410816133fb565b82525050565b600060208201905061342b6000830184613407565b92915050565b600080fd5b6000601f19601f8301169050919050565b7f4e487b7100000000000000000000000000000000000000000000000000000000600052604160045260246000fd5b61347f82613436565b810181811067ffffffffffffffff8211171561349e5761349d613447565b5b80604052505050565b60006134b1613206565b90506134bd8282613476565b919050565b600067ffffffffffffffff8211156134dd576134dc613447565b5b602082029050602081019050919050565b600080fd5b6000613506613501846134c2565b6134a7565b90508083825260208201905060208402830185811115613529576135286134ee565b5b835b81811015613552578061353e888261323b565b84526020840193505060208101905061352b565b5050509392505050565b600082601f83011261357157613570613431565b5b81356135818482602086016134f3565b91505092915050565b6000806000606084860312156135a3576135a2613210565b5b60006135b18682870161323b565b93505060206135c28682870161323b565b925050604084013567ffffffffffffffff8111156135e3576135e2613215565b5b6135ef8682870161355c565b9150509250925092565b60008060006060848603121561361257613611613210565b5b60006136208682870161323b565b93505060206136318682870161323b565b92505060406136428682870161323b565b9150509250925092565b60008060006060848603121561366557613664613210565b5b60006136738682870161323b565b9350506020613684868287016133b9565b92505060406136958682870161323b565b9150509250925092565b600081519050919050565b600082825260208201905092915050565b6000819050602082019050919050565b6136d48161321a565b82525050565b60006136e683836136cb565b60208301905092915050565b6000602082019050919050565b600061370a8261369f565b61371481856136aa565b935061371f836136bb565b8060005b8381101561375057815161373788826136da565b9750613742836136f2565b925050600181019050613723565b5085935050505092915050565b6000602082019050818103600083015261377781846136ff565b905092915050565b60006020828403121561379557613794613210565b5b600082013567ffffffffffffffff8111156137b3576137b2613215565b5b6137bf8482850161355c565b91505092915050565b600081519050919050565b600082825260208201905092915050565b6000819050602082019050919050565b600081519050919050565b600082825260208201905092915050565b60005b8381101561382e578082015181840152602081019050613813565b8381111561383d576000848401525b50505050565b600061384e826137f4565b61385881856137ff565b9350613868818560208601613810565b61387181613436565b840191505092915050565b6000819050919050565b61388f8161387c565b82525050565b600082825260208201905092915050565b60006138b18261369f565b6138bb8185613895565b93506138c6836136bb565b8060005b838110156138f75781516138de88826136da565b97506138e9836136f2565b9250506001810190506138ca565b5085935050505092915050565b600081519050919050565b600082825260208201905092915050565b6000819050602082019050919050565b600061393c8383613843565b905092915050565b6000602082019050919050565b600061395c82613904565b613966818561390f565b93508360208202850161397885613920565b8060005b858110156139b457848403895281516139958582613930565b94506139a083613944565b925060208a0199505060018101905061397c565b50829750879550505050505092915050565b6139cf816133fb565b82525050565b6000819050919050565b60006139fa6139f56139f0846132bc565b6139d5565b6132bc565b9050919050565b6000613a0c826139df565b9050919050565b6000613a1e82613a01565b9050919050565b613a2e81613a13565b82525050565b60006102e083016000830151613a4d60008601826136cb565b506020830151613a6060208601826136cb565b5060408301518482036040860152613a788282613843565b9150506060830151613a8d6060860182613886565b506080830151613aa060808601826136cb565b5060a083015184820360a0860152613ab88282613843565b91505060c083015184820360c0860152613ad28282613843565b91505060e083015184820360e0860152613aec8282613843565b915050610100830151613b036101008601826136cb565b50610120830151613b186101208601826136cb565b50610140830151613b2d6101408601826136cb565b50610160830151848203610160860152613b4782826138a6565b915050610180830151848203610180860152613b638282613951565b9150506101a0830151613b7a6101a08601826139c6565b506101c0830151613b8f6101c0860182613a25565b506101e0830151613ba46101e08601826136cb565b50610200830151613bb96102008601826136cb565b50610220830151613bce6102208601826136cb565b50610240830151613be36102408601826139c6565b50610260830151613bf86102608601826136cb565b50610280830151613c0d6102808601826136cb565b506102a0830151613c226102a08601826139c6565b506102c0830151613c376102c08601826132ee565b508091505092915050565b6000613c4e8383613a34565b905092915050565b6000602082019050919050565b6000613c6e826137c8565b613c7881856137d3565b935083602082028501613c8a856137e4565b8060005b85811015613cc65784840389528151613ca78582613c42565b9450613cb283613c56565b925060208a01995050600181019050613c8e565b50829750879550505050505092915050565b60006020820190508181036000830152613cf28184613c63565b905092915050565b600082825260208201905092915050565b6000613d1682613290565b613d208185613cfa565b9350613d2b836132ac565b8060005b83811015613d5c578151613d4388826132fd565b9750613d4e83613315565b925050600181019050613d2f565b5085935050505092915050565b600081519050919050565b600082825260208201905092915050565b6000819050602082019050919050565b6000613da18383613886565b60208301905092915050565b6000602082019050919050565b6000613dc582613d69565b613dcf8185613d74565b9350613dda83613d85565b8060005b83811015613e0b578151613df28882613d95565b9750613dfd83613dad565b925050600181019050613dde565b5085935050505092915050565b600061014083016000830151613e3160008601826136cb565b5060208301518482036020860152613e498282613d0b565b9150506040830151613e5e60408601826136cb565b506060830151613e7160608601826132ee565b506080830151613e8460808601826136cb565b5060a083015184820360a0860152613e9c8282613dba565b91505060c083015184820360c0860152613eb68282613dba565b91505060e083015184820360e0860152613ed08282613dba565b915050610100830151613ee76101008601826139c6565b50610120830151613efc6101208601826139c6565b508091505092915050565b60006020820190508181036000830152613f218184613e18565b905092915050565b613f328161321a565b82525050565b6000602082019050613f4d6000830184613f29565b92915050565b613f5c816132dc565b82525050565b6000602082019050613f776000830184613f53565b92915050565b600080fd5b600067ffffffffffffffff821115613f9d57613f9c613447565b5b613fa682613436565b9050602081019050919050565b82818337600083830152505050565b6000613fd5613fd084613f82565b6134a7565b905082815260208101848484011115613ff157613ff0613f7d565b5b613ffc848285613fb3565b509392505050565b600082601f83011261401957614018613431565b5b8135614029848260208601613fc2565b91505092915050565b600080fd5b600080fd5b6140458161387c565b811461405057600080fd5b50565b6000813590506140628161403c565b92915050565b600067ffffffffffffffff82111561408357614082613447565b5b602082029050602081019050919050565b60006140a76140a284614068565b6134a7565b905080838252602082019050602084028301858111156140ca576140c96134ee565b5b835b8181101561411157803567ffffffffffffffff8111156140ef576140ee613431565b5b8086016140fc8982614004565b855260208501945050506020810190506140cc565b5050509392505050565b600082601f8301126141305761412f613431565b5b8135614140848260208601614094565b91505092915050565b614152816133fb565b811461415d57600080fd5b50565b60008135905061416f81614149565b92915050565b6000614180826132dc565b9050919050565b61419081614175565b811461419b57600080fd5b50565b6000813590506141ad81614187565b92915050565b60006102e082840312156141ca576141c9614032565b5b6141d56102e06134a7565b905060006141e58482850161323b565b60008301525060206141f98482850161323b565b602083015250604082013567ffffffffffffffff81111561421d5761421c614037565b5b61422984828501614004565b604083015250606061423d84828501614053565b60608301525060806142518482850161323b565b60808301525060a082013567ffffffffffffffff81111561427557614274614037565b5b61428184828501614004565b60a08301525060c082013567ffffffffffffffff8111156142a5576142a4614037565b5b6142b184828501614004565b60c08301525060e082013567ffffffffffffffff8111156142d5576142d4614037565b5b6142e184828501614004565b60e0830152506101006142f68482850161323b565b6101008301525061012061430c8482850161323b565b610120830152506101406143228482850161323b565b6101408301525061016082013567ffffffffffffffff81111561434857614347614037565b5b6143548482850161355c565b6101608301525061018082013567ffffffffffffffff81111561437a57614379614037565b5b6143868482850161411b565b610180830152506101a061439c84828501614160565b6101a0830152506101c06143b28482850161419e565b6101c0830152506101e06143c88482850161323b565b6101e0830152506102006143de8482850161323b565b610200830152506102206143f48482850161323b565b6102208301525061024061440a84828501614160565b610240830152506102606144208482850161323b565b610260830152506102806144368482850161323b565b610280830152506102a061444c84828501614160565b6102a0830152506102c0614462848285016133b9565b6102c08301525092915050565b6000806040838503121561448657614485613210565b5b600083013567ffffffffffffffff8111156144a4576144a3613215565b5b6144b085828601614004565b925050602083013567ffffffffffffffff8111156144d1576144d0613215565b5b6144dd858286016141b3565b9150509250929050565b6000602082840312156144fd576144fc613210565b5b600061450b8482850161323b565b91505092915050565b60006102e08301600083015161452d60008601826136cb565b50602083015161454060208601826136cb565b50604083015184820360408601526145588282613843565b915050606083015161456d6060860182613886565b50608083015161458060808601826136cb565b5060a083015184820360a08601526145988282613843565b91505060c083015184820360c08601526145b28282613843565b91505060e083015184820360e08601526145cc8282613843565b9150506101008301516145e36101008601826136cb565b506101208301516145f86101208601826136cb565b5061014083015161460d6101408601826136cb565b5061016083015184820361016086015261462782826138a6565b9150506101808301518482036101808601526146438282613951565b9150506101a083015161465a6101a08601826139c6565b506101c083015161466f6101c0860182613a25565b506101e08301516146846101e08601826136cb565b506102008301516146996102008601826136cb565b506102208301516146ae6102208601826136cb565b506102408301516146c36102408601826139c6565b506102608301516146d86102608601826136cb565b506102808301516146ed6102808601826136cb565b506102a08301516147026102a08601826139c6565b506102c08301516147176102c08601826132ee565b508091505092915050565b6000602082019050818103600083015261473c8184614514565b905092915050565b60006020828403121561475a57614759613210565b5b600082013567ffffffffffffffff81111561477857614777613215565b5b61478484828501614004565b91505092915050565b600067ffffffffffffffff8211156147a8576147a7613447565b5b602082029050602081019050919050565b60006147cc6147c78461478d565b6134a7565b905080838252602082019050602084028301858111156147ef576147ee6134ee565b5b835b81811015614818578061480488826133b9565b8452602084019350506020810190506147f1565b5050509392505050565b600082601f83011261483757614836613431565b5b81356148478482602086016147b9565b91505092915050565b60008060006060848603121561486957614868613210565b5b60006148778682870161323b565b93505060206148888682870161323b565b925050604084013567ffffffffffffffff8111156148a9576148a8613215565b5b6148b586828701614822565b9150509250925092565b6148c88161387c565b82525050565b60006020820190506148e360008301846148bf565b92915050565b600081519050919050565b600082825260208201905092915050565b6000819050602082019050919050565b60006101408301600083015161492e60008601826136cb565b50602083015184820360208601526149468282613d0b565b915050604083015161495b60408601826136cb565b50606083015161496e60608601826132ee565b50608083015161498160808601826136cb565b5060a083015184820360a08601526149998282613dba565b91505060c083015184820360c08601526149b38282613dba565b91505060e083015184820360e08601526149cd8282613dba565b9150506101008301516149e46101008601826139c6565b506101208301516149f96101208601826139c6565b508091505092915050565b6000614a108383614915565b905092915050565b6000602082019050919050565b6000614a30826148e9565b614a3a81856148f4565b935083602082028501614a4c85614905565b8060005b85811015614a885784840389528151614a698582614a04565b9450614a7483614a18565b925060208a01995050600181019050614a50565b50829750879550505050505092915050565b60006020820190508181036000830152614ab48184614a25565b905092915050565b600067ffffffffffffffff821115614ad757614ad6613447565b5b602082029050602081019050919050565b6000614afb614af684614abc565b6134a7565b90508083825260208201905060208402830185811115614b1e57614b1d6134ee565b5b835b81811015614b475780614b338882614053565b845260208401935050602081019050614b20565b5050509392505050565b600082601f830112614b6657614b65613431565b5b8135614b76848260208601614ae8565b91505092915050565b60006101408284031215614b9657614b95614032565b5b614ba16101406134a7565b90506000614bb18482850161323b565b600083015250602082013567ffffffffffffffff811115614bd557614bd4614037565b5b614be184828501614822565b6020830152506040614bf58482850161323b565b6040830152506060614c09848285016133b9565b6060830152506080614c1d8482850161323b565b60808301525060a082013567ffffffffffffffff811115614c4157614c40614037565b5b614c4d84828501614b51565b60a08301525060c082013567ffffffffffffffff811115614c7157614c70614037565b5b614c7d84828501614b51565b60c08301525060e082013567ffffffffffffffff811115614ca157614ca0614037565b5b614cad84828501614b51565b60e083015250610100614cc284828501614160565b61010083015250610120614cd884828501614160565b6101208301525092915050565b600080600060608486031215614cfe57614cfd613210565b5b6000614d0c8682870161323b565b9350506020614d1d8682870161323b565b925050604084013567ffffffffffffffff811115614d3e57614d3d613215565b5b614d4a86828701614b7f565b9150509250925092565b600080600060608486031215614d6d57614d6c613210565b5b6000614d7b8682870161323b565b9350506020614d8c8682870161323b565b9250506040614d9d868287016133b9565b9150509250925092565b600082825260208201905092915050565b7f4f6e6c79204f70657261746f7200000000000000000000000000000000000000600082015250565b6000614dee600d83614da7565b9150614df982614db8565b602082019050919050565b60006020820190508181036000830152614e1d81614de1565b9050919050565b7f4e487b7100000000000000000000000000000000000000000000000000000000600052603260045260246000fd5b7f4e487b7100000000000000000000000000000000000000000000000000000000600052601160045260246000fd5b6000614e8d8261321a565b91507fffffffffffffffffffffffffffffffffffffffffffffffffffffffffffffffff821415614ec057614ebf614e53565b5b600182019050919050565b7f4f6e6c79204f776e657200000000000000000000000000000000000000000000600082015250565b6000614f01600a83614da7565b9150614f0c82614ecb565b602082019050919050565b60006020820190508181036000830152614f3081614ef4565b9050919050565b7f4e487b7100000000000000000000000000000000000000000000000000000000600052602260045260246000fd5b60006002820490506001821680614f7e57607f821691505b60208210811415614f9257614f91614f37565b5b50919050565b600081905092915050565b6000614fae826137f4565b614fb88185614f98565b9350614fc8818560208601613810565b80840191505092915050565b6000614fe08284614fa3565b915081905092915050565b6000614ff68261321a565b91506150018361321a565b9250827fffffffffffffffffffffffffffffffffffffffffffffffffffffffffffffffff0382111561503657615035614e53565b5b828201905092915050565b7f536166654d6174683a206164646974696f6e206f766572666c6f770000000000600082015250565b6000615077601b83614da7565b915061508282615041565b602082019050919050565b600060208201905081810360008301526150a68161506a565b9050919050565b60006150b8826137f4565b6150c28185614da7565b93506150d2818560208601613810565b6150db81613436565b840191505092915050565b6000602082019050818103600083015261510081846150ad565b905092915050565b60006151138261321a565b915061511e8361321a565b92508282101561513157615130614e53565b5b82820390509291505056fea2646970667358221220650b139f61c94b9fcaedeef8a491974389f8e582e658f5de2e4cf114c74a2f4b64736f6c63430008090033",
  "linkReferences": {},
  "deployedLinkReferences": {}
}