{
  "_format": "hh-sol-artifact-1",
  "contractName": "GameDataStorage",
  "sourceName": "src/contracts/game/data_storage.sol",
  "abi": [
    {
      "inputs": [],
      "stateMutability": "nonpayable",
      "type": "constructor"
    },
    {
      "inputs": [
        {
          "internalType": "uint256",
          "name": "_gameId",
          "type": "uint256"
        },
        {
          "internalType": "uint256",
          "name": "_round",
          "type": "uint256"
        },
        {
          "internalType": "uint256",
          "name": "_index",
          "type": "uint256"
        }
      ],
      "name": "addBuffPlayers",
      "outputs": [],
      "stateMutability": "nonpayable",
      "type": "function"
    },
    {
      "inputs": [
        {
          "internalType": "address",
          "name": "_newOperator",
          "type": "address"
        }
      ],
      "name": "addOperator",
      "outputs": [],
      "stateMutability": "nonpayable",
      "type": "function"
    },
    {
      "inputs": [
        {
          "internalType": "uint256",
          "name": "_gameId",
          "type": "uint256"
        },
        {
          "internalType": "uint256",
          "name": "_round",
          "type": "uint256"
        },
        {
          "internalType": "address",
          "name": "_player",
          "type": "address"
        }
      ],
      "name": "addPlayer",
      "outputs": [],
      "stateMutability": "nonpayable",
      "type": "function"
    },
    {
      "inputs": [
        {
          "internalType": "address",
          "name": "_removeOperator",
          "type": "address"
        }
      ],
      "name": "delOperator",
      "outputs": [],
      "stateMutability": "nonpayable",
      "type": "function"
    },
    {
      "inputs": [
        {
          "internalType": "uint256",
          "name": "_gameId",
          "type": "uint256"
        },
        {
          "internalType": "uint256",
          "name": "_round",
          "type": "uint256"
        },
        {
          "components": [
            {
              "internalType": "uint256",
              "name": "gameId",
              "type": "uint256"
            },
            {
              "internalType": "uint256",
              "name": "round",
              "type": "uint256"
            },
            {
              "internalType": "address[]",
              "name": "winners",
              "type": "address[]"
            },
            {
              "internalType": "uint256",
              "name": "participate",
              "type": "uint256"
            },
            {
              "internalType": "address",
              "name": "sponsor",
              "type": "address"
            },
            {
              "internalType": "uint256",
              "name": "launchTime",
              "type": "uint256"
            },
            {
              "internalType": "int256[]",
              "name": "eliminatePlayerIndexes",
              "type": "int256[]"
            },
            {
              "internalType": "int256[]",
              "name": "buffUsersIndexes",
              "type": "int256[]"
            },
            {
              "internalType": "int256[]",
              "name": "eventsIndexes",
              "type": "int256[]"
            },
            {
              "internalType": "bool",
              "name": "over",
              "type": "bool"
            },
            {
              "internalType": "bool",
              "name": "exist",
              "type": "bool"
            }
          ],
          "internalType": "struct GameDataStorage.GameRound",
          "name": "_gameRound",
          "type": "tuple"
        }
      ],
      "name": "editGameRound",
      "outputs": [],
      "stateMutability": "nonpayable",
      "type": "function"
    },
    {
      "inputs": [
        {
          "internalType": "string",
          "name": "_appId",
          "type": "string"
        }
      ],
      "name": "getAppGames",
      "outputs": [
        {
          "internalType": "uint256[]",
          "name": "",
          "type": "uint256[]"
        }
      ],
      "stateMutability": "view",
      "type": "function"
    },
    {
      "inputs": [
        {
          "internalType": "uint256",
          "name": "_gameId",
          "type": "uint256"
        },
        {
          "internalType": "uint256",
          "name": "_round",
          "type": "uint256"
        }
      ],
      "name": "getBuffPlayers",
      "outputs": [
        {
          "internalType": "uint256[]",
          "name": "",
          "type": "uint256[]"
        }
      ],
      "stateMutability": "view",
      "type": "function"
    },
    {
      "inputs": [
        {
          "internalType": "uint256",
          "name": "_id",
          "type": "uint256"
        }
      ],
      "name": "getGame",
      "outputs": [
        {
          "components": [
            {
              "internalType": "uint256",
              "name": "id",
              "type": "uint256"
            },
            {
              "internalType": "uint256",
              "name": "category",
              "type": "uint256"
            },
            {
              "internalType": "string",
              "name": "appId",
              "type": "string"
            },
            {
              "internalType": "int256[]",
              "name": "groupIds",
              "type": "int256[]"
            },
            {
              "internalType": "uint256",
              "name": "botType",
              "type": "uint256"
            },
            {
              "internalType": "string",
              "name": "title",
              "type": "string"
            },
            {
              "internalType": "string",
              "name": "introduction",
              "type": "string"
            },
            {
              "internalType": "string",
              "name": "story",
              "type": "string"
            },
            {
              "internalType": "uint256",
              "name": "eliminateProportion",
              "type": "uint256"
            },
            {
              "internalType": "uint256",
              "name": "awardProportion",
              "type": "uint256"
            },
            {
              "internalType": "uint256",
              "name": "creatorProportion",
              "type": "uint256"
            },
            {
              "internalType": "uint256",
              "name": "sponsorProportion",
              "type": "uint256"
            },
            {
              "internalType": "uint256",
              "name": "winnerNum",
              "type": "uint256"
            },
            {
              "internalType": "uint256[]",
              "name": "buffIds",
              "type": "uint256[]"
            },
            {
              "internalType": "string",
              "name": "buffDesc",
              "type": "string"
            },
            {
              "internalType": "string[]",
              "name": "events",
              "type": "string[]"
            },
            {
              "internalType": "bool",
              "name": "ticketIsEth",
              "type": "bool"
            },
            {
              "internalType": "contract IERC20",
              "name": "ticketsToken",
              "type": "address"
            },
            {
              "internalType": "uint256",
              "name": "ticketAmount",
              "type": "uint256"
            },
            {
              "internalType": "uint256",
              "name": "effectStartTime",
              "type": "uint256"
            },
            {
              "internalType": "uint256",
              "name": "effectEndTime",
              "type": "uint256"
            },
            {
              "internalType": "bool",
              "name": "daily",
              "type": "bool"
            },
            {
              "internalType": "uint256",
              "name": "startH",
              "type": "uint256"
            },
            {
              "internalType": "uint256",
              "name": "startM",
              "type": "uint256"
            },
            {
              "internalType": "bool",
              "name": "exist",
              "type": "bool"
            },
            {
              "internalType": "address",
              "name": "creator",
              "type": "address"
            }
          ],
          "internalType": "struct GameDataStorage.GameDetail",
          "name": "",
          "type": "tuple"
        }
      ],
      "stateMutability": "view",
      "type": "function"
    },
    {
      "inputs": [
        {
          "internalType": "uint256",
          "name": "_gameId",
          "type": "uint256"
        }
      ],
      "name": "getGameAndRound",
      "outputs": [
        {
          "components": [
            {
              "internalType": "uint256",
              "name": "id",
              "type": "uint256"
            },
            {
              "internalType": "uint256",
              "name": "category",
              "type": "uint256"
            },
            {
              "internalType": "string",
              "name": "appId",
              "type": "string"
            },
            {
              "internalType": "int256[]",
              "name": "groupIds",
              "type": "int256[]"
            },
            {
              "internalType": "uint256",
              "name": "botType",
              "type": "uint256"
            },
            {
              "internalType": "string",
              "name": "title",
              "type": "string"
            },
            {
              "internalType": "string",
              "name": "introduction",
              "type": "string"
            },
            {
              "internalType": "string",
              "name": "story",
              "type": "string"
            },
            {
              "internalType": "uint256",
              "name": "eliminateProportion",
              "type": "uint256"
            },
            {
              "internalType": "uint256",
              "name": "awardProportion",
              "type": "uint256"
            },
            {
              "internalType": "uint256",
              "name": "creatorProportion",
              "type": "uint256"
            },
            {
              "internalType": "uint256",
              "name": "sponsorProportion",
              "type": "uint256"
            },
            {
              "internalType": "uint256",
              "name": "winnerNum",
              "type": "uint256"
            },
            {
              "internalType": "uint256[]",
              "name": "buffIds",
              "type": "uint256[]"
            },
            {
              "internalType": "string",
              "name": "buffDesc",
              "type": "string"
            },
            {
              "internalType": "string[]",
              "name": "events",
              "type": "string[]"
            },
            {
              "internalType": "bool",
              "name": "ticketIsEth",
              "type": "bool"
            },
            {
              "internalType": "contract IERC20",
              "name": "ticketsToken",
              "type": "address"
            },
            {
              "internalType": "uint256",
              "name": "ticketAmount",
              "type": "uint256"
            },
            {
              "internalType": "uint256",
              "name": "effectStartTime",
              "type": "uint256"
            },
            {
              "internalType": "uint256",
              "name": "effectEndTime",
              "type": "uint256"
            },
            {
              "internalType": "bool",
              "name": "daily",
              "type": "bool"
            },
            {
              "internalType": "uint256",
              "name": "startH",
              "type": "uint256"
            },
            {
              "internalType": "uint256",
              "name": "startM",
              "type": "uint256"
            },
            {
              "internalType": "bool",
              "name": "exist",
              "type": "bool"
            },
            {
              "internalType": "address",
              "name": "creator",
              "type": "address"
            }
          ],
          "internalType": "struct GameDataStorage.GameDetail",
          "name": "detail",
          "type": "tuple"
        },
        {
          "components": [
            {
              "internalType": "uint256",
              "name": "gameId",
              "type": "uint256"
            },
            {
              "internalType": "uint256",
              "name": "round",
              "type": "uint256"
            },
            {
              "internalType": "address[]",
              "name": "winners",
              "type": "address[]"
            },
            {
              "internalType": "uint256",
              "name": "participate",
              "type": "uint256"
            },
            {
              "internalType": "address",
              "name": "sponsor",
              "type": "address"
            },
            {
              "internalType": "uint256",
              "name": "launchTime",
              "type": "uint256"
            },
            {
              "internalType": "int256[]",
              "name": "eliminatePlayerIndexes",
              "type": "int256[]"
            },
            {
              "internalType": "int256[]",
              "name": "buffUsersIndexes",
              "type": "int256[]"
            },
            {
              "internalType": "int256[]",
              "name": "eventsIndexes",
              "type": "int256[]"
            },
            {
              "internalType": "bool",
              "name": "over",
              "type": "bool"
            },
            {
              "internalType": "bool",
              "name": "exist",
              "type": "bool"
            }
          ],
          "internalType": "struct GameDataStorage.GameRound[]",
          "name": "gameRounds",
          "type": "tuple[]"
        }
      ],
      "stateMutability": "view",
      "type": "function"
    },
    {
      "inputs": [],
      "name": "getGameIds",
      "outputs": [
        {
          "internalType": "uint256[]",
          "name": "",
          "type": "uint256[]"
        }
      ],
      "stateMutability": "view",
      "type": "function"
    },
    {
      "inputs": [
        {
          "internalType": "uint256",
          "name": "_gameId",
          "type": "uint256"
        }
      ],
      "name": "getGameLatestRoundNum",
      "outputs": [
        {
          "internalType": "int256",
          "name": "",
          "type": "int256"
        }
      ],
      "stateMutability": "view",
      "type": "function"
    },
    {
      "inputs": [
        {
          "internalType": "uint256",
          "name": "_gameId",
          "type": "uint256"
        },
        {
          "internalType": "uint256",
          "name": "_round",
          "type": "uint256"
        }
      ],
      "name": "getGameRound",
      "outputs": [
        {
          "components": [
            {
              "internalType": "uint256",
              "name": "gameId",
              "type": "uint256"
            },
            {
              "internalType": "uint256",
              "name": "round",
              "type": "uint256"
            },
            {
              "internalType": "address[]",
              "name": "winners",
              "type": "address[]"
            },
            {
              "internalType": "uint256",
              "name": "participate",
              "type": "uint256"
            },
            {
              "internalType": "address",
              "name": "sponsor",
              "type": "address"
            },
            {
              "internalType": "uint256",
              "name": "launchTime",
              "type": "uint256"
            },
            {
              "internalType": "int256[]",
              "name": "eliminatePlayerIndexes",
              "type": "int256[]"
            },
            {
              "internalType": "int256[]",
              "name": "buffUsersIndexes",
              "type": "int256[]"
            },
            {
              "internalType": "int256[]",
              "name": "eventsIndexes",
              "type": "int256[]"
            },
            {
              "internalType": "bool",
              "name": "over",
              "type": "bool"
            },
            {
              "internalType": "bool",
              "name": "exist",
              "type": "bool"
            }
          ],
          "internalType": "struct GameDataStorage.GameRound",
          "name": "",
          "type": "tuple"
        }
      ],
      "stateMutability": "view",
      "type": "function"
    },
    {
      "inputs": [
        {
          "internalType": "uint256",
          "name": "_gameId",
          "type": "uint256"
        }
      ],
      "name": "getGameRoundList",
      "outputs": [
        {
          "components": [
            {
              "internalType": "uint256",
              "name": "gameId",
              "type": "uint256"
            },
            {
              "internalType": "uint256",
              "name": "round",
              "type": "uint256"
            },
            {
              "internalType": "address[]",
              "name": "winners",
              "type": "address[]"
            },
            {
              "internalType": "uint256",
              "name": "participate",
              "type": "uint256"
            },
            {
              "internalType": "address",
              "name": "sponsor",
              "type": "address"
            },
            {
              "internalType": "uint256",
              "name": "launchTime",
              "type": "uint256"
            },
            {
              "internalType": "int256[]",
              "name": "eliminatePlayerIndexes",
              "type": "int256[]"
            },
            {
              "internalType": "int256[]",
              "name": "buffUsersIndexes",
              "type": "int256[]"
            },
            {
              "internalType": "int256[]",
              "name": "eventsIndexes",
              "type": "int256[]"
            },
            {
              "internalType": "bool",
              "name": "over",
              "type": "bool"
            },
            {
              "internalType": "bool",
              "name": "exist",
              "type": "bool"
            }
          ],
          "internalType": "struct GameDataStorage.GameRound[]",
          "name": "",
          "type": "tuple[]"
        }
      ],
      "stateMutability": "view",
      "type": "function"
    },
    {
      "inputs": [
        {
          "internalType": "uint256[]",
          "name": "_ids",
          "type": "uint256[]"
        }
      ],
      "name": "getGames",
      "outputs": [
        {
          "components": [
            {
              "internalType": "uint256",
              "name": "id",
              "type": "uint256"
            },
            {
              "internalType": "uint256",
              "name": "category",
              "type": "uint256"
            },
            {
              "internalType": "string",
              "name": "appId",
              "type": "string"
            },
            {
              "internalType": "int256[]",
              "name": "groupIds",
              "type": "int256[]"
            },
            {
              "internalType": "uint256",
              "name": "botType",
              "type": "uint256"
            },
            {
              "internalType": "string",
              "name": "title",
              "type": "string"
            },
            {
              "internalType": "string",
              "name": "introduction",
              "type": "string"
            },
            {
              "internalType": "string",
              "name": "story",
              "type": "string"
            },
            {
              "internalType": "uint256",
              "name": "eliminateProportion",
              "type": "uint256"
            },
            {
              "internalType": "uint256",
              "name": "awardProportion",
              "type": "uint256"
            },
            {
              "internalType": "uint256",
              "name": "creatorProportion",
              "type": "uint256"
            },
            {
              "internalType": "uint256",
              "name": "sponsorProportion",
              "type": "uint256"
            },
            {
              "internalType": "uint256",
              "name": "winnerNum",
              "type": "uint256"
            },
            {
              "internalType": "uint256[]",
              "name": "buffIds",
              "type": "uint256[]"
            },
            {
              "internalType": "string",
              "name": "buffDesc",
              "type": "string"
            },
            {
              "internalType": "string[]",
              "name": "events",
              "type": "string[]"
            },
            {
              "internalType": "bool",
              "name": "ticketIsEth",
              "type": "bool"
            },
            {
              "internalType": "contract IERC20",
              "name": "ticketsToken",
              "type": "address"
            },
            {
              "internalType": "uint256",
              "name": "ticketAmount",
              "type": "uint256"
            },
            {
              "internalType": "uint256",
              "name": "effectStartTime",
              "type": "uint256"
            },
            {
              "internalType": "uint256",
              "name": "effectEndTime",
              "type": "uint256"
            },
            {
              "internalType": "bool",
              "name": "daily",
              "type": "bool"
            },
            {
              "internalType": "uint256",
              "name": "startH",
              "type": "uint256"
            },
            {
              "internalType": "uint256",
              "name": "startM",
              "type": "uint256"
            },
            {
              "internalType": "bool",
              "name": "exist",
              "type": "bool"
            },
            {
              "internalType": "address",
              "name": "creator",
              "type": "address"
            }
          ],
          "internalType": "struct GameDataStorage.GameDetail[]",
          "name": "",
          "type": "tuple[]"
        }
      ],
      "stateMutability": "view",
      "type": "function"
    },
    {
      "inputs": [
        {
          "internalType": "uint256",
          "name": "_gameId",
          "type": "uint256"
        },
        {
          "internalType": "uint256",
          "name": "_ground",
          "type": "uint256"
        }
      ],
      "name": "getPlayers",
      "outputs": [
        {
          "internalType": "address[]",
          "name": "",
          "type": "address[]"
        }
      ],
      "stateMutability": "view",
      "type": "function"
    },
    {
      "inputs": [
        {
          "internalType": "uint256",
          "name": "_gameId",
          "type": "uint256"
        },
        {
          "internalType": "uint256",
          "name": "_round",
          "type": "uint256"
        }
      ],
      "name": "getTicketsPool",
      "outputs": [
        {
          "internalType": "uint256",
          "name": "",
          "type": "uint256"
        }
      ],
      "stateMutability": "view",
      "type": "function"
    },
    {
      "inputs": [
        {
          "internalType": "uint256",
          "name": "_gameId",
          "type": "uint256"
        },
        {
          "internalType": "address",
          "name": "_sponsor",
          "type": "address"
        },
        {
          "internalType": "uint256",
          "name": "_launchTime",
          "type": "uint256"
        }
      ],
      "name": "initGameRound",
      "outputs": [],
      "stateMutability": "nonpayable",
      "type": "function"
    },
    {
      "inputs": [
        {
          "internalType": "address",
          "name": "",
          "type": "address"
        }
      ],
      "name": "operators",
      "outputs": [
        {
          "internalType": "bool",
          "name": "",
          "type": "bool"
        }
      ],
      "stateMutability": "view",
      "type": "function"
    },
    {
      "inputs": [],
      "name": "owner",
      "outputs": [
        {
          "internalType": "address",
          "name": "",
          "type": "address"
        }
      ],
      "stateMutability": "view",
      "type": "function"
    },
    {
      "inputs": [
        {
          "internalType": "uint256",
          "name": "_gameId",
          "type": "uint256"
        },
        {
          "internalType": "uint256",
          "name": "_round",
          "type": "uint256"
        },
        {
          "internalType": "uint256[]",
          "name": "_indexes",
          "type": "uint256[]"
        }
      ],
      "name": "setBuffPlayers",
      "outputs": [],
      "stateMutability": "nonpayable",
      "type": "function"
    },
    {
      "inputs": [
        {
          "internalType": "string",
          "name": "_appId",
          "type": "string"
        },
        {
          "components": [
            {
              "internalType": "uint256",
              "name": "id",
              "type": "uint256"
            },
            {
              "internalType": "uint256",
              "name": "category",
              "type": "uint256"
            },
            {
              "internalType": "string",
              "name": "appId",
              "type": "string"
            },
            {
              "internalType": "int256[]",
              "name": "groupIds",
              "type": "int256[]"
            },
            {
              "internalType": "uint256",
              "name": "botType",
              "type": "uint256"
            },
            {
              "internalType": "string",
              "name": "title",
              "type": "string"
            },
            {
              "internalType": "string",
              "name": "introduction",
              "type": "string"
            },
            {
              "internalType": "string",
              "name": "story",
              "type": "string"
            },
            {
              "internalType": "uint256",
              "name": "eliminateProportion",
              "type": "uint256"
            },
            {
              "internalType": "uint256",
              "name": "awardProportion",
              "type": "uint256"
            },
            {
              "internalType": "uint256",
              "name": "creatorProportion",
              "type": "uint256"
            },
            {
              "internalType": "uint256",
              "name": "sponsorProportion",
              "type": "uint256"
            },
            {
              "internalType": "uint256",
              "name": "winnerNum",
              "type": "uint256"
            },
            {
              "internalType": "uint256[]",
              "name": "buffIds",
              "type": "uint256[]"
            },
            {
              "internalType": "string",
              "name": "buffDesc",
              "type": "string"
            },
            {
              "internalType": "string[]",
              "name": "events",
              "type": "string[]"
            },
            {
              "internalType": "bool",
              "name": "ticketIsEth",
              "type": "bool"
            },
            {
              "internalType": "contract IERC20",
              "name": "ticketsToken",
              "type": "address"
            },
            {
              "internalType": "uint256",
              "name": "ticketAmount",
              "type": "uint256"
            },
            {
              "internalType": "uint256",
              "name": "effectStartTime",
              "type": "uint256"
            },
            {
              "internalType": "uint256",
              "name": "effectEndTime",
              "type": "uint256"
            },
            {
              "internalType": "bool",
              "name": "daily",
              "type": "bool"
            },
            {
              "internalType": "uint256",
              "name": "startH",
              "type": "uint256"
            },
            {
              "internalType": "uint256",
              "name": "startM",
              "type": "uint256"
            },
            {
              "internalType": "bool",
              "name": "exist",
              "type": "bool"
            },
            {
              "internalType": "address",
              "name": "creator",
              "type": "address"
            }
          ],
          "internalType": "struct GameDataStorage.GameDetail",
          "name": "_game",
          "type": "tuple"
        }
      ],
      "name": "setGame",
      "outputs": [],
      "stateMutability": "nonpayable",
      "type": "function"
    },
    {
      "inputs": [
        {
          "internalType": "uint256",
          "name": "_gameId",
          "type": "uint256"
        },
        {
          "internalType": "uint256",
          "name": "_round",
          "type": "uint256"
        },
        {
          "internalType": "address[]",
          "name": "_players",
          "type": "address[]"
        }
      ],
      "name": "setPlayers",
      "outputs": [],
      "stateMutability": "nonpayable",
      "type": "function"
    },
    {
      "inputs": [
        {
          "internalType": "address",
          "name": "_newOwner",
          "type": "address"
        }
      ],
      "name": "transferOwner",
      "outputs": [],
      "stateMutability": "nonpayable",
      "type": "function"
    }
  ],
  "bytecode": "0x60806040523480156200001157600080fd5b50336000806101000a81548173ffffffffffffffffffffffffffffffffffffffff021916908373ffffffffffffffffffffffffffffffffffffffff16021790555062000063336200006960201b60201c565b620001d7565b60008054906101000a900473ffffffffffffffffffffffffffffffffffffffff1673ffffffffffffffffffffffffffffffffffffffff163373ffffffffffffffffffffffffffffffffffffffff1614620000fa576040517f08c379a0000000000000000000000000000000000000000000000000000000008152600401620000f190620001b5565b60405180910390fd5b60018060008373ffffffffffffffffffffffffffffffffffffffff1673ffffffffffffffffffffffffffffffffffffffff16815260200190815260200160002060006101000a81548160ff02191690831515021790555050565b600082825260208201905092915050565b7f4f6e6c79204f776e657200000000000000000000000000000000000000000000600082015250565b60006200019d600a8362000154565b9150620001aa8262000165565b602082019050919050565b60006020820190508181036000830152620001d0816200018e565b9050919050565b615e9f80620001e76000396000f3fe608060405234801561001057600080fd5b506004361061018d5760003560e01c8063751938af116100e3578063b49d53a21161008c578063ea9b440a11610066578063ea9b440a146104a3578063f1ae9494146104bf578063ffe41ad3146104db5761018d565b8063b49d53a214610427578063dc3dd69e14610443578063e6357654146104735761018d565b80639f668bba116100bd5780639f668bba146103a9578063a2f77bcc146103c7578063a996265a146103f75761018d565b8063751938af1461033f5780638da5cb5b1461036f5780639870d7fe1461038d5761018d565b80634fb2e45d116101455780636a3f5dc51161011f5780636a3f5dc5146102af5780636cc5f3ad146102df57806370c1b1d71461030f5761018d565b80634fb2e45d1461024657806357e40a64146102625780636149b2251461027e5761018d565b80632c22c036116101765780632c22c036146101f25780633e30838d1461020e57806342f2a5e31461022a5761018d565b80630d2dce221461019257806313e7c9d8146101c2575b600080fd5b6101ac60048036038101906101a79190613df2565b6104f7565b6040516101b99190613f22565b60405180910390f35b6101dc60048036038101906101d79190613f70565b6105aa565b6040516101e99190613fb8565b60405180910390f35b61020c6004803603810190610207919061412c565b6105ca565b005b61022860048036038101906102239190613f70565b61074f565b005b610244600480360381019061023f919061419b565b610838565b005b610260600480360381019061025b9190613f70565b610914565b005b61027c600480360381019061027791906141ee565b610ab5565b005b61029860048036038101906102939190614241565b610e7d565b6040516102a6929190614a3c565b60405180910390f35b6102c960048036038101906102c49190613df2565b61174b565b6040516102d69190614ae2565b60405180910390f35b6102f960048036038101906102f49190614b04565b6117c8565b6040516103069190614e6a565b60405180910390f35b61032960048036038101906103249190613df2565b611e85565b6040516103369190614f90565b60405180910390f35b61035960048036038101906103549190613df2565b612317565b6040516103669190614fc1565b60405180910390f35b610377612346565b6040516103849190614feb565b60405180910390f35b6103a760048036038101906103a29190613f70565b61236a565b005b6103b1612452565b6040516103be9190614ae2565b60405180910390f35b6103e160048036038101906103dc9190614241565b6124aa565b6040516103ee9190615006565b60405180910390f35b610411600480360381019061040c91906150dd565b612aba565b60405161041e9190614ae2565b60405180910390f35b610441600480360381019061043c91906151e9565b612b30565b005b61045d60048036038101906104589190614241565b612e23565b60405161046a9190615267565b60405180910390f35b61048d60048036038101906104889190614241565b612e9d565b60405161049a9190615282565b60405180910390f35b6104bd60048036038101906104b8919061581e565b61315a565b005b6104d960048036038101906104d49190615a12565b613512565b005b6104f560048036038101906104f09190615a81565b613700565b005b606060056000848152602001908152602001600020600083815260200190815260200160002080548060200260200160405190810160405280929190818152602001828054801561059d57602002820191906000526020600020905b8160009054906101000a900473ffffffffffffffffffffffffffffffffffffffff1673ffffffffffffffffffffffffffffffffffffffff1681526020019060010190808311610553575b5050505050905092915050565b60016020528060005260406000206000915054906101000a900460ff1681565b600160003373ffffffffffffffffffffffffffffffffffffffff1673ffffffffffffffffffffffffffffffffffffffff16815260200190815260200160002060009054906101000a900460ff16610656576040517f08c379a000000000000000000000000000000000000000000000000000000000815260040161064d90615b31565b60405180910390fd5b60006004600085815260200190815260200160002060008481526020019081526020016000208054905014156106c4578060046000858152602001908152602001600020600084815260200190815260200160002090805190602001906106be929190613997565b5061074a565b60005b81518110156107485760046000858152602001908152602001600020600084815260200190815260200160002082828151811061070757610706615b51565b5b60200260200101519080600181540180825580915050600190039060005260206000200160009091909190915055808061074090615baf565b9150506106c7565b505b505050565b60008054906101000a900473ffffffffffffffffffffffffffffffffffffffff1673ffffffffffffffffffffffffffffffffffffffff163373ffffffffffffffffffffffffffffffffffffffff16146107dd576040517f08c379a00000000000000000000000000000000000000000000000000000000081526004016107d490615c44565b60405180910390fd5b6000600160008373ffffffffffffffffffffffffffffffffffffffff1673ffffffffffffffffffffffffffffffffffffffff16815260200190815260200160002060006101000a81548160ff02191690831515021790555050565b600160003373ffffffffffffffffffffffffffffffffffffffff1673ffffffffffffffffffffffffffffffffffffffff16815260200190815260200160002060009054906101000a900460ff166108c4576040517f08c379a00000000000000000000000000000000000000000000000000000000081526004016108bb90615b31565b60405180910390fd5b600460008481526020019081526020016000206000838152602001908152602001600020819080600181540180825580915050600190039060005260206000200160009091909190915055505050565b60008054906101000a900473ffffffffffffffffffffffffffffffffffffffff1673ffffffffffffffffffffffffffffffffffffffff163373ffffffffffffffffffffffffffffffffffffffff16146109a2576040517f08c379a000000000000000000000000000000000000000000000000000000000815260040161099990615c44565b60405180910390fd5b6000600160008060009054906101000a900473ffffffffffffffffffffffffffffffffffffffff1673ffffffffffffffffffffffffffffffffffffffff1673ffffffffffffffffffffffffffffffffffffffff16815260200190815260200160002060006101000a81548160ff021916908315150217905550806000806101000a81548173ffffffffffffffffffffffffffffffffffffffff021916908373ffffffffffffffffffffffffffffffffffffffff16021790555060018060008373ffffffffffffffffffffffffffffffffffffffff1673ffffffffffffffffffffffffffffffffffffffff16815260200190815260200160002060006101000a81548160ff02191690831515021790555050565b600160003373ffffffffffffffffffffffffffffffffffffffff1673ffffffffffffffffffffffffffffffffffffffff16815260200190815260200160002060009054906101000a900460ff16610b41576040517f08c379a0000000000000000000000000000000000000000000000000000000008152600401610b3890615b31565b60405180910390fd5b6002600084815260200190815260200160002060170160009054906101000a900460ff1615610e7857600060405180610160016040528085815260200160086000878152602001908152602001600020805490508152602001600067ffffffffffffffff811115610bb557610bb4613fe9565b5b604051908082528060200260200182016040528015610be35781602001602082028036833780820191505090505b508152602001600081526020018473ffffffffffffffffffffffffffffffffffffffff168152602001838152602001600067ffffffffffffffff811115610c2d57610c2c613fe9565b5b604051908082528060200260200182016040528015610c5b5781602001602082028036833780820191505090505b508152602001600067ffffffffffffffff811115610c7c57610c7b613fe9565b5b604051908082528060200260200182016040528015610caa5781602001602082028036833780820191505090505b508152602001600067ffffffffffffffff811115610ccb57610cca613fe9565b5b604051908082528060200260200182016040528015610cf95781602001602082028036833780820191505090505b508152602001600015158152602001600115158152509050600860008581526020019081526020016000208190806001815401808255809150506001900390600052602060002090600a020160009091909190915060008201518160000155602082015181600101556040820151816002019080519060200190610d7e9291906139e4565b506060820151816003015560808201518160040160006101000a81548173ffffffffffffffffffffffffffffffffffffffff021916908373ffffffffffffffffffffffffffffffffffffffff16021790555060a0820151816005015560c0820151816006019080519060200190610df6929190613a6e565b5060e0820151816007019080519060200190610e13929190613a6e565b50610100820151816008019080519060200190610e31929190613a6e565b506101208201518160090160006101000a81548160ff0219169083151502179055506101408201518160090160016101000a81548160ff0219169083151502179055505050505b505050565b610e85613abb565b6060600260008481526020019081526020016000206008600085815260200190815260200160002081604051806103400160405290816000820154815260200160018201548152602001600282018054610ede90615c93565b80601f0160208091040260200160405190810160405280929190818152602001828054610f0a90615c93565b8015610f575780601f10610f2c57610100808354040283529160200191610f57565b820191906000526020600020905b815481529060010190602001808311610f3a57829003601f168201915b5050505050815260200160038201805480602002602001604051908101604052809291908181526020018280548015610faf57602002820191906000526020600020905b815481526020019060010190808311610f9b575b5050505050815260200160048201548152602001600582018054610fd290615c93565b80601f0160208091040260200160405190810160405280929190818152602001828054610ffe90615c93565b801561104b5780601f106110205761010080835404028352916020019161104b565b820191906000526020600020905b81548152906001019060200180831161102e57829003601f168201915b5050505050815260200160068201805461106490615c93565b80601f016020809104026020016040519081016040528092919081815260200182805461109090615c93565b80156110dd5780601f106110b2576101008083540402835291602001916110dd565b820191906000526020600020905b8154815290600101906020018083116110c057829003601f168201915b505050505081526020016007820180546110f690615c93565b80601f016020809104026020016040519081016040528092919081815260200182805461112290615c93565b801561116f5780601f106111445761010080835404028352916020019161116f565b820191906000526020600020905b81548152906001019060200180831161115257829003601f168201915b505050505081526020016008820154815260200160098201548152602001600a8201548152602001600b8201548152602001600c8201548152602001600d82018054806020026020016040519081016040528092919081815260200182805480156111f957602002820191906000526020600020905b8154815260200190600101908083116111e5575b50505050508152602001600e8201805461121290615c93565b80601f016020809104026020016040519081016040528092919081815260200182805461123e90615c93565b801561128b5780601f106112605761010080835404028352916020019161128b565b820191906000526020600020905b81548152906001019060200180831161126e57829003601f168201915b50505050508152602001600f8201805480602002602001604051908101604052809291908181526020016000905b828210156113655783829060005260206000200180546112d890615c93565b80601f016020809104026020016040519081016040528092919081815260200182805461130490615c93565b80156113515780601f1061132657610100808354040283529160200191611351565b820191906000526020600020905b81548152906001019060200180831161133457829003601f168201915b5050505050815260200190600101906112b9565b5050505081526020016010820160009054906101000a900460ff161515151581526020016010820160019054906101000a900473ffffffffffffffffffffffffffffffffffffffff1673ffffffffffffffffffffffffffffffffffffffff1673ffffffffffffffffffffffffffffffffffffffff1681526020016011820154815260200160128201548152602001601382015481526020016014820160009054906101000a900460ff1615151515815260200160158201548152602001601682015481526020016017820160009054906101000a900460ff161515151581526020016017820160019054906101000a900473ffffffffffffffffffffffffffffffffffffffff1673ffffffffffffffffffffffffffffffffffffffff1673ffffffffffffffffffffffffffffffffffffffff1681525050915080805480602002602001604051908101604052809291908181526020016000905b8282101561173c57838290600052602060002090600a02016040518061016001604052908160008201548152602001600182015481526020016002820180548060200260200160405190810160405280929190818152602001828054801561157c57602002820191906000526020600020905b8160009054906101000a900473ffffffffffffffffffffffffffffffffffffffff1673ffffffffffffffffffffffffffffffffffffffff1681526020019060010190808311611532575b50505050508152602001600382015481526020016004820160009054906101000a900473ffffffffffffffffffffffffffffffffffffffff1673ffffffffffffffffffffffffffffffffffffffff1673ffffffffffffffffffffffffffffffffffffffff168152602001600582015481526020016006820180548060200260200160405190810160405280929190818152602001828054801561163e57602002820191906000526020600020905b81548152602001906001019080831161162a575b505050505081526020016007820180548060200260200160405190810160405280929190818152602001828054801561169657602002820191906000526020600020905b815481526020019060010190808311611682575b50505050508152602001600882018054806020026020016040519081016040528092919081815260200182805480156116ee57602002820191906000526020600020905b8154815260200190600101908083116116da575b505050505081526020016009820160009054906101000a900460ff161515151581526020016009820160019054906101000a900460ff161515151581525050815260200190600101906114bf565b50505050905091509150915091565b60606004600084815260200190815260200160002060008381526020019081526020016000208054806020026020016040519081016040528092919081815260200182805480156117bb57602002820191906000526020600020905b8154815260200190600101908083116117a7575b5050505050905092915050565b60606000825167ffffffffffffffff8111156117e7576117e6613fe9565b5b60405190808252806020026020018201604052801561182057816020015b61180d613abb565b8152602001906001900390816118055790505b50905060005b8351811015611e7b576002600085838151811061184657611845615b51565b5b6020026020010151815260200190815260200160002060405180610340016040529081600082015481526020016001820154815260200160028201805461188c90615c93565b80601f01602080910402602001604051908101604052809291908181526020018280546118b890615c93565b80156119055780601f106118da57610100808354040283529160200191611905565b820191906000526020600020905b8154815290600101906020018083116118e857829003601f168201915b505050505081526020016003820180548060200260200160405190810160405280929190818152602001828054801561195d57602002820191906000526020600020905b815481526020019060010190808311611949575b505050505081526020016004820154815260200160058201805461198090615c93565b80601f01602080910402602001604051908101604052809291908181526020018280546119ac90615c93565b80156119f95780601f106119ce576101008083540402835291602001916119f9565b820191906000526020600020905b8154815290600101906020018083116119dc57829003601f168201915b50505050508152602001600682018054611a1290615c93565b80601f0160208091040260200160405190810160405280929190818152602001828054611a3e90615c93565b8015611a8b5780601f10611a6057610100808354040283529160200191611a8b565b820191906000526020600020905b815481529060010190602001808311611a6e57829003601f168201915b50505050508152602001600782018054611aa490615c93565b80601f0160208091040260200160405190810160405280929190818152602001828054611ad090615c93565b8015611b1d5780601f10611af257610100808354040283529160200191611b1d565b820191906000526020600020905b815481529060010190602001808311611b0057829003601f168201915b505050505081526020016008820154815260200160098201548152602001600a8201548152602001600b8201548152602001600c8201548152602001600d8201805480602002602001604051908101604052809291908181526020018280548015611ba757602002820191906000526020600020905b815481526020019060010190808311611b93575b50505050508152602001600e82018054611bc090615c93565b80601f0160208091040260200160405190810160405280929190818152602001828054611bec90615c93565b8015611c395780601f10611c0e57610100808354040283529160200191611c39565b820191906000526020600020905b815481529060010190602001808311611c1c57829003601f168201915b50505050508152602001600f8201805480602002602001604051908101604052809291908181526020016000905b82821015611d13578382906000526020600020018054611c8690615c93565b80601f0160208091040260200160405190810160405280929190818152602001828054611cb290615c93565b8015611cff5780601f10611cd457610100808354040283529160200191611cff565b820191906000526020600020905b815481529060010190602001808311611ce257829003601f168201915b505050505081526020019060010190611c67565b5050505081526020016010820160009054906101000a900460ff161515151581526020016010820160019054906101000a900473ffffffffffffffffffffffffffffffffffffffff1673ffffffffffffffffffffffffffffffffffffffff1673ffffffffffffffffffffffffffffffffffffffff1681526020016011820154815260200160128201548152602001601382015481526020016014820160009054906101000a900460ff1615151515815260200160158201548152602001601682015481526020016017820160009054906101000a900460ff161515151581526020016017820160019054906101000a900473ffffffffffffffffffffffffffffffffffffffff1673ffffffffffffffffffffffffffffffffffffffff1673ffffffffffffffffffffffffffffffffffffffff1681525050828281518110611e5d57611e5c615b51565b5b60200260200101819052508080611e7390615baf565b915050611826565b5080915050919050565b611e8d613bb0565b60006040518061016001604052806000815260200160008152602001600067ffffffffffffffff811115611ec457611ec3613fe9565b5b604051908082528060200260200182016040528015611ef25781602001602082028036833780820191505090505b50815260200160008152602001600073ffffffffffffffffffffffffffffffffffffffff16815260200160008152602001600067ffffffffffffffff811115611f3e57611f3d613fe9565b5b604051908082528060200260200182016040528015611f6c5781602001602082028036833780820191505090505b508152602001600067ffffffffffffffff811115611f8d57611f8c613fe9565b5b604051908082528060200260200182016040528015611fbb5781602001602082028036833780820191505090505b508152602001600067ffffffffffffffff811115611fdc57611fdb613fe9565b5b60405190808252806020026020018201604052801561200a5781602001602082028036833780820191505090505b50815260200160001515815260200160001515815250905060006008600086815260200190815260200160002080549050141561204a5780915050612311565b826120756001600860008881526020019081526020016000208054905061388b90919063ffffffff16565b10156120845780915050612311565b6008600085815260200190815260200160002083815481106120a9576120a8615b51565b5b90600052602060002090600a02016040518061016001604052908160008201548152602001600182015481526020016002820180548060200260200160405190810160405280929190818152602001828054801561215c57602002820191906000526020600020905b8160009054906101000a900473ffffffffffffffffffffffffffffffffffffffff1673ffffffffffffffffffffffffffffffffffffffff1681526020019060010190808311612112575b50505050508152602001600382015481526020016004820160009054906101000a900473ffffffffffffffffffffffffffffffffffffffff1673ffffffffffffffffffffffffffffffffffffffff1673ffffffffffffffffffffffffffffffffffffffff168152602001600582015481526020016006820180548060200260200160405190810160405280929190818152602001828054801561221e57602002820191906000526020600020905b81548152602001906001019080831161220a575b505050505081526020016007820180548060200260200160405190810160405280929190818152602001828054801561227657602002820191906000526020600020905b815481526020019060010190808311612262575b50505050508152602001600882018054806020026020016040519081016040528092919081815260200182805480156122ce57602002820191906000526020600020905b8154815260200190600101908083116122ba575b505050505081526020016009820160009054906101000a900460ff161515151581526020016009820160019054906101000a900460ff1615151515815250509150505b92915050565b600060066000848152602001908152602001600020600083815260200190815260200160002054905092915050565b60008054906101000a900473ffffffffffffffffffffffffffffffffffffffff1681565b60008054906101000a900473ffffffffffffffffffffffffffffffffffffffff1673ffffffffffffffffffffffffffffffffffffffff163373ffffffffffffffffffffffffffffffffffffffff16146123f8576040517f08c379a00000000000000000000000000000000000000000000000000000000081526004016123ef90615c44565b60405180910390fd5b60018060008373ffffffffffffffffffffffffffffffffffffffff1673ffffffffffffffffffffffffffffffffffffffff16815260200190815260200160002060006101000a81548160ff02191690831515021790555050565b606060078054806020026020016040519081016040528092919081815260200182805480156124a057602002820191906000526020600020905b81548152602001906001019080831161248c575b5050505050905090565b6124b2613abb565b600260008381526020019081526020016000206040518061034001604052908160008201548152602001600182015481526020016002820180546124f590615c93565b80601f016020809104026020016040519081016040528092919081815260200182805461252190615c93565b801561256e5780601f106125435761010080835404028352916020019161256e565b820191906000526020600020905b81548152906001019060200180831161255157829003601f168201915b50505050508152602001600382018054806020026020016040519081016040528092919081815260200182805480156125c657602002820191906000526020600020905b8154815260200190600101908083116125b2575b50505050508152602001600482015481526020016005820180546125e990615c93565b80601f016020809104026020016040519081016040528092919081815260200182805461261590615c93565b80156126625780601f1061263757610100808354040283529160200191612662565b820191906000526020600020905b81548152906001019060200180831161264557829003601f168201915b5050505050815260200160068201805461267b90615c93565b80601f01602080910402602001604051908101604052809291908181526020018280546126a790615c93565b80156126f45780601f106126c9576101008083540402835291602001916126f4565b820191906000526020600020905b8154815290600101906020018083116126d757829003601f168201915b5050505050815260200160078201805461270d90615c93565b80601f016020809104026020016040519081016040528092919081815260200182805461273990615c93565b80156127865780601f1061275b57610100808354040283529160200191612786565b820191906000526020600020905b81548152906001019060200180831161276957829003601f168201915b505050505081526020016008820154815260200160098201548152602001600a8201548152602001600b8201548152602001600c8201548152602001600d820180548060200260200160405190810160405280929190818152602001828054801561281057602002820191906000526020600020905b8154815260200190600101908083116127fc575b50505050508152602001600e8201805461282990615c93565b80601f016020809104026020016040519081016040528092919081815260200182805461285590615c93565b80156128a25780601f10612877576101008083540402835291602001916128a2565b820191906000526020600020905b81548152906001019060200180831161288557829003601f168201915b50505050508152602001600f8201805480602002602001604051908101604052809291908181526020016000905b8282101561297c5783829060005260206000200180546128ef90615c93565b80601f016020809104026020016040519081016040528092919081815260200182805461291b90615c93565b80156129685780601f1061293d57610100808354040283529160200191612968565b820191906000526020600020905b81548152906001019060200180831161294b57829003601f168201915b5050505050815260200190600101906128d0565b5050505081526020016010820160009054906101000a900460ff161515151581526020016010820160019054906101000a900473ffffffffffffffffffffffffffffffffffffffff1673ffffffffffffffffffffffffffffffffffffffff1673ffffffffffffffffffffffffffffffffffffffff1681526020016011820154815260200160128201548152602001601382015481526020016014820160009054906101000a900460ff1615151515815260200160158201548152602001601682015481526020016017820160009054906101000a900460ff161515151581526020016017820160019054906101000a900473ffffffffffffffffffffffffffffffffffffffff1673ffffffffffffffffffffffffffffffffffffffff1673ffffffffffffffffffffffffffffffffffffffff16815250509050919050565b6060600382604051612acc9190615d01565b9081526020016040518091039020805480602002602001604051908101604052809291908181526020018280548015612b2457602002820191906000526020600020905b815481526020019060010190808311612b10575b50505050509050919050565b600160003373ffffffffffffffffffffffffffffffffffffffff1673ffffffffffffffffffffffffffffffffffffffff16815260200190815260200160002060009054906101000a900460ff16612bbc576040517f08c379a0000000000000000000000000000000000000000000000000000000008152600401612bb390615b31565b60405180910390fd5b60005b8151811015612cef57600560008581526020019081526020016000206000848152602001908152602001600020828281518110612bff57612bfe615b51565b5b60200260200101519080600181540180825580915050600190039060005260206000200160009091909190916101000a81548173ffffffffffffffffffffffffffffffffffffffff021916908373ffffffffffffffffffffffffffffffffffffffff160217905550612cb46002600086815260200190815260200160002060110154600660008781526020019081526020016000206000868152602001908152602001600020546138d590919063ffffffff16565b600660008681526020019081526020016000206000858152602001908152602001600020819055508080612ce790615baf565b915050612bbf565b506000600560008581526020019081526020016000206000848152602001908152602001600020805490501415612d5e57806005600085815260200190815260200160002060008481526020019081526020016000209080519060200190612d589291906139e4565b50612e1e565b60005b8151811015612e1c57600560008581526020019081526020016000206000848152602001908152602001600020828281518110612da157612da0615b51565b5b60200260200101519080600181540180825580915050600190039060005260206000200160009091909190916101000a81548173ffffffffffffffffffffffffffffffffffffffff021916908373ffffffffffffffffffffffffffffffffffffffff1602179055508080612e1490615baf565b915050612d61565b505b505050565b60008060086000848152602001908152602001600020805490501115612e7457612e6d6001600860008581526020019081526020016000208054905061388b90919063ffffffff16565b9050612e98565b7fffffffffffffffffffffffffffffffffffffffffffffffffffffffffffffffff90505b919050565b606060086000838152602001908152602001600020805480602002602001604051908101604052809291908181526020016000905b8282101561314f57838290600052602060002090600a020160405180610160016040529081600082015481526020016001820154815260200160028201805480602002602001604051908101604052809291908181526020018280548015612f8f57602002820191906000526020600020905b8160009054906101000a900473ffffffffffffffffffffffffffffffffffffffff1673ffffffffffffffffffffffffffffffffffffffff1681526020019060010190808311612f45575b50505050508152602001600382015481526020016004820160009054906101000a900473ffffffffffffffffffffffffffffffffffffffff1673ffffffffffffffffffffffffffffffffffffffff1673ffffffffffffffffffffffffffffffffffffffff168152602001600582015481526020016006820180548060200260200160405190810160405280929190818152602001828054801561305157602002820191906000526020600020905b81548152602001906001019080831161303d575b50505050508152602001600782018054806020026020016040519081016040528092919081815260200182805480156130a957602002820191906000526020600020905b815481526020019060010190808311613095575b505050505081526020016008820180548060200260200160405190810160405280929190818152602001828054801561310157602002820191906000526020600020905b8154815260200190600101908083116130ed575b505050505081526020016009820160009054906101000a900460ff161515151581526020016009820160019054906101000a900460ff16151515158152505081526020019060010190612ed2565b505050509050919050565b600160003373ffffffffffffffffffffffffffffffffffffffff1673ffffffffffffffffffffffffffffffffffffffff16815260200190815260200160002060009054906101000a900460ff166131e6576040517f08c379a00000000000000000000000000000000000000000000000000000000081526004016131dd90615b31565b60405180910390fd5b600260008260000151815260200190815260200160002060170160009054906101000a900460ff16613289576003826040516132229190615d01565b9081526020016040518091039020816000015190806001815401808255809150506001900390600052602060002001600090919091909150556007816000015190806001815401808255809150506001900390600052602060002001600090919091909150555b806002600083600001518152602001908152602001600020600082015181600001556020820151816001015560408201518160020190805190602001906132d1929190613c24565b5060608201518160030190805190602001906132ee929190613a6e565b506080820151816004015560a0820151816005019080519060200190613315929190613c24565b5060c0820151816006019080519060200190613332929190613c24565b5060e082015181600701908051906020019061334f929190613c24565b506101008201518160080155610120820151816009015561014082015181600a015561016082015181600b015561018082015181600c01556101a082015181600d0190805190602001906133a4929190613997565b506101c082015181600e0190805190602001906133c2929190613c24565b506101e082015181600f0190805190602001906133e0929190613caa565b506102008201518160100160006101000a81548160ff0219169083151502179055506102208201518160100160016101000a81548173ffffffffffffffffffffffffffffffffffffffff021916908373ffffffffffffffffffffffffffffffffffffffff1602179055506102408201518160110155610260820151816012015561028082015181601301556102a08201518160140160006101000a81548160ff0219169083151502179055506102c082015181601501556102e082015181601601556103008201518160170160006101000a81548160ff0219169083151502179055506103208201518160170160016101000a81548173ffffffffffffffffffffffffffffffffffffffff021916908373ffffffffffffffffffffffffffffffffffffffff1602179055509050505050565b600160003373ffffffffffffffffffffffffffffffffffffffff1673ffffffffffffffffffffffffffffffffffffffff16815260200190815260200160002060009054906101000a900460ff1661359e576040517f08c379a000000000000000000000000000000000000000000000000000000000815260040161359590615b31565b60405180910390fd5b806008600085815260200190815260200160002083815481106135c4576135c3615b51565b5b90600052602060002090600a0201600082015181600001556020820151816001015560408201518160020190805190602001906136029291906139e4565b506060820151816003015560808201518160040160006101000a81548173ffffffffffffffffffffffffffffffffffffffff021916908373ffffffffffffffffffffffffffffffffffffffff16021790555060a0820151816005015560c082015181600601908051906020019061367a929190613a6e565b5060e0820151816007019080519060200190613697929190613a6e565b506101008201518160080190805190602001906136b5929190613a6e565b506101208201518160090160006101000a81548160ff0219169083151502179055506101408201518160090160016101000a81548160ff021916908315150217905550905050505050565b600160003373ffffffffffffffffffffffffffffffffffffffff1673ffffffffffffffffffffffffffffffffffffffff16815260200190815260200160002060009054906101000a900460ff1661378c576040517f08c379a000000000000000000000000000000000000000000000000000000000815260040161378390615b31565b60405180910390fd5b600560008481526020019081526020016000206000838152602001908152602001600020819080600181540180825580915050600190039060005260206000200160009091909190916101000a81548173ffffffffffffffffffffffffffffffffffffffff021916908373ffffffffffffffffffffffffffffffffffffffff16021790555061385e6002600085815260200190815260200160002060110154600660008681526020019081526020016000206000858152602001908152602001600020546138d590919063ffffffff16565b60066000858152602001908152602001600020600084815260200190815260200160002081905550505050565b60006138cd83836040518060400160405280601e81526020017f536166654d6174683a207375627472616374696f6e206f766572666c6f770000815250613933565b905092915050565b60008082846138e49190615d18565b905083811015613929576040517f08c379a000000000000000000000000000000000000000000000000000000000815260040161392090615dba565b60405180910390fd5b8091505092915050565b600083831115829061397b576040517f08c379a00000000000000000000000000000000000000000000000000000000081526004016139729190615e13565b60405180910390fd5b506000838561398a9190615e35565b9050809150509392505050565b8280548282559060005260206000209081019282156139d3579160200282015b828111156139d25782518255916020019190600101906139b7565b5b5090506139e09190613d0a565b5090565b828054828255906000526020600020908101928215613a5d579160200282015b82811115613a5c5782518260006101000a81548173ffffffffffffffffffffffffffffffffffffffff021916908373ffffffffffffffffffffffffffffffffffffffff16021790555091602001919060010190613a04565b5b509050613a6a9190613d0a565b5090565b828054828255906000526020600020908101928215613aaa579160200282015b82811115613aa9578251825591602001919060010190613a8e565b5b509050613ab79190613d27565b5090565b60405180610340016040528060008152602001600081526020016060815260200160608152602001600081526020016060815260200160608152602001606081526020016000815260200160008152602001600081526020016000815260200160008152602001606081526020016060815260200160608152602001600015158152602001600073ffffffffffffffffffffffffffffffffffffffff1681526020016000815260200160008152602001600081526020016000151581526020016000815260200160008152602001600015158152602001600073ffffffffffffffffffffffffffffffffffffffff1681525090565b60405180610160016040528060008152602001600081526020016060815260200160008152602001600073ffffffffffffffffffffffffffffffffffffffff168152602001600081526020016060815260200160608152602001606081526020016000151581526020016000151581525090565b828054613c3090615c93565b90600052602060002090601f016020900481019282613c525760008555613c99565b82601f10613c6b57805160ff1916838001178555613c99565b82800160010185558215613c99579182015b82811115613c98578251825591602001919060010190613c7d565b5b509050613ca69190613d0a565b5090565b828054828255906000526020600020908101928215613cf9579160200282015b82811115613cf8578251829080519060200190613ce8929190613c24565b5091602001919060010190613cca565b5b509050613d069190613d44565b5090565b5b80821115613d23576000816000905550600101613d0b565b5090565b5b80821115613d40576000816000905550600101613d28565b5090565b5b80821115613d645760008181613d5b9190613d68565b50600101613d45565b5090565b508054613d7490615c93565b6000825580601f10613d865750613da5565b601f016020900490600052602060002090810190613da49190613d0a565b5b50565b6000604051905090565b600080fd5b600080fd5b6000819050919050565b613dcf81613dbc565b8114613dda57600080fd5b50565b600081359050613dec81613dc6565b92915050565b60008060408385031215613e0957613e08613db2565b5b6000613e1785828601613ddd565b9250506020613e2885828601613ddd565b9150509250929050565b600081519050919050565b600082825260208201905092915050565b6000819050602082019050919050565b600073ffffffffffffffffffffffffffffffffffffffff82169050919050565b6000613e8982613e5e565b9050919050565b613e9981613e7e565b82525050565b6000613eab8383613e90565b60208301905092915050565b6000602082019050919050565b6000613ecf82613e32565b613ed98185613e3d565b9350613ee483613e4e565b8060005b83811015613f15578151613efc8882613e9f565b9750613f0783613eb7565b925050600181019050613ee8565b5085935050505092915050565b60006020820190508181036000830152613f3c8184613ec4565b905092915050565b613f4d81613e7e565b8114613f5857600080fd5b50565b600081359050613f6a81613f44565b92915050565b600060208284031215613f8657613f85613db2565b5b6000613f9484828501613f5b565b91505092915050565b60008115159050919050565b613fb281613f9d565b82525050565b6000602082019050613fcd6000830184613fa9565b92915050565b600080fd5b6000601f19601f8301169050919050565b7f4e487b7100000000000000000000000000000000000000000000000000000000600052604160045260246000fd5b61402182613fd8565b810181811067ffffffffffffffff821117156140405761403f613fe9565b5b80604052505050565b6000614053613da8565b905061405f8282614018565b919050565b600067ffffffffffffffff82111561407f5761407e613fe9565b5b602082029050602081019050919050565b600080fd5b60006140a86140a384614064565b614049565b905080838252602082019050602084028301858111156140cb576140ca614090565b5b835b818110156140f457806140e08882613ddd565b8452602084019350506020810190506140cd565b5050509392505050565b600082601f83011261411357614112613fd3565b5b8135614123848260208601614095565b91505092915050565b60008060006060848603121561414557614144613db2565b5b600061415386828701613ddd565b935050602061416486828701613ddd565b925050604084013567ffffffffffffffff81111561418557614184613db7565b5b614191868287016140fe565b9150509250925092565b6000806000606084860312156141b4576141b3613db2565b5b60006141c286828701613ddd565b93505060206141d386828701613ddd565b92505060406141e486828701613ddd565b9150509250925092565b60008060006060848603121561420757614206613db2565b5b600061421586828701613ddd565b935050602061422686828701613f5b565b925050604061423786828701613ddd565b9150509250925092565b60006020828403121561425757614256613db2565b5b600061426584828501613ddd565b91505092915050565b61427781613dbc565b82525050565b600081519050919050565b600082825260208201905092915050565b60005b838110156142b757808201518184015260208101905061429c565b838111156142c6576000848401525b50505050565b60006142d78261427d565b6142e18185614288565b93506142f1818560208601614299565b6142fa81613fd8565b840191505092915050565b600081519050919050565b600082825260208201905092915050565b6000819050602082019050919050565b6000819050919050565b61434481614331565b82525050565b6000614356838361433b565b60208301905092915050565b6000602082019050919050565b600061437a82614305565b6143848185614310565b935061438f83614321565b8060005b838110156143c05781516143a7888261434a565b97506143b283614362565b925050600181019050614393565b5085935050505092915050565b600081519050919050565b600082825260208201905092915050565b6000819050602082019050919050565b6000614405838361426e565b60208301905092915050565b6000602082019050919050565b6000614429826143cd565b61443381856143d8565b935061443e836143e9565b8060005b8381101561446f57815161445688826143f9565b975061446183614411565b925050600181019050614442565b5085935050505092915050565b600081519050919050565b600082825260208201905092915050565b6000819050602082019050919050565b60006144b483836142cc565b905092915050565b6000602082019050919050565b60006144d48261447c565b6144de8185614487565b9350836020820285016144f085614498565b8060005b8581101561452c578484038952815161450d85826144a8565b9450614518836144bc565b925060208a019950506001810190506144f4565b50829750879550505050505092915050565b61454781613f9d565b82525050565b6000819050919050565b600061457261456d61456884613e5e565b61454d565b613e5e565b9050919050565b600061458482614557565b9050919050565b600061459682614579565b9050919050565b6145a68161458b565b82525050565b6000610340830160008301516145c5600086018261426e565b5060208301516145d8602086018261426e565b50604083015184820360408601526145f082826142cc565b9150506060830151848203606086015261460a828261436f565b915050608083015161461f608086018261426e565b5060a083015184820360a086015261463782826142cc565b91505060c083015184820360c086015261465182826142cc565b91505060e083015184820360e086015261466b82826142cc565b91505061010083015161468261010086018261426e565b5061012083015161469761012086018261426e565b506101408301516146ac61014086018261426e565b506101608301516146c161016086018261426e565b506101808301516146d661018086018261426e565b506101a08301518482036101a08601526146f0828261441e565b9150506101c08301518482036101c086015261470c82826142cc565b9150506101e08301518482036101e086015261472882826144c9565b91505061020083015161473f61020086018261453e565b5061022083015161475461022086018261459d565b5061024083015161476961024086018261426e565b5061026083015161477e61026086018261426e565b5061028083015161479361028086018261426e565b506102a08301516147a86102a086018261453e565b506102c08301516147bd6102c086018261426e565b506102e08301516147d26102e086018261426e565b506103008301516147e761030086018261453e565b506103208301516147fc610320860182613e90565b508091505092915050565b600081519050919050565b600082825260208201905092915050565b6000819050602082019050919050565b600082825260208201905092915050565b600061484f82613e32565b6148598185614833565b935061486483613e4e565b8060005b8381101561489557815161487c8882613e9f565b975061488783613eb7565b925050600181019050614868565b5085935050505092915050565b6000610160830160008301516148bb600086018261426e565b5060208301516148ce602086018261426e565b50604083015184820360408601526148e68282614844565b91505060608301516148fb606086018261426e565b50608083015161490e6080860182613e90565b5060a083015161492160a086018261426e565b5060c083015184820360c0860152614939828261436f565b91505060e083015184820360e0860152614953828261436f565b91505061010083015184820361010086015261496f828261436f565b91505061012083015161498661012086018261453e565b5061014083015161499b61014086018261453e565b508091505092915050565b60006149b283836148a2565b905092915050565b6000602082019050919050565b60006149d282614807565b6149dc8185614812565b9350836020820285016149ee85614823565b8060005b85811015614a2a5784840389528151614a0b85826149a6565b9450614a16836149ba565b925060208a019950506001810190506149f2565b50829750879550505050505092915050565b60006040820190508181036000830152614a5681856145ac565b90508181036020830152614a6a81846149c7565b90509392505050565b600082825260208201905092915050565b6000614a8f826143cd565b614a998185614a73565b9350614aa4836143e9565b8060005b83811015614ad5578151614abc88826143f9565b9750614ac783614411565b925050600181019050614aa8565b5085935050505092915050565b60006020820190508181036000830152614afc8184614a84565b905092915050565b600060208284031215614b1a57614b19613db2565b5b600082013567ffffffffffffffff811115614b3857614b37613db7565b5b614b44848285016140fe565b91505092915050565b600081519050919050565b600082825260208201905092915050565b6000819050602082019050919050565b600061034083016000830151614b92600086018261426e565b506020830151614ba5602086018261426e565b5060408301518482036040860152614bbd82826142cc565b91505060608301518482036060860152614bd7828261436f565b9150506080830151614bec608086018261426e565b5060a083015184820360a0860152614c0482826142cc565b91505060c083015184820360c0860152614c1e82826142cc565b91505060e083015184820360e0860152614c3882826142cc565b915050610100830151614c4f61010086018261426e565b50610120830151614c6461012086018261426e565b50610140830151614c7961014086018261426e565b50610160830151614c8e61016086018261426e565b50610180830151614ca361018086018261426e565b506101a08301518482036101a0860152614cbd828261441e565b9150506101c08301518482036101c0860152614cd982826142cc565b9150506101e08301518482036101e0860152614cf582826144c9565b915050610200830151614d0c61020086018261453e565b50610220830151614d2161022086018261459d565b50610240830151614d3661024086018261426e565b50610260830151614d4b61026086018261426e565b50610280830151614d6061028086018261426e565b506102a0830151614d756102a086018261453e565b506102c0830151614d8a6102c086018261426e565b506102e0830151614d9f6102e086018261426e565b50610300830151614db461030086018261453e565b50610320830151614dc9610320860182613e90565b508091505092915050565b6000614de08383614b79565b905092915050565b6000602082019050919050565b6000614e0082614b4d565b614e0a8185614b58565b935083602082028501614e1c85614b69565b8060005b85811015614e585784840389528151614e398582614dd4565b9450614e4483614de8565b925060208a01995050600181019050614e20565b50829750879550505050505092915050565b60006020820190508181036000830152614e848184614df5565b905092915050565b600061016083016000830151614ea5600086018261426e565b506020830151614eb8602086018261426e565b5060408301518482036040860152614ed08282614844565b9150506060830151614ee5606086018261426e565b506080830151614ef86080860182613e90565b5060a0830151614f0b60a086018261426e565b5060c083015184820360c0860152614f23828261436f565b91505060e083015184820360e0860152614f3d828261436f565b915050610100830151848203610100860152614f59828261436f565b915050610120830151614f7061012086018261453e565b50610140830151614f8561014086018261453e565b508091505092915050565b60006020820190508181036000830152614faa8184614e8c565b905092915050565b614fbb81613dbc565b82525050565b6000602082019050614fd66000830184614fb2565b92915050565b614fe581613e7e565b82525050565b60006020820190506150006000830184614fdc565b92915050565b6000602082019050818103600083015261502081846145ac565b905092915050565b600080fd5b600067ffffffffffffffff82111561504857615047613fe9565b5b61505182613fd8565b9050602081019050919050565b82818337600083830152505050565b600061508061507b8461502d565b614049565b90508281526020810184848401111561509c5761509b615028565b5b6150a784828561505e565b509392505050565b600082601f8301126150c4576150c3613fd3565b5b81356150d484826020860161506d565b91505092915050565b6000602082840312156150f3576150f2613db2565b5b600082013567ffffffffffffffff81111561511157615110613db7565b5b61511d848285016150af565b91505092915050565b600067ffffffffffffffff82111561514157615140613fe9565b5b602082029050602081019050919050565b600061516561516084615126565b614049565b9050808382526020820190506020840283018581111561518857615187614090565b5b835b818110156151b1578061519d8882613f5b565b84526020840193505060208101905061518a565b5050509392505050565b600082601f8301126151d0576151cf613fd3565b5b81356151e0848260208601615152565b91505092915050565b60008060006060848603121561520257615201613db2565b5b600061521086828701613ddd565b935050602061522186828701613ddd565b925050604084013567ffffffffffffffff81111561524257615241613db7565b5b61524e868287016151bb565b9150509250925092565b61526181614331565b82525050565b600060208201905061527c6000830184615258565b92915050565b6000602082019050818103600083015261529c81846149c7565b905092915050565b600080fd5b600080fd5b600067ffffffffffffffff8211156152c9576152c8613fe9565b5b602082029050602081019050919050565b6152e381614331565b81146152ee57600080fd5b50565b600081359050615300816152da565b92915050565b6000615319615314846152ae565b614049565b9050808382526020820190506020840283018581111561533c5761533b614090565b5b835b81811015615365578061535188826152f1565b84526020840193505060208101905061533e565b5050509392505050565b600082601f83011261538457615383613fd3565b5b8135615394848260208601615306565b91505092915050565b600067ffffffffffffffff8211156153b8576153b7613fe9565b5b602082029050602081019050919050565b60006153dc6153d78461539d565b614049565b905080838252602082019050602084028301858111156153ff576153fe614090565b5b835b8181101561544657803567ffffffffffffffff81111561542457615423613fd3565b5b80860161543189826150af565b85526020850194505050602081019050615401565b5050509392505050565b600082601f83011261546557615464613fd3565b5b81356154758482602086016153c9565b91505092915050565b61548781613f9d565b811461549257600080fd5b50565b6000813590506154a48161547e565b92915050565b60006154b582613e7e565b9050919050565b6154c5816154aa565b81146154d057600080fd5b50565b6000813590506154e2816154bc565b92915050565b600061034082840312156154ff576154fe6152a4565b5b61550a610340614049565b9050600061551a84828501613ddd565b600083015250602061552e84828501613ddd565b602083015250604082013567ffffffffffffffff811115615552576155516152a9565b5b61555e848285016150af565b604083015250606082013567ffffffffffffffff811115615582576155816152a9565b5b61558e8482850161536f565b60608301525060806155a284828501613ddd565b60808301525060a082013567ffffffffffffffff8111156155c6576155c56152a9565b5b6155d2848285016150af565b60a08301525060c082013567ffffffffffffffff8111156155f6576155f56152a9565b5b615602848285016150af565b60c08301525060e082013567ffffffffffffffff811115615626576156256152a9565b5b615632848285016150af565b60e08301525061010061564784828501613ddd565b6101008301525061012061565d84828501613ddd565b6101208301525061014061567384828501613ddd565b6101408301525061016061568984828501613ddd565b6101608301525061018061569f84828501613ddd565b610180830152506101a082013567ffffffffffffffff8111156156c5576156c46152a9565b5b6156d1848285016140fe565b6101a0830152506101c082013567ffffffffffffffff8111156156f7576156f66152a9565b5b615703848285016150af565b6101c0830152506101e082013567ffffffffffffffff811115615729576157286152a9565b5b61573584828501615450565b6101e08301525061020061574b84828501615495565b61020083015250610220615761848285016154d3565b6102208301525061024061577784828501613ddd565b6102408301525061026061578d84828501613ddd565b610260830152506102806157a384828501613ddd565b610280830152506102a06157b984828501615495565b6102a0830152506102c06157cf84828501613ddd565b6102c0830152506102e06157e584828501613ddd565b6102e0830152506103006157fb84828501615495565b6103008301525061032061581184828501613f5b565b6103208301525092915050565b6000806040838503121561583557615834613db2565b5b600083013567ffffffffffffffff81111561585357615852613db7565b5b61585f858286016150af565b925050602083013567ffffffffffffffff8111156158805761587f613db7565b5b61588c858286016154e8565b9150509250929050565b600061016082840312156158ad576158ac6152a4565b5b6158b8610160614049565b905060006158c884828501613ddd565b60008301525060206158dc84828501613ddd565b602083015250604082013567ffffffffffffffff811115615900576158ff6152a9565b5b61590c848285016151bb565b604083015250606061592084828501613ddd565b606083015250608061593484828501613f5b565b60808301525060a061594884828501613ddd565b60a08301525060c082013567ffffffffffffffff81111561596c5761596b6152a9565b5b6159788482850161536f565b60c08301525060e082013567ffffffffffffffff81111561599c5761599b6152a9565b5b6159a88482850161536f565b60e08301525061010082013567ffffffffffffffff8111156159cd576159cc6152a9565b5b6159d98482850161536f565b610100830152506101206159ef84828501615495565b61012083015250610140615a0584828501615495565b6101408301525092915050565b600080600060608486031215615a2b57615a2a613db2565b5b6000615a3986828701613ddd565b9350506020615a4a86828701613ddd565b925050604084013567ffffffffffffffff811115615a6b57615a6a613db7565b5b615a7786828701615896565b9150509250925092565b600080600060608486031215615a9a57615a99613db2565b5b6000615aa886828701613ddd565b9350506020615ab986828701613ddd565b9250506040615aca86828701613f5b565b9150509250925092565b600082825260208201905092915050565b7f4f6e6c79204f70657261746f7200000000000000000000000000000000000000600082015250565b6000615b1b600d83615ad4565b9150615b2682615ae5565b602082019050919050565b60006020820190508181036000830152615b4a81615b0e565b9050919050565b7f4e487b7100000000000000000000000000000000000000000000000000000000600052603260045260246000fd5b7f4e487b7100000000000000000000000000000000000000000000000000000000600052601160045260246000fd5b6000615bba82613dbc565b91507fffffffffffffffffffffffffffffffffffffffffffffffffffffffffffffffff821415615bed57615bec615b80565b5b600182019050919050565b7f4f6e6c79204f776e657200000000000000000000000000000000000000000000600082015250565b6000615c2e600a83615ad4565b9150615c3982615bf8565b602082019050919050565b60006020820190508181036000830152615c5d81615c21565b9050919050565b7f4e487b7100000000000000000000000000000000000000000000000000000000600052602260045260246000fd5b60006002820490506001821680615cab57607f821691505b60208210811415615cbf57615cbe615c64565b5b50919050565b600081905092915050565b6000615cdb8261427d565b615ce58185615cc5565b9350615cf5818560208601614299565b80840191505092915050565b6000615d0d8284615cd0565b915081905092915050565b6000615d2382613dbc565b9150615d2e83613dbc565b9250827fffffffffffffffffffffffffffffffffffffffffffffffffffffffffffffffff03821115615d6357615d62615b80565b5b828201905092915050565b7f536166654d6174683a206164646974696f6e206f766572666c6f770000000000600082015250565b6000615da4601b83615ad4565b9150615daf82615d6e565b602082019050919050565b60006020820190508181036000830152615dd381615d97565b9050919050565b6000615de58261427d565b615def8185615ad4565b9350615dff818560208601614299565b615e0881613fd8565b840191505092915050565b60006020820190508181036000830152615e2d8184615dda565b905092915050565b6000615e4082613dbc565b9150615e4b83613dbc565b925082821015615e5e57615e5d615b80565b5b82820390509291505056fea26469706673582212203966b5f0638d10f41a03f03d5472c5124031d02849c3e5917976b075513e932864736f6c63430008090033",
  "linkReferences": {},
  "deployedLinkReferences": {}
}