{
  "_format": "hh-sol-artifact-1",
  "contractName": "GameDataStorage",
  "sourceName": "src/contracts/game/data_storage.sol",
  "abi": [
    {
      "inputs": [],
      "stateMutability": "nonpayable",
      "type": "constructor"
    },
    {
      "inputs": [
        {
          "internalType": "uint256",
          "name": "_gameId",
          "type": "uint256"
        },
        {
          "internalType": "uint256",
          "name": "_round",
          "type": "uint256"
        },
        {
          "internalType": "uint256",
          "name": "_index",
          "type": "uint256"
        }
      ],
      "name": "addBuffPlayers",
      "outputs": [],
      "stateMutability": "nonpayable",
      "type": "function"
    },
    {
      "inputs": [
        {
          "internalType": "address",
          "name": "_newOperator",
          "type": "address"
        }
      ],
      "name": "addOperator",
      "outputs": [],
      "stateMutability": "nonpayable",
      "type": "function"
    },
    {
      "inputs": [
        {
          "internalType": "uint256",
          "name": "_gameId",
          "type": "uint256"
        },
        {
          "internalType": "uint256",
          "name": "_round",
          "type": "uint256"
        },
        {
          "internalType": "address",
          "name": "_player",
          "type": "address"
        }
      ],
      "name": "addPlayer",
      "outputs": [],
      "stateMutability": "nonpayable",
      "type": "function"
    },
    {
      "inputs": [],
      "name": "availableSize",
      "outputs": [
        {
          "internalType": "uint256",
          "name": "",
          "type": "uint256"
        }
      ],
      "stateMutability": "view",
      "type": "function"
    },
    {
      "inputs": [
        {
          "internalType": "address",
          "name": "_removeOperator",
          "type": "address"
        }
      ],
      "name": "delOperator",
      "outputs": [],
      "stateMutability": "nonpayable",
      "type": "function"
    },
    {
      "inputs": [
        {
          "internalType": "uint256",
          "name": "_gameId",
          "type": "uint256"
        },
        {
          "internalType": "uint256",
          "name": "_round",
          "type": "uint256"
        },
        {
          "components": [
            {
              "internalType": "uint256",
              "name": "gameId",
              "type": "uint256"
            },
            {
              "internalType": "address[]",
              "name": "winners",
              "type": "address[]"
            },
            {
              "internalType": "uint256",
              "name": "participate",
              "type": "uint256"
            },
            {
              "internalType": "address",
              "name": "sponsor",
              "type": "address"
            },
            {
              "internalType": "uint256",
              "name": "launchTime",
              "type": "uint256"
            },
            {
              "internalType": "int256[]",
              "name": "eliminatePlayerIndexes",
              "type": "int256[]"
            },
            {
              "internalType": "int256[]",
              "name": "buffUsersIndexes",
              "type": "int256[]"
            },
            {
              "internalType": "int256[]",
              "name": "eventsIndexes",
              "type": "int256[]"
            },
            {
              "internalType": "bool",
              "name": "over",
              "type": "bool"
            },
            {
              "internalType": "bool",
              "name": "exist",
              "type": "bool"
            }
          ],
          "internalType": "struct GameDataStorage.GameRound",
          "name": "_gameRound",
          "type": "tuple"
        }
      ],
      "name": "editGameRound",
      "outputs": [],
      "stateMutability": "nonpayable",
      "type": "function"
    },
    {
      "inputs": [
        {
          "internalType": "string",
          "name": "_appId",
          "type": "string"
        }
      ],
      "name": "getAppGames",
      "outputs": [
        {
          "internalType": "uint256[]",
          "name": "",
          "type": "uint256[]"
        }
      ],
      "stateMutability": "view",
      "type": "function"
    },
    {
      "inputs": [],
      "name": "getAvailiableGameIds",
      "outputs": [
        {
          "internalType": "uint256[]",
          "name": "",
          "type": "uint256[]"
        }
      ],
      "stateMutability": "view",
      "type": "function"
    },
    {
      "inputs": [
        {
          "internalType": "uint256",
          "name": "_gameId",
          "type": "uint256"
        },
        {
          "internalType": "uint256",
          "name": "_round",
          "type": "uint256"
        }
      ],
      "name": "getBuffPlayers",
      "outputs": [
        {
          "internalType": "uint256[]",
          "name": "",
          "type": "uint256[]"
        }
      ],
      "stateMutability": "view",
      "type": "function"
    },
    {
      "inputs": [
        {
          "internalType": "uint256",
          "name": "_id",
          "type": "uint256"
        }
      ],
      "name": "getGame",
      "outputs": [
        {
          "components": [
            {
              "internalType": "uint256",
              "name": "id",
              "type": "uint256"
            },
            {
              "internalType": "uint256",
              "name": "category",
              "type": "uint256"
            },
            {
              "internalType": "string",
              "name": "appId",
              "type": "string"
            },
            {
              "internalType": "int256",
              "name": "groupId",
              "type": "int256"
            },
            {
              "internalType": "uint256",
              "name": "botType",
              "type": "uint256"
            },
            {
              "internalType": "string",
              "name": "title",
              "type": "string"
            },
            {
              "internalType": "string",
              "name": "introduction",
              "type": "string"
            },
            {
              "internalType": "string",
              "name": "story",
              "type": "string"
            },
            {
              "internalType": "uint256",
              "name": "eliminateProportion",
              "type": "uint256"
            },
            {
              "internalType": "uint256",
              "name": "awardProportion",
              "type": "uint256"
            },
            {
              "internalType": "uint256",
              "name": "winNum",
              "type": "uint256"
            },
            {
              "internalType": "uint256[]",
              "name": "buffIds",
              "type": "uint256[]"
            },
            {
              "internalType": "string[]",
              "name": "events",
              "type": "string[]"
            },
            {
              "internalType": "bool",
              "name": "ticketIsEth",
              "type": "bool"
            },
            {
              "internalType": "contract IERC20",
              "name": "ticketsToken",
              "type": "address"
            },
            {
              "internalType": "uint256",
              "name": "ticketAmount",
              "type": "uint256"
            },
            {
              "internalType": "uint256",
              "name": "effectStartTime",
              "type": "uint256"
            },
            {
              "internalType": "uint256",
              "name": "effectEndTime",
              "type": "uint256"
            },
            {
              "internalType": "bool",
              "name": "daily",
              "type": "bool"
            },
            {
              "internalType": "uint256",
              "name": "startH",
              "type": "uint256"
            },
            {
              "internalType": "uint256",
              "name": "startM",
              "type": "uint256"
            },
            {
              "internalType": "bool",
              "name": "exist",
              "type": "bool"
            },
            {
              "internalType": "address",
              "name": "creator",
              "type": "address"
            }
          ],
          "internalType": "struct GameDataStorage.GameDetail",
          "name": "",
          "type": "tuple"
        }
      ],
      "stateMutability": "view",
      "type": "function"
    },
    {
      "inputs": [],
      "name": "getGameIds",
      "outputs": [
        {
          "internalType": "uint256[]",
          "name": "",
          "type": "uint256[]"
        }
      ],
      "stateMutability": "view",
      "type": "function"
    },
    {
      "inputs": [
        {
          "internalType": "uint256",
          "name": "_gameId",
          "type": "uint256"
        }
      ],
      "name": "getGameLatestRoundNum",
      "outputs": [
        {
          "internalType": "int256",
          "name": "",
          "type": "int256"
        }
      ],
      "stateMutability": "view",
      "type": "function"
    },
    {
      "inputs": [
        {
          "internalType": "uint256",
          "name": "_gameId",
          "type": "uint256"
        },
        {
          "internalType": "uint256",
          "name": "_round",
          "type": "uint256"
        }
      ],
      "name": "getGameRound",
      "outputs": [
        {
          "components": [
            {
              "internalType": "uint256",
              "name": "gameId",
              "type": "uint256"
            },
            {
              "internalType": "address[]",
              "name": "winners",
              "type": "address[]"
            },
            {
              "internalType": "uint256",
              "name": "participate",
              "type": "uint256"
            },
            {
              "internalType": "address",
              "name": "sponsor",
              "type": "address"
            },
            {
              "internalType": "uint256",
              "name": "launchTime",
              "type": "uint256"
            },
            {
              "internalType": "int256[]",
              "name": "eliminatePlayerIndexes",
              "type": "int256[]"
            },
            {
              "internalType": "int256[]",
              "name": "buffUsersIndexes",
              "type": "int256[]"
            },
            {
              "internalType": "int256[]",
              "name": "eventsIndexes",
              "type": "int256[]"
            },
            {
              "internalType": "bool",
              "name": "over",
              "type": "bool"
            },
            {
              "internalType": "bool",
              "name": "exist",
              "type": "bool"
            }
          ],
          "internalType": "struct GameDataStorage.GameRound",
          "name": "",
          "type": "tuple"
        }
      ],
      "stateMutability": "view",
      "type": "function"
    },
    {
      "inputs": [
        {
          "internalType": "uint256",
          "name": "_gameId",
          "type": "uint256"
        }
      ],
      "name": "getGameRoundList",
      "outputs": [
        {
          "components": [
            {
              "internalType": "uint256",
              "name": "gameId",
              "type": "uint256"
            },
            {
              "internalType": "address[]",
              "name": "winners",
              "type": "address[]"
            },
            {
              "internalType": "uint256",
              "name": "participate",
              "type": "uint256"
            },
            {
              "internalType": "address",
              "name": "sponsor",
              "type": "address"
            },
            {
              "internalType": "uint256",
              "name": "launchTime",
              "type": "uint256"
            },
            {
              "internalType": "int256[]",
              "name": "eliminatePlayerIndexes",
              "type": "int256[]"
            },
            {
              "internalType": "int256[]",
              "name": "buffUsersIndexes",
              "type": "int256[]"
            },
            {
              "internalType": "int256[]",
              "name": "eventsIndexes",
              "type": "int256[]"
            },
            {
              "internalType": "bool",
              "name": "over",
              "type": "bool"
            },
            {
              "internalType": "bool",
              "name": "exist",
              "type": "bool"
            }
          ],
          "internalType": "struct GameDataStorage.GameRound[]",
          "name": "",
          "type": "tuple[]"
        }
      ],
      "stateMutability": "view",
      "type": "function"
    },
    {
      "inputs": [
        {
          "internalType": "uint256[]",
          "name": "_ids",
          "type": "uint256[]"
        }
      ],
      "name": "getGames",
      "outputs": [
        {
          "components": [
            {
              "internalType": "uint256",
              "name": "id",
              "type": "uint256"
            },
            {
              "internalType": "uint256",
              "name": "category",
              "type": "uint256"
            },
            {
              "internalType": "string",
              "name": "appId",
              "type": "string"
            },
            {
              "internalType": "int256",
              "name": "groupId",
              "type": "int256"
            },
            {
              "internalType": "uint256",
              "name": "botType",
              "type": "uint256"
            },
            {
              "internalType": "string",
              "name": "title",
              "type": "string"
            },
            {
              "internalType": "string",
              "name": "introduction",
              "type": "string"
            },
            {
              "internalType": "string",
              "name": "story",
              "type": "string"
            },
            {
              "internalType": "uint256",
              "name": "eliminateProportion",
              "type": "uint256"
            },
            {
              "internalType": "uint256",
              "name": "awardProportion",
              "type": "uint256"
            },
            {
              "internalType": "uint256",
              "name": "winNum",
              "type": "uint256"
            },
            {
              "internalType": "uint256[]",
              "name": "buffIds",
              "type": "uint256[]"
            },
            {
              "internalType": "string[]",
              "name": "events",
              "type": "string[]"
            },
            {
              "internalType": "bool",
              "name": "ticketIsEth",
              "type": "bool"
            },
            {
              "internalType": "contract IERC20",
              "name": "ticketsToken",
              "type": "address"
            },
            {
              "internalType": "uint256",
              "name": "ticketAmount",
              "type": "uint256"
            },
            {
              "internalType": "uint256",
              "name": "effectStartTime",
              "type": "uint256"
            },
            {
              "internalType": "uint256",
              "name": "effectEndTime",
              "type": "uint256"
            },
            {
              "internalType": "bool",
              "name": "daily",
              "type": "bool"
            },
            {
              "internalType": "uint256",
              "name": "startH",
              "type": "uint256"
            },
            {
              "internalType": "uint256",
              "name": "startM",
              "type": "uint256"
            },
            {
              "internalType": "bool",
              "name": "exist",
              "type": "bool"
            },
            {
              "internalType": "address",
              "name": "creator",
              "type": "address"
            }
          ],
          "internalType": "struct GameDataStorage.GameDetail[]",
          "name": "",
          "type": "tuple[]"
        }
      ],
      "stateMutability": "view",
      "type": "function"
    },
    {
      "inputs": [
        {
          "internalType": "uint256",
          "name": "_gameId",
          "type": "uint256"
        },
        {
          "internalType": "uint256",
          "name": "_ground",
          "type": "uint256"
        }
      ],
      "name": "getPlayers",
      "outputs": [
        {
          "internalType": "address[]",
          "name": "",
          "type": "address[]"
        }
      ],
      "stateMutability": "view",
      "type": "function"
    },
    {
      "inputs": [
        {
          "internalType": "uint256",
          "name": "_gameId",
          "type": "uint256"
        },
        {
          "internalType": "uint256",
          "name": "_round",
          "type": "uint256"
        }
      ],
      "name": "getTicketsPool",
      "outputs": [
        {
          "internalType": "uint256",
          "name": "",
          "type": "uint256"
        }
      ],
      "stateMutability": "view",
      "type": "function"
    },
    {
      "inputs": [
        {
          "internalType": "uint256",
          "name": "_gameId",
          "type": "uint256"
        },
        {
          "internalType": "address",
          "name": "_sponsor",
          "type": "address"
        },
        {
          "internalType": "uint256",
          "name": "_launchTime",
          "type": "uint256"
        }
      ],
      "name": "initGameRound",
      "outputs": [],
      "stateMutability": "nonpayable",
      "type": "function"
    },
    {
      "inputs": [
        {
          "internalType": "address",
          "name": "",
          "type": "address"
        }
      ],
      "name": "operators",
      "outputs": [
        {
          "internalType": "bool",
          "name": "",
          "type": "bool"
        }
      ],
      "stateMutability": "view",
      "type": "function"
    },
    {
      "inputs": [],
      "name": "owner",
      "outputs": [
        {
          "internalType": "address",
          "name": "",
          "type": "address"
        }
      ],
      "stateMutability": "view",
      "type": "function"
    },
    {
      "inputs": [
        {
          "internalType": "uint256",
          "name": "_newSize",
          "type": "uint256"
        }
      ],
      "name": "setAvailableSize",
      "outputs": [],
      "stateMutability": "nonpayable",
      "type": "function"
    },
    {
      "inputs": [
        {
          "internalType": "uint256",
          "name": "_gameId",
          "type": "uint256"
        },
        {
          "internalType": "uint256",
          "name": "_round",
          "type": "uint256"
        },
        {
          "internalType": "uint256[]",
          "name": "_indexes",
          "type": "uint256[]"
        }
      ],
      "name": "setBuffPlayers",
      "outputs": [],
      "stateMutability": "nonpayable",
      "type": "function"
    },
    {
      "inputs": [
        {
          "internalType": "string",
          "name": "_appId",
          "type": "string"
        },
        {
          "components": [
            {
              "internalType": "uint256",
              "name": "id",
              "type": "uint256"
            },
            {
              "internalType": "uint256",
              "name": "category",
              "type": "uint256"
            },
            {
              "internalType": "string",
              "name": "appId",
              "type": "string"
            },
            {
              "internalType": "int256",
              "name": "groupId",
              "type": "int256"
            },
            {
              "internalType": "uint256",
              "name": "botType",
              "type": "uint256"
            },
            {
              "internalType": "string",
              "name": "title",
              "type": "string"
            },
            {
              "internalType": "string",
              "name": "introduction",
              "type": "string"
            },
            {
              "internalType": "string",
              "name": "story",
              "type": "string"
            },
            {
              "internalType": "uint256",
              "name": "eliminateProportion",
              "type": "uint256"
            },
            {
              "internalType": "uint256",
              "name": "awardProportion",
              "type": "uint256"
            },
            {
              "internalType": "uint256",
              "name": "winNum",
              "type": "uint256"
            },
            {
              "internalType": "uint256[]",
              "name": "buffIds",
              "type": "uint256[]"
            },
            {
              "internalType": "string[]",
              "name": "events",
              "type": "string[]"
            },
            {
              "internalType": "bool",
              "name": "ticketIsEth",
              "type": "bool"
            },
            {
              "internalType": "contract IERC20",
              "name": "ticketsToken",
              "type": "address"
            },
            {
              "internalType": "uint256",
              "name": "ticketAmount",
              "type": "uint256"
            },
            {
              "internalType": "uint256",
              "name": "effectStartTime",
              "type": "uint256"
            },
            {
              "internalType": "uint256",
              "name": "effectEndTime",
              "type": "uint256"
            },
            {
              "internalType": "bool",
              "name": "daily",
              "type": "bool"
            },
            {
              "internalType": "uint256",
              "name": "startH",
              "type": "uint256"
            },
            {
              "internalType": "uint256",
              "name": "startM",
              "type": "uint256"
            },
            {
              "internalType": "bool",
              "name": "exist",
              "type": "bool"
            },
            {
              "internalType": "address",
              "name": "creator",
              "type": "address"
            }
          ],
          "internalType": "struct GameDataStorage.GameDetail",
          "name": "_game",
          "type": "tuple"
        }
      ],
      "name": "setGame",
      "outputs": [],
      "stateMutability": "nonpayable",
      "type": "function"
    },
    {
      "inputs": [
        {
          "internalType": "uint256",
          "name": "_gameId",
          "type": "uint256"
        },
        {
          "internalType": "uint256",
          "name": "_round",
          "type": "uint256"
        },
        {
          "internalType": "address[]",
          "name": "_players",
          "type": "address[]"
        }
      ],
      "name": "setPlayers",
      "outputs": [],
      "stateMutability": "nonpayable",
      "type": "function"
    },
    {
      "inputs": [
        {
          "internalType": "address",
          "name": "_newOwner",
          "type": "address"
        }
      ],
      "name": "transferOwner",
      "outputs": [],
      "stateMutability": "nonpayable",
      "type": "function"
    }
  ],
  "bytecode": "0x608060405260646008553480156200001657600080fd5b50336000806101000a81548173ffffffffffffffffffffffffffffffffffffffff021916908373ffffffffffffffffffffffffffffffffffffffff16021790555062000068336200006e60201b60201c565b620001dc565b60008054906101000a900473ffffffffffffffffffffffffffffffffffffffff1673ffffffffffffffffffffffffffffffffffffffff163373ffffffffffffffffffffffffffffffffffffffff1614620000ff576040517f08c379a0000000000000000000000000000000000000000000000000000000008152600401620000f690620001ba565b60405180910390fd5b60018060008373ffffffffffffffffffffffffffffffffffffffff1673ffffffffffffffffffffffffffffffffffffffff16815260200190815260200160002060006101000a81548160ff02191690831515021790555050565b600082825260208201905092915050565b7f4f6e6c79204f776e657200000000000000000000000000000000000000000000600082015250565b6000620001a2600a8362000159565b9150620001af826200016a565b602082019050919050565b60006020820190508181036000830152620001d58162000193565b9050919050565b61589d80620001ec6000396000f3fe608060405234801561001057600080fd5b50600436106101a35760003560e01c80637d878731116100ee578063a996265a11610097578063dc3dd69e11610071578063dc3dd69e1461049c578063e6357654146104cc578063ea7a48da146104fc578063ffe41ad314610518576101a3565b8063a996265a14610432578063b49d53a214610462578063cc9956741461047e576101a3565b80639870d7fe116100c85780639870d7fe146103c85780639f668bba146103e4578063a2f77bcc14610402576101a3565b80637d878731146103705780638da5cb5b1461038e5780639851ad4b146103ac576101a3565b80634fb2e45d116101505780636cc5f3ad1161012a5780636cc5f3ad146102e057806370c1b1d714610310578063751938af14610340576101a3565b80634fb2e45d1461027857806357e40a64146102945780636a3f5dc5146102b0576101a3565b80632c22c036116101815780632c22c036146102245780633e30838d1461024057806342f2a5e31461025c576101a3565b80630d2dce22146101a857806313e7c9d8146101d857806327a343b314610208575b600080fd5b6101c260048036038101906101bd919061397b565b610534565b6040516101cf9190613aab565b60405180910390f35b6101f260048036038101906101ed9190613af9565b6105e7565b6040516101ff9190613b41565b60405180910390f35b610222600480360381019061021d9190613b5c565b610607565b005b61023e60048036038101906102399190613ce2565b61069f565b005b61025a60048036038101906102559190613af9565b610824565b005b61027660048036038101906102719190613d51565b61090d565b005b610292600480360381019061028d9190613af9565b6109e9565b005b6102ae60048036038101906102a99190613da4565b610b8a565b005b6102ca60048036038101906102c5919061397b565b610f2b565b6040516102d79190613eb5565b60405180910390f35b6102fa60048036038101906102f59190613ed7565b610fa8565b6040516103079190614430565b60405180910390f35b61032a6004803603810190610325919061397b565b611571565b604051610337919061465f565b60405180910390f35b61035a6004803603810190610355919061397b565b6119f2565b6040516103679190614690565b60405180910390f35b610378611a21565b6040516103859190614690565b60405180910390f35b610396611a27565b6040516103a391906146ba565b60405180910390f35b6103c660048036038101906103c19190614bc7565b611a4b565b005b6103e260048036038101906103dd9190613af9565b611dbc565b005b6103ec611ea4565b6040516103f99190613eb5565b60405180910390f35b61041c60048036038101906104179190613b5c565b611efc565b6040516104299190614e4d565b60405180910390f35b61044c60048036038101906104479190614e6f565b612418565b6040516104599190613eb5565b60405180910390f35b61047c60048036038101906104779190614f7b565b61248e565b005b610486612781565b6040516104939190613eb5565b60405180910390f35b6104b660048036038101906104b19190613b5c565b612d95565b6040516104c39190614ff9565b60405180910390f35b6104e660048036038101906104e19190613b5c565b612e0f565b6040516104f391906151c5565b60405180910390f35b61051660048036038101906105119190615410565b6130c2565b005b610532600480360381019061052d919061547f565b6132a5565b005b60606005600084815260200190815260200160002060008381526020019081526020016000208054806020026020016040519081016040528092919081815260200182805480156105da57602002820191906000526020600020905b8160009054906101000a900473ffffffffffffffffffffffffffffffffffffffff1673ffffffffffffffffffffffffffffffffffffffff1681526020019060010190808311610590575b5050505050905092915050565b60016020528060005260406000206000915054906101000a900460ff1681565b60008054906101000a900473ffffffffffffffffffffffffffffffffffffffff1673ffffffffffffffffffffffffffffffffffffffff163373ffffffffffffffffffffffffffffffffffffffff1614610695576040517f08c379a000000000000000000000000000000000000000000000000000000000815260040161068c9061552f565b60405180910390fd5b8060088190555050565b600160003373ffffffffffffffffffffffffffffffffffffffff1673ffffffffffffffffffffffffffffffffffffffff16815260200190815260200160002060009054906101000a900460ff1661072b576040517f08c379a00000000000000000000000000000000000000000000000000000000081526004016107229061559b565b60405180910390fd5b60006004600085815260200190815260200160002060008481526020019081526020016000208054905014156107995780600460008581526020019081526020016000206000848152602001908152602001600020908051906020019061079392919061353c565b5061081f565b60005b815181101561081d576004600085815260200190815260200160002060008481526020019081526020016000208282815181106107dc576107db6155bb565b5b60200260200101519080600181540180825580915050600190039060005260206000200160009091909190915055808061081590615619565b91505061079c565b505b505050565b60008054906101000a900473ffffffffffffffffffffffffffffffffffffffff1673ffffffffffffffffffffffffffffffffffffffff163373ffffffffffffffffffffffffffffffffffffffff16146108b2576040517f08c379a00000000000000000000000000000000000000000000000000000000081526004016108a99061552f565b60405180910390fd5b6000600160008373ffffffffffffffffffffffffffffffffffffffff1673ffffffffffffffffffffffffffffffffffffffff16815260200190815260200160002060006101000a81548160ff02191690831515021790555050565b600160003373ffffffffffffffffffffffffffffffffffffffff1673ffffffffffffffffffffffffffffffffffffffff16815260200190815260200160002060009054906101000a900460ff16610999576040517f08c379a00000000000000000000000000000000000000000000000000000000081526004016109909061559b565b60405180910390fd5b600460008481526020019081526020016000206000838152602001908152602001600020819080600181540180825580915050600190039060005260206000200160009091909190915055505050565b60008054906101000a900473ffffffffffffffffffffffffffffffffffffffff1673ffffffffffffffffffffffffffffffffffffffff163373ffffffffffffffffffffffffffffffffffffffff1614610a77576040517f08c379a0000000000000000000000000000000000000000000000000000000008152600401610a6e9061552f565b60405180910390fd5b6000600160008060009054906101000a900473ffffffffffffffffffffffffffffffffffffffff1673ffffffffffffffffffffffffffffffffffffffff1673ffffffffffffffffffffffffffffffffffffffff16815260200190815260200160002060006101000a81548160ff021916908315150217905550806000806101000a81548173ffffffffffffffffffffffffffffffffffffffff021916908373ffffffffffffffffffffffffffffffffffffffff16021790555060018060008373ffffffffffffffffffffffffffffffffffffffff1673ffffffffffffffffffffffffffffffffffffffff16815260200190815260200160002060006101000a81548160ff02191690831515021790555050565b600160003373ffffffffffffffffffffffffffffffffffffffff1673ffffffffffffffffffffffffffffffffffffffff16815260200190815260200160002060009054906101000a900460ff16610c16576040517f08c379a0000000000000000000000000000000000000000000000000000000008152600401610c0d9061559b565b60405180910390fd5b6002600084815260200190815260200160002060140160009054906101000a900460ff1615610f26576000604051806101400160405280858152602001600067ffffffffffffffff811115610c6e57610c6d613b9f565b5b604051908082528060200260200182016040528015610c9c5781602001602082028036833780820191505090505b508152602001600081526020018473ffffffffffffffffffffffffffffffffffffffff168152602001838152602001600067ffffffffffffffff811115610ce657610ce5613b9f565b5b604051908082528060200260200182016040528015610d145781602001602082028036833780820191505090505b508152602001600067ffffffffffffffff811115610d3557610d34613b9f565b5b604051908082528060200260200182016040528015610d635781602001602082028036833780820191505090505b508152602001600067ffffffffffffffff811115610d8457610d83613b9f565b5b604051908082528060200260200182016040528015610db25781602001602082028036833780820191505090505b50815260200160001515815260200160011515815250905060096000858152602001908152602001600020819080600181540180825580915050600190039060005260206000209060090201600090919091909150600082015181600001556020820151816001019080519060200190610e2d929190613589565b506040820151816002015560608201518160030160006101000a81548173ffffffffffffffffffffffffffffffffffffffff021916908373ffffffffffffffffffffffffffffffffffffffff1602179055506080820151816004015560a0820151816005019080519060200190610ea5929190613613565b5060c0820151816006019080519060200190610ec2929190613613565b5060e0820151816007019080519060200190610edf929190613613565b506101008201518160080160006101000a81548160ff0219169083151502179055506101208201518160080160016101000a81548160ff0219169083151502179055505050505b505050565b6060600460008481526020019081526020016000206000838152602001908152602001600020805480602002602001604051908101604052809291908181526020018280548015610f9b57602002820191906000526020600020905b815481526020019060010190808311610f87575b5050505050905092915050565b60606000825167ffffffffffffffff811115610fc757610fc6613b9f565b5b60405190808252806020026020018201604052801561100057816020015b610fed613660565b815260200190600190039081610fe55790505b50905060005b83518110156115675760026000858381518110611026576110256155bb565b5b60200260200101518152602001908152602001600020604051806102e0016040529081600082015481526020016001820154815260200160028201805461106c90615691565b80601f016020809104026020016040519081016040528092919081815260200182805461109890615691565b80156110e55780601f106110ba576101008083540402835291602001916110e5565b820191906000526020600020905b8154815290600101906020018083116110c857829003601f168201915b50505050508152602001600382015481526020016004820154815260200160058201805461111290615691565b80601f016020809104026020016040519081016040528092919081815260200182805461113e90615691565b801561118b5780601f106111605761010080835404028352916020019161118b565b820191906000526020600020905b81548152906001019060200180831161116e57829003601f168201915b505050505081526020016006820180546111a490615691565b80601f01602080910402602001604051908101604052809291908181526020018280546111d090615691565b801561121d5780601f106111f25761010080835404028352916020019161121d565b820191906000526020600020905b81548152906001019060200180831161120057829003601f168201915b5050505050815260200160078201805461123690615691565b80601f016020809104026020016040519081016040528092919081815260200182805461126290615691565b80156112af5780601f10611284576101008083540402835291602001916112af565b820191906000526020600020905b81548152906001019060200180831161129257829003601f168201915b505050505081526020016008820154815260200160098201548152602001600a8201548152602001600b820180548060200260200160405190810160405280929190818152602001828054801561132557602002820191906000526020600020905b815481526020019060010190808311611311575b50505050508152602001600c8201805480602002602001604051908101604052809291908181526020016000905b828210156113ff57838290600052602060002001805461137290615691565b80601f016020809104026020016040519081016040528092919081815260200182805461139e90615691565b80156113eb5780601f106113c0576101008083540402835291602001916113eb565b820191906000526020600020905b8154815290600101906020018083116113ce57829003601f168201915b505050505081526020019060010190611353565b505050508152602001600d820160009054906101000a900460ff16151515158152602001600d820160019054906101000a900473ffffffffffffffffffffffffffffffffffffffff1673ffffffffffffffffffffffffffffffffffffffff1673ffffffffffffffffffffffffffffffffffffffff168152602001600e8201548152602001600f8201548152602001601082015481526020016011820160009054906101000a900460ff1615151515815260200160128201548152602001601382015481526020016014820160009054906101000a900460ff161515151581526020016014820160019054906101000a900473ffffffffffffffffffffffffffffffffffffffff1673ffffffffffffffffffffffffffffffffffffffff1673ffffffffffffffffffffffffffffffffffffffff1681525050828281518110611549576115486155bb565b5b6020026020010181905250808061155f90615619565b915050611006565b5080915050919050565b611579613740565b600060405180610140016040528060008152602001600067ffffffffffffffff8111156115a9576115a8613b9f565b5b6040519080825280602002602001820160405280156115d75781602001602082028036833780820191505090505b50815260200160008152602001600073ffffffffffffffffffffffffffffffffffffffff16815260200160008152602001600067ffffffffffffffff81111561162357611622613b9f565b5b6040519080825280602002602001820160405280156116515781602001602082028036833780820191505090505b508152602001600067ffffffffffffffff81111561167257611671613b9f565b5b6040519080825280602002602001820160405280156116a05781602001602082028036833780820191505090505b508152602001600067ffffffffffffffff8111156116c1576116c0613b9f565b5b6040519080825280602002602001820160405280156116ef5781602001602082028036833780820191505090505b50815260200160001515815260200160001515815250905060006009600086815260200190815260200160002080549050141561172f57809150506119ec565b8261175a6001600960008881526020019081526020016000208054905061343090919063ffffffff16565b101561176957809150506119ec565b60096000858152602001908152602001600020838154811061178e5761178d6155bb565b5b906000526020600020906009020160405180610140016040529081600082015481526020016001820180548060200260200160405190810160405280929190818152602001828054801561183757602002820191906000526020600020905b8160009054906101000a900473ffffffffffffffffffffffffffffffffffffffff1673ffffffffffffffffffffffffffffffffffffffff16815260200190600101908083116117ed575b50505050508152602001600282015481526020016003820160009054906101000a900473ffffffffffffffffffffffffffffffffffffffff1673ffffffffffffffffffffffffffffffffffffffff1673ffffffffffffffffffffffffffffffffffffffff16815260200160048201548152602001600582018054806020026020016040519081016040528092919081815260200182805480156118f957602002820191906000526020600020905b8154815260200190600101908083116118e5575b505050505081526020016006820180548060200260200160405190810160405280929190818152602001828054801561195157602002820191906000526020600020905b81548152602001906001019080831161193d575b50505050508152602001600782018054806020026020016040519081016040528092919081815260200182805480156119a957602002820191906000526020600020905b815481526020019060010190808311611995575b505050505081526020016008820160009054906101000a900460ff161515151581526020016008820160019054906101000a900460ff1615151515815250509150505b92915050565b600060066000848152602001908152602001600020600083815260200190815260200160002054905092915050565b60085481565b60008054906101000a900473ffffffffffffffffffffffffffffffffffffffff1681565b600160003373ffffffffffffffffffffffffffffffffffffffff1673ffffffffffffffffffffffffffffffffffffffff16815260200190815260200160002060009054906101000a900460ff16611ad7576040517f08c379a0000000000000000000000000000000000000000000000000000000008152600401611ace9061559b565b60405180910390fd5b600260008260000151815260200190815260200160002060140160009054906101000a900460ff16611db85780600260008360000151815260200190815260200160002060008201518160000155602082015181600101556040820151816002019080519060200190611b4b9291906137ad565b50606082015181600301556080820151816004015560a0820151816005019080519060200190611b7c9291906137ad565b5060c0820151816006019080519060200190611b999291906137ad565b5060e0820151816007019080519060200190611bb69291906137ad565b506101008201518160080155610120820151816009015561014082015181600a015561016082015181600b019080519060200190611bf592919061353c565b5061018082015181600c019080519060200190611c13929190613833565b506101a082015181600d0160006101000a81548160ff0219169083151502179055506101c082015181600d0160016101000a81548173ffffffffffffffffffffffffffffffffffffffff021916908373ffffffffffffffffffffffffffffffffffffffff1602179055506101e082015181600e015561020082015181600f015561022082015181601001556102408201518160110160006101000a81548160ff021916908315150217905550610260820151816012015561028082015181601301556102a08201518160140160006101000a81548160ff0219169083151502179055506102c08201518160140160016101000a81548173ffffffffffffffffffffffffffffffffffffffff021916908373ffffffffffffffffffffffffffffffffffffffff160217905550905050600382604051611d5191906156ff565b9081526020016040518091039020816000015190806001815401808255809150506001900390600052602060002001600090919091909150556007816000015190806001815401808255809150506001900390600052602060002001600090919091909150555b5050565b60008054906101000a900473ffffffffffffffffffffffffffffffffffffffff1673ffffffffffffffffffffffffffffffffffffffff163373ffffffffffffffffffffffffffffffffffffffff1614611e4a576040517f08c379a0000000000000000000000000000000000000000000000000000000008152600401611e419061552f565b60405180910390fd5b60018060008373ffffffffffffffffffffffffffffffffffffffff1673ffffffffffffffffffffffffffffffffffffffff16815260200190815260200160002060006101000a81548160ff02191690831515021790555050565b60606007805480602002602001604051908101604052809291908181526020018280548015611ef257602002820191906000526020600020905b815481526020019060010190808311611ede575b5050505050905090565b611f04613660565b60026000838152602001908152602001600020604051806102e00160405290816000820154815260200160018201548152602001600282018054611f4790615691565b80601f0160208091040260200160405190810160405280929190818152602001828054611f7390615691565b8015611fc05780601f10611f9557610100808354040283529160200191611fc0565b820191906000526020600020905b815481529060010190602001808311611fa357829003601f168201915b505050505081526020016003820154815260200160048201548152602001600582018054611fed90615691565b80601f016020809104026020016040519081016040528092919081815260200182805461201990615691565b80156120665780601f1061203b57610100808354040283529160200191612066565b820191906000526020600020905b81548152906001019060200180831161204957829003601f168201915b5050505050815260200160068201805461207f90615691565b80601f01602080910402602001604051908101604052809291908181526020018280546120ab90615691565b80156120f85780601f106120cd576101008083540402835291602001916120f8565b820191906000526020600020905b8154815290600101906020018083116120db57829003601f168201915b5050505050815260200160078201805461211190615691565b80601f016020809104026020016040519081016040528092919081815260200182805461213d90615691565b801561218a5780601f1061215f5761010080835404028352916020019161218a565b820191906000526020600020905b81548152906001019060200180831161216d57829003601f168201915b505050505081526020016008820154815260200160098201548152602001600a8201548152602001600b820180548060200260200160405190810160405280929190818152602001828054801561220057602002820191906000526020600020905b8154815260200190600101908083116121ec575b50505050508152602001600c8201805480602002602001604051908101604052809291908181526020016000905b828210156122da57838290600052602060002001805461224d90615691565b80601f016020809104026020016040519081016040528092919081815260200182805461227990615691565b80156122c65780601f1061229b576101008083540402835291602001916122c6565b820191906000526020600020905b8154815290600101906020018083116122a957829003601f168201915b50505050508152602001906001019061222e565b505050508152602001600d820160009054906101000a900460ff16151515158152602001600d820160019054906101000a900473ffffffffffffffffffffffffffffffffffffffff1673ffffffffffffffffffffffffffffffffffffffff1673ffffffffffffffffffffffffffffffffffffffff168152602001600e8201548152602001600f8201548152602001601082015481526020016011820160009054906101000a900460ff1615151515815260200160128201548152602001601382015481526020016014820160009054906101000a900460ff161515151581526020016014820160019054906101000a900473ffffffffffffffffffffffffffffffffffffffff1673ffffffffffffffffffffffffffffffffffffffff1673ffffffffffffffffffffffffffffffffffffffff16815250509050919050565b606060038260405161242a91906156ff565b908152602001604051809103902080548060200260200160405190810160405280929190818152602001828054801561248257602002820191906000526020600020905b81548152602001906001019080831161246e575b50505050509050919050565b600160003373ffffffffffffffffffffffffffffffffffffffff1673ffffffffffffffffffffffffffffffffffffffff16815260200190815260200160002060009054906101000a900460ff1661251a576040517f08c379a00000000000000000000000000000000000000000000000000000000081526004016125119061559b565b60405180910390fd5b60005b815181101561264d5760056000858152602001908152602001600020600084815260200190815260200160002082828151811061255d5761255c6155bb565b5b60200260200101519080600181540180825580915050600190039060005260206000200160009091909190916101000a81548173ffffffffffffffffffffffffffffffffffffffff021916908373ffffffffffffffffffffffffffffffffffffffff16021790555061261260026000868152602001908152602001600020600e01546006600087815260200190815260200160002060008681526020019081526020016000205461347a90919063ffffffff16565b60066000868152602001908152602001600020600085815260200190815260200160002081905550808061264590615619565b91505061251d565b5060006005600085815260200190815260200160002060008481526020019081526020016000208054905014156126bc578060056000858152602001908152602001600020600084815260200190815260200160002090805190602001906126b6929190613589565b5061277c565b60005b815181101561277a576005600085815260200190815260200160002060008481526020019081526020016000208282815181106126ff576126fe6155bb565b5b60200260200101519080600181540180825580915050600190039060005260206000200160009091909190916101000a81548173ffffffffffffffffffffffffffffffffffffffff021916908373ffffffffffffffffffffffffffffffffffffffff160217905550808061277290615619565b9150506126bf565b505b505050565b6060600060085467ffffffffffffffff8111156127a1576127a0613b9f565b5b6040519080825280602002602001820160405280156127cf5781602001602082028036833780820191505090505b5090506000805b600780549050811015612d8c57606482106127f057612d8c565b6000600260006007848154811061280a576128096155bb565b5b90600052602060002001548152602001908152602001600020604051806102e0016040529081600082015481526020016001820154815260200160028201805461285390615691565b80601f016020809104026020016040519081016040528092919081815260200182805461287f90615691565b80156128cc5780601f106128a1576101008083540402835291602001916128cc565b820191906000526020600020905b8154815290600101906020018083116128af57829003601f168201915b5050505050815260200160038201548152602001600482015481526020016005820180546128f990615691565b80601f016020809104026020016040519081016040528092919081815260200182805461292590615691565b80156129725780601f1061294757610100808354040283529160200191612972565b820191906000526020600020905b81548152906001019060200180831161295557829003601f168201915b5050505050815260200160068201805461298b90615691565b80601f01602080910402602001604051908101604052809291908181526020018280546129b790615691565b8015612a045780601f106129d957610100808354040283529160200191612a04565b820191906000526020600020905b8154815290600101906020018083116129e757829003601f168201915b50505050508152602001600782018054612a1d90615691565b80601f0160208091040260200160405190810160405280929190818152602001828054612a4990615691565b8015612a965780601f10612a6b57610100808354040283529160200191612a96565b820191906000526020600020905b815481529060010190602001808311612a7957829003601f168201915b505050505081526020016008820154815260200160098201548152602001600a8201548152602001600b8201805480602002602001604051908101604052809291908181526020018280548015612b0c57602002820191906000526020600020905b815481526020019060010190808311612af8575b50505050508152602001600c8201805480602002602001604051908101604052809291908181526020016000905b82821015612be6578382906000526020600020018054612b5990615691565b80601f0160208091040260200160405190810160405280929190818152602001828054612b8590615691565b8015612bd25780601f10612ba757610100808354040283529160200191612bd2565b820191906000526020600020905b815481529060010190602001808311612bb557829003601f168201915b505050505081526020019060010190612b3a565b505050508152602001600d820160009054906101000a900460ff16151515158152602001600d820160019054906101000a900473ffffffffffffffffffffffffffffffffffffffff1673ffffffffffffffffffffffffffffffffffffffff1673ffffffffffffffffffffffffffffffffffffffff168152602001600e8201548152602001600f8201548152602001601082015481526020016011820160009054906101000a900460ff1615151515815260200160128201548152602001601382015481526020016014820160009054906101000a900460ff161515151581526020016014820160019054906101000a900473ffffffffffffffffffffffffffffffffffffffff1673ffffffffffffffffffffffffffffffffffffffff1673ffffffffffffffffffffffffffffffffffffffff168152505090504281610220015110612d78578280612d3690615619565b93505060078281548110612d4d57612d4c6155bb565b5b9060005260206000200154848481518110612d6b57612d6a6155bb565b5b6020026020010181815250505b508080612d8490615619565b9150506127d6565b50819250505090565b60008060096000848152602001908152602001600020805490501115612de657612ddf6001600960008581526020019081526020016000208054905061343090919063ffffffff16565b9050612e0a565b7fffffffffffffffffffffffffffffffffffffffffffffffffffffffffffffffff90505b919050565b606060096000838152602001908152602001600020805480602002602001604051908101604052809291908181526020016000905b828210156130b75783829060005260206000209060090201604051806101400160405290816000820154815260200160018201805480602002602001604051908101604052809291908181526020018280548015612ef757602002820191906000526020600020905b8160009054906101000a900473ffffffffffffffffffffffffffffffffffffffff1673ffffffffffffffffffffffffffffffffffffffff1681526020019060010190808311612ead575b50505050508152602001600282015481526020016003820160009054906101000a900473ffffffffffffffffffffffffffffffffffffffff1673ffffffffffffffffffffffffffffffffffffffff1673ffffffffffffffffffffffffffffffffffffffff1681526020016004820154815260200160058201805480602002602001604051908101604052809291908181526020018280548015612fb957602002820191906000526020600020905b815481526020019060010190808311612fa5575b505050505081526020016006820180548060200260200160405190810160405280929190818152602001828054801561301157602002820191906000526020600020905b815481526020019060010190808311612ffd575b505050505081526020016007820180548060200260200160405190810160405280929190818152602001828054801561306957602002820191906000526020600020905b815481526020019060010190808311613055575b505050505081526020016008820160009054906101000a900460ff161515151581526020016008820160019054906101000a900460ff16151515158152505081526020019060010190612e44565b505050509050919050565b600160003373ffffffffffffffffffffffffffffffffffffffff1673ffffffffffffffffffffffffffffffffffffffff16815260200190815260200160002060009054906101000a900460ff1661314e576040517f08c379a00000000000000000000000000000000000000000000000000000000081526004016131459061559b565b60405180910390fd5b80600960008581526020019081526020016000208381548110613174576131736155bb565b5b90600052602060002090600902016000820151816000015560208201518160010190805190602001906131a8929190613589565b506040820151816002015560608201518160030160006101000a81548173ffffffffffffffffffffffffffffffffffffffff021916908373ffffffffffffffffffffffffffffffffffffffff1602179055506080820151816004015560a0820151816005019080519060200190613220929190613613565b5060c082015181600601908051906020019061323d929190613613565b5060e082015181600701908051906020019061325a929190613613565b506101008201518160080160006101000a81548160ff0219169083151502179055506101208201518160080160016101000a81548160ff021916908315150217905550905050505050565b600160003373ffffffffffffffffffffffffffffffffffffffff1673ffffffffffffffffffffffffffffffffffffffff16815260200190815260200160002060009054906101000a900460ff16613331576040517f08c379a00000000000000000000000000000000000000000000000000000000081526004016133289061559b565b60405180910390fd5b600560008481526020019081526020016000206000838152602001908152602001600020819080600181540180825580915050600190039060005260206000200160009091909190916101000a81548173ffffffffffffffffffffffffffffffffffffffff021916908373ffffffffffffffffffffffffffffffffffffffff16021790555061340360026000858152602001908152602001600020600e01546006600086815260200190815260200160002060008581526020019081526020016000205461347a90919063ffffffff16565b60066000858152602001908152602001600020600084815260200190815260200160002081905550505050565b600061347283836040518060400160405280601e81526020017f536166654d6174683a207375627472616374696f6e206f766572666c6f7700008152506134d8565b905092915050565b60008082846134899190615716565b9050838110156134ce576040517f08c379a00000000000000000000000000000000000000000000000000000000081526004016134c5906157b8565b60405180910390fd5b8091505092915050565b6000838311158290613520576040517f08c379a00000000000000000000000000000000000000000000000000000000081526004016135179190615811565b60405180910390fd5b506000838561352f9190615833565b9050809150509392505050565b828054828255906000526020600020908101928215613578579160200282015b8281111561357757825182559160200191906001019061355c565b5b5090506135859190613893565b5090565b828054828255906000526020600020908101928215613602579160200282015b828111156136015782518260006101000a81548173ffffffffffffffffffffffffffffffffffffffff021916908373ffffffffffffffffffffffffffffffffffffffff160217905550916020019190600101906135a9565b5b50905061360f9190613893565b5090565b82805482825590600052602060002090810192821561364f579160200282015b8281111561364e578251825591602001919060010190613633565b5b50905061365c91906138b0565b5090565b604051806102e0016040528060008152602001600081526020016060815260200160008152602001600081526020016060815260200160608152602001606081526020016000815260200160008152602001600081526020016060815260200160608152602001600015158152602001600073ffffffffffffffffffffffffffffffffffffffff1681526020016000815260200160008152602001600081526020016000151581526020016000815260200160008152602001600015158152602001600073ffffffffffffffffffffffffffffffffffffffff1681525090565b604051806101400160405280600081526020016060815260200160008152602001600073ffffffffffffffffffffffffffffffffffffffff168152602001600081526020016060815260200160608152602001606081526020016000151581526020016000151581525090565b8280546137b990615691565b90600052602060002090601f0160209004810192826137db5760008555613822565b82601f106137f457805160ff1916838001178555613822565b82800160010185558215613822579182015b82811115613821578251825591602001919060010190613806565b5b50905061382f9190613893565b5090565b828054828255906000526020600020908101928215613882579160200282015b828111156138815782518290805190602001906138719291906137ad565b5091602001919060010190613853565b5b50905061388f91906138cd565b5090565b5b808211156138ac576000816000905550600101613894565b5090565b5b808211156138c95760008160009055506001016138b1565b5090565b5b808211156138ed57600081816138e491906138f1565b506001016138ce565b5090565b5080546138fd90615691565b6000825580601f1061390f575061392e565b601f01602090049060005260206000209081019061392d9190613893565b5b50565b6000604051905090565b600080fd5b600080fd5b6000819050919050565b61395881613945565b811461396357600080fd5b50565b6000813590506139758161394f565b92915050565b600080604083850312156139925761399161393b565b5b60006139a085828601613966565b92505060206139b185828601613966565b9150509250929050565b600081519050919050565b600082825260208201905092915050565b6000819050602082019050919050565b600073ffffffffffffffffffffffffffffffffffffffff82169050919050565b6000613a12826139e7565b9050919050565b613a2281613a07565b82525050565b6000613a348383613a19565b60208301905092915050565b6000602082019050919050565b6000613a58826139bb565b613a6281856139c6565b9350613a6d836139d7565b8060005b83811015613a9e578151613a858882613a28565b9750613a9083613a40565b925050600181019050613a71565b5085935050505092915050565b60006020820190508181036000830152613ac58184613a4d565b905092915050565b613ad681613a07565b8114613ae157600080fd5b50565b600081359050613af381613acd565b92915050565b600060208284031215613b0f57613b0e61393b565b5b6000613b1d84828501613ae4565b91505092915050565b60008115159050919050565b613b3b81613b26565b82525050565b6000602082019050613b566000830184613b32565b92915050565b600060208284031215613b7257613b7161393b565b5b6000613b8084828501613966565b91505092915050565b600080fd5b6000601f19601f8301169050919050565b7f4e487b7100000000000000000000000000000000000000000000000000000000600052604160045260246000fd5b613bd782613b8e565b810181811067ffffffffffffffff82111715613bf657613bf5613b9f565b5b80604052505050565b6000613c09613931565b9050613c158282613bce565b919050565b600067ffffffffffffffff821115613c3557613c34613b9f565b5b602082029050602081019050919050565b600080fd5b6000613c5e613c5984613c1a565b613bff565b90508083825260208201905060208402830185811115613c8157613c80613c46565b5b835b81811015613caa5780613c968882613966565b845260208401935050602081019050613c83565b5050509392505050565b600082601f830112613cc957613cc8613b89565b5b8135613cd9848260208601613c4b565b91505092915050565b600080600060608486031215613cfb57613cfa61393b565b5b6000613d0986828701613966565b9350506020613d1a86828701613966565b925050604084013567ffffffffffffffff811115613d3b57613d3a613940565b5b613d4786828701613cb4565b9150509250925092565b600080600060608486031215613d6a57613d6961393b565b5b6000613d7886828701613966565b9350506020613d8986828701613966565b9250506040613d9a86828701613966565b9150509250925092565b600080600060608486031215613dbd57613dbc61393b565b5b6000613dcb86828701613966565b9350506020613ddc86828701613ae4565b9250506040613ded86828701613966565b9150509250925092565b600081519050919050565b600082825260208201905092915050565b6000819050602082019050919050565b613e2c81613945565b82525050565b6000613e3e8383613e23565b60208301905092915050565b6000602082019050919050565b6000613e6282613df7565b613e6c8185613e02565b9350613e7783613e13565b8060005b83811015613ea8578151613e8f8882613e32565b9750613e9a83613e4a565b925050600181019050613e7b565b5085935050505092915050565b60006020820190508181036000830152613ecf8184613e57565b905092915050565b600060208284031215613eed57613eec61393b565b5b600082013567ffffffffffffffff811115613f0b57613f0a613940565b5b613f1784828501613cb4565b91505092915050565b600081519050919050565b600082825260208201905092915050565b6000819050602082019050919050565b600081519050919050565b600082825260208201905092915050565b60005b83811015613f86578082015181840152602081019050613f6b565b83811115613f95576000848401525b50505050565b6000613fa682613f4c565b613fb08185613f57565b9350613fc0818560208601613f68565b613fc981613b8e565b840191505092915050565b6000819050919050565b613fe781613fd4565b82525050565b600082825260208201905092915050565b600061400982613df7565b6140138185613fed565b935061401e83613e13565b8060005b8381101561404f5781516140368882613e32565b975061404183613e4a565b925050600181019050614022565b5085935050505092915050565b600081519050919050565b600082825260208201905092915050565b6000819050602082019050919050565b60006140948383613f9b565b905092915050565b6000602082019050919050565b60006140b48261405c565b6140be8185614067565b9350836020820285016140d085614078565b8060005b8581101561410c57848403895281516140ed8582614088565b94506140f88361409c565b925060208a019950506001810190506140d4565b50829750879550505050505092915050565b61412781613b26565b82525050565b6000819050919050565b600061415261414d614148846139e7565b61412d565b6139e7565b9050919050565b600061416482614137565b9050919050565b600061417682614159565b9050919050565b6141868161416b565b82525050565b60006102e0830160008301516141a56000860182613e23565b5060208301516141b86020860182613e23565b50604083015184820360408601526141d08282613f9b565b91505060608301516141e56060860182613fde565b5060808301516141f86080860182613e23565b5060a083015184820360a08601526142108282613f9b565b91505060c083015184820360c086015261422a8282613f9b565b91505060e083015184820360e08601526142448282613f9b565b91505061010083015161425b610100860182613e23565b50610120830151614270610120860182613e23565b50610140830151614285610140860182613e23565b5061016083015184820361016086015261429f8282613ffe565b9150506101808301518482036101808601526142bb82826140a9565b9150506101a08301516142d26101a086018261411e565b506101c08301516142e76101c086018261417d565b506101e08301516142fc6101e0860182613e23565b50610200830151614311610200860182613e23565b50610220830151614326610220860182613e23565b5061024083015161433b61024086018261411e565b50610260830151614350610260860182613e23565b50610280830151614365610280860182613e23565b506102a083015161437a6102a086018261411e565b506102c083015161438f6102c0860182613a19565b508091505092915050565b60006143a6838361418c565b905092915050565b6000602082019050919050565b60006143c682613f20565b6143d08185613f2b565b9350836020820285016143e285613f3c565b8060005b8581101561441e57848403895281516143ff858261439a565b945061440a836143ae565b925060208a019950506001810190506143e6565b50829750879550505050505092915050565b6000602082019050818103600083015261444a81846143bb565b905092915050565b600082825260208201905092915050565b600061446e826139bb565b6144788185614452565b9350614483836139d7565b8060005b838110156144b457815161449b8882613a28565b97506144a683613a40565b925050600181019050614487565b5085935050505092915050565b600081519050919050565b600082825260208201905092915050565b6000819050602082019050919050565b60006144f98383613fde565b60208301905092915050565b6000602082019050919050565b600061451d826144c1565b61452781856144cc565b9350614532836144dd565b8060005b8381101561456357815161454a88826144ed565b975061455583614505565b925050600181019050614536565b5085935050505092915050565b6000610140830160008301516145896000860182613e23565b50602083015184820360208601526145a18282614463565b91505060408301516145b66040860182613e23565b5060608301516145c96060860182613a19565b5060808301516145dc6080860182613e23565b5060a083015184820360a08601526145f48282614512565b91505060c083015184820360c086015261460e8282614512565b91505060e083015184820360e08601526146288282614512565b91505061010083015161463f61010086018261411e565b5061012083015161465461012086018261411e565b508091505092915050565b600060208201905081810360008301526146798184614570565b905092915050565b61468a81613945565b82525050565b60006020820190506146a56000830184614681565b92915050565b6146b481613a07565b82525050565b60006020820190506146cf60008301846146ab565b92915050565b600080fd5b600067ffffffffffffffff8211156146f5576146f4613b9f565b5b6146fe82613b8e565b9050602081019050919050565b82818337600083830152505050565b600061472d614728846146da565b613bff565b905082815260208101848484011115614749576147486146d5565b5b61475484828561470b565b509392505050565b600082601f83011261477157614770613b89565b5b813561478184826020860161471a565b91505092915050565b600080fd5b600080fd5b61479d81613fd4565b81146147a857600080fd5b50565b6000813590506147ba81614794565b92915050565b600067ffffffffffffffff8211156147db576147da613b9f565b5b602082029050602081019050919050565b60006147ff6147fa846147c0565b613bff565b9050808382526020820190506020840283018581111561482257614821613c46565b5b835b8181101561486957803567ffffffffffffffff81111561484757614846613b89565b5b808601614854898261475c565b85526020850194505050602081019050614824565b5050509392505050565b600082601f83011261488857614887613b89565b5b81356148988482602086016147ec565b91505092915050565b6148aa81613b26565b81146148b557600080fd5b50565b6000813590506148c7816148a1565b92915050565b60006148d882613a07565b9050919050565b6148e8816148cd565b81146148f357600080fd5b50565b600081359050614905816148df565b92915050565b60006102e082840312156149225761492161478a565b5b61492d6102e0613bff565b9050600061493d84828501613966565b600083015250602061495184828501613966565b602083015250604082013567ffffffffffffffff8111156149755761497461478f565b5b6149818482850161475c565b6040830152506060614995848285016147ab565b60608301525060806149a984828501613966565b60808301525060a082013567ffffffffffffffff8111156149cd576149cc61478f565b5b6149d98482850161475c565b60a08301525060c082013567ffffffffffffffff8111156149fd576149fc61478f565b5b614a098482850161475c565b60c08301525060e082013567ffffffffffffffff811115614a2d57614a2c61478f565b5b614a398482850161475c565b60e083015250610100614a4e84828501613966565b61010083015250610120614a6484828501613966565b61012083015250610140614a7a84828501613966565b6101408301525061016082013567ffffffffffffffff811115614aa057614a9f61478f565b5b614aac84828501613cb4565b6101608301525061018082013567ffffffffffffffff811115614ad257614ad161478f565b5b614ade84828501614873565b610180830152506101a0614af4848285016148b8565b6101a0830152506101c0614b0a848285016148f6565b6101c0830152506101e0614b2084828501613966565b6101e083015250610200614b3684828501613966565b61020083015250610220614b4c84828501613966565b61022083015250610240614b62848285016148b8565b61024083015250610260614b7884828501613966565b61026083015250610280614b8e84828501613966565b610280830152506102a0614ba4848285016148b8565b6102a0830152506102c0614bba84828501613ae4565b6102c08301525092915050565b60008060408385031215614bde57614bdd61393b565b5b600083013567ffffffffffffffff811115614bfc57614bfb613940565b5b614c088582860161475c565b925050602083013567ffffffffffffffff811115614c2957614c28613940565b5b614c358582860161490b565b9150509250929050565b60006102e083016000830151614c586000860182613e23565b506020830151614c6b6020860182613e23565b5060408301518482036040860152614c838282613f9b565b9150506060830151614c986060860182613fde565b506080830151614cab6080860182613e23565b5060a083015184820360a0860152614cc38282613f9b565b91505060c083015184820360c0860152614cdd8282613f9b565b91505060e083015184820360e0860152614cf78282613f9b565b915050610100830151614d0e610100860182613e23565b50610120830151614d23610120860182613e23565b50610140830151614d38610140860182613e23565b50610160830151848203610160860152614d528282613ffe565b915050610180830151848203610180860152614d6e82826140a9565b9150506101a0830151614d856101a086018261411e565b506101c0830151614d9a6101c086018261417d565b506101e0830151614daf6101e0860182613e23565b50610200830151614dc4610200860182613e23565b50610220830151614dd9610220860182613e23565b50610240830151614dee61024086018261411e565b50610260830151614e03610260860182613e23565b50610280830151614e18610280860182613e23565b506102a0830151614e2d6102a086018261411e565b506102c0830151614e426102c0860182613a19565b508091505092915050565b60006020820190508181036000830152614e678184614c3f565b905092915050565b600060208284031215614e8557614e8461393b565b5b600082013567ffffffffffffffff811115614ea357614ea2613940565b5b614eaf8482850161475c565b91505092915050565b600067ffffffffffffffff821115614ed357614ed2613b9f565b5b602082029050602081019050919050565b6000614ef7614ef284614eb8565b613bff565b90508083825260208201905060208402830185811115614f1a57614f19613c46565b5b835b81811015614f435780614f2f8882613ae4565b845260208401935050602081019050614f1c565b5050509392505050565b600082601f830112614f6257614f61613b89565b5b8135614f72848260208601614ee4565b91505092915050565b600080600060608486031215614f9457614f9361393b565b5b6000614fa286828701613966565b9350506020614fb386828701613966565b925050604084013567ffffffffffffffff811115614fd457614fd3613940565b5b614fe086828701614f4d565b9150509250925092565b614ff381613fd4565b82525050565b600060208201905061500e6000830184614fea565b92915050565b600081519050919050565b600082825260208201905092915050565b6000819050602082019050919050565b6000610140830160008301516150596000860182613e23565b50602083015184820360208601526150718282614463565b91505060408301516150866040860182613e23565b5060608301516150996060860182613a19565b5060808301516150ac6080860182613e23565b5060a083015184820360a08601526150c48282614512565b91505060c083015184820360c08601526150de8282614512565b91505060e083015184820360e08601526150f88282614512565b91505061010083015161510f61010086018261411e565b5061012083015161512461012086018261411e565b508091505092915050565b600061513b8383615040565b905092915050565b6000602082019050919050565b600061515b82615014565b615165818561501f565b93508360208202850161517785615030565b8060005b858110156151b35784840389528151615194858261512f565b945061519f83615143565b925060208a0199505060018101905061517b565b50829750879550505050505092915050565b600060208201905081810360008301526151df8184615150565b905092915050565b600067ffffffffffffffff82111561520257615201613b9f565b5b602082029050602081019050919050565b6000615226615221846151e7565b613bff565b9050808382526020820190506020840283018581111561524957615248613c46565b5b835b81811015615272578061525e88826147ab565b84526020840193505060208101905061524b565b5050509392505050565b600082601f83011261529157615290613b89565b5b81356152a1848260208601615213565b91505092915050565b600061014082840312156152c1576152c061478a565b5b6152cc610140613bff565b905060006152dc84828501613966565b600083015250602082013567ffffffffffffffff811115615300576152ff61478f565b5b61530c84828501614f4d565b602083015250604061532084828501613966565b604083015250606061533484828501613ae4565b606083015250608061534884828501613966565b60808301525060a082013567ffffffffffffffff81111561536c5761536b61478f565b5b6153788482850161527c565b60a08301525060c082013567ffffffffffffffff81111561539c5761539b61478f565b5b6153a88482850161527c565b60c08301525060e082013567ffffffffffffffff8111156153cc576153cb61478f565b5b6153d88482850161527c565b60e0830152506101006153ed848285016148b8565b61010083015250610120615403848285016148b8565b6101208301525092915050565b6000806000606084860312156154295761542861393b565b5b600061543786828701613966565b935050602061544886828701613966565b925050604084013567ffffffffffffffff81111561546957615468613940565b5b615475868287016152aa565b9150509250925092565b6000806000606084860312156154985761549761393b565b5b60006154a686828701613966565b93505060206154b786828701613966565b92505060406154c886828701613ae4565b9150509250925092565b600082825260208201905092915050565b7f4f6e6c79204f776e657200000000000000000000000000000000000000000000600082015250565b6000615519600a836154d2565b9150615524826154e3565b602082019050919050565b600060208201905081810360008301526155488161550c565b9050919050565b7f4f6e6c79204f70657261746f7200000000000000000000000000000000000000600082015250565b6000615585600d836154d2565b91506155908261554f565b602082019050919050565b600060208201905081810360008301526155b481615578565b9050919050565b7f4e487b7100000000000000000000000000000000000000000000000000000000600052603260045260246000fd5b7f4e487b7100000000000000000000000000000000000000000000000000000000600052601160045260246000fd5b600061562482613945565b91507fffffffffffffffffffffffffffffffffffffffffffffffffffffffffffffffff821415615657576156566155ea565b5b600182019050919050565b7f4e487b7100000000000000000000000000000000000000000000000000000000600052602260045260246000fd5b600060028204905060018216806156a957607f821691505b602082108114156156bd576156bc615662565b5b50919050565b600081905092915050565b60006156d982613f4c565b6156e381856156c3565b93506156f3818560208601613f68565b80840191505092915050565b600061570b82846156ce565b915081905092915050565b600061572182613945565b915061572c83613945565b9250827fffffffffffffffffffffffffffffffffffffffffffffffffffffffffffffffff03821115615761576157606155ea565b5b828201905092915050565b7f536166654d6174683a206164646974696f6e206f766572666c6f770000000000600082015250565b60006157a2601b836154d2565b91506157ad8261576c565b602082019050919050565b600060208201905081810360008301526157d181615795565b9050919050565b60006157e382613f4c565b6157ed81856154d2565b93506157fd818560208601613f68565b61580681613b8e565b840191505092915050565b6000602082019050818103600083015261582b81846157d8565b905092915050565b600061583e82613945565b915061584983613945565b92508282101561585c5761585b6155ea565b5b82820390509291505056fea2646970667358221220e4c076cc1f4b904d9cbe60acfdae0435bb1ae6ac15d418a1170694244d53dac264736f6c63430008090033",
  "linkReferences": {},
  "deployedLinkReferences": {}
}