{
  "_format": "hh-sol-artifact-1",
  "contractName": "GameDataStorage",
  "sourceName": "src/contracts/game/data_storage.sol",
  "abi": [
    {
      "inputs": [],
      "stateMutability": "nonpayable",
      "type": "constructor"
    },
    {
      "inputs": [
        {
          "internalType": "uint256",
          "name": "_gameId",
          "type": "uint256"
        },
        {
          "internalType": "uint256",
          "name": "_round",
          "type": "uint256"
        },
        {
          "internalType": "uint256",
          "name": "_index",
          "type": "uint256"
        }
      ],
      "name": "addBuffPlayers",
      "outputs": [],
      "stateMutability": "nonpayable",
      "type": "function"
    },
    {
      "inputs": [
        {
          "internalType": "address",
          "name": "_newOperator",
          "type": "address"
        }
      ],
      "name": "addOperator",
      "outputs": [],
      "stateMutability": "nonpayable",
      "type": "function"
    },
    {
      "inputs": [
        {
          "internalType": "uint256",
          "name": "_gameId",
          "type": "uint256"
        },
        {
          "internalType": "uint256",
          "name": "_round",
          "type": "uint256"
        },
        {
          "internalType": "address",
          "name": "_player",
          "type": "address"
        }
      ],
      "name": "addPlayer",
      "outputs": [],
      "stateMutability": "nonpayable",
      "type": "function"
    },
    {
      "inputs": [
        {
          "internalType": "address",
          "name": "_removeOperator",
          "type": "address"
        }
      ],
      "name": "delOperator",
      "outputs": [],
      "stateMutability": "nonpayable",
      "type": "function"
    },
    {
      "inputs": [
        {
          "internalType": "uint256",
          "name": "_gameId",
          "type": "uint256"
        },
        {
          "internalType": "uint256",
          "name": "_round",
          "type": "uint256"
        },
        {
          "components": [
            {
              "internalType": "uint256",
              "name": "gameId",
              "type": "uint256"
            },
            {
              "internalType": "address[]",
              "name": "winners",
              "type": "address[]"
            },
            {
              "internalType": "uint256",
              "name": "participate",
              "type": "uint256"
            },
            {
              "internalType": "address",
              "name": "sponsor",
              "type": "address"
            },
            {
              "internalType": "uint256",
              "name": "launchTime",
              "type": "uint256"
            },
            {
              "internalType": "int256[]",
              "name": "eliminatePlayerIndexes",
              "type": "int256[]"
            },
            {
              "internalType": "int256[]",
              "name": "buffUsersIndexes",
              "type": "int256[]"
            },
            {
              "internalType": "int256[]",
              "name": "eventsIndexes",
              "type": "int256[]"
            },
            {
              "internalType": "bool",
              "name": "over",
              "type": "bool"
            },
            {
              "internalType": "bool",
              "name": "exist",
              "type": "bool"
            }
          ],
          "internalType": "struct GameDataStorage.GameRound",
          "name": "_gameRound",
          "type": "tuple"
        }
      ],
      "name": "editGameRound",
      "outputs": [],
      "stateMutability": "nonpayable",
      "type": "function"
    },
    {
      "inputs": [
        {
          "internalType": "string",
          "name": "_appId",
          "type": "string"
        }
      ],
      "name": "getAppGames",
      "outputs": [
        {
          "internalType": "uint256[]",
          "name": "",
          "type": "uint256[]"
        }
      ],
      "stateMutability": "view",
      "type": "function"
    },
    {
      "inputs": [
        {
          "internalType": "uint256",
          "name": "_gameId",
          "type": "uint256"
        },
        {
          "internalType": "uint256",
          "name": "_round",
          "type": "uint256"
        }
      ],
      "name": "getBuffPlayers",
      "outputs": [
        {
          "internalType": "uint256[]",
          "name": "",
          "type": "uint256[]"
        }
      ],
      "stateMutability": "view",
      "type": "function"
    },
    {
      "inputs": [
        {
          "internalType": "uint256",
          "name": "_id",
          "type": "uint256"
        }
      ],
      "name": "getGame",
      "outputs": [
        {
          "components": [
            {
              "internalType": "uint256",
              "name": "id",
              "type": "uint256"
            },
            {
              "internalType": "uint256",
              "name": "category",
              "type": "uint256"
            },
            {
              "internalType": "string",
              "name": "appId",
              "type": "string"
            },
            {
              "internalType": "int256",
              "name": "groupId",
              "type": "int256"
            },
            {
              "internalType": "uint256",
              "name": "botType",
              "type": "uint256"
            },
            {
              "internalType": "string",
              "name": "title",
              "type": "string"
            },
            {
              "internalType": "string",
              "name": "introduction",
              "type": "string"
            },
            {
              "internalType": "string",
              "name": "story",
              "type": "string"
            },
            {
              "internalType": "uint256",
              "name": "eliminateProportion",
              "type": "uint256"
            },
            {
              "internalType": "uint256",
              "name": "awardProportion",
              "type": "uint256"
            },
            {
              "internalType": "uint256",
              "name": "winNum",
              "type": "uint256"
            },
            {
              "internalType": "uint256[]",
              "name": "buffIds",
              "type": "uint256[]"
            },
            {
              "internalType": "string",
              "name": "buffDesc",
              "type": "string"
            },
            {
              "internalType": "string[]",
              "name": "events",
              "type": "string[]"
            },
            {
              "internalType": "bool",
              "name": "ticketIsEth",
              "type": "bool"
            },
            {
              "internalType": "contract IERC20",
              "name": "ticketsToken",
              "type": "address"
            },
            {
              "internalType": "uint256",
              "name": "ticketAmount",
              "type": "uint256"
            },
            {
              "internalType": "uint256",
              "name": "effectStartTime",
              "type": "uint256"
            },
            {
              "internalType": "uint256",
              "name": "effectEndTime",
              "type": "uint256"
            },
            {
              "internalType": "bool",
              "name": "daily",
              "type": "bool"
            },
            {
              "internalType": "uint256",
              "name": "startH",
              "type": "uint256"
            },
            {
              "internalType": "uint256",
              "name": "startM",
              "type": "uint256"
            },
            {
              "internalType": "bool",
              "name": "exist",
              "type": "bool"
            },
            {
              "internalType": "address",
              "name": "creator",
              "type": "address"
            }
          ],
          "internalType": "struct GameDataStorage.GameDetail",
          "name": "",
          "type": "tuple"
        }
      ],
      "stateMutability": "view",
      "type": "function"
    },
    {
      "inputs": [
        {
          "internalType": "uint256",
          "name": "_gameId",
          "type": "uint256"
        }
      ],
      "name": "getGameAndRound",
      "outputs": [
        {
          "components": [
            {
              "internalType": "uint256",
              "name": "id",
              "type": "uint256"
            },
            {
              "internalType": "uint256",
              "name": "category",
              "type": "uint256"
            },
            {
              "internalType": "string",
              "name": "appId",
              "type": "string"
            },
            {
              "internalType": "int256",
              "name": "groupId",
              "type": "int256"
            },
            {
              "internalType": "uint256",
              "name": "botType",
              "type": "uint256"
            },
            {
              "internalType": "string",
              "name": "title",
              "type": "string"
            },
            {
              "internalType": "string",
              "name": "introduction",
              "type": "string"
            },
            {
              "internalType": "string",
              "name": "story",
              "type": "string"
            },
            {
              "internalType": "uint256",
              "name": "eliminateProportion",
              "type": "uint256"
            },
            {
              "internalType": "uint256",
              "name": "awardProportion",
              "type": "uint256"
            },
            {
              "internalType": "uint256",
              "name": "winNum",
              "type": "uint256"
            },
            {
              "internalType": "uint256[]",
              "name": "buffIds",
              "type": "uint256[]"
            },
            {
              "internalType": "string",
              "name": "buffDesc",
              "type": "string"
            },
            {
              "internalType": "string[]",
              "name": "events",
              "type": "string[]"
            },
            {
              "internalType": "bool",
              "name": "ticketIsEth",
              "type": "bool"
            },
            {
              "internalType": "contract IERC20",
              "name": "ticketsToken",
              "type": "address"
            },
            {
              "internalType": "uint256",
              "name": "ticketAmount",
              "type": "uint256"
            },
            {
              "internalType": "uint256",
              "name": "effectStartTime",
              "type": "uint256"
            },
            {
              "internalType": "uint256",
              "name": "effectEndTime",
              "type": "uint256"
            },
            {
              "internalType": "bool",
              "name": "daily",
              "type": "bool"
            },
            {
              "internalType": "uint256",
              "name": "startH",
              "type": "uint256"
            },
            {
              "internalType": "uint256",
              "name": "startM",
              "type": "uint256"
            },
            {
              "internalType": "bool",
              "name": "exist",
              "type": "bool"
            },
            {
              "internalType": "address",
              "name": "creator",
              "type": "address"
            }
          ],
          "internalType": "struct GameDataStorage.GameDetail",
          "name": "detail",
          "type": "tuple"
        },
        {
          "components": [
            {
              "internalType": "uint256",
              "name": "gameId",
              "type": "uint256"
            },
            {
              "internalType": "address[]",
              "name": "winners",
              "type": "address[]"
            },
            {
              "internalType": "uint256",
              "name": "participate",
              "type": "uint256"
            },
            {
              "internalType": "address",
              "name": "sponsor",
              "type": "address"
            },
            {
              "internalType": "uint256",
              "name": "launchTime",
              "type": "uint256"
            },
            {
              "internalType": "int256[]",
              "name": "eliminatePlayerIndexes",
              "type": "int256[]"
            },
            {
              "internalType": "int256[]",
              "name": "buffUsersIndexes",
              "type": "int256[]"
            },
            {
              "internalType": "int256[]",
              "name": "eventsIndexes",
              "type": "int256[]"
            },
            {
              "internalType": "bool",
              "name": "over",
              "type": "bool"
            },
            {
              "internalType": "bool",
              "name": "exist",
              "type": "bool"
            }
          ],
          "internalType": "struct GameDataStorage.GameRound[]",
          "name": "gameRounds",
          "type": "tuple[]"
        }
      ],
      "stateMutability": "view",
      "type": "function"
    },
    {
      "inputs": [],
      "name": "getGameIds",
      "outputs": [
        {
          "internalType": "uint256[]",
          "name": "",
          "type": "uint256[]"
        }
      ],
      "stateMutability": "view",
      "type": "function"
    },
    {
      "inputs": [
        {
          "internalType": "uint256",
          "name": "_gameId",
          "type": "uint256"
        }
      ],
      "name": "getGameLatestRoundNum",
      "outputs": [
        {
          "internalType": "int256",
          "name": "",
          "type": "int256"
        }
      ],
      "stateMutability": "view",
      "type": "function"
    },
    {
      "inputs": [
        {
          "internalType": "uint256",
          "name": "_gameId",
          "type": "uint256"
        },
        {
          "internalType": "uint256",
          "name": "_round",
          "type": "uint256"
        }
      ],
      "name": "getGameRound",
      "outputs": [
        {
          "components": [
            {
              "internalType": "uint256",
              "name": "gameId",
              "type": "uint256"
            },
            {
              "internalType": "address[]",
              "name": "winners",
              "type": "address[]"
            },
            {
              "internalType": "uint256",
              "name": "participate",
              "type": "uint256"
            },
            {
              "internalType": "address",
              "name": "sponsor",
              "type": "address"
            },
            {
              "internalType": "uint256",
              "name": "launchTime",
              "type": "uint256"
            },
            {
              "internalType": "int256[]",
              "name": "eliminatePlayerIndexes",
              "type": "int256[]"
            },
            {
              "internalType": "int256[]",
              "name": "buffUsersIndexes",
              "type": "int256[]"
            },
            {
              "internalType": "int256[]",
              "name": "eventsIndexes",
              "type": "int256[]"
            },
            {
              "internalType": "bool",
              "name": "over",
              "type": "bool"
            },
            {
              "internalType": "bool",
              "name": "exist",
              "type": "bool"
            }
          ],
          "internalType": "struct GameDataStorage.GameRound",
          "name": "",
          "type": "tuple"
        }
      ],
      "stateMutability": "view",
      "type": "function"
    },
    {
      "inputs": [
        {
          "internalType": "uint256",
          "name": "_gameId",
          "type": "uint256"
        }
      ],
      "name": "getGameRoundList",
      "outputs": [
        {
          "components": [
            {
              "internalType": "uint256",
              "name": "gameId",
              "type": "uint256"
            },
            {
              "internalType": "address[]",
              "name": "winners",
              "type": "address[]"
            },
            {
              "internalType": "uint256",
              "name": "participate",
              "type": "uint256"
            },
            {
              "internalType": "address",
              "name": "sponsor",
              "type": "address"
            },
            {
              "internalType": "uint256",
              "name": "launchTime",
              "type": "uint256"
            },
            {
              "internalType": "int256[]",
              "name": "eliminatePlayerIndexes",
              "type": "int256[]"
            },
            {
              "internalType": "int256[]",
              "name": "buffUsersIndexes",
              "type": "int256[]"
            },
            {
              "internalType": "int256[]",
              "name": "eventsIndexes",
              "type": "int256[]"
            },
            {
              "internalType": "bool",
              "name": "over",
              "type": "bool"
            },
            {
              "internalType": "bool",
              "name": "exist",
              "type": "bool"
            }
          ],
          "internalType": "struct GameDataStorage.GameRound[]",
          "name": "",
          "type": "tuple[]"
        }
      ],
      "stateMutability": "view",
      "type": "function"
    },
    {
      "inputs": [
        {
          "internalType": "uint256[]",
          "name": "_ids",
          "type": "uint256[]"
        }
      ],
      "name": "getGames",
      "outputs": [
        {
          "components": [
            {
              "internalType": "uint256",
              "name": "id",
              "type": "uint256"
            },
            {
              "internalType": "uint256",
              "name": "category",
              "type": "uint256"
            },
            {
              "internalType": "string",
              "name": "appId",
              "type": "string"
            },
            {
              "internalType": "int256",
              "name": "groupId",
              "type": "int256"
            },
            {
              "internalType": "uint256",
              "name": "botType",
              "type": "uint256"
            },
            {
              "internalType": "string",
              "name": "title",
              "type": "string"
            },
            {
              "internalType": "string",
              "name": "introduction",
              "type": "string"
            },
            {
              "internalType": "string",
              "name": "story",
              "type": "string"
            },
            {
              "internalType": "uint256",
              "name": "eliminateProportion",
              "type": "uint256"
            },
            {
              "internalType": "uint256",
              "name": "awardProportion",
              "type": "uint256"
            },
            {
              "internalType": "uint256",
              "name": "winNum",
              "type": "uint256"
            },
            {
              "internalType": "uint256[]",
              "name": "buffIds",
              "type": "uint256[]"
            },
            {
              "internalType": "string",
              "name": "buffDesc",
              "type": "string"
            },
            {
              "internalType": "string[]",
              "name": "events",
              "type": "string[]"
            },
            {
              "internalType": "bool",
              "name": "ticketIsEth",
              "type": "bool"
            },
            {
              "internalType": "contract IERC20",
              "name": "ticketsToken",
              "type": "address"
            },
            {
              "internalType": "uint256",
              "name": "ticketAmount",
              "type": "uint256"
            },
            {
              "internalType": "uint256",
              "name": "effectStartTime",
              "type": "uint256"
            },
            {
              "internalType": "uint256",
              "name": "effectEndTime",
              "type": "uint256"
            },
            {
              "internalType": "bool",
              "name": "daily",
              "type": "bool"
            },
            {
              "internalType": "uint256",
              "name": "startH",
              "type": "uint256"
            },
            {
              "internalType": "uint256",
              "name": "startM",
              "type": "uint256"
            },
            {
              "internalType": "bool",
              "name": "exist",
              "type": "bool"
            },
            {
              "internalType": "address",
              "name": "creator",
              "type": "address"
            }
          ],
          "internalType": "struct GameDataStorage.GameDetail[]",
          "name": "",
          "type": "tuple[]"
        }
      ],
      "stateMutability": "view",
      "type": "function"
    },
    {
      "inputs": [
        {
          "internalType": "uint256",
          "name": "_gameId",
          "type": "uint256"
        },
        {
          "internalType": "uint256",
          "name": "_ground",
          "type": "uint256"
        }
      ],
      "name": "getPlayers",
      "outputs": [
        {
          "internalType": "address[]",
          "name": "",
          "type": "address[]"
        }
      ],
      "stateMutability": "view",
      "type": "function"
    },
    {
      "inputs": [
        {
          "internalType": "uint256",
          "name": "_gameId",
          "type": "uint256"
        },
        {
          "internalType": "uint256",
          "name": "_round",
          "type": "uint256"
        }
      ],
      "name": "getTicketsPool",
      "outputs": [
        {
          "internalType": "uint256",
          "name": "",
          "type": "uint256"
        }
      ],
      "stateMutability": "view",
      "type": "function"
    },
    {
      "inputs": [
        {
          "internalType": "uint256",
          "name": "_gameId",
          "type": "uint256"
        },
        {
          "internalType": "address",
          "name": "_sponsor",
          "type": "address"
        },
        {
          "internalType": "uint256",
          "name": "_launchTime",
          "type": "uint256"
        }
      ],
      "name": "initGameRound",
      "outputs": [],
      "stateMutability": "nonpayable",
      "type": "function"
    },
    {
      "inputs": [
        {
          "internalType": "address",
          "name": "",
          "type": "address"
        }
      ],
      "name": "operators",
      "outputs": [
        {
          "internalType": "bool",
          "name": "",
          "type": "bool"
        }
      ],
      "stateMutability": "view",
      "type": "function"
    },
    {
      "inputs": [],
      "name": "owner",
      "outputs": [
        {
          "internalType": "address",
          "name": "",
          "type": "address"
        }
      ],
      "stateMutability": "view",
      "type": "function"
    },
    {
      "inputs": [
        {
          "internalType": "uint256",
          "name": "_gameId",
          "type": "uint256"
        },
        {
          "internalType": "uint256",
          "name": "_round",
          "type": "uint256"
        },
        {
          "internalType": "uint256[]",
          "name": "_indexes",
          "type": "uint256[]"
        }
      ],
      "name": "setBuffPlayers",
      "outputs": [],
      "stateMutability": "nonpayable",
      "type": "function"
    },
    {
      "inputs": [
        {
          "internalType": "string",
          "name": "_appId",
          "type": "string"
        },
        {
          "components": [
            {
              "internalType": "uint256",
              "name": "id",
              "type": "uint256"
            },
            {
              "internalType": "uint256",
              "name": "category",
              "type": "uint256"
            },
            {
              "internalType": "string",
              "name": "appId",
              "type": "string"
            },
            {
              "internalType": "int256",
              "name": "groupId",
              "type": "int256"
            },
            {
              "internalType": "uint256",
              "name": "botType",
              "type": "uint256"
            },
            {
              "internalType": "string",
              "name": "title",
              "type": "string"
            },
            {
              "internalType": "string",
              "name": "introduction",
              "type": "string"
            },
            {
              "internalType": "string",
              "name": "story",
              "type": "string"
            },
            {
              "internalType": "uint256",
              "name": "eliminateProportion",
              "type": "uint256"
            },
            {
              "internalType": "uint256",
              "name": "awardProportion",
              "type": "uint256"
            },
            {
              "internalType": "uint256",
              "name": "winNum",
              "type": "uint256"
            },
            {
              "internalType": "uint256[]",
              "name": "buffIds",
              "type": "uint256[]"
            },
            {
              "internalType": "string",
              "name": "buffDesc",
              "type": "string"
            },
            {
              "internalType": "string[]",
              "name": "events",
              "type": "string[]"
            },
            {
              "internalType": "bool",
              "name": "ticketIsEth",
              "type": "bool"
            },
            {
              "internalType": "contract IERC20",
              "name": "ticketsToken",
              "type": "address"
            },
            {
              "internalType": "uint256",
              "name": "ticketAmount",
              "type": "uint256"
            },
            {
              "internalType": "uint256",
              "name": "effectStartTime",
              "type": "uint256"
            },
            {
              "internalType": "uint256",
              "name": "effectEndTime",
              "type": "uint256"
            },
            {
              "internalType": "bool",
              "name": "daily",
              "type": "bool"
            },
            {
              "internalType": "uint256",
              "name": "startH",
              "type": "uint256"
            },
            {
              "internalType": "uint256",
              "name": "startM",
              "type": "uint256"
            },
            {
              "internalType": "bool",
              "name": "exist",
              "type": "bool"
            },
            {
              "internalType": "address",
              "name": "creator",
              "type": "address"
            }
          ],
          "internalType": "struct GameDataStorage.GameDetail",
          "name": "_game",
          "type": "tuple"
        }
      ],
      "name": "setGame",
      "outputs": [],
      "stateMutability": "nonpayable",
      "type": "function"
    },
    {
      "inputs": [
        {
          "internalType": "uint256",
          "name": "_gameId",
          "type": "uint256"
        },
        {
          "internalType": "uint256",
          "name": "_round",
          "type": "uint256"
        },
        {
          "internalType": "address[]",
          "name": "_players",
          "type": "address[]"
        }
      ],
      "name": "setPlayers",
      "outputs": [],
      "stateMutability": "nonpayable",
      "type": "function"
    },
    {
      "inputs": [
        {
          "internalType": "address",
          "name": "_newOwner",
          "type": "address"
        }
      ],
      "name": "transferOwner",
      "outputs": [],
      "stateMutability": "nonpayable",
      "type": "function"
    }
  ],
  "bytecode": "0x60806040523480156200001157600080fd5b50336000806101000a81548173ffffffffffffffffffffffffffffffffffffffff021916908373ffffffffffffffffffffffffffffffffffffffff16021790555062000063336200006960201b60201c565b620001d7565b60008054906101000a900473ffffffffffffffffffffffffffffffffffffffff1673ffffffffffffffffffffffffffffffffffffffff163373ffffffffffffffffffffffffffffffffffffffff1614620000fa576040517f08c379a0000000000000000000000000000000000000000000000000000000008152600401620000f190620001b5565b60405180910390fd5b60018060008373ffffffffffffffffffffffffffffffffffffffff1673ffffffffffffffffffffffffffffffffffffffff16815260200190815260200160002060006101000a81548160ff02191690831515021790555050565b600082825260208201905092915050565b7f4f6e6c79204f776e657200000000000000000000000000000000000000000000600082015250565b60006200019d600a8362000154565b9150620001aa8262000165565b602082019050919050565b60006020820190508181036000830152620001d0816200018e565b9050919050565b615bfa80620001e76000396000f3fe608060405234801561001057600080fd5b506004361061018d5760003560e01c8063751938af116100e3578063b49d53a21161008c578063e635765411610066578063e63576541461048f578063ea7a48da146104bf578063ffe41ad3146104db5761018d565b8063b49d53a214610427578063dc3dd69e14610443578063dcdc3825146104735761018d565b80639f668bba116100bd5780639f668bba146103a9578063a2f77bcc146103c7578063a996265a146103f75761018d565b8063751938af1461033f5780638da5cb5b1461036f5780639870d7fe1461038d5761018d565b80634fb2e45d116101455780636a3f5dc51161011f5780636a3f5dc5146102af5780636cc5f3ad146102df57806370c1b1d71461030f5761018d565b80634fb2e45d1461024657806357e40a64146102625780636149b2251461027e5761018d565b80632c22c036116101765780632c22c036146101f25780633e30838d1461020e57806342f2a5e31461022a5761018d565b80630d2dce221461019257806313e7c9d8146101c2575b600080fd5b6101ac60048036038101906101a79190613c37565b6104f7565b6040516101b99190613d67565b60405180910390f35b6101dc60048036038101906101d79190613db5565b6105aa565b6040516101e99190613dfd565b60405180910390f35b61020c60048036038101906102079190613f71565b6105ca565b005b61022860048036038101906102239190613db5565b61074f565b005b610244600480360381019061023f9190613fe0565b610838565b005b610260600480360381019061025b9190613db5565b610914565b005b61027c60048036038101906102779190614033565b610ab5565b005b61029860048036038101906102939190614086565b610e56565b6040516102a692919061483b565b60405180910390f35b6102c960048036038101906102c49190613c37565b6116b8565b6040516102d691906148e1565b60405180910390f35b6102f960048036038101906102f49190614903565b611735565b6040516103069190614c38565b60405180910390f35b61032960048036038101906103249190613c37565b611d90565b6040516103369190614d49565b60405180910390f35b61035960048036038101906103549190613c37565b612211565b6040516103669190614d7a565b60405180910390f35b610377612240565b6040516103849190614da4565b60405180910390f35b6103a760048036038101906103a29190613db5565b612264565b005b6103b161234c565b6040516103be91906148e1565b60405180910390f35b6103e160048036038101906103dc9190614086565b6123a4565b6040516103ee9190614dbf565b60405180910390f35b610411600480360381019061040c9190614e96565b612952565b60405161041e91906148e1565b60405180910390f35b610441600480360381019061043c9190614fa2565b6129c8565b005b61045d60048036038101906104589190614086565b612cbb565b60405161046a9190615020565b60405180910390f35b61048d600480360381019061048891906154aa565b612d35565b005b6104a960048036038101906104a49190614086565b6130c4565b6040516104b69190615522565b60405180910390f35b6104d960048036038101906104d4919061576d565b613377565b005b6104f560048036038101906104f091906157dc565b61355a565b005b606060056000848152602001908152602001600020600083815260200190815260200160002080548060200260200160405190810160405280929190818152602001828054801561059d57602002820191906000526020600020905b8160009054906101000a900473ffffffffffffffffffffffffffffffffffffffff1673ffffffffffffffffffffffffffffffffffffffff1681526020019060010190808311610553575b5050505050905092915050565b60016020528060005260406000206000915054906101000a900460ff1681565b600160003373ffffffffffffffffffffffffffffffffffffffff1673ffffffffffffffffffffffffffffffffffffffff16815260200190815260200160002060009054906101000a900460ff16610656576040517f08c379a000000000000000000000000000000000000000000000000000000000815260040161064d9061588c565b60405180910390fd5b60006004600085815260200190815260200160002060008481526020019081526020016000208054905014156106c4578060046000858152602001908152602001600020600084815260200190815260200160002090805190602001906106be9291906137f1565b5061074a565b60005b815181101561074857600460008581526020019081526020016000206000848152602001908152602001600020828281518110610707576107066158ac565b5b6020026020010151908060018154018082558091505060019003906000526020600020016000909190919091505580806107409061590a565b9150506106c7565b505b505050565b60008054906101000a900473ffffffffffffffffffffffffffffffffffffffff1673ffffffffffffffffffffffffffffffffffffffff163373ffffffffffffffffffffffffffffffffffffffff16146107dd576040517f08c379a00000000000000000000000000000000000000000000000000000000081526004016107d49061599f565b60405180910390fd5b6000600160008373ffffffffffffffffffffffffffffffffffffffff1673ffffffffffffffffffffffffffffffffffffffff16815260200190815260200160002060006101000a81548160ff02191690831515021790555050565b600160003373ffffffffffffffffffffffffffffffffffffffff1673ffffffffffffffffffffffffffffffffffffffff16815260200190815260200160002060009054906101000a900460ff166108c4576040517f08c379a00000000000000000000000000000000000000000000000000000000081526004016108bb9061588c565b60405180910390fd5b600460008481526020019081526020016000206000838152602001908152602001600020819080600181540180825580915050600190039060005260206000200160009091909190915055505050565b60008054906101000a900473ffffffffffffffffffffffffffffffffffffffff1673ffffffffffffffffffffffffffffffffffffffff163373ffffffffffffffffffffffffffffffffffffffff16146109a2576040517f08c379a00000000000000000000000000000000000000000000000000000000081526004016109999061599f565b60405180910390fd5b6000600160008060009054906101000a900473ffffffffffffffffffffffffffffffffffffffff1673ffffffffffffffffffffffffffffffffffffffff1673ffffffffffffffffffffffffffffffffffffffff16815260200190815260200160002060006101000a81548160ff021916908315150217905550806000806101000a81548173ffffffffffffffffffffffffffffffffffffffff021916908373ffffffffffffffffffffffffffffffffffffffff16021790555060018060008373ffffffffffffffffffffffffffffffffffffffff1673ffffffffffffffffffffffffffffffffffffffff16815260200190815260200160002060006101000a81548160ff02191690831515021790555050565b600160003373ffffffffffffffffffffffffffffffffffffffff1673ffffffffffffffffffffffffffffffffffffffff16815260200190815260200160002060009054906101000a900460ff16610b41576040517f08c379a0000000000000000000000000000000000000000000000000000000008152600401610b389061588c565b60405180910390fd5b6002600084815260200190815260200160002060150160009054906101000a900460ff1615610e51576000604051806101400160405280858152602001600067ffffffffffffffff811115610b9957610b98613e2e565b5b604051908082528060200260200182016040528015610bc75781602001602082028036833780820191505090505b508152602001600081526020018473ffffffffffffffffffffffffffffffffffffffff168152602001838152602001600067ffffffffffffffff811115610c1157610c10613e2e565b5b604051908082528060200260200182016040528015610c3f5781602001602082028036833780820191505090505b508152602001600067ffffffffffffffff811115610c6057610c5f613e2e565b5b604051908082528060200260200182016040528015610c8e5781602001602082028036833780820191505090505b508152602001600067ffffffffffffffff811115610caf57610cae613e2e565b5b604051908082528060200260200182016040528015610cdd5781602001602082028036833780820191505090505b50815260200160001515815260200160011515815250905060086000858152602001908152602001600020819080600181540180825580915050600190039060005260206000209060090201600090919091909150600082015181600001556020820151816001019080519060200190610d5892919061383e565b506040820151816002015560608201518160030160006101000a81548173ffffffffffffffffffffffffffffffffffffffff021916908373ffffffffffffffffffffffffffffffffffffffff1602179055506080820151816004015560a0820151816005019080519060200190610dd09291906138c8565b5060c0820151816006019080519060200190610ded9291906138c8565b5060e0820151816007019080519060200190610e0a9291906138c8565b506101008201518160080160006101000a81548160ff0219169083151502179055506101208201518160080160016101000a81548160ff0219169083151502179055505050505b505050565b610e5e613915565b6060600260008481526020019081526020016000206008600085815260200190815260200160002081604051806103000160405290816000820154815260200160018201548152602001600282018054610eb7906159ee565b80601f0160208091040260200160405190810160405280929190818152602001828054610ee3906159ee565b8015610f305780601f10610f0557610100808354040283529160200191610f30565b820191906000526020600020905b815481529060010190602001808311610f1357829003601f168201915b505050505081526020016003820154815260200160048201548152602001600582018054610f5d906159ee565b80601f0160208091040260200160405190810160405280929190818152602001828054610f89906159ee565b8015610fd65780601f10610fab57610100808354040283529160200191610fd6565b820191906000526020600020905b815481529060010190602001808311610fb957829003601f168201915b50505050508152602001600682018054610fef906159ee565b80601f016020809104026020016040519081016040528092919081815260200182805461101b906159ee565b80156110685780601f1061103d57610100808354040283529160200191611068565b820191906000526020600020905b81548152906001019060200180831161104b57829003601f168201915b50505050508152602001600782018054611081906159ee565b80601f01602080910402602001604051908101604052809291908181526020018280546110ad906159ee565b80156110fa5780601f106110cf576101008083540402835291602001916110fa565b820191906000526020600020905b8154815290600101906020018083116110dd57829003601f168201915b505050505081526020016008820154815260200160098201548152602001600a8201548152602001600b820180548060200260200160405190810160405280929190818152602001828054801561117057602002820191906000526020600020905b81548152602001906001019080831161115c575b50505050508152602001600c82018054611189906159ee565b80601f01602080910402602001604051908101604052809291908181526020018280546111b5906159ee565b80156112025780601f106111d757610100808354040283529160200191611202565b820191906000526020600020905b8154815290600101906020018083116111e557829003601f168201915b50505050508152602001600d8201805480602002602001604051908101604052809291908181526020016000905b828210156112dc57838290600052602060002001805461124f906159ee565b80601f016020809104026020016040519081016040528092919081815260200182805461127b906159ee565b80156112c85780601f1061129d576101008083540402835291602001916112c8565b820191906000526020600020905b8154815290600101906020018083116112ab57829003601f168201915b505050505081526020019060010190611230565b505050508152602001600e820160009054906101000a900460ff16151515158152602001600e820160019054906101000a900473ffffffffffffffffffffffffffffffffffffffff1673ffffffffffffffffffffffffffffffffffffffff1673ffffffffffffffffffffffffffffffffffffffff168152602001600f820154815260200160108201548152602001601182015481526020016012820160009054906101000a900460ff1615151515815260200160138201548152602001601482015481526020016015820160009054906101000a900460ff161515151581526020016015820160019054906101000a900473ffffffffffffffffffffffffffffffffffffffff1673ffffffffffffffffffffffffffffffffffffffff1673ffffffffffffffffffffffffffffffffffffffff1681525050915080805480602002602001604051908101604052809291908181526020016000905b828210156116a957838290600052602060002090600902016040518061014001604052908160008201548152602001600182018054806020026020016040519081016040528092919081815260200182805480156114e957602002820191906000526020600020905b8160009054906101000a900473ffffffffffffffffffffffffffffffffffffffff1673ffffffffffffffffffffffffffffffffffffffff168152602001906001019080831161149f575b50505050508152602001600282015481526020016003820160009054906101000a900473ffffffffffffffffffffffffffffffffffffffff1673ffffffffffffffffffffffffffffffffffffffff1673ffffffffffffffffffffffffffffffffffffffff16815260200160048201548152602001600582018054806020026020016040519081016040528092919081815260200182805480156115ab57602002820191906000526020600020905b815481526020019060010190808311611597575b505050505081526020016006820180548060200260200160405190810160405280929190818152602001828054801561160357602002820191906000526020600020905b8154815260200190600101908083116115ef575b505050505081526020016007820180548060200260200160405190810160405280929190818152602001828054801561165b57602002820191906000526020600020905b815481526020019060010190808311611647575b505050505081526020016008820160009054906101000a900460ff161515151581526020016008820160019054906101000a900460ff16151515158152505081526020019060010190611436565b50505050905091509150915091565b606060046000848152602001908152602001600020600083815260200190815260200160002080548060200260200160405190810160405280929190818152602001828054801561172857602002820191906000526020600020905b815481526020019060010190808311611714575b5050505050905092915050565b60606000825167ffffffffffffffff81111561175457611753613e2e565b5b60405190808252806020026020018201604052801561178d57816020015b61177a613915565b8152602001906001900390816117725790505b50905060005b8351811015611d8657600260008583815181106117b3576117b26158ac565b5b602002602001015181526020019081526020016000206040518061030001604052908160008201548152602001600182015481526020016002820180546117f9906159ee565b80601f0160208091040260200160405190810160405280929190818152602001828054611825906159ee565b80156118725780601f1061184757610100808354040283529160200191611872565b820191906000526020600020905b81548152906001019060200180831161185557829003601f168201915b50505050508152602001600382015481526020016004820154815260200160058201805461189f906159ee565b80601f01602080910402602001604051908101604052809291908181526020018280546118cb906159ee565b80156119185780601f106118ed57610100808354040283529160200191611918565b820191906000526020600020905b8154815290600101906020018083116118fb57829003601f168201915b50505050508152602001600682018054611931906159ee565b80601f016020809104026020016040519081016040528092919081815260200182805461195d906159ee565b80156119aa5780601f1061197f576101008083540402835291602001916119aa565b820191906000526020600020905b81548152906001019060200180831161198d57829003601f168201915b505050505081526020016007820180546119c3906159ee565b80601f01602080910402602001604051908101604052809291908181526020018280546119ef906159ee565b8015611a3c5780601f10611a1157610100808354040283529160200191611a3c565b820191906000526020600020905b815481529060010190602001808311611a1f57829003601f168201915b505050505081526020016008820154815260200160098201548152602001600a8201548152602001600b8201805480602002602001604051908101604052809291908181526020018280548015611ab257602002820191906000526020600020905b815481526020019060010190808311611a9e575b50505050508152602001600c82018054611acb906159ee565b80601f0160208091040260200160405190810160405280929190818152602001828054611af7906159ee565b8015611b445780601f10611b1957610100808354040283529160200191611b44565b820191906000526020600020905b815481529060010190602001808311611b2757829003601f168201915b50505050508152602001600d8201805480602002602001604051908101604052809291908181526020016000905b82821015611c1e578382906000526020600020018054611b91906159ee565b80601f0160208091040260200160405190810160405280929190818152602001828054611bbd906159ee565b8015611c0a5780601f10611bdf57610100808354040283529160200191611c0a565b820191906000526020600020905b815481529060010190602001808311611bed57829003601f168201915b505050505081526020019060010190611b72565b505050508152602001600e820160009054906101000a900460ff16151515158152602001600e820160019054906101000a900473ffffffffffffffffffffffffffffffffffffffff1673ffffffffffffffffffffffffffffffffffffffff1673ffffffffffffffffffffffffffffffffffffffff168152602001600f820154815260200160108201548152602001601182015481526020016012820160009054906101000a900460ff1615151515815260200160138201548152602001601482015481526020016015820160009054906101000a900460ff161515151581526020016015820160019054906101000a900473ffffffffffffffffffffffffffffffffffffffff1673ffffffffffffffffffffffffffffffffffffffff1673ffffffffffffffffffffffffffffffffffffffff1681525050828281518110611d6857611d676158ac565b5b60200260200101819052508080611d7e9061590a565b915050611793565b5080915050919050565b611d986139fc565b600060405180610140016040528060008152602001600067ffffffffffffffff811115611dc857611dc7613e2e565b5b604051908082528060200260200182016040528015611df65781602001602082028036833780820191505090505b50815260200160008152602001600073ffffffffffffffffffffffffffffffffffffffff16815260200160008152602001600067ffffffffffffffff811115611e4257611e41613e2e565b5b604051908082528060200260200182016040528015611e705781602001602082028036833780820191505090505b508152602001600067ffffffffffffffff811115611e9157611e90613e2e565b5b604051908082528060200260200182016040528015611ebf5781602001602082028036833780820191505090505b508152602001600067ffffffffffffffff811115611ee057611edf613e2e565b5b604051908082528060200260200182016040528015611f0e5781602001602082028036833780820191505090505b508152602001600015158152602001600015158152509050600060086000868152602001908152602001600020805490501415611f4e578091505061220b565b82611f79600160086000888152602001908152602001600020805490506136e590919063ffffffff16565b1015611f88578091505061220b565b600860008581526020019081526020016000208381548110611fad57611fac6158ac565b5b906000526020600020906009020160405180610140016040529081600082015481526020016001820180548060200260200160405190810160405280929190818152602001828054801561205657602002820191906000526020600020905b8160009054906101000a900473ffffffffffffffffffffffffffffffffffffffff1673ffffffffffffffffffffffffffffffffffffffff168152602001906001019080831161200c575b50505050508152602001600282015481526020016003820160009054906101000a900473ffffffffffffffffffffffffffffffffffffffff1673ffffffffffffffffffffffffffffffffffffffff1673ffffffffffffffffffffffffffffffffffffffff168152602001600482015481526020016005820180548060200260200160405190810160405280929190818152602001828054801561211857602002820191906000526020600020905b815481526020019060010190808311612104575b505050505081526020016006820180548060200260200160405190810160405280929190818152602001828054801561217057602002820191906000526020600020905b81548152602001906001019080831161215c575b50505050508152602001600782018054806020026020016040519081016040528092919081815260200182805480156121c857602002820191906000526020600020905b8154815260200190600101908083116121b4575b505050505081526020016008820160009054906101000a900460ff161515151581526020016008820160019054906101000a900460ff1615151515815250509150505b92915050565b600060066000848152602001908152602001600020600083815260200190815260200160002054905092915050565b60008054906101000a900473ffffffffffffffffffffffffffffffffffffffff1681565b60008054906101000a900473ffffffffffffffffffffffffffffffffffffffff1673ffffffffffffffffffffffffffffffffffffffff163373ffffffffffffffffffffffffffffffffffffffff16146122f2576040517f08c379a00000000000000000000000000000000000000000000000000000000081526004016122e99061599f565b60405180910390fd5b60018060008373ffffffffffffffffffffffffffffffffffffffff1673ffffffffffffffffffffffffffffffffffffffff16815260200190815260200160002060006101000a81548160ff02191690831515021790555050565b6060600780548060200260200160405190810160405280929190818152602001828054801561239a57602002820191906000526020600020905b815481526020019060010190808311612386575b5050505050905090565b6123ac613915565b600260008381526020019081526020016000206040518061030001604052908160008201548152602001600182015481526020016002820180546123ef906159ee565b80601f016020809104026020016040519081016040528092919081815260200182805461241b906159ee565b80156124685780601f1061243d57610100808354040283529160200191612468565b820191906000526020600020905b81548152906001019060200180831161244b57829003601f168201915b505050505081526020016003820154815260200160048201548152602001600582018054612495906159ee565b80601f01602080910402602001604051908101604052809291908181526020018280546124c1906159ee565b801561250e5780601f106124e35761010080835404028352916020019161250e565b820191906000526020600020905b8154815290600101906020018083116124f157829003601f168201915b50505050508152602001600682018054612527906159ee565b80601f0160208091040260200160405190810160405280929190818152602001828054612553906159ee565b80156125a05780601f10612575576101008083540402835291602001916125a0565b820191906000526020600020905b81548152906001019060200180831161258357829003601f168201915b505050505081526020016007820180546125b9906159ee565b80601f01602080910402602001604051908101604052809291908181526020018280546125e5906159ee565b80156126325780601f1061260757610100808354040283529160200191612632565b820191906000526020600020905b81548152906001019060200180831161261557829003601f168201915b505050505081526020016008820154815260200160098201548152602001600a8201548152602001600b82018054806020026020016040519081016040528092919081815260200182805480156126a857602002820191906000526020600020905b815481526020019060010190808311612694575b50505050508152602001600c820180546126c1906159ee565b80601f01602080910402602001604051908101604052809291908181526020018280546126ed906159ee565b801561273a5780601f1061270f5761010080835404028352916020019161273a565b820191906000526020600020905b81548152906001019060200180831161271d57829003601f168201915b50505050508152602001600d8201805480602002602001604051908101604052809291908181526020016000905b82821015612814578382906000526020600020018054612787906159ee565b80601f01602080910402602001604051908101604052809291908181526020018280546127b3906159ee565b80156128005780601f106127d557610100808354040283529160200191612800565b820191906000526020600020905b8154815290600101906020018083116127e357829003601f168201915b505050505081526020019060010190612768565b505050508152602001600e820160009054906101000a900460ff16151515158152602001600e820160019054906101000a900473ffffffffffffffffffffffffffffffffffffffff1673ffffffffffffffffffffffffffffffffffffffff1673ffffffffffffffffffffffffffffffffffffffff168152602001600f820154815260200160108201548152602001601182015481526020016012820160009054906101000a900460ff1615151515815260200160138201548152602001601482015481526020016015820160009054906101000a900460ff161515151581526020016015820160019054906101000a900473ffffffffffffffffffffffffffffffffffffffff1673ffffffffffffffffffffffffffffffffffffffff1673ffffffffffffffffffffffffffffffffffffffff16815250509050919050565b60606003826040516129649190615a5c565b90815260200160405180910390208054806020026020016040519081016040528092919081815260200182805480156129bc57602002820191906000526020600020905b8154815260200190600101908083116129a8575b50505050509050919050565b600160003373ffffffffffffffffffffffffffffffffffffffff1673ffffffffffffffffffffffffffffffffffffffff16815260200190815260200160002060009054906101000a900460ff16612a54576040517f08c379a0000000000000000000000000000000000000000000000000000000008152600401612a4b9061588c565b60405180910390fd5b60005b8151811015612b8757600560008581526020019081526020016000206000848152602001908152602001600020828281518110612a9757612a966158ac565b5b60200260200101519080600181540180825580915050600190039060005260206000200160009091909190916101000a81548173ffffffffffffffffffffffffffffffffffffffff021916908373ffffffffffffffffffffffffffffffffffffffff160217905550612b4c60026000868152602001908152602001600020600f01546006600087815260200190815260200160002060008681526020019081526020016000205461372f90919063ffffffff16565b600660008681526020019081526020016000206000858152602001908152602001600020819055508080612b7f9061590a565b915050612a57565b506000600560008581526020019081526020016000206000848152602001908152602001600020805490501415612bf657806005600085815260200190815260200160002060008481526020019081526020016000209080519060200190612bf092919061383e565b50612cb6565b60005b8151811015612cb457600560008581526020019081526020016000206000848152602001908152602001600020828281518110612c3957612c386158ac565b5b60200260200101519080600181540180825580915050600190039060005260206000200160009091909190916101000a81548173ffffffffffffffffffffffffffffffffffffffff021916908373ffffffffffffffffffffffffffffffffffffffff1602179055508080612cac9061590a565b915050612bf9565b505b505050565b60008060086000848152602001908152602001600020805490501115612d0c57612d05600160086000858152602001908152602001600020805490506136e590919063ffffffff16565b9050612d30565b7fffffffffffffffffffffffffffffffffffffffffffffffffffffffffffffffff90505b919050565b600160003373ffffffffffffffffffffffffffffffffffffffff1673ffffffffffffffffffffffffffffffffffffffff16815260200190815260200160002060009054906101000a900460ff16612dc1576040517f08c379a0000000000000000000000000000000000000000000000000000000008152600401612db89061588c565b60405180910390fd5b600260008260000151815260200190815260200160002060150160009054906101000a900460ff166130c05780600260008360000151815260200190815260200160002060008201518160000155602082015181600101556040820151816002019080519060200190612e35929190613a69565b50606082015181600301556080820151816004015560a0820151816005019080519060200190612e66929190613a69565b5060c0820151816006019080519060200190612e83929190613a69565b5060e0820151816007019080519060200190612ea0929190613a69565b506101008201518160080155610120820151816009015561014082015181600a015561016082015181600b019080519060200190612edf9291906137f1565b5061018082015181600c019080519060200190612efd929190613a69565b506101a082015181600d019080519060200190612f1b929190613aef565b506101c082015181600e0160006101000a81548160ff0219169083151502179055506101e082015181600e0160016101000a81548173ffffffffffffffffffffffffffffffffffffffff021916908373ffffffffffffffffffffffffffffffffffffffff16021790555061020082015181600f0155610220820151816010015561024082015181601101556102608201518160120160006101000a81548160ff02191690831515021790555061028082015181601301556102a082015181601401556102c08201518160150160006101000a81548160ff0219169083151502179055506102e08201518160150160016101000a81548173ffffffffffffffffffffffffffffffffffffffff021916908373ffffffffffffffffffffffffffffffffffffffff1602179055509050506003826040516130599190615a5c565b9081526020016040518091039020816000015190806001815401808255809150506001900390600052602060002001600090919091909150556007816000015190806001815401808255809150506001900390600052602060002001600090919091909150555b5050565b606060086000838152602001908152602001600020805480602002602001604051908101604052809291908181526020016000905b8282101561336c57838290600052602060002090600902016040518061014001604052908160008201548152602001600182018054806020026020016040519081016040528092919081815260200182805480156131ac57602002820191906000526020600020905b8160009054906101000a900473ffffffffffffffffffffffffffffffffffffffff1673ffffffffffffffffffffffffffffffffffffffff1681526020019060010190808311613162575b50505050508152602001600282015481526020016003820160009054906101000a900473ffffffffffffffffffffffffffffffffffffffff1673ffffffffffffffffffffffffffffffffffffffff1673ffffffffffffffffffffffffffffffffffffffff168152602001600482015481526020016005820180548060200260200160405190810160405280929190818152602001828054801561326e57602002820191906000526020600020905b81548152602001906001019080831161325a575b50505050508152602001600682018054806020026020016040519081016040528092919081815260200182805480156132c657602002820191906000526020600020905b8154815260200190600101908083116132b2575b505050505081526020016007820180548060200260200160405190810160405280929190818152602001828054801561331e57602002820191906000526020600020905b81548152602001906001019080831161330a575b505050505081526020016008820160009054906101000a900460ff161515151581526020016008820160019054906101000a900460ff161515151581525050815260200190600101906130f9565b505050509050919050565b600160003373ffffffffffffffffffffffffffffffffffffffff1673ffffffffffffffffffffffffffffffffffffffff16815260200190815260200160002060009054906101000a900460ff16613403576040517f08c379a00000000000000000000000000000000000000000000000000000000081526004016133fa9061588c565b60405180910390fd5b80600860008581526020019081526020016000208381548110613429576134286158ac565b5b906000526020600020906009020160008201518160000155602082015181600101908051906020019061345d92919061383e565b506040820151816002015560608201518160030160006101000a81548173ffffffffffffffffffffffffffffffffffffffff021916908373ffffffffffffffffffffffffffffffffffffffff1602179055506080820151816004015560a08201518160050190805190602001906134d59291906138c8565b5060c08201518160060190805190602001906134f29291906138c8565b5060e082015181600701908051906020019061350f9291906138c8565b506101008201518160080160006101000a81548160ff0219169083151502179055506101208201518160080160016101000a81548160ff021916908315150217905550905050505050565b600160003373ffffffffffffffffffffffffffffffffffffffff1673ffffffffffffffffffffffffffffffffffffffff16815260200190815260200160002060009054906101000a900460ff166135e6576040517f08c379a00000000000000000000000000000000000000000000000000000000081526004016135dd9061588c565b60405180910390fd5b600560008481526020019081526020016000206000838152602001908152602001600020819080600181540180825580915050600190039060005260206000200160009091909190916101000a81548173ffffffffffffffffffffffffffffffffffffffff021916908373ffffffffffffffffffffffffffffffffffffffff1602179055506136b860026000858152602001908152602001600020600f01546006600086815260200190815260200160002060008581526020019081526020016000205461372f90919063ffffffff16565b60066000858152602001908152602001600020600084815260200190815260200160002081905550505050565b600061372783836040518060400160405280601e81526020017f536166654d6174683a207375627472616374696f6e206f766572666c6f77000081525061378d565b905092915050565b600080828461373e9190615a73565b905083811015613783576040517f08c379a000000000000000000000000000000000000000000000000000000000815260040161377a90615b15565b60405180910390fd5b8091505092915050565b60008383111582906137d5576040517f08c379a00000000000000000000000000000000000000000000000000000000081526004016137cc9190615b6e565b60405180910390fd5b50600083856137e49190615b90565b9050809150509392505050565b82805482825590600052602060002090810192821561382d579160200282015b8281111561382c578251825591602001919060010190613811565b5b50905061383a9190613b4f565b5090565b8280548282559060005260206000209081019282156138b7579160200282015b828111156138b65782518260006101000a81548173ffffffffffffffffffffffffffffffffffffffff021916908373ffffffffffffffffffffffffffffffffffffffff1602179055509160200191906001019061385e565b5b5090506138c49190613b4f565b5090565b828054828255906000526020600020908101928215613904579160200282015b828111156139035782518255916020019190600101906138e8565b5b5090506139119190613b6c565b5090565b6040518061030001604052806000815260200160008152602001606081526020016000815260200160008152602001606081526020016060815260200160608152602001600081526020016000815260200160008152602001606081526020016060815260200160608152602001600015158152602001600073ffffffffffffffffffffffffffffffffffffffff1681526020016000815260200160008152602001600081526020016000151581526020016000815260200160008152602001600015158152602001600073ffffffffffffffffffffffffffffffffffffffff1681525090565b604051806101400160405280600081526020016060815260200160008152602001600073ffffffffffffffffffffffffffffffffffffffff168152602001600081526020016060815260200160608152602001606081526020016000151581526020016000151581525090565b828054613a75906159ee565b90600052602060002090601f016020900481019282613a975760008555613ade565b82601f10613ab057805160ff1916838001178555613ade565b82800160010185558215613ade579182015b82811115613add578251825591602001919060010190613ac2565b5b509050613aeb9190613b4f565b5090565b828054828255906000526020600020908101928215613b3e579160200282015b82811115613b3d578251829080519060200190613b2d929190613a69565b5091602001919060010190613b0f565b5b509050613b4b9190613b89565b5090565b5b80821115613b68576000816000905550600101613b50565b5090565b5b80821115613b85576000816000905550600101613b6d565b5090565b5b80821115613ba95760008181613ba09190613bad565b50600101613b8a565b5090565b508054613bb9906159ee565b6000825580601f10613bcb5750613bea565b601f016020900490600052602060002090810190613be99190613b4f565b5b50565b6000604051905090565b600080fd5b600080fd5b6000819050919050565b613c1481613c01565b8114613c1f57600080fd5b50565b600081359050613c3181613c0b565b92915050565b60008060408385031215613c4e57613c4d613bf7565b5b6000613c5c85828601613c22565b9250506020613c6d85828601613c22565b9150509250929050565b600081519050919050565b600082825260208201905092915050565b6000819050602082019050919050565b600073ffffffffffffffffffffffffffffffffffffffff82169050919050565b6000613cce82613ca3565b9050919050565b613cde81613cc3565b82525050565b6000613cf08383613cd5565b60208301905092915050565b6000602082019050919050565b6000613d1482613c77565b613d1e8185613c82565b9350613d2983613c93565b8060005b83811015613d5a578151613d418882613ce4565b9750613d4c83613cfc565b925050600181019050613d2d565b5085935050505092915050565b60006020820190508181036000830152613d818184613d09565b905092915050565b613d9281613cc3565b8114613d9d57600080fd5b50565b600081359050613daf81613d89565b92915050565b600060208284031215613dcb57613dca613bf7565b5b6000613dd984828501613da0565b91505092915050565b60008115159050919050565b613df781613de2565b82525050565b6000602082019050613e126000830184613dee565b92915050565b600080fd5b6000601f19601f8301169050919050565b7f4e487b7100000000000000000000000000000000000000000000000000000000600052604160045260246000fd5b613e6682613e1d565b810181811067ffffffffffffffff82111715613e8557613e84613e2e565b5b80604052505050565b6000613e98613bed565b9050613ea48282613e5d565b919050565b600067ffffffffffffffff821115613ec457613ec3613e2e565b5b602082029050602081019050919050565b600080fd5b6000613eed613ee884613ea9565b613e8e565b90508083825260208201905060208402830185811115613f1057613f0f613ed5565b5b835b81811015613f395780613f258882613c22565b845260208401935050602081019050613f12565b5050509392505050565b600082601f830112613f5857613f57613e18565b5b8135613f68848260208601613eda565b91505092915050565b600080600060608486031215613f8a57613f89613bf7565b5b6000613f9886828701613c22565b9350506020613fa986828701613c22565b925050604084013567ffffffffffffffff811115613fca57613fc9613bfc565b5b613fd686828701613f43565b9150509250925092565b600080600060608486031215613ff957613ff8613bf7565b5b600061400786828701613c22565b935050602061401886828701613c22565b925050604061402986828701613c22565b9150509250925092565b60008060006060848603121561404c5761404b613bf7565b5b600061405a86828701613c22565b935050602061406b86828701613da0565b925050604061407c86828701613c22565b9150509250925092565b60006020828403121561409c5761409b613bf7565b5b60006140aa84828501613c22565b91505092915050565b6140bc81613c01565b82525050565b600081519050919050565b600082825260208201905092915050565b60005b838110156140fc5780820151818401526020810190506140e1565b8381111561410b576000848401525b50505050565b600061411c826140c2565b61412681856140cd565b93506141368185602086016140de565b61413f81613e1d565b840191505092915050565b6000819050919050565b61415d8161414a565b82525050565b600081519050919050565b600082825260208201905092915050565b6000819050602082019050919050565b600061419b83836140b3565b60208301905092915050565b6000602082019050919050565b60006141bf82614163565b6141c9818561416e565b93506141d48361417f565b8060005b838110156142055781516141ec888261418f565b97506141f7836141a7565b9250506001810190506141d8565b5085935050505092915050565b600081519050919050565b600082825260208201905092915050565b6000819050602082019050919050565b600061424a8383614111565b905092915050565b6000602082019050919050565b600061426a82614212565b614274818561421d565b9350836020820285016142868561422e565b8060005b858110156142c257848403895281516142a3858261423e565b94506142ae83614252565b925060208a0199505060018101905061428a565b50829750879550505050505092915050565b6142dd81613de2565b82525050565b6000819050919050565b60006143086143036142fe84613ca3565b6142e3565b613ca3565b9050919050565b600061431a826142ed565b9050919050565b600061432c8261430f565b9050919050565b61433c81614321565b82525050565b60006103008301600083015161435b60008601826140b3565b50602083015161436e60208601826140b3565b50604083015184820360408601526143868282614111565b915050606083015161439b6060860182614154565b5060808301516143ae60808601826140b3565b5060a083015184820360a08601526143c68282614111565b91505060c083015184820360c08601526143e08282614111565b91505060e083015184820360e08601526143fa8282614111565b9150506101008301516144116101008601826140b3565b506101208301516144266101208601826140b3565b5061014083015161443b6101408601826140b3565b5061016083015184820361016086015261445582826141b4565b9150506101808301518482036101808601526144718282614111565b9150506101a08301518482036101a086015261448d828261425f565b9150506101c08301516144a46101c08601826142d4565b506101e08301516144b96101e0860182614333565b506102008301516144ce6102008601826140b3565b506102208301516144e36102208601826140b3565b506102408301516144f86102408601826140b3565b5061026083015161450d6102608601826142d4565b506102808301516145226102808601826140b3565b506102a08301516145376102a08601826140b3565b506102c083015161454c6102c08601826142d4565b506102e08301516145616102e0860182613cd5565b508091505092915050565b600081519050919050565b600082825260208201905092915050565b6000819050602082019050919050565b600082825260208201905092915050565b60006145b482613c77565b6145be8185614598565b93506145c983613c93565b8060005b838110156145fa5781516145e18882613ce4565b97506145ec83613cfc565b9250506001810190506145cd565b5085935050505092915050565b600081519050919050565b600082825260208201905092915050565b6000819050602082019050919050565b600061463f8383614154565b60208301905092915050565b6000602082019050919050565b600061466382614607565b61466d8185614612565b935061467883614623565b8060005b838110156146a95781516146908882614633565b975061469b8361464b565b92505060018101905061467c565b5085935050505092915050565b6000610140830160008301516146cf60008601826140b3565b50602083015184820360208601526146e782826145a9565b91505060408301516146fc60408601826140b3565b50606083015161470f6060860182613cd5565b50608083015161472260808601826140b3565b5060a083015184820360a086015261473a8282614658565b91505060c083015184820360c08601526147548282614658565b91505060e083015184820360e086015261476e8282614658565b9150506101008301516147856101008601826142d4565b5061012083015161479a6101208601826142d4565b508091505092915050565b60006147b183836146b6565b905092915050565b6000602082019050919050565b60006147d18261456c565b6147db8185614577565b9350836020820285016147ed85614588565b8060005b85811015614829578484038952815161480a85826147a5565b9450614815836147b9565b925060208a019950506001810190506147f1565b50829750879550505050505092915050565b600060408201905081810360008301526148558185614342565b9050818103602083015261486981846147c6565b90509392505050565b600082825260208201905092915050565b600061488e82614163565b6148988185614872565b93506148a38361417f565b8060005b838110156148d45781516148bb888261418f565b97506148c6836141a7565b9250506001810190506148a7565b5085935050505092915050565b600060208201905081810360008301526148fb8184614883565b905092915050565b60006020828403121561491957614918613bf7565b5b600082013567ffffffffffffffff81111561493757614936613bfc565b5b61494384828501613f43565b91505092915050565b600081519050919050565b600082825260208201905092915050565b6000819050602082019050919050565b60006103008301600083015161499160008601826140b3565b5060208301516149a460208601826140b3565b50604083015184820360408601526149bc8282614111565b91505060608301516149d16060860182614154565b5060808301516149e460808601826140b3565b5060a083015184820360a08601526149fc8282614111565b91505060c083015184820360c0860152614a168282614111565b91505060e083015184820360e0860152614a308282614111565b915050610100830151614a476101008601826140b3565b50610120830151614a5c6101208601826140b3565b50610140830151614a716101408601826140b3565b50610160830151848203610160860152614a8b82826141b4565b915050610180830151848203610180860152614aa78282614111565b9150506101a08301518482036101a0860152614ac3828261425f565b9150506101c0830151614ada6101c08601826142d4565b506101e0830151614aef6101e0860182614333565b50610200830151614b046102008601826140b3565b50610220830151614b196102208601826140b3565b50610240830151614b2e6102408601826140b3565b50610260830151614b436102608601826142d4565b50610280830151614b586102808601826140b3565b506102a0830151614b6d6102a08601826140b3565b506102c0830151614b826102c08601826142d4565b506102e0830151614b976102e0860182613cd5565b508091505092915050565b6000614bae8383614978565b905092915050565b6000602082019050919050565b6000614bce8261494c565b614bd88185614957565b935083602082028501614bea85614968565b8060005b85811015614c265784840389528151614c078582614ba2565b9450614c1283614bb6565b925060208a01995050600181019050614bee565b50829750879550505050505092915050565b60006020820190508181036000830152614c528184614bc3565b905092915050565b600061014083016000830151614c7360008601826140b3565b5060208301518482036020860152614c8b82826145a9565b9150506040830151614ca060408601826140b3565b506060830151614cb36060860182613cd5565b506080830151614cc660808601826140b3565b5060a083015184820360a0860152614cde8282614658565b91505060c083015184820360c0860152614cf88282614658565b91505060e083015184820360e0860152614d128282614658565b915050610100830151614d296101008601826142d4565b50610120830151614d3e6101208601826142d4565b508091505092915050565b60006020820190508181036000830152614d638184614c5a565b905092915050565b614d7481613c01565b82525050565b6000602082019050614d8f6000830184614d6b565b92915050565b614d9e81613cc3565b82525050565b6000602082019050614db96000830184614d95565b92915050565b60006020820190508181036000830152614dd98184614342565b905092915050565b600080fd5b600067ffffffffffffffff821115614e0157614e00613e2e565b5b614e0a82613e1d565b9050602081019050919050565b82818337600083830152505050565b6000614e39614e3484614de6565b613e8e565b905082815260208101848484011115614e5557614e54614de1565b5b614e60848285614e17565b509392505050565b600082601f830112614e7d57614e7c613e18565b5b8135614e8d848260208601614e26565b91505092915050565b600060208284031215614eac57614eab613bf7565b5b600082013567ffffffffffffffff811115614eca57614ec9613bfc565b5b614ed684828501614e68565b91505092915050565b600067ffffffffffffffff821115614efa57614ef9613e2e565b5b602082029050602081019050919050565b6000614f1e614f1984614edf565b613e8e565b90508083825260208201905060208402830185811115614f4157614f40613ed5565b5b835b81811015614f6a5780614f568882613da0565b845260208401935050602081019050614f43565b5050509392505050565b600082601f830112614f8957614f88613e18565b5b8135614f99848260208601614f0b565b91505092915050565b600080600060608486031215614fbb57614fba613bf7565b5b6000614fc986828701613c22565b9350506020614fda86828701613c22565b925050604084013567ffffffffffffffff811115614ffb57614ffa613bfc565b5b61500786828701614f74565b9150509250925092565b61501a8161414a565b82525050565b60006020820190506150356000830184615011565b92915050565b600080fd5b600080fd5b61504e8161414a565b811461505957600080fd5b50565b60008135905061506b81615045565b92915050565b600067ffffffffffffffff82111561508c5761508b613e2e565b5b602082029050602081019050919050565b60006150b06150ab84615071565b613e8e565b905080838252602082019050602084028301858111156150d3576150d2613ed5565b5b835b8181101561511a57803567ffffffffffffffff8111156150f8576150f7613e18565b5b8086016151058982614e68565b855260208501945050506020810190506150d5565b5050509392505050565b600082601f83011261513957615138613e18565b5b813561514984826020860161509d565b91505092915050565b61515b81613de2565b811461516657600080fd5b50565b60008135905061517881615152565b92915050565b600061518982613cc3565b9050919050565b6151998161517e565b81146151a457600080fd5b50565b6000813590506151b681615190565b92915050565b600061030082840312156151d3576151d261503b565b5b6151de610300613e8e565b905060006151ee84828501613c22565b600083015250602061520284828501613c22565b602083015250604082013567ffffffffffffffff81111561522657615225615040565b5b61523284828501614e68565b60408301525060606152468482850161505c565b606083015250608061525a84828501613c22565b60808301525060a082013567ffffffffffffffff81111561527e5761527d615040565b5b61528a84828501614e68565b60a08301525060c082013567ffffffffffffffff8111156152ae576152ad615040565b5b6152ba84828501614e68565b60c08301525060e082013567ffffffffffffffff8111156152de576152dd615040565b5b6152ea84828501614e68565b60e0830152506101006152ff84828501613c22565b6101008301525061012061531584828501613c22565b6101208301525061014061532b84828501613c22565b6101408301525061016082013567ffffffffffffffff81111561535157615350615040565b5b61535d84828501613f43565b6101608301525061018082013567ffffffffffffffff81111561538357615382615040565b5b61538f84828501614e68565b610180830152506101a082013567ffffffffffffffff8111156153b5576153b4615040565b5b6153c184828501615124565b6101a0830152506101c06153d784828501615169565b6101c0830152506101e06153ed848285016151a7565b6101e08301525061020061540384828501613c22565b6102008301525061022061541984828501613c22565b6102208301525061024061542f84828501613c22565b6102408301525061026061544584828501615169565b6102608301525061028061545b84828501613c22565b610280830152506102a061547184828501613c22565b6102a0830152506102c061548784828501615169565b6102c0830152506102e061549d84828501613da0565b6102e08301525092915050565b600080604083850312156154c1576154c0613bf7565b5b600083013567ffffffffffffffff8111156154df576154de613bfc565b5b6154eb85828601614e68565b925050602083013567ffffffffffffffff81111561550c5761550b613bfc565b5b615518858286016151bc565b9150509250929050565b6000602082019050818103600083015261553c81846147c6565b905092915050565b600067ffffffffffffffff82111561555f5761555e613e2e565b5b602082029050602081019050919050565b600061558361557e84615544565b613e8e565b905080838252602082019050602084028301858111156155a6576155a5613ed5565b5b835b818110156155cf57806155bb888261505c565b8452602084019350506020810190506155a8565b5050509392505050565b600082601f8301126155ee576155ed613e18565b5b81356155fe848260208601615570565b91505092915050565b6000610140828403121561561e5761561d61503b565b5b615629610140613e8e565b9050600061563984828501613c22565b600083015250602082013567ffffffffffffffff81111561565d5761565c615040565b5b61566984828501614f74565b602083015250604061567d84828501613c22565b604083015250606061569184828501613da0565b60608301525060806156a584828501613c22565b60808301525060a082013567ffffffffffffffff8111156156c9576156c8615040565b5b6156d5848285016155d9565b60a08301525060c082013567ffffffffffffffff8111156156f9576156f8615040565b5b615705848285016155d9565b60c08301525060e082013567ffffffffffffffff81111561572957615728615040565b5b615735848285016155d9565b60e08301525061010061574a84828501615169565b6101008301525061012061576084828501615169565b6101208301525092915050565b60008060006060848603121561578657615785613bf7565b5b600061579486828701613c22565b93505060206157a586828701613c22565b925050604084013567ffffffffffffffff8111156157c6576157c5613bfc565b5b6157d286828701615607565b9150509250925092565b6000806000606084860312156157f5576157f4613bf7565b5b600061580386828701613c22565b935050602061581486828701613c22565b925050604061582586828701613da0565b9150509250925092565b600082825260208201905092915050565b7f4f6e6c79204f70657261746f7200000000000000000000000000000000000000600082015250565b6000615876600d8361582f565b915061588182615840565b602082019050919050565b600060208201905081810360008301526158a581615869565b9050919050565b7f4e487b7100000000000000000000000000000000000000000000000000000000600052603260045260246000fd5b7f4e487b7100000000000000000000000000000000000000000000000000000000600052601160045260246000fd5b600061591582613c01565b91507fffffffffffffffffffffffffffffffffffffffffffffffffffffffffffffffff821415615948576159476158db565b5b600182019050919050565b7f4f6e6c79204f776e657200000000000000000000000000000000000000000000600082015250565b6000615989600a8361582f565b915061599482615953565b602082019050919050565b600060208201905081810360008301526159b88161597c565b9050919050565b7f4e487b7100000000000000000000000000000000000000000000000000000000600052602260045260246000fd5b60006002820490506001821680615a0657607f821691505b60208210811415615a1a57615a196159bf565b5b50919050565b600081905092915050565b6000615a36826140c2565b615a408185615a20565b9350615a508185602086016140de565b80840191505092915050565b6000615a688284615a2b565b915081905092915050565b6000615a7e82613c01565b9150615a8983613c01565b9250827fffffffffffffffffffffffffffffffffffffffffffffffffffffffffffffffff03821115615abe57615abd6158db565b5b828201905092915050565b7f536166654d6174683a206164646974696f6e206f766572666c6f770000000000600082015250565b6000615aff601b8361582f565b9150615b0a82615ac9565b602082019050919050565b60006020820190508181036000830152615b2e81615af2565b9050919050565b6000615b40826140c2565b615b4a818561582f565b9350615b5a8185602086016140de565b615b6381613e1d565b840191505092915050565b60006020820190508181036000830152615b888184615b35565b905092915050565b6000615b9b82613c01565b9150615ba683613c01565b925082821015615bb957615bb86158db565b5b82820390509291505056fea2646970667358221220d0f03268f15b21bc5ca5c0ddc9932be9e7ced92b8815abcfbc3b3b22fee2757864736f6c63430008090033",
  "linkReferences": {},
  "deployedLinkReferences": {}
}