{
  "_format": "hh-sol-artifact-1",
  "contractName": "Permission",
  "sourceName": "src/contracts/game/data_storage.sol",
  "abi": [
    {
      "inputs": [
        {
          "internalType": "address",
          "name": "_newOperator",
          "type": "address"
        }
      ],
      "name": "addOperator",
      "outputs": [],
      "stateMutability": "nonpayable",
      "type": "function"
    },
    {
      "inputs": [
        {
          "internalType": "address",
          "name": "_removeOperator",
          "type": "address"
        }
      ],
      "name": "delOperator",
      "outputs": [],
      "stateMutability": "nonpayable",
      "type": "function"
    },
    {
      "inputs": [
        {
          "internalType": "address",
          "name": "",
          "type": "address"
        }
      ],
      "name": "operators",
      "outputs": [
        {
          "internalType": "bool",
          "name": "",
          "type": "bool"
        }
      ],
      "stateMutability": "view",
      "type": "function"
    },
    {
      "inputs": [],
      "name": "owner",
      "outputs": [
        {
          "internalType": "address",
          "name": "",
          "type": "address"
        }
      ],
      "stateMutability": "view",
      "type": "function"
    },
    {
      "inputs": [
        {
          "internalType": "address",
          "name": "_newOwner",
          "type": "address"
        }
      ],
      "name": "transferOwner",
      "outputs": [],
      "stateMutability": "nonpayable",
      "type": "function"
    }
  ],
  "bytecode": "0x608060405234801561001057600080fd5b50610450806100206000396000f3fe608060405234801561001057600080fd5b50600436106100675760003560e01c80634fb2e45d116100505780634fb2e45d146100b95780638da5cb5b146100cc5780639870d7fe1461011157600080fd5b806313e7c9d81461006c5780633e30838d146100a4575b600080fd5b61008f61007a3660046103dd565b60016020526000908152604090205460ff1681565b60405190151581526020015b60405180910390f35b6100b76100b23660046103dd565b610124565b005b6100b76100c73660046103dd565b6101f6565b6000546100ec9073ffffffffffffffffffffffffffffffffffffffff1681565b60405173ffffffffffffffffffffffffffffffffffffffff909116815260200161009b565b6100b761011f3660046103dd565b61030a565b60005473ffffffffffffffffffffffffffffffffffffffff1633146101aa576040517f08c379a000000000000000000000000000000000000000000000000000000000815260206004820152600a60248201527f4f6e6c79204f776e65720000000000000000000000000000000000000000000060448201526064015b60405180910390fd5b73ffffffffffffffffffffffffffffffffffffffff16600090815260016020526040902080547fffffffffffffffffffffffffffffffffffffffffffffffffffffffffffffff00169055565b60005473ffffffffffffffffffffffffffffffffffffffff163314610277576040517f08c379a000000000000000000000000000000000000000000000000000000000815260206004820152600a60248201527f4f6e6c79204f776e65720000000000000000000000000000000000000000000060448201526064016101a1565b6000805473ffffffffffffffffffffffffffffffffffffffff908116825260016020819052604080842080547fffffffffffffffffffffffffffffffffffffffffffffffffffffffffffffff0090811690915584547fffffffffffffffffffffffff0000000000000000000000000000000000000000169590931694851784559383529290912080549091169091179055565b60005473ffffffffffffffffffffffffffffffffffffffff16331461038b576040517f08c379a000000000000000000000000000000000000000000000000000000000815260206004820152600a60248201527f4f6e6c79204f776e65720000000000000000000000000000000000000000000060448201526064016101a1565b73ffffffffffffffffffffffffffffffffffffffff16600090815260016020819052604090912080547fffffffffffffffffffffffffffffffffffffffffffffffffffffffffffffff00169091179055565b6000602082840312156103ef57600080fd5b813573ffffffffffffffffffffffffffffffffffffffff8116811461041357600080fd5b939250505056fea26469706673582212205a34837e02c85da8fa45ccb9371683f6f771c692363d985e7d54343bb7200d6364736f6c63430008090033",
  "linkReferences": {},
  "deployedLinkReferences": {}
}