{
  "_format": "hh-sol-artifact-1",
  "contractName": "Quiz",
  "sourceName": "src/contracts/quiz/quiz.sol",
  "abi": [
    {
      "inputs": [
        {
          "internalType": "address payable",
          "name": "_operator",
          "type": "address"
        },
        {
          "internalType": "contract ILottery",
          "name": "_lottery",
          "type": "address"
        },
        {
          "internalType": "contract IIntegrateToken",
          "name": "_quizToken",
          "type": "address"
        },
        {
          "internalType": "contract IIntegrateToken",
          "name": "_excitationToken",
          "type": "address"
        },
        {
          "internalType": "contract IDataStorage",
          "name": "_storage",
          "type": "address"
        },
        {
          "internalType": "uint256",
          "name": "_rewardAmount",
          "type": "uint256"
        },
        {
          "internalType": "uint256",
          "name": "_exciteAmount",
          "type": "uint256"
        }
      ],
      "stateMutability": "nonpayable",
      "type": "constructor"
    },
    {
      "anonymous": false,
      "inputs": [
        {
          "indexed": false,
          "internalType": "bytes32",
          "name": "_quizId",
          "type": "bytes32"
        }
      ],
      "name": "Awards",
      "type": "event"
    },
    {
      "anonymous": false,
      "inputs": [
        {
          "indexed": false,
          "internalType": "string",
          "name": "_appId",
          "type": "string"
        },
        {
          "indexed": false,
          "internalType": "uint256",
          "name": "_quizId",
          "type": "uint256"
        },
        {
          "indexed": false,
          "internalType": "int256",
          "name": "_groupId",
          "type": "int256"
        },
        {
          "indexed": false,
          "internalType": "uint256",
          "name": "_botType",
          "type": "uint256"
        },
        {
          "indexed": false,
          "internalType": "string[]",
          "name": "questions",
          "type": "string[]"
        },
        {
          "indexed": false,
          "internalType": "uint256",
          "name": "_rewardAmount",
          "type": "uint256"
        },
        {
          "indexed": false,
          "internalType": "uint256",
          "name": "_startTime",
          "type": "uint256"
        },
        {
          "indexed": false,
          "internalType": "uint256",
          "name": "_activeTime",
          "type": "uint256"
        }
      ],
      "name": "CreateQuiz",
      "type": "event"
    },
    {
      "inputs": [
        {
          "internalType": "string",
          "name": "_appId",
          "type": "string"
        },
        {
          "internalType": "address payable",
          "name": "_newOperator",
          "type": "address"
        }
      ],
      "name": "addAppOperator",
      "outputs": [],
      "stateMutability": "nonpayable",
      "type": "function"
    },
    {
      "inputs": [
        {
          "internalType": "string",
          "name": "_appId",
          "type": "string"
        },
        {
          "internalType": "uint256",
          "name": "_quizId",
          "type": "uint256"
        },
        {
          "internalType": "address[]",
          "name": "_inductees",
          "type": "address[]"
        },
        {
          "internalType": "uint256",
          "name": "_participateNumber",
          "type": "uint256"
        }
      ],
      "name": "addInductees",
      "outputs": [],
      "stateMutability": "nonpayable",
      "type": "function"
    },
    {
      "inputs": [
        {
          "internalType": "string",
          "name": "_appId",
          "type": "string"
        },
        {
          "internalType": "uint256",
          "name": "_quizId",
          "type": "uint256"
        }
      ],
      "name": "awards",
      "outputs": [],
      "stateMutability": "nonpayable",
      "type": "function"
    },
    {
      "inputs": [
        {
          "internalType": "contract IDataStorage",
          "name": "_data",
          "type": "address"
        }
      ],
      "name": "changeDataStorage",
      "outputs": [],
      "stateMutability": "nonpayable",
      "type": "function"
    },
    {
      "inputs": [
        {
          "internalType": "contract IIntegrateToken",
          "name": "_newToken",
          "type": "address"
        }
      ],
      "name": "changeExcitationToken",
      "outputs": [],
      "stateMutability": "nonpayable",
      "type": "function"
    },
    {
      "inputs": [
        {
          "internalType": "uint256",
          "name": "_newAmount",
          "type": "uint256"
        }
      ],
      "name": "changeExciteAmount",
      "outputs": [],
      "stateMutability": "nonpayable",
      "type": "function"
    },
    {
      "inputs": [
        {
          "internalType": "contract ILottery",
          "name": "_newLottery",
          "type": "address"
        }
      ],
      "name": "changeLottery",
      "outputs": [],
      "stateMutability": "nonpayable",
      "type": "function"
    },
    {
      "inputs": [
        {
          "internalType": "address payable",
          "name": "_newOperator",
          "type": "address"
        }
      ],
      "name": "changeOperator",
      "outputs": [],
      "stateMutability": "nonpayable",
      "type": "function"
    },
    {
      "inputs": [
        {
          "internalType": "contract IIntegrateToken",
          "name": "_newToken",
          "type": "address"
        }
      ],
      "name": "changeQuizToken",
      "outputs": [],
      "stateMutability": "nonpayable",
      "type": "function"
    },
    {
      "inputs": [
        {
          "internalType": "uint256",
          "name": "_newAmount",
          "type": "uint256"
        }
      ],
      "name": "changeRewardAmount",
      "outputs": [],
      "stateMutability": "nonpayable",
      "type": "function"
    },
    {
      "inputs": [],
      "name": "correctRewardAmount",
      "outputs": [
        {
          "internalType": "uint256",
          "name": "",
          "type": "uint256"
        }
      ],
      "stateMutability": "view",
      "type": "function"
    },
    {
      "inputs": [
        {
          "internalType": "string",
          "name": "_appId",
          "type": "string"
        },
        {
          "internalType": "uint256",
          "name": "_quizId",
          "type": "uint256"
        },
        {
          "internalType": "int256",
          "name": "_groupId",
          "type": "int256"
        },
        {
          "internalType": "uint256",
          "name": "_botType",
          "type": "uint256"
        },
        {
          "internalType": "string[]",
          "name": "_questions",
          "type": "string[]"
        },
        {
          "internalType": "uint256",
          "name": "_rewardAmount",
          "type": "uint256"
        },
        {
          "internalType": "uint256",
          "name": "_startTime",
          "type": "uint256"
        },
        {
          "internalType": "uint256",
          "name": "_activeTime",
          "type": "uint256"
        },
        {
          "internalType": "string",
          "name": "_title",
          "type": "string"
        },
        {
          "internalType": "string",
          "name": "_photo",
          "type": "string"
        }
      ],
      "name": "createQuiz",
      "outputs": [],
      "stateMutability": "payable",
      "type": "function"
    },
    {
      "inputs": [],
      "name": "dataStorage",
      "outputs": [
        {
          "internalType": "contract IDataStorage",
          "name": "",
          "type": "address"
        }
      ],
      "stateMutability": "view",
      "type": "function"
    },
    {
      "inputs": [
        {
          "internalType": "string",
          "name": "_appId",
          "type": "string"
        },
        {
          "internalType": "uint256",
          "name": "_quizId",
          "type": "uint256"
        },
        {
          "internalType": "int256",
          "name": "_groupId",
          "type": "int256"
        },
        {
          "internalType": "string[]",
          "name": "_questions",
          "type": "string[]"
        },
        {
          "internalType": "uint256",
          "name": "_startTime",
          "type": "uint256"
        },
        {
          "internalType": "uint256",
          "name": "_activeTime",
          "type": "uint256"
        },
        {
          "internalType": "string",
          "name": "_title",
          "type": "string"
        },
        {
          "internalType": "string",
          "name": "_photo",
          "type": "string"
        }
      ],
      "name": "editQuiz",
      "outputs": [],
      "stateMutability": "nonpayable",
      "type": "function"
    },
    {
      "inputs": [],
      "name": "excitationToken",
      "outputs": [
        {
          "internalType": "contract IIntegrateToken",
          "name": "",
          "type": "address"
        }
      ],
      "stateMutability": "view",
      "type": "function"
    },
    {
      "inputs": [],
      "name": "exciteAmount",
      "outputs": [
        {
          "internalType": "uint256",
          "name": "",
          "type": "uint256"
        }
      ],
      "stateMutability": "view",
      "type": "function"
    },
    {
      "inputs": [
        {
          "internalType": "string",
          "name": "_appId",
          "type": "string"
        }
      ],
      "name": "getAppQuizIds",
      "outputs": [
        {
          "internalType": "uint256[]",
          "name": "",
          "type": "uint256[]"
        }
      ],
      "stateMutability": "view",
      "type": "function"
    },
    {
      "inputs": [
        {
          "internalType": "uint256",
          "name": "_quizId",
          "type": "uint256"
        }
      ],
      "name": "getInductees",
      "outputs": [
        {
          "internalType": "address[]",
          "name": "",
          "type": "address[]"
        }
      ],
      "stateMutability": "view",
      "type": "function"
    },
    {
      "inputs": [
        {
          "internalType": "uint256",
          "name": "_quizId",
          "type": "uint256"
        },
        {
          "internalType": "uint256",
          "name": "_index",
          "type": "uint256"
        }
      ],
      "name": "getLotteryResults",
      "outputs": [
        {
          "internalType": "address[]",
          "name": "",
          "type": "address[]"
        }
      ],
      "stateMutability": "view",
      "type": "function"
    },
    {
      "inputs": [
        {
          "internalType": "uint256",
          "name": "_quizId",
          "type": "uint256"
        }
      ],
      "name": "getQuiz",
      "outputs": [
        {
          "components": [
            {
              "internalType": "uint256",
              "name": "id",
              "type": "uint256"
            },
            {
              "internalType": "string",
              "name": "app_id",
              "type": "string"
            },
            {
              "internalType": "string[]",
              "name": "questions",
              "type": "string[]"
            },
            {
              "internalType": "uint256",
              "name": "amount",
              "type": "uint256"
            },
            {
              "internalType": "int256",
              "name": "group",
              "type": "int256"
            },
            {
              "internalType": "uint256",
              "name": "botType",
              "type": "uint256"
            },
            {
              "internalType": "bool",
              "name": "exist",
              "type": "bool"
            },
            {
              "internalType": "bool",
              "name": "over",
              "type": "bool"
            },
            {
              "internalType": "uint256",
              "name": "startTime",
              "type": "uint256"
            },
            {
              "internalType": "uint256",
              "name": "activeTime",
              "type": "uint256"
            },
            {
              "internalType": "string",
              "name": "title",
              "type": "string"
            },
            {
              "internalType": "string",
              "name": "photo",
              "type": "string"
            },
            {
              "internalType": "uint256",
              "name": "participate",
              "type": "uint256"
            }
          ],
          "internalType": "struct IDataStorage.QuizDetail",
          "name": "",
          "type": "tuple"
        }
      ],
      "stateMutability": "view",
      "type": "function"
    },
    {
      "inputs": [
        {
          "internalType": "uint256[]",
          "name": "_ids",
          "type": "uint256[]"
        }
      ],
      "name": "getQuizzes",
      "outputs": [
        {
          "components": [
            {
              "internalType": "uint256",
              "name": "id",
              "type": "uint256"
            },
            {
              "internalType": "string",
              "name": "app_id",
              "type": "string"
            },
            {
              "internalType": "string[]",
              "name": "questions",
              "type": "string[]"
            },
            {
              "internalType": "uint256",
              "name": "amount",
              "type": "uint256"
            },
            {
              "internalType": "int256",
              "name": "group",
              "type": "int256"
            },
            {
              "internalType": "uint256",
              "name": "botType",
              "type": "uint256"
            },
            {
              "internalType": "bool",
              "name": "exist",
              "type": "bool"
            },
            {
              "internalType": "bool",
              "name": "over",
              "type": "bool"
            },
            {
              "internalType": "uint256",
              "name": "startTime",
              "type": "uint256"
            },
            {
              "internalType": "uint256",
              "name": "activeTime",
              "type": "uint256"
            },
            {
              "internalType": "string",
              "name": "title",
              "type": "string"
            },
            {
              "internalType": "string",
              "name": "photo",
              "type": "string"
            },
            {
              "internalType": "uint256",
              "name": "participate",
              "type": "uint256"
            }
          ],
          "internalType": "struct IDataStorage.QuizDetail[]",
          "name": "",
          "type": "tuple[]"
        }
      ],
      "stateMutability": "view",
      "type": "function"
    },
    {
      "inputs": [],
      "name": "getShouldAwardQuizIds",
      "outputs": [
        {
          "internalType": "uint256[]",
          "name": "",
          "type": "uint256[]"
        }
      ],
      "stateMutability": "view",
      "type": "function"
    },
    {
      "inputs": [],
      "name": "lottery",
      "outputs": [
        {
          "internalType": "contract ILottery",
          "name": "",
          "type": "address"
        }
      ],
      "stateMutability": "view",
      "type": "function"
    },
    {
      "inputs": [],
      "name": "operator",
      "outputs": [
        {
          "internalType": "address payable",
          "name": "",
          "type": "address"
        }
      ],
      "stateMutability": "view",
      "type": "function"
    },
    {
      "inputs": [],
      "name": "owner",
      "outputs": [
        {
          "internalType": "address",
          "name": "",
          "type": "address"
        }
      ],
      "stateMutability": "view",
      "type": "function"
    },
    {
      "inputs": [],
      "name": "quizToken",
      "outputs": [
        {
          "internalType": "contract IIntegrateToken",
          "name": "",
          "type": "address"
        }
      ],
      "stateMutability": "view",
      "type": "function"
    },
    {
      "inputs": [
        {
          "internalType": "address",
          "name": "_newOwner",
          "type": "address"
        }
      ],
      "name": "transferOwner",
      "outputs": [],
      "stateMutability": "nonpayable",
      "type": "function"
    }
  ],
  "bytecode": "0x60806040523480156200001157600080fd5b5060405162003ab638038062003ab68339810160408190526200003491620000c5565b60008054336001600160a01b0319918216179091556001805482166001600160a01b03998a161790556003805482169789169790971790965560048054871695881695909517909455600580548616938716939093179092556006805490941694169390931790915560079190915560085562000158565b6001600160a01b0381168114620000c257600080fd5b50565b600080600080600080600060e0888a031215620000e157600080fd5b8751620000ee81620000ac565b60208901519097506200010181620000ac565b60408901519096506200011481620000ac565b60608901519095506200012781620000ac565b60808901519094506200013a81620000ac565b8093505060a0880151915060c0880151905092959891949750929550565b61394e80620001686000396000f3fe6080604052600436106101ac5760003560e01c80638da5cb5b116100ec578063c5d790a51161008a578063dcdb1a6011610064578063dcdb1a601461052f578063e5ee25cf14610545578063ecb4e81014610565578063f3f811221461058557600080fd5b8063c5d790a5146104dc578063d35a8ff8146104fc578063db27e1ab1461050f57600080fd5b8063abc8b107116100c6578063abc8b1071461043e578063b68e71bf14610462578063b93833c31461048f578063ba13a572146104af57600080fd5b80638da5cb5b146103b7578063a3f7e096146103e4578063a772c8f81461041157600080fd5b80634fb2e45d116101595780637ed0b846116101335780637ed0b846146103105780638307173f1461033d5780638870455f1461035d5780638a20d49c1461038a57600080fd5b80634fb2e45d1461027e578063512f8f921461029e578063570ca735146102be57600080fd5b80630c5d5bc31161018a5780630c5d5bc31461021357806327ea21321461023357806331d9a5f31461025357600080fd5b806306394c9b146101b157806308d199f8146101d35780630bd09979146101f3575b600080fd5b3480156101bd57600080fd5b506101d16101cc366004612a47565b6105a5565b005b3480156101df57600080fd5b506101d16101ee366004612c57565b610672565b3480156101ff57600080fd5b506101d161020e366004612d2b565b610b68565b34801561021f57600080fd5b506101d161022e366004612a47565b610c52565b34801561023f57600080fd5b506101d161024e366004612a47565b610d1a565b34801561025f57600080fd5b50610268610de2565b6040516102759190612d7d565b60405180910390f35b34801561028a57600080fd5b506101d1610299366004612a47565b610eac565b3480156102aa57600080fd5b506101d16102b9366004612a47565b610f74565b3480156102ca57600080fd5b506001546102eb9073ffffffffffffffffffffffffffffffffffffffff1681565b60405173ffffffffffffffffffffffffffffffffffffffff9091168152602001610275565b34801561031c57600080fd5b506005546102eb9073ffffffffffffffffffffffffffffffffffffffff1681565b34801561034957600080fd5b506101d1610358366004612dc1565b6110e1565b34801561036957600080fd5b506006546102eb9073ffffffffffffffffffffffffffffffffffffffff1681565b34801561039657600080fd5b506103aa6103a5366004612e94565b6115e6565b6040516102759190612f07565b3480156103c357600080fd5b506000546102eb9073ffffffffffffffffffffffffffffffffffffffff1681565b3480156103f057600080fd5b506104046103ff366004612f1a565b6116b9565b60405161027591906130e7565b34801561041d57600080fd5b5061043161042c3660046130fa565b6117f2565b604051610275919061318b565b34801561044a57600080fd5b5061045460075481565b604051908152602001610275565b34801561046e57600080fd5b506004546102eb9073ffffffffffffffffffffffffffffffffffffffff1681565b34801561049b57600080fd5b506101d16104aa366004612f1a565b6118bb565b3480156104bb57600080fd5b506003546102eb9073ffffffffffffffffffffffffffffffffffffffff1681565b3480156104e857600080fd5b506101d16104f7366004612a47565b611941565b6101d161050a36600461320b565b611a09565b34801561051b57600080fd5b5061026861052a3660046132f4565b612122565b34801561053b57600080fd5b5061045460085481565b34801561055157600080fd5b506101d1610560366004613331565b6121eb565b34801561057157600080fd5b506101d1610580366004612f1a565b6128d7565b34801561059157600080fd5b506103aa6105a0366004612f1a565b61295d565b60005473ffffffffffffffffffffffffffffffffffffffff16331461062b576040517f08c379a000000000000000000000000000000000000000000000000000000000815260206004820152600a60248201527f4f6e6c79204f776e65720000000000000000000000000000000000000000000060448201526064015b60405180910390fd5b600180547fffffffffffffffffffffffff00000000000000000000000000000000000000001673ffffffffffffffffffffffffffffffffffffffff92909216919091179055565b6006546040517fb796e2b0000000000000000000000000000000000000000000000000000000008152899173ffffffffffffffffffffffffffffffffffffffff169063b796e2b0906106ca9084903390600401613376565b60206040518083038186803b1580156106e257600080fd5b505afa1580156106f6573d6000803e3d6000fd5b505050506040513d601f19601f8201168201806040525081019061071a91906133c3565b8061073c575060015473ffffffffffffffffffffffffffffffffffffffff1633145b8061079157503373ffffffffffffffffffffffffffffffffffffffff1660028260405161076991906133de565b9081526040519081900360200190205473ffffffffffffffffffffffffffffffffffffffff16145b806107b3575060005473ffffffffffffffffffffffffffffffffffffffff1633145b610819576040517f08c379a000000000000000000000000000000000000000000000000000000000815260206004820152600a60248201527f4f6e6c792061646d696e000000000000000000000000000000000000000000006044820152606401610622565b8780610881576040517f08c379a000000000000000000000000000000000000000000000000000000000815260206004820152601060248201527f696e76616c6964207175697a49642030000000000000000000000000000000006044820152606401610622565b6006546040517fa3f7e0960000000000000000000000000000000000000000000000000000000081526004810183905273ffffffffffffffffffffffffffffffffffffffff9091169063a3f7e0969060240160006040518083038186803b1580156108eb57600080fd5b505afa1580156108ff573d6000803e3d6000fd5b505050506040513d6000823e601f3d9081017fffffffffffffffffffffffffffffffffffffffffffffffffffffffffffffffe016820160405261094591908101906135ea565b60c001516109af576040517f08c379a000000000000000000000000000000000000000000000000000000000815260206004820152601060248201527f6e6f6e6578697374656e74207175697a000000000000000000000000000000006044820152606401610622565b6006546040517fa3f7e096000000000000000000000000000000000000000000000000000000008152600481018b905260009173ffffffffffffffffffffffffffffffffffffffff169063a3f7e0969060240160006040518083038186803b158015610a1a57600080fd5b505afa158015610a2e573d6000803e3d6000fd5b505050506040513d6000823e601f3d9081017fffffffffffffffffffffffffffffffffffffffffffffffffffffffffffffffe0168201604052610a7491908101906135ea565b90508815610a8457608081018990525b875115610a9357604081018890525b8615610aa25761010081018790525b8515610ab15761012081018690525b845115610ac15761014081018590525b835115610ad15761016081018490525b6006546040517f01354e3100000000000000000000000000000000000000000000000000000000815273ffffffffffffffffffffffffffffffffffffffff909116906301354e3190610b29908e90859060040161361f565b600060405180830381600087803b158015610b4357600080fd5b505af1158015610b57573d6000803e3d6000fd5b505050505050505050505050505050565b60005473ffffffffffffffffffffffffffffffffffffffff163314610be9576040517f08c379a000000000000000000000000000000000000000000000000000000000815260206004820152600a60248201527f4f6e6c79204f776e6572000000000000000000000000000000000000000000006044820152606401610622565b80600283604051610bfa91906133de565b908152604051908190036020019020805473ffffffffffffffffffffffffffffffffffffffff929092167fffffffffffffffffffffffff00000000000000000000000000000000000000009092169190911790555050565b60005473ffffffffffffffffffffffffffffffffffffffff163314610cd3576040517f08c379a000000000000000000000000000000000000000000000000000000000815260206004820152600a60248201527f4f6e6c79204f776e6572000000000000000000000000000000000000000000006044820152606401610622565b600680547fffffffffffffffffffffffff00000000000000000000000000000000000000001673ffffffffffffffffffffffffffffffffffffffff92909216919091179055565b60005473ffffffffffffffffffffffffffffffffffffffff163314610d9b576040517f08c379a000000000000000000000000000000000000000000000000000000000815260206004820152600a60248201527f4f6e6c79204f776e6572000000000000000000000000000000000000000000006044820152606401610622565b600480547fffffffffffffffffffffffff00000000000000000000000000000000000000001673ffffffffffffffffffffffffffffffffffffffff92909216919091179055565b600654604080517f31d9a5f3000000000000000000000000000000000000000000000000000000008152905160609273ffffffffffffffffffffffffffffffffffffffff16916331d9a5f3916004808301926000929190829003018186803b158015610e4d57600080fd5b505afa158015610e61573d6000803e3d6000fd5b505050506040513d6000823e601f3d9081017fffffffffffffffffffffffffffffffffffffffffffffffffffffffffffffffe0168201604052610ea7919081019061364d565b905090565b60005473ffffffffffffffffffffffffffffffffffffffff163314610f2d576040517f08c379a000000000000000000000000000000000000000000000000000000000815260206004820152600a60248201527f4f6e6c79204f776e6572000000000000000000000000000000000000000000006044820152606401610622565b600080547fffffffffffffffffffffffff00000000000000000000000000000000000000001673ffffffffffffffffffffffffffffffffffffffff92909216919091179055565b60005473ffffffffffffffffffffffffffffffffffffffff163314610ff5576040517f08c379a000000000000000000000000000000000000000000000000000000000815260206004820152600a60248201527f4f6e6c79204f776e6572000000000000000000000000000000000000000000006044820152606401610622565b60035473ffffffffffffffffffffffffffffffffffffffff161561109a576003546040517fc7d7b66000000000000000000000000000000000000000000000000000000000815273ffffffffffffffffffffffffffffffffffffffff80841660048301528392169063c7d7b66090602401600060405180830381600087803b15801561108057600080fd5b505af1158015611094573d6000803e3d6000fd5b50505050505b600380547fffffffffffffffffffffffff00000000000000000000000000000000000000001673ffffffffffffffffffffffffffffffffffffffff92909216919091179055565b8280611149576040517f08c379a000000000000000000000000000000000000000000000000000000000815260206004820152601060248201527f696e76616c6964207175697a49642030000000000000000000000000000000006044820152606401610622565b6006546040517fa3f7e0960000000000000000000000000000000000000000000000000000000081526004810183905273ffffffffffffffffffffffffffffffffffffffff9091169063a3f7e0969060240160006040518083038186803b1580156111b357600080fd5b505afa1580156111c7573d6000803e3d6000fd5b505050506040513d6000823e601f3d9081017fffffffffffffffffffffffffffffffffffffffffffffffffffffffffffffffe016820160405261120d91908101906135ea565b60c00151611277576040517f08c379a000000000000000000000000000000000000000000000000000000000815260206004820152601060248201527f6e6f6e6578697374656e74207175697a000000000000000000000000000000006044820152606401610622565b6006546040517fb796e2b0000000000000000000000000000000000000000000000000000000008152869173ffffffffffffffffffffffffffffffffffffffff169063b796e2b0906112cf9084903390600401613376565b60206040518083038186803b1580156112e757600080fd5b505afa1580156112fb573d6000803e3d6000fd5b505050506040513d601f19601f8201168201806040525081019061131f91906133c3565b80611341575060015473ffffffffffffffffffffffffffffffffffffffff1633145b8061139657503373ffffffffffffffffffffffffffffffffffffffff1660028260405161136e91906133de565b9081526040519081900360200190205473ffffffffffffffffffffffffffffffffffffffff16145b806113b8575060005473ffffffffffffffffffffffffffffffffffffffff1633145b61141e576040517f08c379a000000000000000000000000000000000000000000000000000000000815260206004820152600a60248201527f4f6e6c792061646d696e000000000000000000000000000000000000000000006044820152606401610622565b6006546040517fa3f7e0960000000000000000000000000000000000000000000000000000000081526004810187905260009173ffffffffffffffffffffffffffffffffffffffff169063a3f7e0969060240160006040518083038186803b15801561148957600080fd5b505afa15801561149d573d6000803e3d6000fd5b505050506040513d6000823e601f3d9081017fffffffffffffffffffffffffffffffffffffffffffffffffffffffffffffffe01682016040526114e391908101906135ea565b90508060e0015115611551576040517f08c379a000000000000000000000000000000000000000000000000000000000815260206004820152600c60248201527f7175697a206973206f76657200000000000000000000000000000000000000006044820152606401610622565b6006546040517f766be05c00000000000000000000000000000000000000000000000000000000815273ffffffffffffffffffffffffffffffffffffffff9091169063766be05c906115ab908990899089906004016136d3565b600060405180830381600087803b1580156115c557600080fd5b505af11580156115d9573d6000803e3d6000fd5b5050505050505050505050565b6006546040517fa890cb3a000000000000000000000000000000000000000000000000000000008152600481018490526024810183905260609173ffffffffffffffffffffffffffffffffffffffff169063a890cb3a9060440160006040518083038186803b15801561165857600080fd5b505afa15801561166c573d6000803e3d6000fd5b505050506040513d6000823e601f3d9081017fffffffffffffffffffffffffffffffffffffffffffffffffffffffffffffffe01682016040526116b291908101906136fc565b9392505050565b611728604051806101a0016040528060008152602001606081526020016060815260200160008152602001600081526020016000815260200160001515815260200160001515815260200160008152602001600081526020016060815260200160608152602001600081525090565b6006546040517fa3f7e0960000000000000000000000000000000000000000000000000000000081526004810184905273ffffffffffffffffffffffffffffffffffffffff9091169063a3f7e0969060240160006040518083038186803b15801561179257600080fd5b505afa1580156117a6573d6000803e3d6000fd5b505050506040513d6000823e601f3d9081017fffffffffffffffffffffffffffffffffffffffffffffffffffffffffffffffe01682016040526117ec91908101906135ea565b92915050565b6006546040517fa772c8f800000000000000000000000000000000000000000000000000000000815260609173ffffffffffffffffffffffffffffffffffffffff169063a772c8f890611849908590600401612d7d565b60006040518083038186803b15801561186157600080fd5b505afa158015611875573d6000803e3d6000fd5b505050506040513d6000823e601f3d9081017fffffffffffffffffffffffffffffffffffffffffffffffffffffffffffffffe01682016040526117ec919081019061378b565b60005473ffffffffffffffffffffffffffffffffffffffff16331461193c576040517f08c379a000000000000000000000000000000000000000000000000000000000815260206004820152600a60248201527f4f6e6c79204f776e6572000000000000000000000000000000000000000000006044820152606401610622565b600755565b60005473ffffffffffffffffffffffffffffffffffffffff1633146119c2576040517f08c379a000000000000000000000000000000000000000000000000000000000815260206004820152600a60248201527f4f6e6c79204f776e6572000000000000000000000000000000000000000000006044820152606401610622565b600580547fffffffffffffffffffffffff00000000000000000000000000000000000000001673ffffffffffffffffffffffffffffffffffffffff92909216919091179055565b6006546040517fb796e2b00000000000000000000000000000000000000000000000000000000081528b9173ffffffffffffffffffffffffffffffffffffffff169063b796e2b090611a619084903390600401613376565b60206040518083038186803b158015611a7957600080fd5b505afa158015611a8d573d6000803e3d6000fd5b505050506040513d601f19601f82011682018060405250810190611ab191906133c3565b80611ad3575060015473ffffffffffffffffffffffffffffffffffffffff1633145b80611b2857503373ffffffffffffffffffffffffffffffffffffffff16600282604051611b0091906133de565b9081526040519081900360200190205473ffffffffffffffffffffffffffffffffffffffff16145b80611b4a575060005473ffffffffffffffffffffffffffffffffffffffff1633145b611bb0576040517f08c379a000000000000000000000000000000000000000000000000000000000815260206004820152600a60248201527f4f6e6c792061646d696e000000000000000000000000000000000000000000006044820152606401610622565b89611c17576040517f08c379a000000000000000000000000000000000000000000000000000000000815260206004820152601060248201527f696e76616c6964207175697a49642030000000000000000000000000000000006044820152606401610622565b6006546040517fa3f7e096000000000000000000000000000000000000000000000000000000008152600481018c905260009173ffffffffffffffffffffffffffffffffffffffff169063a3f7e0969060240160006040518083038186803b158015611c8257600080fd5b505afa158015611c96573d6000803e3d6000fd5b505050506040513d6000823e601f3d9081017fffffffffffffffffffffffffffffffffffffffffffffffffffffffffffffffe0168201604052611cdc91908101906135ea565b90508060c0015115611d4a576040517f08c379a000000000000000000000000000000000000000000000000000000000815260206004820152600a60248201527f6578697374207175697a000000000000000000000000000000000000000000006044820152606401610622565b6007549650600060028d604051611d6191906133de565b9081526040519081900360200190205460015473ffffffffffffffffffffffffffffffffffffffff918216925033911614801590611db7575060005473ffffffffffffffffffffffffffffffffffffffff163314155b15611f3c5760003411611e26576040517f08c379a000000000000000000000000000000000000000000000000000000000815260206004820152601960248201527f796f752073686f756c642070726570617920666f7220676173000000000000006044820152606401610622565b73ffffffffffffffffffffffffffffffffffffffff811615611ef45760003411611eac576040517f08c379a000000000000000000000000000000000000000000000000000000000815260206004820152601960248201527f796f752073686f756c642070726570617920666f7220676173000000000000006044820152606401610622565b60405173ffffffffffffffffffffffffffffffffffffffff8216903480156108fc02916000818181858888f19350505050158015611eee573d6000803e3d6000fd5b50611f3c565b60015460405173ffffffffffffffffffffffffffffffffffffffff909116903480156108fc02916000818181858888f19350505050158015611f3a573d6000803e3d6000fd5b505b8b8260000181815250508c8260200181905250878260600181815250508882604001819052508a82608001818152505060018260c0019015159081151581525050898260a0018181525050848261014001819052508382610160018190525086826101000181815250508582610120018181525050600660009054906101000a900473ffffffffffffffffffffffffffffffffffffffff1673ffffffffffffffffffffffffffffffffffffffff166301354e318e846040518363ffffffff1660e01b815260040161200e92919061361f565b600060405180830381600087803b15801561202857600080fd5b505af115801561203c573d6000803e3d6000fd5b50506005546008546040517f40c10f19000000000000000000000000000000000000000000000000000000008152336004820152602481019190915273ffffffffffffffffffffffffffffffffffffffff90911692506340c10f199150604401600060405180830381600087803b1580156120b657600080fd5b505af11580156120ca573d6000803e3d6000fd5b505050507f12d6be7d5b357e475ec38073de7e8d794f6d75a7fa0088146043f22255067e278d8d8d8d8d8d8d8d60405161210b98979695949392919061383c565b60405180910390a150505050505050505050505050565b6006546040517fdb27e1ab00000000000000000000000000000000000000000000000000000000815260609173ffffffffffffffffffffffffffffffffffffffff169063db27e1ab90612179908590600401613897565b60006040518083038186803b15801561219157600080fd5b505afa1580156121a5573d6000803e3d6000fd5b505050506040513d6000823e601f3d9081017fffffffffffffffffffffffffffffffffffffffffffffffffffffffffffffffe01682016040526117ec919081019061364d565b8080612253576040517f08c379a000000000000000000000000000000000000000000000000000000000815260206004820152601060248201527f696e76616c6964207175697a49642030000000000000000000000000000000006044820152606401610622565b6006546040517fa3f7e0960000000000000000000000000000000000000000000000000000000081526004810183905273ffffffffffffffffffffffffffffffffffffffff9091169063a3f7e0969060240160006040518083038186803b1580156122bd57600080fd5b505afa1580156122d1573d6000803e3d6000fd5b505050506040513d6000823e601f3d9081017fffffffffffffffffffffffffffffffffffffffffffffffffffffffffffffffe016820160405261231791908101906135ea565b60c00151612381576040517f08c379a000000000000000000000000000000000000000000000000000000000815260206004820152601060248201527f6e6f6e6578697374656e74207175697a000000000000000000000000000000006044820152606401610622565b6006546040517fb796e2b0000000000000000000000000000000000000000000000000000000008152849173ffffffffffffffffffffffffffffffffffffffff169063b796e2b0906123d99084903390600401613376565b60206040518083038186803b1580156123f157600080fd5b505afa158015612405573d6000803e3d6000fd5b505050506040513d601f19601f8201168201806040525081019061242991906133c3565b8061244b575060015473ffffffffffffffffffffffffffffffffffffffff1633145b806124a057503373ffffffffffffffffffffffffffffffffffffffff1660028260405161247891906133de565b9081526040519081900360200190205473ffffffffffffffffffffffffffffffffffffffff16145b806124c2575060005473ffffffffffffffffffffffffffffffffffffffff1633145b612528576040517f08c379a000000000000000000000000000000000000000000000000000000000815260206004820152600a60248201527f4f6e6c792061646d696e000000000000000000000000000000000000000000006044820152606401610622565b6006546040517fa3f7e0960000000000000000000000000000000000000000000000000000000081526004810185905260009173ffffffffffffffffffffffffffffffffffffffff169063a3f7e0969060240160006040518083038186803b15801561259357600080fd5b505afa1580156125a7573d6000803e3d6000fd5b505050506040513d6000823e601f3d9081017fffffffffffffffffffffffffffffffffffffffffffffffffffffffffffffffe01682016040526125ed91908101906135ea565b90508060e001511561265b576040517f08c379a000000000000000000000000000000000000000000000000000000000815260206004820152600c60248201527f7175697a206973206f76657200000000000000000000000000000000000000006044820152606401610622565b6006546040517ff3f811220000000000000000000000000000000000000000000000000000000081526004810186905260009173ffffffffffffffffffffffffffffffffffffffff169063f3f811229060240160006040518083038186803b1580156126c657600080fd5b505afa1580156126da573d6000803e3d6000fd5b505050506040513d6000823e601f3d9081017fffffffffffffffffffffffffffffffffffffffffffffffffffffffffffffffe016820160405261272091908101906136fc565b905060005b81518110156127f557600454825173ffffffffffffffffffffffffffffffffffffffff909116906340c10f1990849084908110612764576127646138aa565b602002602001015185606001516040518363ffffffff1660e01b81526004016127af92919073ffffffffffffffffffffffffffffffffffffffff929092168252602082015260400190565b600060405180830381600087803b1580156127c957600080fd5b505af11580156127dd573d6000803e3d6000fd5b505050506001816127ee91906138d9565b9050612725565b600160e08401526006546040517f828dd9670000000000000000000000000000000000000000000000000000000081526004810188905273ffffffffffffffffffffffffffffffffffffffff9091169063828dd96790602401600060405180830381600087803b15801561286857600080fd5b505af115801561287c573d6000803e3d6000fd5b50506003546040517f63e71afa000000000000000000000000000000000000000000000000000000008152600481018a905273ffffffffffffffffffffffffffffffffffffffff90911692506363e71afa91506024016115ab565b60005473ffffffffffffffffffffffffffffffffffffffff163314612958576040517f08c379a000000000000000000000000000000000000000000000000000000000815260206004820152600a60248201527f4f6e6c79204f776e6572000000000000000000000000000000000000000000006044820152606401610622565b600855565b6006546040517ff3f811220000000000000000000000000000000000000000000000000000000081526004810183905260609173ffffffffffffffffffffffffffffffffffffffff169063f3f811229060240160006040518083038186803b1580156129c857600080fd5b505afa1580156129dc573d6000803e3d6000fd5b505050506040513d6000823e601f3d9081017fffffffffffffffffffffffffffffffffffffffffffffffffffffffffffffffe01682016040526117ec91908101906136fc565b73ffffffffffffffffffffffffffffffffffffffff81168114612a4457600080fd5b50565b600060208284031215612a5957600080fd5b81356116b281612a22565b7f4e487b7100000000000000000000000000000000000000000000000000000000600052604160045260246000fd5b6040516101a0810167ffffffffffffffff81118282101715612ab757612ab7612a64565b60405290565b604051601f82017fffffffffffffffffffffffffffffffffffffffffffffffffffffffffffffffe016810167ffffffffffffffff81118282101715612b0457612b04612a64565b604052919050565b600067ffffffffffffffff821115612b2657612b26612a64565b50601f017fffffffffffffffffffffffffffffffffffffffffffffffffffffffffffffffe01660200190565b600082601f830112612b6357600080fd5b8135612b76612b7182612b0c565b612abd565b818152846020838601011115612b8b57600080fd5b816020850160208301376000918101602001919091529392505050565b600067ffffffffffffffff821115612bc257612bc2612a64565b5060051b60200190565b600082601f830112612bdd57600080fd5b81356020612bed612b7183612ba8565b82815260059290921b84018101918181019086841115612c0c57600080fd5b8286015b84811015612c4c57803567ffffffffffffffff811115612c305760008081fd5b612c3e8986838b0101612b52565b845250918301918301612c10565b509695505050505050565b600080600080600080600080610100898b031215612c7457600080fd5b883567ffffffffffffffff80821115612c8c57600080fd5b612c988c838d01612b52565b995060208b0135985060408b0135975060608b0135915080821115612cbc57600080fd5b612cc88c838d01612bcc565b965060808b0135955060a08b0135945060c08b0135915080821115612cec57600080fd5b612cf88c838d01612b52565b935060e08b0135915080821115612d0e57600080fd5b50612d1b8b828c01612b52565b9150509295985092959890939650565b60008060408385031215612d3e57600080fd5b823567ffffffffffffffff811115612d5557600080fd5b612d6185828601612b52565b9250506020830135612d7281612a22565b809150509250929050565b6020808252825182820181905260009190848201906040850190845b81811015612db557835183529284019291840191600101612d99565b50909695505050505050565b60008060008060808587031215612dd757600080fd5b843567ffffffffffffffff80821115612def57600080fd5b612dfb88838901612b52565b955060209150818701359450604087013581811115612e1957600080fd5b87019050601f81018813612e2c57600080fd5b8035612e3a612b7182612ba8565b81815260059190911b8201830190838101908a831115612e5957600080fd5b928401925b82841015612e80578335612e7181612a22565b82529284019290840190612e5e565b979a96995096976060013596505050505050565b60008060408385031215612ea757600080fd5b50508035926020909101359150565b600081518084526020808501945080840160005b83811015612efc57815173ffffffffffffffffffffffffffffffffffffffff1687529582019590820190600101612eca565b509495945050505050565b6020815260006116b26020830184612eb6565b600060208284031215612f2c57600080fd5b5035919050565b60005b83811015612f4e578181015183820152602001612f36565b83811115612f5d576000848401525b50505050565b60008151808452612f7b816020860160208601612f33565b601f017fffffffffffffffffffffffffffffffffffffffffffffffffffffffffffffffe0169290920160200192915050565b600081518084526020808501808196508360051b8101915082860160005b85811015612ff5578284038952612fe3848351612f63565b98850198935090840190600101612fcb565b5091979650505050505050565b60006101a082518452602083015181602086015261302282860182612f63565b9150506040830151848203604086015261303c8282612fad565b915050606083015160608501526080830151608085015260a083015160a085015260c083015161307060c086018215159052565b5060e083015161308460e086018215159052565b506101008381015190850152610120808401519085015261014080840151858303828701526130b38382612f63565b9250505061016080840151858303828701526130cf8382612f63565b61018095860151969095019590955250919392505050565b6020815260006116b26020830184613002565b6000602080838503121561310d57600080fd5b823567ffffffffffffffff81111561312457600080fd5b8301601f8101851361313557600080fd5b8035613143612b7182612ba8565b81815260059190911b8201830190838101908783111561316257600080fd5b928401925b8284101561318057833582529284019290840190613167565b979650505050505050565b6000602080830181845280855180835260408601915060408160051b870101925083870160005b828110156131fe577fffffffffffffffffffffffffffffffffffffffffffffffffffffffffffffffc08886030184526131ec858351613002565b945092850192908501906001016131b2565b5092979650505050505050565b6000806000806000806000806000806101408b8d03121561322b57600080fd5b8a3567ffffffffffffffff8082111561324357600080fd5b61324f8e838f01612b52565b9b5060208d01359a5060408d0135995060608d0135985060808d013591508082111561327a57600080fd5b6132868e838f01612bcc565b975060a08d0135965060c08d0135955060e08d013594506101008d01359150808211156132b257600080fd5b6132be8e838f01612b52565b93506101208d01359150808211156132d557600080fd5b506132e28d828e01612b52565b9150509295989b9194979a5092959850565b60006020828403121561330657600080fd5b813567ffffffffffffffff81111561331d57600080fd5b61332984828501612b52565b949350505050565b6000806040838503121561334457600080fd5b823567ffffffffffffffff81111561335b57600080fd5b61336785828601612b52565b95602094909401359450505050565b6040815260006133896040830185612f63565b905073ffffffffffffffffffffffffffffffffffffffff831660208301529392505050565b805180151581146133be57600080fd5b919050565b6000602082840312156133d557600080fd5b6116b2826133ae565b600082516133f0818460208701612f33565b9190910192915050565b600082601f83011261340b57600080fd5b8151613419612b7182612b0c565b81815284602083860101111561342e57600080fd5b613329826020830160208701612f33565b600082601f83011261345057600080fd5b81516020613460612b7183612ba8565b82815260059290921b8401810191818101908684111561347f57600080fd5b8286015b84811015612c4c57805167ffffffffffffffff8111156134a35760008081fd5b6134b18986838b01016133fa565b845250918301918301613483565b60006101a082840312156134d257600080fd5b6134da612a93565b905081518152602082015167ffffffffffffffff808211156134fb57600080fd5b613507858386016133fa565b6020840152604084015191508082111561352057600080fd5b61352c8583860161343f565b6040840152606084015160608401526080840151608084015260a084015160a084015261355b60c085016133ae565b60c084015261356c60e085016133ae565b60e084015261010084810151908401526101208085015190840152610140808501519092508181111561359e57600080fd5b6135aa868287016133fa565b8385015250610160915081840151818111156135c557600080fd5b6135d1868287016133fa565b8385015250505061018080830151818301525092915050565b6000602082840312156135fc57600080fd5b815167ffffffffffffffff81111561361357600080fd5b613329848285016134bf565b6040815260006136326040830185612f63565b82810360208401526136448185613002565b95945050505050565b6000602080838503121561366057600080fd5b825167ffffffffffffffff81111561367757600080fd5b8301601f8101851361368857600080fd5b8051613696612b7182612ba8565b81815260059190911b820183019083810190878311156136b557600080fd5b928401925b82841015613180578351825292840192908401906136ba565b8381526060602082015260006136ec6060830185612eb6565b9050826040830152949350505050565b6000602080838503121561370f57600080fd5b825167ffffffffffffffff81111561372657600080fd5b8301601f8101851361373757600080fd5b8051613745612b7182612ba8565b81815260059190911b8201830190838101908783111561376457600080fd5b928401925b8284101561318057835161377c81612a22565b82529284019290840190613769565b6000602080838503121561379e57600080fd5b825167ffffffffffffffff808211156137b657600080fd5b818501915085601f8301126137ca57600080fd5b81516137d8612b7182612ba8565b81815260059190911b830184019084810190888311156137f757600080fd5b8585015b8381101561382f578051858111156138135760008081fd5b6138218b89838a01016134bf565b8452509186019186016137fb565b5098975050505050505050565b60006101008083526138508184018c612f63565b905089602084015288604084015287606084015282810360808401526138768188612fad565b60a0840196909652505060c081019290925260e09091015295945050505050565b6020815260006116b26020830184612f63565b7f4e487b7100000000000000000000000000000000000000000000000000000000600052603260045260246000fd5b60008219821115613913577f4e487b7100000000000000000000000000000000000000000000000000000000600052601160045260246000fd5b50019056fea26469706673582212204f03737e8c27f24c70b42395d56810fe038aa9f5f47bff69ad843540331d592564736f6c63430008090033",
  "linkReferences": {},
  "deployedLinkReferences": {}
}