{
  "_format": "hh-sol-artifact-1",
  "contractName": "Quiz",
  "sourceName": "src/contracts/quiz/quiz.sol",
  "abi": [
    {
      "inputs": [
        {
          "internalType": "address payable",
          "name": "_operator",
          "type": "address"
        },
        {
          "internalType": "contract ILottery",
          "name": "_lottery",
          "type": "address"
        },
        {
          "internalType": "contract IIntegrateToken",
          "name": "_quizToken",
          "type": "address"
        },
        {
          "internalType": "contract IIntegrateToken",
          "name": "_excitationToken",
          "type": "address"
        },
        {
          "internalType": "contract IDataStorage",
          "name": "_storage",
          "type": "address"
        },
        {
          "internalType": "uint256",
          "name": "_rewardAmount",
          "type": "uint256"
        },
        {
          "internalType": "uint256",
          "name": "_exciteAmount",
          "type": "uint256"
        }
      ],
      "stateMutability": "nonpayable",
      "type": "constructor"
    },
    {
      "anonymous": false,
      "inputs": [
        {
          "indexed": false,
          "internalType": "bytes32",
          "name": "_quizId",
          "type": "bytes32"
        }
      ],
      "name": "Awards",
      "type": "event"
    },
    {
      "anonymous": false,
      "inputs": [
        {
          "indexed": false,
          "internalType": "string",
          "name": "_appId",
          "type": "string"
        },
        {
          "indexed": false,
          "internalType": "uint256",
          "name": "_quizId",
          "type": "uint256"
        },
        {
          "indexed": false,
          "internalType": "int256",
          "name": "_groupId",
          "type": "int256"
        },
        {
          "indexed": false,
          "internalType": "uint256",
          "name": "_botType",
          "type": "uint256"
        },
        {
          "indexed": false,
          "internalType": "string[]",
          "name": "questions",
          "type": "string[]"
        },
        {
          "indexed": false,
          "internalType": "uint256",
          "name": "_rewardAmount",
          "type": "uint256"
        },
        {
          "indexed": false,
          "internalType": "uint256",
          "name": "_startTime",
          "type": "uint256"
        },
        {
          "indexed": false,
          "internalType": "uint256",
          "name": "_activeTime",
          "type": "uint256"
        }
      ],
      "name": "CreateQuiz",
      "type": "event"
    },
    {
      "inputs": [
        {
          "internalType": "string",
          "name": "_appId",
          "type": "string"
        },
        {
          "internalType": "address payable",
          "name": "_newOperator",
          "type": "address"
        }
      ],
      "name": "addAppOperator",
      "outputs": [],
      "stateMutability": "nonpayable",
      "type": "function"
    },
    {
      "inputs": [
        {
          "internalType": "string",
          "name": "_appId",
          "type": "string"
        },
        {
          "internalType": "uint256",
          "name": "_quizId",
          "type": "uint256"
        },
        {
          "internalType": "address[]",
          "name": "_inductees",
          "type": "address[]"
        },
        {
          "internalType": "uint256",
          "name": "_participateNumber",
          "type": "uint256"
        }
      ],
      "name": "addInductees",
      "outputs": [],
      "stateMutability": "nonpayable",
      "type": "function"
    },
    {
      "inputs": [
        {
          "internalType": "string",
          "name": "",
          "type": "string"
        }
      ],
      "name": "appCats",
      "outputs": [
        {
          "internalType": "contract ICAT",
          "name": "",
          "type": "address"
        }
      ],
      "stateMutability": "view",
      "type": "function"
    },
    {
      "inputs": [
        {
          "internalType": "string",
          "name": "_appId",
          "type": "string"
        },
        {
          "internalType": "uint256",
          "name": "_quizId",
          "type": "uint256"
        }
      ],
      "name": "awards",
      "outputs": [],
      "stateMutability": "nonpayable",
      "type": "function"
    },
    {
      "inputs": [
        {
          "internalType": "contract IDataStorage",
          "name": "_data",
          "type": "address"
        }
      ],
      "name": "changeDataStorage",
      "outputs": [],
      "stateMutability": "nonpayable",
      "type": "function"
    },
    {
      "inputs": [
        {
          "internalType": "contract IIntegrateToken",
          "name": "_newToken",
          "type": "address"
        }
      ],
      "name": "changeExcitationToken",
      "outputs": [],
      "stateMutability": "nonpayable",
      "type": "function"
    },
    {
      "inputs": [
        {
          "internalType": "uint256",
          "name": "_newAmount",
          "type": "uint256"
        }
      ],
      "name": "changeExciteAmount",
      "outputs": [],
      "stateMutability": "nonpayable",
      "type": "function"
    },
    {
      "inputs": [
        {
          "internalType": "contract ILottery",
          "name": "_newLottery",
          "type": "address"
        }
      ],
      "name": "changeLottery",
      "outputs": [],
      "stateMutability": "nonpayable",
      "type": "function"
    },
    {
      "inputs": [
        {
          "internalType": "address payable",
          "name": "_newOperator",
          "type": "address"
        }
      ],
      "name": "changeOperator",
      "outputs": [],
      "stateMutability": "nonpayable",
      "type": "function"
    },
    {
      "inputs": [
        {
          "internalType": "contract IIntegrateToken",
          "name": "_newToken",
          "type": "address"
        }
      ],
      "name": "changeQuizToken",
      "outputs": [],
      "stateMutability": "nonpayable",
      "type": "function"
    },
    {
      "inputs": [
        {
          "internalType": "uint256",
          "name": "_newAmount",
          "type": "uint256"
        }
      ],
      "name": "changeRewardAmount",
      "outputs": [],
      "stateMutability": "nonpayable",
      "type": "function"
    },
    {
      "inputs": [],
      "name": "correctRewardAmount",
      "outputs": [
        {
          "internalType": "uint256",
          "name": "",
          "type": "uint256"
        }
      ],
      "stateMutability": "view",
      "type": "function"
    },
    {
      "inputs": [
        {
          "internalType": "string",
          "name": "_appId",
          "type": "string"
        },
        {
          "internalType": "uint256",
          "name": "_quizId",
          "type": "uint256"
        },
        {
          "internalType": "int256",
          "name": "_groupId",
          "type": "int256"
        },
        {
          "internalType": "uint256",
          "name": "_botType",
          "type": "uint256"
        },
        {
          "internalType": "string[]",
          "name": "_questions",
          "type": "string[]"
        },
        {
          "internalType": "uint256",
          "name": "_rewardAmount",
          "type": "uint256"
        },
        {
          "internalType": "uint256",
          "name": "_startTime",
          "type": "uint256"
        },
        {
          "internalType": "uint256",
          "name": "_activeTime",
          "type": "uint256"
        },
        {
          "internalType": "string",
          "name": "_title",
          "type": "string"
        },
        {
          "internalType": "string",
          "name": "_photo",
          "type": "string"
        }
      ],
      "name": "createQuiz",
      "outputs": [],
      "stateMutability": "payable",
      "type": "function"
    },
    {
      "inputs": [],
      "name": "dataStorage",
      "outputs": [
        {
          "internalType": "contract IDataStorage",
          "name": "",
          "type": "address"
        }
      ],
      "stateMutability": "view",
      "type": "function"
    },
    {
      "inputs": [
        {
          "internalType": "string",
          "name": "_appId",
          "type": "string"
        },
        {
          "internalType": "uint256",
          "name": "_quizId",
          "type": "uint256"
        },
        {
          "internalType": "int256",
          "name": "_groupId",
          "type": "int256"
        },
        {
          "internalType": "string[]",
          "name": "_questions",
          "type": "string[]"
        },
        {
          "internalType": "uint256",
          "name": "_startTime",
          "type": "uint256"
        },
        {
          "internalType": "uint256",
          "name": "_activeTime",
          "type": "uint256"
        },
        {
          "internalType": "string",
          "name": "_title",
          "type": "string"
        },
        {
          "internalType": "string",
          "name": "_photo",
          "type": "string"
        }
      ],
      "name": "editQuiz",
      "outputs": [],
      "stateMutability": "nonpayable",
      "type": "function"
    },
    {
      "inputs": [],
      "name": "excitationToken",
      "outputs": [
        {
          "internalType": "contract IIntegrateToken",
          "name": "",
          "type": "address"
        }
      ],
      "stateMutability": "view",
      "type": "function"
    },
    {
      "inputs": [],
      "name": "exciteAmount",
      "outputs": [
        {
          "internalType": "uint256",
          "name": "",
          "type": "uint256"
        }
      ],
      "stateMutability": "view",
      "type": "function"
    },
    {
      "inputs": [
        {
          "internalType": "string",
          "name": "_appId",
          "type": "string"
        }
      ],
      "name": "getAppQuizIds",
      "outputs": [
        {
          "internalType": "uint256[]",
          "name": "",
          "type": "uint256[]"
        }
      ],
      "stateMutability": "view",
      "type": "function"
    },
    {
      "inputs": [
        {
          "internalType": "uint256",
          "name": "_quizId",
          "type": "uint256"
        }
      ],
      "name": "getInductees",
      "outputs": [
        {
          "internalType": "address[]",
          "name": "",
          "type": "address[]"
        }
      ],
      "stateMutability": "view",
      "type": "function"
    },
    {
      "inputs": [
        {
          "internalType": "uint256",
          "name": "_quizId",
          "type": "uint256"
        },
        {
          "internalType": "uint256",
          "name": "_index",
          "type": "uint256"
        }
      ],
      "name": "getLotteryResults",
      "outputs": [
        {
          "internalType": "address[]",
          "name": "",
          "type": "address[]"
        }
      ],
      "stateMutability": "view",
      "type": "function"
    },
    {
      "inputs": [
        {
          "internalType": "uint256",
          "name": "_quizId",
          "type": "uint256"
        }
      ],
      "name": "getQuiz",
      "outputs": [
        {
          "components": [
            {
              "internalType": "uint256",
              "name": "id",
              "type": "uint256"
            },
            {
              "internalType": "string",
              "name": "app_id",
              "type": "string"
            },
            {
              "internalType": "string[]",
              "name": "questions",
              "type": "string[]"
            },
            {
              "internalType": "uint256",
              "name": "amount",
              "type": "uint256"
            },
            {
              "internalType": "int256",
              "name": "group",
              "type": "int256"
            },
            {
              "internalType": "uint256",
              "name": "botType",
              "type": "uint256"
            },
            {
              "internalType": "bool",
              "name": "exist",
              "type": "bool"
            },
            {
              "internalType": "bool",
              "name": "over",
              "type": "bool"
            },
            {
              "internalType": "uint256",
              "name": "startTime",
              "type": "uint256"
            },
            {
              "internalType": "uint256",
              "name": "activeTime",
              "type": "uint256"
            },
            {
              "internalType": "string",
              "name": "title",
              "type": "string"
            },
            {
              "internalType": "string",
              "name": "photo",
              "type": "string"
            },
            {
              "internalType": "uint256",
              "name": "participate",
              "type": "uint256"
            }
          ],
          "internalType": "struct IDataStorage.QuizDetail",
          "name": "",
          "type": "tuple"
        }
      ],
      "stateMutability": "view",
      "type": "function"
    },
    {
      "inputs": [
        {
          "internalType": "uint256[]",
          "name": "_ids",
          "type": "uint256[]"
        }
      ],
      "name": "getQuizzes",
      "outputs": [
        {
          "components": [
            {
              "internalType": "uint256",
              "name": "id",
              "type": "uint256"
            },
            {
              "internalType": "string",
              "name": "app_id",
              "type": "string"
            },
            {
              "internalType": "string[]",
              "name": "questions",
              "type": "string[]"
            },
            {
              "internalType": "uint256",
              "name": "amount",
              "type": "uint256"
            },
            {
              "internalType": "int256",
              "name": "group",
              "type": "int256"
            },
            {
              "internalType": "uint256",
              "name": "botType",
              "type": "uint256"
            },
            {
              "internalType": "bool",
              "name": "exist",
              "type": "bool"
            },
            {
              "internalType": "bool",
              "name": "over",
              "type": "bool"
            },
            {
              "internalType": "uint256",
              "name": "startTime",
              "type": "uint256"
            },
            {
              "internalType": "uint256",
              "name": "activeTime",
              "type": "uint256"
            },
            {
              "internalType": "string",
              "name": "title",
              "type": "string"
            },
            {
              "internalType": "string",
              "name": "photo",
              "type": "string"
            },
            {
              "internalType": "uint256",
              "name": "participate",
              "type": "uint256"
            }
          ],
          "internalType": "struct IDataStorage.QuizDetail[]",
          "name": "",
          "type": "tuple[]"
        }
      ],
      "stateMutability": "view",
      "type": "function"
    },
    {
      "inputs": [],
      "name": "getShouldAwardQuizIds",
      "outputs": [
        {
          "internalType": "uint256[]",
          "name": "",
          "type": "uint256[]"
        }
      ],
      "stateMutability": "view",
      "type": "function"
    },
    {
      "inputs": [],
      "name": "lottery",
      "outputs": [
        {
          "internalType": "contract ILottery",
          "name": "",
          "type": "address"
        }
      ],
      "stateMutability": "view",
      "type": "function"
    },
    {
      "inputs": [],
      "name": "operator",
      "outputs": [
        {
          "internalType": "address payable",
          "name": "",
          "type": "address"
        }
      ],
      "stateMutability": "view",
      "type": "function"
    },
    {
      "inputs": [],
      "name": "owner",
      "outputs": [
        {
          "internalType": "address",
          "name": "",
          "type": "address"
        }
      ],
      "stateMutability": "view",
      "type": "function"
    },
    {
      "inputs": [],
      "name": "quizToken",
      "outputs": [
        {
          "internalType": "contract IIntegrateToken",
          "name": "",
          "type": "address"
        }
      ],
      "stateMutability": "view",
      "type": "function"
    },
    {
      "inputs": [
        {
          "internalType": "string",
          "name": "",
          "type": "string"
        }
      ],
      "name": "quizTokens",
      "outputs": [
        {
          "internalType": "contract IIntegrateToken",
          "name": "",
          "type": "address"
        }
      ],
      "stateMutability": "view",
      "type": "function"
    },
    {
      "inputs": [
        {
          "internalType": "string",
          "name": "_appId",
          "type": "string"
        },
        {
          "internalType": "address",
          "name": "_cat",
          "type": "address"
        }
      ],
      "name": "setAppCat",
      "outputs": [],
      "stateMutability": "nonpayable",
      "type": "function"
    },
    {
      "inputs": [
        {
          "internalType": "string",
          "name": "_appId",
          "type": "string"
        },
        {
          "internalType": "contract IIntegrateToken",
          "name": "_newToken",
          "type": "address"
        }
      ],
      "name": "setAppQzt",
      "outputs": [],
      "stateMutability": "nonpayable",
      "type": "function"
    },
    {
      "inputs": [
        {
          "internalType": "address",
          "name": "_newOwner",
          "type": "address"
        }
      ],
      "name": "transferOwner",
      "outputs": [],
      "stateMutability": "nonpayable",
      "type": "function"
    }
  ],
  "bytecode": "0x60806040523480156200001157600080fd5b50604051620043ae380380620043ae8339810160408190526200003491620000c2565b60008054336001600160a01b0319918216179091556001805482166001600160a01b03998a1617905560038054821697891697909717909655600580548716948816949094179093556004805486169487169490941790935560068054909416941693909317909155600955600a5562000155565b6001600160a01b0381168114620000bf57600080fd5b50565b600080600080600080600060e0888a031215620000de57600080fd5b8751620000eb81620000a9565b6020890151909750620000fe81620000a9565b60408901519096506200011181620000a9565b60608901519095506200012481620000a9565b60808901519094506200013781620000a9565b8093505060a0880151915060c0880151905092959891949750929550565b61424980620001656000396000f3fe6080604052600436106101d85760003560e01c8063a3bb8fbe11610102578063d35a8ff811610095578063dcdb1a6011610064578063dcdb1a6014610637578063e5ee25cf1461064d578063ecb4e8101461066d578063f3f811221461068d57600080fd5b8063d35a8ff814610596578063d4354355146105a9578063d8b90830146105c9578063db27e1ab1461061757600080fd5b8063b68e71bf116100d1578063b68e71bf146104fc578063b93833c314610529578063ba13a57214610549578063c5d790a51461057657600080fd5b8063a3bb8fbe14610430578063a3f7e0961461047e578063a772c8f8146104ab578063abc8b107146104d857600080fd5b80634fb2e45d1161017a5780638307173f116101495780638307173f146103895780638870455f146103a95780638a20d49c146103d65780638da5cb5b1461040357600080fd5b80634fb2e45d146102ca578063512f8f92146102ea578063570ca7351461030a5780637ed0b8461461035c57600080fd5b80630c5d5bc3116101b65780630c5d5bc31461023f57806327ea21321461025f57806331d9a5f31461027f5780634d054ce0146102aa57600080fd5b806306394c9b146101dd57806308d199f8146101ff5780630bd099791461021f575b600080fd5b3480156101e957600080fd5b506101fd6101f83660046132b2565b6106ad565b005b34801561020b57600080fd5b506101fd61021a3660046134c2565b61077a565b34801561022b57600080fd5b506101fd61023a366004613596565b610c70565b34801561024b57600080fd5b506101fd61025a3660046132b2565b610d5a565b34801561026b57600080fd5b506101fd61027a3660046132b2565b610e22565b34801561028b57600080fd5b50610294610eea565b6040516102a191906135e8565b60405180910390f35b3480156102b657600080fd5b506101fd6102c5366004613596565b610fb4565b3480156102d657600080fd5b506101fd6102e53660046132b2565b611046565b3480156102f657600080fd5b506101fd6103053660046132b2565b61110e565b34801561031657600080fd5b506001546103379073ffffffffffffffffffffffffffffffffffffffff1681565b60405173ffffffffffffffffffffffffffffffffffffffff90911681526020016102a1565b34801561036857600080fd5b506005546103379073ffffffffffffffffffffffffffffffffffffffff1681565b34801561039557600080fd5b506101fd6103a436600461362c565b61127b565b3480156103b557600080fd5b506006546103379073ffffffffffffffffffffffffffffffffffffffff1681565b3480156103e257600080fd5b506103f66103f13660046136ff565b611780565b6040516102a19190613772565b34801561040f57600080fd5b506000546103379073ffffffffffffffffffffffffffffffffffffffff1681565b34801561043c57600080fd5b5061033761044b366004613785565b805160208183018101805160088252928201919093012091525473ffffffffffffffffffffffffffffffffffffffff1681565b34801561048a57600080fd5b5061049e6104993660046137c2565b611855565b6040516102a1919061398f565b3480156104b757600080fd5b506104cb6104c63660046139a2565b611988565b6040516102a19190613a33565b3480156104e457600080fd5b506104ee60095481565b6040519081526020016102a1565b34801561050857600080fd5b506004546103379073ffffffffffffffffffffffffffffffffffffffff1681565b34801561053557600080fd5b506101fd6105443660046137c2565b611a51565b34801561055557600080fd5b506003546103379073ffffffffffffffffffffffffffffffffffffffff1681565b34801561058257600080fd5b506101fd6105913660046132b2565b611ad7565b6101fd6105a4366004613ab3565b611b9f565b3480156105b557600080fd5b506101fd6105c4366004613596565b6122b8565b3480156105d557600080fd5b506103376105e4366004613785565b805160208183018101805160078252928201919093012091525473ffffffffffffffffffffffffffffffffffffffff1681565b34801561062357600080fd5b50610294610632366004613785565b61234a565b34801561064357600080fd5b506104ee600a5481565b34801561065957600080fd5b506101fd610668366004613b9c565b612413565b34801561067957600080fd5b506101fd6106883660046137c2565b612f81565b34801561069957600080fd5b506103f66106a83660046137c2565b613007565b60005473ffffffffffffffffffffffffffffffffffffffff163314610733576040517f08c379a000000000000000000000000000000000000000000000000000000000815260206004820152600a60248201527f4f6e6c79204f776e65720000000000000000000000000000000000000000000060448201526064015b60405180910390fd5b600180547fffffffffffffffffffffffff00000000000000000000000000000000000000001673ffffffffffffffffffffffffffffffffffffffff92909216919091179055565b6006546040517fb796e2b0000000000000000000000000000000000000000000000000000000008152899173ffffffffffffffffffffffffffffffffffffffff169063b796e2b0906107d29084903390600401613be1565b60206040518083038186803b1580156107ea57600080fd5b505afa1580156107fe573d6000803e3d6000fd5b505050506040513d601f19601f820116820180604052508101906108229190613c2e565b80610844575060015473ffffffffffffffffffffffffffffffffffffffff1633145b8061089957503373ffffffffffffffffffffffffffffffffffffffff166002826040516108719190613c49565b9081526040519081900360200190205473ffffffffffffffffffffffffffffffffffffffff16145b806108bb575060005473ffffffffffffffffffffffffffffffffffffffff1633145b610921576040517f08c379a000000000000000000000000000000000000000000000000000000000815260206004820152600a60248201527f4f6e6c792061646d696e00000000000000000000000000000000000000000000604482015260640161072a565b8780610989576040517f08c379a000000000000000000000000000000000000000000000000000000000815260206004820152601060248201527f696e76616c6964207175697a4964203000000000000000000000000000000000604482015260640161072a565b6006546040517fa3f7e0960000000000000000000000000000000000000000000000000000000081526004810183905273ffffffffffffffffffffffffffffffffffffffff9091169063a3f7e0969060240160006040518083038186803b1580156109f357600080fd5b505afa158015610a07573d6000803e3d6000fd5b505050506040513d6000823e601f3d9081017fffffffffffffffffffffffffffffffffffffffffffffffffffffffffffffffe0168201604052610a4d9190810190613e55565b60c00151610ab7576040517f08c379a000000000000000000000000000000000000000000000000000000000815260206004820152601060248201527f6e6f6e6578697374656e74207175697a00000000000000000000000000000000604482015260640161072a565b6006546040517fa3f7e096000000000000000000000000000000000000000000000000000000008152600481018b905260009173ffffffffffffffffffffffffffffffffffffffff169063a3f7e0969060240160006040518083038186803b158015610b2257600080fd5b505afa158015610b36573d6000803e3d6000fd5b505050506040513d6000823e601f3d9081017fffffffffffffffffffffffffffffffffffffffffffffffffffffffffffffffe0168201604052610b7c9190810190613e55565b90508815610b8c57608081018990525b875115610b9b57604081018890525b8615610baa5761010081018790525b8515610bb95761012081018690525b845115610bc95761014081018590525b835115610bd95761016081018490525b6006546040517f01354e3100000000000000000000000000000000000000000000000000000000815273ffffffffffffffffffffffffffffffffffffffff909116906301354e3190610c31908e908590600401613e8a565b600060405180830381600087803b158015610c4b57600080fd5b505af1158015610c5f573d6000803e3d6000fd5b505050505050505050505050505050565b60005473ffffffffffffffffffffffffffffffffffffffff163314610cf1576040517f08c379a000000000000000000000000000000000000000000000000000000000815260206004820152600a60248201527f4f6e6c79204f776e657200000000000000000000000000000000000000000000604482015260640161072a565b80600283604051610d029190613c49565b908152604051908190036020019020805473ffffffffffffffffffffffffffffffffffffffff929092167fffffffffffffffffffffffff00000000000000000000000000000000000000009092169190911790555050565b60005473ffffffffffffffffffffffffffffffffffffffff163314610ddb576040517f08c379a000000000000000000000000000000000000000000000000000000000815260206004820152600a60248201527f4f6e6c79204f776e657200000000000000000000000000000000000000000000604482015260640161072a565b600680547fffffffffffffffffffffffff00000000000000000000000000000000000000001673ffffffffffffffffffffffffffffffffffffffff92909216919091179055565b60005473ffffffffffffffffffffffffffffffffffffffff163314610ea3576040517f08c379a000000000000000000000000000000000000000000000000000000000815260206004820152600a60248201527f4f6e6c79204f776e657200000000000000000000000000000000000000000000604482015260640161072a565b600480547fffffffffffffffffffffffff00000000000000000000000000000000000000001673ffffffffffffffffffffffffffffffffffffffff92909216919091179055565b600654604080517f31d9a5f3000000000000000000000000000000000000000000000000000000008152905160609273ffffffffffffffffffffffffffffffffffffffff16916331d9a5f3916004808301926000929190829003018186803b158015610f5557600080fd5b505afa158015610f69573d6000803e3d6000fd5b505050506040513d6000823e601f3d9081017fffffffffffffffffffffffffffffffffffffffffffffffffffffffffffffffe0168201604052610faf9190810190613eaf565b905090565b60005473ffffffffffffffffffffffffffffffffffffffff163314611035576040517f08c379a000000000000000000000000000000000000000000000000000000000815260206004820152600a60248201527f4f6e6c79204f776e657200000000000000000000000000000000000000000000604482015260640161072a565b80600883604051610d029190613c49565b60005473ffffffffffffffffffffffffffffffffffffffff1633146110c7576040517f08c379a000000000000000000000000000000000000000000000000000000000815260206004820152600a60248201527f4f6e6c79204f776e657200000000000000000000000000000000000000000000604482015260640161072a565b600080547fffffffffffffffffffffffff00000000000000000000000000000000000000001673ffffffffffffffffffffffffffffffffffffffff92909216919091179055565b60005473ffffffffffffffffffffffffffffffffffffffff16331461118f576040517f08c379a000000000000000000000000000000000000000000000000000000000815260206004820152600a60248201527f4f6e6c79204f776e657200000000000000000000000000000000000000000000604482015260640161072a565b60035473ffffffffffffffffffffffffffffffffffffffff1615611234576003546040517fc7d7b66000000000000000000000000000000000000000000000000000000000815273ffffffffffffffffffffffffffffffffffffffff80841660048301528392169063c7d7b66090602401600060405180830381600087803b15801561121a57600080fd5b505af115801561122e573d6000803e3d6000fd5b50505050505b600380547fffffffffffffffffffffffff00000000000000000000000000000000000000001673ffffffffffffffffffffffffffffffffffffffff92909216919091179055565b82806112e3576040517f08c379a000000000000000000000000000000000000000000000000000000000815260206004820152601060248201527f696e76616c6964207175697a4964203000000000000000000000000000000000604482015260640161072a565b6006546040517fa3f7e0960000000000000000000000000000000000000000000000000000000081526004810183905273ffffffffffffffffffffffffffffffffffffffff9091169063a3f7e0969060240160006040518083038186803b15801561134d57600080fd5b505afa158015611361573d6000803e3d6000fd5b505050506040513d6000823e601f3d9081017fffffffffffffffffffffffffffffffffffffffffffffffffffffffffffffffe01682016040526113a79190810190613e55565b60c00151611411576040517f08c379a000000000000000000000000000000000000000000000000000000000815260206004820152601060248201527f6e6f6e6578697374656e74207175697a00000000000000000000000000000000604482015260640161072a565b6006546040517fb796e2b0000000000000000000000000000000000000000000000000000000008152869173ffffffffffffffffffffffffffffffffffffffff169063b796e2b0906114699084903390600401613be1565b60206040518083038186803b15801561148157600080fd5b505afa158015611495573d6000803e3d6000fd5b505050506040513d601f19601f820116820180604052508101906114b99190613c2e565b806114db575060015473ffffffffffffffffffffffffffffffffffffffff1633145b8061153057503373ffffffffffffffffffffffffffffffffffffffff166002826040516115089190613c49565b9081526040519081900360200190205473ffffffffffffffffffffffffffffffffffffffff16145b80611552575060005473ffffffffffffffffffffffffffffffffffffffff1633145b6115b8576040517f08c379a000000000000000000000000000000000000000000000000000000000815260206004820152600a60248201527f4f6e6c792061646d696e00000000000000000000000000000000000000000000604482015260640161072a565b6006546040517fa3f7e0960000000000000000000000000000000000000000000000000000000081526004810187905260009173ffffffffffffffffffffffffffffffffffffffff169063a3f7e0969060240160006040518083038186803b15801561162357600080fd5b505afa158015611637573d6000803e3d6000fd5b505050506040513d6000823e601f3d9081017fffffffffffffffffffffffffffffffffffffffffffffffffffffffffffffffe016820160405261167d9190810190613e55565b90508060e00151156116eb576040517f08c379a000000000000000000000000000000000000000000000000000000000815260206004820152600c60248201527f7175697a206973206f7665720000000000000000000000000000000000000000604482015260640161072a565b6006546040517f766be05c00000000000000000000000000000000000000000000000000000000815273ffffffffffffffffffffffffffffffffffffffff9091169063766be05c9061174590899089908990600401613f35565b600060405180830381600087803b15801561175f57600080fd5b505af1158015611773573d6000803e3d6000fd5b5050505050505050505050565b6006546040517fa890cb3a000000000000000000000000000000000000000000000000000000008152600481018490526024810183905260609173ffffffffffffffffffffffffffffffffffffffff169063a890cb3a9060440160006040518083038186803b1580156117f257600080fd5b505afa158015611806573d6000803e3d6000fd5b505050506040513d6000823e601f3d9081017fffffffffffffffffffffffffffffffffffffffffffffffffffffffffffffffe016820160405261184c9190810190613f5e565b90505b92915050565b6118c4604051806101a0016040528060008152602001606081526020016060815260200160008152602001600081526020016000815260200160001515815260200160001515815260200160008152602001600081526020016060815260200160608152602001600081525090565b6006546040517fa3f7e0960000000000000000000000000000000000000000000000000000000081526004810184905273ffffffffffffffffffffffffffffffffffffffff9091169063a3f7e0969060240160006040518083038186803b15801561192e57600080fd5b505afa158015611942573d6000803e3d6000fd5b505050506040513d6000823e601f3d9081017fffffffffffffffffffffffffffffffffffffffffffffffffffffffffffffffe016820160405261184f9190810190613e55565b6006546040517fa772c8f800000000000000000000000000000000000000000000000000000000815260609173ffffffffffffffffffffffffffffffffffffffff169063a772c8f8906119df9085906004016135e8565b60006040518083038186803b1580156119f757600080fd5b505afa158015611a0b573d6000803e3d6000fd5b505050506040513d6000823e601f3d9081017fffffffffffffffffffffffffffffffffffffffffffffffffffffffffffffffe016820160405261184f9190810190613fed565b60005473ffffffffffffffffffffffffffffffffffffffff163314611ad2576040517f08c379a000000000000000000000000000000000000000000000000000000000815260206004820152600a60248201527f4f6e6c79204f776e657200000000000000000000000000000000000000000000604482015260640161072a565b600955565b60005473ffffffffffffffffffffffffffffffffffffffff163314611b58576040517f08c379a000000000000000000000000000000000000000000000000000000000815260206004820152600a60248201527f4f6e6c79204f776e657200000000000000000000000000000000000000000000604482015260640161072a565b600580547fffffffffffffffffffffffff00000000000000000000000000000000000000001673ffffffffffffffffffffffffffffffffffffffff92909216919091179055565b6006546040517fb796e2b00000000000000000000000000000000000000000000000000000000081528b9173ffffffffffffffffffffffffffffffffffffffff169063b796e2b090611bf79084903390600401613be1565b60206040518083038186803b158015611c0f57600080fd5b505afa158015611c23573d6000803e3d6000fd5b505050506040513d601f19601f82011682018060405250810190611c479190613c2e565b80611c69575060015473ffffffffffffffffffffffffffffffffffffffff1633145b80611cbe57503373ffffffffffffffffffffffffffffffffffffffff16600282604051611c969190613c49565b9081526040519081900360200190205473ffffffffffffffffffffffffffffffffffffffff16145b80611ce0575060005473ffffffffffffffffffffffffffffffffffffffff1633145b611d46576040517f08c379a000000000000000000000000000000000000000000000000000000000815260206004820152600a60248201527f4f6e6c792061646d696e00000000000000000000000000000000000000000000604482015260640161072a565b89611dad576040517f08c379a000000000000000000000000000000000000000000000000000000000815260206004820152601060248201527f696e76616c6964207175697a4964203000000000000000000000000000000000604482015260640161072a565b6006546040517fa3f7e096000000000000000000000000000000000000000000000000000000008152600481018c905260009173ffffffffffffffffffffffffffffffffffffffff169063a3f7e0969060240160006040518083038186803b158015611e1857600080fd5b505afa158015611e2c573d6000803e3d6000fd5b505050506040513d6000823e601f3d9081017fffffffffffffffffffffffffffffffffffffffffffffffffffffffffffffffe0168201604052611e729190810190613e55565b90508060c0015115611ee0576040517f08c379a000000000000000000000000000000000000000000000000000000000815260206004820152600a60248201527f6578697374207175697a00000000000000000000000000000000000000000000604482015260640161072a565b6009549650600060028d604051611ef79190613c49565b9081526040519081900360200190205460015473ffffffffffffffffffffffffffffffffffffffff918216925033911614801590611f4d575060005473ffffffffffffffffffffffffffffffffffffffff163314155b156120d25760003411611fbc576040517f08c379a000000000000000000000000000000000000000000000000000000000815260206004820152601960248201527f796f752073686f756c642070726570617920666f722067617300000000000000604482015260640161072a565b73ffffffffffffffffffffffffffffffffffffffff81161561208a5760003411612042576040517f08c379a000000000000000000000000000000000000000000000000000000000815260206004820152601960248201527f796f752073686f756c642070726570617920666f722067617300000000000000604482015260640161072a565b60405173ffffffffffffffffffffffffffffffffffffffff8216903480156108fc02916000818181858888f19350505050158015612084573d6000803e3d6000fd5b506120d2565b60015460405173ffffffffffffffffffffffffffffffffffffffff909116903480156108fc02916000818181858888f193505050501580156120d0573d6000803e3d6000fd5b505b8b8260000181815250508c8260200181905250878260600181815250508882604001819052508a82608001818152505060018260c0019015159081151581525050898260a0018181525050848261014001819052508382610160018190525086826101000181815250508582610120018181525050600660009054906101000a900473ffffffffffffffffffffffffffffffffffffffff1673ffffffffffffffffffffffffffffffffffffffff166301354e318e846040518363ffffffff1660e01b81526004016121a4929190613e8a565b600060405180830381600087803b1580156121be57600080fd5b505af11580156121d2573d6000803e3d6000fd5b5050600554600a546040517f40c10f19000000000000000000000000000000000000000000000000000000008152336004820152602481019190915273ffffffffffffffffffffffffffffffffffffffff90911692506340c10f199150604401600060405180830381600087803b15801561224c57600080fd5b505af1158015612260573d6000803e3d6000fd5b505050507f12d6be7d5b357e475ec38073de7e8d794f6d75a7fa0088146043f22255067e278d8d8d8d8d8d8d8d6040516122a198979695949392919061409e565b60405180910390a150505050505050505050505050565b60005473ffffffffffffffffffffffffffffffffffffffff163314612339576040517f08c379a000000000000000000000000000000000000000000000000000000000815260206004820152600a60248201527f4f6e6c79204f776e657200000000000000000000000000000000000000000000604482015260640161072a565b80600783604051610d029190613c49565b6006546040517fdb27e1ab00000000000000000000000000000000000000000000000000000000815260609173ffffffffffffffffffffffffffffffffffffffff169063db27e1ab906123a19085906004016140f9565b60006040518083038186803b1580156123b957600080fd5b505afa1580156123cd573d6000803e3d6000fd5b505050506040513d6000823e601f3d9081017fffffffffffffffffffffffffffffffffffffffffffffffffffffffffffffffe016820160405261184f9190810190613eaf565b808061247b576040517f08c379a000000000000000000000000000000000000000000000000000000000815260206004820152601060248201527f696e76616c6964207175697a4964203000000000000000000000000000000000604482015260640161072a565b6006546040517fa3f7e0960000000000000000000000000000000000000000000000000000000081526004810183905273ffffffffffffffffffffffffffffffffffffffff9091169063a3f7e0969060240160006040518083038186803b1580156124e557600080fd5b505afa1580156124f9573d6000803e3d6000fd5b505050506040513d6000823e601f3d9081017fffffffffffffffffffffffffffffffffffffffffffffffffffffffffffffffe016820160405261253f9190810190613e55565b60c001516125a9576040517f08c379a000000000000000000000000000000000000000000000000000000000815260206004820152601060248201527f6e6f6e6578697374656e74207175697a00000000000000000000000000000000604482015260640161072a565b6006546040517fb796e2b0000000000000000000000000000000000000000000000000000000008152849173ffffffffffffffffffffffffffffffffffffffff169063b796e2b0906126019084903390600401613be1565b60206040518083038186803b15801561261957600080fd5b505afa15801561262d573d6000803e3d6000fd5b505050506040513d601f19601f820116820180604052508101906126519190613c2e565b80612673575060015473ffffffffffffffffffffffffffffffffffffffff1633145b806126c857503373ffffffffffffffffffffffffffffffffffffffff166002826040516126a09190613c49565b9081526040519081900360200190205473ffffffffffffffffffffffffffffffffffffffff16145b806126ea575060005473ffffffffffffffffffffffffffffffffffffffff1633145b612750576040517f08c379a000000000000000000000000000000000000000000000000000000000815260206004820152600a60248201527f4f6e6c792061646d696e00000000000000000000000000000000000000000000604482015260640161072a565b6006546040517fa3f7e0960000000000000000000000000000000000000000000000000000000081526004810185905260009173ffffffffffffffffffffffffffffffffffffffff169063a3f7e0969060240160006040518083038186803b1580156127bb57600080fd5b505afa1580156127cf573d6000803e3d6000fd5b505050506040513d6000823e601f3d9081017fffffffffffffffffffffffffffffffffffffffffffffffffffffffffffffffe01682016040526128159190810190613e55565b90508060e0015115612883576040517f08c379a000000000000000000000000000000000000000000000000000000000815260206004820152600c60248201527f7175697a206973206f7665720000000000000000000000000000000000000000604482015260640161072a565b6006546040517ff3f811220000000000000000000000000000000000000000000000000000000081526004810186905260009173ffffffffffffffffffffffffffffffffffffffff169063f3f811229060240160006040518083038186803b1580156128ee57600080fd5b505afa158015612902573d6000803e3d6000fd5b505050506040513d6000823e601f3d9081017fffffffffffffffffffffffffffffffffffffffffffffffffffffffffffffffe01682016040526129489190810190613f5e565b905060005b8151811015612e9f57600073ffffffffffffffffffffffffffffffffffffffff1660078860405161297e9190613c49565b9081526040519081900360200190205473ffffffffffffffffffffffffffffffffffffffff1614612dd9576009546040516000906008906129c0908b90613c49565b9081526040519081900360200190205473ffffffffffffffffffffffffffffffffffffffff1614612cfe5760006008896040516129fd9190613c49565b90815260405190819003602001902054845173ffffffffffffffffffffffffffffffffffffffff909116906370a0823190869086908110612a4057612a4061410c565b60200260200101516040518263ffffffff1660e01b8152600401612a80919073ffffffffffffffffffffffffffffffffffffffff91909116815260200190565b60206040518083038186803b158015612a9857600080fd5b505afa158015612aac573d6000803e3d6000fd5b505050506040513d601f19601f82011682018060405250810190612ad0919061413b565b1115612cfa576000600889604051612ae89190613c49565b9081526040519081900360200181205473ffffffffffffffffffffffffffffffffffffffff16906305c58df290600890612b23908d90613c49565b90815260405190819003602001902054865173ffffffffffffffffffffffffffffffffffffffff90911690632f745c5990889088908110612b6657612b6661410c565b602002602001015160006040518363ffffffff1660e01b8152600401612bae92919073ffffffffffffffffffffffffffffffffffffffff929092168252602082015260400190565b60206040518083038186803b158015612bc657600080fd5b505afa158015612bda573d6000803e3d6000fd5b505050506040513d601f19601f82011682018060405250810190612bfe919061413b565b6040518263ffffffff1660e01b8152600401612c1c91815260200190565b60206040518083038186803b158015612c3457600080fd5b505afa158015612c48573d6000803e3d6000fd5b505050506040513d601f19601f82011682018060405250810190612c6c919061413b565b90508060021415612c9457612c8d6064612c878460966130cc565b90613181565b9150612cf4565b8060031415612cb757612c8d612cb06064612c878560fa6130cc565b83906131c3565b8060041415612cd457612c8d612cb06064612c87856101f46130cc565b8060051415612cf457612cf1612cb06064612c87856103e86130cc565b91505b50612cfe565b5060005b8015612dd357600788604051612d149190613c49565b90815260405190819003602001902054835173ffffffffffffffffffffffffffffffffffffffff909116906340c10f1990859085908110612d5757612d5761410c565b60200260200101516009546040518363ffffffff1660e01b8152600401612da092919073ffffffffffffffffffffffffffffffffffffffff929092168252602082015260400190565b600060405180830381600087803b158015612dba57600080fd5b505af1158015612dce573d6000803e3d6000fd5b505050505b50612e8d565b600454825173ffffffffffffffffffffffffffffffffffffffff909116906340c10f1990849084908110612e0f57612e0f61410c565b602002602001015185606001516040518363ffffffff1660e01b8152600401612e5a92919073ffffffffffffffffffffffffffffffffffffffff929092168252602082015260400190565b600060405180830381600087803b158015612e7457600080fd5b505af1158015612e88573d6000803e3d6000fd5b505050505b612e98600182614183565b905061294d565b600160e08401526006546040517f828dd9670000000000000000000000000000000000000000000000000000000081526004810188905273ffffffffffffffffffffffffffffffffffffffff9091169063828dd96790602401600060405180830381600087803b158015612f1257600080fd5b505af1158015612f26573d6000803e3d6000fd5b50506003546040517f63e71afa000000000000000000000000000000000000000000000000000000008152600481018a905273ffffffffffffffffffffffffffffffffffffffff90911692506363e71afa9150602401611745565b60005473ffffffffffffffffffffffffffffffffffffffff163314613002576040517f08c379a000000000000000000000000000000000000000000000000000000000815260206004820152600a60248201527f4f6e6c79204f776e657200000000000000000000000000000000000000000000604482015260640161072a565b600a55565b6006546040517ff3f811220000000000000000000000000000000000000000000000000000000081526004810183905260609173ffffffffffffffffffffffffffffffffffffffff169063f3f811229060240160006040518083038186803b15801561307257600080fd5b505afa158015613086573d6000803e3d6000fd5b505050506040513d6000823e601f3d9081017fffffffffffffffffffffffffffffffffffffffffffffffffffffffffffffffe016820160405261184f9190810190613f5e565b6000826130db5750600061184f565b60006130e7838561419b565b9050826130f485836141d8565b1461184c576040517f08c379a000000000000000000000000000000000000000000000000000000000815260206004820152602160248201527f536166654d6174683a206d756c7469706c69636174696f6e206f766572666c6f60448201527f7700000000000000000000000000000000000000000000000000000000000000606482015260840161072a565b600061184c83836040518060400160405280601a81526020017f536166654d6174683a206469766973696f6e206279207a65726f00000000000081525061323c565b6000806131d08385614183565b90508381101561184c576040517f08c379a000000000000000000000000000000000000000000000000000000000815260206004820152601b60248201527f536166654d6174683a206164646974696f6e206f766572666c6f770000000000604482015260640161072a565b60008183613277576040517f08c379a000000000000000000000000000000000000000000000000000000000815260040161072a91906140f9565b50600061328484866141d8565b95945050505050565b73ffffffffffffffffffffffffffffffffffffffff811681146132af57600080fd5b50565b6000602082840312156132c457600080fd5b813561184c8161328d565b7f4e487b7100000000000000000000000000000000000000000000000000000000600052604160045260246000fd5b6040516101a0810167ffffffffffffffff81118282101715613322576133226132cf565b60405290565b604051601f82017fffffffffffffffffffffffffffffffffffffffffffffffffffffffffffffffe016810167ffffffffffffffff8111828210171561336f5761336f6132cf565b604052919050565b600067ffffffffffffffff821115613391576133916132cf565b50601f017fffffffffffffffffffffffffffffffffffffffffffffffffffffffffffffffe01660200190565b600082601f8301126133ce57600080fd5b81356133e16133dc82613377565b613328565b8181528460208386010111156133f657600080fd5b816020850160208301376000918101602001919091529392505050565b600067ffffffffffffffff82111561342d5761342d6132cf565b5060051b60200190565b600082601f83011261344857600080fd5b813560206134586133dc83613413565b82815260059290921b8401810191818101908684111561347757600080fd5b8286015b848110156134b757803567ffffffffffffffff81111561349b5760008081fd5b6134a98986838b01016133bd565b84525091830191830161347b565b509695505050505050565b600080600080600080600080610100898b0312156134df57600080fd5b883567ffffffffffffffff808211156134f757600080fd5b6135038c838d016133bd565b995060208b0135985060408b0135975060608b013591508082111561352757600080fd5b6135338c838d01613437565b965060808b0135955060a08b0135945060c08b013591508082111561355757600080fd5b6135638c838d016133bd565b935060e08b013591508082111561357957600080fd5b506135868b828c016133bd565b9150509295985092959890939650565b600080604083850312156135a957600080fd5b823567ffffffffffffffff8111156135c057600080fd5b6135cc858286016133bd565b92505060208301356135dd8161328d565b809150509250929050565b6020808252825182820181905260009190848201906040850190845b8181101561362057835183529284019291840191600101613604565b50909695505050505050565b6000806000806080858703121561364257600080fd5b843567ffffffffffffffff8082111561365a57600080fd5b613666888389016133bd565b95506020915081870135945060408701358181111561368457600080fd5b87019050601f8101881361369757600080fd5b80356136a56133dc82613413565b81815260059190911b8201830190838101908a8311156136c457600080fd5b928401925b828410156136eb5783356136dc8161328d565b825292840192908401906136c9565b979a96995096976060013596505050505050565b6000806040838503121561371257600080fd5b50508035926020909101359150565b600081518084526020808501945080840160005b8381101561376757815173ffffffffffffffffffffffffffffffffffffffff1687529582019590820190600101613735565b509495945050505050565b60208152600061184c6020830184613721565b60006020828403121561379757600080fd5b813567ffffffffffffffff8111156137ae57600080fd5b6137ba848285016133bd565b949350505050565b6000602082840312156137d457600080fd5b5035919050565b60005b838110156137f65781810151838201526020016137de565b83811115613805576000848401525b50505050565b600081518084526138238160208601602086016137db565b601f017fffffffffffffffffffffffffffffffffffffffffffffffffffffffffffffffe0169290920160200192915050565b600081518084526020808501808196508360051b8101915082860160005b8581101561389d57828403895261388b84835161380b565b98850198935090840190600101613873565b5091979650505050505050565b60006101a08251845260208301518160208601526138ca8286018261380b565b915050604083015184820360408601526138e48282613855565b915050606083015160608501526080830151608085015260a083015160a085015260c083015161391860c086018215159052565b5060e083015161392c60e086018215159052565b5061010083810151908501526101208084015190850152610140808401518583038287015261395b838261380b565b925050506101608084015185830382870152613977838261380b565b61018095860151969095019590955250919392505050565b60208152600061184c60208301846138aa565b600060208083850312156139b557600080fd5b823567ffffffffffffffff8111156139cc57600080fd5b8301601f810185136139dd57600080fd5b80356139eb6133dc82613413565b81815260059190911b82018301908381019087831115613a0a57600080fd5b928401925b82841015613a2857833582529284019290840190613a0f565b979650505050505050565b6000602080830181845280855180835260408601915060408160051b870101925083870160005b82811015613aa6577fffffffffffffffffffffffffffffffffffffffffffffffffffffffffffffffc0888603018452613a948583516138aa565b94509285019290850190600101613a5a565b5092979650505050505050565b6000806000806000806000806000806101408b8d031215613ad357600080fd5b8a3567ffffffffffffffff80821115613aeb57600080fd5b613af78e838f016133bd565b9b5060208d01359a5060408d0135995060608d0135985060808d0135915080821115613b2257600080fd5b613b2e8e838f01613437565b975060a08d0135965060c08d0135955060e08d013594506101008d0135915080821115613b5a57600080fd5b613b668e838f016133bd565b93506101208d0135915080821115613b7d57600080fd5b50613b8a8d828e016133bd565b9150509295989b9194979a5092959850565b60008060408385031215613baf57600080fd5b823567ffffffffffffffff811115613bc657600080fd5b613bd2858286016133bd565b95602094909401359450505050565b604081526000613bf4604083018561380b565b905073ffffffffffffffffffffffffffffffffffffffff831660208301529392505050565b80518015158114613c2957600080fd5b919050565b600060208284031215613c4057600080fd5b61184c82613c19565b60008251613c5b8184602087016137db565b9190910192915050565b600082601f830112613c7657600080fd5b8151613c846133dc82613377565b818152846020838601011115613c9957600080fd5b6137ba8260208301602087016137db565b600082601f830112613cbb57600080fd5b81516020613ccb6133dc83613413565b82815260059290921b84018101918181019086841115613cea57600080fd5b8286015b848110156134b757805167ffffffffffffffff811115613d0e5760008081fd5b613d1c8986838b0101613c65565b845250918301918301613cee565b60006101a08284031215613d3d57600080fd5b613d456132fe565b905081518152602082015167ffffffffffffffff80821115613d6657600080fd5b613d7285838601613c65565b60208401526040840151915080821115613d8b57600080fd5b613d9785838601613caa565b6040840152606084015160608401526080840151608084015260a084015160a0840152613dc660c08501613c19565b60c0840152613dd760e08501613c19565b60e0840152610100848101519084015261012080850151908401526101408085015190925081811115613e0957600080fd5b613e1586828701613c65565b838501525061016091508184015181811115613e3057600080fd5b613e3c86828701613c65565b8385015250505061018080830151818301525092915050565b600060208284031215613e6757600080fd5b815167ffffffffffffffff811115613e7e57600080fd5b6137ba84828501613d2a565b604081526000613e9d604083018561380b565b828103602084015261328481856138aa565b60006020808385031215613ec257600080fd5b825167ffffffffffffffff811115613ed957600080fd5b8301601f81018513613eea57600080fd5b8051613ef86133dc82613413565b81815260059190911b82018301908381019087831115613f1757600080fd5b928401925b82841015613a2857835182529284019290840190613f1c565b838152606060208201526000613f4e6060830185613721565b9050826040830152949350505050565b60006020808385031215613f7157600080fd5b825167ffffffffffffffff811115613f8857600080fd5b8301601f81018513613f9957600080fd5b8051613fa76133dc82613413565b81815260059190911b82018301908381019087831115613fc657600080fd5b928401925b82841015613a28578351613fde8161328d565b82529284019290840190613fcb565b6000602080838503121561400057600080fd5b825167ffffffffffffffff8082111561401857600080fd5b818501915085601f83011261402c57600080fd5b815161403a6133dc82613413565b81815260059190911b8301840190848101908883111561405957600080fd5b8585015b83811015614091578051858111156140755760008081fd5b6140838b89838a0101613d2a565b84525091860191860161405d565b5098975050505050505050565b60006101008083526140b28184018c61380b565b905089602084015288604084015287606084015282810360808401526140d88188613855565b60a0840196909652505060c081019290925260e09091015295945050505050565b60208152600061184c602083018461380b565b7f4e487b7100000000000000000000000000000000000000000000000000000000600052603260045260246000fd5b60006020828403121561414d57600080fd5b5051919050565b7f4e487b7100000000000000000000000000000000000000000000000000000000600052601160045260246000fd5b6000821982111561419657614196614154565b500190565b6000817fffffffffffffffffffffffffffffffffffffffffffffffffffffffffffffffff04831182151516156141d3576141d3614154565b500290565b60008261420e577f4e487b7100000000000000000000000000000000000000000000000000000000600052601260045260246000fd5b50049056fea26469706673582212203b3eac0bf7c8a306e62d01f955d508afe62c28433ca00bfaa3b52c0c0f72ba0864736f6c63430008090033",
  "linkReferences": {},
  "deployedLinkReferences": {}
}