{
  "_format": "hh-sol-artifact-1",
  "contractName": "Quiz",
  "sourceName": "src/contracts/quiz/quiz.sol",
  "abi": [
    {
      "inputs": [
        {
          "internalType": "address payable",
          "name": "_operator",
          "type": "address"
        },
        {
          "internalType": "contract ILottery",
          "name": "_lottery",
          "type": "address"
        },
        {
          "internalType": "contract IIntegrateToken",
          "name": "_quizToken",
          "type": "address"
        },
        {
          "internalType": "contract IIntegrateToken",
          "name": "_excitationToken",
          "type": "address"
        },
        {
          "internalType": "contract IDataStorage",
          "name": "_storage",
          "type": "address"
        },
        {
          "internalType": "uint256",
          "name": "_rewardAmount",
          "type": "uint256"
        },
        {
          "internalType": "uint256",
          "name": "_exciteAmount",
          "type": "uint256"
        }
      ],
      "stateMutability": "nonpayable",
      "type": "constructor"
    },
    {
      "anonymous": false,
      "inputs": [
        {
          "indexed": false,
          "internalType": "bytes32",
          "name": "_quizId",
          "type": "bytes32"
        }
      ],
      "name": "Awards",
      "type": "event"
    },
    {
      "anonymous": false,
      "inputs": [
        {
          "indexed": false,
          "internalType": "string",
          "name": "_appId",
          "type": "string"
        },
        {
          "indexed": false,
          "internalType": "uint256",
          "name": "_quizId",
          "type": "uint256"
        },
        {
          "indexed": false,
          "internalType": "int256",
          "name": "_groupId",
          "type": "int256"
        },
        {
          "indexed": false,
          "internalType": "uint256",
          "name": "_botType",
          "type": "uint256"
        },
        {
          "indexed": false,
          "internalType": "string[]",
          "name": "questions",
          "type": "string[]"
        },
        {
          "indexed": false,
          "internalType": "uint256",
          "name": "_rewardAmount",
          "type": "uint256"
        },
        {
          "indexed": false,
          "internalType": "uint256",
          "name": "_startTime",
          "type": "uint256"
        },
        {
          "indexed": false,
          "internalType": "uint256",
          "name": "_activeTime",
          "type": "uint256"
        }
      ],
      "name": "CreateQuiz",
      "type": "event"
    },
    {
      "inputs": [
        {
          "internalType": "string",
          "name": "_appId",
          "type": "string"
        },
        {
          "internalType": "address payable",
          "name": "_newOperator",
          "type": "address"
        }
      ],
      "name": "addAppOperator",
      "outputs": [],
      "stateMutability": "nonpayable",
      "type": "function"
    },
    {
      "inputs": [
        {
          "internalType": "string",
          "name": "_appId",
          "type": "string"
        },
        {
          "internalType": "uint256",
          "name": "_quizId",
          "type": "uint256"
        },
        {
          "internalType": "address[]",
          "name": "_inductees",
          "type": "address[]"
        },
        {
          "internalType": "uint256",
          "name": "_participateNumber",
          "type": "uint256"
        }
      ],
      "name": "addInductees",
      "outputs": [],
      "stateMutability": "nonpayable",
      "type": "function"
    },
    {
      "inputs": [
        {
          "internalType": "string",
          "name": "",
          "type": "string"
        }
      ],
      "name": "appCats",
      "outputs": [
        {
          "internalType": "contract ICAT",
          "name": "",
          "type": "address"
        }
      ],
      "stateMutability": "view",
      "type": "function"
    },
    {
      "inputs": [
        {
          "internalType": "string",
          "name": "_appId",
          "type": "string"
        },
        {
          "internalType": "uint256",
          "name": "_quizId",
          "type": "uint256"
        }
      ],
      "name": "awards",
      "outputs": [],
      "stateMutability": "nonpayable",
      "type": "function"
    },
    {
      "inputs": [
        {
          "internalType": "contract IDataStorage",
          "name": "_data",
          "type": "address"
        }
      ],
      "name": "changeDataStorage",
      "outputs": [],
      "stateMutability": "nonpayable",
      "type": "function"
    },
    {
      "inputs": [
        {
          "internalType": "contract IIntegrateToken",
          "name": "_newToken",
          "type": "address"
        }
      ],
      "name": "changeExcitationToken",
      "outputs": [],
      "stateMutability": "nonpayable",
      "type": "function"
    },
    {
      "inputs": [
        {
          "internalType": "uint256",
          "name": "_newAmount",
          "type": "uint256"
        }
      ],
      "name": "changeExciteAmount",
      "outputs": [],
      "stateMutability": "nonpayable",
      "type": "function"
    },
    {
      "inputs": [
        {
          "internalType": "contract ILottery",
          "name": "_newLottery",
          "type": "address"
        }
      ],
      "name": "changeLottery",
      "outputs": [],
      "stateMutability": "nonpayable",
      "type": "function"
    },
    {
      "inputs": [
        {
          "internalType": "address payable",
          "name": "_newOperator",
          "type": "address"
        }
      ],
      "name": "changeOperator",
      "outputs": [],
      "stateMutability": "nonpayable",
      "type": "function"
    },
    {
      "inputs": [
        {
          "internalType": "contract IIntegrateToken",
          "name": "_newToken",
          "type": "address"
        }
      ],
      "name": "changeQuizToken",
      "outputs": [],
      "stateMutability": "nonpayable",
      "type": "function"
    },
    {
      "inputs": [
        {
          "internalType": "uint256",
          "name": "_newAmount",
          "type": "uint256"
        }
      ],
      "name": "changeRewardAmount",
      "outputs": [],
      "stateMutability": "nonpayable",
      "type": "function"
    },
    {
      "inputs": [],
      "name": "correctRewardAmount",
      "outputs": [
        {
          "internalType": "uint256",
          "name": "",
          "type": "uint256"
        }
      ],
      "stateMutability": "view",
      "type": "function"
    },
    {
      "inputs": [
        {
          "internalType": "string",
          "name": "_appId",
          "type": "string"
        },
        {
          "internalType": "uint256",
          "name": "_quizId",
          "type": "uint256"
        },
        {
          "internalType": "int256",
          "name": "_groupId",
          "type": "int256"
        },
        {
          "internalType": "uint256",
          "name": "_botType",
          "type": "uint256"
        },
        {
          "internalType": "string[]",
          "name": "_questions",
          "type": "string[]"
        },
        {
          "internalType": "uint256",
          "name": "_rewardAmount",
          "type": "uint256"
        },
        {
          "internalType": "uint256",
          "name": "_startTime",
          "type": "uint256"
        },
        {
          "internalType": "uint256",
          "name": "_activeTime",
          "type": "uint256"
        },
        {
          "internalType": "string",
          "name": "_title",
          "type": "string"
        },
        {
          "internalType": "string",
          "name": "_photo",
          "type": "string"
        }
      ],
      "name": "createQuiz",
      "outputs": [],
      "stateMutability": "payable",
      "type": "function"
    },
    {
      "inputs": [],
      "name": "dataStorage",
      "outputs": [
        {
          "internalType": "contract IDataStorage",
          "name": "",
          "type": "address"
        }
      ],
      "stateMutability": "view",
      "type": "function"
    },
    {
      "inputs": [
        {
          "internalType": "string",
          "name": "_appId",
          "type": "string"
        },
        {
          "internalType": "uint256",
          "name": "_quizId",
          "type": "uint256"
        },
        {
          "internalType": "int256",
          "name": "_groupId",
          "type": "int256"
        },
        {
          "internalType": "string[]",
          "name": "_questions",
          "type": "string[]"
        },
        {
          "internalType": "uint256",
          "name": "_startTime",
          "type": "uint256"
        },
        {
          "internalType": "uint256",
          "name": "_activeTime",
          "type": "uint256"
        },
        {
          "internalType": "string",
          "name": "_title",
          "type": "string"
        },
        {
          "internalType": "string",
          "name": "_photo",
          "type": "string"
        }
      ],
      "name": "editQuiz",
      "outputs": [],
      "stateMutability": "nonpayable",
      "type": "function"
    },
    {
      "inputs": [],
      "name": "excitationToken",
      "outputs": [
        {
          "internalType": "contract IIntegrateToken",
          "name": "",
          "type": "address"
        }
      ],
      "stateMutability": "view",
      "type": "function"
    },
    {
      "inputs": [],
      "name": "exciteAmount",
      "outputs": [
        {
          "internalType": "uint256",
          "name": "",
          "type": "uint256"
        }
      ],
      "stateMutability": "view",
      "type": "function"
    },
    {
      "inputs": [
        {
          "internalType": "string",
          "name": "_appId",
          "type": "string"
        }
      ],
      "name": "getAppQuizIds",
      "outputs": [
        {
          "internalType": "uint256[]",
          "name": "",
          "type": "uint256[]"
        }
      ],
      "stateMutability": "view",
      "type": "function"
    },
    {
      "inputs": [
        {
          "internalType": "uint256",
          "name": "_quizId",
          "type": "uint256"
        }
      ],
      "name": "getInductees",
      "outputs": [
        {
          "internalType": "address[]",
          "name": "",
          "type": "address[]"
        }
      ],
      "stateMutability": "view",
      "type": "function"
    },
    {
      "inputs": [
        {
          "internalType": "uint256",
          "name": "_quizId",
          "type": "uint256"
        },
        {
          "internalType": "uint256",
          "name": "_index",
          "type": "uint256"
        }
      ],
      "name": "getLotteryResults",
      "outputs": [
        {
          "internalType": "address[]",
          "name": "",
          "type": "address[]"
        }
      ],
      "stateMutability": "view",
      "type": "function"
    },
    {
      "inputs": [
        {
          "internalType": "uint256",
          "name": "_quizId",
          "type": "uint256"
        }
      ],
      "name": "getQuiz",
      "outputs": [
        {
          "components": [
            {
              "internalType": "uint256",
              "name": "id",
              "type": "uint256"
            },
            {
              "internalType": "string",
              "name": "app_id",
              "type": "string"
            },
            {
              "internalType": "string[]",
              "name": "questions",
              "type": "string[]"
            },
            {
              "internalType": "uint256",
              "name": "amount",
              "type": "uint256"
            },
            {
              "internalType": "int256",
              "name": "group",
              "type": "int256"
            },
            {
              "internalType": "uint256",
              "name": "botType",
              "type": "uint256"
            },
            {
              "internalType": "bool",
              "name": "exist",
              "type": "bool"
            },
            {
              "internalType": "bool",
              "name": "over",
              "type": "bool"
            },
            {
              "internalType": "uint256",
              "name": "startTime",
              "type": "uint256"
            },
            {
              "internalType": "uint256",
              "name": "activeTime",
              "type": "uint256"
            },
            {
              "internalType": "string",
              "name": "title",
              "type": "string"
            },
            {
              "internalType": "string",
              "name": "photo",
              "type": "string"
            },
            {
              "internalType": "uint256",
              "name": "participate",
              "type": "uint256"
            }
          ],
          "internalType": "struct IDataStorage.QuizDetail",
          "name": "",
          "type": "tuple"
        }
      ],
      "stateMutability": "view",
      "type": "function"
    },
    {
      "inputs": [
        {
          "internalType": "uint256[]",
          "name": "_ids",
          "type": "uint256[]"
        }
      ],
      "name": "getQuizzes",
      "outputs": [
        {
          "components": [
            {
              "internalType": "uint256",
              "name": "id",
              "type": "uint256"
            },
            {
              "internalType": "string",
              "name": "app_id",
              "type": "string"
            },
            {
              "internalType": "string[]",
              "name": "questions",
              "type": "string[]"
            },
            {
              "internalType": "uint256",
              "name": "amount",
              "type": "uint256"
            },
            {
              "internalType": "int256",
              "name": "group",
              "type": "int256"
            },
            {
              "internalType": "uint256",
              "name": "botType",
              "type": "uint256"
            },
            {
              "internalType": "bool",
              "name": "exist",
              "type": "bool"
            },
            {
              "internalType": "bool",
              "name": "over",
              "type": "bool"
            },
            {
              "internalType": "uint256",
              "name": "startTime",
              "type": "uint256"
            },
            {
              "internalType": "uint256",
              "name": "activeTime",
              "type": "uint256"
            },
            {
              "internalType": "string",
              "name": "title",
              "type": "string"
            },
            {
              "internalType": "string",
              "name": "photo",
              "type": "string"
            },
            {
              "internalType": "uint256",
              "name": "participate",
              "type": "uint256"
            }
          ],
          "internalType": "struct IDataStorage.QuizDetail[]",
          "name": "",
          "type": "tuple[]"
        }
      ],
      "stateMutability": "view",
      "type": "function"
    },
    {
      "inputs": [],
      "name": "getShouldAwardQuizIds",
      "outputs": [
        {
          "internalType": "uint256[]",
          "name": "",
          "type": "uint256[]"
        }
      ],
      "stateMutability": "view",
      "type": "function"
    },
    {
      "inputs": [],
      "name": "lottery",
      "outputs": [
        {
          "internalType": "contract ILottery",
          "name": "",
          "type": "address"
        }
      ],
      "stateMutability": "view",
      "type": "function"
    },
    {
      "inputs": [],
      "name": "operator",
      "outputs": [
        {
          "internalType": "address payable",
          "name": "",
          "type": "address"
        }
      ],
      "stateMutability": "view",
      "type": "function"
    },
    {
      "inputs": [],
      "name": "owner",
      "outputs": [
        {
          "internalType": "address",
          "name": "",
          "type": "address"
        }
      ],
      "stateMutability": "view",
      "type": "function"
    },
    {
      "inputs": [],
      "name": "quizToken",
      "outputs": [
        {
          "internalType": "contract IIntegrateToken",
          "name": "",
          "type": "address"
        }
      ],
      "stateMutability": "view",
      "type": "function"
    },
    {
      "inputs": [
        {
          "internalType": "string",
          "name": "",
          "type": "string"
        }
      ],
      "name": "quizTokens",
      "outputs": [
        {
          "internalType": "contract IIntegrateToken",
          "name": "",
          "type": "address"
        }
      ],
      "stateMutability": "view",
      "type": "function"
    },
    {
      "inputs": [
        {
          "internalType": "string",
          "name": "_appId",
          "type": "string"
        },
        {
          "internalType": "address",
          "name": "_cat",
          "type": "address"
        }
      ],
      "name": "setAppCat",
      "outputs": [],
      "stateMutability": "nonpayable",
      "type": "function"
    },
    {
      "inputs": [
        {
          "internalType": "string",
          "name": "_appId",
          "type": "string"
        },
        {
          "internalType": "contract IIntegrateToken",
          "name": "_newToken",
          "type": "address"
        }
      ],
      "name": "setAppQzt",
      "outputs": [],
      "stateMutability": "nonpayable",
      "type": "function"
    },
    {
      "inputs": [
        {
          "internalType": "address",
          "name": "_newOwner",
          "type": "address"
        }
      ],
      "name": "transferOwner",
      "outputs": [],
      "stateMutability": "nonpayable",
      "type": "function"
    }
  ],
  "bytecode": "0x60806040523480156200001157600080fd5b5060405162005ee238038062005ee283398181016040528101906200003791906200035f565b336000806101000a81548173ffffffffffffffffffffffffffffffffffffffff021916908373ffffffffffffffffffffffffffffffffffffffff16021790555086600160006101000a81548173ffffffffffffffffffffffffffffffffffffffff021916908373ffffffffffffffffffffffffffffffffffffffff16021790555085600360006101000a81548173ffffffffffffffffffffffffffffffffffffffff021916908373ffffffffffffffffffffffffffffffffffffffff16021790555083600560006101000a81548173ffffffffffffffffffffffffffffffffffffffff021916908373ffffffffffffffffffffffffffffffffffffffff16021790555084600460006101000a81548173ffffffffffffffffffffffffffffffffffffffff021916908373ffffffffffffffffffffffffffffffffffffffff16021790555082600660006101000a81548173ffffffffffffffffffffffffffffffffffffffff021916908373ffffffffffffffffffffffffffffffffffffffff1602179055508160098190555080600a819055505050505050505062000412565b600080fd5b600073ffffffffffffffffffffffffffffffffffffffff82169050919050565b60006200020982620001dc565b9050919050565b6200021b81620001fc565b81146200022757600080fd5b50565b6000815190506200023b8162000210565b92915050565b60006200024e82620001dc565b9050919050565b6000620002628262000241565b9050919050565b620002748162000255565b81146200028057600080fd5b50565b600081519050620002948162000269565b92915050565b6000620002a78262000241565b9050919050565b620002b9816200029a565b8114620002c557600080fd5b50565b600081519050620002d981620002ae565b92915050565b6000620002ec8262000241565b9050919050565b620002fe81620002df565b81146200030a57600080fd5b50565b6000815190506200031e81620002f3565b92915050565b6000819050919050565b620003398162000324565b81146200034557600080fd5b50565b60008151905062000359816200032e565b92915050565b600080600080600080600060e0888a031215620003815762000380620001d7565b5b6000620003918a828b016200022a565b9750506020620003a48a828b0162000283565b9650506040620003b78a828b01620002c8565b9550506060620003ca8a828b01620002c8565b9450506080620003dd8a828b016200030d565b93505060a0620003f08a828b0162000348565b92505060c0620004038a828b0162000348565b91505092959891949750929550565b615ac080620004226000396000f3fe6080604052600436106101d85760003560e01c8063a3bb8fbe11610102578063d35a8ff811610095578063dcdb1a6011610064578063dcdb1a60146106ab578063e5ee25cf146106d6578063ecb4e810146106ff578063f3f8112214610728576101d8565b8063d35a8ff8146105ec578063d435435514610608578063d8b9083014610631578063db27e1ab1461066e576101d8565b8063b68e71bf116100d1578063b68e71bf14610544578063b93833c31461056f578063ba13a57214610598578063c5d790a5146105c3576101d8565b8063a3bb8fbe14610462578063a3f7e0961461049f578063a772c8f8146104dc578063abc8b10714610519576101d8565b80634fb2e45d1161017a5780638307173f116101495780638307173f146103a65780638870455f146103cf5780638a20d49c146103fa5780638da5cb5b14610437576101d8565b80634fb2e45d146102fe578063512f8f9214610327578063570ca735146103505780637ed0b8461461037b576101d8565b80630c5d5bc3116101b65780630c5d5bc31461025857806327ea21321461028157806331d9a5f3146102aa5780634d054ce0146102d5576101d8565b806306394c9b146101dd57806308d199f8146102065780630bd099791461022f575b600080fd5b3480156101e957600080fd5b5061020460048036038101906101ff9190613764565b610765565b005b34801561021257600080fd5b5061022d60048036038101906102289190613a29565b610837565b005b34801561023b57600080fd5b5061025660048036038101906102519190613b4f565b610d49565b005b34801561026457600080fd5b5061027f600480360381019061027a9190613bfb565b610e38565b005b34801561028d57600080fd5b506102a860048036038101906102a39190613c66565b610f0a565b005b3480156102b657600080fd5b506102bf610fdc565b6040516102cc9190613d51565b60405180910390f35b3480156102e157600080fd5b506102fc60048036038101906102f79190613d9f565b611088565b005b34801561030a57600080fd5b5061032560048036038101906103209190613dfb565b611177565b005b34801561033357600080fd5b5061034e60048036038101906103499190613e66565b611248565b005b34801561035c57600080fd5b50610365611404565b6040516103729190613ea2565b60405180910390f35b34801561038757600080fd5b5061039061142a565b60405161039d9190613f1c565b60405180910390f35b3480156103b257600080fd5b506103cd60048036038101906103c89190613ffa565b611450565b005b3480156103db57600080fd5b506103e461192a565b6040516103f191906140ba565b60405180910390f35b34801561040657600080fd5b50610421600480360381019061041c91906140d5565b611950565b60405161042e91906141d3565b60405180910390f35b34801561044357600080fd5b5061044c611a0c565b6040516104599190614204565b60405180910390f35b34801561046e57600080fd5b506104896004803603810190610484919061421f565b611a30565b6040516104969190614289565b60405180910390f35b3480156104ab57600080fd5b506104c660048036038101906104c191906142a4565b611a79565b6040516104d39190614573565b60405180910390f35b3480156104e857600080fd5b5061050360048036038101906104fe9190614658565b611b38565b6040516105109190614891565b60405180910390f35b34801561052557600080fd5b5061052e611bf1565b60405161053b91906148c2565b60405180910390f35b34801561055057600080fd5b50610559611bf7565b6040516105669190613f1c565b60405180910390f35b34801561057b57600080fd5b50610596600480360381019061059191906142a4565b611c1d565b005b3480156105a457600080fd5b506105ad611cb5565b6040516105ba91906148fe565b60405180910390f35b3480156105cf57600080fd5b506105ea60048036038101906105e59190613c66565b611cdb565b005b61060660048036038101906106019190614919565b611dad565b005b34801561061457600080fd5b5061062f600480360381019061062a9190614a68565b61254a565b005b34801561063d57600080fd5b506106586004803603810190610653919061421f565b612639565b6040516106659190613f1c565b60405180910390f35b34801561067a57600080fd5b506106956004803603810190610690919061421f565b612682565b6040516106a29190613d51565b60405180910390f35b3480156106b757600080fd5b506106c061273b565b6040516106cd91906148c2565b60405180910390f35b3480156106e257600080fd5b506106fd60048036038101906106f89190614ac4565b612741565b005b34801561070b57600080fd5b50610726600480360381019061072191906142a4565b6133af565b005b34801561073457600080fd5b5061074f600480360381019061074a91906142a4565b613447565b60405161075c91906141d3565b60405180910390f35b60008054906101000a900473ffffffffffffffffffffffffffffffffffffffff1673ffffffffffffffffffffffffffffffffffffffff163373ffffffffffffffffffffffffffffffffffffffff16146107f3576040517f08c379a00000000000000000000000000000000000000000000000000000000081526004016107ea90614b7d565b60405180910390fd5b80600160006101000a81548173ffffffffffffffffffffffffffffffffffffffff021916908373ffffffffffffffffffffffffffffffffffffffff16021790555050565b87600660009054906101000a900473ffffffffffffffffffffffffffffffffffffffff1673ffffffffffffffffffffffffffffffffffffffff1663b796e2b082336040518363ffffffff1660e01b8152600401610895929190614bd6565b60206040518083038186803b1580156108ad57600080fd5b505afa1580156108c1573d6000803e3d6000fd5b505050506040513d601f19601f820116820180604052508101906108e59190614c32565b8061093d57503373ffffffffffffffffffffffffffffffffffffffff16600160009054906101000a900473ffffffffffffffffffffffffffffffffffffffff1673ffffffffffffffffffffffffffffffffffffffff16145b806109b157503373ffffffffffffffffffffffffffffffffffffffff1660028260405161096a9190614c9b565b908152602001604051809103902060009054906101000a900473ffffffffffffffffffffffffffffffffffffffff1673ffffffffffffffffffffffffffffffffffffffff16145b80610a0757503373ffffffffffffffffffffffffffffffffffffffff1660008054906101000a900473ffffffffffffffffffffffffffffffffffffffff1673ffffffffffffffffffffffffffffffffffffffff16145b610a46576040517f08c379a0000000000000000000000000000000000000000000000000000000008152600401610a3d90614cfe565b60405180910390fd5b876000811415610a8b576040517f08c379a0000000000000000000000000000000000000000000000000000000008152600401610a8290614d6a565b60405180910390fd5b600660009054906101000a900473ffffffffffffffffffffffffffffffffffffffff1673ffffffffffffffffffffffffffffffffffffffff1663a3f7e096826040518263ffffffff1660e01b8152600401610ae691906148c2565b60006040518083038186803b158015610afe57600080fd5b505afa158015610b12573d6000803e3d6000fd5b505050506040513d6000823e3d601f19601f82011682018060405250810190610b3b919061508b565b60c00151610b7e576040517f08c379a0000000000000000000000000000000000000000000000000000000008152600401610b7590615120565b60405180910390fd5b6000600660009054906101000a900473ffffffffffffffffffffffffffffffffffffffff1673ffffffffffffffffffffffffffffffffffffffff1663a3f7e0968b6040518263ffffffff1660e01b8152600401610bdb91906148c2565b60006040518083038186803b158015610bf357600080fd5b505afa158015610c07573d6000803e3d6000fd5b505050506040513d6000823e3d601f19601f82011682018060405250810190610c30919061508b565b905060008914610c4557888160800181815250505b600088511115610c59578781604001819052505b6000871115610c6e5786816101000181815250505b6000861115610c835785816101200181815250505b600085511115610c9857848161014001819052505b600084511115610cad57838161016001819052505b600660009054906101000a900473ffffffffffffffffffffffffffffffffffffffff1673ffffffffffffffffffffffffffffffffffffffff166301354e318c836040518363ffffffff1660e01b8152600401610d0a929190615140565b600060405180830381600087803b158015610d2457600080fd5b505af1158015610d38573d6000803e3d6000fd5b505050505050505050505050505050565b60008054906101000a900473ffffffffffffffffffffffffffffffffffffffff1673ffffffffffffffffffffffffffffffffffffffff163373ffffffffffffffffffffffffffffffffffffffff1614610dd7576040517f08c379a0000000000000000000000000000000000000000000000000000000008152600401610dce90614b7d565b60405180910390fd5b80600283604051610de89190614c9b565b908152602001604051809103902060006101000a81548173ffffffffffffffffffffffffffffffffffffffff021916908373ffffffffffffffffffffffffffffffffffffffff1602179055505050565b60008054906101000a900473ffffffffffffffffffffffffffffffffffffffff1673ffffffffffffffffffffffffffffffffffffffff163373ffffffffffffffffffffffffffffffffffffffff1614610ec6576040517f08c379a0000000000000000000000000000000000000000000000000000000008152600401610ebd90614b7d565b60405180910390fd5b80600660006101000a81548173ffffffffffffffffffffffffffffffffffffffff021916908373ffffffffffffffffffffffffffffffffffffffff16021790555050565b60008054906101000a900473ffffffffffffffffffffffffffffffffffffffff1673ffffffffffffffffffffffffffffffffffffffff163373ffffffffffffffffffffffffffffffffffffffff1614610f98576040517f08c379a0000000000000000000000000000000000000000000000000000000008152600401610f8f90614b7d565b60405180910390fd5b80600460006101000a81548173ffffffffffffffffffffffffffffffffffffffff021916908373ffffffffffffffffffffffffffffffffffffffff16021790555050565b6060600660009054906101000a900473ffffffffffffffffffffffffffffffffffffffff1673ffffffffffffffffffffffffffffffffffffffff166331d9a5f36040518163ffffffff1660e01b815260040160006040518083038186803b15801561104657600080fd5b505afa15801561105a573d6000803e3d6000fd5b505050506040513d6000823e3d601f19601f82011682018060405250810190611083919061520e565b905090565b60008054906101000a900473ffffffffffffffffffffffffffffffffffffffff1673ffffffffffffffffffffffffffffffffffffffff163373ffffffffffffffffffffffffffffffffffffffff1614611116576040517f08c379a000000000000000000000000000000000000000000000000000000000815260040161110d90614b7d565b60405180910390fd5b806008836040516111279190614c9b565b908152602001604051809103902060006101000a81548173ffffffffffffffffffffffffffffffffffffffff021916908373ffffffffffffffffffffffffffffffffffffffff1602179055505050565b60008054906101000a900473ffffffffffffffffffffffffffffffffffffffff1673ffffffffffffffffffffffffffffffffffffffff163373ffffffffffffffffffffffffffffffffffffffff1614611205576040517f08c379a00000000000000000000000000000000000000000000000000000000081526004016111fc90614b7d565b60405180910390fd5b806000806101000a81548173ffffffffffffffffffffffffffffffffffffffff021916908373ffffffffffffffffffffffffffffffffffffffff16021790555050565b60008054906101000a900473ffffffffffffffffffffffffffffffffffffffff1673ffffffffffffffffffffffffffffffffffffffff163373ffffffffffffffffffffffffffffffffffffffff16146112d6576040517f08c379a00000000000000000000000000000000000000000000000000000000081526004016112cd90614b7d565b60405180910390fd5b600073ffffffffffffffffffffffffffffffffffffffff16600360009054906101000a900473ffffffffffffffffffffffffffffffffffffffff1673ffffffffffffffffffffffffffffffffffffffff16146113c0576000819050600360009054906101000a900473ffffffffffffffffffffffffffffffffffffffff1673ffffffffffffffffffffffffffffffffffffffff1663c7d7b660826040518263ffffffff1660e01b815260040161138c9190613ea2565b600060405180830381600087803b1580156113a657600080fd5b505af11580156113ba573d6000803e3d6000fd5b50505050505b80600360006101000a81548173ffffffffffffffffffffffffffffffffffffffff021916908373ffffffffffffffffffffffffffffffffffffffff16021790555050565b600160009054906101000a900473ffffffffffffffffffffffffffffffffffffffff1681565b600560009054906101000a900473ffffffffffffffffffffffffffffffffffffffff1681565b826000811415611495576040517f08c379a000000000000000000000000000000000000000000000000000000000815260040161148c90614d6a565b60405180910390fd5b600660009054906101000a900473ffffffffffffffffffffffffffffffffffffffff1673ffffffffffffffffffffffffffffffffffffffff1663a3f7e096826040518263ffffffff1660e01b81526004016114f091906148c2565b60006040518083038186803b15801561150857600080fd5b505afa15801561151c573d6000803e3d6000fd5b505050506040513d6000823e3d601f19601f82011682018060405250810190611545919061508b565b60c00151611588576040517f08c379a000000000000000000000000000000000000000000000000000000000815260040161157f90615120565b60405180910390fd5b84600660009054906101000a900473ffffffffffffffffffffffffffffffffffffffff1673ffffffffffffffffffffffffffffffffffffffff1663b796e2b082336040518363ffffffff1660e01b81526004016115e6929190614bd6565b60206040518083038186803b1580156115fe57600080fd5b505afa158015611612573d6000803e3d6000fd5b505050506040513d601f19601f820116820180604052508101906116369190614c32565b8061168e57503373ffffffffffffffffffffffffffffffffffffffff16600160009054906101000a900473ffffffffffffffffffffffffffffffffffffffff1673ffffffffffffffffffffffffffffffffffffffff16145b8061170257503373ffffffffffffffffffffffffffffffffffffffff166002826040516116bb9190614c9b565b908152602001604051809103902060009054906101000a900473ffffffffffffffffffffffffffffffffffffffff1673ffffffffffffffffffffffffffffffffffffffff16145b8061175857503373ffffffffffffffffffffffffffffffffffffffff1660008054906101000a900473ffffffffffffffffffffffffffffffffffffffff1673ffffffffffffffffffffffffffffffffffffffff16145b611797576040517f08c379a000000000000000000000000000000000000000000000000000000000815260040161178e90614cfe565b60405180910390fd5b6000600660009054906101000a900473ffffffffffffffffffffffffffffffffffffffff1673ffffffffffffffffffffffffffffffffffffffff1663a3f7e096876040518263ffffffff1660e01b81526004016117f491906148c2565b60006040518083038186803b15801561180c57600080fd5b505afa158015611820573d6000803e3d6000fd5b505050506040513d6000823e3d601f19601f82011682018060405250810190611849919061508b565b90508060e0015115611890576040517f08c379a0000000000000000000000000000000000000000000000000000000008152600401611887906152a3565b60405180910390fd5b600660009054906101000a900473ffffffffffffffffffffffffffffffffffffffff1673ffffffffffffffffffffffffffffffffffffffff1663766be05c8787876040518463ffffffff1660e01b81526004016118ef939291906152c3565b600060405180830381600087803b15801561190957600080fd5b505af115801561191d573d6000803e3d6000fd5b5050505050505050505050565b600660009054906101000a900473ffffffffffffffffffffffffffffffffffffffff1681565b6060600660009054906101000a900473ffffffffffffffffffffffffffffffffffffffff1673ffffffffffffffffffffffffffffffffffffffff1663a890cb3a84846040518363ffffffff1660e01b81526004016119af929190615301565b60006040518083038186803b1580156119c757600080fd5b505afa1580156119db573d6000803e3d6000fd5b505050506040513d6000823e3d601f19601f82011682018060405250810190611a0491906153d6565b905092915050565b60008054906101000a900473ffffffffffffffffffffffffffffffffffffffff1681565b6008818051602081018201805184825260208301602085012081835280955050505050506000915054906101000a900473ffffffffffffffffffffffffffffffffffffffff1681565b611a81613686565b600660009054906101000a900473ffffffffffffffffffffffffffffffffffffffff1673ffffffffffffffffffffffffffffffffffffffff1663a3f7e096836040518263ffffffff1660e01b8152600401611adc91906148c2565b60006040518083038186803b158015611af457600080fd5b505afa158015611b08573d6000803e3d6000fd5b505050506040513d6000823e3d601f19601f82011682018060405250810190611b31919061508b565b9050919050565b6060600660009054906101000a900473ffffffffffffffffffffffffffffffffffffffff1673ffffffffffffffffffffffffffffffffffffffff1663a772c8f8836040518263ffffffff1660e01b8152600401611b959190613d51565b60006040518083038186803b158015611bad57600080fd5b505afa158015611bc1573d6000803e3d6000fd5b505050506040513d6000823e3d601f19601f82011682018060405250810190611bea9190615500565b9050919050565b60095481565b600460009054906101000a900473ffffffffffffffffffffffffffffffffffffffff1681565b60008054906101000a900473ffffffffffffffffffffffffffffffffffffffff1673ffffffffffffffffffffffffffffffffffffffff163373ffffffffffffffffffffffffffffffffffffffff1614611cab576040517f08c379a0000000000000000000000000000000000000000000000000000000008152600401611ca290614b7d565b60405180910390fd5b8060098190555050565b600360009054906101000a900473ffffffffffffffffffffffffffffffffffffffff1681565b60008054906101000a900473ffffffffffffffffffffffffffffffffffffffff1673ffffffffffffffffffffffffffffffffffffffff163373ffffffffffffffffffffffffffffffffffffffff1614611d69576040517f08c379a0000000000000000000000000000000000000000000000000000000008152600401611d6090614b7d565b60405180910390fd5b80600560006101000a81548173ffffffffffffffffffffffffffffffffffffffff021916908373ffffffffffffffffffffffffffffffffffffffff16021790555050565b89600660009054906101000a900473ffffffffffffffffffffffffffffffffffffffff1673ffffffffffffffffffffffffffffffffffffffff1663b796e2b082336040518363ffffffff1660e01b8152600401611e0b929190614bd6565b60206040518083038186803b158015611e2357600080fd5b505afa158015611e37573d6000803e3d6000fd5b505050506040513d601f19601f82011682018060405250810190611e5b9190614c32565b80611eb357503373ffffffffffffffffffffffffffffffffffffffff16600160009054906101000a900473ffffffffffffffffffffffffffffffffffffffff1673ffffffffffffffffffffffffffffffffffffffff16145b80611f2757503373ffffffffffffffffffffffffffffffffffffffff16600282604051611ee09190614c9b565b908152602001604051809103902060009054906101000a900473ffffffffffffffffffffffffffffffffffffffff1673ffffffffffffffffffffffffffffffffffffffff16145b80611f7d57503373ffffffffffffffffffffffffffffffffffffffff1660008054906101000a900473ffffffffffffffffffffffffffffffffffffffff1673ffffffffffffffffffffffffffffffffffffffff16145b611fbc576040517f08c379a0000000000000000000000000000000000000000000000000000000008152600401611fb390614cfe565b60405180910390fd5b60008a1415612000576040517f08c379a0000000000000000000000000000000000000000000000000000000008152600401611ff790614d6a565b60405180910390fd5b6000600660009054906101000a900473ffffffffffffffffffffffffffffffffffffffff1673ffffffffffffffffffffffffffffffffffffffff1663a3f7e0968c6040518263ffffffff1660e01b815260040161205d91906148c2565b60006040518083038186803b15801561207557600080fd5b505afa158015612089573d6000803e3d6000fd5b505050506040513d6000823e3d601f19601f820116820180604052508101906120b2919061508b565b90508060c00151156120f9576040517f08c379a00000000000000000000000000000000000000000000000000000000081526004016120f090615595565b60405180910390fd5b6009549650600060028d6040516121109190614c9b565b908152602001604051809103902060009054906101000a900473ffffffffffffffffffffffffffffffffffffffff169050600160009054906101000a900473ffffffffffffffffffffffffffffffffffffffff1673ffffffffffffffffffffffffffffffffffffffff163373ffffffffffffffffffffffffffffffffffffffff16141580156121eb575060008054906101000a900473ffffffffffffffffffffffffffffffffffffffff1673ffffffffffffffffffffffffffffffffffffffff163373ffffffffffffffffffffffffffffffffffffffff1614155b156123615760003411612233576040517f08c379a000000000000000000000000000000000000000000000000000000000815260040161222a90615601565b60405180910390fd5b600073ffffffffffffffffffffffffffffffffffffffff168173ffffffffffffffffffffffffffffffffffffffff16146122f657600034116122aa576040517f08c379a00000000000000000000000000000000000000000000000000000000081526004016122a190615601565b60405180910390fd5b8073ffffffffffffffffffffffffffffffffffffffff166108fc349081150290604051600060405180830381858888f193505050501580156122f0573d6000803e3d6000fd5b50612360565b600160009054906101000a900473ffffffffffffffffffffffffffffffffffffffff1673ffffffffffffffffffffffffffffffffffffffff166108fc349081150290604051600060405180830381858888f1935050505015801561235e573d6000803e3d6000fd5b505b5b8b8260000181815250508c8260200181905250878260600181815250508882604001819052508a82608001818152505060018260c0019015159081151581525050898260a0018181525050848261014001819052508382610160018190525086826101000181815250508582610120018181525050600660009054906101000a900473ffffffffffffffffffffffffffffffffffffffff1673ffffffffffffffffffffffffffffffffffffffff166301354e318e846040518363ffffffff1660e01b8152600401612433929190615140565b600060405180830381600087803b15801561244d57600080fd5b505af1158015612461573d6000803e3d6000fd5b50505050600560009054906101000a900473ffffffffffffffffffffffffffffffffffffffff1673ffffffffffffffffffffffffffffffffffffffff166340c10f1933600a546040518363ffffffff1660e01b81526004016124c4929190615621565b600060405180830381600087803b1580156124de57600080fd5b505af11580156124f2573d6000803e3d6000fd5b505050507f12d6be7d5b357e475ec38073de7e8d794f6d75a7fa0088146043f22255067e278d8d8d8d8d8d8d8d6040516125339897969594939291906156df565b60405180910390a150505050505050505050505050565b60008054906101000a900473ffffffffffffffffffffffffffffffffffffffff1673ffffffffffffffffffffffffffffffffffffffff163373ffffffffffffffffffffffffffffffffffffffff16146125d8576040517f08c379a00000000000000000000000000000000000000000000000000000000081526004016125cf90614b7d565b60405180910390fd5b806007836040516125e99190614c9b565b908152602001604051809103902060006101000a81548173ffffffffffffffffffffffffffffffffffffffff021916908373ffffffffffffffffffffffffffffffffffffffff1602179055505050565b6007818051602081018201805184825260208301602085012081835280955050505050506000915054906101000a900473ffffffffffffffffffffffffffffffffffffffff1681565b6060600660009054906101000a900473ffffffffffffffffffffffffffffffffffffffff1673ffffffffffffffffffffffffffffffffffffffff1663db27e1ab836040518263ffffffff1660e01b81526004016126df919061576b565b60006040518083038186803b1580156126f757600080fd5b505afa15801561270b573d6000803e3d6000fd5b505050506040513d6000823e3d601f19601f82011682018060405250810190612734919061520e565b9050919050565b600a5481565b806000811415612786576040517f08c379a000000000000000000000000000000000000000000000000000000000815260040161277d90614d6a565b60405180910390fd5b600660009054906101000a900473ffffffffffffffffffffffffffffffffffffffff1673ffffffffffffffffffffffffffffffffffffffff1663a3f7e096826040518263ffffffff1660e01b81526004016127e191906148c2565b60006040518083038186803b1580156127f957600080fd5b505afa15801561280d573d6000803e3d6000fd5b505050506040513d6000823e3d601f19601f82011682018060405250810190612836919061508b565b60c00151612879576040517f08c379a000000000000000000000000000000000000000000000000000000000815260040161287090615120565b60405180910390fd5b82600660009054906101000a900473ffffffffffffffffffffffffffffffffffffffff1673ffffffffffffffffffffffffffffffffffffffff1663b796e2b082336040518363ffffffff1660e01b81526004016128d7929190614bd6565b60206040518083038186803b1580156128ef57600080fd5b505afa158015612903573d6000803e3d6000fd5b505050506040513d601f19601f820116820180604052508101906129279190614c32565b8061297f57503373ffffffffffffffffffffffffffffffffffffffff16600160009054906101000a900473ffffffffffffffffffffffffffffffffffffffff1673ffffffffffffffffffffffffffffffffffffffff16145b806129f357503373ffffffffffffffffffffffffffffffffffffffff166002826040516129ac9190614c9b565b908152602001604051809103902060009054906101000a900473ffffffffffffffffffffffffffffffffffffffff1673ffffffffffffffffffffffffffffffffffffffff16145b80612a4957503373ffffffffffffffffffffffffffffffffffffffff1660008054906101000a900473ffffffffffffffffffffffffffffffffffffffff1673ffffffffffffffffffffffffffffffffffffffff16145b612a88576040517f08c379a0000000000000000000000000000000000000000000000000000000008152600401612a7f90614cfe565b60405180910390fd5b6000600660009054906101000a900473ffffffffffffffffffffffffffffffffffffffff1673ffffffffffffffffffffffffffffffffffffffff1663a3f7e096856040518263ffffffff1660e01b8152600401612ae591906148c2565b60006040518083038186803b158015612afd57600080fd5b505afa158015612b11573d6000803e3d6000fd5b505050506040513d6000823e3d601f19601f82011682018060405250810190612b3a919061508b565b90508060e0015115612b81576040517f08c379a0000000000000000000000000000000000000000000000000000000008152600401612b78906152a3565b60405180910390fd5b6000600660009054906101000a900473ffffffffffffffffffffffffffffffffffffffff1673ffffffffffffffffffffffffffffffffffffffff1663f3f81122866040518263ffffffff1660e01b8152600401612bde91906148c2565b60006040518083038186803b158015612bf657600080fd5b505afa158015612c0a573d6000803e3d6000fd5b505050506040513d6000823e3d601f19601f82011682018060405250810190612c3391906153d6565b905060005b815181101561327b57600073ffffffffffffffffffffffffffffffffffffffff16600788604051612c699190614c9b565b908152602001604051809103902060009054906101000a900473ffffffffffffffffffffffffffffffffffffffff1673ffffffffffffffffffffffffffffffffffffffff16146131b95760006009549050600073ffffffffffffffffffffffffffffffffffffffff16600889604051612ce29190614c9b565b908152602001604051809103902060009054906101000a900473ffffffffffffffffffffffffffffffffffffffff1673ffffffffffffffffffffffffffffffffffffffff16146130e2576000600889604051612d3e9190614c9b565b908152602001604051809103902060009054906101000a900473ffffffffffffffffffffffffffffffffffffffff1673ffffffffffffffffffffffffffffffffffffffff166370a08231858581518110612d9b57612d9a61578d565b5b60200260200101516040518263ffffffff1660e01b8152600401612dbf9190614204565b60206040518083038186803b158015612dd757600080fd5b505afa158015612deb573d6000803e3d6000fd5b505050506040513d601f19601f82011682018060405250810190612e0f91906157bc565b11156130dc576000600889604051612e279190614c9b565b908152602001604051809103902060009054906101000a900473ffffffffffffffffffffffffffffffffffffffff1673ffffffffffffffffffffffffffffffffffffffff166305c58df260088b604051612e819190614c9b565b908152602001604051809103902060009054906101000a900473ffffffffffffffffffffffffffffffffffffffff1673ffffffffffffffffffffffffffffffffffffffff16632f745c59878781518110612ede57612edd61578d565b5b602002602001015160006040518363ffffffff1660e01b8152600401612f05929190615824565b60206040518083038186803b158015612f1d57600080fd5b505afa158015612f31573d6000803e3d6000fd5b505050506040513d601f19601f82011682018060405250810190612f5591906157bc565b6040518263ffffffff1660e01b8152600401612f7191906148c2565b60206040518083038186803b158015612f8957600080fd5b505afa158015612f9d573d6000803e3d6000fd5b505050506040513d601f19601f82011682018060405250810190612fc191906157bc565b90506002811415612ffa57612ff36064612fe560968561350090919063ffffffff16565b61357b90919063ffffffff16565b91506130d6565b60038114156130435761303c61302d606461301f60fa8661350090919063ffffffff16565b61357b90919063ffffffff16565b836135c590919063ffffffff16565b91506130d5565b600481141561308d5761308661307760646130696101f48661350090919063ffffffff16565b61357b90919063ffffffff16565b836135c590919063ffffffff16565b91506130d4565b60058114156130d3576130d06130c160646130b36103e88661350090919063ffffffff16565b61357b90919063ffffffff16565b836135c590919063ffffffff16565b91505b5b5b5b506130e1565b600090505b5b60008111156131b3576007886040516130fb9190614c9b565b908152602001604051809103902060009054906101000a900473ffffffffffffffffffffffffffffffffffffffff1673ffffffffffffffffffffffffffffffffffffffff166340c10f198484815181106131585761315761578d565b5b60200260200101516009546040518363ffffffff1660e01b8152600401613180929190615621565b600060405180830381600087803b15801561319a57600080fd5b505af11580156131ae573d6000803e3d6000fd5b505050505b50613267565b600460009054906101000a900473ffffffffffffffffffffffffffffffffffffffff1673ffffffffffffffffffffffffffffffffffffffff166340c10f1983838151811061320a5761320961578d565b5b602002602001015185606001516040518363ffffffff1660e01b8152600401613234929190615621565b600060405180830381600087803b15801561324e57600080fd5b505af1158015613262573d6000803e3d6000fd5b505050505b600181613274919061587c565b9050612c38565b60018360e0019015159081151581525050600660009054906101000a900473ffffffffffffffffffffffffffffffffffffffff1673ffffffffffffffffffffffffffffffffffffffff1663828dd967876040518263ffffffff1660e01b81526004016132e791906148c2565b600060405180830381600087803b15801561330157600080fd5b505af1158015613315573d6000803e3d6000fd5b50505050600360009054906101000a900473ffffffffffffffffffffffffffffffffffffffff1673ffffffffffffffffffffffffffffffffffffffff166363e71afa876040518263ffffffff1660e01b815260040161337491906148c2565b600060405180830381600087803b15801561338e57600080fd5b505af11580156133a2573d6000803e3d6000fd5b5050505050505050505050565b60008054906101000a900473ffffffffffffffffffffffffffffffffffffffff1673ffffffffffffffffffffffffffffffffffffffff163373ffffffffffffffffffffffffffffffffffffffff161461343d576040517f08c379a000000000000000000000000000000000000000000000000000000000815260040161343490614b7d565b60405180910390fd5b80600a8190555050565b6060600660009054906101000a900473ffffffffffffffffffffffffffffffffffffffff1673ffffffffffffffffffffffffffffffffffffffff1663f3f81122836040518263ffffffff1660e01b81526004016134a491906148c2565b60006040518083038186803b1580156134bc57600080fd5b505afa1580156134d0573d6000803e3d6000fd5b505050506040513d6000823e3d601f19601f820116820180604052508101906134f991906153d6565b9050919050565b6000808314156135135760009050613575565b6000828461352191906158d2565b9050828482613530919061595b565b14613570576040517f08c379a0000000000000000000000000000000000000000000000000000000008152600401613567906159fe565b60405180910390fd5b809150505b92915050565b60006135bd83836040518060400160405280601a81526020017f536166654d6174683a206469766973696f6e206279207a65726f000000000000815250613623565b905092915050565b60008082846135d4919061587c565b905083811015613619576040517f08c379a000000000000000000000000000000000000000000000000000000000815260040161361090615a6a565b60405180910390fd5b8091505092915050565b6000808311829061366a576040517f08c379a0000000000000000000000000000000000000000000000000000000008152600401613661919061576b565b60405180910390fd5b5060008385613679919061595b565b9050809150509392505050565b604051806101a0016040528060008152602001606081526020016060815260200160008152602001600081526020016000815260200160001515815260200160001515815260200160008152602001600081526020016060815260200160608152602001600081525090565b6000604051905090565b600080fd5b600080fd5b600073ffffffffffffffffffffffffffffffffffffffff82169050919050565b600061373182613706565b9050919050565b61374181613726565b811461374c57600080fd5b50565b60008135905061375e81613738565b92915050565b60006020828403121561377a576137796136fc565b5b60006137888482850161374f565b91505092915050565b600080fd5b600080fd5b6000601f19601f8301169050919050565b7f4e487b7100000000000000000000000000000000000000000000000000000000600052604160045260246000fd5b6137e48261379b565b810181811067ffffffffffffffff82111715613803576138026137ac565b5b80604052505050565b60006138166136f2565b905061382282826137db565b919050565b600067ffffffffffffffff821115613842576138416137ac565b5b61384b8261379b565b9050602081019050919050565b82818337600083830152505050565b600061387a61387584613827565b61380c565b90508281526020810184848401111561389657613895613796565b5b6138a1848285613858565b509392505050565b600082601f8301126138be576138bd613791565b5b81356138ce848260208601613867565b91505092915050565b6000819050919050565b6138ea816138d7565b81146138f557600080fd5b50565b600081359050613907816138e1565b92915050565b6000819050919050565b6139208161390d565b811461392b57600080fd5b50565b60008135905061393d81613917565b92915050565b600067ffffffffffffffff82111561395e5761395d6137ac565b5b602082029050602081019050919050565b600080fd5b600061398761398284613943565b61380c565b905080838252602082019050602084028301858111156139aa576139a961396f565b5b835b818110156139f157803567ffffffffffffffff8111156139cf576139ce613791565b5b8086016139dc89826138a9565b855260208501945050506020810190506139ac565b5050509392505050565b600082601f830112613a1057613a0f613791565b5b8135613a20848260208601613974565b91505092915050565b600080600080600080600080610100898b031215613a4a57613a496136fc565b5b600089013567ffffffffffffffff811115613a6857613a67613701565b5b613a748b828c016138a9565b9850506020613a858b828c016138f8565b9750506040613a968b828c0161392e565b965050606089013567ffffffffffffffff811115613ab757613ab6613701565b5b613ac38b828c016139fb565b9550506080613ad48b828c016138f8565b94505060a0613ae58b828c016138f8565b93505060c089013567ffffffffffffffff811115613b0657613b05613701565b5b613b128b828c016138a9565b92505060e089013567ffffffffffffffff811115613b3357613b32613701565b5b613b3f8b828c016138a9565b9150509295985092959890939650565b60008060408385031215613b6657613b656136fc565b5b600083013567ffffffffffffffff811115613b8457613b83613701565b5b613b90858286016138a9565b9250506020613ba18582860161374f565b9150509250929050565b6000613bb682613706565b9050919050565b6000613bc882613bab565b9050919050565b613bd881613bbd565b8114613be357600080fd5b50565b600081359050613bf581613bcf565b92915050565b600060208284031215613c1157613c106136fc565b5b6000613c1f84828501613be6565b91505092915050565b6000613c3382613bab565b9050919050565b613c4381613c28565b8114613c4e57600080fd5b50565b600081359050613c6081613c3a565b92915050565b600060208284031215613c7c57613c7b6136fc565b5b6000613c8a84828501613c51565b91505092915050565b600081519050919050565b600082825260208201905092915050565b6000819050602082019050919050565b613cc8816138d7565b82525050565b6000613cda8383613cbf565b60208301905092915050565b6000602082019050919050565b6000613cfe82613c93565b613d088185613c9e565b9350613d1383613caf565b8060005b83811015613d44578151613d2b8882613cce565b9750613d3683613ce6565b925050600181019050613d17565b5085935050505092915050565b60006020820190508181036000830152613d6b8184613cf3565b905092915050565b613d7c81613bab565b8114613d8757600080fd5b50565b600081359050613d9981613d73565b92915050565b60008060408385031215613db657613db56136fc565b5b600083013567ffffffffffffffff811115613dd457613dd3613701565b5b613de0858286016138a9565b9250506020613df185828601613d8a565b9150509250929050565b600060208284031215613e1157613e106136fc565b5b6000613e1f84828501613d8a565b91505092915050565b6000613e3382613bab565b9050919050565b613e4381613e28565b8114613e4e57600080fd5b50565b600081359050613e6081613e3a565b92915050565b600060208284031215613e7c57613e7b6136fc565b5b6000613e8a84828501613e51565b91505092915050565b613e9c81613726565b82525050565b6000602082019050613eb76000830184613e93565b92915050565b6000819050919050565b6000613ee2613edd613ed884613706565b613ebd565b613706565b9050919050565b6000613ef482613ec7565b9050919050565b6000613f0682613ee9565b9050919050565b613f1681613efb565b82525050565b6000602082019050613f316000830184613f0d565b92915050565b600067ffffffffffffffff821115613f5257613f516137ac565b5b602082029050602081019050919050565b6000613f76613f7184613f37565b61380c565b90508083825260208201905060208402830185811115613f9957613f9861396f565b5b835b81811015613fc25780613fae8882613d8a565b845260208401935050602081019050613f9b565b5050509392505050565b600082601f830112613fe157613fe0613791565b5b8135613ff1848260208601613f63565b91505092915050565b60008060008060808587031215614014576140136136fc565b5b600085013567ffffffffffffffff81111561403257614031613701565b5b61403e878288016138a9565b945050602061404f878288016138f8565b935050604085013567ffffffffffffffff8111156140705761406f613701565b5b61407c87828801613fcc565b925050606061408d878288016138f8565b91505092959194509250565b60006140a482613ee9565b9050919050565b6140b481614099565b82525050565b60006020820190506140cf60008301846140ab565b92915050565b600080604083850312156140ec576140eb6136fc565b5b60006140fa858286016138f8565b925050602061410b858286016138f8565b9150509250929050565b600081519050919050565b600082825260208201905092915050565b6000819050602082019050919050565b61414a81613bab565b82525050565b600061415c8383614141565b60208301905092915050565b6000602082019050919050565b600061418082614115565b61418a8185614120565b935061419583614131565b8060005b838110156141c65781516141ad8882614150565b97506141b883614168565b925050600181019050614199565b5085935050505092915050565b600060208201905081810360008301526141ed8184614175565b905092915050565b6141fe81613bab565b82525050565b600060208201905061421960008301846141f5565b92915050565b600060208284031215614235576142346136fc565b5b600082013567ffffffffffffffff81111561425357614252613701565b5b61425f848285016138a9565b91505092915050565b600061427382613ee9565b9050919050565b61428381614268565b82525050565b600060208201905061429e600083018461427a565b92915050565b6000602082840312156142ba576142b96136fc565b5b60006142c8848285016138f8565b91505092915050565b600081519050919050565b600082825260208201905092915050565b60005b8381101561430b5780820151818401526020810190506142f0565b8381111561431a576000848401525b50505050565b600061432b826142d1565b61433581856142dc565b93506143458185602086016142ed565b61434e8161379b565b840191505092915050565b600081519050919050565b600082825260208201905092915050565b6000819050602082019050919050565b60006143918383614320565b905092915050565b6000602082019050919050565b60006143b182614359565b6143bb8185614364565b9350836020820285016143cd85614375565b8060005b8581101561440957848403895281516143ea8582614385565b94506143f583614399565b925060208a019950506001810190506143d1565b50829750879550505050505092915050565b6144248161390d565b82525050565b60008115159050919050565b61443f8161442a565b82525050565b60006101a08301600083015161445e6000860182613cbf565b50602083015184820360208601526144768282614320565b9150506040830151848203604086015261449082826143a6565b91505060608301516144a56060860182613cbf565b5060808301516144b8608086018261441b565b5060a08301516144cb60a0860182613cbf565b5060c08301516144de60c0860182614436565b5060e08301516144f160e0860182614436565b50610100830151614506610100860182613cbf565b5061012083015161451b610120860182613cbf565b506101408301518482036101408601526145358282614320565b9150506101608301518482036101608601526145518282614320565b915050610180830151614568610180860182613cbf565b508091505092915050565b6000602082019050818103600083015261458d8184614445565b905092915050565b600067ffffffffffffffff8211156145b0576145af6137ac565b5b602082029050602081019050919050565b60006145d46145cf84614595565b61380c565b905080838252602082019050602084028301858111156145f7576145f661396f565b5b835b81811015614620578061460c88826138f8565b8452602084019350506020810190506145f9565b5050509392505050565b600082601f83011261463f5761463e613791565b5b813561464f8482602086016145c1565b91505092915050565b60006020828403121561466e5761466d6136fc565b5b600082013567ffffffffffffffff81111561468c5761468b613701565b5b6146988482850161462a565b91505092915050565b600081519050919050565b600082825260208201905092915050565b6000819050602082019050919050565b60006101a0830160008301516146e66000860182613cbf565b50602083015184820360208601526146fe8282614320565b9150506040830151848203604086015261471882826143a6565b915050606083015161472d6060860182613cbf565b506080830151614740608086018261441b565b5060a083015161475360a0860182613cbf565b5060c083015161476660c0860182614436565b5060e083015161477960e0860182614436565b5061010083015161478e610100860182613cbf565b506101208301516147a3610120860182613cbf565b506101408301518482036101408601526147bd8282614320565b9150506101608301518482036101608601526147d98282614320565b9150506101808301516147f0610180860182613cbf565b508091505092915050565b600061480783836146cd565b905092915050565b6000602082019050919050565b6000614827826146a1565b61483181856146ac565b935083602082028501614843856146bd565b8060005b8581101561487f578484038952815161486085826147fb565b945061486b8361480f565b925060208a01995050600181019050614847565b50829750879550505050505092915050565b600060208201905081810360008301526148ab818461481c565b905092915050565b6148bc816138d7565b82525050565b60006020820190506148d760008301846148b3565b92915050565b60006148e882613ee9565b9050919050565b6148f8816148dd565b82525050565b600060208201905061491360008301846148ef565b92915050565b6000806000806000806000806000806101408b8d03121561493d5761493c6136fc565b5b60008b013567ffffffffffffffff81111561495b5761495a613701565b5b6149678d828e016138a9565b9a505060206149788d828e016138f8565b99505060406149898d828e0161392e565b985050606061499a8d828e016138f8565b97505060808b013567ffffffffffffffff8111156149bb576149ba613701565b5b6149c78d828e016139fb565b96505060a06149d88d828e016138f8565b95505060c06149e98d828e016138f8565b94505060e06149fa8d828e016138f8565b9350506101008b013567ffffffffffffffff811115614a1c57614a1b613701565b5b614a288d828e016138a9565b9250506101208b013567ffffffffffffffff811115614a4a57614a49613701565b5b614a568d828e016138a9565b9150509295989b9194979a5092959850565b60008060408385031215614a7f57614a7e6136fc565b5b600083013567ffffffffffffffff811115614a9d57614a9c613701565b5b614aa9858286016138a9565b9250506020614aba85828601613c51565b9150509250929050565b60008060408385031215614adb57614ada6136fc565b5b600083013567ffffffffffffffff811115614af957614af8613701565b5b614b05858286016138a9565b9250506020614b16858286016138f8565b9150509250929050565b600082825260208201905092915050565b7f4f6e6c79204f776e657200000000000000000000000000000000000000000000600082015250565b6000614b67600a83614b20565b9150614b7282614b31565b602082019050919050565b60006020820190508181036000830152614b9681614b5a565b9050919050565b6000614ba8826142d1565b614bb28185614b20565b9350614bc28185602086016142ed565b614bcb8161379b565b840191505092915050565b60006040820190508181036000830152614bf08185614b9d565b9050614bff60208301846141f5565b9392505050565b614c0f8161442a565b8114614c1a57600080fd5b50565b600081519050614c2c81614c06565b92915050565b600060208284031215614c4857614c476136fc565b5b6000614c5684828501614c1d565b91505092915050565b600081905092915050565b6000614c75826142d1565b614c7f8185614c5f565b9350614c8f8185602086016142ed565b80840191505092915050565b6000614ca78284614c6a565b915081905092915050565b7f4f6e6c792061646d696e00000000000000000000000000000000000000000000600082015250565b6000614ce8600a83614b20565b9150614cf382614cb2565b602082019050919050565b60006020820190508181036000830152614d1781614cdb565b9050919050565b7f696e76616c6964207175697a4964203000000000000000000000000000000000600082015250565b6000614d54601083614b20565b9150614d5f82614d1e565b602082019050919050565b60006020820190508181036000830152614d8381614d47565b9050919050565b600080fd5b600080fd5b600081519050614da3816138e1565b92915050565b6000614dbc614db784613827565b61380c565b905082815260208101848484011115614dd857614dd7613796565b5b614de38482856142ed565b509392505050565b600082601f830112614e0057614dff613791565b5b8151614e10848260208601614da9565b91505092915050565b6000614e2c614e2784613943565b61380c565b90508083825260208201905060208402830185811115614e4f57614e4e61396f565b5b835b81811015614e9657805167ffffffffffffffff811115614e7457614e73613791565b5b808601614e818982614deb565b85526020850194505050602081019050614e51565b5050509392505050565b600082601f830112614eb557614eb4613791565b5b8151614ec5848260208601614e19565b91505092915050565b600081519050614edd81613917565b92915050565b60006101a08284031215614efa57614ef9614d8a565b5b614f056101a061380c565b90506000614f1584828501614d94565b600083015250602082015167ffffffffffffffff811115614f3957614f38614d8f565b5b614f4584828501614deb565b602083015250604082015167ffffffffffffffff811115614f6957614f68614d8f565b5b614f7584828501614ea0565b6040830152506060614f8984828501614d94565b6060830152506080614f9d84828501614ece565b60808301525060a0614fb184828501614d94565b60a08301525060c0614fc584828501614c1d565b60c08301525060e0614fd984828501614c1d565b60e083015250610100614fee84828501614d94565b6101008301525061012061500484828501614d94565b6101208301525061014082015167ffffffffffffffff81111561502a57615029614d8f565b5b61503684828501614deb565b6101408301525061016082015167ffffffffffffffff81111561505c5761505b614d8f565b5b61506884828501614deb565b6101608301525061018061507e84828501614d94565b6101808301525092915050565b6000602082840312156150a1576150a06136fc565b5b600082015167ffffffffffffffff8111156150bf576150be613701565b5b6150cb84828501614ee3565b91505092915050565b7f6e6f6e6578697374656e74207175697a00000000000000000000000000000000600082015250565b600061510a601083614b20565b9150615115826150d4565b602082019050919050565b60006020820190508181036000830152615139816150fd565b9050919050565b6000604082019050818103600083015261515a8185614b9d565b9050818103602083015261516e8184614445565b90509392505050565b600061518a61518584614595565b61380c565b905080838252602082019050602084028301858111156151ad576151ac61396f565b5b835b818110156151d657806151c28882614d94565b8452602084019350506020810190506151af565b5050509392505050565b600082601f8301126151f5576151f4613791565b5b8151615205848260208601615177565b91505092915050565b600060208284031215615224576152236136fc565b5b600082015167ffffffffffffffff81111561524257615241613701565b5b61524e848285016151e0565b91505092915050565b7f7175697a206973206f7665720000000000000000000000000000000000000000600082015250565b600061528d600c83614b20565b915061529882615257565b602082019050919050565b600060208201905081810360008301526152bc81615280565b9050919050565b60006060820190506152d860008301866148b3565b81810360208301526152ea8185614175565b90506152f960408301846148b3565b949350505050565b600060408201905061531660008301856148b3565b61532360208301846148b3565b9392505050565b60008151905061533981613d73565b92915050565b600061535261534d84613f37565b61380c565b905080838252602082019050602084028301858111156153755761537461396f565b5b835b8181101561539e578061538a888261532a565b845260208401935050602081019050615377565b5050509392505050565b600082601f8301126153bd576153bc613791565b5b81516153cd84826020860161533f565b91505092915050565b6000602082840312156153ec576153eb6136fc565b5b600082015167ffffffffffffffff81111561540a57615409613701565b5b615416848285016153a8565b91505092915050565b600067ffffffffffffffff82111561543a576154396137ac565b5b602082029050602081019050919050565b600061545e6154598461541f565b61380c565b905080838252602082019050602084028301858111156154815761548061396f565b5b835b818110156154c857805167ffffffffffffffff8111156154a6576154a5613791565b5b8086016154b38982614ee3565b85526020850194505050602081019050615483565b5050509392505050565b600082601f8301126154e7576154e6613791565b5b81516154f784826020860161544b565b91505092915050565b600060208284031215615516576155156136fc565b5b600082015167ffffffffffffffff81111561553457615533613701565b5b615540848285016154d2565b91505092915050565b7f6578697374207175697a00000000000000000000000000000000000000000000600082015250565b600061557f600a83614b20565b915061558a82615549565b602082019050919050565b600060208201905081810360008301526155ae81615572565b9050919050565b7f796f752073686f756c642070726570617920666f722067617300000000000000600082015250565b60006155eb601983614b20565b91506155f6826155b5565b602082019050919050565b6000602082019050818103600083015261561a816155de565b9050919050565b600060408201905061563660008301856141f5565b61564360208301846148b3565b9392505050565b6156538161390d565b82525050565b600082825260208201905092915050565b600061567582614359565b61567f8185615659565b93508360208202850161569185614375565b8060005b858110156156cd57848403895281516156ae8582614385565b94506156b983614399565b925060208a01995050600181019050615695565b50829750879550505050505092915050565b60006101008201905081810360008301526156fa818b614b9d565b9050615709602083018a6148b3565b615716604083018961564a565b61572360608301886148b3565b8181036080830152615735818761566a565b905061574460a08301866148b3565b61575160c08301856148b3565b61575e60e08301846148b3565b9998505050505050505050565b600060208201905081810360008301526157858184614b9d565b905092915050565b7f4e487b7100000000000000000000000000000000000000000000000000000000600052603260045260246000fd5b6000602082840312156157d2576157d16136fc565b5b60006157e084828501614d94565b91505092915050565b6000819050919050565b600061580e615809615804846157e9565b613ebd565b6138d7565b9050919050565b61581e816157f3565b82525050565b600060408201905061583960008301856141f5565b6158466020830184615815565b9392505050565b7f4e487b7100000000000000000000000000000000000000000000000000000000600052601160045260246000fd5b6000615887826138d7565b9150615892836138d7565b9250827fffffffffffffffffffffffffffffffffffffffffffffffffffffffffffffffff038211156158c7576158c661584d565b5b828201905092915050565b60006158dd826138d7565b91506158e8836138d7565b9250817fffffffffffffffffffffffffffffffffffffffffffffffffffffffffffffffff04831182151516156159215761592061584d565b5b828202905092915050565b7f4e487b7100000000000000000000000000000000000000000000000000000000600052601260045260246000fd5b6000615966826138d7565b9150615971836138d7565b9250826159815761598061592c565b5b828204905092915050565b7f536166654d6174683a206d756c7469706c69636174696f6e206f766572666c6f60008201527f7700000000000000000000000000000000000000000000000000000000000000602082015250565b60006159e8602183614b20565b91506159f38261598c565b604082019050919050565b60006020820190508181036000830152615a17816159db565b9050919050565b7f536166654d6174683a206164646974696f6e206f766572666c6f770000000000600082015250565b6000615a54601b83614b20565b9150615a5f82615a1e565b602082019050919050565b60006020820190508181036000830152615a8381615a47565b905091905056fea2646970667358221220dcea6426af8598e96100b14d5d5589d0af6d66988f5b906b7708fe7eff79f40964736f6c63430008090033",
  "linkReferences": {},
  "deployedLinkReferences": {}
}