{
  "_format": "hh-sol-artifact-1",
  "contractName": "Quiz",
  "sourceName": "src/contracts/quiz/quiz.sol",
  "abi": [
    {
      "inputs": [
        {
          "internalType": "address payable",
          "name": "_operator",
          "type": "address"
        },
        {
          "internalType": "contract ILottery",
          "name": "_lottery",
          "type": "address"
        },
        {
          "internalType": "contract IIntegrateToken",
          "name": "_quizToken",
          "type": "address"
        },
        {
          "internalType": "contract IIntegrateToken",
          "name": "_excitationToken",
          "type": "address"
        },
        {
          "internalType": "contract IDataStorage",
          "name": "_storage",
          "type": "address"
        },
        {
          "internalType": "uint256",
          "name": "_rewardAmount",
          "type": "uint256"
        },
        {
          "internalType": "uint256",
          "name": "_exciteAmount",
          "type": "uint256"
        }
      ],
      "stateMutability": "nonpayable",
      "type": "constructor"
    },
    {
      "anonymous": false,
      "inputs": [
        {
          "indexed": false,
          "internalType": "bytes32",
          "name": "_quizId",
          "type": "bytes32"
        }
      ],
      "name": "Awards",
      "type": "event"
    },
    {
      "anonymous": false,
      "inputs": [
        {
          "indexed": false,
          "internalType": "string",
          "name": "_appId",
          "type": "string"
        },
        {
          "indexed": false,
          "internalType": "uint256",
          "name": "_quizId",
          "type": "uint256"
        },
        {
          "indexed": false,
          "internalType": "int256",
          "name": "_groupId",
          "type": "int256"
        },
        {
          "indexed": false,
          "internalType": "uint256",
          "name": "_botType",
          "type": "uint256"
        },
        {
          "indexed": false,
          "internalType": "string[]",
          "name": "questions",
          "type": "string[]"
        },
        {
          "indexed": false,
          "internalType": "uint256",
          "name": "_rewardAmount",
          "type": "uint256"
        },
        {
          "indexed": false,
          "internalType": "uint256",
          "name": "_startTime",
          "type": "uint256"
        },
        {
          "indexed": false,
          "internalType": "uint256",
          "name": "_activeTime",
          "type": "uint256"
        }
      ],
      "name": "CreateQuiz",
      "type": "event"
    },
    {
      "inputs": [
        {
          "internalType": "string",
          "name": "_appId",
          "type": "string"
        },
        {
          "internalType": "address payable",
          "name": "_newOperator",
          "type": "address"
        }
      ],
      "name": "addAppOperator",
      "outputs": [],
      "stateMutability": "nonpayable",
      "type": "function"
    },
    {
      "inputs": [
        {
          "internalType": "string",
          "name": "_appId",
          "type": "string"
        },
        {
          "internalType": "uint256",
          "name": "_quizId",
          "type": "uint256"
        },
        {
          "internalType": "address[]",
          "name": "_inductees",
          "type": "address[]"
        },
        {
          "internalType": "uint256",
          "name": "_participateNumber",
          "type": "uint256"
        }
      ],
      "name": "addInductees",
      "outputs": [],
      "stateMutability": "nonpayable",
      "type": "function"
    },
    {
      "inputs": [
        {
          "internalType": "string",
          "name": "_appId",
          "type": "string"
        },
        {
          "internalType": "uint256",
          "name": "_quizId",
          "type": "uint256"
        }
      ],
      "name": "awards",
      "outputs": [],
      "stateMutability": "nonpayable",
      "type": "function"
    },
    {
      "inputs": [
        {
          "internalType": "contract IDataStorage",
          "name": "_data",
          "type": "address"
        }
      ],
      "name": "changeDataStorage",
      "outputs": [],
      "stateMutability": "nonpayable",
      "type": "function"
    },
    {
      "inputs": [
        {
          "internalType": "contract IIntegrateToken",
          "name": "_newToken",
          "type": "address"
        }
      ],
      "name": "changeExcitationToken",
      "outputs": [],
      "stateMutability": "nonpayable",
      "type": "function"
    },
    {
      "inputs": [
        {
          "internalType": "uint256",
          "name": "_newAmount",
          "type": "uint256"
        }
      ],
      "name": "changeExciteAmount",
      "outputs": [],
      "stateMutability": "nonpayable",
      "type": "function"
    },
    {
      "inputs": [
        {
          "internalType": "contract ILottery",
          "name": "_newLottery",
          "type": "address"
        }
      ],
      "name": "changeLottery",
      "outputs": [],
      "stateMutability": "nonpayable",
      "type": "function"
    },
    {
      "inputs": [
        {
          "internalType": "address payable",
          "name": "_newOperator",
          "type": "address"
        }
      ],
      "name": "changeOperator",
      "outputs": [],
      "stateMutability": "nonpayable",
      "type": "function"
    },
    {
      "inputs": [
        {
          "internalType": "contract IIntegrateToken",
          "name": "_newToken",
          "type": "address"
        }
      ],
      "name": "changeQuizToken",
      "outputs": [],
      "stateMutability": "nonpayable",
      "type": "function"
    },
    {
      "inputs": [
        {
          "internalType": "uint256",
          "name": "_newAmount",
          "type": "uint256"
        }
      ],
      "name": "changeRewardAmount",
      "outputs": [],
      "stateMutability": "nonpayable",
      "type": "function"
    },
    {
      "inputs": [],
      "name": "correctRewardAmount",
      "outputs": [
        {
          "internalType": "uint256",
          "name": "",
          "type": "uint256"
        }
      ],
      "stateMutability": "view",
      "type": "function"
    },
    {
      "inputs": [
        {
          "internalType": "string",
          "name": "_appId",
          "type": "string"
        },
        {
          "internalType": "uint256",
          "name": "_quizId",
          "type": "uint256"
        },
        {
          "internalType": "int256",
          "name": "_groupId",
          "type": "int256"
        },
        {
          "internalType": "uint256",
          "name": "_botType",
          "type": "uint256"
        },
        {
          "internalType": "string[]",
          "name": "_questions",
          "type": "string[]"
        },
        {
          "internalType": "uint256",
          "name": "_rewardAmount",
          "type": "uint256"
        },
        {
          "internalType": "uint256",
          "name": "_startTime",
          "type": "uint256"
        },
        {
          "internalType": "uint256",
          "name": "_activeTime",
          "type": "uint256"
        },
        {
          "internalType": "string",
          "name": "_title",
          "type": "string"
        },
        {
          "internalType": "string",
          "name": "_photo",
          "type": "string"
        }
      ],
      "name": "createQuiz",
      "outputs": [],
      "stateMutability": "payable",
      "type": "function"
    },
    {
      "inputs": [],
      "name": "dataStorage",
      "outputs": [
        {
          "internalType": "contract IDataStorage",
          "name": "",
          "type": "address"
        }
      ],
      "stateMutability": "view",
      "type": "function"
    },
    {
      "inputs": [
        {
          "internalType": "string",
          "name": "_appId",
          "type": "string"
        },
        {
          "internalType": "uint256",
          "name": "_quizId",
          "type": "uint256"
        },
        {
          "internalType": "int256",
          "name": "_groupId",
          "type": "int256"
        },
        {
          "internalType": "string[]",
          "name": "_questions",
          "type": "string[]"
        },
        {
          "internalType": "uint256",
          "name": "_startTime",
          "type": "uint256"
        },
        {
          "internalType": "uint256",
          "name": "_activeTime",
          "type": "uint256"
        },
        {
          "internalType": "string",
          "name": "_title",
          "type": "string"
        },
        {
          "internalType": "string",
          "name": "_photo",
          "type": "string"
        }
      ],
      "name": "editQuiz",
      "outputs": [],
      "stateMutability": "nonpayable",
      "type": "function"
    },
    {
      "inputs": [],
      "name": "excitationToken",
      "outputs": [
        {
          "internalType": "contract IIntegrateToken",
          "name": "",
          "type": "address"
        }
      ],
      "stateMutability": "view",
      "type": "function"
    },
    {
      "inputs": [],
      "name": "exciteAmount",
      "outputs": [
        {
          "internalType": "uint256",
          "name": "",
          "type": "uint256"
        }
      ],
      "stateMutability": "view",
      "type": "function"
    },
    {
      "inputs": [
        {
          "internalType": "string",
          "name": "_appId",
          "type": "string"
        }
      ],
      "name": "getAppQuizIds",
      "outputs": [
        {
          "internalType": "uint256[]",
          "name": "",
          "type": "uint256[]"
        }
      ],
      "stateMutability": "view",
      "type": "function"
    },
    {
      "inputs": [
        {
          "internalType": "uint256",
          "name": "_quizId",
          "type": "uint256"
        }
      ],
      "name": "getInductees",
      "outputs": [
        {
          "internalType": "address[]",
          "name": "",
          "type": "address[]"
        }
      ],
      "stateMutability": "view",
      "type": "function"
    },
    {
      "inputs": [
        {
          "internalType": "uint256",
          "name": "_quizId",
          "type": "uint256"
        },
        {
          "internalType": "uint256",
          "name": "_index",
          "type": "uint256"
        }
      ],
      "name": "getLotteryResults",
      "outputs": [
        {
          "internalType": "address[]",
          "name": "",
          "type": "address[]"
        }
      ],
      "stateMutability": "view",
      "type": "function"
    },
    {
      "inputs": [
        {
          "internalType": "uint256",
          "name": "_quizId",
          "type": "uint256"
        }
      ],
      "name": "getQuiz",
      "outputs": [
        {
          "components": [
            {
              "internalType": "uint256",
              "name": "id",
              "type": "uint256"
            },
            {
              "internalType": "string",
              "name": "app_id",
              "type": "string"
            },
            {
              "internalType": "string[]",
              "name": "questions",
              "type": "string[]"
            },
            {
              "internalType": "uint256",
              "name": "amount",
              "type": "uint256"
            },
            {
              "internalType": "int256",
              "name": "group",
              "type": "int256"
            },
            {
              "internalType": "uint256",
              "name": "botType",
              "type": "uint256"
            },
            {
              "internalType": "bool",
              "name": "exist",
              "type": "bool"
            },
            {
              "internalType": "bool",
              "name": "over",
              "type": "bool"
            },
            {
              "internalType": "uint256",
              "name": "startTime",
              "type": "uint256"
            },
            {
              "internalType": "uint256",
              "name": "activeTime",
              "type": "uint256"
            },
            {
              "internalType": "string",
              "name": "title",
              "type": "string"
            },
            {
              "internalType": "string",
              "name": "photo",
              "type": "string"
            },
            {
              "internalType": "uint256",
              "name": "participate",
              "type": "uint256"
            }
          ],
          "internalType": "struct IDataStorage.QuizDetail",
          "name": "",
          "type": "tuple"
        }
      ],
      "stateMutability": "view",
      "type": "function"
    },
    {
      "inputs": [
        {
          "internalType": "uint256[]",
          "name": "_ids",
          "type": "uint256[]"
        }
      ],
      "name": "getQuizzes",
      "outputs": [
        {
          "components": [
            {
              "internalType": "uint256",
              "name": "id",
              "type": "uint256"
            },
            {
              "internalType": "string",
              "name": "app_id",
              "type": "string"
            },
            {
              "internalType": "string[]",
              "name": "questions",
              "type": "string[]"
            },
            {
              "internalType": "uint256",
              "name": "amount",
              "type": "uint256"
            },
            {
              "internalType": "int256",
              "name": "group",
              "type": "int256"
            },
            {
              "internalType": "uint256",
              "name": "botType",
              "type": "uint256"
            },
            {
              "internalType": "bool",
              "name": "exist",
              "type": "bool"
            },
            {
              "internalType": "bool",
              "name": "over",
              "type": "bool"
            },
            {
              "internalType": "uint256",
              "name": "startTime",
              "type": "uint256"
            },
            {
              "internalType": "uint256",
              "name": "activeTime",
              "type": "uint256"
            },
            {
              "internalType": "string",
              "name": "title",
              "type": "string"
            },
            {
              "internalType": "string",
              "name": "photo",
              "type": "string"
            },
            {
              "internalType": "uint256",
              "name": "participate",
              "type": "uint256"
            }
          ],
          "internalType": "struct IDataStorage.QuizDetail[]",
          "name": "",
          "type": "tuple[]"
        }
      ],
      "stateMutability": "view",
      "type": "function"
    },
    {
      "inputs": [],
      "name": "getShouldAwardQuizIds",
      "outputs": [
        {
          "internalType": "uint256[]",
          "name": "",
          "type": "uint256[]"
        }
      ],
      "stateMutability": "view",
      "type": "function"
    },
    {
      "inputs": [],
      "name": "lottery",
      "outputs": [
        {
          "internalType": "contract ILottery",
          "name": "",
          "type": "address"
        }
      ],
      "stateMutability": "view",
      "type": "function"
    },
    {
      "inputs": [],
      "name": "operator",
      "outputs": [
        {
          "internalType": "address payable",
          "name": "",
          "type": "address"
        }
      ],
      "stateMutability": "view",
      "type": "function"
    },
    {
      "inputs": [],
      "name": "owner",
      "outputs": [
        {
          "internalType": "address",
          "name": "",
          "type": "address"
        }
      ],
      "stateMutability": "view",
      "type": "function"
    },
    {
      "inputs": [],
      "name": "quizToken",
      "outputs": [
        {
          "internalType": "contract IIntegrateToken",
          "name": "",
          "type": "address"
        }
      ],
      "stateMutability": "view",
      "type": "function"
    },
    {
      "inputs": [
        {
          "internalType": "address",
          "name": "_newOwner",
          "type": "address"
        }
      ],
      "name": "transferOwner",
      "outputs": [],
      "stateMutability": "nonpayable",
      "type": "function"
    }
  ],
  "bytecode": "0x60806040523480156200001157600080fd5b506040516200513e3803806200513e83398181016040528101906200003791906200035f565b336000806101000a81548173ffffffffffffffffffffffffffffffffffffffff021916908373ffffffffffffffffffffffffffffffffffffffff16021790555086600160006101000a81548173ffffffffffffffffffffffffffffffffffffffff021916908373ffffffffffffffffffffffffffffffffffffffff16021790555085600360006101000a81548173ffffffffffffffffffffffffffffffffffffffff021916908373ffffffffffffffffffffffffffffffffffffffff16021790555084600460006101000a81548173ffffffffffffffffffffffffffffffffffffffff021916908373ffffffffffffffffffffffffffffffffffffffff16021790555083600560006101000a81548173ffffffffffffffffffffffffffffffffffffffff021916908373ffffffffffffffffffffffffffffffffffffffff16021790555082600660006101000a81548173ffffffffffffffffffffffffffffffffffffffff021916908373ffffffffffffffffffffffffffffffffffffffff16021790555081600781905550806008819055505050505050505062000412565b600080fd5b600073ffffffffffffffffffffffffffffffffffffffff82169050919050565b60006200020982620001dc565b9050919050565b6200021b81620001fc565b81146200022757600080fd5b50565b6000815190506200023b8162000210565b92915050565b60006200024e82620001dc565b9050919050565b6000620002628262000241565b9050919050565b620002748162000255565b81146200028057600080fd5b50565b600081519050620002948162000269565b92915050565b6000620002a78262000241565b9050919050565b620002b9816200029a565b8114620002c557600080fd5b50565b600081519050620002d981620002ae565b92915050565b6000620002ec8262000241565b9050919050565b620002fe81620002df565b81146200030a57600080fd5b50565b6000815190506200031e81620002f3565b92915050565b6000819050919050565b620003398162000324565b81146200034557600080fd5b50565b60008151905062000359816200032e565b92915050565b600080600080600080600060e0888a031215620003815762000380620001d7565b5b6000620003918a828b016200022a565b9750506020620003a48a828b0162000283565b9650506040620003b78a828b01620002c8565b9550506060620003ca8a828b01620002c8565b9450506080620003dd8a828b016200030d565b93505060a0620003f08a828b0162000348565b92505060c0620004038a828b0162000348565b91505092959891949750929550565b614d1c80620004226000396000f3fe6080604052600436106101ac5760003560e01c80638da5cb5b116100ec578063c5d790a51161008a578063dcdb1a6011610064578063dcdb1a60146105b3578063e5ee25cf146105de578063ecb4e81014610607578063f3f8112214610630576101ac565b8063c5d790a514610531578063d35a8ff81461055a578063db27e1ab14610576576101ac565b8063abc8b107116100c6578063abc8b10714610487578063b68e71bf146104b2578063b93833c3146104dd578063ba13a57214610506576101ac565b80638da5cb5b146103e2578063a3f7e0961461040d578063a772c8f81461044a576101ac565b80634fb2e45d116101595780637ed0b846116101335780637ed0b846146103265780638307173f146103515780638870455f1461037a5780638a20d49c146103a5576101ac565b80634fb2e45d146102a9578063512f8f92146102d2578063570ca735146102fb576101ac565b80630c5d5bc31161018a5780630c5d5bc31461022c57806327ea21321461025557806331d9a5f31461027e576101ac565b806306394c9b146101b157806308d199f8146101da5780630bd0997914610203575b600080fd5b3480156101bd57600080fd5b506101d860048036038101906101d39190612cfd565b61066d565b005b3480156101e657600080fd5b5061020160048036038101906101fc9190612fc2565b61073f565b005b34801561020f57600080fd5b5061022a600480360381019061022591906130e8565b610c51565b005b34801561023857600080fd5b50610253600480360381019061024e9190613194565b610d40565b005b34801561026157600080fd5b5061027c600480360381019061027791906131ff565b610e12565b005b34801561028a57600080fd5b50610293610ee4565b6040516102a091906132ea565b60405180910390f35b3480156102b557600080fd5b506102d060048036038101906102cb9190613338565b610f90565b005b3480156102de57600080fd5b506102f960048036038101906102f491906133a3565b611061565b005b34801561030757600080fd5b5061031061121d565b60405161031d91906133df565b60405180910390f35b34801561033257600080fd5b5061033b611243565b6040516103489190613459565b60405180910390f35b34801561035d57600080fd5b5061037860048036038101906103739190613537565b611269565b005b34801561038657600080fd5b5061038f611743565b60405161039c91906135f7565b60405180910390f35b3480156103b157600080fd5b506103cc60048036038101906103c79190613612565b611769565b6040516103d99190613710565b60405180910390f35b3480156103ee57600080fd5b506103f7611825565b6040516104049190613741565b60405180910390f35b34801561041957600080fd5b50610434600480360381019061042f919061375c565b611849565b6040516104419190613a2b565b60405180910390f35b34801561045657600080fd5b50610471600480360381019061046c9190613b10565b611908565b60405161047e9190613d49565b60405180910390f35b34801561049357600080fd5b5061049c6119c1565b6040516104a99190613d7a565b60405180910390f35b3480156104be57600080fd5b506104c76119c7565b6040516104d49190613459565b60405180910390f35b3480156104e957600080fd5b5061050460048036038101906104ff919061375c565b6119ed565b005b34801561051257600080fd5b5061051b611a85565b6040516105289190613db6565b60405180910390f35b34801561053d57600080fd5b50610558600480360381019061055391906131ff565b611aab565b005b610574600480360381019061056f9190613dd1565b611b7d565b005b34801561058257600080fd5b5061059d60048036038101906105989190613f20565b61231a565b6040516105aa91906132ea565b60405180910390f35b3480156105bf57600080fd5b506105c86123d3565b6040516105d59190613d7a565b60405180910390f35b3480156105ea57600080fd5b5061060560048036038101906106009190613f69565b6123d9565b005b34801561061357600080fd5b5061062e6004803603810190610629919061375c565b612ace565b005b34801561063c57600080fd5b506106576004803603810190610652919061375c565b612b66565b6040516106649190613710565b60405180910390f35b60008054906101000a900473ffffffffffffffffffffffffffffffffffffffff1673ffffffffffffffffffffffffffffffffffffffff163373ffffffffffffffffffffffffffffffffffffffff16146106fb576040517f08c379a00000000000000000000000000000000000000000000000000000000081526004016106f290614022565b60405180910390fd5b80600160006101000a81548173ffffffffffffffffffffffffffffffffffffffff021916908373ffffffffffffffffffffffffffffffffffffffff16021790555050565b87600660009054906101000a900473ffffffffffffffffffffffffffffffffffffffff1673ffffffffffffffffffffffffffffffffffffffff1663b796e2b082336040518363ffffffff1660e01b815260040161079d92919061407b565b60206040518083038186803b1580156107b557600080fd5b505afa1580156107c9573d6000803e3d6000fd5b505050506040513d601f19601f820116820180604052508101906107ed91906140d7565b8061084557503373ffffffffffffffffffffffffffffffffffffffff16600160009054906101000a900473ffffffffffffffffffffffffffffffffffffffff1673ffffffffffffffffffffffffffffffffffffffff16145b806108b957503373ffffffffffffffffffffffffffffffffffffffff166002826040516108729190614140565b908152602001604051809103902060009054906101000a900473ffffffffffffffffffffffffffffffffffffffff1673ffffffffffffffffffffffffffffffffffffffff16145b8061090f57503373ffffffffffffffffffffffffffffffffffffffff1660008054906101000a900473ffffffffffffffffffffffffffffffffffffffff1673ffffffffffffffffffffffffffffffffffffffff16145b61094e576040517f08c379a0000000000000000000000000000000000000000000000000000000008152600401610945906141a3565b60405180910390fd5b876000811415610993576040517f08c379a000000000000000000000000000000000000000000000000000000000815260040161098a9061420f565b60405180910390fd5b600660009054906101000a900473ffffffffffffffffffffffffffffffffffffffff1673ffffffffffffffffffffffffffffffffffffffff1663a3f7e096826040518263ffffffff1660e01b81526004016109ee9190613d7a565b60006040518083038186803b158015610a0657600080fd5b505afa158015610a1a573d6000803e3d6000fd5b505050506040513d6000823e3d601f19601f82011682018060405250810190610a439190614530565b60c00151610a86576040517f08c379a0000000000000000000000000000000000000000000000000000000008152600401610a7d906145c5565b60405180910390fd5b6000600660009054906101000a900473ffffffffffffffffffffffffffffffffffffffff1673ffffffffffffffffffffffffffffffffffffffff1663a3f7e0968b6040518263ffffffff1660e01b8152600401610ae39190613d7a565b60006040518083038186803b158015610afb57600080fd5b505afa158015610b0f573d6000803e3d6000fd5b505050506040513d6000823e3d601f19601f82011682018060405250810190610b389190614530565b905060008914610b4d57888160800181815250505b600088511115610b61578781604001819052505b6000871115610b765786816101000181815250505b6000861115610b8b5785816101200181815250505b600085511115610ba057848161014001819052505b600084511115610bb557838161016001819052505b600660009054906101000a900473ffffffffffffffffffffffffffffffffffffffff1673ffffffffffffffffffffffffffffffffffffffff166301354e318c836040518363ffffffff1660e01b8152600401610c129291906145e5565b600060405180830381600087803b158015610c2c57600080fd5b505af1158015610c40573d6000803e3d6000fd5b505050505050505050505050505050565b60008054906101000a900473ffffffffffffffffffffffffffffffffffffffff1673ffffffffffffffffffffffffffffffffffffffff163373ffffffffffffffffffffffffffffffffffffffff1614610cdf576040517f08c379a0000000000000000000000000000000000000000000000000000000008152600401610cd690614022565b60405180910390fd5b80600283604051610cf09190614140565b908152602001604051809103902060006101000a81548173ffffffffffffffffffffffffffffffffffffffff021916908373ffffffffffffffffffffffffffffffffffffffff1602179055505050565b60008054906101000a900473ffffffffffffffffffffffffffffffffffffffff1673ffffffffffffffffffffffffffffffffffffffff163373ffffffffffffffffffffffffffffffffffffffff1614610dce576040517f08c379a0000000000000000000000000000000000000000000000000000000008152600401610dc590614022565b60405180910390fd5b80600660006101000a81548173ffffffffffffffffffffffffffffffffffffffff021916908373ffffffffffffffffffffffffffffffffffffffff16021790555050565b60008054906101000a900473ffffffffffffffffffffffffffffffffffffffff1673ffffffffffffffffffffffffffffffffffffffff163373ffffffffffffffffffffffffffffffffffffffff1614610ea0576040517f08c379a0000000000000000000000000000000000000000000000000000000008152600401610e9790614022565b60405180910390fd5b80600460006101000a81548173ffffffffffffffffffffffffffffffffffffffff021916908373ffffffffffffffffffffffffffffffffffffffff16021790555050565b6060600660009054906101000a900473ffffffffffffffffffffffffffffffffffffffff1673ffffffffffffffffffffffffffffffffffffffff166331d9a5f36040518163ffffffff1660e01b815260040160006040518083038186803b158015610f4e57600080fd5b505afa158015610f62573d6000803e3d6000fd5b505050506040513d6000823e3d601f19601f82011682018060405250810190610f8b91906146b3565b905090565b60008054906101000a900473ffffffffffffffffffffffffffffffffffffffff1673ffffffffffffffffffffffffffffffffffffffff163373ffffffffffffffffffffffffffffffffffffffff161461101e576040517f08c379a000000000000000000000000000000000000000000000000000000000815260040161101590614022565b60405180910390fd5b806000806101000a81548173ffffffffffffffffffffffffffffffffffffffff021916908373ffffffffffffffffffffffffffffffffffffffff16021790555050565b60008054906101000a900473ffffffffffffffffffffffffffffffffffffffff1673ffffffffffffffffffffffffffffffffffffffff163373ffffffffffffffffffffffffffffffffffffffff16146110ef576040517f08c379a00000000000000000000000000000000000000000000000000000000081526004016110e690614022565b60405180910390fd5b600073ffffffffffffffffffffffffffffffffffffffff16600360009054906101000a900473ffffffffffffffffffffffffffffffffffffffff1673ffffffffffffffffffffffffffffffffffffffff16146111d9576000819050600360009054906101000a900473ffffffffffffffffffffffffffffffffffffffff1673ffffffffffffffffffffffffffffffffffffffff1663c7d7b660826040518263ffffffff1660e01b81526004016111a591906133df565b600060405180830381600087803b1580156111bf57600080fd5b505af11580156111d3573d6000803e3d6000fd5b50505050505b80600360006101000a81548173ffffffffffffffffffffffffffffffffffffffff021916908373ffffffffffffffffffffffffffffffffffffffff16021790555050565b600160009054906101000a900473ffffffffffffffffffffffffffffffffffffffff1681565b600560009054906101000a900473ffffffffffffffffffffffffffffffffffffffff1681565b8260008114156112ae576040517f08c379a00000000000000000000000000000000000000000000000000000000081526004016112a59061420f565b60405180910390fd5b600660009054906101000a900473ffffffffffffffffffffffffffffffffffffffff1673ffffffffffffffffffffffffffffffffffffffff1663a3f7e096826040518263ffffffff1660e01b81526004016113099190613d7a565b60006040518083038186803b15801561132157600080fd5b505afa158015611335573d6000803e3d6000fd5b505050506040513d6000823e3d601f19601f8201168201806040525081019061135e9190614530565b60c001516113a1576040517f08c379a0000000000000000000000000000000000000000000000000000000008152600401611398906145c5565b60405180910390fd5b84600660009054906101000a900473ffffffffffffffffffffffffffffffffffffffff1673ffffffffffffffffffffffffffffffffffffffff1663b796e2b082336040518363ffffffff1660e01b81526004016113ff92919061407b565b60206040518083038186803b15801561141757600080fd5b505afa15801561142b573d6000803e3d6000fd5b505050506040513d601f19601f8201168201806040525081019061144f91906140d7565b806114a757503373ffffffffffffffffffffffffffffffffffffffff16600160009054906101000a900473ffffffffffffffffffffffffffffffffffffffff1673ffffffffffffffffffffffffffffffffffffffff16145b8061151b57503373ffffffffffffffffffffffffffffffffffffffff166002826040516114d49190614140565b908152602001604051809103902060009054906101000a900473ffffffffffffffffffffffffffffffffffffffff1673ffffffffffffffffffffffffffffffffffffffff16145b8061157157503373ffffffffffffffffffffffffffffffffffffffff1660008054906101000a900473ffffffffffffffffffffffffffffffffffffffff1673ffffffffffffffffffffffffffffffffffffffff16145b6115b0576040517f08c379a00000000000000000000000000000000000000000000000000000000081526004016115a7906141a3565b60405180910390fd5b6000600660009054906101000a900473ffffffffffffffffffffffffffffffffffffffff1673ffffffffffffffffffffffffffffffffffffffff1663a3f7e096876040518263ffffffff1660e01b815260040161160d9190613d7a565b60006040518083038186803b15801561162557600080fd5b505afa158015611639573d6000803e3d6000fd5b505050506040513d6000823e3d601f19601f820116820180604052508101906116629190614530565b90508060e00151156116a9576040517f08c379a00000000000000000000000000000000000000000000000000000000081526004016116a090614748565b60405180910390fd5b600660009054906101000a900473ffffffffffffffffffffffffffffffffffffffff1673ffffffffffffffffffffffffffffffffffffffff1663766be05c8787876040518463ffffffff1660e01b815260040161170893929190614768565b600060405180830381600087803b15801561172257600080fd5b505af1158015611736573d6000803e3d6000fd5b5050505050505050505050565b600660009054906101000a900473ffffffffffffffffffffffffffffffffffffffff1681565b6060600660009054906101000a900473ffffffffffffffffffffffffffffffffffffffff1673ffffffffffffffffffffffffffffffffffffffff1663a890cb3a84846040518363ffffffff1660e01b81526004016117c89291906147a6565b60006040518083038186803b1580156117e057600080fd5b505afa1580156117f4573d6000803e3d6000fd5b505050506040513d6000823e3d601f19601f8201168201806040525081019061181d919061487b565b905092915050565b60008054906101000a900473ffffffffffffffffffffffffffffffffffffffff1681565b611851612c1f565b600660009054906101000a900473ffffffffffffffffffffffffffffffffffffffff1673ffffffffffffffffffffffffffffffffffffffff1663a3f7e096836040518263ffffffff1660e01b81526004016118ac9190613d7a565b60006040518083038186803b1580156118c457600080fd5b505afa1580156118d8573d6000803e3d6000fd5b505050506040513d6000823e3d601f19601f820116820180604052508101906119019190614530565b9050919050565b6060600660009054906101000a900473ffffffffffffffffffffffffffffffffffffffff1673ffffffffffffffffffffffffffffffffffffffff1663a772c8f8836040518263ffffffff1660e01b815260040161196591906132ea565b60006040518083038186803b15801561197d57600080fd5b505afa158015611991573d6000803e3d6000fd5b505050506040513d6000823e3d601f19601f820116820180604052508101906119ba91906149a5565b9050919050565b60075481565b600460009054906101000a900473ffffffffffffffffffffffffffffffffffffffff1681565b60008054906101000a900473ffffffffffffffffffffffffffffffffffffffff1673ffffffffffffffffffffffffffffffffffffffff163373ffffffffffffffffffffffffffffffffffffffff1614611a7b576040517f08c379a0000000000000000000000000000000000000000000000000000000008152600401611a7290614022565b60405180910390fd5b8060078190555050565b600360009054906101000a900473ffffffffffffffffffffffffffffffffffffffff1681565b60008054906101000a900473ffffffffffffffffffffffffffffffffffffffff1673ffffffffffffffffffffffffffffffffffffffff163373ffffffffffffffffffffffffffffffffffffffff1614611b39576040517f08c379a0000000000000000000000000000000000000000000000000000000008152600401611b3090614022565b60405180910390fd5b80600560006101000a81548173ffffffffffffffffffffffffffffffffffffffff021916908373ffffffffffffffffffffffffffffffffffffffff16021790555050565b89600660009054906101000a900473ffffffffffffffffffffffffffffffffffffffff1673ffffffffffffffffffffffffffffffffffffffff1663b796e2b082336040518363ffffffff1660e01b8152600401611bdb92919061407b565b60206040518083038186803b158015611bf357600080fd5b505afa158015611c07573d6000803e3d6000fd5b505050506040513d601f19601f82011682018060405250810190611c2b91906140d7565b80611c8357503373ffffffffffffffffffffffffffffffffffffffff16600160009054906101000a900473ffffffffffffffffffffffffffffffffffffffff1673ffffffffffffffffffffffffffffffffffffffff16145b80611cf757503373ffffffffffffffffffffffffffffffffffffffff16600282604051611cb09190614140565b908152602001604051809103902060009054906101000a900473ffffffffffffffffffffffffffffffffffffffff1673ffffffffffffffffffffffffffffffffffffffff16145b80611d4d57503373ffffffffffffffffffffffffffffffffffffffff1660008054906101000a900473ffffffffffffffffffffffffffffffffffffffff1673ffffffffffffffffffffffffffffffffffffffff16145b611d8c576040517f08c379a0000000000000000000000000000000000000000000000000000000008152600401611d83906141a3565b60405180910390fd5b60008a1415611dd0576040517f08c379a0000000000000000000000000000000000000000000000000000000008152600401611dc79061420f565b60405180910390fd5b6000600660009054906101000a900473ffffffffffffffffffffffffffffffffffffffff1673ffffffffffffffffffffffffffffffffffffffff1663a3f7e0968c6040518263ffffffff1660e01b8152600401611e2d9190613d7a565b60006040518083038186803b158015611e4557600080fd5b505afa158015611e59573d6000803e3d6000fd5b505050506040513d6000823e3d601f19601f82011682018060405250810190611e829190614530565b90508060c0015115611ec9576040517f08c379a0000000000000000000000000000000000000000000000000000000008152600401611ec090614a3a565b60405180910390fd5b6007549650600060028d604051611ee09190614140565b908152602001604051809103902060009054906101000a900473ffffffffffffffffffffffffffffffffffffffff169050600160009054906101000a900473ffffffffffffffffffffffffffffffffffffffff1673ffffffffffffffffffffffffffffffffffffffff163373ffffffffffffffffffffffffffffffffffffffff1614158015611fbb575060008054906101000a900473ffffffffffffffffffffffffffffffffffffffff1673ffffffffffffffffffffffffffffffffffffffff163373ffffffffffffffffffffffffffffffffffffffff1614155b156121315760003411612003576040517f08c379a0000000000000000000000000000000000000000000000000000000008152600401611ffa90614aa6565b60405180910390fd5b600073ffffffffffffffffffffffffffffffffffffffff168173ffffffffffffffffffffffffffffffffffffffff16146120c6576000341161207a576040517f08c379a000000000000000000000000000000000000000000000000000000000815260040161207190614aa6565b60405180910390fd5b8073ffffffffffffffffffffffffffffffffffffffff166108fc349081150290604051600060405180830381858888f193505050501580156120c0573d6000803e3d6000fd5b50612130565b600160009054906101000a900473ffffffffffffffffffffffffffffffffffffffff1673ffffffffffffffffffffffffffffffffffffffff166108fc349081150290604051600060405180830381858888f1935050505015801561212e573d6000803e3d6000fd5b505b5b8b8260000181815250508c8260200181905250878260600181815250508882604001819052508a82608001818152505060018260c0019015159081151581525050898260a0018181525050848261014001819052508382610160018190525086826101000181815250508582610120018181525050600660009054906101000a900473ffffffffffffffffffffffffffffffffffffffff1673ffffffffffffffffffffffffffffffffffffffff166301354e318e846040518363ffffffff1660e01b81526004016122039291906145e5565b600060405180830381600087803b15801561221d57600080fd5b505af1158015612231573d6000803e3d6000fd5b50505050600560009054906101000a900473ffffffffffffffffffffffffffffffffffffffff1673ffffffffffffffffffffffffffffffffffffffff166340c10f19336008546040518363ffffffff1660e01b8152600401612294929190614ac6565b600060405180830381600087803b1580156122ae57600080fd5b505af11580156122c2573d6000803e3d6000fd5b505050507f12d6be7d5b357e475ec38073de7e8d794f6d75a7fa0088146043f22255067e278d8d8d8d8d8d8d8d604051612303989796959493929190614b84565b60405180910390a150505050505050505050505050565b6060600660009054906101000a900473ffffffffffffffffffffffffffffffffffffffff1673ffffffffffffffffffffffffffffffffffffffff1663db27e1ab836040518263ffffffff1660e01b81526004016123779190614c10565b60006040518083038186803b15801561238f57600080fd5b505afa1580156123a3573d6000803e3d6000fd5b505050506040513d6000823e3d601f19601f820116820180604052508101906123cc91906146b3565b9050919050565b60085481565b80600081141561241e576040517f08c379a00000000000000000000000000000000000000000000000000000000081526004016124159061420f565b60405180910390fd5b600660009054906101000a900473ffffffffffffffffffffffffffffffffffffffff1673ffffffffffffffffffffffffffffffffffffffff1663a3f7e096826040518263ffffffff1660e01b81526004016124799190613d7a565b60006040518083038186803b15801561249157600080fd5b505afa1580156124a5573d6000803e3d6000fd5b505050506040513d6000823e3d601f19601f820116820180604052508101906124ce9190614530565b60c00151612511576040517f08c379a0000000000000000000000000000000000000000000000000000000008152600401612508906145c5565b60405180910390fd5b82600660009054906101000a900473ffffffffffffffffffffffffffffffffffffffff1673ffffffffffffffffffffffffffffffffffffffff1663b796e2b082336040518363ffffffff1660e01b815260040161256f92919061407b565b60206040518083038186803b15801561258757600080fd5b505afa15801561259b573d6000803e3d6000fd5b505050506040513d601f19601f820116820180604052508101906125bf91906140d7565b8061261757503373ffffffffffffffffffffffffffffffffffffffff16600160009054906101000a900473ffffffffffffffffffffffffffffffffffffffff1673ffffffffffffffffffffffffffffffffffffffff16145b8061268b57503373ffffffffffffffffffffffffffffffffffffffff166002826040516126449190614140565b908152602001604051809103902060009054906101000a900473ffffffffffffffffffffffffffffffffffffffff1673ffffffffffffffffffffffffffffffffffffffff16145b806126e157503373ffffffffffffffffffffffffffffffffffffffff1660008054906101000a900473ffffffffffffffffffffffffffffffffffffffff1673ffffffffffffffffffffffffffffffffffffffff16145b612720576040517f08c379a0000000000000000000000000000000000000000000000000000000008152600401612717906141a3565b60405180910390fd5b6000600660009054906101000a900473ffffffffffffffffffffffffffffffffffffffff1673ffffffffffffffffffffffffffffffffffffffff1663a3f7e096856040518263ffffffff1660e01b815260040161277d9190613d7a565b60006040518083038186803b15801561279557600080fd5b505afa1580156127a9573d6000803e3d6000fd5b505050506040513d6000823e3d601f19601f820116820180604052508101906127d29190614530565b90508060e0015115612819576040517f08c379a000000000000000000000000000000000000000000000000000000000815260040161281090614748565b60405180910390fd5b6000600660009054906101000a900473ffffffffffffffffffffffffffffffffffffffff1673ffffffffffffffffffffffffffffffffffffffff1663f3f81122866040518263ffffffff1660e01b81526004016128769190613d7a565b60006040518083038186803b15801561288e57600080fd5b505afa1580156128a2573d6000803e3d6000fd5b505050506040513d6000823e3d601f19601f820116820180604052508101906128cb919061487b565b905060005b815181101561299a57600460009054906101000a900473ffffffffffffffffffffffffffffffffffffffff1673ffffffffffffffffffffffffffffffffffffffff166340c10f1983838151811061292a57612929614c32565b5b602002602001015185606001516040518363ffffffff1660e01b8152600401612954929190614ac6565b600060405180830381600087803b15801561296e57600080fd5b505af1158015612982573d6000803e3d6000fd5b505050506001816129939190614c90565b90506128d0565b60018360e0019015159081151581525050600660009054906101000a900473ffffffffffffffffffffffffffffffffffffffff1673ffffffffffffffffffffffffffffffffffffffff1663828dd967876040518263ffffffff1660e01b8152600401612a069190613d7a565b600060405180830381600087803b158015612a2057600080fd5b505af1158015612a34573d6000803e3d6000fd5b50505050600360009054906101000a900473ffffffffffffffffffffffffffffffffffffffff1673ffffffffffffffffffffffffffffffffffffffff166363e71afa876040518263ffffffff1660e01b8152600401612a939190613d7a565b600060405180830381600087803b158015612aad57600080fd5b505af1158015612ac1573d6000803e3d6000fd5b5050505050505050505050565b60008054906101000a900473ffffffffffffffffffffffffffffffffffffffff1673ffffffffffffffffffffffffffffffffffffffff163373ffffffffffffffffffffffffffffffffffffffff1614612b5c576040517f08c379a0000000000000000000000000000000000000000000000000000000008152600401612b5390614022565b60405180910390fd5b8060088190555050565b6060600660009054906101000a900473ffffffffffffffffffffffffffffffffffffffff1673ffffffffffffffffffffffffffffffffffffffff1663f3f81122836040518263ffffffff1660e01b8152600401612bc39190613d7a565b60006040518083038186803b158015612bdb57600080fd5b505afa158015612bef573d6000803e3d6000fd5b505050506040513d6000823e3d601f19601f82011682018060405250810190612c18919061487b565b9050919050565b604051806101a0016040528060008152602001606081526020016060815260200160008152602001600081526020016000815260200160001515815260200160001515815260200160008152602001600081526020016060815260200160608152602001600081525090565b6000604051905090565b600080fd5b600080fd5b600073ffffffffffffffffffffffffffffffffffffffff82169050919050565b6000612cca82612c9f565b9050919050565b612cda81612cbf565b8114612ce557600080fd5b50565b600081359050612cf781612cd1565b92915050565b600060208284031215612d1357612d12612c95565b5b6000612d2184828501612ce8565b91505092915050565b600080fd5b600080fd5b6000601f19601f8301169050919050565b7f4e487b7100000000000000000000000000000000000000000000000000000000600052604160045260246000fd5b612d7d82612d34565b810181811067ffffffffffffffff82111715612d9c57612d9b612d45565b5b80604052505050565b6000612daf612c8b565b9050612dbb8282612d74565b919050565b600067ffffffffffffffff821115612ddb57612dda612d45565b5b612de482612d34565b9050602081019050919050565b82818337600083830152505050565b6000612e13612e0e84612dc0565b612da5565b905082815260208101848484011115612e2f57612e2e612d2f565b5b612e3a848285612df1565b509392505050565b600082601f830112612e5757612e56612d2a565b5b8135612e67848260208601612e00565b91505092915050565b6000819050919050565b612e8381612e70565b8114612e8e57600080fd5b50565b600081359050612ea081612e7a565b92915050565b6000819050919050565b612eb981612ea6565b8114612ec457600080fd5b50565b600081359050612ed681612eb0565b92915050565b600067ffffffffffffffff821115612ef757612ef6612d45565b5b602082029050602081019050919050565b600080fd5b6000612f20612f1b84612edc565b612da5565b90508083825260208201905060208402830185811115612f4357612f42612f08565b5b835b81811015612f8a57803567ffffffffffffffff811115612f6857612f67612d2a565b5b808601612f758982612e42565b85526020850194505050602081019050612f45565b5050509392505050565b600082601f830112612fa957612fa8612d2a565b5b8135612fb9848260208601612f0d565b91505092915050565b600080600080600080600080610100898b031215612fe357612fe2612c95565b5b600089013567ffffffffffffffff81111561300157613000612c9a565b5b61300d8b828c01612e42565b985050602061301e8b828c01612e91565b975050604061302f8b828c01612ec7565b965050606089013567ffffffffffffffff8111156130505761304f612c9a565b5b61305c8b828c01612f94565b955050608061306d8b828c01612e91565b94505060a061307e8b828c01612e91565b93505060c089013567ffffffffffffffff81111561309f5761309e612c9a565b5b6130ab8b828c01612e42565b92505060e089013567ffffffffffffffff8111156130cc576130cb612c9a565b5b6130d88b828c01612e42565b9150509295985092959890939650565b600080604083850312156130ff576130fe612c95565b5b600083013567ffffffffffffffff81111561311d5761311c612c9a565b5b61312985828601612e42565b925050602061313a85828601612ce8565b9150509250929050565b600061314f82612c9f565b9050919050565b600061316182613144565b9050919050565b61317181613156565b811461317c57600080fd5b50565b60008135905061318e81613168565b92915050565b6000602082840312156131aa576131a9612c95565b5b60006131b88482850161317f565b91505092915050565b60006131cc82613144565b9050919050565b6131dc816131c1565b81146131e757600080fd5b50565b6000813590506131f9816131d3565b92915050565b60006020828403121561321557613214612c95565b5b6000613223848285016131ea565b91505092915050565b600081519050919050565b600082825260208201905092915050565b6000819050602082019050919050565b61326181612e70565b82525050565b60006132738383613258565b60208301905092915050565b6000602082019050919050565b60006132978261322c565b6132a18185613237565b93506132ac83613248565b8060005b838110156132dd5781516132c48882613267565b97506132cf8361327f565b9250506001810190506132b0565b5085935050505092915050565b60006020820190508181036000830152613304818461328c565b905092915050565b61331581613144565b811461332057600080fd5b50565b6000813590506133328161330c565b92915050565b60006020828403121561334e5761334d612c95565b5b600061335c84828501613323565b91505092915050565b600061337082613144565b9050919050565b61338081613365565b811461338b57600080fd5b50565b60008135905061339d81613377565b92915050565b6000602082840312156133b9576133b8612c95565b5b60006133c78482850161338e565b91505092915050565b6133d981612cbf565b82525050565b60006020820190506133f460008301846133d0565b92915050565b6000819050919050565b600061341f61341a61341584612c9f565b6133fa565b612c9f565b9050919050565b600061343182613404565b9050919050565b600061344382613426565b9050919050565b61345381613438565b82525050565b600060208201905061346e600083018461344a565b92915050565b600067ffffffffffffffff82111561348f5761348e612d45565b5b602082029050602081019050919050565b60006134b36134ae84613474565b612da5565b905080838252602082019050602084028301858111156134d6576134d5612f08565b5b835b818110156134ff57806134eb8882613323565b8452602084019350506020810190506134d8565b5050509392505050565b600082601f83011261351e5761351d612d2a565b5b813561352e8482602086016134a0565b91505092915050565b6000806000806080858703121561355157613550612c95565b5b600085013567ffffffffffffffff81111561356f5761356e612c9a565b5b61357b87828801612e42565b945050602061358c87828801612e91565b935050604085013567ffffffffffffffff8111156135ad576135ac612c9a565b5b6135b987828801613509565b92505060606135ca87828801612e91565b91505092959194509250565b60006135e182613426565b9050919050565b6135f1816135d6565b82525050565b600060208201905061360c60008301846135e8565b92915050565b6000806040838503121561362957613628612c95565b5b600061363785828601612e91565b925050602061364885828601612e91565b9150509250929050565b600081519050919050565b600082825260208201905092915050565b6000819050602082019050919050565b61368781613144565b82525050565b6000613699838361367e565b60208301905092915050565b6000602082019050919050565b60006136bd82613652565b6136c7818561365d565b93506136d28361366e565b8060005b838110156137035781516136ea888261368d565b97506136f5836136a5565b9250506001810190506136d6565b5085935050505092915050565b6000602082019050818103600083015261372a81846136b2565b905092915050565b61373b81613144565b82525050565b60006020820190506137566000830184613732565b92915050565b60006020828403121561377257613771612c95565b5b600061378084828501612e91565b91505092915050565b600081519050919050565b600082825260208201905092915050565b60005b838110156137c35780820151818401526020810190506137a8565b838111156137d2576000848401525b50505050565b60006137e382613789565b6137ed8185613794565b93506137fd8185602086016137a5565b61380681612d34565b840191505092915050565b600081519050919050565b600082825260208201905092915050565b6000819050602082019050919050565b600061384983836137d8565b905092915050565b6000602082019050919050565b600061386982613811565b613873818561381c565b9350836020820285016138858561382d565b8060005b858110156138c157848403895281516138a2858261383d565b94506138ad83613851565b925060208a01995050600181019050613889565b50829750879550505050505092915050565b6138dc81612ea6565b82525050565b60008115159050919050565b6138f7816138e2565b82525050565b60006101a0830160008301516139166000860182613258565b506020830151848203602086015261392e82826137d8565b91505060408301518482036040860152613948828261385e565b915050606083015161395d6060860182613258565b50608083015161397060808601826138d3565b5060a083015161398360a0860182613258565b5060c083015161399660c08601826138ee565b5060e08301516139a960e08601826138ee565b506101008301516139be610100860182613258565b506101208301516139d3610120860182613258565b506101408301518482036101408601526139ed82826137d8565b915050610160830151848203610160860152613a0982826137d8565b915050610180830151613a20610180860182613258565b508091505092915050565b60006020820190508181036000830152613a4581846138fd565b905092915050565b600067ffffffffffffffff821115613a6857613a67612d45565b5b602082029050602081019050919050565b6000613a8c613a8784613a4d565b612da5565b90508083825260208201905060208402830185811115613aaf57613aae612f08565b5b835b81811015613ad85780613ac48882612e91565b845260208401935050602081019050613ab1565b5050509392505050565b600082601f830112613af757613af6612d2a565b5b8135613b07848260208601613a79565b91505092915050565b600060208284031215613b2657613b25612c95565b5b600082013567ffffffffffffffff811115613b4457613b43612c9a565b5b613b5084828501613ae2565b91505092915050565b600081519050919050565b600082825260208201905092915050565b6000819050602082019050919050565b60006101a083016000830151613b9e6000860182613258565b5060208301518482036020860152613bb682826137d8565b91505060408301518482036040860152613bd0828261385e565b9150506060830151613be56060860182613258565b506080830151613bf860808601826138d3565b5060a0830151613c0b60a0860182613258565b5060c0830151613c1e60c08601826138ee565b5060e0830151613c3160e08601826138ee565b50610100830151613c46610100860182613258565b50610120830151613c5b610120860182613258565b50610140830151848203610140860152613c7582826137d8565b915050610160830151848203610160860152613c9182826137d8565b915050610180830151613ca8610180860182613258565b508091505092915050565b6000613cbf8383613b85565b905092915050565b6000602082019050919050565b6000613cdf82613b59565b613ce98185613b64565b935083602082028501613cfb85613b75565b8060005b85811015613d375784840389528151613d188582613cb3565b9450613d2383613cc7565b925060208a01995050600181019050613cff565b50829750879550505050505092915050565b60006020820190508181036000830152613d638184613cd4565b905092915050565b613d7481612e70565b82525050565b6000602082019050613d8f6000830184613d6b565b92915050565b6000613da082613426565b9050919050565b613db081613d95565b82525050565b6000602082019050613dcb6000830184613da7565b92915050565b6000806000806000806000806000806101408b8d031215613df557613df4612c95565b5b60008b013567ffffffffffffffff811115613e1357613e12612c9a565b5b613e1f8d828e01612e42565b9a50506020613e308d828e01612e91565b9950506040613e418d828e01612ec7565b9850506060613e528d828e01612e91565b97505060808b013567ffffffffffffffff811115613e7357613e72612c9a565b5b613e7f8d828e01612f94565b96505060a0613e908d828e01612e91565b95505060c0613ea18d828e01612e91565b94505060e0613eb28d828e01612e91565b9350506101008b013567ffffffffffffffff811115613ed457613ed3612c9a565b5b613ee08d828e01612e42565b9250506101208b013567ffffffffffffffff811115613f0257613f01612c9a565b5b613f0e8d828e01612e42565b9150509295989b9194979a5092959850565b600060208284031215613f3657613f35612c95565b5b600082013567ffffffffffffffff811115613f5457613f53612c9a565b5b613f6084828501612e42565b91505092915050565b60008060408385031215613f8057613f7f612c95565b5b600083013567ffffffffffffffff811115613f9e57613f9d612c9a565b5b613faa85828601612e42565b9250506020613fbb85828601612e91565b9150509250929050565b600082825260208201905092915050565b7f4f6e6c79204f776e657200000000000000000000000000000000000000000000600082015250565b600061400c600a83613fc5565b915061401782613fd6565b602082019050919050565b6000602082019050818103600083015261403b81613fff565b9050919050565b600061404d82613789565b6140578185613fc5565b93506140678185602086016137a5565b61407081612d34565b840191505092915050565b600060408201905081810360008301526140958185614042565b90506140a46020830184613732565b9392505050565b6140b4816138e2565b81146140bf57600080fd5b50565b6000815190506140d1816140ab565b92915050565b6000602082840312156140ed576140ec612c95565b5b60006140fb848285016140c2565b91505092915050565b600081905092915050565b600061411a82613789565b6141248185614104565b93506141348185602086016137a5565b80840191505092915050565b600061414c828461410f565b915081905092915050565b7f4f6e6c792061646d696e00000000000000000000000000000000000000000000600082015250565b600061418d600a83613fc5565b915061419882614157565b602082019050919050565b600060208201905081810360008301526141bc81614180565b9050919050565b7f696e76616c6964207175697a4964203000000000000000000000000000000000600082015250565b60006141f9601083613fc5565b9150614204826141c3565b602082019050919050565b60006020820190508181036000830152614228816141ec565b9050919050565b600080fd5b600080fd5b60008151905061424881612e7a565b92915050565b600061426161425c84612dc0565b612da5565b90508281526020810184848401111561427d5761427c612d2f565b5b6142888482856137a5565b509392505050565b600082601f8301126142a5576142a4612d2a565b5b81516142b584826020860161424e565b91505092915050565b60006142d16142cc84612edc565b612da5565b905080838252602082019050602084028301858111156142f4576142f3612f08565b5b835b8181101561433b57805167ffffffffffffffff81111561431957614318612d2a565b5b8086016143268982614290565b855260208501945050506020810190506142f6565b5050509392505050565b600082601f83011261435a57614359612d2a565b5b815161436a8482602086016142be565b91505092915050565b60008151905061438281612eb0565b92915050565b60006101a0828403121561439f5761439e61422f565b5b6143aa6101a0612da5565b905060006143ba84828501614239565b600083015250602082015167ffffffffffffffff8111156143de576143dd614234565b5b6143ea84828501614290565b602083015250604082015167ffffffffffffffff81111561440e5761440d614234565b5b61441a84828501614345565b604083015250606061442e84828501614239565b606083015250608061444284828501614373565b60808301525060a061445684828501614239565b60a08301525060c061446a848285016140c2565b60c08301525060e061447e848285016140c2565b60e08301525061010061449384828501614239565b610100830152506101206144a984828501614239565b6101208301525061014082015167ffffffffffffffff8111156144cf576144ce614234565b5b6144db84828501614290565b6101408301525061016082015167ffffffffffffffff81111561450157614500614234565b5b61450d84828501614290565b6101608301525061018061452384828501614239565b6101808301525092915050565b60006020828403121561454657614545612c95565b5b600082015167ffffffffffffffff81111561456457614563612c9a565b5b61457084828501614388565b91505092915050565b7f6e6f6e6578697374656e74207175697a00000000000000000000000000000000600082015250565b60006145af601083613fc5565b91506145ba82614579565b602082019050919050565b600060208201905081810360008301526145de816145a2565b9050919050565b600060408201905081810360008301526145ff8185614042565b9050818103602083015261461381846138fd565b90509392505050565b600061462f61462a84613a4d565b612da5565b9050808382526020820190506020840283018581111561465257614651612f08565b5b835b8181101561467b57806146678882614239565b845260208401935050602081019050614654565b5050509392505050565b600082601f83011261469a57614699612d2a565b5b81516146aa84826020860161461c565b91505092915050565b6000602082840312156146c9576146c8612c95565b5b600082015167ffffffffffffffff8111156146e7576146e6612c9a565b5b6146f384828501614685565b91505092915050565b7f7175697a206973206f7665720000000000000000000000000000000000000000600082015250565b6000614732600c83613fc5565b915061473d826146fc565b602082019050919050565b6000602082019050818103600083015261476181614725565b9050919050565b600060608201905061477d6000830186613d6b565b818103602083015261478f81856136b2565b905061479e6040830184613d6b565b949350505050565b60006040820190506147bb6000830185613d6b565b6147c86020830184613d6b565b9392505050565b6000815190506147de8161330c565b92915050565b60006147f76147f284613474565b612da5565b9050808382526020820190506020840283018581111561481a57614819612f08565b5b835b81811015614843578061482f88826147cf565b84526020840193505060208101905061481c565b5050509392505050565b600082601f83011261486257614861612d2a565b5b81516148728482602086016147e4565b91505092915050565b60006020828403121561489157614890612c95565b5b600082015167ffffffffffffffff8111156148af576148ae612c9a565b5b6148bb8482850161484d565b91505092915050565b600067ffffffffffffffff8211156148df576148de612d45565b5b602082029050602081019050919050565b60006149036148fe846148c4565b612da5565b9050808382526020820190506020840283018581111561492657614925612f08565b5b835b8181101561496d57805167ffffffffffffffff81111561494b5761494a612d2a565b5b8086016149588982614388565b85526020850194505050602081019050614928565b5050509392505050565b600082601f83011261498c5761498b612d2a565b5b815161499c8482602086016148f0565b91505092915050565b6000602082840312156149bb576149ba612c95565b5b600082015167ffffffffffffffff8111156149d9576149d8612c9a565b5b6149e584828501614977565b91505092915050565b7f6578697374207175697a00000000000000000000000000000000000000000000600082015250565b6000614a24600a83613fc5565b9150614a2f826149ee565b602082019050919050565b60006020820190508181036000830152614a5381614a17565b9050919050565b7f796f752073686f756c642070726570617920666f722067617300000000000000600082015250565b6000614a90601983613fc5565b9150614a9b82614a5a565b602082019050919050565b60006020820190508181036000830152614abf81614a83565b9050919050565b6000604082019050614adb6000830185613732565b614ae86020830184613d6b565b9392505050565b614af881612ea6565b82525050565b600082825260208201905092915050565b6000614b1a82613811565b614b248185614afe565b935083602082028501614b368561382d565b8060005b85811015614b725784840389528151614b53858261383d565b9450614b5e83613851565b925060208a01995050600181019050614b3a565b50829750879550505050505092915050565b6000610100820190508181036000830152614b9f818b614042565b9050614bae602083018a613d6b565b614bbb6040830189614aef565b614bc86060830188613d6b565b8181036080830152614bda8187614b0f565b9050614be960a0830186613d6b565b614bf660c0830185613d6b565b614c0360e0830184613d6b565b9998505050505050505050565b60006020820190508181036000830152614c2a8184614042565b905092915050565b7f4e487b7100000000000000000000000000000000000000000000000000000000600052603260045260246000fd5b7f4e487b7100000000000000000000000000000000000000000000000000000000600052601160045260246000fd5b6000614c9b82612e70565b9150614ca683612e70565b9250827fffffffffffffffffffffffffffffffffffffffffffffffffffffffffffffffff03821115614cdb57614cda614c61565b5b82820190509291505056fea2646970667358221220636c868ed984ff56116364444c7d7e1b5f83a87015a8134801d4a3b69b5f5b7764736f6c63430008090033",
  "linkReferences": {},
  "deployedLinkReferences": {}
}