{
  "_format": "hh-sol-artifact-1",
  "contractName": "Game",
  "sourceName": "src/contracts/game/game.sol",
  "abi": [
    {
      "inputs": [
        {
          "internalType": "address payable",
          "name": "_operator",
          "type": "address"
        },
        {
          "internalType": "contract IAdminData",
          "name": "_adminData",
          "type": "address"
        },
        {
          "internalType": "contract IGameData",
          "name": "_gameData",
          "type": "address"
        },
        {
          "internalType": "contract IQuizToken",
          "name": "_buffToken",
          "type": "address"
        },
        {
          "internalType": "uint256",
          "name": "_buffValue",
          "type": "uint256"
        }
      ],
      "stateMutability": "nonpayable",
      "type": "constructor"
    },
    {
      "inputs": [
        {
          "internalType": "string",
          "name": "_appId",
          "type": "string"
        },
        {
          "internalType": "address payable",
          "name": "_newOperator",
          "type": "address"
        }
      ],
      "name": "addAppOperator",
      "outputs": [],
      "stateMutability": "nonpayable",
      "type": "function"
    },
    {
      "inputs": [],
      "name": "adminData",
      "outputs": [
        {
          "internalType": "contract IAdminData",
          "name": "",
          "type": "address"
        }
      ],
      "stateMutability": "view",
      "type": "function"
    },
    {
      "inputs": [],
      "name": "buffToken",
      "outputs": [
        {
          "internalType": "contract IQuizToken",
          "name": "",
          "type": "address"
        }
      ],
      "stateMutability": "view",
      "type": "function"
    },
    {
      "inputs": [],
      "name": "buffValue",
      "outputs": [
        {
          "internalType": "uint256",
          "name": "",
          "type": "uint256"
        }
      ],
      "stateMutability": "view",
      "type": "function"
    },
    {
      "inputs": [
        {
          "internalType": "uint256",
          "name": "_gameId",
          "type": "uint256"
        },
        {
          "internalType": "uint256",
          "name": "_round",
          "type": "uint256"
        },
        {
          "internalType": "uint256",
          "name": "_buffId",
          "type": "uint256"
        }
      ],
      "name": "buyBuff",
      "outputs": [],
      "stateMutability": "nonpayable",
      "type": "function"
    },
    {
      "inputs": [
        {
          "internalType": "uint256",
          "name": "_gameId",
          "type": "uint256"
        },
        {
          "internalType": "uint256",
          "name": "_round",
          "type": "uint256"
        }
      ],
      "name": "buyErc20Ticket",
      "outputs": [],
      "stateMutability": "nonpayable",
      "type": "function"
    },
    {
      "inputs": [
        {
          "internalType": "uint256",
          "name": "_gameId",
          "type": "uint256"
        },
        {
          "internalType": "uint256",
          "name": "_round",
          "type": "uint256"
        }
      ],
      "name": "buyEthTicket",
      "outputs": [],
      "stateMutability": "payable",
      "type": "function"
    },
    {
      "inputs": [
        {
          "internalType": "contract IAdminData",
          "name": "_newData",
          "type": "address"
        }
      ],
      "name": "changeAdminData",
      "outputs": [],
      "stateMutability": "nonpayable",
      "type": "function"
    },
    {
      "inputs": [
        {
          "internalType": "contract IQuizToken",
          "name": "_newToken",
          "type": "address"
        }
      ],
      "name": "changeBuffToken",
      "outputs": [],
      "stateMutability": "nonpayable",
      "type": "function"
    },
    {
      "inputs": [
        {
          "internalType": "uint256",
          "name": "_newValue",
          "type": "uint256"
        }
      ],
      "name": "changeBuffValue",
      "outputs": [],
      "stateMutability": "nonpayable",
      "type": "function"
    },
    {
      "inputs": [
        {
          "internalType": "contract IGameData",
          "name": "_newData",
          "type": "address"
        }
      ],
      "name": "changeGameData",
      "outputs": [],
      "stateMutability": "nonpayable",
      "type": "function"
    },
    {
      "inputs": [
        {
          "internalType": "address payable",
          "name": "_newOperator",
          "type": "address"
        }
      ],
      "name": "changeOperator",
      "outputs": [],
      "stateMutability": "nonpayable",
      "type": "function"
    },
    {
      "inputs": [
        {
          "components": [
            {
              "internalType": "uint256",
              "name": "id",
              "type": "uint256"
            },
            {
              "internalType": "uint256",
              "name": "category",
              "type": "uint256"
            },
            {
              "internalType": "string",
              "name": "appId",
              "type": "string"
            },
            {
              "internalType": "int256",
              "name": "groupId",
              "type": "int256"
            },
            {
              "internalType": "uint256",
              "name": "botType",
              "type": "uint256"
            },
            {
              "internalType": "string",
              "name": "title",
              "type": "string"
            },
            {
              "internalType": "string",
              "name": "introduction",
              "type": "string"
            },
            {
              "internalType": "string",
              "name": "story",
              "type": "string"
            },
            {
              "internalType": "uint256",
              "name": "eliminateProportion",
              "type": "uint256"
            },
            {
              "internalType": "uint256",
              "name": "awardProportion",
              "type": "uint256"
            },
            {
              "internalType": "uint256",
              "name": "winNum",
              "type": "uint256"
            },
            {
              "internalType": "uint256[]",
              "name": "buffIds",
              "type": "uint256[]"
            },
            {
              "internalType": "string[]",
              "name": "events",
              "type": "string[]"
            },
            {
              "internalType": "bool",
              "name": "ticketIsEth",
              "type": "bool"
            },
            {
              "internalType": "contract IERC20",
              "name": "ticketsToken",
              "type": "address"
            },
            {
              "internalType": "uint256",
              "name": "ticketAmount",
              "type": "uint256"
            },
            {
              "internalType": "uint256",
              "name": "effectStartTime",
              "type": "uint256"
            },
            {
              "internalType": "uint256",
              "name": "effectEndTime",
              "type": "uint256"
            },
            {
              "internalType": "bool",
              "name": "daily",
              "type": "bool"
            },
            {
              "internalType": "uint256",
              "name": "startH",
              "type": "uint256"
            },
            {
              "internalType": "uint256",
              "name": "startM",
              "type": "uint256"
            },
            {
              "internalType": "bool",
              "name": "exist",
              "type": "bool"
            },
            {
              "internalType": "address",
              "name": "creator",
              "type": "address"
            }
          ],
          "internalType": "struct IGameData.GameDetail",
          "name": "_game",
          "type": "tuple"
        }
      ],
      "name": "createGame",
      "outputs": [],
      "stateMutability": "nonpayable",
      "type": "function"
    },
    {
      "inputs": [
        {
          "internalType": "string",
          "name": "_appId",
          "type": "string"
        }
      ],
      "name": "delAppOperator",
      "outputs": [],
      "stateMutability": "nonpayable",
      "type": "function"
    },
    {
      "inputs": [
        {
          "internalType": "contract IERC20",
          "name": "",
          "type": "address"
        }
      ],
      "name": "erc20Exist",
      "outputs": [
        {
          "internalType": "bool",
          "name": "",
          "type": "bool"
        }
      ],
      "stateMutability": "view",
      "type": "function"
    },
    {
      "inputs": [],
      "name": "gameData",
      "outputs": [
        {
          "internalType": "contract IGameData",
          "name": "",
          "type": "address"
        }
      ],
      "stateMutability": "view",
      "type": "function"
    },
    {
      "inputs": [
        {
          "internalType": "string",
          "name": "_appId",
          "type": "string"
        },
        {
          "internalType": "uint256",
          "name": "_gameId",
          "type": "uint256"
        },
        {
          "internalType": "uint256",
          "name": "_round",
          "type": "uint256"
        }
      ],
      "name": "gameRoundOver",
      "outputs": [],
      "stateMutability": "nonpayable",
      "type": "function"
    },
    {
      "inputs": [],
      "name": "getErc20List",
      "outputs": [
        {
          "internalType": "contract IERC20[]",
          "name": "",
          "type": "address[]"
        }
      ],
      "stateMutability": "view",
      "type": "function"
    },
    {
      "inputs": [],
      "name": "getGameIds",
      "outputs": [
        {
          "internalType": "uint256[]",
          "name": "",
          "type": "uint256[]"
        }
      ],
      "stateMutability": "view",
      "type": "function"
    },
    {
      "inputs": [
        {
          "internalType": "string",
          "name": "_appId",
          "type": "string"
        }
      ],
      "name": "isOperator",
      "outputs": [
        {
          "internalType": "bool",
          "name": "",
          "type": "bool"
        }
      ],
      "stateMutability": "view",
      "type": "function"
    },
    {
      "inputs": [],
      "name": "operator",
      "outputs": [
        {
          "internalType": "address payable",
          "name": "",
          "type": "address"
        }
      ],
      "stateMutability": "view",
      "type": "function"
    },
    {
      "inputs": [],
      "name": "owner",
      "outputs": [
        {
          "internalType": "address",
          "name": "",
          "type": "address"
        }
      ],
      "stateMutability": "view",
      "type": "function"
    },
    {
      "inputs": [
        {
          "internalType": "string",
          "name": "_appId",
          "type": "string"
        },
        {
          "internalType": "uint256",
          "name": "_gameId",
          "type": "uint256"
        },
        {
          "internalType": "uint256",
          "name": "_launchTime",
          "type": "uint256"
        }
      ],
      "name": "startGame",
      "outputs": [],
      "stateMutability": "payable",
      "type": "function"
    },
    {
      "inputs": [
        {
          "internalType": "address payable",
          "name": "_to",
          "type": "address"
        }
      ],
      "name": "transferAsset",
      "outputs": [],
      "stateMutability": "nonpayable",
      "type": "function"
    },
    {
      "inputs": [
        {
          "internalType": "address",
          "name": "_newOwner",
          "type": "address"
        }
      ],
      "name": "transferOwner",
      "outputs": [],
      "stateMutability": "nonpayable",
      "type": "function"
    }
  ],
  "bytecode": "0x60806040523480156200001157600080fd5b506040516200604038038062006040833981810160405281019062000037919062000315565b336000806101000a81548173ffffffffffffffffffffffffffffffffffffffff021916908373ffffffffffffffffffffffffffffffffffffffff16021790555084600160006101000a81548173ffffffffffffffffffffffffffffffffffffffff021916908373ffffffffffffffffffffffffffffffffffffffff16021790555083600360006101000a81548173ffffffffffffffffffffffffffffffffffffffff021916908373ffffffffffffffffffffffffffffffffffffffff16021790555082600460006101000a81548173ffffffffffffffffffffffffffffffffffffffff021916908373ffffffffffffffffffffffffffffffffffffffff16021790555081600560006101000a81548173ffffffffffffffffffffffffffffffffffffffff021916908373ffffffffffffffffffffffffffffffffffffffff1602179055508060068190555050505050506200039d565b600080fd5b600073ffffffffffffffffffffffffffffffffffffffff82169050919050565b6000620001bf8262000192565b9050919050565b620001d181620001b2565b8114620001dd57600080fd5b50565b600081519050620001f181620001c6565b92915050565b6000620002048262000192565b9050919050565b60006200021882620001f7565b9050919050565b6200022a816200020b565b81146200023657600080fd5b50565b6000815190506200024a816200021f565b92915050565b60006200025d82620001f7565b9050919050565b6200026f8162000250565b81146200027b57600080fd5b50565b6000815190506200028f8162000264565b92915050565b6000620002a282620001f7565b9050919050565b620002b48162000295565b8114620002c057600080fd5b50565b600081519050620002d481620002a9565b92915050565b6000819050919050565b620002ef81620002da565b8114620002fb57600080fd5b50565b6000815190506200030f81620002e4565b92915050565b600080600080600060a086880312156200033457620003336200018d565b5b60006200034488828901620001e0565b9550506020620003578882890162000239565b94505060406200036a888289016200027e565b93505060606200037d88828901620002c3565b92505060806200039088828901620002fe565b9150509295509295909350565b615c9380620003ad6000396000f3fe6080604052600436106101965760003560e01c80637e3dfe5c116100e1578063b2888e491161008a578063c7d7b66011610064578063c7d7b66014610514578063ce6e98f21461053d578063e606c9b814610566578063fa24f7431461058f57610196565b8063b2888e49146104a6578063b7579b50146104c2578063bb3f0911146104eb57610196565b80638da5cb5b116100bb5780638da5cb5b146104275780639f668bba14610452578063b05c3f671461047d57610196565b80637e3dfe5c1461039457806380690863146103d157806385a5d8fa146103fc57610196565b80632483eee5116101435780635a2a79231161011d5780635a2a7923146103245780635cffe6001461034f5780637742b3011461036b57610196565b80632483eee5146102a75780634fb2e45d146102d0578063570ca735146102f957610196565b80630bd09979116101745780630bd09979146102185780631f041bd114610241578063210103231461027e57610196565b806306394c9b1461019b57806306d2ae8e146101c457806307603a3a146101ef575b600080fd5b3480156101a757600080fd5b506101c260048036038101906101bd9190613210565b6105ba565b005b3480156101d057600080fd5b506101d961068c565b6040516101e6919061329c565b60405180910390f35b3480156101fb57600080fd5b50610216600480360381019061021191906132ed565b6106b2565b005b34801561022457600080fd5b5061023f600480360381019061023a9190613473565b610950565b005b34801561024d57600080fd5b50610268600480360381019061026391906134cf565b610a3f565b6040516102759190613533565b60405180910390f35b34801561028a57600080fd5b506102a560048036038101906102a09190613a9b565b610b0d565b005b3480156102b357600080fd5b506102ce60048036038101906102c99190613ae4565b610e3a565b005b3480156102dc57600080fd5b506102f760048036038101906102f29190613b11565b610ed2565b005b34801561030557600080fd5b5061030e610fa3565b60405161031b9190613b4d565b60405180910390f35b34801561033057600080fd5b50610339610fc9565b6040516103469190613b89565b60405180910390f35b610369600480360381019061036491906132ed565b610fef565b005b34801561037757600080fd5b50610392600480360381019061038d9190613ba4565b61122c565b005b3480156103a057600080fd5b506103bb60048036038101906103b69190613c13565b6116da565b6040516103c89190613533565b60405180910390f35b3480156103dd57600080fd5b506103e66116fa565b6040516103f39190613c4f565b60405180910390f35b34801561040857600080fd5b50610411611700565b60405161041e9190613d3a565b60405180910390f35b34801561043357600080fd5b5061043c61178e565b6040516104499190613d6b565b60405180910390f35b34801561045e57600080fd5b506104676117b2565b6040516104749190613e44565b60405180910390f35b34801561048957600080fd5b506104a4600480360381019061049f9190613e66565b611a06565b005b6104c060048036038101906104bb9190613ba4565b611d27565b005b3480156104ce57600080fd5b506104e960048036038101906104e49190613ef7565b611eef565b005b3480156104f757600080fd5b50610512600480360381019061050d91906134cf565b611fc1565b005b34801561052057600080fd5b5061053b60048036038101906105369190613210565b6120b0565b005b34801561054957600080fd5b50610564600480360381019061055f9190613f62565b612358565b005b34801561057257600080fd5b5061058d60048036038101906105889190613fcd565b61242a565b005b34801561059b57600080fd5b506105a46124fc565b6040516105b1919061401b565b60405180910390f35b60008054906101000a900473ffffffffffffffffffffffffffffffffffffffff1673ffffffffffffffffffffffffffffffffffffffff163373ffffffffffffffffffffffffffffffffffffffff1614610648576040517f08c379a000000000000000000000000000000000000000000000000000000000815260040161063f90614093565b60405180910390fd5b80600160006101000a81548173ffffffffffffffffffffffffffffffffffffffff021916908373ffffffffffffffffffffffffffffffffffffffff16021790555050565b600360009054906101000a900473ffffffffffffffffffffffffffffffffffffffff1681565b6106bc8282612522565b6106c6828261261c565b6000600460009054906101000a900473ffffffffffffffffffffffffffffffffffffffff1673ffffffffffffffffffffffffffffffffffffffff1663a2f77bcc846040518263ffffffff1660e01b81526004016107239190613c4f565b60006040518083038186803b15801561073b57600080fd5b505afa15801561074f573d6000803e3d6000fd5b505050506040513d6000823e3d601f19601f8201168201806040525081019061077891906145c7565b9050806101a00151156107c0576040517f08c379a00000000000000000000000000000000000000000000000000000000081526004016107b79061465c565b60405180910390fd5b60006107cd848433612717565b5090508015610811576040517f08c379a0000000000000000000000000000000000000000000000000000000008152600401610808906146c8565b60405180910390fd5b816101c0015173ffffffffffffffffffffffffffffffffffffffff166323b872dd3330856101e001516040518463ffffffff1660e01b8152600401610858939291906146e8565b602060405180830381600087803b15801561087257600080fd5b505af1158015610886573d6000803e3d6000fd5b505050506040513d601f19601f820116820180604052508101906108aa919061471f565b50600460009054906101000a900473ffffffffffffffffffffffffffffffffffffffff1673ffffffffffffffffffffffffffffffffffffffff1663ffe41ad38585336040518463ffffffff1660e01b815260040161090a9392919061474c565b600060405180830381600087803b15801561092457600080fd5b505af1158015610938573d6000803e3d6000fd5b5050505061094a826101c00151612853565b50505050565b60008054906101000a900473ffffffffffffffffffffffffffffffffffffffff1673ffffffffffffffffffffffffffffffffffffffff163373ffffffffffffffffffffffffffffffffffffffff16146109de576040517f08c379a00000000000000000000000000000000000000000000000000000000081526004016109d590614093565b60405180910390fd5b806002836040516109ef91906147ca565b908152602001604051809103902060006101000a81548173ffffffffffffffffffffffffffffffffffffffff021916908373ffffffffffffffffffffffffffffffffffffffff1602179055505050565b60003373ffffffffffffffffffffffffffffffffffffffff16600160009054906101000a900473ffffffffffffffffffffffffffffffffffffffff1673ffffffffffffffffffffffffffffffffffffffff161480610b0657503373ffffffffffffffffffffffffffffffffffffffff16600283604051610abf91906147ca565b908152602001604051809103902060009054906101000a900473ffffffffffffffffffffffffffffffffffffffff1673ffffffffffffffffffffffffffffffffffffffff16145b9050919050565b8060400151600360009054906101000a900473ffffffffffffffffffffffffffffffffffffffff1673ffffffffffffffffffffffffffffffffffffffff1663b796e2b082336040518363ffffffff1660e01b8152600401610b6f92919061481a565b60206040518083038186803b158015610b8757600080fd5b505afa158015610b9b573d6000803e3d6000fd5b505050506040513d601f19601f82011682018060405250810190610bbf919061471f565b80610bcf5750610bce81610a3f565b5b610c0e576040517f08c379a0000000000000000000000000000000000000000000000000000000008152600401610c0590614896565b60405180910390fd5b600082600001511415610c56576040517f08c379a0000000000000000000000000000000000000000000000000000000008152600401610c4d90614902565b60405180910390fd5b6000600460009054906101000a900473ffffffffffffffffffffffffffffffffffffffff1673ffffffffffffffffffffffffffffffffffffffff1663a2f77bcc84600001516040518263ffffffff1660e01b8152600401610cb79190613c4f565b60006040518083038186803b158015610ccf57600080fd5b505afa158015610ce3573d6000803e3d6000fd5b505050506040513d6000823e3d601f19601f82011682018060405250810190610d0c91906145c7565b9050806102a0015115610d54576040517f08c379a0000000000000000000000000000000000000000000000000000000008152600401610d4b9061496e565b60405180910390fd5b8290506001816102a001901515908115158152505033816102c0019073ffffffffffffffffffffffffffffffffffffffff16908173ffffffffffffffffffffffffffffffffffffffff1681525050600460009054906101000a900473ffffffffffffffffffffffffffffffffffffffff1673ffffffffffffffffffffffffffffffffffffffff16639851ad4b8460400151836040518363ffffffff1660e01b8152600401610e03929190614d44565b600060405180830381600087803b158015610e1d57600080fd5b505af1158015610e31573d6000803e3d6000fd5b50505050505050565b60008054906101000a900473ffffffffffffffffffffffffffffffffffffffff1673ffffffffffffffffffffffffffffffffffffffff163373ffffffffffffffffffffffffffffffffffffffff1614610ec8576040517f08c379a0000000000000000000000000000000000000000000000000000000008152600401610ebf90614093565b60405180910390fd5b8060068190555050565b60008054906101000a900473ffffffffffffffffffffffffffffffffffffffff1673ffffffffffffffffffffffffffffffffffffffff163373ffffffffffffffffffffffffffffffffffffffff1614610f60576040517f08c379a0000000000000000000000000000000000000000000000000000000008152600401610f5790614093565b60405180910390fd5b806000806101000a81548173ffffffffffffffffffffffffffffffffffffffff021916908373ffffffffffffffffffffffffffffffffffffffff16021790555050565b600160009054906101000a900473ffffffffffffffffffffffffffffffffffffffff1681565b600560009054906101000a900473ffffffffffffffffffffffffffffffffffffffff1681565b610ff98282612522565b611003828261261c565b6000600460009054906101000a900473ffffffffffffffffffffffffffffffffffffffff1673ffffffffffffffffffffffffffffffffffffffff1663a2f77bcc846040518263ffffffff1660e01b81526004016110609190613c4f565b60006040518083038186803b15801561107857600080fd5b505afa15801561108c573d6000803e3d6000fd5b505050506040513d6000823e3d601f19601f820116820180604052508101906110b591906145c7565b9050806101a001516110fc576040517f08c379a00000000000000000000000000000000000000000000000000000000081526004016110f390614dc7565b60405180910390fd5b6000611109848433612717565b509050801561114d576040517f08c379a000000000000000000000000000000000000000000000000000000000815260040161114490614e33565b60405180910390fd5b816101e00151341015611195576040517f08c379a000000000000000000000000000000000000000000000000000000000815260040161118c90614e9f565b60405180910390fd5b600460009054906101000a900473ffffffffffffffffffffffffffffffffffffffff1673ffffffffffffffffffffffffffffffffffffffff1663ffe41ad38585336040518463ffffffff1660e01b81526004016111f49392919061474c565b600060405180830381600087803b15801561120e57600080fd5b505af1158015611222573d6000803e3d6000fd5b5050505050505050565b61123583610a3f565b611274576040517f08c379a000000000000000000000000000000000000000000000000000000000815260040161126b90614f0b565b60405180910390fd5b61127e8282612522565b611288828261261c565b6000600460009054906101000a900473ffffffffffffffffffffffffffffffffffffffff1673ffffffffffffffffffffffffffffffffffffffff16630d2dce2284846040518363ffffffff1660e01b81526004016112e7929190614f2b565b60006040518083038186803b1580156112ff57600080fd5b505afa158015611313573d6000803e3d6000fd5b505050506040513d6000823e3d601f19601f8201168201806040525081019061133c9190615017565b90506000600460009054906101000a900473ffffffffffffffffffffffffffffffffffffffff1673ffffffffffffffffffffffffffffffffffffffff166370c1b1d785856040518363ffffffff1660e01b815260040161139d929190614f2b565b60006040518083038186803b1580156113b557600080fd5b505afa1580156113c9573d6000803e3d6000fd5b505050506040513d6000823e3d601f19601f820116820180604052508101906113f29190615289565b905060096000858152602001908152602001600020600084815260200190815260200160002080548060200260200160405190810160405280929190818152602001828054801561149857602002820191906000526020600020905b8160009054906101000a900473ffffffffffffffffffffffffffffffffffffffff1673ffffffffffffffffffffffffffffffffffffffff168152602001906001019080831161144e575b505050505081602001819052508151816040018181525050600a6000858152602001908152602001600020600084815260200190815260200160002080548060200260200160405190810160405280929190818152602001828054801561151e57602002820191906000526020600020905b81548152602001906001019080831161150a575b50505050508160a00181905250600b6000858152602001908152602001600020600084815260200190815260200160002080548060200260200160405190810160405280929190818152602001828054801561159957602002820191906000526020600020905b815481526020019060010190808311611585575b50505050508160c00181905250600c6000858152602001908152602001600020600084815260200190815260200160002080548060200260200160405190810160405280929190818152602001828054801561161457602002820191906000526020600020905b815481526020019060010190808311611600575b50505050508160e00181905250600181610100019015159081151581525050600460009054906101000a900473ffffffffffffffffffffffffffffffffffffffff1673ffffffffffffffffffffffffffffffffffffffff1663ea7a48da8585846040518463ffffffff1660e01b81526004016116929392919061551f565b600060405180830381600087803b1580156116ac57600080fd5b505af11580156116c0573d6000803e3d6000fd5b505050506116d384826020015185612963565b5050505050565b60086020528060005260406000206000915054906101000a900460ff1681565b60065481565b6060600780548060200260200160405190810160405280929190818152602001828054801561178457602002820191906000526020600020905b8160009054906101000a900473ffffffffffffffffffffffffffffffffffffffff1673ffffffffffffffffffffffffffffffffffffffff168152602001906001019080831161173a575b5050505050905090565b60008054906101000a900473ffffffffffffffffffffffffffffffffffffffff1681565b60606000600460009054906101000a900473ffffffffffffffffffffffffffffffffffffffff1673ffffffffffffffffffffffffffffffffffffffff16639f668bba6040518163ffffffff1660e01b815260040160006040518083038186803b15801561181e57600080fd5b505afa158015611832573d6000803e3d6000fd5b505050506040513d6000823e3d601f19601f8201168201806040525081019061185b919061555d565b90506000606467ffffffffffffffff81111561187a57611879613348565b5b6040519080825280602002602001820160405280156118a85781602001602082028036833780820191505090505b5090506000805b83518110156119fc57606482106118c5576119fc565b6000600460009054906101000a900473ffffffffffffffffffffffffffffffffffffffff1673ffffffffffffffffffffffffffffffffffffffff1663a2f77bcc868481518110611918576119176155a6565b5b60200260200101516040518263ffffffff1660e01b815260040161193c9190613c4f565b60006040518083038186803b15801561195457600080fd5b505afa158015611968573d6000803e3d6000fd5b505050506040513d6000823e3d601f19601f8201168201806040525081019061199191906145c7565b905042816102200151106119e85782806119aa90615604565b9350508482815181106119c0576119bf6155a6565b5b60200260200101518484815181106119db576119da6155a6565b5b6020026020010181815250505b5080806119f490615604565b9150506118af565b5081935050505090565b611a10838361261c565b611a1a8383612522565b6000600460009054906101000a900473ffffffffffffffffffffffffffffffffffffffff1673ffffffffffffffffffffffffffffffffffffffff1663a2f77bcc856040518263ffffffff1660e01b8152600401611a779190613c4f565b60006040518083038186803b158015611a8f57600080fd5b505afa158015611aa3573d6000803e3d6000fd5b505050506040513d6000823e3d601f19601f82011682018060405250810190611acc91906145c7565b610160015190506000805b8251811015611b1e5783838281518110611af457611af36155a6565b5b60200260200101511415611b0b5760019150611b1e565b8080611b1690615604565b915050611ad7565b5080611b5f576040517f08c379a0000000000000000000000000000000000000000000000000000000008152600401611b5690615699565b60405180910390fd5b600080611b6d878733612717565b9150915081611bb1576040517f08c379a0000000000000000000000000000000000000000000000000000000008152600401611ba890615705565b60405180910390fd5b611bbc878783612c89565b15611bfc576040517f08c379a0000000000000000000000000000000000000000000000000000000008152600401611bf390615771565b60405180910390fd5b600560009054906101000a900473ffffffffffffffffffffffffffffffffffffffff1673ffffffffffffffffffffffffffffffffffffffff16639dc29fac336006546040518363ffffffff1660e01b8152600401611c5b929190615791565b600060405180830381600087803b158015611c7557600080fd5b505af1158015611c89573d6000803e3d6000fd5b50505050600460009054906101000a900473ffffffffffffffffffffffffffffffffffffffff1673ffffffffffffffffffffffffffffffffffffffff166342f2a5e38888846040518463ffffffff1660e01b8152600401611cec939291906157ba565b600060405180830381600087803b158015611d0657600080fd5b505af1158015611d1a573d6000803e3d6000fd5b5050505050505050505050565b611d3082612d94565b60003411611d73576040517f08c379a0000000000000000000000000000000000000000000000000000000008152600401611d6a9061583d565b60405180910390fd5b6000600284604051611d8591906147ca565b908152602001604051809103902060009054906101000a900473ffffffffffffffffffffffffffffffffffffffff169050600073ffffffffffffffffffffffffffffffffffffffff168173ffffffffffffffffffffffffffffffffffffffff161415611e1157600160009054906101000a900473ffffffffffffffffffffffffffffffffffffffff1690505b8073ffffffffffffffffffffffffffffffffffffffff166108fc349081150290604051600060405180830381858888f19350505050158015611e57573d6000803e3d6000fd5b50600460009054906101000a900473ffffffffffffffffffffffffffffffffffffffff1673ffffffffffffffffffffffffffffffffffffffff166357e40a648433856040518463ffffffff1660e01b8152600401611eb79392919061585d565b600060405180830381600087803b158015611ed157600080fd5b505af1158015611ee5573d6000803e3d6000fd5b5050505050505050565b60008054906101000a900473ffffffffffffffffffffffffffffffffffffffff1673ffffffffffffffffffffffffffffffffffffffff163373ffffffffffffffffffffffffffffffffffffffff1614611f7d576040517f08c379a0000000000000000000000000000000000000000000000000000000008152600401611f7490614093565b60405180910390fd5b80600560006101000a81548173ffffffffffffffffffffffffffffffffffffffff021916908373ffffffffffffffffffffffffffffffffffffffff16021790555050565b60008054906101000a900473ffffffffffffffffffffffffffffffffffffffff1673ffffffffffffffffffffffffffffffffffffffff163373ffffffffffffffffffffffffffffffffffffffff161461204f576040517f08c379a000000000000000000000000000000000000000000000000000000000815260040161204690614093565b60405180910390fd5b600060028260405161206191906147ca565b908152602001604051809103902060006101000a81548173ffffffffffffffffffffffffffffffffffffffff021916908373ffffffffffffffffffffffffffffffffffffffff16021790555050565b60008054906101000a900473ffffffffffffffffffffffffffffffffffffffff1673ffffffffffffffffffffffffffffffffffffffff163373ffffffffffffffffffffffffffffffffffffffff161461213e576040517f08c379a000000000000000000000000000000000000000000000000000000000815260040161213590614093565b60405180910390fd5b600047111561218f578073ffffffffffffffffffffffffffffffffffffffff166108fc479081150290604051600060405180830381858888f1935050505015801561218d573d6000803e3d6000fd5b505b60005b600780549050811015612354576000600782815481106121b5576121b46155a6565b5b9060005260206000200160009054906101000a900473ffffffffffffffffffffffffffffffffffffffff1673ffffffffffffffffffffffffffffffffffffffff166370a08231306040518263ffffffff1660e01b81526004016122189190613d6b565b60206040518083038186803b15801561223057600080fd5b505afa158015612244573d6000803e3d6000fd5b505050506040513d601f19601f820116820180604052508101906122689190615894565b905060008111156123405760078281548110612287576122866155a6565b5b9060005260206000200160009054906101000a900473ffffffffffffffffffffffffffffffffffffffff1673ffffffffffffffffffffffffffffffffffffffff1663a9059cbb84836040518363ffffffff1660e01b81526004016122ec9291906158e2565b602060405180830381600087803b15801561230657600080fd5b505af115801561231a573d6000803e3d6000fd5b505050506040513d601f19601f8201168201806040525081019061233e919061471f565b505b50808061234c90615604565b915050612192565b5050565b60008054906101000a900473ffffffffffffffffffffffffffffffffffffffff1673ffffffffffffffffffffffffffffffffffffffff163373ffffffffffffffffffffffffffffffffffffffff16146123e6576040517f08c379a00000000000000000000000000000000000000000000000000000000081526004016123dd90614093565b60405180910390fd5b80600360006101000a81548173ffffffffffffffffffffffffffffffffffffffff021916908373ffffffffffffffffffffffffffffffffffffffff16021790555050565b60008054906101000a900473ffffffffffffffffffffffffffffffffffffffff1673ffffffffffffffffffffffffffffffffffffffff163373ffffffffffffffffffffffffffffffffffffffff16146124b8576040517f08c379a00000000000000000000000000000000000000000000000000000000081526004016124af90614093565b60405180910390fd5b80600460006101000a81548173ffffffffffffffffffffffffffffffffffffffff021916908373ffffffffffffffffffffffffffffffffffffffff16021790555050565b600460009054906101000a900473ffffffffffffffffffffffffffffffffffffffff1681565b600460009054906101000a900473ffffffffffffffffffffffffffffffffffffffff1673ffffffffffffffffffffffffffffffffffffffff166370c1b1d783836040518363ffffffff1660e01b815260040161257f929190614f2b565b60006040518083038186803b15801561259757600080fd5b505afa1580156125ab573d6000803e3d6000fd5b505050506040513d6000823e3d601f19601f820116820180604052508101906125d49190615289565b6101200151612618576040517f08c379a000000000000000000000000000000000000000000000000000000000815260040161260f90615957565b60405180910390fd5b5050565b600460009054906101000a900473ffffffffffffffffffffffffffffffffffffffff1673ffffffffffffffffffffffffffffffffffffffff166370c1b1d783836040518363ffffffff1660e01b8152600401612679929190614f2b565b60006040518083038186803b15801561269157600080fd5b505afa1580156126a5573d6000803e3d6000fd5b505050506040513d6000823e3d601f19601f820116820180604052508101906126ce9190615289565b610100015115612713576040517f08c379a000000000000000000000000000000000000000000000000000000000815260040161270a906159c3565b60405180910390fd5b5050565b6000806000600460009054906101000a900473ffffffffffffffffffffffffffffffffffffffff1673ffffffffffffffffffffffffffffffffffffffff16630d2dce2287876040518363ffffffff1660e01b8152600401612779929190614f2b565b60006040518083038186803b15801561279157600080fd5b505afa1580156127a5573d6000803e3d6000fd5b505050506040513d6000823e3d601f19601f820116820180604052508101906127ce9190615017565b905060005b8151811015612849578473ffffffffffffffffffffffffffffffffffffffff16828281518110612806576128056155a6565b5b602002602001015173ffffffffffffffffffffffffffffffffffffffff1614156128365760019350809250612849565b808061284190615604565b9150506127d3565b5050935093915050565b600860008273ffffffffffffffffffffffffffffffffffffffff1673ffffffffffffffffffffffffffffffffffffffff16815260200190815260200160002060009054906101000a900460ff16612960576007819080600181540180825580915050600190039060005260206000200160009091909190916101000a81548173ffffffffffffffffffffffffffffffffffffffff021916908373ffffffffffffffffffffffffffffffffffffffff1602179055506001600860008373ffffffffffffffffffffffffffffffffffffffff1673ffffffffffffffffffffffffffffffffffffffff16815260200190815260200160002060006101000a81548160ff0219169083151502179055505b50565b60008251141561297257612c84565b6000600460009054906101000a900473ffffffffffffffffffffffffffffffffffffffff1673ffffffffffffffffffffffffffffffffffffffff1663a2f77bcc856040518263ffffffff1660e01b81526004016129cf9190613c4f565b60006040518083038186803b1580156129e757600080fd5b505afa1580156129fb573d6000803e3d6000fd5b505050506040513d6000823e3d601f19601f82011682018060405250810190612a2491906145c7565b90506000600460009054906101000a900473ffffffffffffffffffffffffffffffffffffffff1673ffffffffffffffffffffffffffffffffffffffff1663751938af86856040518363ffffffff1660e01b8152600401612a85929190614f2b565b60206040518083038186803b158015612a9d57600080fd5b505afa158015612ab1573d6000803e3d6000fd5b505050506040513d601f19601f82011682018060405250810190612ad59190615894565b90506000612b04836101200151612af6606485612ecf90919063ffffffff16565b612f1990919063ffffffff16565b90506000612b1b8284612f9490919063ffffffff16565b90506000612b33875184612ecf90919063ffffffff16565b905060005b8751811015612c7357856101a0015115612bfe57856101c0015173ffffffffffffffffffffffffffffffffffffffff1663a9059cbb898381518110612b8057612b7f6155a6565b5b6020026020010151846040518363ffffffff1660e01b8152600401612ba6929190615791565b602060405180830381600087803b158015612bc057600080fd5b505af1158015612bd4573d6000803e3d6000fd5b505050506040513d601f19601f82011682018060405250810190612bf8919061471f565b50612c60565b878181518110612c1157612c106155a6565b5b602002602001015173ffffffffffffffffffffffffffffffffffffffff166108fc839081150290604051600060405180830381858888f19350505050158015612c5e573d6000803e3d6000fd5b505b8080612c6b90615604565b915050612b38565b50612c7e8583612fde565b50505050505b505050565b600080600460009054906101000a900473ffffffffffffffffffffffffffffffffffffffff1673ffffffffffffffffffffffffffffffffffffffff16636a3f5dc586866040518363ffffffff1660e01b8152600401612ce9929190614f2b565b60006040518083038186803b158015612d0157600080fd5b505afa158015612d15573d6000803e3d6000fd5b505050506040513d6000823e3d601f19601f82011682018060405250810190612d3e919061555d565b90506000805b8251811015612d875784838281518110612d6157612d606155a6565b5b60200260200101511415612d7457600191505b8080612d7f90615604565b915050612d44565b5080925050509392505050565b6000811415612dd8576040517f08c379a0000000000000000000000000000000000000000000000000000000008152600401612dcf90615a2f565b60405180910390fd5b600460009054906101000a900473ffffffffffffffffffffffffffffffffffffffff1673ffffffffffffffffffffffffffffffffffffffff1663a2f77bcc826040518263ffffffff1660e01b8152600401612e339190613c4f565b60006040518083038186803b158015612e4b57600080fd5b505afa158015612e5f573d6000803e3d6000fd5b505050506040513d6000823e3d601f19601f82011682018060405250810190612e8891906145c7565b6102a00151612ecc576040517f08c379a0000000000000000000000000000000000000000000000000000000008152600401612ec390615a9b565b60405180910390fd5b50565b6000612f1183836040518060400160405280601a81526020017f536166654d6174683a206469766973696f6e206279207a65726f0000000000008152506130d7565b905092915050565b600080831415612f2c5760009050612f8e565b60008284612f3a9190615abb565b9050828482612f499190615b44565b14612f89576040517f08c379a0000000000000000000000000000000000000000000000000000000008152600401612f8090615be7565b60405180910390fd5b809150505b92915050565b6000612fd683836040518060400160405280601e81526020017f536166654d6174683a207375627472616374696f6e206f766572666c6f77000081525061313a565b905092915050565b816101a001511561308657816101c0015173ffffffffffffffffffffffffffffffffffffffff1663a9059cbb836102c00151836040518363ffffffff1660e01b815260040161302e929190615791565b602060405180830381600087803b15801561304857600080fd5b505af115801561305c573d6000803e3d6000fd5b505050506040513d601f19601f82011682018060405250810190613080919061471f565b506130d3565b816102c0015173ffffffffffffffffffffffffffffffffffffffff166108fc829081150290604051600060405180830381858888f193505050501580156130d1573d6000803e3d6000fd5b505b5050565b6000808311829061311e576040517f08c379a00000000000000000000000000000000000000000000000000000000081526004016131159190615c07565b60405180910390fd5b506000838561312d9190615b44565b9050809150509392505050565b6000838311158290613182576040517f08c379a00000000000000000000000000000000000000000000000000000000081526004016131799190615c07565b60405180910390fd5b50600083856131919190615c29565b9050809150509392505050565b6000604051905090565b600080fd5b600080fd5b600073ffffffffffffffffffffffffffffffffffffffff82169050919050565b60006131dd826131b2565b9050919050565b6131ed816131d2565b81146131f857600080fd5b50565b60008135905061320a816131e4565b92915050565b600060208284031215613226576132256131a8565b5b6000613234848285016131fb565b91505092915050565b6000819050919050565b600061326261325d613258846131b2565b61323d565b6131b2565b9050919050565b600061327482613247565b9050919050565b600061328682613269565b9050919050565b6132968161327b565b82525050565b60006020820190506132b1600083018461328d565b92915050565b6000819050919050565b6132ca816132b7565b81146132d557600080fd5b50565b6000813590506132e7816132c1565b92915050565b60008060408385031215613304576133036131a8565b5b6000613312858286016132d8565b9250506020613323858286016132d8565b9150509250929050565b600080fd5b600080fd5b6000601f19601f8301169050919050565b7f4e487b7100000000000000000000000000000000000000000000000000000000600052604160045260246000fd5b61338082613337565b810181811067ffffffffffffffff8211171561339f5761339e613348565b5b80604052505050565b60006133b261319e565b90506133be8282613377565b919050565b600067ffffffffffffffff8211156133de576133dd613348565b5b6133e782613337565b9050602081019050919050565b82818337600083830152505050565b6000613416613411846133c3565b6133a8565b90508281526020810184848401111561343257613431613332565b5b61343d8482856133f4565b509392505050565b600082601f83011261345a5761345961332d565b5b813561346a848260208601613403565b91505092915050565b6000806040838503121561348a576134896131a8565b5b600083013567ffffffffffffffff8111156134a8576134a76131ad565b5b6134b485828601613445565b92505060206134c5858286016131fb565b9150509250929050565b6000602082840312156134e5576134e46131a8565b5b600082013567ffffffffffffffff811115613503576135026131ad565b5b61350f84828501613445565b91505092915050565b60008115159050919050565b61352d81613518565b82525050565b60006020820190506135486000830184613524565b92915050565b600080fd5b600080fd5b6000819050919050565b61356b81613558565b811461357657600080fd5b50565b60008135905061358881613562565b92915050565b600067ffffffffffffffff8211156135a9576135a8613348565b5b602082029050602081019050919050565b600080fd5b60006135d26135cd8461358e565b6133a8565b905080838252602082019050602084028301858111156135f5576135f46135ba565b5b835b8181101561361e578061360a88826132d8565b8452602084019350506020810190506135f7565b5050509392505050565b600082601f83011261363d5761363c61332d565b5b813561364d8482602086016135bf565b91505092915050565b600067ffffffffffffffff82111561367157613670613348565b5b602082029050602081019050919050565b600061369561369084613656565b6133a8565b905080838252602082019050602084028301858111156136b8576136b76135ba565b5b835b818110156136ff57803567ffffffffffffffff8111156136dd576136dc61332d565b5b8086016136ea8982613445565b855260208501945050506020810190506136ba565b5050509392505050565b600082601f83011261371e5761371d61332d565b5b813561372e848260208601613682565b91505092915050565b61374081613518565b811461374b57600080fd5b50565b60008135905061375d81613737565b92915050565b600061376e826131b2565b9050919050565b600061378082613763565b9050919050565b61379081613775565b811461379b57600080fd5b50565b6000813590506137ad81613787565b92915050565b6137bc81613763565b81146137c757600080fd5b50565b6000813590506137d9816137b3565b92915050565b60006102e082840312156137f6576137f561354e565b5b6138016102e06133a8565b90506000613811848285016132d8565b6000830152506020613825848285016132d8565b602083015250604082013567ffffffffffffffff81111561384957613848613553565b5b61385584828501613445565b604083015250606061386984828501613579565b606083015250608061387d848285016132d8565b60808301525060a082013567ffffffffffffffff8111156138a1576138a0613553565b5b6138ad84828501613445565b60a08301525060c082013567ffffffffffffffff8111156138d1576138d0613553565b5b6138dd84828501613445565b60c08301525060e082013567ffffffffffffffff81111561390157613900613553565b5b61390d84828501613445565b60e083015250610100613922848285016132d8565b61010083015250610120613938848285016132d8565b6101208301525061014061394e848285016132d8565b6101408301525061016082013567ffffffffffffffff81111561397457613973613553565b5b61398084828501613628565b6101608301525061018082013567ffffffffffffffff8111156139a6576139a5613553565b5b6139b284828501613709565b610180830152506101a06139c88482850161374e565b6101a0830152506101c06139de8482850161379e565b6101c0830152506101e06139f4848285016132d8565b6101e083015250610200613a0a848285016132d8565b61020083015250610220613a20848285016132d8565b61022083015250610240613a368482850161374e565b61024083015250610260613a4c848285016132d8565b61026083015250610280613a62848285016132d8565b610280830152506102a0613a788482850161374e565b6102a0830152506102c0613a8e848285016137ca565b6102c08301525092915050565b600060208284031215613ab157613ab06131a8565b5b600082013567ffffffffffffffff811115613acf57613ace6131ad565b5b613adb848285016137df565b91505092915050565b600060208284031215613afa57613af96131a8565b5b6000613b08848285016132d8565b91505092915050565b600060208284031215613b2757613b266131a8565b5b6000613b35848285016137ca565b91505092915050565b613b47816131d2565b82525050565b6000602082019050613b626000830184613b3e565b92915050565b6000613b7382613269565b9050919050565b613b8381613b68565b82525050565b6000602082019050613b9e6000830184613b7a565b92915050565b600080600060608486031215613bbd57613bbc6131a8565b5b600084013567ffffffffffffffff811115613bdb57613bda6131ad565b5b613be786828701613445565b9350506020613bf8868287016132d8565b9250506040613c09868287016132d8565b9150509250925092565b600060208284031215613c2957613c286131a8565b5b6000613c378482850161379e565b91505092915050565b613c49816132b7565b82525050565b6000602082019050613c646000830184613c40565b92915050565b600081519050919050565b600082825260208201905092915050565b6000819050602082019050919050565b6000613ca182613269565b9050919050565b613cb181613c96565b82525050565b6000613cc38383613ca8565b60208301905092915050565b6000602082019050919050565b6000613ce782613c6a565b613cf18185613c75565b9350613cfc83613c86565b8060005b83811015613d2d578151613d148882613cb7565b9750613d1f83613ccf565b925050600181019050613d00565b5085935050505092915050565b60006020820190508181036000830152613d548184613cdc565b905092915050565b613d6581613763565b82525050565b6000602082019050613d806000830184613d5c565b92915050565b600081519050919050565b600082825260208201905092915050565b6000819050602082019050919050565b613dbb816132b7565b82525050565b6000613dcd8383613db2565b60208301905092915050565b6000602082019050919050565b6000613df182613d86565b613dfb8185613d91565b9350613e0683613da2565b8060005b83811015613e37578151613e1e8882613dc1565b9750613e2983613dd9565b925050600181019050613e0a565b5085935050505092915050565b60006020820190508181036000830152613e5e8184613de6565b905092915050565b600080600060608486031215613e7f57613e7e6131a8565b5b6000613e8d868287016132d8565b9350506020613e9e868287016132d8565b9250506040613eaf868287016132d8565b9150509250925092565b6000613ec482613763565b9050919050565b613ed481613eb9565b8114613edf57600080fd5b50565b600081359050613ef181613ecb565b92915050565b600060208284031215613f0d57613f0c6131a8565b5b6000613f1b84828501613ee2565b91505092915050565b6000613f2f82613763565b9050919050565b613f3f81613f24565b8114613f4a57600080fd5b50565b600081359050613f5c81613f36565b92915050565b600060208284031215613f7857613f776131a8565b5b6000613f8684828501613f4d565b91505092915050565b6000613f9a82613763565b9050919050565b613faa81613f8f565b8114613fb557600080fd5b50565b600081359050613fc781613fa1565b92915050565b600060208284031215613fe357613fe26131a8565b5b6000613ff184828501613fb8565b91505092915050565b600061400582613269565b9050919050565b61401581613ffa565b82525050565b6000602082019050614030600083018461400c565b92915050565b600082825260208201905092915050565b7f4f6e6c79204f776e657200000000000000000000000000000000000000000000600082015250565b600061407d600a83614036565b915061408882614047565b602082019050919050565b600060208201905081810360008301526140ac81614070565b9050919050565b6000815190506140c2816132c1565b92915050565b60005b838110156140e65780820151818401526020810190506140cb565b838111156140f5576000848401525b50505050565b600061410e614109846133c3565b6133a8565b90508281526020810184848401111561412a57614129613332565b5b6141358482856140c8565b509392505050565b600082601f8301126141525761415161332d565b5b81516141628482602086016140fb565b91505092915050565b60008151905061417a81613562565b92915050565b600061419361418e8461358e565b6133a8565b905080838252602082019050602084028301858111156141b6576141b56135ba565b5b835b818110156141df57806141cb88826140b3565b8452602084019350506020810190506141b8565b5050509392505050565b600082601f8301126141fe576141fd61332d565b5b815161420e848260208601614180565b91505092915050565b600061422a61422584613656565b6133a8565b9050808382526020820190506020840283018581111561424d5761424c6135ba565b5b835b8181101561429457805167ffffffffffffffff8111156142725761427161332d565b5b80860161427f898261413d565b8552602085019450505060208101905061424f565b5050509392505050565b600082601f8301126142b3576142b261332d565b5b81516142c3848260208601614217565b91505092915050565b6000815190506142db81613737565b92915050565b6000815190506142f081613787565b92915050565b600081519050614305816137b3565b92915050565b60006102e082840312156143225761432161354e565b5b61432d6102e06133a8565b9050600061433d848285016140b3565b6000830152506020614351848285016140b3565b602083015250604082015167ffffffffffffffff81111561437557614374613553565b5b6143818482850161413d565b60408301525060606143958482850161416b565b60608301525060806143a9848285016140b3565b60808301525060a082015167ffffffffffffffff8111156143cd576143cc613553565b5b6143d98482850161413d565b60a08301525060c082015167ffffffffffffffff8111156143fd576143fc613553565b5b6144098482850161413d565b60c08301525060e082015167ffffffffffffffff81111561442d5761442c613553565b5b6144398482850161413d565b60e08301525061010061444e848285016140b3565b61010083015250610120614464848285016140b3565b6101208301525061014061447a848285016140b3565b6101408301525061016082015167ffffffffffffffff8111156144a05761449f613553565b5b6144ac848285016141e9565b6101608301525061018082015167ffffffffffffffff8111156144d2576144d1613553565b5b6144de8482850161429e565b610180830152506101a06144f4848285016142cc565b6101a0830152506101c061450a848285016142e1565b6101c0830152506101e0614520848285016140b3565b6101e083015250610200614536848285016140b3565b6102008301525061022061454c848285016140b3565b61022083015250610240614562848285016142cc565b61024083015250610260614578848285016140b3565b6102608301525061028061458e848285016140b3565b610280830152506102a06145a4848285016142cc565b6102a0830152506102c06145ba848285016142f6565b6102c08301525092915050565b6000602082840312156145dd576145dc6131a8565b5b600082015167ffffffffffffffff8111156145fb576145fa6131ad565b5b6146078482850161430b565b91505092915050565b7f6e6f74206572633230207469636b657400000000000000000000000000000000600082015250565b6000614646601083614036565b915061465182614610565b602082019050919050565b6000602082019050818103600083015261467581614639565b9050919050565b7f616c726561647920627579207469636b65747300000000000000000000000000600082015250565b60006146b2601383614036565b91506146bd8261467c565b602082019050919050565b600060208201905081810360008301526146e1816146a5565b9050919050565b60006060820190506146fd6000830186613d5c565b61470a6020830185613d5c565b6147176040830184613c40565b949350505050565b600060208284031215614735576147346131a8565b5b6000614743848285016142cc565b91505092915050565b60006060820190506147616000830186613c40565b61476e6020830185613c40565b61477b6040830184613d5c565b949350505050565b600081519050919050565b600081905092915050565b60006147a482614783565b6147ae818561478e565b93506147be8185602086016140c8565b80840191505092915050565b60006147d68284614799565b915081905092915050565b60006147ec82614783565b6147f68185614036565b93506148068185602086016140c8565b61480f81613337565b840191505092915050565b6000604082019050818103600083015261483481856147e1565b90506148436020830184613d5c565b9392505050565b7f4f6e6c792061646d696e00000000000000000000000000000000000000000000600082015250565b6000614880600a83614036565b915061488b8261484a565b602082019050919050565b600060208201905081810360008301526148af81614873565b9050919050565b7f696e76616c69642067616d654964203000000000000000000000000000000000600082015250565b60006148ec601083614036565b91506148f7826148b6565b602082019050919050565b6000602082019050818103600083015261491b816148df565b9050919050565b7f65786973742067616d6500000000000000000000000000000000000000000000600082015250565b6000614958600a83614036565b915061496382614922565b602082019050919050565b600060208201905081810360008301526149878161494b565b9050919050565b600082825260208201905092915050565b60006149aa82614783565b6149b4818561498e565b93506149c48185602086016140c8565b6149cd81613337565b840191505092915050565b6149e181613558565b82525050565b600082825260208201905092915050565b6000614a0382613d86565b614a0d81856149e7565b9350614a1883613da2565b8060005b83811015614a49578151614a308882613dc1565b9750614a3b83613dd9565b925050600181019050614a1c565b5085935050505092915050565b600081519050919050565b600082825260208201905092915050565b6000819050602082019050919050565b6000614a8e838361499f565b905092915050565b6000602082019050919050565b6000614aae82614a56565b614ab88185614a61565b935083602082028501614aca85614a72565b8060005b85811015614b065784840389528151614ae78582614a82565b9450614af283614a96565b925060208a01995050600181019050614ace565b50829750879550505050505092915050565b614b2181613518565b82525050565b614b3081613763565b82525050565b60006102e083016000830151614b4f6000860182613db2565b506020830151614b626020860182613db2565b5060408301518482036040860152614b7a828261499f565b9150506060830151614b8f60608601826149d8565b506080830151614ba26080860182613db2565b5060a083015184820360a0860152614bba828261499f565b91505060c083015184820360c0860152614bd4828261499f565b91505060e083015184820360e0860152614bee828261499f565b915050610100830151614c05610100860182613db2565b50610120830151614c1a610120860182613db2565b50610140830151614c2f610140860182613db2565b50610160830151848203610160860152614c4982826149f8565b915050610180830151848203610180860152614c658282614aa3565b9150506101a0830151614c7c6101a0860182614b18565b506101c0830151614c916101c0860182613ca8565b506101e0830151614ca66101e0860182613db2565b50610200830151614cbb610200860182613db2565b50610220830151614cd0610220860182613db2565b50610240830151614ce5610240860182614b18565b50610260830151614cfa610260860182613db2565b50610280830151614d0f610280860182613db2565b506102a0830151614d246102a0860182614b18565b506102c0830151614d396102c0860182614b27565b508091505092915050565b60006040820190508181036000830152614d5e81856147e1565b90508181036020830152614d728184614b36565b90509392505050565b7f6e6f7420657468207469636b6574000000000000000000000000000000000000600082015250565b6000614db1600e83614036565b9150614dbc82614d7b565b602082019050919050565b60006020820190508181036000830152614de081614da4565b9050919050565b7f616c726561647920627579000000000000000000000000000000000000000000600082015250565b6000614e1d600b83614036565b9150614e2882614de7565b602082019050919050565b60006020820190508181036000830152614e4c81614e10565b9050919050565b7f696e73756666696369656e740000000000000000000000000000000000000000600082015250565b6000614e89600c83614036565b9150614e9482614e53565b602082019050919050565b60006020820190508181036000830152614eb881614e7c565b9050919050565b7f6f6e6c79206f70657261746f7200000000000000000000000000000000000000600082015250565b6000614ef5600d83614036565b9150614f0082614ebf565b602082019050919050565b60006020820190508181036000830152614f2481614ee8565b9050919050565b6000604082019050614f406000830185613c40565b614f4d6020830184613c40565b9392505050565b600067ffffffffffffffff821115614f6f57614f6e613348565b5b602082029050602081019050919050565b6000614f93614f8e84614f54565b6133a8565b90508083825260208201905060208402830185811115614fb657614fb56135ba565b5b835b81811015614fdf5780614fcb88826142f6565b845260208401935050602081019050614fb8565b5050509392505050565b600082601f830112614ffe57614ffd61332d565b5b815161500e848260208601614f80565b91505092915050565b60006020828403121561502d5761502c6131a8565b5b600082015167ffffffffffffffff81111561504b5761504a6131ad565b5b61505784828501614fe9565b91505092915050565b600067ffffffffffffffff82111561507b5761507a613348565b5b602082029050602081019050919050565b600061509f61509a84615060565b6133a8565b905080838252602082019050602084028301858111156150c2576150c16135ba565b5b835b818110156150eb57806150d7888261416b565b8452602084019350506020810190506150c4565b5050509392505050565b600082601f83011261510a5761510961332d565b5b815161511a84826020860161508c565b91505092915050565b6000610140828403121561513a5761513961354e565b5b6151456101406133a8565b90506000615155848285016140b3565b600083015250602082015167ffffffffffffffff81111561517957615178613553565b5b61518584828501614fe9565b6020830152506040615199848285016140b3565b60408301525060606151ad848285016142f6565b60608301525060806151c1848285016140b3565b60808301525060a082015167ffffffffffffffff8111156151e5576151e4613553565b5b6151f1848285016150f5565b60a08301525060c082015167ffffffffffffffff81111561521557615214613553565b5b615221848285016150f5565b60c08301525060e082015167ffffffffffffffff81111561524557615244613553565b5b615251848285016150f5565b60e083015250610100615266848285016142cc565b6101008301525061012061527c848285016142cc565b6101208301525092915050565b60006020828403121561529f5761529e6131a8565b5b600082015167ffffffffffffffff8111156152bd576152bc6131ad565b5b6152c984828501615123565b91505092915050565b600081519050919050565b600082825260208201905092915050565b6000819050602082019050919050565b600061530a8383614b27565b60208301905092915050565b6000602082019050919050565b600061532e826152d2565b61533881856152dd565b9350615343836152ee565b8060005b8381101561537457815161535b88826152fe565b975061536683615316565b925050600181019050615347565b5085935050505092915050565b600081519050919050565b600082825260208201905092915050565b6000819050602082019050919050565b60006153b983836149d8565b60208301905092915050565b6000602082019050919050565b60006153dd82615381565b6153e7818561538c565b93506153f28361539d565b8060005b8381101561542357815161540a88826153ad565b9750615415836153c5565b9250506001810190506153f6565b5085935050505092915050565b6000610140830160008301516154496000860182613db2565b50602083015184820360208601526154618282615323565b91505060408301516154766040860182613db2565b5060608301516154896060860182614b27565b50608083015161549c6080860182613db2565b5060a083015184820360a08601526154b482826153d2565b91505060c083015184820360c08601526154ce82826153d2565b91505060e083015184820360e08601526154e882826153d2565b9150506101008301516154ff610100860182614b18565b50610120830151615514610120860182614b18565b508091505092915050565b60006060820190506155346000830186613c40565b6155416020830185613c40565b81810360408301526155538184615430565b9050949350505050565b600060208284031215615573576155726131a8565b5b600082015167ffffffffffffffff811115615591576155906131ad565b5b61559d848285016141e9565b91505092915050565b7f4e487b7100000000000000000000000000000000000000000000000000000000600052603260045260246000fd5b7f4e487b7100000000000000000000000000000000000000000000000000000000600052601160045260246000fd5b600061560f826132b7565b91507fffffffffffffffffffffffffffffffffffffffffffffffffffffffffffffffff821415615642576156416155d5565b5b600182019050919050565b7f696e76616c696420627566660000000000000000000000000000000000000000600082015250565b6000615683600c83614036565b915061568e8261564d565b602082019050919050565b600060208201905081810360008301526156b281615676565b9050919050565b7f6e6f7420696e2067616d65000000000000000000000000000000000000000000600082015250565b60006156ef600b83614036565b91506156fa826156b9565b602082019050919050565b6000602082019050818103600083015261571e816156e2565b9050919050565b7f616c726561647920686173206275666600000000000000000000000000000000600082015250565b600061575b601083614036565b915061576682615725565b602082019050919050565b6000602082019050818103600083015261578a8161574e565b9050919050565b60006040820190506157a66000830185613d5c565b6157b36020830184613c40565b9392505050565b60006060820190506157cf6000830186613c40565b6157dc6020830185613c40565b6157e96040830184613c40565b949350505050565b7f796f752073686f756c642070726570617920666f722067617300000000000000600082015250565b6000615827601983614036565b9150615832826157f1565b602082019050919050565b600060208201905081810360008301526158568161581a565b9050919050565b60006060820190506158726000830186613c40565b61587f6020830185613d5c565b61588c6040830184613c40565b949350505050565b6000602082840312156158aa576158a96131a8565b5b60006158b8848285016140b3565b91505092915050565b60006158cc82613269565b9050919050565b6158dc816158c1565b82525050565b60006040820190506158f760008301856158d3565b6159046020830184613c40565b9392505050565b7f6e6f742073746172742067616d6520726f756e64000000000000000000000000600082015250565b6000615941601483614036565b915061594c8261590b565b602082019050919050565b6000602082019050818103600083015261597081615934565b9050919050565b7f6f7665722067616d6520726f756e640000000000000000000000000000000000600082015250565b60006159ad600f83614036565b91506159b882615977565b602082019050919050565b600060208201905081810360008301526159dc816159a0565b9050919050565b7f696e76616c6964207175697a4964203000000000000000000000000000000000600082015250565b6000615a19601083614036565b9150615a24826159e3565b602082019050919050565b60006020820190508181036000830152615a4881615a0c565b9050919050565b7f6e6f742065786973742067616d65000000000000000000000000000000000000600082015250565b6000615a85600e83614036565b9150615a9082615a4f565b602082019050919050565b60006020820190508181036000830152615ab481615a78565b9050919050565b6000615ac6826132b7565b9150615ad1836132b7565b9250817fffffffffffffffffffffffffffffffffffffffffffffffffffffffffffffffff0483118215151615615b0a57615b096155d5565b5b828202905092915050565b7f4e487b7100000000000000000000000000000000000000000000000000000000600052601260045260246000fd5b6000615b4f826132b7565b9150615b5a836132b7565b925082615b6a57615b69615b15565b5b828204905092915050565b7f536166654d6174683a206d756c7469706c69636174696f6e206f766572666c6f60008201527f7700000000000000000000000000000000000000000000000000000000000000602082015250565b6000615bd1602183614036565b9150615bdc82615b75565b604082019050919050565b60006020820190508181036000830152615c0081615bc4565b9050919050565b60006020820190508181036000830152615c2181846147e1565b905092915050565b6000615c34826132b7565b9150615c3f836132b7565b925082821015615c5257615c516155d5565b5b82820390509291505056fea26469706673582212203ad8523fb50d93488d54b188c84d292fde74329bf392435b7242c7519d8abbb964736f6c63430008090033",
  "linkReferences": {},
  "deployedLinkReferences": {}
}