{
  "_format": "hh-sol-artifact-1",
  "contractName": "DataStorage",
  "sourceName": "src/contracts/admin/data_storage.sol",
  "abi": [
    {
      "inputs": [],
      "stateMutability": "nonpayable",
      "type": "constructor"
    },
    {
      "inputs": [
        {
          "internalType": "string",
          "name": "_appId",
          "type": "string"
        },
        {
          "internalType": "address",
          "name": "_admin",
          "type": "address"
        }
      ],
      "name": "addAdmin",
      "outputs": [],
      "stateMutability": "nonpayable",
      "type": "function"
    },
    {
      "inputs": [
        {
          "internalType": "uint256",
          "name": "_quizId",
          "type": "uint256"
        },
        {
          "internalType": "address[]",
          "name": "_inductees",
          "type": "address[]"
        },
        {
          "internalType": "uint256",
          "name": "_participate",
          "type": "uint256"
        }
      ],
      "name": "addInductees",
      "outputs": [],
      "stateMutability": "nonpayable",
      "type": "function"
    },
    {
      "inputs": [
        {
          "internalType": "address",
          "name": "_newOperator",
          "type": "address"
        }
      ],
      "name": "addOperator",
      "outputs": [],
      "stateMutability": "nonpayable",
      "type": "function"
    },
    {
      "inputs": [
        {
          "internalType": "string",
          "name": "",
          "type": "string"
        },
        {
          "internalType": "uint256",
          "name": "",
          "type": "uint256"
        }
      ],
      "name": "admins",
      "outputs": [
        {
          "internalType": "address",
          "name": "",
          "type": "address"
        }
      ],
      "stateMutability": "view",
      "type": "function"
    },
    {
      "inputs": [
        {
          "internalType": "string",
          "name": "",
          "type": "string"
        },
        {
          "internalType": "uint256",
          "name": "",
          "type": "uint256"
        }
      ],
      "name": "appQuizzes",
      "outputs": [
        {
          "internalType": "uint256",
          "name": "",
          "type": "uint256"
        }
      ],
      "stateMutability": "view",
      "type": "function"
    },
    {
      "inputs": [
        {
          "internalType": "string",
          "name": "_appId",
          "type": "string"
        },
        {
          "internalType": "address",
          "name": "_sender",
          "type": "address"
        }
      ],
      "name": "checkAdmin",
      "outputs": [
        {
          "internalType": "bool",
          "name": "",
          "type": "bool"
        }
      ],
      "stateMutability": "view",
      "type": "function"
    },
    {
      "inputs": [
        {
          "internalType": "string",
          "name": "_appId",
          "type": "string"
        },
        {
          "internalType": "address",
          "name": "_delAdmin",
          "type": "address"
        }
      ],
      "name": "delAdmin",
      "outputs": [],
      "stateMutability": "nonpayable",
      "type": "function"
    },
    {
      "inputs": [
        {
          "internalType": "string",
          "name": "_appId",
          "type": "string"
        }
      ],
      "name": "getAppAdmins",
      "outputs": [
        {
          "internalType": "address[]",
          "name": "",
          "type": "address[]"
        }
      ],
      "stateMutability": "view",
      "type": "function"
    },
    {
      "inputs": [
        {
          "internalType": "string",
          "name": "_appId",
          "type": "string"
        }
      ],
      "name": "getAppQuizIds",
      "outputs": [
        {
          "internalType": "uint256[]",
          "name": "",
          "type": "uint256[]"
        }
      ],
      "stateMutability": "view",
      "type": "function"
    },
    {
      "inputs": [
        {
          "internalType": "address",
          "name": "_holder",
          "type": "address"
        },
        {
          "internalType": "contract IERC20",
          "name": "_token",
          "type": "address"
        }
      ],
      "name": "getErc20Bank",
      "outputs": [
        {
          "internalType": "uint256",
          "name": "",
          "type": "uint256"
        }
      ],
      "stateMutability": "view",
      "type": "function"
    },
    {
      "inputs": [
        {
          "internalType": "address",
          "name": "_holder",
          "type": "address"
        }
      ],
      "name": "getEthBank",
      "outputs": [
        {
          "internalType": "uint256",
          "name": "",
          "type": "uint256"
        }
      ],
      "stateMutability": "view",
      "type": "function"
    },
    {
      "inputs": [
        {
          "internalType": "uint256",
          "name": "_quizId",
          "type": "uint256"
        }
      ],
      "name": "getInductees",
      "outputs": [
        {
          "internalType": "address[]",
          "name": "",
          "type": "address[]"
        }
      ],
      "stateMutability": "view",
      "type": "function"
    },
    {
      "inputs": [
        {
          "internalType": "uint256[]",
          "name": "_lotteryIds",
          "type": "uint256[]"
        }
      ],
      "name": "getLotteries",
      "outputs": [
        {
          "components": [
            {
              "internalType": "contract IERC20",
              "name": "token",
              "type": "address"
            },
            {
              "internalType": "uint256[]",
              "name": "amounts",
              "type": "uint256[]"
            },
            {
              "internalType": "uint256[]",
              "name": "fixedNum",
              "type": "uint256[]"
            },
            {
              "internalType": "uint256[]",
              "name": "proportionNum",
              "type": "uint256[]"
            },
            {
              "internalType": "uint256",
              "name": "totalAmount",
              "type": "uint256"
            },
            {
              "internalType": "bool",
              "name": "isEth",
              "type": "bool"
            },
            {
              "internalType": "bool",
              "name": "over",
              "type": "bool"
            },
            {
              "internalType": "bool",
              "name": "exist",
              "type": "bool"
            }
          ],
          "internalType": "struct DataStorage.Lottery[]",
          "name": "",
          "type": "tuple[]"
        }
      ],
      "stateMutability": "view",
      "type": "function"
    },
    {
      "inputs": [
        {
          "internalType": "uint256",
          "name": "_lotteryId",
          "type": "uint256"
        }
      ],
      "name": "getLottery",
      "outputs": [
        {
          "components": [
            {
              "internalType": "contract IERC20",
              "name": "token",
              "type": "address"
            },
            {
              "internalType": "uint256[]",
              "name": "amounts",
              "type": "uint256[]"
            },
            {
              "internalType": "uint256[]",
              "name": "fixedNum",
              "type": "uint256[]"
            },
            {
              "internalType": "uint256[]",
              "name": "proportionNum",
              "type": "uint256[]"
            },
            {
              "internalType": "uint256",
              "name": "totalAmount",
              "type": "uint256"
            },
            {
              "internalType": "bool",
              "name": "isEth",
              "type": "bool"
            },
            {
              "internalType": "bool",
              "name": "over",
              "type": "bool"
            },
            {
              "internalType": "bool",
              "name": "exist",
              "type": "bool"
            }
          ],
          "internalType": "struct DataStorage.Lottery",
          "name": "",
          "type": "tuple"
        }
      ],
      "stateMutability": "view",
      "type": "function"
    },
    {
      "inputs": [
        {
          "internalType": "uint256",
          "name": "_lotteryId",
          "type": "uint256"
        }
      ],
      "name": "getLotteryCreator",
      "outputs": [
        {
          "internalType": "address",
          "name": "",
          "type": "address"
        }
      ],
      "stateMutability": "view",
      "type": "function"
    },
    {
      "inputs": [
        {
          "internalType": "uint256",
          "name": "_lotteryId",
          "type": "uint256"
        },
        {
          "internalType": "uint256",
          "name": "_index",
          "type": "uint256"
        }
      ],
      "name": "getLotteryResult",
      "outputs": [
        {
          "internalType": "address[]",
          "name": "",
          "type": "address[]"
        }
      ],
      "stateMutability": "view",
      "type": "function"
    },
    {
      "inputs": [
        {
          "internalType": "uint256",
          "name": "_quizId",
          "type": "uint256"
        }
      ],
      "name": "getQuiz",
      "outputs": [
        {
          "components": [
            {
              "internalType": "uint256",
              "name": "id",
              "type": "uint256"
            },
            {
              "internalType": "string",
              "name": "app_id",
              "type": "string"
            },
            {
              "internalType": "string[]",
              "name": "questions",
              "type": "string[]"
            },
            {
              "internalType": "uint256",
              "name": "amount",
              "type": "uint256"
            },
            {
              "internalType": "int256",
              "name": "group",
              "type": "int256"
            },
            {
              "internalType": "uint256",
              "name": "botType",
              "type": "uint256"
            },
            {
              "internalType": "bool",
              "name": "exist",
              "type": "bool"
            },
            {
              "internalType": "bool",
              "name": "over",
              "type": "bool"
            },
            {
              "internalType": "uint256",
              "name": "startTime",
              "type": "uint256"
            },
            {
              "internalType": "uint256",
              "name": "activeTime",
              "type": "uint256"
            },
            {
              "internalType": "string",
              "name": "title",
              "type": "string"
            },
            {
              "internalType": "string",
              "name": "photo",
              "type": "string"
            },
            {
              "internalType": "uint256",
              "name": "participate",
              "type": "uint256"
            }
          ],
          "internalType": "struct DataStorage.QuizDetail",
          "name": "",
          "type": "tuple"
        }
      ],
      "stateMutability": "view",
      "type": "function"
    },
    {
      "inputs": [
        {
          "internalType": "uint256[]",
          "name": "_quizIds",
          "type": "uint256[]"
        }
      ],
      "name": "getQuizzes",
      "outputs": [
        {
          "components": [
            {
              "internalType": "uint256",
              "name": "id",
              "type": "uint256"
            },
            {
              "internalType": "string",
              "name": "app_id",
              "type": "string"
            },
            {
              "internalType": "string[]",
              "name": "questions",
              "type": "string[]"
            },
            {
              "internalType": "uint256",
              "name": "amount",
              "type": "uint256"
            },
            {
              "internalType": "int256",
              "name": "group",
              "type": "int256"
            },
            {
              "internalType": "uint256",
              "name": "botType",
              "type": "uint256"
            },
            {
              "internalType": "bool",
              "name": "exist",
              "type": "bool"
            },
            {
              "internalType": "bool",
              "name": "over",
              "type": "bool"
            },
            {
              "internalType": "uint256",
              "name": "startTime",
              "type": "uint256"
            },
            {
              "internalType": "uint256",
              "name": "activeTime",
              "type": "uint256"
            },
            {
              "internalType": "string",
              "name": "title",
              "type": "string"
            },
            {
              "internalType": "string",
              "name": "photo",
              "type": "string"
            },
            {
              "internalType": "uint256",
              "name": "participate",
              "type": "uint256"
            }
          ],
          "internalType": "struct DataStorage.QuizDetail[]",
          "name": "",
          "type": "tuple[]"
        }
      ],
      "stateMutability": "view",
      "type": "function"
    },
    {
      "inputs": [],
      "name": "getShouldAwardQuizIds",
      "outputs": [
        {
          "internalType": "uint256[]",
          "name": "",
          "type": "uint256[]"
        }
      ],
      "stateMutability": "view",
      "type": "function"
    },
    {
      "inputs": [
        {
          "internalType": "address",
          "name": "",
          "type": "address"
        }
      ],
      "name": "operators",
      "outputs": [
        {
          "internalType": "bool",
          "name": "",
          "type": "bool"
        }
      ],
      "stateMutability": "view",
      "type": "function"
    },
    {
      "inputs": [
        {
          "internalType": "uint256",
          "name": "_lotteryId",
          "type": "uint256"
        }
      ],
      "name": "overLottery",
      "outputs": [],
      "stateMutability": "nonpayable",
      "type": "function"
    },
    {
      "inputs": [
        {
          "internalType": "uint256",
          "name": "_quizId",
          "type": "uint256"
        }
      ],
      "name": "overQuiz",
      "outputs": [],
      "stateMutability": "nonpayable",
      "type": "function"
    },
    {
      "inputs": [],
      "name": "owner",
      "outputs": [
        {
          "internalType": "address",
          "name": "",
          "type": "address"
        }
      ],
      "stateMutability": "view",
      "type": "function"
    },
    {
      "inputs": [
        {
          "internalType": "address",
          "name": "_holder",
          "type": "address"
        },
        {
          "internalType": "contract IERC20",
          "name": "_token",
          "type": "address"
        },
        {
          "internalType": "uint256",
          "name": "_amount",
          "type": "uint256"
        }
      ],
      "name": "setErc20Bank",
      "outputs": [],
      "stateMutability": "nonpayable",
      "type": "function"
    },
    {
      "inputs": [
        {
          "internalType": "address",
          "name": "_holder",
          "type": "address"
        },
        {
          "internalType": "uint256",
          "name": "_amount",
          "type": "uint256"
        }
      ],
      "name": "setEthBank",
      "outputs": [],
      "stateMutability": "nonpayable",
      "type": "function"
    },
    {
      "inputs": [
        {
          "internalType": "address",
          "name": "_creator",
          "type": "address"
        },
        {
          "internalType": "uint256",
          "name": "_lotteryId",
          "type": "uint256"
        },
        {
          "components": [
            {
              "internalType": "contract IERC20",
              "name": "token",
              "type": "address"
            },
            {
              "internalType": "uint256[]",
              "name": "amounts",
              "type": "uint256[]"
            },
            {
              "internalType": "uint256[]",
              "name": "fixedNum",
              "type": "uint256[]"
            },
            {
              "internalType": "uint256[]",
              "name": "proportionNum",
              "type": "uint256[]"
            },
            {
              "internalType": "uint256",
              "name": "totalAmount",
              "type": "uint256"
            },
            {
              "internalType": "bool",
              "name": "isEth",
              "type": "bool"
            },
            {
              "internalType": "bool",
              "name": "over",
              "type": "bool"
            },
            {
              "internalType": "bool",
              "name": "exist",
              "type": "bool"
            }
          ],
          "internalType": "struct DataStorage.Lottery",
          "name": "_lottery",
          "type": "tuple"
        }
      ],
      "name": "setLottery",
      "outputs": [],
      "stateMutability": "nonpayable",
      "type": "function"
    },
    {
      "inputs": [
        {
          "internalType": "uint256",
          "name": "_lotteryId",
          "type": "uint256"
        },
        {
          "internalType": "uint256",
          "name": "_index",
          "type": "uint256"
        },
        {
          "internalType": "address[]",
          "name": "_winner",
          "type": "address[]"
        }
      ],
      "name": "setLotteryResult",
      "outputs": [],
      "stateMutability": "nonpayable",
      "type": "function"
    },
    {
      "inputs": [
        {
          "internalType": "string",
          "name": "_appId",
          "type": "string"
        },
        {
          "components": [
            {
              "internalType": "uint256",
              "name": "id",
              "type": "uint256"
            },
            {
              "internalType": "string",
              "name": "app_id",
              "type": "string"
            },
            {
              "internalType": "string[]",
              "name": "questions",
              "type": "string[]"
            },
            {
              "internalType": "uint256",
              "name": "amount",
              "type": "uint256"
            },
            {
              "internalType": "int256",
              "name": "group",
              "type": "int256"
            },
            {
              "internalType": "uint256",
              "name": "botType",
              "type": "uint256"
            },
            {
              "internalType": "bool",
              "name": "exist",
              "type": "bool"
            },
            {
              "internalType": "bool",
              "name": "over",
              "type": "bool"
            },
            {
              "internalType": "uint256",
              "name": "startTime",
              "type": "uint256"
            },
            {
              "internalType": "uint256",
              "name": "activeTime",
              "type": "uint256"
            },
            {
              "internalType": "string",
              "name": "title",
              "type": "string"
            },
            {
              "internalType": "string",
              "name": "photo",
              "type": "string"
            },
            {
              "internalType": "uint256",
              "name": "participate",
              "type": "uint256"
            }
          ],
          "internalType": "struct DataStorage.QuizDetail",
          "name": "_quiz",
          "type": "tuple"
        }
      ],
      "name": "setQuiz",
      "outputs": [],
      "stateMutability": "nonpayable",
      "type": "function"
    },
    {
      "inputs": [
        {
          "internalType": "address",
          "name": "_newOwner",
          "type": "address"
        }
      ],
      "name": "transferOwner",
      "outputs": [],
      "stateMutability": "nonpayable",
      "type": "function"
    }
  ],
  "bytecode": "0x608060405234801561001057600080fd5b50336000806101000a81548173ffffffffffffffffffffffffffffffffffffffff021916908373ffffffffffffffffffffffffffffffffffffffff16021790555060018060003373ffffffffffffffffffffffffffffffffffffffff1673ffffffffffffffffffffffffffffffffffffffff16815260200190815260200160002060006101000a81548160ff021916908315150217905550614370806100b76000396000f3fe608060405234801561001057600080fd5b50600436106101cf5760003560e01c80638da5cb5b11610104578063a772c8f8116100a2578063dae2033211610071578063dae2033214610584578063db27e1ab146105b4578063e4c5acb8146105e4578063f3f8112214610600576101cf565b8063a772c8f8146104d8578063a890cb3a14610508578063b796e2b014610538578063ba2c020f14610568576101cf565b806392e845f6116100de57806392e845f61461042c5780639870d7fe1461045c578063a3f7e09614610478578063a7351f60146104a8576101cf565b80638da5cb5b146103ae5780638fdeafcc146103cc57806390c909b2146103fc576101cf565b80633cb8aecd1161017157806365200d6e1161014b57806365200d6e146103165780636f8e4b4114610346578063766be05c14610376578063828dd96714610392576101cf565b80633cb8aecd146102ae5780634251fcd8146102de5780634fb2e45d146102fa576101cf565b80631ecf6bdb116101ad5780631ecf6bdb1461023c57806331d9a5f3146102585780633630d48c1461027657806337ae802b14610292576101cf565b806301354e31146101d45780630831b05f146101f057806313e7c9d81461020c575b600080fd5b6101ee60048036038101906101e99190612e7f565b610630565b005b61020a60048036038101906102059190612f55565b61087d565b005b61022660048036038101906102219190612fb1565b61098e565b6040516102339190612fed565b60405180910390f35b61025660048036038101906102519190613046565b6109ae565b005b610260610ac0565b60405161026d9190613157565b60405180910390f35b610290600480360381019061028b919061335a565b610b18565b005b6102ac60048036038101906102a791906133c9565b610d43565b005b6102c860048036038101906102c39190612fb1565b610e17565b6040516102d59190613418565b60405180910390f35b6102f860048036038101906102f39190613433565b610e60565b005b610314600480360381019061030f9190612fb1565b610f1e565b005b610330600480360381019061032b9190613460565b611046565b60405161033d9190613418565b60405180910390f35b610360600480360381019061035b91906134bc565b61108d565b60405161036d9190613418565b60405180910390f35b610390600480360381019061038b91906135bf565b611114565b005b6103ac60048036038101906103a79190613433565b6111e8565b005b6103b66112af565b6040516103c3919061363d565b60405180910390f35b6103e660048036038101906103e19190613658565b6112d3565b6040516103f3919061375f565b60405180910390f35b61041660048036038101906104119190613781565b61137f565b6040516104239190613a27565b60405180910390f35b61044660048036038101906104419190613433565b611613565b6040516104539190613b07565b60405180910390f35b61047660048036038101906104719190612fb1565b6117fa565b005b610492600480360381019061048d9190613433565b6118e2565b60405161049f9190613db0565b60405180910390f35b6104c260048036038101906104bd9190613433565b611c1b565b6040516104cf919061363d565b60405180910390f35b6104f260048036038101906104ed9190613781565b611c58565b6040516104ff9190613fc2565b60405180910390f35b610522600480360381019061051d9190613fe4565b61203e565b60405161052f919061375f565b60405180910390f35b610552600480360381019061054d9190612f55565b6120f1565b60405161055f9190612fed565b60405180910390f35b610582600480360381019061057d9190614024565b6121d9565b005b61059e60048036038101906105999190613460565b6122a3565b6040516105ab919061363d565b60405180910390f35b6105ce60048036038101906105c99190613658565b612307565b6040516105db9190613157565b60405180910390f35b6105fe60048036038101906105f99190612f55565b61237d565b005b61061a60048036038101906106159190613433565b61255e565b604051610627919061375f565b60405180910390f35b600160003373ffffffffffffffffffffffffffffffffffffffff1673ffffffffffffffffffffffffffffffffffffffff16815260200190815260200160002060009054906101000a900460ff166106bc576040517f08c379a00000000000000000000000000000000000000000000000000000000081526004016106b3906140f0565b60405180910390fd5b600560008260000151815260200190815260200160002060060160009054906101000a900460ff1661075f57600381600001519080600181540180825580915050600190039060005260206000200160009091909190915055600682604051610725919061414c565b9081526020016040518091039020816000015190806001815401808255809150506001900390600052602060002001600090919091909150555b80600560008360000151815260200190815260200160002060008201518160000155602082015181600101908051906020019061079d9291906126de565b5060408201518160020190805190602001906107ba929190612764565b50606082015181600301556080820151816004015560a0820151816005015560c08201518160060160006101000a81548160ff02191690831515021790555060e08201518160060160016101000a81548160ff0219169083151502179055506101008201518160070155610120820151816008015561014082015181600901908051906020019061084c9291906126de565b5061016082015181600a01908051906020019061086a9291906126de565b5061018082015181600b01559050505050565b60008054906101000a900473ffffffffffffffffffffffffffffffffffffffff1673ffffffffffffffffffffffffffffffffffffffff163373ffffffffffffffffffffffffffffffffffffffff161461090b576040517f08c379a0000000000000000000000000000000000000000000000000000000008152600401610902906141af565b60405180910390fd5b60028260405161091b919061414c565b9081526020016040518091039020819080600181540180825580915050600190039060005260206000200160009091909190916101000a81548173ffffffffffffffffffffffffffffffffffffffff021916908373ffffffffffffffffffffffffffffffffffffffff1602179055505050565b60016020528060005260406000206000915054906101000a900460ff1681565b600160003373ffffffffffffffffffffffffffffffffffffffff1673ffffffffffffffffffffffffffffffffffffffff16815260200190815260200160002060009054906101000a900460ff16610a3a576040517f08c379a0000000000000000000000000000000000000000000000000000000008152600401610a31906140f0565b60405180910390fd5b80600860008573ffffffffffffffffffffffffffffffffffffffff1673ffffffffffffffffffffffffffffffffffffffff16815260200190815260200160002060008473ffffffffffffffffffffffffffffffffffffffff1673ffffffffffffffffffffffffffffffffffffffff16815260200190815260200160002081905550505050565b60606003805480602002602001604051908101604052809291908181526020018280548015610b0e57602002820191906000526020600020905b815481526020019060010190808311610afa575b5050505050905090565b600160003373ffffffffffffffffffffffffffffffffffffffff1673ffffffffffffffffffffffffffffffffffffffff16815260200190815260200160002060009054906101000a900460ff16610ba4576040517f08c379a0000000000000000000000000000000000000000000000000000000008152600401610b9b906140f0565b60405180910390fd5b600a600083815260200190815260200160002060050160029054906101000a900460ff16610c1f5782600b600084815260200190815260200160002060006101000a81548173ffffffffffffffffffffffffffffffffffffffff021916908373ffffffffffffffffffffffffffffffffffffffff1602179055505b80600a600084815260200190815260200160002060008201518160000160006101000a81548173ffffffffffffffffffffffffffffffffffffffff021916908373ffffffffffffffffffffffffffffffffffffffff1602179055506020820151816001019080519060200190610c969291906127c4565b506040820151816002019080519060200190610cb39291906127c4565b506060820151816003019080519060200190610cd09291906127c4565b506080820151816004015560a08201518160050160006101000a81548160ff02191690831515021790555060c08201518160050160016101000a81548160ff02191690831515021790555060e08201518160050160026101000a81548160ff021916908315150217905550905050505050565b600160003373ffffffffffffffffffffffffffffffffffffffff1673ffffffffffffffffffffffffffffffffffffffff16815260200190815260200160002060009054906101000a900460ff16610dcf576040517f08c379a0000000000000000000000000000000000000000000000000000000008152600401610dc6906140f0565b60405180910390fd5b80600760008473ffffffffffffffffffffffffffffffffffffffff1673ffffffffffffffffffffffffffffffffffffffff168152602001908152602001600020819055505050565b6000600760008373ffffffffffffffffffffffffffffffffffffffff1673ffffffffffffffffffffffffffffffffffffffff168152602001908152602001600020549050919050565b600160003373ffffffffffffffffffffffffffffffffffffffff1673ffffffffffffffffffffffffffffffffffffffff16815260200190815260200160002060009054906101000a900460ff16610eec576040517f08c379a0000000000000000000000000000000000000000000000000000000008152600401610ee3906140f0565b60405180910390fd5b6001600a600083815260200190815260200160002060050160016101000a81548160ff02191690831515021790555050565b60008054906101000a900473ffffffffffffffffffffffffffffffffffffffff1673ffffffffffffffffffffffffffffffffffffffff163373ffffffffffffffffffffffffffffffffffffffff1614610fac576040517f08c379a0000000000000000000000000000000000000000000000000000000008152600401610fa3906141af565b60405180910390fd5b806000806101000a81548173ffffffffffffffffffffffffffffffffffffffff021916908373ffffffffffffffffffffffffffffffffffffffff16021790555060018060008373ffffffffffffffffffffffffffffffffffffffff1673ffffffffffffffffffffffffffffffffffffffff16815260200190815260200160002060006101000a81548160ff02191690831515021790555050565b600682805160208101820180518482526020830160208501208183528095505050505050818154811061107857600080fd5b90600052602060002001600091509150505481565b6000600860008473ffffffffffffffffffffffffffffffffffffffff1673ffffffffffffffffffffffffffffffffffffffff16815260200190815260200160002060008373ffffffffffffffffffffffffffffffffffffffff1673ffffffffffffffffffffffffffffffffffffffff16815260200190815260200160002054905092915050565b600160003373ffffffffffffffffffffffffffffffffffffffff1673ffffffffffffffffffffffffffffffffffffffff16815260200190815260200160002060009054906101000a900460ff166111a0576040517f08c379a0000000000000000000000000000000000000000000000000000000008152600401611197906140f0565b60405180910390fd5b8060056000858152602001908152602001600020600b0181905550816004600085815260200190815260200160002090805190602001906111e2929190612811565b50505050565b600160003373ffffffffffffffffffffffffffffffffffffffff1673ffffffffffffffffffffffffffffffffffffffff16815260200190815260200160002060009054906101000a900460ff16611274576040517f08c379a000000000000000000000000000000000000000000000000000000000815260040161126b906140f0565b60405180910390fd5b60016005600083815260200190815260200160002060060160016101000a81548160ff0219169083151502179055506112ac816125ff565b50565b60008054906101000a900473ffffffffffffffffffffffffffffffffffffffff1681565b60606002826040516112e5919061414c565b908152602001604051809103902080548060200260200160405190810160405280929190818152602001828054801561137357602002820191906000526020600020905b8160009054906101000a900473ffffffffffffffffffffffffffffffffffffffff1673ffffffffffffffffffffffffffffffffffffffff1681526020019060010190808311611329575b50505050509050919050565b60606000825167ffffffffffffffff81111561139e5761139d612a18565b5b6040519080825280602002602001820160405280156113d757816020015b6113c461289b565b8152602001906001900390816113bc5790505b50905060005b835181101561160957600a60008583815181106113fd576113fc6141cf565b5b60200260200101518152602001908152602001600020604051806101000160405290816000820160009054906101000a900473ffffffffffffffffffffffffffffffffffffffff1673ffffffffffffffffffffffffffffffffffffffff1673ffffffffffffffffffffffffffffffffffffffff168152602001600182018054806020026020016040519081016040528092919081815260200182805480156114c457602002820191906000526020600020905b8154815260200190600101908083116114b0575b505050505081526020016002820180548060200260200160405190810160405280929190818152602001828054801561151c57602002820191906000526020600020905b815481526020019060010190808311611508575b505050505081526020016003820180548060200260200160405190810160405280929190818152602001828054801561157457602002820191906000526020600020905b815481526020019060010190808311611560575b50505050508152602001600482015481526020016005820160009054906101000a900460ff161515151581526020016005820160019054906101000a900460ff161515151581526020016005820160029054906101000a900460ff1615151515815250508282815181106115eb576115ea6141cf565b5b602002602001018190525080806116019061422d565b9150506113dd565b5080915050919050565b61161b61289b565b600a6000838152602001908152602001600020604051806101000160405290816000820160009054906101000a900473ffffffffffffffffffffffffffffffffffffffff1673ffffffffffffffffffffffffffffffffffffffff1673ffffffffffffffffffffffffffffffffffffffff168152602001600182018054806020026020016040519081016040528092919081815260200182805480156116df57602002820191906000526020600020905b8154815260200190600101908083116116cb575b505050505081526020016002820180548060200260200160405190810160405280929190818152602001828054801561173757602002820191906000526020600020905b815481526020019060010190808311611723575b505050505081526020016003820180548060200260200160405190810160405280929190818152602001828054801561178f57602002820191906000526020600020905b81548152602001906001019080831161177b575b50505050508152602001600482015481526020016005820160009054906101000a900460ff161515151581526020016005820160019054906101000a900460ff161515151581526020016005820160029054906101000a900460ff1615151515815250509050919050565b60008054906101000a900473ffffffffffffffffffffffffffffffffffffffff1673ffffffffffffffffffffffffffffffffffffffff163373ffffffffffffffffffffffffffffffffffffffff1614611888576040517f08c379a000000000000000000000000000000000000000000000000000000000815260040161187f906141af565b60405180910390fd5b60018060008373ffffffffffffffffffffffffffffffffffffffff1673ffffffffffffffffffffffffffffffffffffffff16815260200190815260200160002060006101000a81548160ff02191690831515021790555050565b6118ea6128fc565b60056000838152602001908152602001600020604051806101a001604052908160008201548152602001600182018054611923906142a5565b80601f016020809104026020016040519081016040528092919081815260200182805461194f906142a5565b801561199c5780601f106119715761010080835404028352916020019161199c565b820191906000526020600020905b81548152906001019060200180831161197f57829003601f168201915b5050505050815260200160028201805480602002602001604051908101604052809291908181526020016000905b82821015611a765783829060005260206000200180546119e9906142a5565b80601f0160208091040260200160405190810160405280929190818152602001828054611a15906142a5565b8015611a625780601f10611a3757610100808354040283529160200191611a62565b820191906000526020600020905b815481529060010190602001808311611a4557829003601f168201915b5050505050815260200190600101906119ca565b5050505081526020016003820154815260200160048201548152602001600582015481526020016006820160009054906101000a900460ff161515151581526020016006820160019054906101000a900460ff161515151581526020016007820154815260200160088201548152602001600982018054611af6906142a5565b80601f0160208091040260200160405190810160405280929190818152602001828054611b22906142a5565b8015611b6f5780601f10611b4457610100808354040283529160200191611b6f565b820191906000526020600020905b815481529060010190602001808311611b5257829003601f168201915b50505050508152602001600a82018054611b88906142a5565b80601f0160208091040260200160405190810160405280929190818152602001828054611bb4906142a5565b8015611c015780601f10611bd657610100808354040283529160200191611c01565b820191906000526020600020905b815481529060010190602001808311611be457829003601f168201915b50505050508152602001600b820154815250509050919050565b6000600b600083815260200190815260200160002060009054906101000a900473ffffffffffffffffffffffffffffffffffffffff169050919050565b60606000825167ffffffffffffffff811115611c7757611c76612a18565b5b604051908082528060200260200182016040528015611cb057816020015b611c9d6128fc565b815260200190600190039081611c955790505b50905060005b83518110156120345760056000858381518110611cd657611cd56141cf565b5b60200260200101518152602001908152602001600020604051806101a001604052908160008201548152602001600182018054611d12906142a5565b80601f0160208091040260200160405190810160405280929190818152602001828054611d3e906142a5565b8015611d8b5780601f10611d6057610100808354040283529160200191611d8b565b820191906000526020600020905b815481529060010190602001808311611d6e57829003601f168201915b5050505050815260200160028201805480602002602001604051908101604052809291908181526020016000905b82821015611e65578382906000526020600020018054611dd8906142a5565b80601f0160208091040260200160405190810160405280929190818152602001828054611e04906142a5565b8015611e515780601f10611e2657610100808354040283529160200191611e51565b820191906000526020600020905b815481529060010190602001808311611e3457829003601f168201915b505050505081526020019060010190611db9565b5050505081526020016003820154815260200160048201548152602001600582015481526020016006820160009054906101000a900460ff161515151581526020016006820160019054906101000a900460ff161515151581526020016007820154815260200160088201548152602001600982018054611ee5906142a5565b80601f0160208091040260200160405190810160405280929190818152602001828054611f11906142a5565b8015611f5e5780601f10611f3357610100808354040283529160200191611f5e565b820191906000526020600020905b815481529060010190602001808311611f4157829003601f168201915b50505050508152602001600a82018054611f77906142a5565b80601f0160208091040260200160405190810160405280929190818152602001828054611fa3906142a5565b8015611ff05780601f10611fc557610100808354040283529160200191611ff0565b820191906000526020600020905b815481529060010190602001808311611fd357829003601f168201915b50505050508152602001600b82015481525050828281518110612016576120156141cf565b5b6020026020010181905250808061202c9061422d565b915050611cb6565b5080915050919050565b60606009600084815260200190815260200160002060008381526020019081526020016000208054806020026020016040519081016040528092919081815260200182805480156120e457602002820191906000526020600020905b8160009054906101000a900473ffffffffffffffffffffffffffffffffffffffff1673ffffffffffffffffffffffffffffffffffffffff168152602001906001019080831161209a575b5050505050905092915050565b600080600090505b600284604051612109919061414c565b9081526020016040518091039020805490508110156121cd578273ffffffffffffffffffffffffffffffffffffffff16600285604051612149919061414c565b90815260200160405180910390208281548110612169576121686141cf565b5b9060005260206000200160009054906101000a900473ffffffffffffffffffffffffffffffffffffffff1673ffffffffffffffffffffffffffffffffffffffff1614156121ba5760019150506121d3565b80806121c59061422d565b9150506120f9565b50600090505b92915050565b600160003373ffffffffffffffffffffffffffffffffffffffff1673ffffffffffffffffffffffffffffffffffffffff16815260200190815260200160002060009054906101000a900460ff16612265576040517f08c379a000000000000000000000000000000000000000000000000000000000815260040161225c906140f0565b60405180910390fd5b80600960008581526020019081526020016000206000848152602001908152602001600020908051906020019061229d929190612811565b50505050565b60028280516020810182018051848252602083016020850120818352809550505050505081815481106122d557600080fd5b906000526020600020016000915091509054906101000a900473ffffffffffffffffffffffffffffffffffffffff1681565b6060600682604051612319919061414c565b908152602001604051809103902080548060200260200160405190810160405280929190818152602001828054801561237157602002820191906000526020600020905b81548152602001906001019080831161235d575b50505050509050919050565b60008054906101000a900473ffffffffffffffffffffffffffffffffffffffff1673ffffffffffffffffffffffffffffffffffffffff163373ffffffffffffffffffffffffffffffffffffffff161461240b576040517f08c379a0000000000000000000000000000000000000000000000000000000008152600401612402906141af565b60405180910390fd5b60005b60028360405161241e919061414c565b908152602001604051809103902080549050811015612558578173ffffffffffffffffffffffffffffffffffffffff1660028460405161245e919061414c565b9081526020016040518091039020828154811061247e5761247d6141cf565b5b9060005260206000200160009054906101000a900473ffffffffffffffffffffffffffffffffffffffff1673ffffffffffffffffffffffffffffffffffffffff1614156125455760006002846040516124d7919061414c565b908152602001604051809103902082815481106124f7576124f66141cf565b5b9060005260206000200160006101000a81548173ffffffffffffffffffffffffffffffffffffffff021916908373ffffffffffffffffffffffffffffffffffffffff1602179055505061255a565b80806125509061422d565b91505061240e565b505b5050565b6060600460008381526020019081526020016000208054806020026020016040519081016040528092919081815260200182805480156125f357602002820191906000526020600020905b8160009054906101000a900473ffffffffffffffffffffffffffffffffffffffff1673ffffffffffffffffffffffffffffffffffffffff16815260200190600101908083116125a9575b50505050509050919050565b60008060005b600380549050811015612657578360038281548110612627576126266141cf565b5b906000526020600020015414156126445760019250809150612657565b808061264f9061422d565b915050612605565b5081156126d9576003600160038054905061267291906142d7565b81548110612683576126826141cf565b5b9060005260206000200154600382815481106126a2576126a16141cf565b5b906000526020600020018190555060038054806126c2576126c161430b565b5b600190038181906000526020600020016000905590555b505050565b8280546126ea906142a5565b90600052602060002090601f01602090048101928261270c5760008555612753565b82601f1061272557805160ff1916838001178555612753565b82800160010185558215612753579182015b82811115612752578251825591602001919060010190612737565b5b5090506127609190612968565b5090565b8280548282559060005260206000209081019282156127b3579160200282015b828111156127b25782518290805190602001906127a29291906126de565b5091602001919060010190612784565b5b5090506127c09190612985565b5090565b828054828255906000526020600020908101928215612800579160200282015b828111156127ff5782518255916020019190600101906127e4565b5b50905061280d9190612968565b5090565b82805482825590600052602060002090810192821561288a579160200282015b828111156128895782518260006101000a81548173ffffffffffffffffffffffffffffffffffffffff021916908373ffffffffffffffffffffffffffffffffffffffff16021790555091602001919060010190612831565b5b5090506128979190612968565b5090565b604051806101000160405280600073ffffffffffffffffffffffffffffffffffffffff168152602001606081526020016060815260200160608152602001600081526020016000151581526020016000151581526020016000151581525090565b604051806101a0016040528060008152602001606081526020016060815260200160008152602001600081526020016000815260200160001515815260200160001515815260200160008152602001600081526020016060815260200160608152602001600081525090565b5b80821115612981576000816000905550600101612969565b5090565b5b808211156129a5576000818161299c91906129a9565b50600101612986565b5090565b5080546129b5906142a5565b6000825580601f106129c757506129e6565b601f0160209004906000526020600020908101906129e59190612968565b5b50565b6000604051905090565b600080fd5b600080fd5b600080fd5b600080fd5b6000601f19601f8301169050919050565b7f4e487b7100000000000000000000000000000000000000000000000000000000600052604160045260246000fd5b612a5082612a07565b810181811067ffffffffffffffff82111715612a6f57612a6e612a18565b5b80604052505050565b6000612a826129e9565b9050612a8e8282612a47565b919050565b600067ffffffffffffffff821115612aae57612aad612a18565b5b612ab782612a07565b9050602081019050919050565b82818337600083830152505050565b6000612ae6612ae184612a93565b612a78565b905082815260208101848484011115612b0257612b01612a02565b5b612b0d848285612ac4565b509392505050565b600082601f830112612b2a57612b296129fd565b5b8135612b3a848260208601612ad3565b91505092915050565b600080fd5b600080fd5b6000819050919050565b612b6081612b4d565b8114612b6b57600080fd5b50565b600081359050612b7d81612b57565b92915050565b600067ffffffffffffffff821115612b9e57612b9d612a18565b5b602082029050602081019050919050565b600080fd5b6000612bc7612bc284612b83565b612a78565b90508083825260208201905060208402830185811115612bea57612be9612baf565b5b835b81811015612c3157803567ffffffffffffffff811115612c0f57612c0e6129fd565b5b808601612c1c8982612b15565b85526020850194505050602081019050612bec565b5050509392505050565b600082601f830112612c5057612c4f6129fd565b5b8135612c60848260208601612bb4565b91505092915050565b6000819050919050565b612c7c81612c69565b8114612c8757600080fd5b50565b600081359050612c9981612c73565b92915050565b60008115159050919050565b612cb481612c9f565b8114612cbf57600080fd5b50565b600081359050612cd181612cab565b92915050565b60006101a08284031215612cee57612ced612b43565b5b612cf96101a0612a78565b90506000612d0984828501612b6e565b600083015250602082013567ffffffffffffffff811115612d2d57612d2c612b48565b5b612d3984828501612b15565b602083015250604082013567ffffffffffffffff811115612d5d57612d5c612b48565b5b612d6984828501612c3b565b6040830152506060612d7d84828501612b6e565b6060830152506080612d9184828501612c8a565b60808301525060a0612da584828501612b6e565b60a08301525060c0612db984828501612cc2565b60c08301525060e0612dcd84828501612cc2565b60e083015250610100612de284828501612b6e565b61010083015250610120612df884828501612b6e565b6101208301525061014082013567ffffffffffffffff811115612e1e57612e1d612b48565b5b612e2a84828501612b15565b6101408301525061016082013567ffffffffffffffff811115612e5057612e4f612b48565b5b612e5c84828501612b15565b61016083015250610180612e7284828501612b6e565b6101808301525092915050565b60008060408385031215612e9657612e956129f3565b5b600083013567ffffffffffffffff811115612eb457612eb36129f8565b5b612ec085828601612b15565b925050602083013567ffffffffffffffff811115612ee157612ee06129f8565b5b612eed85828601612cd7565b9150509250929050565b600073ffffffffffffffffffffffffffffffffffffffff82169050919050565b6000612f2282612ef7565b9050919050565b612f3281612f17565b8114612f3d57600080fd5b50565b600081359050612f4f81612f29565b92915050565b60008060408385031215612f6c57612f6b6129f3565b5b600083013567ffffffffffffffff811115612f8a57612f896129f8565b5b612f9685828601612b15565b9250506020612fa785828601612f40565b9150509250929050565b600060208284031215612fc757612fc66129f3565b5b6000612fd584828501612f40565b91505092915050565b612fe781612c9f565b82525050565b60006020820190506130026000830184612fde565b92915050565b600061301382612f17565b9050919050565b61302381613008565b811461302e57600080fd5b50565b6000813590506130408161301a565b92915050565b60008060006060848603121561305f5761305e6129f3565b5b600061306d86828701612f40565b935050602061307e86828701613031565b925050604061308f86828701612b6e565b9150509250925092565b600081519050919050565b600082825260208201905092915050565b6000819050602082019050919050565b6130ce81612b4d565b82525050565b60006130e083836130c5565b60208301905092915050565b6000602082019050919050565b600061310482613099565b61310e81856130a4565b9350613119836130b5565b8060005b8381101561314a57815161313188826130d4565b975061313c836130ec565b92505060018101905061311d565b5085935050505092915050565b6000602082019050818103600083015261317181846130f9565b905092915050565b600067ffffffffffffffff82111561319457613193612a18565b5b602082029050602081019050919050565b60006131b86131b384613179565b612a78565b905080838252602082019050602084028301858111156131db576131da612baf565b5b835b8181101561320457806131f08882612b6e565b8452602084019350506020810190506131dd565b5050509392505050565b600082601f830112613223576132226129fd565b5b81356132338482602086016131a5565b91505092915050565b6000610100828403121561325357613252612b43565b5b61325e610100612a78565b9050600061326e84828501613031565b600083015250602082013567ffffffffffffffff81111561329257613291612b48565b5b61329e8482850161320e565b602083015250604082013567ffffffffffffffff8111156132c2576132c1612b48565b5b6132ce8482850161320e565b604083015250606082013567ffffffffffffffff8111156132f2576132f1612b48565b5b6132fe8482850161320e565b606083015250608061331284828501612b6e565b60808301525060a061332684828501612cc2565b60a08301525060c061333a84828501612cc2565b60c08301525060e061334e84828501612cc2565b60e08301525092915050565b600080600060608486031215613373576133726129f3565b5b600061338186828701612f40565b935050602061339286828701612b6e565b925050604084013567ffffffffffffffff8111156133b3576133b26129f8565b5b6133bf8682870161323c565b9150509250925092565b600080604083850312156133e0576133df6129f3565b5b60006133ee85828601612f40565b92505060206133ff85828601612b6e565b9150509250929050565b61341281612b4d565b82525050565b600060208201905061342d6000830184613409565b92915050565b600060208284031215613449576134486129f3565b5b600061345784828501612b6e565b91505092915050565b60008060408385031215613477576134766129f3565b5b600083013567ffffffffffffffff811115613495576134946129f8565b5b6134a185828601612b15565b92505060206134b285828601612b6e565b9150509250929050565b600080604083850312156134d3576134d26129f3565b5b60006134e185828601612f40565b92505060206134f285828601613031565b9150509250929050565b600067ffffffffffffffff82111561351757613516612a18565b5b602082029050602081019050919050565b600061353b613536846134fc565b612a78565b9050808382526020820190506020840283018581111561355e5761355d612baf565b5b835b8181101561358757806135738882612f40565b845260208401935050602081019050613560565b5050509392505050565b600082601f8301126135a6576135a56129fd565b5b81356135b6848260208601613528565b91505092915050565b6000806000606084860312156135d8576135d76129f3565b5b60006135e686828701612b6e565b935050602084013567ffffffffffffffff811115613607576136066129f8565b5b61361386828701613591565b925050604061362486828701612b6e565b9150509250925092565b61363781612f17565b82525050565b6000602082019050613652600083018461362e565b92915050565b60006020828403121561366e5761366d6129f3565b5b600082013567ffffffffffffffff81111561368c5761368b6129f8565b5b61369884828501612b15565b91505092915050565b600081519050919050565b600082825260208201905092915050565b6000819050602082019050919050565b6136d681612f17565b82525050565b60006136e883836136cd565b60208301905092915050565b6000602082019050919050565b600061370c826136a1565b61371681856136ac565b9350613721836136bd565b8060005b8381101561375257815161373988826136dc565b9750613744836136f4565b925050600181019050613725565b5085935050505092915050565b600060208201905081810360008301526137798184613701565b905092915050565b600060208284031215613797576137966129f3565b5b600082013567ffffffffffffffff8111156137b5576137b46129f8565b5b6137c18482850161320e565b91505092915050565b600081519050919050565b600082825260208201905092915050565b6000819050602082019050919050565b6000819050919050565b600061381b61381661381184612ef7565b6137f6565b612ef7565b9050919050565b600061382d82613800565b9050919050565b600061383f82613822565b9050919050565b61384f81613834565b82525050565b600082825260208201905092915050565b600061387182613099565b61387b8185613855565b9350613886836130b5565b8060005b838110156138b757815161389e88826130d4565b97506138a9836130ec565b92505060018101905061388a565b5085935050505092915050565b6138cd81612c9f565b82525050565b6000610100830160008301516138ec6000860182613846565b50602083015184820360208601526139048282613866565b9150506040830151848203604086015261391e8282613866565b915050606083015184820360608601526139388282613866565b915050608083015161394d60808601826130c5565b5060a083015161396060a08601826138c4565b5060c083015161397360c08601826138c4565b5060e083015161398660e08601826138c4565b508091505092915050565b600061399d83836138d3565b905092915050565b6000602082019050919050565b60006139bd826137ca565b6139c781856137d5565b9350836020820285016139d9856137e6565b8060005b85811015613a1557848403895281516139f68582613991565b9450613a01836139a5565b925060208a019950506001810190506139dd565b50829750879550505050505092915050565b60006020820190508181036000830152613a4181846139b2565b905092915050565b600061010083016000830151613a626000860182613846565b5060208301518482036020860152613a7a8282613866565b91505060408301518482036040860152613a948282613866565b91505060608301518482036060860152613aae8282613866565b9150506080830151613ac360808601826130c5565b5060a0830151613ad660a08601826138c4565b5060c0830151613ae960c08601826138c4565b5060e0830151613afc60e08601826138c4565b508091505092915050565b60006020820190508181036000830152613b218184613a49565b905092915050565b600081519050919050565b600082825260208201905092915050565b60005b83811015613b63578082015181840152602081019050613b48565b83811115613b72576000848401525b50505050565b6000613b8382613b29565b613b8d8185613b34565b9350613b9d818560208601613b45565b613ba681612a07565b840191505092915050565b600081519050919050565b600082825260208201905092915050565b6000819050602082019050919050565b6000613be98383613b78565b905092915050565b6000602082019050919050565b6000613c0982613bb1565b613c138185613bbc565b935083602082028501613c2585613bcd565b8060005b85811015613c615784840389528151613c428582613bdd565b9450613c4d83613bf1565b925060208a01995050600181019050613c29565b50829750879550505050505092915050565b613c7c81612c69565b82525050565b60006101a083016000830151613c9b60008601826130c5565b5060208301518482036020860152613cb38282613b78565b91505060408301518482036040860152613ccd8282613bfe565b9150506060830151613ce260608601826130c5565b506080830151613cf56080860182613c73565b5060a0830151613d0860a08601826130c5565b5060c0830151613d1b60c08601826138c4565b5060e0830151613d2e60e08601826138c4565b50610100830151613d436101008601826130c5565b50610120830151613d586101208601826130c5565b50610140830151848203610140860152613d728282613b78565b915050610160830151848203610160860152613d8e8282613b78565b915050610180830151613da56101808601826130c5565b508091505092915050565b60006020820190508181036000830152613dca8184613c82565b905092915050565b600081519050919050565b600082825260208201905092915050565b6000819050602082019050919050565b60006101a083016000830151613e1760008601826130c5565b5060208301518482036020860152613e2f8282613b78565b91505060408301518482036040860152613e498282613bfe565b9150506060830151613e5e60608601826130c5565b506080830151613e716080860182613c73565b5060a0830151613e8460a08601826130c5565b5060c0830151613e9760c08601826138c4565b5060e0830151613eaa60e08601826138c4565b50610100830151613ebf6101008601826130c5565b50610120830151613ed46101208601826130c5565b50610140830151848203610140860152613eee8282613b78565b915050610160830151848203610160860152613f0a8282613b78565b915050610180830151613f216101808601826130c5565b508091505092915050565b6000613f388383613dfe565b905092915050565b6000602082019050919050565b6000613f5882613dd2565b613f628185613ddd565b935083602082028501613f7485613dee565b8060005b85811015613fb05784840389528151613f918582613f2c565b9450613f9c83613f40565b925060208a01995050600181019050613f78565b50829750879550505050505092915050565b60006020820190508181036000830152613fdc8184613f4d565b905092915050565b60008060408385031215613ffb57613ffa6129f3565b5b600061400985828601612b6e565b925050602061401a85828601612b6e565b9150509250929050565b60008060006060848603121561403d5761403c6129f3565b5b600061404b86828701612b6e565b935050602061405c86828701612b6e565b925050604084013567ffffffffffffffff81111561407d5761407c6129f8565b5b61408986828701613591565b9150509250925092565b600082825260208201905092915050565b7f4f6e6c79204f70657261746f7200000000000000000000000000000000000000600082015250565b60006140da600d83614093565b91506140e5826140a4565b602082019050919050565b60006020820190508181036000830152614109816140cd565b9050919050565b600081905092915050565b600061412682613b29565b6141308185614110565b9350614140818560208601613b45565b80840191505092915050565b6000614158828461411b565b915081905092915050565b7f4f6e6c79204f776e657200000000000000000000000000000000000000000000600082015250565b6000614199600a83614093565b91506141a482614163565b602082019050919050565b600060208201905081810360008301526141c88161418c565b9050919050565b7f4e487b7100000000000000000000000000000000000000000000000000000000600052603260045260246000fd5b7f4e487b7100000000000000000000000000000000000000000000000000000000600052601160045260246000fd5b600061423882612b4d565b91507fffffffffffffffffffffffffffffffffffffffffffffffffffffffffffffffff82141561426b5761426a6141fe565b5b600182019050919050565b7f4e487b7100000000000000000000000000000000000000000000000000000000600052602260045260246000fd5b600060028204905060018216806142bd57607f821691505b602082108114156142d1576142d0614276565b5b50919050565b60006142e282612b4d565b91506142ed83612b4d565b925082821015614300576142ff6141fe565b5b828203905092915050565b7f4e487b7100000000000000000000000000000000000000000000000000000000600052603160045260246000fdfea2646970667358221220994130eee3173d969c08b21753fe28999c36c2805e7523e297b67a49b442c68864736f6c63430008090033",
  "linkReferences": {},
  "deployedLinkReferences": {}
}