{
  "_format": "hh-sol-artifact-1",
  "contractName": "UnlimitedToken",
  "sourceName": "src/contracts/unlimitedtoken.sol",
  "abi": [
    {
      "inputs": [
        {
          "internalType": "string",
          "name": "_name",
          "type": "string"
        },
        {
          "internalType": "string",
          "name": "_symbol",
          "type": "string"
        }
      ],
      "stateMutability": "nonpayable",
      "type": "constructor"
    },
    {
      "anonymous": false,
      "inputs": [
        {
          "indexed": true,
          "internalType": "address",
          "name": "owner",
          "type": "address"
        },
        {
          "indexed": true,
          "internalType": "address",
          "name": "spender",
          "type": "address"
        },
        {
          "indexed": false,
          "internalType": "uint256",
          "name": "value",
          "type": "uint256"
        }
      ],
      "name": "Approval",
      "type": "event"
    },
    {
      "anonymous": false,
      "inputs": [
        {
          "indexed": true,
          "internalType": "address",
          "name": "from",
          "type": "address"
        },
        {
          "indexed": true,
          "internalType": "address",
          "name": "to",
          "type": "address"
        },
        {
          "indexed": false,
          "internalType": "uint256",
          "name": "value",
          "type": "uint256"
        }
      ],
      "name": "Transfer",
      "type": "event"
    },
    {
      "inputs": [
        {
          "internalType": "address",
          "name": "_operator",
          "type": "address"
        }
      ],
      "name": "addOperator",
      "outputs": [],
      "stateMutability": "nonpayable",
      "type": "function"
    },
    {
      "inputs": [
        {
          "internalType": "address",
          "name": "owner",
          "type": "address"
        },
        {
          "internalType": "address",
          "name": "spender",
          "type": "address"
        }
      ],
      "name": "allowance",
      "outputs": [
        {
          "internalType": "uint256",
          "name": "",
          "type": "uint256"
        }
      ],
      "stateMutability": "view",
      "type": "function"
    },
    {
      "inputs": [
        {
          "internalType": "address",
          "name": "spender",
          "type": "address"
        },
        {
          "internalType": "uint256",
          "name": "amount",
          "type": "uint256"
        }
      ],
      "name": "approve",
      "outputs": [
        {
          "internalType": "bool",
          "name": "",
          "type": "bool"
        }
      ],
      "stateMutability": "nonpayable",
      "type": "function"
    },
    {
      "inputs": [
        {
          "internalType": "address",
          "name": "account",
          "type": "address"
        }
      ],
      "name": "balanceOf",
      "outputs": [
        {
          "internalType": "uint256",
          "name": "",
          "type": "uint256"
        }
      ],
      "stateMutability": "view",
      "type": "function"
    },
    {
      "inputs": [
        {
          "internalType": "address",
          "name": "account",
          "type": "address"
        },
        {
          "internalType": "uint256",
          "name": "amount",
          "type": "uint256"
        }
      ],
      "name": "burn",
      "outputs": [],
      "stateMutability": "nonpayable",
      "type": "function"
    },
    {
      "inputs": [],
      "name": "decimals",
      "outputs": [
        {
          "internalType": "uint8",
          "name": "",
          "type": "uint8"
        }
      ],
      "stateMutability": "view",
      "type": "function"
    },
    {
      "inputs": [
        {
          "internalType": "address",
          "name": "spender",
          "type": "address"
        },
        {
          "internalType": "uint256",
          "name": "subtractedValue",
          "type": "uint256"
        }
      ],
      "name": "decreaseAllowance",
      "outputs": [
        {
          "internalType": "bool",
          "name": "",
          "type": "bool"
        }
      ],
      "stateMutability": "nonpayable",
      "type": "function"
    },
    {
      "inputs": [
        {
          "internalType": "address",
          "name": "spender",
          "type": "address"
        },
        {
          "internalType": "uint256",
          "name": "addedValue",
          "type": "uint256"
        }
      ],
      "name": "increaseAllowance",
      "outputs": [
        {
          "internalType": "bool",
          "name": "",
          "type": "bool"
        }
      ],
      "stateMutability": "nonpayable",
      "type": "function"
    },
    {
      "inputs": [
        {
          "internalType": "address",
          "name": "account",
          "type": "address"
        },
        {
          "internalType": "uint256",
          "name": "amount",
          "type": "uint256"
        }
      ],
      "name": "mint",
      "outputs": [],
      "stateMutability": "nonpayable",
      "type": "function"
    },
    {
      "inputs": [],
      "name": "name",
      "outputs": [
        {
          "internalType": "string",
          "name": "",
          "type": "string"
        }
      ],
      "stateMutability": "view",
      "type": "function"
    },
    {
      "inputs": [
        {
          "internalType": "address",
          "name": "",
          "type": "address"
        }
      ],
      "name": "operators",
      "outputs": [
        {
          "internalType": "bool",
          "name": "",
          "type": "bool"
        }
      ],
      "stateMutability": "view",
      "type": "function"
    },
    {
      "inputs": [],
      "name": "owner",
      "outputs": [
        {
          "internalType": "address",
          "name": "",
          "type": "address"
        }
      ],
      "stateMutability": "view",
      "type": "function"
    },
    {
      "inputs": [],
      "name": "symbol",
      "outputs": [
        {
          "internalType": "string",
          "name": "",
          "type": "string"
        }
      ],
      "stateMutability": "view",
      "type": "function"
    },
    {
      "inputs": [],
      "name": "totalSupply",
      "outputs": [
        {
          "internalType": "uint256",
          "name": "",
          "type": "uint256"
        }
      ],
      "stateMutability": "view",
      "type": "function"
    },
    {
      "inputs": [
        {
          "internalType": "address",
          "name": "recipient",
          "type": "address"
        },
        {
          "internalType": "uint256",
          "name": "amount",
          "type": "uint256"
        }
      ],
      "name": "transfer",
      "outputs": [
        {
          "internalType": "bool",
          "name": "",
          "type": "bool"
        }
      ],
      "stateMutability": "nonpayable",
      "type": "function"
    },
    {
      "inputs": [
        {
          "internalType": "address",
          "name": "sender",
          "type": "address"
        },
        {
          "internalType": "address",
          "name": "recipient",
          "type": "address"
        },
        {
          "internalType": "uint256",
          "name": "amount",
          "type": "uint256"
        }
      ],
      "name": "transferFrom",
      "outputs": [
        {
          "internalType": "bool",
          "name": "",
          "type": "bool"
        }
      ],
      "stateMutability": "nonpayable",
      "type": "function"
    }
  ],
  "bytecode": "0x60806040523480156200001157600080fd5b5060405162002163380380620021638339818101604052810190620000379190620003a7565b81818160039080519060200190620000519291906200015a565b5080600490805190602001906200006a9291906200015a565b506012600560006101000a81548160ff021916908360ff160217905550505033600560016101000a81548173ffffffffffffffffffffffffffffffffffffffff021916908373ffffffffffffffffffffffffffffffffffffffff1602179055506001600660003373ffffffffffffffffffffffffffffffffffffffff1673ffffffffffffffffffffffffffffffffffffffff16815260200190815260200160002060006101000a81548160ff0219169083151502179055506200013460126200013c60201b60201c565b505062000491565b80600560006101000a81548160ff021916908360ff16021790555050565b82805462000168906200045b565b90600052602060002090601f0160209004810192826200018c5760008555620001d8565b82601f10620001a757805160ff1916838001178555620001d8565b82800160010185558215620001d8579182015b82811115620001d7578251825591602001919060010190620001ba565b5b509050620001e79190620001eb565b5090565b5b8082111562000206576000816000905550600101620001ec565b5090565b6000604051905090565b600080fd5b600080fd5b600080fd5b600080fd5b6000601f19601f8301169050919050565b7f4e487b7100000000000000000000000000000000000000000000000000000000600052604160045260246000fd5b620002738262000228565b810181811067ffffffffffffffff8211171562000295576200029462000239565b5b80604052505050565b6000620002aa6200020a565b9050620002b8828262000268565b919050565b600067ffffffffffffffff821115620002db57620002da62000239565b5b620002e68262000228565b9050602081019050919050565b60005b8381101562000313578082015181840152602081019050620002f6565b8381111562000323576000848401525b50505050565b6000620003406200033a84620002bd565b6200029e565b9050828152602081018484840111156200035f576200035e62000223565b5b6200036c848285620002f3565b509392505050565b600082601f8301126200038c576200038b6200021e565b5b81516200039e84826020860162000329565b91505092915050565b60008060408385031215620003c157620003c062000214565b5b600083015167ffffffffffffffff811115620003e257620003e162000219565b5b620003f08582860162000374565b925050602083015167ffffffffffffffff81111562000414576200041362000219565b5b620004228582860162000374565b9150509250929050565b7f4e487b7100000000000000000000000000000000000000000000000000000000600052602260045260246000fd5b600060028204905060018216806200047457607f821691505b602082108114156200048b576200048a6200042c565b5b50919050565b611cc280620004a16000396000f3fe608060405234801561001057600080fd5b50600436106101005760003560e01c806370a08231116100975780639dc29fac116100665780639dc29fac146102c3578063a457c2d7146102df578063a9059cbb1461030f578063dd62ed3e1461033f57610100565b806370a082311461023b5780638da5cb5b1461026b57806395d89b41146102895780639870d7fe146102a757610100565b806323b872dd116100d357806323b872dd146101a1578063313ce567146101d157806339509351146101ef57806340c10f191461021f57610100565b806306fdde0314610105578063095ea7b31461012357806313e7c9d81461015357806318160ddd14610183575b600080fd5b61010d61036f565b60405161011a91906113d7565b60405180910390f35b61013d60048036038101906101389190611492565b610401565b60405161014a91906114ed565b60405180910390f35b61016d60048036038101906101689190611508565b61041f565b60405161017a91906114ed565b60405180910390f35b61018b61043f565b6040516101989190611544565b60405180910390f35b6101bb60048036038101906101b6919061155f565b610449565b6040516101c891906114ed565b60405180910390f35b6101d9610522565b6040516101e691906115ce565b60405180910390f35b61020960048036038101906102049190611492565b610539565b60405161021691906114ed565b60405180910390f35b61023960048036038101906102349190611492565b6105ec565b005b61025560048036038101906102509190611508565b610686565b6040516102629190611544565b60405180910390f35b6102736106ce565b60405161028091906115f8565b60405180910390f35b6102916106f4565b60405161029e91906113d7565b60405180910390f35b6102c160048036038101906102bc9190611508565b610786565b005b6102dd60048036038101906102d89190611492565b610871565b005b6102f960048036038101906102f49190611492565b61090b565b60405161030691906114ed565b60405180910390f35b61032960048036038101906103249190611492565b6109d8565b60405161033691906114ed565b60405180910390f35b61035960048036038101906103549190611613565b6109f6565b6040516103669190611544565b60405180910390f35b60606003805461037e90611682565b80601f01602080910402602001604051908101604052809291908181526020018280546103aa90611682565b80156103f75780601f106103cc576101008083540402835291602001916103f7565b820191906000526020600020905b8154815290600101906020018083116103da57829003601f168201915b5050505050905090565b600061041561040e610a7d565b8484610a85565b6001905092915050565b60066020528060005260406000206000915054906101000a900460ff1681565b6000600254905090565b6000610456848484610c50565b61051784610462610a7d565b61051285604051806060016040528060288152602001611c4060289139600160008b73ffffffffffffffffffffffffffffffffffffffff1673ffffffffffffffffffffffffffffffffffffffff16815260200190815260200160002060006104c8610a7d565b73ffffffffffffffffffffffffffffffffffffffff1673ffffffffffffffffffffffffffffffffffffffff16815260200190815260200160002054610ee59092919063ffffffff16565b610a85565b600190509392505050565b6000600560009054906101000a900460ff16905090565b60006105e2610546610a7d565b846105dd8560016000610557610a7d565b73ffffffffffffffffffffffffffffffffffffffff1673ffffffffffffffffffffffffffffffffffffffff16815260200190815260200160002060008973ffffffffffffffffffffffffffffffffffffffff1673ffffffffffffffffffffffffffffffffffffffff16815260200190815260200160002054610f4990919063ffffffff16565b610a85565b6001905092915050565b600660003373ffffffffffffffffffffffffffffffffffffffff1673ffffffffffffffffffffffffffffffffffffffff16815260200190815260200160002060009054906101000a900460ff16610678576040517f08c379a000000000000000000000000000000000000000000000000000000000815260040161066f90611700565b60405180910390fd5b6106828282610fa7565b5050565b60008060008373ffffffffffffffffffffffffffffffffffffffff1673ffffffffffffffffffffffffffffffffffffffff168152602001908152602001600020549050919050565b600560019054906101000a900473ffffffffffffffffffffffffffffffffffffffff1681565b60606004805461070390611682565b80601f016020809104026020016040519081016040528092919081815260200182805461072f90611682565b801561077c5780601f106107515761010080835404028352916020019161077c565b820191906000526020600020905b81548152906001019060200180831161075f57829003601f168201915b5050505050905090565b600560019054906101000a900473ffffffffffffffffffffffffffffffffffffffff1673ffffffffffffffffffffffffffffffffffffffff163373ffffffffffffffffffffffffffffffffffffffff1614610816576040517f08c379a000000000000000000000000000000000000000000000000000000000815260040161080d9061176c565b60405180910390fd5b6001600660008373ffffffffffffffffffffffffffffffffffffffff1673ffffffffffffffffffffffffffffffffffffffff16815260200190815260200160002060006101000a81548160ff02191690831515021790555050565b600660003373ffffffffffffffffffffffffffffffffffffffff1673ffffffffffffffffffffffffffffffffffffffff16815260200190815260200160002060009054906101000a900460ff166108fd576040517f08c379a00000000000000000000000000000000000000000000000000000000081526004016108f490611700565b60405180910390fd5b6109078282611141565b5050565b60006109ce610918610a7d565b846109c985604051806060016040528060258152602001611c686025913960016000610942610a7d565b73ffffffffffffffffffffffffffffffffffffffff1673ffffffffffffffffffffffffffffffffffffffff16815260200190815260200160002060008a73ffffffffffffffffffffffffffffffffffffffff1673ffffffffffffffffffffffffffffffffffffffff16815260200190815260200160002054610ee59092919063ffffffff16565b610a85565b6001905092915050565b60006109ec6109e5610a7d565b8484610c50565b6001905092915050565b6000600160008473ffffffffffffffffffffffffffffffffffffffff1673ffffffffffffffffffffffffffffffffffffffff16815260200190815260200160002060008373ffffffffffffffffffffffffffffffffffffffff1673ffffffffffffffffffffffffffffffffffffffff16815260200190815260200160002054905092915050565b600033905090565b600073ffffffffffffffffffffffffffffffffffffffff168373ffffffffffffffffffffffffffffffffffffffff161415610af5576040517f08c379a0000000000000000000000000000000000000000000000000000000008152600401610aec906117fe565b60405180910390fd5b600073ffffffffffffffffffffffffffffffffffffffff168273ffffffffffffffffffffffffffffffffffffffff161415610b65576040517f08c379a0000000000000000000000000000000000000000000000000000000008152600401610b5c90611890565b60405180910390fd5b80600160008573ffffffffffffffffffffffffffffffffffffffff1673ffffffffffffffffffffffffffffffffffffffff16815260200190815260200160002060008473ffffffffffffffffffffffffffffffffffffffff1673ffffffffffffffffffffffffffffffffffffffff168152602001908152602001600020819055508173ffffffffffffffffffffffffffffffffffffffff168373ffffffffffffffffffffffffffffffffffffffff167f8c5be1e5ebec7d5bd14f71427d1e84f3dd0314c0f7b2291e5b200ac8c7c3b92583604051610c439190611544565b60405180910390a3505050565b600073ffffffffffffffffffffffffffffffffffffffff168373ffffffffffffffffffffffffffffffffffffffff161415610cc0576040517f08c379a0000000000000000000000000000000000000000000000000000000008152600401610cb790611922565b60405180910390fd5b600073ffffffffffffffffffffffffffffffffffffffff168273ffffffffffffffffffffffffffffffffffffffff161415610d30576040517f08c379a0000000000000000000000000000000000000000000000000000000008152600401610d27906119b4565b60405180910390fd5b610d3b8383836112ef565b610da681604051806060016040528060268152602001611c1a602691396000808773ffffffffffffffffffffffffffffffffffffffff1673ffffffffffffffffffffffffffffffffffffffff16815260200190815260200160002054610ee59092919063ffffffff16565b6000808573ffffffffffffffffffffffffffffffffffffffff1673ffffffffffffffffffffffffffffffffffffffff16815260200190815260200160002081905550610e39816000808573ffffffffffffffffffffffffffffffffffffffff1673ffffffffffffffffffffffffffffffffffffffff16815260200190815260200160002054610f4990919063ffffffff16565b6000808473ffffffffffffffffffffffffffffffffffffffff1673ffffffffffffffffffffffffffffffffffffffff168152602001908152602001600020819055508173ffffffffffffffffffffffffffffffffffffffff168373ffffffffffffffffffffffffffffffffffffffff167fddf252ad1be2c89b69c2b068fc378daa952ba7f163c4a11628f55a4df523b3ef83604051610ed89190611544565b60405180910390a3505050565b6000838311158290610f2d576040517f08c379a0000000000000000000000000000000000000000000000000000000008152600401610f2491906113d7565b60405180910390fd5b5060008385610f3c9190611a03565b9050809150509392505050565b6000808284610f589190611a37565b905083811015610f9d576040517f08c379a0000000000000000000000000000000000000000000000000000000008152600401610f9490611ad9565b60405180910390fd5b8091505092915050565b600073ffffffffffffffffffffffffffffffffffffffff168273ffffffffffffffffffffffffffffffffffffffff161415611017576040517f08c379a000000000000000000000000000000000000000000000000000000000815260040161100e90611b45565b60405180910390fd5b611023600083836112ef565b600061103a82600254610f4990919063ffffffff16565b905080600281905550611094826000808673ffffffffffffffffffffffffffffffffffffffff1673ffffffffffffffffffffffffffffffffffffffff16815260200190815260200160002054610f4990919063ffffffff16565b6000808573ffffffffffffffffffffffffffffffffffffffff1673ffffffffffffffffffffffffffffffffffffffff168152602001908152602001600020819055508273ffffffffffffffffffffffffffffffffffffffff16600073ffffffffffffffffffffffffffffffffffffffff167fddf252ad1be2c89b69c2b068fc378daa952ba7f163c4a11628f55a4df523b3ef846040516111349190611544565b60405180910390a3505050565b600073ffffffffffffffffffffffffffffffffffffffff168273ffffffffffffffffffffffffffffffffffffffff1614156111b1576040517f08c379a00000000000000000000000000000000000000000000000000000000081526004016111a890611bd7565b60405180910390fd5b6111bd826000836112ef565b61122881604051806060016040528060228152602001611bf8602291396000808673ffffffffffffffffffffffffffffffffffffffff1673ffffffffffffffffffffffffffffffffffffffff16815260200190815260200160002054610ee59092919063ffffffff16565b6000808473ffffffffffffffffffffffffffffffffffffffff1673ffffffffffffffffffffffffffffffffffffffff1681526020019081526020016000208190555061127f816002546112f490919063ffffffff16565b600281905550600073ffffffffffffffffffffffffffffffffffffffff168273ffffffffffffffffffffffffffffffffffffffff167fddf252ad1be2c89b69c2b068fc378daa952ba7f163c4a11628f55a4df523b3ef836040516112e39190611544565b60405180910390a35050565b505050565b600061133683836040518060400160405280601e81526020017f536166654d6174683a207375627472616374696f6e206f766572666c6f770000815250610ee5565b905092915050565b600081519050919050565b600082825260208201905092915050565b60005b8381101561137857808201518184015260208101905061135d565b83811115611387576000848401525b50505050565b6000601f19601f8301169050919050565b60006113a98261133e565b6113b38185611349565b93506113c381856020860161135a565b6113cc8161138d565b840191505092915050565b600060208201905081810360008301526113f1818461139e565b905092915050565b600080fd5b600073ffffffffffffffffffffffffffffffffffffffff82169050919050565b6000611429826113fe565b9050919050565b6114398161141e565b811461144457600080fd5b50565b60008135905061145681611430565b92915050565b6000819050919050565b61146f8161145c565b811461147a57600080fd5b50565b60008135905061148c81611466565b92915050565b600080604083850312156114a9576114a86113f9565b5b60006114b785828601611447565b92505060206114c88582860161147d565b9150509250929050565b60008115159050919050565b6114e7816114d2565b82525050565b600060208201905061150260008301846114de565b92915050565b60006020828403121561151e5761151d6113f9565b5b600061152c84828501611447565b91505092915050565b61153e8161145c565b82525050565b60006020820190506115596000830184611535565b92915050565b600080600060608486031215611578576115776113f9565b5b600061158686828701611447565b935050602061159786828701611447565b92505060406115a88682870161147d565b9150509250925092565b600060ff82169050919050565b6115c8816115b2565b82525050565b60006020820190506115e360008301846115bf565b92915050565b6115f28161141e565b82525050565b600060208201905061160d60008301846115e9565b92915050565b6000806040838503121561162a576116296113f9565b5b600061163885828601611447565b925050602061164985828601611447565b9150509250929050565b7f4e487b7100000000000000000000000000000000000000000000000000000000600052602260045260246000fd5b6000600282049050600182168061169a57607f821691505b602082108114156116ae576116ad611653565b5b50919050565b7f6e6f7420616c6c6f776564000000000000000000000000000000000000000000600082015250565b60006116ea600b83611349565b91506116f5826116b4565b602082019050919050565b60006020820190508181036000830152611719816116dd565b9050919050565b7f4f6e6c79204f776e657200000000000000000000000000000000000000000000600082015250565b6000611756600a83611349565b915061176182611720565b602082019050919050565b6000602082019050818103600083015261178581611749565b9050919050565b7f45524332303a20617070726f76652066726f6d20746865207a65726f2061646460008201527f7265737300000000000000000000000000000000000000000000000000000000602082015250565b60006117e8602483611349565b91506117f38261178c565b604082019050919050565b60006020820190508181036000830152611817816117db565b9050919050565b7f45524332303a20617070726f766520746f20746865207a65726f20616464726560008201527f7373000000000000000000000000000000000000000000000000000000000000602082015250565b600061187a602283611349565b91506118858261181e565b604082019050919050565b600060208201905081810360008301526118a98161186d565b9050919050565b7f45524332303a207472616e736665722066726f6d20746865207a65726f20616460008201527f6472657373000000000000000000000000000000000000000000000000000000602082015250565b600061190c602583611349565b9150611917826118b0565b604082019050919050565b6000602082019050818103600083015261193b816118ff565b9050919050565b7f45524332303a207472616e7366657220746f20746865207a65726f206164647260008201527f6573730000000000000000000000000000000000000000000000000000000000602082015250565b600061199e602383611349565b91506119a982611942565b604082019050919050565b600060208201905081810360008301526119cd81611991565b9050919050565b7f4e487b7100000000000000000000000000000000000000000000000000000000600052601160045260246000fd5b6000611a0e8261145c565b9150611a198361145c565b925082821015611a2c57611a2b6119d4565b5b828203905092915050565b6000611a428261145c565b9150611a4d8361145c565b9250827fffffffffffffffffffffffffffffffffffffffffffffffffffffffffffffffff03821115611a8257611a816119d4565b5b828201905092915050565b7f536166654d6174683a206164646974696f6e206f766572666c6f770000000000600082015250565b6000611ac3601b83611349565b9150611ace82611a8d565b602082019050919050565b60006020820190508181036000830152611af281611ab6565b9050919050565b7f45524332303a206d696e7420746f20746865207a65726f206164647265737300600082015250565b6000611b2f601f83611349565b9150611b3a82611af9565b602082019050919050565b60006020820190508181036000830152611b5e81611b22565b9050919050565b7f45524332303a206275726e2066726f6d20746865207a65726f2061646472657360008201527f7300000000000000000000000000000000000000000000000000000000000000602082015250565b6000611bc1602183611349565b9150611bcc82611b65565b604082019050919050565b60006020820190508181036000830152611bf081611bb4565b905091905056fe45524332303a206275726e20616d6f756e7420657863656564732062616c616e636545524332303a207472616e7366657220616d6f756e7420657863656564732062616c616e636545524332303a207472616e7366657220616d6f756e74206578636565647320616c6c6f77616e636545524332303a2064656372656173656420616c6c6f77616e63652062656c6f77207a65726fa264697066735822122000dbe6516742e70aeedb1bb96a1bebd8e88d2962fd4de4826a4bed31c424204964736f6c63430008090033",
  "linkReferences": {},
  "deployedLinkReferences": {}
}