{
  "_format": "hh-sol-artifact-1",
  "contractName": "Game",
  "sourceName": "src/contracts/game/game.sol",
  "abi": [
    {
      "inputs": [
        {
          "internalType": "address payable",
          "name": "_operator",
          "type": "address"
        },
        {
          "internalType": "contract IAdminData",
          "name": "_adminData",
          "type": "address"
        },
        {
          "internalType": "contract IGameData",
          "name": "_gameData",
          "type": "address"
        },
        {
          "internalType": "contract IGameLogic",
          "name": "_gameLogic",
          "type": "address"
        },
        {
          "internalType": "contract IQuizToken",
          "name": "_buffToken",
          "type": "address"
        },
        {
          "internalType": "uint256",
          "name": "_buffValue",
          "type": "uint256"
        }
      ],
      "stateMutability": "nonpayable",
      "type": "constructor"
    },
    {
      "inputs": [
        {
          "internalType": "string",
          "name": "_appId",
          "type": "string"
        },
        {
          "internalType": "address payable",
          "name": "_newOperator",
          "type": "address"
        }
      ],
      "name": "addAppOperator",
      "outputs": [],
      "stateMutability": "nonpayable",
      "type": "function"
    },
    {
      "inputs": [],
      "name": "adminData",
      "outputs": [
        {
          "internalType": "contract IAdminData",
          "name": "",
          "type": "address"
        }
      ],
      "stateMutability": "view",
      "type": "function"
    },
    {
      "inputs": [],
      "name": "availableSize",
      "outputs": [
        {
          "internalType": "uint256",
          "name": "",
          "type": "uint256"
        }
      ],
      "stateMutability": "view",
      "type": "function"
    },
    {
      "inputs": [],
      "name": "buffToken",
      "outputs": [
        {
          "internalType": "contract IQuizToken",
          "name": "",
          "type": "address"
        }
      ],
      "stateMutability": "view",
      "type": "function"
    },
    {
      "inputs": [],
      "name": "buffValue",
      "outputs": [
        {
          "internalType": "uint256",
          "name": "",
          "type": "uint256"
        }
      ],
      "stateMutability": "view",
      "type": "function"
    },
    {
      "inputs": [
        {
          "internalType": "uint256",
          "name": "_gameId",
          "type": "uint256"
        },
        {
          "internalType": "uint256",
          "name": "_round",
          "type": "uint256"
        },
        {
          "internalType": "uint256",
          "name": "_buffId",
          "type": "uint256"
        }
      ],
      "name": "buyBuff",
      "outputs": [],
      "stateMutability": "nonpayable",
      "type": "function"
    },
    {
      "inputs": [
        {
          "internalType": "uint256",
          "name": "_gameId",
          "type": "uint256"
        },
        {
          "internalType": "uint256",
          "name": "_round",
          "type": "uint256"
        }
      ],
      "name": "buyTicket",
      "outputs": [],
      "stateMutability": "payable",
      "type": "function"
    },
    {
      "inputs": [
        {
          "internalType": "contract IAdminData",
          "name": "_newData",
          "type": "address"
        }
      ],
      "name": "changeAdminData",
      "outputs": [],
      "stateMutability": "nonpayable",
      "type": "function"
    },
    {
      "inputs": [
        {
          "internalType": "contract IQuizToken",
          "name": "_newToken",
          "type": "address"
        }
      ],
      "name": "changeBuffToken",
      "outputs": [],
      "stateMutability": "nonpayable",
      "type": "function"
    },
    {
      "inputs": [
        {
          "internalType": "uint256",
          "name": "_newValue",
          "type": "uint256"
        }
      ],
      "name": "changeBuffValue",
      "outputs": [],
      "stateMutability": "nonpayable",
      "type": "function"
    },
    {
      "inputs": [
        {
          "internalType": "contract IGameData",
          "name": "_newData",
          "type": "address"
        }
      ],
      "name": "changeGameData",
      "outputs": [],
      "stateMutability": "nonpayable",
      "type": "function"
    },
    {
      "inputs": [
        {
          "internalType": "address payable",
          "name": "_newOperator",
          "type": "address"
        }
      ],
      "name": "changeOperator",
      "outputs": [],
      "stateMutability": "nonpayable",
      "type": "function"
    },
    {
      "inputs": [
        {
          "components": [
            {
              "internalType": "uint256",
              "name": "id",
              "type": "uint256"
            },
            {
              "internalType": "uint256",
              "name": "category",
              "type": "uint256"
            },
            {
              "internalType": "string",
              "name": "appId",
              "type": "string"
            },
            {
              "internalType": "int256",
              "name": "groupId",
              "type": "int256"
            },
            {
              "internalType": "uint256",
              "name": "botType",
              "type": "uint256"
            },
            {
              "internalType": "string",
              "name": "title",
              "type": "string"
            },
            {
              "internalType": "string",
              "name": "introduction",
              "type": "string"
            },
            {
              "internalType": "string",
              "name": "story",
              "type": "string"
            },
            {
              "internalType": "uint256",
              "name": "eliminateProportion",
              "type": "uint256"
            },
            {
              "internalType": "uint256",
              "name": "awardProportion",
              "type": "uint256"
            },
            {
              "internalType": "uint256",
              "name": "winnerNum",
              "type": "uint256"
            },
            {
              "internalType": "uint256[]",
              "name": "buffIds",
              "type": "uint256[]"
            },
            {
              "internalType": "string",
              "name": "buffDesc",
              "type": "string"
            },
            {
              "internalType": "string[]",
              "name": "events",
              "type": "string[]"
            },
            {
              "internalType": "bool",
              "name": "ticketIsEth",
              "type": "bool"
            },
            {
              "internalType": "contract IERC20",
              "name": "ticketsToken",
              "type": "address"
            },
            {
              "internalType": "uint256",
              "name": "ticketAmount",
              "type": "uint256"
            },
            {
              "internalType": "uint256",
              "name": "effectStartTime",
              "type": "uint256"
            },
            {
              "internalType": "uint256",
              "name": "effectEndTime",
              "type": "uint256"
            },
            {
              "internalType": "bool",
              "name": "daily",
              "type": "bool"
            },
            {
              "internalType": "uint256",
              "name": "startH",
              "type": "uint256"
            },
            {
              "internalType": "uint256",
              "name": "startM",
              "type": "uint256"
            },
            {
              "internalType": "bool",
              "name": "exist",
              "type": "bool"
            },
            {
              "internalType": "address",
              "name": "creator",
              "type": "address"
            }
          ],
          "internalType": "struct IGameData.GameDetail",
          "name": "_game",
          "type": "tuple"
        }
      ],
      "name": "createGame",
      "outputs": [],
      "stateMutability": "nonpayable",
      "type": "function"
    },
    {
      "inputs": [
        {
          "internalType": "string",
          "name": "_appId",
          "type": "string"
        }
      ],
      "name": "delAppOperator",
      "outputs": [],
      "stateMutability": "nonpayable",
      "type": "function"
    },
    {
      "inputs": [
        {
          "internalType": "contract IERC20",
          "name": "",
          "type": "address"
        }
      ],
      "name": "erc20Exist",
      "outputs": [
        {
          "internalType": "bool",
          "name": "",
          "type": "bool"
        }
      ],
      "stateMutability": "view",
      "type": "function"
    },
    {
      "inputs": [
        {
          "internalType": "uint256",
          "name": "",
          "type": "uint256"
        }
      ],
      "name": "erc20List",
      "outputs": [
        {
          "internalType": "contract IERC20",
          "name": "",
          "type": "address"
        }
      ],
      "stateMutability": "view",
      "type": "function"
    },
    {
      "inputs": [],
      "name": "gameData",
      "outputs": [
        {
          "internalType": "contract IGameData",
          "name": "",
          "type": "address"
        }
      ],
      "stateMutability": "view",
      "type": "function"
    },
    {
      "inputs": [],
      "name": "gameLogic",
      "outputs": [
        {
          "internalType": "contract IGameLogic",
          "name": "",
          "type": "address"
        }
      ],
      "stateMutability": "view",
      "type": "function"
    },
    {
      "inputs": [
        {
          "internalType": "string",
          "name": "_appId",
          "type": "string"
        },
        {
          "internalType": "uint256",
          "name": "_gameId",
          "type": "uint256"
        },
        {
          "internalType": "uint256",
          "name": "_round",
          "type": "uint256"
        }
      ],
      "name": "gameRoundOver",
      "outputs": [],
      "stateMutability": "nonpayable",
      "type": "function"
    },
    {
      "inputs": [],
      "name": "getAvailableGameIds",
      "outputs": [
        {
          "internalType": "uint256[]",
          "name": "",
          "type": "uint256[]"
        }
      ],
      "stateMutability": "view",
      "type": "function"
    },
    {
      "inputs": [
        {
          "internalType": "int256",
          "name": "_groupId",
          "type": "int256"
        }
      ],
      "name": "getGroupGameIds",
      "outputs": [
        {
          "internalType": "uint256[]",
          "name": "",
          "type": "uint256[]"
        }
      ],
      "stateMutability": "view",
      "type": "function"
    },
    {
      "inputs": [
        {
          "internalType": "string",
          "name": "_appId",
          "type": "string"
        }
      ],
      "name": "isOperator",
      "outputs": [
        {
          "internalType": "bool",
          "name": "",
          "type": "bool"
        }
      ],
      "stateMutability": "view",
      "type": "function"
    },
    {
      "inputs": [],
      "name": "operator",
      "outputs": [
        {
          "internalType": "address payable",
          "name": "",
          "type": "address"
        }
      ],
      "stateMutability": "view",
      "type": "function"
    },
    {
      "inputs": [],
      "name": "owner",
      "outputs": [
        {
          "internalType": "address",
          "name": "",
          "type": "address"
        }
      ],
      "stateMutability": "view",
      "type": "function"
    },
    {
      "inputs": [
        {
          "internalType": "uint256",
          "name": "_newSize",
          "type": "uint256"
        }
      ],
      "name": "setAvailableSize",
      "outputs": [],
      "stateMutability": "nonpayable",
      "type": "function"
    },
    {
      "inputs": [
        {
          "internalType": "string",
          "name": "_appId",
          "type": "string"
        },
        {
          "internalType": "uint256",
          "name": "_gameId",
          "type": "uint256"
        },
        {
          "internalType": "uint256",
          "name": "_launchTime",
          "type": "uint256"
        }
      ],
      "name": "startGame",
      "outputs": [],
      "stateMutability": "payable",
      "type": "function"
    },
    {
      "inputs": [
        {
          "internalType": "address payable",
          "name": "_to",
          "type": "address"
        }
      ],
      "name": "transferAsset",
      "outputs": [],
      "stateMutability": "nonpayable",
      "type": "function"
    },
    {
      "inputs": [
        {
          "internalType": "address",
          "name": "_newOwner",
          "type": "address"
        }
      ],
      "name": "transferOwner",
      "outputs": [],
      "stateMutability": "nonpayable",
      "type": "function"
    }
  ],
  "bytecode": "0x60806040526014600b553480156200001657600080fd5b506040516200608a3803806200608a83398181016040528101906200003c9190620003a1565b336000806101000a81548173ffffffffffffffffffffffffffffffffffffffff021916908373ffffffffffffffffffffffffffffffffffffffff16021790555085600160006101000a81548173ffffffffffffffffffffffffffffffffffffffff021916908373ffffffffffffffffffffffffffffffffffffffff16021790555084600360006101000a81548173ffffffffffffffffffffffffffffffffffffffff021916908373ffffffffffffffffffffffffffffffffffffffff16021790555083600460006101000a81548173ffffffffffffffffffffffffffffffffffffffff021916908373ffffffffffffffffffffffffffffffffffffffff16021790555082600560006101000a81548173ffffffffffffffffffffffffffffffffffffffff021916908373ffffffffffffffffffffffffffffffffffffffff16021790555081600660006101000a81548173ffffffffffffffffffffffffffffffffffffffff021916908373ffffffffffffffffffffffffffffffffffffffff160217905550806007819055505050505050506200043d565b600080fd5b600073ffffffffffffffffffffffffffffffffffffffff82169050919050565b60006200020682620001d9565b9050919050565b6200021881620001f9565b81146200022457600080fd5b50565b60008151905062000238816200020d565b92915050565b60006200024b82620001d9565b9050919050565b60006200025f826200023e565b9050919050565b620002718162000252565b81146200027d57600080fd5b50565b600081519050620002918162000266565b92915050565b6000620002a4826200023e565b9050919050565b620002b68162000297565b8114620002c257600080fd5b50565b600081519050620002d681620002ab565b92915050565b6000620002e9826200023e565b9050919050565b620002fb81620002dc565b81146200030757600080fd5b50565b6000815190506200031b81620002f0565b92915050565b60006200032e826200023e565b9050919050565b620003408162000321565b81146200034c57600080fd5b50565b600081519050620003608162000335565b92915050565b6000819050919050565b6200037b8162000366565b81146200038757600080fd5b50565b6000815190506200039b8162000370565b92915050565b60008060008060008060c08789031215620003c157620003c0620001d4565b5b6000620003d189828a0162000227565b9650506020620003e489828a0162000280565b9550506040620003f789828a01620002c5565b94505060606200040a89828a016200030a565b93505060806200041d89828a016200034f565b92505060a06200043089828a016200038a565b9150509295509295509295565b615c3d806200044d6000396000f3fe6080604052600436106101b75760003560e01c80637e3dfe5c116100ec578063bb3f09111161008a578063d798860511610064578063d7988605146105b2578063e606c9b8146105ef578063e86098f514610618578063fa24f74314610655576101b7565b8063bb3f091114610537578063c7d7b66014610560578063ce6e98f214610589576101b7565b80638da5cb5b116100c65780638da5cb5b1461049e578063b05c3f67146104c9578063b2888e49146104f2578063b7579b501461050e576101b7565b80637e3dfe5c1461040d578063806908631461044a5780638553ee9014610475576101b7565b8063298ec20811610159578063570ca73511610133578063570ca735146103635780635a2a79231461038e5780637742b301146103b95780637d878731146103e2576101b7565b8063298ec208146102f357806331e1bf381461030f5780634fb2e45d1461033a576101b7565b8063134087a211610195578063134087a2146102395780631f041bd1146102645780632483eee5146102a157806327a343b3146102ca576101b7565b806306394c9b146101bc57806306d2ae8e146101e55780630bd0997914610210575b600080fd5b3480156101c857600080fd5b506101e360048036038101906101de91906131b5565b610680565b005b3480156101f157600080fd5b506101fa610752565b6040516102079190613241565b60405180910390f35b34801561021c57600080fd5b50610237600480360381019061023291906133a2565b610778565b005b34801561024557600080fd5b5061024e610867565b60405161025b919061341f565b60405180910390f35b34801561027057600080fd5b5061028b6004803603810190610286919061343a565b61088d565b604051610298919061349e565b60405180910390f35b3480156102ad57600080fd5b506102c860048036038101906102c391906134ef565b61095b565b005b3480156102d657600080fd5b506102f160048036038101906102ec91906134ef565b6109f3565b005b61030d6004803603810190610308919061351c565b610a8b565b005b34801561031b57600080fd5b50610324610e1f565b604051610331919061361a565b60405180910390f35b34801561034657600080fd5b50610361600480360381019061035c919061367a565b610e32565b005b34801561036f57600080fd5b50610378610f03565b60405161038591906136b6565b60405180910390f35b34801561039a57600080fd5b506103a3610f29565b6040516103b091906136f2565b60405180910390f35b3480156103c557600080fd5b506103e060048036038101906103db919061370d565b610f4f565b005b3480156103ee57600080fd5b506103f76112c1565b604051610404919061378b565b60405180910390f35b34801561041957600080fd5b50610434600480360381019061042f91906137e4565b6112c7565b604051610441919061349e565b60405180910390f35b34801561045657600080fd5b5061045f6112e7565b60405161046c919061378b565b60405180910390f35b34801561048157600080fd5b5061049c60048036038101906104979190613d14565b6112ed565b005b3480156104aa57600080fd5b506104b361161a565b6040516104c09190613d6c565b60405180910390f35b3480156104d557600080fd5b506104f060048036038101906104eb9190613d87565b61163e565b005b61050c6004803603810190610507919061370d565b6118f2565b005b34801561051a57600080fd5b5061053560048036038101906105309190613e18565b611aba565b005b34801561054357600080fd5b5061055e6004803603810190610559919061343a565b611b8c565b005b34801561056c57600080fd5b50610587600480360381019061058291906131b5565b611c7b565b005b34801561059557600080fd5b506105b060048036038101906105ab9190613e83565b611f23565b005b3480156105be57600080fd5b506105d960048036038101906105d49190613eb0565b611ff5565b6040516105e6919061361a565b60405180910390f35b3480156105fb57600080fd5b5061061660048036038101906106119190613f1b565b612009565b005b34801561062457600080fd5b5061063f600480360381019061063a91906134ef565b6120db565b60405161064c9190613f69565b60405180910390f35b34801561066157600080fd5b5061066a61211a565b6040516106779190613fa5565b60405180910390f35b60008054906101000a900473ffffffffffffffffffffffffffffffffffffffff1673ffffffffffffffffffffffffffffffffffffffff163373ffffffffffffffffffffffffffffffffffffffff161461070e576040517f08c379a00000000000000000000000000000000000000000000000000000000081526004016107059061401d565b60405180910390fd5b80600160006101000a81548173ffffffffffffffffffffffffffffffffffffffff021916908373ffffffffffffffffffffffffffffffffffffffff16021790555050565b600360009054906101000a900473ffffffffffffffffffffffffffffffffffffffff1681565b60008054906101000a900473ffffffffffffffffffffffffffffffffffffffff1673ffffffffffffffffffffffffffffffffffffffff163373ffffffffffffffffffffffffffffffffffffffff1614610806576040517f08c379a00000000000000000000000000000000000000000000000000000000081526004016107fd9061401d565b60405180910390fd5b8060028360405161081791906140b7565b908152602001604051809103902060006101000a81548173ffffffffffffffffffffffffffffffffffffffff021916908373ffffffffffffffffffffffffffffffffffffffff1602179055505050565b600560009054906101000a900473ffffffffffffffffffffffffffffffffffffffff1681565b60003373ffffffffffffffffffffffffffffffffffffffff16600160009054906101000a900473ffffffffffffffffffffffffffffffffffffffff1673ffffffffffffffffffffffffffffffffffffffff16148061095457503373ffffffffffffffffffffffffffffffffffffffff1660028360405161090d91906140b7565b908152602001604051809103902060009054906101000a900473ffffffffffffffffffffffffffffffffffffffff1673ffffffffffffffffffffffffffffffffffffffff16145b9050919050565b60008054906101000a900473ffffffffffffffffffffffffffffffffffffffff1673ffffffffffffffffffffffffffffffffffffffff163373ffffffffffffffffffffffffffffffffffffffff16146109e9576040517f08c379a00000000000000000000000000000000000000000000000000000000081526004016109e09061401d565b60405180910390fd5b8060078190555050565b60008054906101000a900473ffffffffffffffffffffffffffffffffffffffff1673ffffffffffffffffffffffffffffffffffffffff163373ffffffffffffffffffffffffffffffffffffffff1614610a81576040517f08c379a0000000000000000000000000000000000000000000000000000000008152600401610a789061401d565b60405180910390fd5b80600b8190555050565b610a958282612140565b610a9f828261223a565b6000600460009054906101000a900473ffffffffffffffffffffffffffffffffffffffff1673ffffffffffffffffffffffffffffffffffffffff1663a2f77bcc846040518263ffffffff1660e01b8152600401610afc919061378b565b60006040518083038186803b158015610b1457600080fd5b505afa158015610b28573d6000803e3d6000fd5b505050506040513d6000823e3d601f19601f82011682018060405250810190610b5191906145e1565b90506000610b60848433612335565b5090508015610ba4576040517f08c379a0000000000000000000000000000000000000000000000000000000008152600401610b9b90614676565b60405180910390fd5b816101c0015115610bfc57816102000151341015610bf7576040517f08c379a0000000000000000000000000000000000000000000000000000000008152600401610bee906146e2565b60405180910390fd5b610c97565b816101e0015173ffffffffffffffffffffffffffffffffffffffff166323b872dd33308561020001516040518463ffffffff1660e01b8152600401610c4393929190614702565b602060405180830381600087803b158015610c5d57600080fd5b505af1158015610c71573d6000803e3d6000fd5b505050506040513d601f19601f82011682018060405250810190610c959190614739565b505b600460009054906101000a900473ffffffffffffffffffffffffffffffffffffffff1673ffffffffffffffffffffffffffffffffffffffff1663ffe41ad38585336040518463ffffffff1660e01b8152600401610cf693929190614766565b600060405180830381600087803b158015610d1057600080fd5b505af1158015610d24573d6000803e3d6000fd5b50505050600560009054906101000a900473ffffffffffffffffffffffffffffffffffffffff1673ffffffffffffffffffffffffffffffffffffffff1663a71a0c078585600a60008981526020019081526020016000206000888152602001908152602001600020546040518463ffffffff1660e01b8152600401610dab939291906147ac565b600060405180830381600087803b158015610dc557600080fd5b505af1158015610dd9573d6000803e3d6000fd5b505050506001600a600086815260200190815260200160002060008581526020019081526020016000206000828254610e129190614812565b9250508190555050505050565b6060610e2d60016000612471565b905090565b60008054906101000a900473ffffffffffffffffffffffffffffffffffffffff1673ffffffffffffffffffffffffffffffffffffffff163373ffffffffffffffffffffffffffffffffffffffff1614610ec0576040517f08c379a0000000000000000000000000000000000000000000000000000000008152600401610eb79061401d565b60405180910390fd5b806000806101000a81548173ffffffffffffffffffffffffffffffffffffffff021916908373ffffffffffffffffffffffffffffffffffffffff16021790555050565b600160009054906101000a900473ffffffffffffffffffffffffffffffffffffffff1681565b600660009054906101000a900473ffffffffffffffffffffffffffffffffffffffff1681565b610f588361088d565b610f97576040517f08c379a0000000000000000000000000000000000000000000000000000000008152600401610f8e906148b4565b60405180910390fd5b610fa18282612140565b610fab828261223a565b6000600460009054906101000a900473ffffffffffffffffffffffffffffffffffffffff1673ffffffffffffffffffffffffffffffffffffffff16630d2dce2284846040518363ffffffff1660e01b815260040161100a9291906148d4565b60006040518083038186803b15801561102257600080fd5b505afa158015611036573d6000803e3d6000fd5b505050506040513d6000823e3d601f19601f8201168201806040525081019061105f91906149c0565b90506000600460009054906101000a900473ffffffffffffffffffffffffffffffffffffffff1673ffffffffffffffffffffffffffffffffffffffff166370c1b1d785856040518363ffffffff1660e01b81526004016110c09291906148d4565b60006040518083038186803b1580156110d857600080fd5b505afa1580156110ec573d6000803e3d6000fd5b505050506040513d6000823e3d601f19601f820116820180604052508101906111159190614c32565b9050600080600080600560009054906101000a900473ffffffffffffffffffffffffffffffffffffffff1673ffffffffffffffffffffffffffffffffffffffff1663532af7d289896040518363ffffffff1660e01b815260040161117a9291906148d4565b600060405180830381600087803b15801561119457600080fd5b505af11580156111a8573d6000803e3d6000fd5b505050506040513d6000823e3d601f19601f820116820180604052508101906111d19190614c7b565b93509350935093508085602001819052508551856040018181525050838560a00181905250828560c00181905250818560e00181905250600185610100019015159081151581525050600460009054906101000a900473ffffffffffffffffffffffffffffffffffffffff1673ffffffffffffffffffffffffffffffffffffffff1663ea7a48da8989886040518463ffffffff1660e01b815260040161127993929190614fcc565b600060405180830381600087803b15801561129357600080fd5b505af11580156112a7573d6000803e3d6000fd5b505050506112b68882896127f7565b505050505050505050565b600b5481565b60096020528060005260406000206000915054906101000a900460ff1681565b60075481565b8060400151600360009054906101000a900473ffffffffffffffffffffffffffffffffffffffff1673ffffffffffffffffffffffffffffffffffffffff1663b796e2b082336040518363ffffffff1660e01b815260040161134f929190615043565b60206040518083038186803b15801561136757600080fd5b505afa15801561137b573d6000803e3d6000fd5b505050506040513d601f19601f8201168201806040525081019061139f9190614739565b806113af57506113ae8161088d565b5b6113ee576040517f08c379a00000000000000000000000000000000000000000000000000000000081526004016113e5906150bf565b60405180910390fd5b600082600001511415611436576040517f08c379a000000000000000000000000000000000000000000000000000000000815260040161142d9061512b565b60405180910390fd5b6000600460009054906101000a900473ffffffffffffffffffffffffffffffffffffffff1673ffffffffffffffffffffffffffffffffffffffff1663a2f77bcc84600001516040518263ffffffff1660e01b8152600401611497919061378b565b60006040518083038186803b1580156114af57600080fd5b505afa1580156114c3573d6000803e3d6000fd5b505050506040513d6000823e3d601f19601f820116820180604052508101906114ec91906145e1565b9050806102c0015115611534576040517f08c379a000000000000000000000000000000000000000000000000000000000815260040161152b90615197565b60405180910390fd5b8290506001816102c001901515908115158152505033816102e0019073ffffffffffffffffffffffffffffffffffffffff16908173ffffffffffffffffffffffffffffffffffffffff1681525050600460009054906101000a900473ffffffffffffffffffffffffffffffffffffffff1673ffffffffffffffffffffffffffffffffffffffff1663dcdc38258460400151836040518363ffffffff1660e01b81526004016115e392919061556b565b600060405180830381600087803b1580156115fd57600080fd5b505af1158015611611573d6000803e3d6000fd5b50505050505050565b60008054906101000a900473ffffffffffffffffffffffffffffffffffffffff1681565b611648838361223a565b6116528383612140565b61165c8382612b1d565b61169b576040517f08c379a0000000000000000000000000000000000000000000000000000000008152600401611692906155ee565b60405180910390fd5b6000806116a9858533612335565b91509150816116ed576040517f08c379a00000000000000000000000000000000000000000000000000000000081526004016116e49061565a565b60405180910390fd5b6116f8858583612c2e565b15611738576040517f08c379a000000000000000000000000000000000000000000000000000000000815260040161172f906156c6565b60405180910390fd5b600660009054906101000a900473ffffffffffffffffffffffffffffffffffffffff1673ffffffffffffffffffffffffffffffffffffffff16639dc29fac336007546040518363ffffffff1660e01b81526004016117979291906156e6565b600060405180830381600087803b1580156117b157600080fd5b505af11580156117c5573d6000803e3d6000fd5b50505050600460009054906101000a900473ffffffffffffffffffffffffffffffffffffffff1673ffffffffffffffffffffffffffffffffffffffff166342f2a5e38686846040518463ffffffff1660e01b81526004016118289392919061570f565b600060405180830381600087803b15801561184257600080fd5b505af1158015611856573d6000803e3d6000fd5b50505050600560009054906101000a900473ffffffffffffffffffffffffffffffffffffffff1673ffffffffffffffffffffffffffffffffffffffff1663d8602ed18686846040518463ffffffff1660e01b81526004016118b99392919061570f565b600060405180830381600087803b1580156118d357600080fd5b505af11580156118e7573d6000803e3d6000fd5b505050505050505050565b6118fb82612d39565b6000341161193e576040517f08c379a000000000000000000000000000000000000000000000000000000000815260040161193590615792565b60405180910390fd5b600060028460405161195091906140b7565b908152602001604051809103902060009054906101000a900473ffffffffffffffffffffffffffffffffffffffff169050600073ffffffffffffffffffffffffffffffffffffffff168173ffffffffffffffffffffffffffffffffffffffff1614156119dc57600160009054906101000a900473ffffffffffffffffffffffffffffffffffffffff1690505b8073ffffffffffffffffffffffffffffffffffffffff166108fc349081150290604051600060405180830381858888f19350505050158015611a22573d6000803e3d6000fd5b50600460009054906101000a900473ffffffffffffffffffffffffffffffffffffffff1673ffffffffffffffffffffffffffffffffffffffff166357e40a648433856040518463ffffffff1660e01b8152600401611a82939291906157b2565b600060405180830381600087803b158015611a9c57600080fd5b505af1158015611ab0573d6000803e3d6000fd5b5050505050505050565b60008054906101000a900473ffffffffffffffffffffffffffffffffffffffff1673ffffffffffffffffffffffffffffffffffffffff163373ffffffffffffffffffffffffffffffffffffffff1614611b48576040517f08c379a0000000000000000000000000000000000000000000000000000000008152600401611b3f9061401d565b60405180910390fd5b80600660006101000a81548173ffffffffffffffffffffffffffffffffffffffff021916908373ffffffffffffffffffffffffffffffffffffffff16021790555050565b60008054906101000a900473ffffffffffffffffffffffffffffffffffffffff1673ffffffffffffffffffffffffffffffffffffffff163373ffffffffffffffffffffffffffffffffffffffff1614611c1a576040517f08c379a0000000000000000000000000000000000000000000000000000000008152600401611c119061401d565b60405180910390fd5b6000600282604051611c2c91906140b7565b908152602001604051809103902060006101000a81548173ffffffffffffffffffffffffffffffffffffffff021916908373ffffffffffffffffffffffffffffffffffffffff16021790555050565b60008054906101000a900473ffffffffffffffffffffffffffffffffffffffff1673ffffffffffffffffffffffffffffffffffffffff163373ffffffffffffffffffffffffffffffffffffffff1614611d09576040517f08c379a0000000000000000000000000000000000000000000000000000000008152600401611d009061401d565b60405180910390fd5b6000471115611d5a578073ffffffffffffffffffffffffffffffffffffffff166108fc479081150290604051600060405180830381858888f19350505050158015611d58573d6000803e3d6000fd5b505b60005b600880549050811015611f1f57600060088281548110611d8057611d7f6157e9565b5b9060005260206000200160009054906101000a900473ffffffffffffffffffffffffffffffffffffffff1673ffffffffffffffffffffffffffffffffffffffff166370a08231306040518263ffffffff1660e01b8152600401611de39190613d6c565b60206040518083038186803b158015611dfb57600080fd5b505afa158015611e0f573d6000803e3d6000fd5b505050506040513d601f19601f82011682018060405250810190611e339190615818565b90506000811115611f0b5760088281548110611e5257611e516157e9565b5b9060005260206000200160009054906101000a900473ffffffffffffffffffffffffffffffffffffffff1673ffffffffffffffffffffffffffffffffffffffff1663a9059cbb84836040518363ffffffff1660e01b8152600401611eb7929190615866565b602060405180830381600087803b158015611ed157600080fd5b505af1158015611ee5573d6000803e3d6000fd5b505050506040513d601f19601f82011682018060405250810190611f099190614739565b505b508080611f179061588f565b915050611d5d565b5050565b60008054906101000a900473ffffffffffffffffffffffffffffffffffffffff1673ffffffffffffffffffffffffffffffffffffffff163373ffffffffffffffffffffffffffffffffffffffff1614611fb1576040517f08c379a0000000000000000000000000000000000000000000000000000000008152600401611fa89061401d565b60405180910390fd5b80600360006101000a81548173ffffffffffffffffffffffffffffffffffffffff021916908373ffffffffffffffffffffffffffffffffffffffff16021790555050565b6060612002600083612471565b9050919050565b60008054906101000a900473ffffffffffffffffffffffffffffffffffffffff1673ffffffffffffffffffffffffffffffffffffffff163373ffffffffffffffffffffffffffffffffffffffff1614612097576040517f08c379a000000000000000000000000000000000000000000000000000000000815260040161208e9061401d565b60405180910390fd5b80600460006101000a81548173ffffffffffffffffffffffffffffffffffffffff021916908373ffffffffffffffffffffffffffffffffffffffff16021790555050565b600881815481106120eb57600080fd5b906000526020600020016000915054906101000a900473ffffffffffffffffffffffffffffffffffffffff1681565b600460009054906101000a900473ffffffffffffffffffffffffffffffffffffffff1681565b600460009054906101000a900473ffffffffffffffffffffffffffffffffffffffff1673ffffffffffffffffffffffffffffffffffffffff166370c1b1d783836040518363ffffffff1660e01b815260040161219d9291906148d4565b60006040518083038186803b1580156121b557600080fd5b505afa1580156121c9573d6000803e3d6000fd5b505050506040513d6000823e3d601f19601f820116820180604052508101906121f29190614c32565b6101200151612236576040517f08c379a000000000000000000000000000000000000000000000000000000000815260040161222d90615924565b60405180910390fd5b5050565b600460009054906101000a900473ffffffffffffffffffffffffffffffffffffffff1673ffffffffffffffffffffffffffffffffffffffff166370c1b1d783836040518363ffffffff1660e01b81526004016122979291906148d4565b60006040518083038186803b1580156122af57600080fd5b505afa1580156122c3573d6000803e3d6000fd5b505050506040513d6000823e3d601f19601f820116820180604052508101906122ec9190614c32565b610100015115612331576040517f08c379a000000000000000000000000000000000000000000000000000000000815260040161232890615990565b60405180910390fd5b5050565b6000806000600460009054906101000a900473ffffffffffffffffffffffffffffffffffffffff1673ffffffffffffffffffffffffffffffffffffffff16630d2dce2287876040518363ffffffff1660e01b81526004016123979291906148d4565b60006040518083038186803b1580156123af57600080fd5b505afa1580156123c3573d6000803e3d6000fd5b505050506040513d6000823e3d601f19601f820116820180604052508101906123ec91906149c0565b905060005b8151811015612467578473ffffffffffffffffffffffffffffffffffffffff16828281518110612424576124236157e9565b5b602002602001015173ffffffffffffffffffffffffffffffffffffffff1614156124545760019350809250612467565b808061245f9061588f565b9150506123f1565b5050935093915050565b60606000600b5467ffffffffffffffff81111561249157612490613277565b5b6040519080825280602002602001820160405280156124bf5781602001602082028036833780820191505090505b5090506000805b600460009054906101000a900473ffffffffffffffffffffffffffffffffffffffff1673ffffffffffffffffffffffffffffffffffffffff16639f668bba6040518163ffffffff1660e01b815260040160006040518083038186803b15801561252e57600080fd5b505afa158015612542573d6000803e3d6000fd5b505050506040513d6000823e3d601f19601f8201168201806040525081019061256b91906159b0565b518110156127eb57600b548210612581576127eb565b6000600460009054906101000a900473ffffffffffffffffffffffffffffffffffffffff1673ffffffffffffffffffffffffffffffffffffffff1663a2f77bcc600460009054906101000a900473ffffffffffffffffffffffffffffffffffffffff1673ffffffffffffffffffffffffffffffffffffffff16639f668bba6040518163ffffffff1660e01b815260040160006040518083038186803b15801561262957600080fd5b505afa15801561263d573d6000803e3d6000fd5b505050506040513d6000823e3d601f19601f8201168201806040525081019061266691906159b0565b8481518110612678576126776157e9565b5b60200260200101516040518263ffffffff1660e01b815260040161269c919061378b565b60006040518083038186803b1580156126b457600080fd5b505afa1580156126c8573d6000803e3d6000fd5b505050506040513d6000823e3d601f19601f820116820180604052508101906126f191906145e1565b9050861561278a574281610240015110612785576000861461275157858160600151141561274c578060000151848481518110612731576127306157e9565b5b60200260200101818152505082806127489061588f565b9350505b612784565b8060000151848481518110612769576127686157e9565b5b60200260200101818152505082806127809061588f565b9350505b5b6127d7565b6000861415801561279e5750858160600151145b156127d65780600001518484815181106127bb576127ba6157e9565b5b60200260200101818152505082806127d29061588f565b9350505b5b5080806127e39061588f565b9150506124c6565b50819250505092915050565b60008251141561280657612b18565b6000600460009054906101000a900473ffffffffffffffffffffffffffffffffffffffff1673ffffffffffffffffffffffffffffffffffffffff1663a2f77bcc856040518263ffffffff1660e01b8152600401612863919061378b565b60006040518083038186803b15801561287b57600080fd5b505afa15801561288f573d6000803e3d6000fd5b505050506040513d6000823e3d601f19601f820116820180604052508101906128b891906145e1565b90506000600460009054906101000a900473ffffffffffffffffffffffffffffffffffffffff1673ffffffffffffffffffffffffffffffffffffffff1663751938af86856040518363ffffffff1660e01b81526004016129199291906148d4565b60206040518083038186803b15801561293157600080fd5b505afa158015612945573d6000803e3d6000fd5b505050506040513d601f19601f820116820180604052508101906129699190615818565b9050600061299883610120015161298a606485612e7490919063ffffffff16565b612ebe90919063ffffffff16565b905060006129af8284612f3990919063ffffffff16565b905060006129c7875184612e7490919063ffffffff16565b905060005b8751811015612b0757856101c0015115612a46578781815181106129f3576129f26157e9565b5b602002602001015173ffffffffffffffffffffffffffffffffffffffff166108fc839081150290604051600060405180830381858888f19350505050158015612a40573d6000803e3d6000fd5b50612af4565b856101e0015173ffffffffffffffffffffffffffffffffffffffff1663a9059cbb898381518110612a7a57612a796157e9565b5b6020026020010151846040518363ffffffff1660e01b8152600401612aa09291906156e6565b602060405180830381600087803b158015612aba57600080fd5b505af1158015612ace573d6000803e3d6000fd5b505050506040513d601f19601f82011682018060405250810190612af29190614739565b505b8080612aff9061588f565b9150506129cc565b50612b128583612f83565b50505050505b505050565b600080600460009054906101000a900473ffffffffffffffffffffffffffffffffffffffff1673ffffffffffffffffffffffffffffffffffffffff1663a2f77bcc856040518263ffffffff1660e01b8152600401612b7b919061378b565b60006040518083038186803b158015612b9357600080fd5b505afa158015612ba7573d6000803e3d6000fd5b505050506040513d6000823e3d601f19601f82011682018060405250810190612bd091906145e1565b610160015190506000805b8251811015612c225784838281518110612bf857612bf76157e9565b5b60200260200101511415612c0f5760019150612c22565b8080612c1a9061588f565b915050612bdb565b50809250505092915050565b600080600460009054906101000a900473ffffffffffffffffffffffffffffffffffffffff1673ffffffffffffffffffffffffffffffffffffffff16636a3f5dc586866040518363ffffffff1660e01b8152600401612c8e9291906148d4565b60006040518083038186803b158015612ca657600080fd5b505afa158015612cba573d6000803e3d6000fd5b505050506040513d6000823e3d601f19601f82011682018060405250810190612ce391906159b0565b90506000805b8251811015612d2c5784838281518110612d0657612d056157e9565b5b60200260200101511415612d1957600191505b8080612d249061588f565b915050612ce9565b5080925050509392505050565b6000811415612d7d576040517f08c379a0000000000000000000000000000000000000000000000000000000008152600401612d749061512b565b60405180910390fd5b600460009054906101000a900473ffffffffffffffffffffffffffffffffffffffff1673ffffffffffffffffffffffffffffffffffffffff1663a2f77bcc826040518263ffffffff1660e01b8152600401612dd8919061378b565b60006040518083038186803b158015612df057600080fd5b505afa158015612e04573d6000803e3d6000fd5b505050506040513d6000823e3d601f19601f82011682018060405250810190612e2d91906145e1565b6102c00151612e71576040517f08c379a0000000000000000000000000000000000000000000000000000000008152600401612e6890615a45565b60405180910390fd5b50565b6000612eb683836040518060400160405280601a81526020017f536166654d6174683a206469766973696f6e206279207a65726f00000000000081525061307c565b905092915050565b600080831415612ed15760009050612f33565b60008284612edf9190615a65565b9050828482612eee9190615aee565b14612f2e576040517f08c379a0000000000000000000000000000000000000000000000000000000008152600401612f2590615b91565b60405180910390fd5b809150505b92915050565b6000612f7b83836040518060400160405280601481526020017f7375627472616374696f6e206f766572666c6f770000000000000000000000008152506130df565b905092915050565b816101c0015115612fdf57816102e0015173ffffffffffffffffffffffffffffffffffffffff166108fc829081150290604051600060405180830381858888f19350505050158015612fd9573d6000803e3d6000fd5b50613078565b816101e0015173ffffffffffffffffffffffffffffffffffffffff1663a9059cbb836102e00151836040518363ffffffff1660e01b81526004016130249291906156e6565b602060405180830381600087803b15801561303e57600080fd5b505af1158015613052573d6000803e3d6000fd5b505050506040513d601f19601f820116820180604052508101906130769190614739565b505b5050565b600080831182906130c3576040517f08c379a00000000000000000000000000000000000000000000000000000000081526004016130ba9190615bb1565b60405180910390fd5b50600083856130d29190615aee565b9050809150509392505050565b6000838311158290613127576040517f08c379a000000000000000000000000000000000000000000000000000000000815260040161311e9190615bb1565b60405180910390fd5b50600083856131369190615bd3565b9050809150509392505050565b6000604051905090565b600080fd5b600080fd5b600073ffffffffffffffffffffffffffffffffffffffff82169050919050565b600061318282613157565b9050919050565b61319281613177565b811461319d57600080fd5b50565b6000813590506131af81613189565b92915050565b6000602082840312156131cb576131ca61314d565b5b60006131d9848285016131a0565b91505092915050565b6000819050919050565b60006132076132026131fd84613157565b6131e2565b613157565b9050919050565b6000613219826131ec565b9050919050565b600061322b8261320e565b9050919050565b61323b81613220565b82525050565b60006020820190506132566000830184613232565b92915050565b600080fd5b600080fd5b6000601f19601f8301169050919050565b7f4e487b7100000000000000000000000000000000000000000000000000000000600052604160045260246000fd5b6132af82613266565b810181811067ffffffffffffffff821117156132ce576132cd613277565b5b80604052505050565b60006132e1613143565b90506132ed82826132a6565b919050565b600067ffffffffffffffff82111561330d5761330c613277565b5b61331682613266565b9050602081019050919050565b82818337600083830152505050565b6000613345613340846132f2565b6132d7565b90508281526020810184848401111561336157613360613261565b5b61336c848285613323565b509392505050565b600082601f8301126133895761338861325c565b5b8135613399848260208601613332565b91505092915050565b600080604083850312156133b9576133b861314d565b5b600083013567ffffffffffffffff8111156133d7576133d6613152565b5b6133e385828601613374565b92505060206133f4858286016131a0565b9150509250929050565b60006134098261320e565b9050919050565b613419816133fe565b82525050565b60006020820190506134346000830184613410565b92915050565b6000602082840312156134505761344f61314d565b5b600082013567ffffffffffffffff81111561346e5761346d613152565b5b61347a84828501613374565b91505092915050565b60008115159050919050565b61349881613483565b82525050565b60006020820190506134b3600083018461348f565b92915050565b6000819050919050565b6134cc816134b9565b81146134d757600080fd5b50565b6000813590506134e9816134c3565b92915050565b6000602082840312156135055761350461314d565b5b6000613513848285016134da565b91505092915050565b600080604083850312156135335761353261314d565b5b6000613541858286016134da565b9250506020613552858286016134da565b9150509250929050565b600081519050919050565b600082825260208201905092915050565b6000819050602082019050919050565b613591816134b9565b82525050565b60006135a38383613588565b60208301905092915050565b6000602082019050919050565b60006135c78261355c565b6135d18185613567565b93506135dc83613578565b8060005b8381101561360d5781516135f48882613597565b97506135ff836135af565b9250506001810190506135e0565b5085935050505092915050565b6000602082019050818103600083015261363481846135bc565b905092915050565b600061364782613157565b9050919050565b6136578161363c565b811461366257600080fd5b50565b6000813590506136748161364e565b92915050565b6000602082840312156136905761368f61314d565b5b600061369e84828501613665565b91505092915050565b6136b081613177565b82525050565b60006020820190506136cb60008301846136a7565b92915050565b60006136dc8261320e565b9050919050565b6136ec816136d1565b82525050565b600060208201905061370760008301846136e3565b92915050565b6000806000606084860312156137265761372561314d565b5b600084013567ffffffffffffffff81111561374457613743613152565b5b61375086828701613374565b9350506020613761868287016134da565b9250506040613772868287016134da565b9150509250925092565b613785816134b9565b82525050565b60006020820190506137a0600083018461377c565b92915050565b60006137b18261363c565b9050919050565b6137c1816137a6565b81146137cc57600080fd5b50565b6000813590506137de816137b8565b92915050565b6000602082840312156137fa576137f961314d565b5b6000613808848285016137cf565b91505092915050565b600080fd5b600080fd5b6000819050919050565b61382e8161381b565b811461383957600080fd5b50565b60008135905061384b81613825565b92915050565b600067ffffffffffffffff82111561386c5761386b613277565b5b602082029050602081019050919050565b600080fd5b600061389561389084613851565b6132d7565b905080838252602082019050602084028301858111156138b8576138b761387d565b5b835b818110156138e157806138cd88826134da565b8452602084019350506020810190506138ba565b5050509392505050565b600082601f830112613900576138ff61325c565b5b8135613910848260208601613882565b91505092915050565b600067ffffffffffffffff82111561393457613933613277565b5b602082029050602081019050919050565b600061395861395384613919565b6132d7565b9050808382526020820190506020840283018581111561397b5761397a61387d565b5b835b818110156139c257803567ffffffffffffffff8111156139a05761399f61325c565b5b8086016139ad8982613374565b8552602085019450505060208101905061397d565b5050509392505050565b600082601f8301126139e1576139e061325c565b5b81356139f1848260208601613945565b91505092915050565b613a0381613483565b8114613a0e57600080fd5b50565b600081359050613a20816139fa565b92915050565b60006103008284031215613a3d57613a3c613811565b5b613a486103006132d7565b90506000613a58848285016134da565b6000830152506020613a6c848285016134da565b602083015250604082013567ffffffffffffffff811115613a9057613a8f613816565b5b613a9c84828501613374565b6040830152506060613ab08482850161383c565b6060830152506080613ac4848285016134da565b60808301525060a082013567ffffffffffffffff811115613ae857613ae7613816565b5b613af484828501613374565b60a08301525060c082013567ffffffffffffffff811115613b1857613b17613816565b5b613b2484828501613374565b60c08301525060e082013567ffffffffffffffff811115613b4857613b47613816565b5b613b5484828501613374565b60e083015250610100613b69848285016134da565b61010083015250610120613b7f848285016134da565b61012083015250610140613b95848285016134da565b6101408301525061016082013567ffffffffffffffff811115613bbb57613bba613816565b5b613bc7848285016138eb565b6101608301525061018082013567ffffffffffffffff811115613bed57613bec613816565b5b613bf984828501613374565b610180830152506101a082013567ffffffffffffffff811115613c1f57613c1e613816565b5b613c2b848285016139cc565b6101a0830152506101c0613c4184828501613a11565b6101c0830152506101e0613c57848285016137cf565b6101e083015250610200613c6d848285016134da565b61020083015250610220613c83848285016134da565b61022083015250610240613c99848285016134da565b61024083015250610260613caf84828501613a11565b61026083015250610280613cc5848285016134da565b610280830152506102a0613cdb848285016134da565b6102a0830152506102c0613cf184828501613a11565b6102c0830152506102e0613d0784828501613665565b6102e08301525092915050565b600060208284031215613d2a57613d2961314d565b5b600082013567ffffffffffffffff811115613d4857613d47613152565b5b613d5484828501613a26565b91505092915050565b613d668161363c565b82525050565b6000602082019050613d816000830184613d5d565b92915050565b600080600060608486031215613da057613d9f61314d565b5b6000613dae868287016134da565b9350506020613dbf868287016134da565b9250506040613dd0868287016134da565b9150509250925092565b6000613de58261363c565b9050919050565b613df581613dda565b8114613e0057600080fd5b50565b600081359050613e1281613dec565b92915050565b600060208284031215613e2e57613e2d61314d565b5b6000613e3c84828501613e03565b91505092915050565b6000613e508261363c565b9050919050565b613e6081613e45565b8114613e6b57600080fd5b50565b600081359050613e7d81613e57565b92915050565b600060208284031215613e9957613e9861314d565b5b6000613ea784828501613e6e565b91505092915050565b600060208284031215613ec657613ec561314d565b5b6000613ed48482850161383c565b91505092915050565b6000613ee88261363c565b9050919050565b613ef881613edd565b8114613f0357600080fd5b50565b600081359050613f1581613eef565b92915050565b600060208284031215613f3157613f3061314d565b5b6000613f3f84828501613f06565b91505092915050565b6000613f538261320e565b9050919050565b613f6381613f48565b82525050565b6000602082019050613f7e6000830184613f5a565b92915050565b6000613f8f8261320e565b9050919050565b613f9f81613f84565b82525050565b6000602082019050613fba6000830184613f96565b92915050565b600082825260208201905092915050565b7f4f6e6c79204f776e657200000000000000000000000000000000000000000000600082015250565b6000614007600a83613fc0565b915061401282613fd1565b602082019050919050565b6000602082019050818103600083015261403681613ffa565b9050919050565b600081519050919050565b600081905092915050565b60005b83811015614071578082015181840152602081019050614056565b83811115614080576000848401525b50505050565b60006140918261403d565b61409b8185614048565b93506140ab818560208601614053565b80840191505092915050565b60006140c38284614086565b915081905092915050565b6000815190506140dd816134c3565b92915050565b60006140f66140f1846132f2565b6132d7565b90508281526020810184848401111561411257614111613261565b5b61411d848285614053565b509392505050565b600082601f83011261413a5761413961325c565b5b815161414a8482602086016140e3565b91505092915050565b60008151905061416281613825565b92915050565b600061417b61417684613851565b6132d7565b9050808382526020820190506020840283018581111561419e5761419d61387d565b5b835b818110156141c757806141b388826140ce565b8452602084019350506020810190506141a0565b5050509392505050565b600082601f8301126141e6576141e561325c565b5b81516141f6848260208601614168565b91505092915050565b600061421261420d84613919565b6132d7565b905080838252602082019050602084028301858111156142355761423461387d565b5b835b8181101561427c57805167ffffffffffffffff81111561425a5761425961325c565b5b8086016142678982614125565b85526020850194505050602081019050614237565b5050509392505050565b600082601f83011261429b5761429a61325c565b5b81516142ab8482602086016141ff565b91505092915050565b6000815190506142c3816139fa565b92915050565b6000815190506142d8816137b8565b92915050565b6000815190506142ed8161364e565b92915050565b6000610300828403121561430a57614309613811565b5b6143156103006132d7565b90506000614325848285016140ce565b6000830152506020614339848285016140ce565b602083015250604082015167ffffffffffffffff81111561435d5761435c613816565b5b61436984828501614125565b604083015250606061437d84828501614153565b6060830152506080614391848285016140ce565b60808301525060a082015167ffffffffffffffff8111156143b5576143b4613816565b5b6143c184828501614125565b60a08301525060c082015167ffffffffffffffff8111156143e5576143e4613816565b5b6143f184828501614125565b60c08301525060e082015167ffffffffffffffff81111561441557614414613816565b5b61442184828501614125565b60e083015250610100614436848285016140ce565b6101008301525061012061444c848285016140ce565b61012083015250610140614462848285016140ce565b6101408301525061016082015167ffffffffffffffff81111561448857614487613816565b5b614494848285016141d1565b6101608301525061018082015167ffffffffffffffff8111156144ba576144b9613816565b5b6144c684828501614125565b610180830152506101a082015167ffffffffffffffff8111156144ec576144eb613816565b5b6144f884828501614286565b6101a0830152506101c061450e848285016142b4565b6101c0830152506101e0614524848285016142c9565b6101e08301525061020061453a848285016140ce565b61020083015250610220614550848285016140ce565b61022083015250610240614566848285016140ce565b6102408301525061026061457c848285016142b4565b61026083015250610280614592848285016140ce565b610280830152506102a06145a8848285016140ce565b6102a0830152506102c06145be848285016142b4565b6102c0830152506102e06145d4848285016142de565b6102e08301525092915050565b6000602082840312156145f7576145f661314d565b5b600082015167ffffffffffffffff81111561461557614614613152565b5b614621848285016142f3565b91505092915050565b7f486173207469636b657473000000000000000000000000000000000000000000600082015250565b6000614660600b83613fc0565b915061466b8261462a565b602082019050919050565b6000602082019050818103600083015261468f81614653565b9050919050565b7f496e73756666696369656e740000000000000000000000000000000000000000600082015250565b60006146cc600c83613fc0565b91506146d782614696565b602082019050919050565b600060208201905081810360008301526146fb816146bf565b9050919050565b60006060820190506147176000830186613d5d565b6147246020830185613d5d565b614731604083018461377c565b949350505050565b60006020828403121561474f5761474e61314d565b5b600061475d848285016142b4565b91505092915050565b600060608201905061477b600083018661377c565b614788602083018561377c565b6147956040830184613d5d565b949350505050565b6147a68161381b565b82525050565b60006060820190506147c1600083018661377c565b6147ce602083018561377c565b6147db604083018461479d565b949350505050565b7f4e487b7100000000000000000000000000000000000000000000000000000000600052601160045260246000fd5b600061481d826134b9565b9150614828836134b9565b9250827fffffffffffffffffffffffffffffffffffffffffffffffffffffffffffffffff0382111561485d5761485c6147e3565b5b828201905092915050565b7f4f6e6c79206f70657261746f7200000000000000000000000000000000000000600082015250565b600061489e600d83613fc0565b91506148a982614868565b602082019050919050565b600060208201905081810360008301526148cd81614891565b9050919050565b60006040820190506148e9600083018561377c565b6148f6602083018461377c565b9392505050565b600067ffffffffffffffff82111561491857614917613277565b5b602082029050602081019050919050565b600061493c614937846148fd565b6132d7565b9050808382526020820190506020840283018581111561495f5761495e61387d565b5b835b81811015614988578061497488826142de565b845260208401935050602081019050614961565b5050509392505050565b600082601f8301126149a7576149a661325c565b5b81516149b7848260208601614929565b91505092915050565b6000602082840312156149d6576149d561314d565b5b600082015167ffffffffffffffff8111156149f4576149f3613152565b5b614a0084828501614992565b91505092915050565b600067ffffffffffffffff821115614a2457614a23613277565b5b602082029050602081019050919050565b6000614a48614a4384614a09565b6132d7565b90508083825260208201905060208402830185811115614a6b57614a6a61387d565b5b835b81811015614a945780614a808882614153565b845260208401935050602081019050614a6d565b5050509392505050565b600082601f830112614ab357614ab261325c565b5b8151614ac3848260208601614a35565b91505092915050565b60006101408284031215614ae357614ae2613811565b5b614aee6101406132d7565b90506000614afe848285016140ce565b600083015250602082015167ffffffffffffffff811115614b2257614b21613816565b5b614b2e84828501614992565b6020830152506040614b42848285016140ce565b6040830152506060614b56848285016142de565b6060830152506080614b6a848285016140ce565b60808301525060a082015167ffffffffffffffff811115614b8e57614b8d613816565b5b614b9a84828501614a9e565b60a08301525060c082015167ffffffffffffffff811115614bbe57614bbd613816565b5b614bca84828501614a9e565b60c08301525060e082015167ffffffffffffffff811115614bee57614bed613816565b5b614bfa84828501614a9e565b60e083015250610100614c0f848285016142b4565b61010083015250610120614c25848285016142b4565b6101208301525092915050565b600060208284031215614c4857614c4761314d565b5b600082015167ffffffffffffffff811115614c6657614c65613152565b5b614c7284828501614acc565b91505092915050565b60008060008060808587031215614c9557614c9461314d565b5b600085015167ffffffffffffffff811115614cb357614cb2613152565b5b614cbf87828801614a9e565b945050602085015167ffffffffffffffff811115614ce057614cdf613152565b5b614cec87828801614a9e565b935050604085015167ffffffffffffffff811115614d0d57614d0c613152565b5b614d1987828801614a9e565b925050606085015167ffffffffffffffff811115614d3a57614d39613152565b5b614d4687828801614992565b91505092959194509250565b600081519050919050565b600082825260208201905092915050565b6000819050602082019050919050565b614d878161363c565b82525050565b6000614d998383614d7e565b60208301905092915050565b6000602082019050919050565b6000614dbd82614d52565b614dc78185614d5d565b9350614dd283614d6e565b8060005b83811015614e03578151614dea8882614d8d565b9750614df583614da5565b925050600181019050614dd6565b5085935050505092915050565b600081519050919050565b600082825260208201905092915050565b6000819050602082019050919050565b614e458161381b565b82525050565b6000614e578383614e3c565b60208301905092915050565b6000602082019050919050565b6000614e7b82614e10565b614e858185614e1b565b9350614e9083614e2c565b8060005b83811015614ec1578151614ea88882614e4b565b9750614eb383614e63565b925050600181019050614e94565b5085935050505092915050565b614ed781613483565b82525050565b600061014083016000830151614ef66000860182613588565b5060208301518482036020860152614f0e8282614db2565b9150506040830151614f236040860182613588565b506060830151614f366060860182614d7e565b506080830151614f496080860182613588565b5060a083015184820360a0860152614f618282614e70565b91505060c083015184820360c0860152614f7b8282614e70565b91505060e083015184820360e0860152614f958282614e70565b915050610100830151614fac610100860182614ece565b50610120830151614fc1610120860182614ece565b508091505092915050565b6000606082019050614fe1600083018661377c565b614fee602083018561377c565b81810360408301526150008184614edd565b9050949350505050565b60006150158261403d565b61501f8185613fc0565b935061502f818560208601614053565b61503881613266565b840191505092915050565b6000604082019050818103600083015261505d818561500a565b905061506c6020830184613d5d565b9392505050565b7f4f6e6c792061646d696e00000000000000000000000000000000000000000000600082015250565b60006150a9600a83613fc0565b91506150b482615073565b602082019050919050565b600060208201905081810360008301526150d88161509c565b9050919050565b7f496e76616c696420696400000000000000000000000000000000000000000000600082015250565b6000615115600a83613fc0565b9150615120826150df565b602082019050919050565b6000602082019050818103600083015261514481615108565b9050919050565b7f45786973742067616d6500000000000000000000000000000000000000000000600082015250565b6000615181600a83613fc0565b915061518c8261514b565b602082019050919050565b600060208201905081810360008301526151b081615174565b9050919050565b600082825260208201905092915050565b60006151d38261403d565b6151dd81856151b7565b93506151ed818560208601614053565b6151f681613266565b840191505092915050565b600082825260208201905092915050565b600061521d8261355c565b6152278185615201565b935061523283613578565b8060005b8381101561526357815161524a8882613597565b9750615255836135af565b925050600181019050615236565b5085935050505092915050565b600081519050919050565b600082825260208201905092915050565b6000819050602082019050919050565b60006152a883836151c8565b905092915050565b6000602082019050919050565b60006152c882615270565b6152d2818561527b565b9350836020820285016152e48561528c565b8060005b858110156153205784840389528151615301858261529c565b945061530c836152b0565b925060208a019950506001810190506152e8565b50829750879550505050505092915050565b61533b81613f48565b82525050565b60006103008301600083015161535a6000860182613588565b50602083015161536d6020860182613588565b506040830151848203604086015261538582826151c8565b915050606083015161539a6060860182614e3c565b5060808301516153ad6080860182613588565b5060a083015184820360a08601526153c582826151c8565b91505060c083015184820360c08601526153df82826151c8565b91505060e083015184820360e08601526153f982826151c8565b915050610100830151615410610100860182613588565b50610120830151615425610120860182613588565b5061014083015161543a610140860182613588565b506101608301518482036101608601526154548282615212565b91505061018083015184820361018086015261547082826151c8565b9150506101a08301518482036101a086015261548c82826152bd565b9150506101c08301516154a36101c0860182614ece565b506101e08301516154b86101e0860182615332565b506102008301516154cd610200860182613588565b506102208301516154e2610220860182613588565b506102408301516154f7610240860182613588565b5061026083015161550c610260860182614ece565b50610280830151615521610280860182613588565b506102a08301516155366102a0860182613588565b506102c083015161554b6102c0860182614ece565b506102e08301516155606102e0860182614d7e565b508091505092915050565b60006040820190508181036000830152615585818561500a565b905081810360208301526155998184615341565b90509392505050565b7f6e6f742062756666000000000000000000000000000000000000000000000000600082015250565b60006155d8600883613fc0565b91506155e3826155a2565b602082019050919050565b60006020820190508181036000830152615607816155cb565b9050919050565b7f4e6f7420696e20726f756e640000000000000000000000000000000000000000600082015250565b6000615644600c83613fc0565b915061564f8261560e565b602082019050919050565b6000602082019050818103600083015261567381615637565b9050919050565b7f4861732062756666000000000000000000000000000000000000000000000000600082015250565b60006156b0600883613fc0565b91506156bb8261567a565b602082019050919050565b600060208201905081810360008301526156df816156a3565b9050919050565b60006040820190506156fb6000830185613d5d565b615708602083018461377c565b9392505050565b6000606082019050615724600083018661377c565b615731602083018561377c565b61573e604083018461377c565b949350505050565b7f50726570617920666f7220676173000000000000000000000000000000000000600082015250565b600061577c600e83613fc0565b915061578782615746565b602082019050919050565b600060208201905081810360008301526157ab8161576f565b9050919050565b60006060820190506157c7600083018661377c565b6157d46020830185613d5d565b6157e1604083018461377c565b949350505050565b7f4e487b7100000000000000000000000000000000000000000000000000000000600052603260045260246000fd5b60006020828403121561582e5761582d61314d565b5b600061583c848285016140ce565b91505092915050565b60006158508261320e565b9050919050565b61586081615845565b82525050565b600060408201905061587b6000830185615857565b615888602083018461377c565b9392505050565b600061589a826134b9565b91507fffffffffffffffffffffffffffffffffffffffffffffffffffffffffffffffff8214156158cd576158cc6147e3565b5b600182019050919050565b7f4e6f7420737461727420726f756e640000000000000000000000000000000000600082015250565b600061590e600f83613fc0565b9150615919826158d8565b602082019050919050565b6000602082019050818103600083015261593d81615901565b9050919050565b7f4f76657220726f756e6400000000000000000000000000000000000000000000600082015250565b600061597a600a83613fc0565b915061598582615944565b602082019050919050565b600060208201905081810360008301526159a98161596d565b9050919050565b6000602082840312156159c6576159c561314d565b5b600082015167ffffffffffffffff8111156159e4576159e3613152565b5b6159f0848285016141d1565b91505092915050565b7f4e6f742065786973742067616d65000000000000000000000000000000000000600082015250565b6000615a2f600e83613fc0565b9150615a3a826159f9565b602082019050919050565b60006020820190508181036000830152615a5e81615a22565b9050919050565b6000615a70826134b9565b9150615a7b836134b9565b9250817fffffffffffffffffffffffffffffffffffffffffffffffffffffffffffffffff0483118215151615615ab457615ab36147e3565b5b828202905092915050565b7f4e487b7100000000000000000000000000000000000000000000000000000000600052601260045260246000fd5b6000615af9826134b9565b9150615b04836134b9565b925082615b1457615b13615abf565b5b828204905092915050565b7f536166654d6174683a206d756c7469706c69636174696f6e206f766572666c6f60008201527f7700000000000000000000000000000000000000000000000000000000000000602082015250565b6000615b7b602183613fc0565b9150615b8682615b1f565b604082019050919050565b60006020820190508181036000830152615baa81615b6e565b9050919050565b60006020820190508181036000830152615bcb818461500a565b905092915050565b6000615bde826134b9565b9150615be9836134b9565b925082821015615bfc57615bfb6147e3565b5b82820390509291505056fea264697066735822122063a4e44ca935fac5e93ec59663c595150f49cf933765c2ea24f075664ab0bfea64736f6c63430008090033",
  "linkReferences": {},
  "deployedLinkReferences": {}
}