{
  "_format": "hh-sol-artifact-1",
  "contractName": "Game",
  "sourceName": "src/contracts/game/game.sol",
  "abi": [
    {
      "inputs": [
        {
          "internalType": "address payable",
          "name": "_operator",
          "type": "address"
        },
        {
          "internalType": "contract IAdminData",
          "name": "_adminData",
          "type": "address"
        },
        {
          "internalType": "contract IGameData",
          "name": "_gameData",
          "type": "address"
        },
        {
          "internalType": "contract IGameLogic",
          "name": "_gameLogic",
          "type": "address"
        },
        {
          "internalType": "contract IQuizToken",
          "name": "_buffToken",
          "type": "address"
        },
        {
          "internalType": "uint256",
          "name": "_buffValue",
          "type": "uint256"
        }
      ],
      "stateMutability": "nonpayable",
      "type": "constructor"
    },
    {
      "inputs": [
        {
          "internalType": "string",
          "name": "_appId",
          "type": "string"
        },
        {
          "internalType": "address payable",
          "name": "_newOperator",
          "type": "address"
        }
      ],
      "name": "addAppOperator",
      "outputs": [],
      "stateMutability": "nonpayable",
      "type": "function"
    },
    {
      "inputs": [],
      "name": "adminData",
      "outputs": [
        {
          "internalType": "contract IAdminData",
          "name": "",
          "type": "address"
        }
      ],
      "stateMutability": "view",
      "type": "function"
    },
    {
      "inputs": [],
      "name": "buffToken",
      "outputs": [
        {
          "internalType": "contract IQuizToken",
          "name": "",
          "type": "address"
        }
      ],
      "stateMutability": "view",
      "type": "function"
    },
    {
      "inputs": [],
      "name": "buffValue",
      "outputs": [
        {
          "internalType": "uint256",
          "name": "",
          "type": "uint256"
        }
      ],
      "stateMutability": "view",
      "type": "function"
    },
    {
      "inputs": [
        {
          "internalType": "uint256",
          "name": "_gameId",
          "type": "uint256"
        },
        {
          "internalType": "uint256",
          "name": "_round",
          "type": "uint256"
        },
        {
          "internalType": "uint256",
          "name": "_buffId",
          "type": "uint256"
        }
      ],
      "name": "buyBuff",
      "outputs": [],
      "stateMutability": "nonpayable",
      "type": "function"
    },
    {
      "inputs": [
        {
          "internalType": "uint256",
          "name": "_gameId",
          "type": "uint256"
        },
        {
          "internalType": "uint256",
          "name": "_round",
          "type": "uint256"
        }
      ],
      "name": "buyErc20Ticket",
      "outputs": [],
      "stateMutability": "nonpayable",
      "type": "function"
    },
    {
      "inputs": [
        {
          "internalType": "uint256",
          "name": "_gameId",
          "type": "uint256"
        },
        {
          "internalType": "uint256",
          "name": "_round",
          "type": "uint256"
        }
      ],
      "name": "buyEthTicket",
      "outputs": [],
      "stateMutability": "payable",
      "type": "function"
    },
    {
      "inputs": [
        {
          "internalType": "contract IAdminData",
          "name": "_newData",
          "type": "address"
        }
      ],
      "name": "changeAdminData",
      "outputs": [],
      "stateMutability": "nonpayable",
      "type": "function"
    },
    {
      "inputs": [
        {
          "internalType": "contract IQuizToken",
          "name": "_newToken",
          "type": "address"
        }
      ],
      "name": "changeBuffToken",
      "outputs": [],
      "stateMutability": "nonpayable",
      "type": "function"
    },
    {
      "inputs": [
        {
          "internalType": "uint256",
          "name": "_newValue",
          "type": "uint256"
        }
      ],
      "name": "changeBuffValue",
      "outputs": [],
      "stateMutability": "nonpayable",
      "type": "function"
    },
    {
      "inputs": [
        {
          "internalType": "contract IGameData",
          "name": "_newData",
          "type": "address"
        }
      ],
      "name": "changeGameData",
      "outputs": [],
      "stateMutability": "nonpayable",
      "type": "function"
    },
    {
      "inputs": [
        {
          "internalType": "address payable",
          "name": "_newOperator",
          "type": "address"
        }
      ],
      "name": "changeOperator",
      "outputs": [],
      "stateMutability": "nonpayable",
      "type": "function"
    },
    {
      "inputs": [
        {
          "components": [
            {
              "internalType": "uint256",
              "name": "id",
              "type": "uint256"
            },
            {
              "internalType": "uint256",
              "name": "category",
              "type": "uint256"
            },
            {
              "internalType": "string",
              "name": "appId",
              "type": "string"
            },
            {
              "internalType": "int256",
              "name": "groupId",
              "type": "int256"
            },
            {
              "internalType": "uint256",
              "name": "botType",
              "type": "uint256"
            },
            {
              "internalType": "string",
              "name": "title",
              "type": "string"
            },
            {
              "internalType": "string",
              "name": "introduction",
              "type": "string"
            },
            {
              "internalType": "string",
              "name": "story",
              "type": "string"
            },
            {
              "internalType": "uint256",
              "name": "eliminateProportion",
              "type": "uint256"
            },
            {
              "internalType": "uint256",
              "name": "awardProportion",
              "type": "uint256"
            },
            {
              "internalType": "uint256",
              "name": "winNum",
              "type": "uint256"
            },
            {
              "internalType": "uint256[]",
              "name": "buffIds",
              "type": "uint256[]"
            },
            {
              "internalType": "string[]",
              "name": "events",
              "type": "string[]"
            },
            {
              "internalType": "bool",
              "name": "ticketIsEth",
              "type": "bool"
            },
            {
              "internalType": "contract IERC20",
              "name": "ticketsToken",
              "type": "address"
            },
            {
              "internalType": "uint256",
              "name": "ticketAmount",
              "type": "uint256"
            },
            {
              "internalType": "uint256",
              "name": "effectStartTime",
              "type": "uint256"
            },
            {
              "internalType": "uint256",
              "name": "effectEndTime",
              "type": "uint256"
            },
            {
              "internalType": "bool",
              "name": "daily",
              "type": "bool"
            },
            {
              "internalType": "uint256",
              "name": "startH",
              "type": "uint256"
            },
            {
              "internalType": "uint256",
              "name": "startM",
              "type": "uint256"
            },
            {
              "internalType": "bool",
              "name": "exist",
              "type": "bool"
            },
            {
              "internalType": "address",
              "name": "creator",
              "type": "address"
            }
          ],
          "internalType": "struct IGameData.GameDetail",
          "name": "_game",
          "type": "tuple"
        }
      ],
      "name": "createGame",
      "outputs": [],
      "stateMutability": "nonpayable",
      "type": "function"
    },
    {
      "inputs": [
        {
          "internalType": "string",
          "name": "_appId",
          "type": "string"
        }
      ],
      "name": "delAppOperator",
      "outputs": [],
      "stateMutability": "nonpayable",
      "type": "function"
    },
    {
      "inputs": [
        {
          "internalType": "contract IERC20",
          "name": "",
          "type": "address"
        }
      ],
      "name": "erc20Exist",
      "outputs": [
        {
          "internalType": "bool",
          "name": "",
          "type": "bool"
        }
      ],
      "stateMutability": "view",
      "type": "function"
    },
    {
      "inputs": [
        {
          "internalType": "uint256",
          "name": "",
          "type": "uint256"
        }
      ],
      "name": "erc20List",
      "outputs": [
        {
          "internalType": "contract IERC20",
          "name": "",
          "type": "address"
        }
      ],
      "stateMutability": "view",
      "type": "function"
    },
    {
      "inputs": [],
      "name": "gameData",
      "outputs": [
        {
          "internalType": "contract IGameData",
          "name": "",
          "type": "address"
        }
      ],
      "stateMutability": "view",
      "type": "function"
    },
    {
      "inputs": [],
      "name": "gameLogic",
      "outputs": [
        {
          "internalType": "contract IGameLogic",
          "name": "",
          "type": "address"
        }
      ],
      "stateMutability": "view",
      "type": "function"
    },
    {
      "inputs": [
        {
          "internalType": "string",
          "name": "_appId",
          "type": "string"
        },
        {
          "internalType": "uint256",
          "name": "_gameId",
          "type": "uint256"
        },
        {
          "internalType": "uint256",
          "name": "_round",
          "type": "uint256"
        }
      ],
      "name": "gameRoundOver",
      "outputs": [],
      "stateMutability": "nonpayable",
      "type": "function"
    },
    {
      "inputs": [
        {
          "internalType": "string",
          "name": "_appId",
          "type": "string"
        }
      ],
      "name": "isOperator",
      "outputs": [
        {
          "internalType": "bool",
          "name": "",
          "type": "bool"
        }
      ],
      "stateMutability": "view",
      "type": "function"
    },
    {
      "inputs": [],
      "name": "operator",
      "outputs": [
        {
          "internalType": "address payable",
          "name": "",
          "type": "address"
        }
      ],
      "stateMutability": "view",
      "type": "function"
    },
    {
      "inputs": [],
      "name": "owner",
      "outputs": [
        {
          "internalType": "address",
          "name": "",
          "type": "address"
        }
      ],
      "stateMutability": "view",
      "type": "function"
    },
    {
      "inputs": [
        {
          "internalType": "string",
          "name": "_appId",
          "type": "string"
        },
        {
          "internalType": "uint256",
          "name": "_gameId",
          "type": "uint256"
        },
        {
          "internalType": "uint256",
          "name": "_launchTime",
          "type": "uint256"
        }
      ],
      "name": "startGame",
      "outputs": [],
      "stateMutability": "payable",
      "type": "function"
    },
    {
      "inputs": [
        {
          "internalType": "address payable",
          "name": "_to",
          "type": "address"
        }
      ],
      "name": "transferAsset",
      "outputs": [],
      "stateMutability": "nonpayable",
      "type": "function"
    },
    {
      "inputs": [
        {
          "internalType": "address",
          "name": "_newOwner",
          "type": "address"
        }
      ],
      "name": "transferOwner",
      "outputs": [],
      "stateMutability": "nonpayable",
      "type": "function"
    }
  ],
  "bytecode": "0x60806040523480156200001157600080fd5b5060405162005d3138038062005d3183398181016040528101906200003791906200039c565b336000806101000a81548173ffffffffffffffffffffffffffffffffffffffff021916908373ffffffffffffffffffffffffffffffffffffffff16021790555085600160006101000a81548173ffffffffffffffffffffffffffffffffffffffff021916908373ffffffffffffffffffffffffffffffffffffffff16021790555084600360006101000a81548173ffffffffffffffffffffffffffffffffffffffff021916908373ffffffffffffffffffffffffffffffffffffffff16021790555083600460006101000a81548173ffffffffffffffffffffffffffffffffffffffff021916908373ffffffffffffffffffffffffffffffffffffffff16021790555082600560006101000a81548173ffffffffffffffffffffffffffffffffffffffff021916908373ffffffffffffffffffffffffffffffffffffffff16021790555081600660006101000a81548173ffffffffffffffffffffffffffffffffffffffff021916908373ffffffffffffffffffffffffffffffffffffffff1602179055508060078190555050505050505062000438565b600080fd5b600073ffffffffffffffffffffffffffffffffffffffff82169050919050565b60006200020182620001d4565b9050919050565b6200021381620001f4565b81146200021f57600080fd5b50565b600081519050620002338162000208565b92915050565b60006200024682620001d4565b9050919050565b60006200025a8262000239565b9050919050565b6200026c816200024d565b81146200027857600080fd5b50565b6000815190506200028c8162000261565b92915050565b60006200029f8262000239565b9050919050565b620002b18162000292565b8114620002bd57600080fd5b50565b600081519050620002d181620002a6565b92915050565b6000620002e48262000239565b9050919050565b620002f681620002d7565b81146200030257600080fd5b50565b6000815190506200031681620002eb565b92915050565b6000620003298262000239565b9050919050565b6200033b816200031c565b81146200034757600080fd5b50565b6000815190506200035b8162000330565b92915050565b6000819050919050565b620003768162000361565b81146200038257600080fd5b50565b60008151905062000396816200036b565b92915050565b60008060008060008060c08789031215620003bc57620003bb620001cf565b5b6000620003cc89828a0162000222565b9650506020620003df89828a016200027b565b9550506040620003f289828a01620002c0565b94505060606200040589828a0162000305565b93505060806200041889828a016200034a565b92505060a06200042b89828a0162000385565b9150509295509295509295565b6158e980620004486000396000f3fe6080604052600436106101965760003560e01c80637742b301116100e1578063b7579b501161008a578063ce6e98f211610064578063ce6e98f214610512578063e606c9b81461053b578063e86098f514610564578063fa24f743146105a157610196565b8063b7579b5014610497578063bb3f0911146104c0578063c7d7b660146104e957610196565b80638da5cb5b116100bb5780638da5cb5b14610427578063b05c3f6714610452578063b2888e491461047b57610196565b80637742b301146103965780637e3dfe5c146103bf57806380690863146103fc57610196565b80632101032311610143578063570ca7351161011d578063570ca735146103245780635a2a79231461034f5780635cffe6001461037a57610196565b806321010323146102a95780632483eee5146102d25780634fb2e45d146102fb57610196565b80630bd09979116101745780630bd0997914610218578063134087a2146102415780631f041bd11461026c57610196565b806306394c9b1461019b57806306d2ae8e146101c457806307603a3a146101ef575b600080fd5b3480156101a757600080fd5b506101c260048036038101906101bd9190612ec7565b6105cc565b005b3480156101d057600080fd5b506101d961069e565b6040516101e69190612f53565b60405180910390f35b3480156101fb57600080fd5b5061021660048036038101906102119190612fa4565b6106c4565b005b34801561022457600080fd5b5061023f600480360381019061023a919061312a565b610a45565b005b34801561024d57600080fd5b50610256610b34565b60405161026391906131a7565b60405180910390f35b34801561027857600080fd5b50610293600480360381019061028e91906131c2565b610b5a565b6040516102a09190613226565b60405180910390f35b3480156102b557600080fd5b506102d060048036038101906102cb919061378e565b610c28565b005b3480156102de57600080fd5b506102f960048036038101906102f491906137d7565b610f55565b005b34801561030757600080fd5b50610322600480360381019061031d9190613804565b610fed565b005b34801561033057600080fd5b506103396110be565b6040516103469190613840565b60405180910390f35b34801561035b57600080fd5b506103646110e4565b604051610371919061387c565b60405180910390f35b610394600480360381019061038f9190612fa4565b61110a565b005b3480156103a257600080fd5b506103bd60048036038101906103b89190613897565b611438565b005b3480156103cb57600080fd5b506103e660048036038101906103e19190613906565b6117aa565b6040516103f39190613226565b60405180910390f35b34801561040857600080fd5b506104116117ca565b60405161041e9190613942565b60405180910390f35b34801561043357600080fd5b5061043c6117d0565b604051610449919061396c565b60405180910390f35b34801561045e57600080fd5b5061047960048036038101906104749190613987565b6117f4565b005b61049560048036038101906104909190613897565b611a68565b005b3480156104a357600080fd5b506104be60048036038101906104b99190613a18565b611c30565b005b3480156104cc57600080fd5b506104e760048036038101906104e291906131c2565b611d02565b005b3480156104f557600080fd5b50610510600480360381019061050b9190612ec7565b611df1565b005b34801561051e57600080fd5b5061053960048036038101906105349190613a83565b612099565b005b34801561054757600080fd5b50610562600480360381019061055d9190613aee565b61216b565b005b34801561057057600080fd5b5061058b600480360381019061058691906137d7565b61223d565b6040516105989190613b3c565b60405180910390f35b3480156105ad57600080fd5b506105b661227c565b6040516105c39190613b78565b60405180910390f35b60008054906101000a900473ffffffffffffffffffffffffffffffffffffffff1673ffffffffffffffffffffffffffffffffffffffff163373ffffffffffffffffffffffffffffffffffffffff161461065a576040517f08c379a000000000000000000000000000000000000000000000000000000000815260040161065190613bf0565b60405180910390fd5b80600160006101000a81548173ffffffffffffffffffffffffffffffffffffffff021916908373ffffffffffffffffffffffffffffffffffffffff16021790555050565b600360009054906101000a900473ffffffffffffffffffffffffffffffffffffffff1681565b6106ce82826122a2565b6106d8828261239c565b6000600460009054906101000a900473ffffffffffffffffffffffffffffffffffffffff1673ffffffffffffffffffffffffffffffffffffffff1663a2f77bcc846040518263ffffffff1660e01b81526004016107359190613942565b60006040518083038186803b15801561074d57600080fd5b505afa158015610761573d6000803e3d6000fd5b505050506040513d6000823e3d601f19601f8201168201806040525081019061078a9190614124565b9050806101a00151156107d2576040517f08c379a00000000000000000000000000000000000000000000000000000000081526004016107c9906141b9565b60405180910390fd5b60006107df848433612497565b5090508015610823576040517f08c379a000000000000000000000000000000000000000000000000000000000815260040161081a90614225565b60405180910390fd5b816101c0015173ffffffffffffffffffffffffffffffffffffffff166323b872dd3330856101e001516040518463ffffffff1660e01b815260040161086a93929190614245565b602060405180830381600087803b15801561088457600080fd5b505af1158015610898573d6000803e3d6000fd5b505050506040513d601f19601f820116820180604052508101906108bc919061427c565b50600460009054906101000a900473ffffffffffffffffffffffffffffffffffffffff1673ffffffffffffffffffffffffffffffffffffffff1663ffe41ad38585336040518463ffffffff1660e01b815260040161091c939291906142a9565b600060405180830381600087803b15801561093657600080fd5b505af115801561094a573d6000803e3d6000fd5b50505050600560009054906101000a900473ffffffffffffffffffffffffffffffffffffffff1673ffffffffffffffffffffffffffffffffffffffff1663a71a0c078585600a60008981526020019081526020016000206000888152602001908152602001600020546040518463ffffffff1660e01b81526004016109d1939291906142ef565b600060405180830381600087803b1580156109eb57600080fd5b505af11580156109ff573d6000803e3d6000fd5b505050506001600a600086815260200190815260200160002060008581526020019081526020016000206000828254610a389190614355565b9250508190555050505050565b60008054906101000a900473ffffffffffffffffffffffffffffffffffffffff1673ffffffffffffffffffffffffffffffffffffffff163373ffffffffffffffffffffffffffffffffffffffff1614610ad3576040517f08c379a0000000000000000000000000000000000000000000000000000000008152600401610aca90613bf0565b60405180910390fd5b80600283604051610ae491906143f2565b908152602001604051809103902060006101000a81548173ffffffffffffffffffffffffffffffffffffffff021916908373ffffffffffffffffffffffffffffffffffffffff1602179055505050565b600560009054906101000a900473ffffffffffffffffffffffffffffffffffffffff1681565b60003373ffffffffffffffffffffffffffffffffffffffff16600160009054906101000a900473ffffffffffffffffffffffffffffffffffffffff1673ffffffffffffffffffffffffffffffffffffffff161480610c2157503373ffffffffffffffffffffffffffffffffffffffff16600283604051610bda91906143f2565b908152602001604051809103902060009054906101000a900473ffffffffffffffffffffffffffffffffffffffff1673ffffffffffffffffffffffffffffffffffffffff16145b9050919050565b8060400151600360009054906101000a900473ffffffffffffffffffffffffffffffffffffffff1673ffffffffffffffffffffffffffffffffffffffff1663b796e2b082336040518363ffffffff1660e01b8152600401610c8a929190614442565b60206040518083038186803b158015610ca257600080fd5b505afa158015610cb6573d6000803e3d6000fd5b505050506040513d601f19601f82011682018060405250810190610cda919061427c565b80610cea5750610ce981610b5a565b5b610d29576040517f08c379a0000000000000000000000000000000000000000000000000000000008152600401610d20906144be565b60405180910390fd5b600082600001511415610d71576040517f08c379a0000000000000000000000000000000000000000000000000000000008152600401610d689061452a565b60405180910390fd5b6000600460009054906101000a900473ffffffffffffffffffffffffffffffffffffffff1673ffffffffffffffffffffffffffffffffffffffff1663a2f77bcc84600001516040518263ffffffff1660e01b8152600401610dd29190613942565b60006040518083038186803b158015610dea57600080fd5b505afa158015610dfe573d6000803e3d6000fd5b505050506040513d6000823e3d601f19601f82011682018060405250810190610e279190614124565b9050806102a0015115610e6f576040517f08c379a0000000000000000000000000000000000000000000000000000000008152600401610e6690614596565b60405180910390fd5b8290506001816102a001901515908115158152505033816102c0019073ffffffffffffffffffffffffffffffffffffffff16908173ffffffffffffffffffffffffffffffffffffffff1681525050600460009054906101000a900473ffffffffffffffffffffffffffffffffffffffff1673ffffffffffffffffffffffffffffffffffffffff16639851ad4b8460400151836040518363ffffffff1660e01b8152600401610f1e9291906149ca565b600060405180830381600087803b158015610f3857600080fd5b505af1158015610f4c573d6000803e3d6000fd5b50505050505050565b60008054906101000a900473ffffffffffffffffffffffffffffffffffffffff1673ffffffffffffffffffffffffffffffffffffffff163373ffffffffffffffffffffffffffffffffffffffff1614610fe3576040517f08c379a0000000000000000000000000000000000000000000000000000000008152600401610fda90613bf0565b60405180910390fd5b8060078190555050565b60008054906101000a900473ffffffffffffffffffffffffffffffffffffffff1673ffffffffffffffffffffffffffffffffffffffff163373ffffffffffffffffffffffffffffffffffffffff161461107b576040517f08c379a000000000000000000000000000000000000000000000000000000000815260040161107290613bf0565b60405180910390fd5b806000806101000a81548173ffffffffffffffffffffffffffffffffffffffff021916908373ffffffffffffffffffffffffffffffffffffffff16021790555050565b600160009054906101000a900473ffffffffffffffffffffffffffffffffffffffff1681565b600660009054906101000a900473ffffffffffffffffffffffffffffffffffffffff1681565b61111482826122a2565b61111e828261239c565b6000600460009054906101000a900473ffffffffffffffffffffffffffffffffffffffff1673ffffffffffffffffffffffffffffffffffffffff1663a2f77bcc846040518263ffffffff1660e01b815260040161117b9190613942565b60006040518083038186803b15801561119357600080fd5b505afa1580156111a7573d6000803e3d6000fd5b505050506040513d6000823e3d601f19601f820116820180604052508101906111d09190614124565b9050806101a00151611217576040517f08c379a000000000000000000000000000000000000000000000000000000000815260040161120e90614a4d565b60405180910390fd5b6000611224848433612497565b5090508015611268576040517f08c379a000000000000000000000000000000000000000000000000000000000815260040161125f90614225565b60405180910390fd5b816101e001513410156112b0576040517f08c379a00000000000000000000000000000000000000000000000000000000081526004016112a790614ab9565b60405180910390fd5b600460009054906101000a900473ffffffffffffffffffffffffffffffffffffffff1673ffffffffffffffffffffffffffffffffffffffff1663ffe41ad38585336040518463ffffffff1660e01b815260040161130f939291906142a9565b600060405180830381600087803b15801561132957600080fd5b505af115801561133d573d6000803e3d6000fd5b50505050600560009054906101000a900473ffffffffffffffffffffffffffffffffffffffff1673ffffffffffffffffffffffffffffffffffffffff1663a71a0c078585600a60008981526020019081526020016000206000888152602001908152602001600020546040518463ffffffff1660e01b81526004016113c4939291906142ef565b600060405180830381600087803b1580156113de57600080fd5b505af11580156113f2573d6000803e3d6000fd5b505050506001600a60008681526020019081526020016000206000858152602001908152602001600020600082825461142b9190614355565b9250508190555050505050565b61144183610b5a565b611480576040517f08c379a000000000000000000000000000000000000000000000000000000000815260040161147790614b25565b60405180910390fd5b61148a82826122a2565b611494828261239c565b6000600460009054906101000a900473ffffffffffffffffffffffffffffffffffffffff1673ffffffffffffffffffffffffffffffffffffffff16630d2dce2284846040518363ffffffff1660e01b81526004016114f3929190614b45565b60006040518083038186803b15801561150b57600080fd5b505afa15801561151f573d6000803e3d6000fd5b505050506040513d6000823e3d601f19601f820116820180604052508101906115489190614c31565b90506000600460009054906101000a900473ffffffffffffffffffffffffffffffffffffffff1673ffffffffffffffffffffffffffffffffffffffff166370c1b1d785856040518363ffffffff1660e01b81526004016115a9929190614b45565b60006040518083038186803b1580156115c157600080fd5b505afa1580156115d5573d6000803e3d6000fd5b505050506040513d6000823e3d601f19601f820116820180604052508101906115fe9190614ea3565b9050600080600080600560009054906101000a900473ffffffffffffffffffffffffffffffffffffffff1673ffffffffffffffffffffffffffffffffffffffff1663532af7d289896040518363ffffffff1660e01b8152600401611663929190614b45565b600060405180830381600087803b15801561167d57600080fd5b505af1158015611691573d6000803e3d6000fd5b505050506040513d6000823e3d601f19601f820116820180604052508101906116ba9190614eec565b93509350935093508085602001819052508551856040018181525050838560a00181905250828560c00181905250818560e00181905250600185610100019015159081151581525050600460009054906101000a900473ffffffffffffffffffffffffffffffffffffffff1673ffffffffffffffffffffffffffffffffffffffff1663ea7a48da8989886040518463ffffffff1660e01b815260040161176293929190615210565b600060405180830381600087803b15801561177c57600080fd5b505af1158015611790573d6000803e3d6000fd5b5050505061179f8882896125d3565b505050505050505050565b60096020528060005260406000206000915054906101000a900460ff1681565b60075481565b60008054906101000a900473ffffffffffffffffffffffffffffffffffffffff1681565b6117fe838361239c565b61180883836122a2565b611811816128f9565b60008061181f858533612497565b9150915081611863576040517f08c379a000000000000000000000000000000000000000000000000000000000815260040161185a9061529a565b60405180910390fd5b61186e858583612940565b156118ae576040517f08c379a00000000000000000000000000000000000000000000000000000000081526004016118a590615306565b60405180910390fd5b600660009054906101000a900473ffffffffffffffffffffffffffffffffffffffff1673ffffffffffffffffffffffffffffffffffffffff16639dc29fac336007546040518363ffffffff1660e01b815260040161190d929190615326565b600060405180830381600087803b15801561192757600080fd5b505af115801561193b573d6000803e3d6000fd5b50505050600460009054906101000a900473ffffffffffffffffffffffffffffffffffffffff1673ffffffffffffffffffffffffffffffffffffffff166342f2a5e38686846040518463ffffffff1660e01b815260040161199e9392919061534f565b600060405180830381600087803b1580156119b857600080fd5b505af11580156119cc573d6000803e3d6000fd5b50505050600560009054906101000a900473ffffffffffffffffffffffffffffffffffffffff1673ffffffffffffffffffffffffffffffffffffffff1663d8602ed18686846040518463ffffffff1660e01b8152600401611a2f9392919061534f565b600060405180830381600087803b158015611a4957600080fd5b505af1158015611a5d573d6000803e3d6000fd5b505050505050505050565b611a7182612a4b565b60003411611ab4576040517f08c379a0000000000000000000000000000000000000000000000000000000008152600401611aab906153d2565b60405180910390fd5b6000600284604051611ac691906143f2565b908152602001604051809103902060009054906101000a900473ffffffffffffffffffffffffffffffffffffffff169050600073ffffffffffffffffffffffffffffffffffffffff168173ffffffffffffffffffffffffffffffffffffffff161415611b5257600160009054906101000a900473ffffffffffffffffffffffffffffffffffffffff1690505b8073ffffffffffffffffffffffffffffffffffffffff166108fc349081150290604051600060405180830381858888f19350505050158015611b98573d6000803e3d6000fd5b50600460009054906101000a900473ffffffffffffffffffffffffffffffffffffffff1673ffffffffffffffffffffffffffffffffffffffff166357e40a648433856040518463ffffffff1660e01b8152600401611bf8939291906153f2565b600060405180830381600087803b158015611c1257600080fd5b505af1158015611c26573d6000803e3d6000fd5b5050505050505050565b60008054906101000a900473ffffffffffffffffffffffffffffffffffffffff1673ffffffffffffffffffffffffffffffffffffffff163373ffffffffffffffffffffffffffffffffffffffff1614611cbe576040517f08c379a0000000000000000000000000000000000000000000000000000000008152600401611cb590613bf0565b60405180910390fd5b80600660006101000a81548173ffffffffffffffffffffffffffffffffffffffff021916908373ffffffffffffffffffffffffffffffffffffffff16021790555050565b60008054906101000a900473ffffffffffffffffffffffffffffffffffffffff1673ffffffffffffffffffffffffffffffffffffffff163373ffffffffffffffffffffffffffffffffffffffff1614611d90576040517f08c379a0000000000000000000000000000000000000000000000000000000008152600401611d8790613bf0565b60405180910390fd5b6000600282604051611da291906143f2565b908152602001604051809103902060006101000a81548173ffffffffffffffffffffffffffffffffffffffff021916908373ffffffffffffffffffffffffffffffffffffffff16021790555050565b60008054906101000a900473ffffffffffffffffffffffffffffffffffffffff1673ffffffffffffffffffffffffffffffffffffffff163373ffffffffffffffffffffffffffffffffffffffff1614611e7f576040517f08c379a0000000000000000000000000000000000000000000000000000000008152600401611e7690613bf0565b60405180910390fd5b6000471115611ed0578073ffffffffffffffffffffffffffffffffffffffff166108fc479081150290604051600060405180830381858888f19350505050158015611ece573d6000803e3d6000fd5b505b60005b60088054905081101561209557600060088281548110611ef657611ef5615429565b5b9060005260206000200160009054906101000a900473ffffffffffffffffffffffffffffffffffffffff1673ffffffffffffffffffffffffffffffffffffffff166370a08231306040518263ffffffff1660e01b8152600401611f59919061396c565b60206040518083038186803b158015611f7157600080fd5b505afa158015611f85573d6000803e3d6000fd5b505050506040513d601f19601f82011682018060405250810190611fa99190615458565b905060008111156120815760088281548110611fc857611fc7615429565b5b9060005260206000200160009054906101000a900473ffffffffffffffffffffffffffffffffffffffff1673ffffffffffffffffffffffffffffffffffffffff1663a9059cbb84836040518363ffffffff1660e01b815260040161202d9291906154a6565b602060405180830381600087803b15801561204757600080fd5b505af115801561205b573d6000803e3d6000fd5b505050506040513d601f19601f8201168201806040525081019061207f919061427c565b505b50808061208d906154cf565b915050611ed3565b5050565b60008054906101000a900473ffffffffffffffffffffffffffffffffffffffff1673ffffffffffffffffffffffffffffffffffffffff163373ffffffffffffffffffffffffffffffffffffffff1614612127576040517f08c379a000000000000000000000000000000000000000000000000000000000815260040161211e90613bf0565b60405180910390fd5b80600360006101000a81548173ffffffffffffffffffffffffffffffffffffffff021916908373ffffffffffffffffffffffffffffffffffffffff16021790555050565b60008054906101000a900473ffffffffffffffffffffffffffffffffffffffff1673ffffffffffffffffffffffffffffffffffffffff163373ffffffffffffffffffffffffffffffffffffffff16146121f9576040517f08c379a00000000000000000000000000000000000000000000000000000000081526004016121f090613bf0565b60405180910390fd5b80600460006101000a81548173ffffffffffffffffffffffffffffffffffffffff021916908373ffffffffffffffffffffffffffffffffffffffff16021790555050565b6008818154811061224d57600080fd5b906000526020600020016000915054906101000a900473ffffffffffffffffffffffffffffffffffffffff1681565b600460009054906101000a900473ffffffffffffffffffffffffffffffffffffffff1681565b600460009054906101000a900473ffffffffffffffffffffffffffffffffffffffff1673ffffffffffffffffffffffffffffffffffffffff166370c1b1d783836040518363ffffffff1660e01b81526004016122ff929190614b45565b60006040518083038186803b15801561231757600080fd5b505afa15801561232b573d6000803e3d6000fd5b505050506040513d6000823e3d601f19601f820116820180604052508101906123549190614ea3565b6101200151612398576040517f08c379a000000000000000000000000000000000000000000000000000000000815260040161238f90615564565b60405180910390fd5b5050565b600460009054906101000a900473ffffffffffffffffffffffffffffffffffffffff1673ffffffffffffffffffffffffffffffffffffffff166370c1b1d783836040518363ffffffff1660e01b81526004016123f9929190614b45565b60006040518083038186803b15801561241157600080fd5b505afa158015612425573d6000803e3d6000fd5b505050506040513d6000823e3d601f19601f8201168201806040525081019061244e9190614ea3565b610100015115612493576040517f08c379a000000000000000000000000000000000000000000000000000000000815260040161248a906155d0565b60405180910390fd5b5050565b6000806000600460009054906101000a900473ffffffffffffffffffffffffffffffffffffffff1673ffffffffffffffffffffffffffffffffffffffff16630d2dce2287876040518363ffffffff1660e01b81526004016124f9929190614b45565b60006040518083038186803b15801561251157600080fd5b505afa158015612525573d6000803e3d6000fd5b505050506040513d6000823e3d601f19601f8201168201806040525081019061254e9190614c31565b905060005b81518110156125c9578473ffffffffffffffffffffffffffffffffffffffff1682828151811061258657612585615429565b5b602002602001015173ffffffffffffffffffffffffffffffffffffffff1614156125b657600193508092506125c9565b80806125c1906154cf565b915050612553565b5050935093915050565b6000825114156125e2576128f4565b6000600460009054906101000a900473ffffffffffffffffffffffffffffffffffffffff1673ffffffffffffffffffffffffffffffffffffffff1663a2f77bcc856040518263ffffffff1660e01b815260040161263f9190613942565b60006040518083038186803b15801561265757600080fd5b505afa15801561266b573d6000803e3d6000fd5b505050506040513d6000823e3d601f19601f820116820180604052508101906126949190614124565b90506000600460009054906101000a900473ffffffffffffffffffffffffffffffffffffffff1673ffffffffffffffffffffffffffffffffffffffff1663751938af86856040518363ffffffff1660e01b81526004016126f5929190614b45565b60206040518083038186803b15801561270d57600080fd5b505afa158015612721573d6000803e3d6000fd5b505050506040513d601f19601f820116820180604052508101906127459190615458565b90506000612774836101200151612766606485612b8690919063ffffffff16565b612bd090919063ffffffff16565b9050600061278b8284612c4b90919063ffffffff16565b905060006127a3875184612b8690919063ffffffff16565b905060005b87518110156128e357856101a0015115612822578781815181106127cf576127ce615429565b5b602002602001015173ffffffffffffffffffffffffffffffffffffffff166108fc839081150290604051600060405180830381858888f1935050505015801561281c573d6000803e3d6000fd5b506128d0565b856101c0015173ffffffffffffffffffffffffffffffffffffffff1663a9059cbb89838151811061285657612855615429565b5b6020026020010151846040518363ffffffff1660e01b815260040161287c929190615326565b602060405180830381600087803b15801561289657600080fd5b505af11580156128aa573d6000803e3d6000fd5b505050506040513d601f19601f820116820180604052508101906128ce919061427c565b505b80806128db906154cf565b9150506127a8565b506128ee8583612c95565b50505050505b505050565b600081141561293d576040517f08c379a00000000000000000000000000000000000000000000000000000000081526004016129349061563c565b60405180910390fd5b50565b600080600460009054906101000a900473ffffffffffffffffffffffffffffffffffffffff1673ffffffffffffffffffffffffffffffffffffffff16636a3f5dc586866040518363ffffffff1660e01b81526004016129a0929190614b45565b60006040518083038186803b1580156129b857600080fd5b505afa1580156129cc573d6000803e3d6000fd5b505050506040513d6000823e3d601f19601f820116820180604052508101906129f5919061565c565b90506000805b8251811015612a3e5784838281518110612a1857612a17615429565b5b60200260200101511415612a2b57600191505b8080612a36906154cf565b9150506129fb565b5080925050509392505050565b6000811415612a8f576040517f08c379a0000000000000000000000000000000000000000000000000000000008152600401612a869061452a565b60405180910390fd5b600460009054906101000a900473ffffffffffffffffffffffffffffffffffffffff1673ffffffffffffffffffffffffffffffffffffffff1663a2f77bcc826040518263ffffffff1660e01b8152600401612aea9190613942565b60006040518083038186803b158015612b0257600080fd5b505afa158015612b16573d6000803e3d6000fd5b505050506040513d6000823e3d601f19601f82011682018060405250810190612b3f9190614124565b6102a00151612b83576040517f08c379a0000000000000000000000000000000000000000000000000000000008152600401612b7a906156f1565b60405180910390fd5b50565b6000612bc883836040518060400160405280601a81526020017f536166654d6174683a206469766973696f6e206279207a65726f000000000000815250612d8e565b905092915050565b600080831415612be35760009050612c45565b60008284612bf19190615711565b9050828482612c00919061579a565b14612c40576040517f08c379a0000000000000000000000000000000000000000000000000000000008152600401612c379061583d565b60405180910390fd5b809150505b92915050565b6000612c8d83836040518060400160405280601481526020017f7375627472616374696f6e206f766572666c6f77000000000000000000000000815250612df1565b905092915050565b816101a0015115612cf157816102c0015173ffffffffffffffffffffffffffffffffffffffff166108fc829081150290604051600060405180830381858888f19350505050158015612ceb573d6000803e3d6000fd5b50612d8a565b816101c0015173ffffffffffffffffffffffffffffffffffffffff1663a9059cbb836102c00151836040518363ffffffff1660e01b8152600401612d36929190615326565b602060405180830381600087803b158015612d5057600080fd5b505af1158015612d64573d6000803e3d6000fd5b505050506040513d601f19601f82011682018060405250810190612d88919061427c565b505b5050565b60008083118290612dd5576040517f08c379a0000000000000000000000000000000000000000000000000000000008152600401612dcc919061585d565b60405180910390fd5b5060008385612de4919061579a565b9050809150509392505050565b6000838311158290612e39576040517f08c379a0000000000000000000000000000000000000000000000000000000008152600401612e30919061585d565b60405180910390fd5b5060008385612e48919061587f565b9050809150509392505050565b6000604051905090565b600080fd5b600080fd5b600073ffffffffffffffffffffffffffffffffffffffff82169050919050565b6000612e9482612e69565b9050919050565b612ea481612e89565b8114612eaf57600080fd5b50565b600081359050612ec181612e9b565b92915050565b600060208284031215612edd57612edc612e5f565b5b6000612eeb84828501612eb2565b91505092915050565b6000819050919050565b6000612f19612f14612f0f84612e69565b612ef4565b612e69565b9050919050565b6000612f2b82612efe565b9050919050565b6000612f3d82612f20565b9050919050565b612f4d81612f32565b82525050565b6000602082019050612f686000830184612f44565b92915050565b6000819050919050565b612f8181612f6e565b8114612f8c57600080fd5b50565b600081359050612f9e81612f78565b92915050565b60008060408385031215612fbb57612fba612e5f565b5b6000612fc985828601612f8f565b9250506020612fda85828601612f8f565b9150509250929050565b600080fd5b600080fd5b6000601f19601f8301169050919050565b7f4e487b7100000000000000000000000000000000000000000000000000000000600052604160045260246000fd5b61303782612fee565b810181811067ffffffffffffffff8211171561305657613055612fff565b5b80604052505050565b6000613069612e55565b9050613075828261302e565b919050565b600067ffffffffffffffff82111561309557613094612fff565b5b61309e82612fee565b9050602081019050919050565b82818337600083830152505050565b60006130cd6130c88461307a565b61305f565b9050828152602081018484840111156130e9576130e8612fe9565b5b6130f48482856130ab565b509392505050565b600082601f83011261311157613110612fe4565b5b81356131218482602086016130ba565b91505092915050565b6000806040838503121561314157613140612e5f565b5b600083013567ffffffffffffffff81111561315f5761315e612e64565b5b61316b858286016130fc565b925050602061317c85828601612eb2565b9150509250929050565b600061319182612f20565b9050919050565b6131a181613186565b82525050565b60006020820190506131bc6000830184613198565b92915050565b6000602082840312156131d8576131d7612e5f565b5b600082013567ffffffffffffffff8111156131f6576131f5612e64565b5b613202848285016130fc565b91505092915050565b60008115159050919050565b6132208161320b565b82525050565b600060208201905061323b6000830184613217565b92915050565b600080fd5b600080fd5b6000819050919050565b61325e8161324b565b811461326957600080fd5b50565b60008135905061327b81613255565b92915050565b600067ffffffffffffffff82111561329c5761329b612fff565b5b602082029050602081019050919050565b600080fd5b60006132c56132c084613281565b61305f565b905080838252602082019050602084028301858111156132e8576132e76132ad565b5b835b8181101561331157806132fd8882612f8f565b8452602084019350506020810190506132ea565b5050509392505050565b600082601f8301126133305761332f612fe4565b5b81356133408482602086016132b2565b91505092915050565b600067ffffffffffffffff82111561336457613363612fff565b5b602082029050602081019050919050565b600061338861338384613349565b61305f565b905080838252602082019050602084028301858111156133ab576133aa6132ad565b5b835b818110156133f257803567ffffffffffffffff8111156133d0576133cf612fe4565b5b8086016133dd89826130fc565b855260208501945050506020810190506133ad565b5050509392505050565b600082601f83011261341157613410612fe4565b5b8135613421848260208601613375565b91505092915050565b6134338161320b565b811461343e57600080fd5b50565b6000813590506134508161342a565b92915050565b600061346182612e69565b9050919050565b600061347382613456565b9050919050565b61348381613468565b811461348e57600080fd5b50565b6000813590506134a08161347a565b92915050565b6134af81613456565b81146134ba57600080fd5b50565b6000813590506134cc816134a6565b92915050565b60006102e082840312156134e9576134e8613241565b5b6134f46102e061305f565b9050600061350484828501612f8f565b600083015250602061351884828501612f8f565b602083015250604082013567ffffffffffffffff81111561353c5761353b613246565b5b613548848285016130fc565b604083015250606061355c8482850161326c565b606083015250608061357084828501612f8f565b60808301525060a082013567ffffffffffffffff81111561359457613593613246565b5b6135a0848285016130fc565b60a08301525060c082013567ffffffffffffffff8111156135c4576135c3613246565b5b6135d0848285016130fc565b60c08301525060e082013567ffffffffffffffff8111156135f4576135f3613246565b5b613600848285016130fc565b60e08301525061010061361584828501612f8f565b6101008301525061012061362b84828501612f8f565b6101208301525061014061364184828501612f8f565b6101408301525061016082013567ffffffffffffffff81111561366757613666613246565b5b6136738482850161331b565b6101608301525061018082013567ffffffffffffffff81111561369957613698613246565b5b6136a5848285016133fc565b610180830152506101a06136bb84828501613441565b6101a0830152506101c06136d184828501613491565b6101c0830152506101e06136e784828501612f8f565b6101e0830152506102006136fd84828501612f8f565b6102008301525061022061371384828501612f8f565b6102208301525061024061372984828501613441565b6102408301525061026061373f84828501612f8f565b6102608301525061028061375584828501612f8f565b610280830152506102a061376b84828501613441565b6102a0830152506102c0613781848285016134bd565b6102c08301525092915050565b6000602082840312156137a4576137a3612e5f565b5b600082013567ffffffffffffffff8111156137c2576137c1612e64565b5b6137ce848285016134d2565b91505092915050565b6000602082840312156137ed576137ec612e5f565b5b60006137fb84828501612f8f565b91505092915050565b60006020828403121561381a57613819612e5f565b5b6000613828848285016134bd565b91505092915050565b61383a81612e89565b82525050565b60006020820190506138556000830184613831565b92915050565b600061386682612f20565b9050919050565b6138768161385b565b82525050565b6000602082019050613891600083018461386d565b92915050565b6000806000606084860312156138b0576138af612e5f565b5b600084013567ffffffffffffffff8111156138ce576138cd612e64565b5b6138da868287016130fc565b93505060206138eb86828701612f8f565b92505060406138fc86828701612f8f565b9150509250925092565b60006020828403121561391c5761391b612e5f565b5b600061392a84828501613491565b91505092915050565b61393c81612f6e565b82525050565b60006020820190506139576000830184613933565b92915050565b61396681613456565b82525050565b6000602082019050613981600083018461395d565b92915050565b6000806000606084860312156139a05761399f612e5f565b5b60006139ae86828701612f8f565b93505060206139bf86828701612f8f565b92505060406139d086828701612f8f565b9150509250925092565b60006139e582613456565b9050919050565b6139f5816139da565b8114613a0057600080fd5b50565b600081359050613a12816139ec565b92915050565b600060208284031215613a2e57613a2d612e5f565b5b6000613a3c84828501613a03565b91505092915050565b6000613a5082613456565b9050919050565b613a6081613a45565b8114613a6b57600080fd5b50565b600081359050613a7d81613a57565b92915050565b600060208284031215613a9957613a98612e5f565b5b6000613aa784828501613a6e565b91505092915050565b6000613abb82613456565b9050919050565b613acb81613ab0565b8114613ad657600080fd5b50565b600081359050613ae881613ac2565b92915050565b600060208284031215613b0457613b03612e5f565b5b6000613b1284828501613ad9565b91505092915050565b6000613b2682612f20565b9050919050565b613b3681613b1b565b82525050565b6000602082019050613b516000830184613b2d565b92915050565b6000613b6282612f20565b9050919050565b613b7281613b57565b82525050565b6000602082019050613b8d6000830184613b69565b92915050565b600082825260208201905092915050565b7f4f6e6c79204f776e657200000000000000000000000000000000000000000000600082015250565b6000613bda600a83613b93565b9150613be582613ba4565b602082019050919050565b60006020820190508181036000830152613c0981613bcd565b9050919050565b600081519050613c1f81612f78565b92915050565b60005b83811015613c43578082015181840152602081019050613c28565b83811115613c52576000848401525b50505050565b6000613c6b613c668461307a565b61305f565b905082815260208101848484011115613c8757613c86612fe9565b5b613c92848285613c25565b509392505050565b600082601f830112613caf57613cae612fe4565b5b8151613cbf848260208601613c58565b91505092915050565b600081519050613cd781613255565b92915050565b6000613cf0613ceb84613281565b61305f565b90508083825260208201905060208402830185811115613d1357613d126132ad565b5b835b81811015613d3c5780613d288882613c10565b845260208401935050602081019050613d15565b5050509392505050565b600082601f830112613d5b57613d5a612fe4565b5b8151613d6b848260208601613cdd565b91505092915050565b6000613d87613d8284613349565b61305f565b90508083825260208201905060208402830185811115613daa57613da96132ad565b5b835b81811015613df157805167ffffffffffffffff811115613dcf57613dce612fe4565b5b808601613ddc8982613c9a565b85526020850194505050602081019050613dac565b5050509392505050565b600082601f830112613e1057613e0f612fe4565b5b8151613e20848260208601613d74565b91505092915050565b600081519050613e388161342a565b92915050565b600081519050613e4d8161347a565b92915050565b600081519050613e62816134a6565b92915050565b60006102e08284031215613e7f57613e7e613241565b5b613e8a6102e061305f565b90506000613e9a84828501613c10565b6000830152506020613eae84828501613c10565b602083015250604082015167ffffffffffffffff811115613ed257613ed1613246565b5b613ede84828501613c9a565b6040830152506060613ef284828501613cc8565b6060830152506080613f0684828501613c10565b60808301525060a082015167ffffffffffffffff811115613f2a57613f29613246565b5b613f3684828501613c9a565b60a08301525060c082015167ffffffffffffffff811115613f5a57613f59613246565b5b613f6684828501613c9a565b60c08301525060e082015167ffffffffffffffff811115613f8a57613f89613246565b5b613f9684828501613c9a565b60e083015250610100613fab84828501613c10565b61010083015250610120613fc184828501613c10565b61012083015250610140613fd784828501613c10565b6101408301525061016082015167ffffffffffffffff811115613ffd57613ffc613246565b5b61400984828501613d46565b6101608301525061018082015167ffffffffffffffff81111561402f5761402e613246565b5b61403b84828501613dfb565b610180830152506101a061405184828501613e29565b6101a0830152506101c061406784828501613e3e565b6101c0830152506101e061407d84828501613c10565b6101e08301525061020061409384828501613c10565b610200830152506102206140a984828501613c10565b610220830152506102406140bf84828501613e29565b610240830152506102606140d584828501613c10565b610260830152506102806140eb84828501613c10565b610280830152506102a061410184828501613e29565b6102a0830152506102c061411784828501613e53565b6102c08301525092915050565b60006020828403121561413a57614139612e5f565b5b600082015167ffffffffffffffff81111561415857614157612e64565b5b61416484828501613e68565b91505092915050565b7f4e6f742065726332300000000000000000000000000000000000000000000000600082015250565b60006141a3600983613b93565b91506141ae8261416d565b602082019050919050565b600060208201905081810360008301526141d281614196565b9050919050565b7f486173207469636b657473000000000000000000000000000000000000000000600082015250565b600061420f600b83613b93565b915061421a826141d9565b602082019050919050565b6000602082019050818103600083015261423e81614202565b9050919050565b600060608201905061425a600083018661395d565b614267602083018561395d565b6142746040830184613933565b949350505050565b60006020828403121561429257614291612e5f565b5b60006142a084828501613e29565b91505092915050565b60006060820190506142be6000830186613933565b6142cb6020830185613933565b6142d8604083018461395d565b949350505050565b6142e98161324b565b82525050565b60006060820190506143046000830186613933565b6143116020830185613933565b61431e60408301846142e0565b949350505050565b7f4e487b7100000000000000000000000000000000000000000000000000000000600052601160045260246000fd5b600061436082612f6e565b915061436b83612f6e565b9250827fffffffffffffffffffffffffffffffffffffffffffffffffffffffffffffffff038211156143a05761439f614326565b5b828201905092915050565b600081519050919050565b600081905092915050565b60006143cc826143ab565b6143d681856143b6565b93506143e6818560208601613c25565b80840191505092915050565b60006143fe82846143c1565b915081905092915050565b6000614414826143ab565b61441e8185613b93565b935061442e818560208601613c25565b61443781612fee565b840191505092915050565b6000604082019050818103600083015261445c8185614409565b905061446b602083018461395d565b9392505050565b7f4f6e6c792061646d696e00000000000000000000000000000000000000000000600082015250565b60006144a8600a83613b93565b91506144b382614472565b602082019050919050565b600060208201905081810360008301526144d78161449b565b9050919050565b7f496e76616c696420696400000000000000000000000000000000000000000000600082015250565b6000614514600a83613b93565b915061451f826144de565b602082019050919050565b6000602082019050818103600083015261454381614507565b9050919050565b7f45786973742067616d6500000000000000000000000000000000000000000000600082015250565b6000614580600a83613b93565b915061458b8261454a565b602082019050919050565b600060208201905081810360008301526145af81614573565b9050919050565b6145bf81612f6e565b82525050565b600082825260208201905092915050565b60006145e1826143ab565b6145eb81856145c5565b93506145fb818560208601613c25565b61460481612fee565b840191505092915050565b6146188161324b565b82525050565b600081519050919050565b600082825260208201905092915050565b6000819050602082019050919050565b600061465683836145b6565b60208301905092915050565b6000602082019050919050565b600061467a8261461e565b6146848185614629565b935061468f8361463a565b8060005b838110156146c05781516146a7888261464a565b97506146b283614662565b925050600181019050614693565b5085935050505092915050565b600081519050919050565b600082825260208201905092915050565b6000819050602082019050919050565b600061470583836145d6565b905092915050565b6000602082019050919050565b6000614725826146cd565b61472f81856146d8565b935083602082028501614741856146e9565b8060005b8581101561477d578484038952815161475e85826146f9565b94506147698361470d565b925060208a01995050600181019050614745565b50829750879550505050505092915050565b6147988161320b565b82525050565b6147a781613b1b565b82525050565b6147b681613456565b82525050565b60006102e0830160008301516147d560008601826145b6565b5060208301516147e860208601826145b6565b506040830151848203604086015261480082826145d6565b9150506060830151614815606086018261460f565b50608083015161482860808601826145b6565b5060a083015184820360a086015261484082826145d6565b91505060c083015184820360c086015261485a82826145d6565b91505060e083015184820360e086015261487482826145d6565b91505061010083015161488b6101008601826145b6565b506101208301516148a06101208601826145b6565b506101408301516148b56101408601826145b6565b506101608301518482036101608601526148cf828261466f565b9150506101808301518482036101808601526148eb828261471a565b9150506101a08301516149026101a086018261478f565b506101c08301516149176101c086018261479e565b506101e083015161492c6101e08601826145b6565b506102008301516149416102008601826145b6565b506102208301516149566102208601826145b6565b5061024083015161496b61024086018261478f565b506102608301516149806102608601826145b6565b506102808301516149956102808601826145b6565b506102a08301516149aa6102a086018261478f565b506102c08301516149bf6102c08601826147ad565b508091505092915050565b600060408201905081810360008301526149e48185614409565b905081810360208301526149f881846147bc565b90509392505050565b7f4e6f742065746800000000000000000000000000000000000000000000000000600082015250565b6000614a37600783613b93565b9150614a4282614a01565b602082019050919050565b60006020820190508181036000830152614a6681614a2a565b9050919050565b7f496e73756666696369656e740000000000000000000000000000000000000000600082015250565b6000614aa3600c83613b93565b9150614aae82614a6d565b602082019050919050565b60006020820190508181036000830152614ad281614a96565b9050919050565b7f4f6e6c79206f70657261746f7200000000000000000000000000000000000000600082015250565b6000614b0f600d83613b93565b9150614b1a82614ad9565b602082019050919050565b60006020820190508181036000830152614b3e81614b02565b9050919050565b6000604082019050614b5a6000830185613933565b614b676020830184613933565b9392505050565b600067ffffffffffffffff821115614b8957614b88612fff565b5b602082029050602081019050919050565b6000614bad614ba884614b6e565b61305f565b90508083825260208201905060208402830185811115614bd057614bcf6132ad565b5b835b81811015614bf95780614be58882613e53565b845260208401935050602081019050614bd2565b5050509392505050565b600082601f830112614c1857614c17612fe4565b5b8151614c28848260208601614b9a565b91505092915050565b600060208284031215614c4757614c46612e5f565b5b600082015167ffffffffffffffff811115614c6557614c64612e64565b5b614c7184828501614c03565b91505092915050565b600067ffffffffffffffff821115614c9557614c94612fff565b5b602082029050602081019050919050565b6000614cb9614cb484614c7a565b61305f565b90508083825260208201905060208402830185811115614cdc57614cdb6132ad565b5b835b81811015614d055780614cf18882613cc8565b845260208401935050602081019050614cde565b5050509392505050565b600082601f830112614d2457614d23612fe4565b5b8151614d34848260208601614ca6565b91505092915050565b60006101408284031215614d5457614d53613241565b5b614d5f61014061305f565b90506000614d6f84828501613c10565b600083015250602082015167ffffffffffffffff811115614d9357614d92613246565b5b614d9f84828501614c03565b6020830152506040614db384828501613c10565b6040830152506060614dc784828501613e53565b6060830152506080614ddb84828501613c10565b60808301525060a082015167ffffffffffffffff811115614dff57614dfe613246565b5b614e0b84828501614d0f565b60a08301525060c082015167ffffffffffffffff811115614e2f57614e2e613246565b5b614e3b84828501614d0f565b60c08301525060e082015167ffffffffffffffff811115614e5f57614e5e613246565b5b614e6b84828501614d0f565b60e083015250610100614e8084828501613e29565b61010083015250610120614e9684828501613e29565b6101208301525092915050565b600060208284031215614eb957614eb8612e5f565b5b600082015167ffffffffffffffff811115614ed757614ed6612e64565b5b614ee384828501614d3d565b91505092915050565b60008060008060808587031215614f0657614f05612e5f565b5b600085015167ffffffffffffffff811115614f2457614f23612e64565b5b614f3087828801614d0f565b945050602085015167ffffffffffffffff811115614f5157614f50612e64565b5b614f5d87828801614d0f565b935050604085015167ffffffffffffffff811115614f7e57614f7d612e64565b5b614f8a87828801614d0f565b925050606085015167ffffffffffffffff811115614fab57614faa612e64565b5b614fb787828801614c03565b91505092959194509250565b600081519050919050565b600082825260208201905092915050565b6000819050602082019050919050565b6000614ffb83836147ad565b60208301905092915050565b6000602082019050919050565b600061501f82614fc3565b6150298185614fce565b935061503483614fdf565b8060005b8381101561506557815161504c8882614fef565b975061505783615007565b925050600181019050615038565b5085935050505092915050565b600081519050919050565b600082825260208201905092915050565b6000819050602082019050919050565b60006150aa838361460f565b60208301905092915050565b6000602082019050919050565b60006150ce82615072565b6150d8818561507d565b93506150e38361508e565b8060005b838110156151145781516150fb888261509e565b9750615106836150b6565b9250506001810190506150e7565b5085935050505092915050565b60006101408301600083015161513a60008601826145b6565b50602083015184820360208601526151528282615014565b915050604083015161516760408601826145b6565b50606083015161517a60608601826147ad565b50608083015161518d60808601826145b6565b5060a083015184820360a08601526151a582826150c3565b91505060c083015184820360c08601526151bf82826150c3565b91505060e083015184820360e08601526151d982826150c3565b9150506101008301516151f061010086018261478f565b5061012083015161520561012086018261478f565b508091505092915050565b60006060820190506152256000830186613933565b6152326020830185613933565b81810360408301526152448184615121565b9050949350505050565b7f4e6f7420696e20726f756e640000000000000000000000000000000000000000600082015250565b6000615284600c83613b93565b915061528f8261524e565b602082019050919050565b600060208201905081810360008301526152b381615277565b9050919050565b7f4861732062756666000000000000000000000000000000000000000000000000600082015250565b60006152f0600883613b93565b91506152fb826152ba565b602082019050919050565b6000602082019050818103600083015261531f816152e3565b9050919050565b600060408201905061533b600083018561395d565b6153486020830184613933565b9392505050565b60006060820190506153646000830186613933565b6153716020830185613933565b61537e6040830184613933565b949350505050565b7f50726570617920666f7220676173000000000000000000000000000000000000600082015250565b60006153bc600e83613b93565b91506153c782615386565b602082019050919050565b600060208201905081810360008301526153eb816153af565b9050919050565b60006060820190506154076000830186613933565b615414602083018561395d565b6154216040830184613933565b949350505050565b7f4e487b7100000000000000000000000000000000000000000000000000000000600052603260045260246000fd5b60006020828403121561546e5761546d612e5f565b5b600061547c84828501613c10565b91505092915050565b600061549082612f20565b9050919050565b6154a081615485565b82525050565b60006040820190506154bb6000830185615497565b6154c86020830184613933565b9392505050565b60006154da82612f6e565b91507fffffffffffffffffffffffffffffffffffffffffffffffffffffffffffffffff82141561550d5761550c614326565b5b600182019050919050565b7f4e6f7420737461727420726f756e640000000000000000000000000000000000600082015250565b600061554e600f83613b93565b915061555982615518565b602082019050919050565b6000602082019050818103600083015261557d81615541565b9050919050565b7f4f76657220726f756e6400000000000000000000000000000000000000000000600082015250565b60006155ba600a83613b93565b91506155c582615584565b602082019050919050565b600060208201905081810360008301526155e9816155ad565b9050919050565b7f4e6f742062756666000000000000000000000000000000000000000000000000600082015250565b6000615626600883613b93565b9150615631826155f0565b602082019050919050565b6000602082019050818103600083015261565581615619565b9050919050565b60006020828403121561567257615671612e5f565b5b600082015167ffffffffffffffff8111156156905761568f612e64565b5b61569c84828501613d46565b91505092915050565b7f4e6f742065786973742067616d65000000000000000000000000000000000000600082015250565b60006156db600e83613b93565b91506156e6826156a5565b602082019050919050565b6000602082019050818103600083015261570a816156ce565b9050919050565b600061571c82612f6e565b915061572783612f6e565b9250817fffffffffffffffffffffffffffffffffffffffffffffffffffffffffffffffff04831182151516156157605761575f614326565b5b828202905092915050565b7f4e487b7100000000000000000000000000000000000000000000000000000000600052601260045260246000fd5b60006157a582612f6e565b91506157b083612f6e565b9250826157c0576157bf61576b565b5b828204905092915050565b7f536166654d6174683a206d756c7469706c69636174696f6e206f766572666c6f60008201527f7700000000000000000000000000000000000000000000000000000000000000602082015250565b6000615827602183613b93565b9150615832826157cb565b604082019050919050565b600060208201905081810360008301526158568161581a565b9050919050565b600060208201905081810360008301526158778184614409565b905092915050565b600061588a82612f6e565b915061589583612f6e565b9250828210156158a8576158a7614326565b5b82820390509291505056fea264697066735822122091ad54f13d37b20d0962a136fe3344aa5420f6d78ba4f9afb650b13e4bacfacd64736f6c63430008090033",
  "linkReferences": {},
  "deployedLinkReferences": {}
}