{
  "_format": "hh-sol-artifact-1",
  "contractName": "Game",
  "sourceName": "src/contracts/game/game.sol",
  "abi": [
    {
      "inputs": [
        {
          "internalType": "address payable",
          "name": "_operator",
          "type": "address"
        },
        {
          "internalType": "contract IAdminData",
          "name": "_adminData",
          "type": "address"
        },
        {
          "internalType": "contract IGameData",
          "name": "_gameData",
          "type": "address"
        },
        {
          "internalType": "contract IGameLogic",
          "name": "_gameLogic",
          "type": "address"
        },
        {
          "internalType": "contract IQuizToken",
          "name": "_buffToken",
          "type": "address"
        },
        {
          "internalType": "uint256",
          "name": "_buffValue",
          "type": "uint256"
        }
      ],
      "stateMutability": "nonpayable",
      "type": "constructor"
    },
    {
      "inputs": [
        {
          "internalType": "string",
          "name": "_appId",
          "type": "string"
        },
        {
          "internalType": "address payable",
          "name": "_newOperator",
          "type": "address"
        }
      ],
      "name": "addAppOperator",
      "outputs": [],
      "stateMutability": "nonpayable",
      "type": "function"
    },
    {
      "inputs": [],
      "name": "adminData",
      "outputs": [
        {
          "internalType": "contract IAdminData",
          "name": "",
          "type": "address"
        }
      ],
      "stateMutability": "view",
      "type": "function"
    },
    {
      "inputs": [],
      "name": "availableSize",
      "outputs": [
        {
          "internalType": "uint256",
          "name": "",
          "type": "uint256"
        }
      ],
      "stateMutability": "view",
      "type": "function"
    },
    {
      "inputs": [],
      "name": "buffToken",
      "outputs": [
        {
          "internalType": "contract IQuizToken",
          "name": "",
          "type": "address"
        }
      ],
      "stateMutability": "view",
      "type": "function"
    },
    {
      "inputs": [],
      "name": "buffValue",
      "outputs": [
        {
          "internalType": "uint256",
          "name": "",
          "type": "uint256"
        }
      ],
      "stateMutability": "view",
      "type": "function"
    },
    {
      "inputs": [
        {
          "internalType": "uint256",
          "name": "_gameId",
          "type": "uint256"
        },
        {
          "internalType": "uint256",
          "name": "_round",
          "type": "uint256"
        },
        {
          "internalType": "uint256",
          "name": "_buffId",
          "type": "uint256"
        }
      ],
      "name": "buyBuff",
      "outputs": [],
      "stateMutability": "nonpayable",
      "type": "function"
    },
    {
      "inputs": [
        {
          "internalType": "uint256",
          "name": "_gameId",
          "type": "uint256"
        },
        {
          "internalType": "uint256",
          "name": "_round",
          "type": "uint256"
        }
      ],
      "name": "buyTicket",
      "outputs": [],
      "stateMutability": "payable",
      "type": "function"
    },
    {
      "inputs": [
        {
          "internalType": "contract IAdminData",
          "name": "_newData",
          "type": "address"
        }
      ],
      "name": "changeAdminData",
      "outputs": [],
      "stateMutability": "nonpayable",
      "type": "function"
    },
    {
      "inputs": [
        {
          "internalType": "contract IQuizToken",
          "name": "_newToken",
          "type": "address"
        }
      ],
      "name": "changeBuffToken",
      "outputs": [],
      "stateMutability": "nonpayable",
      "type": "function"
    },
    {
      "inputs": [
        {
          "internalType": "uint256",
          "name": "_newValue",
          "type": "uint256"
        }
      ],
      "name": "changeBuffValue",
      "outputs": [],
      "stateMutability": "nonpayable",
      "type": "function"
    },
    {
      "inputs": [
        {
          "internalType": "contract IGameData",
          "name": "_newData",
          "type": "address"
        }
      ],
      "name": "changeGameData",
      "outputs": [],
      "stateMutability": "nonpayable",
      "type": "function"
    },
    {
      "inputs": [
        {
          "internalType": "contract IGameLogic",
          "name": "_newLogic",
          "type": "address"
        }
      ],
      "name": "changeGameLogic",
      "outputs": [],
      "stateMutability": "nonpayable",
      "type": "function"
    },
    {
      "inputs": [
        {
          "internalType": "address payable",
          "name": "_newOperator",
          "type": "address"
        }
      ],
      "name": "changeOperator",
      "outputs": [],
      "stateMutability": "nonpayable",
      "type": "function"
    },
    {
      "inputs": [
        {
          "components": [
            {
              "internalType": "uint256",
              "name": "id",
              "type": "uint256"
            },
            {
              "internalType": "uint256",
              "name": "category",
              "type": "uint256"
            },
            {
              "internalType": "string",
              "name": "appId",
              "type": "string"
            },
            {
              "internalType": "int256[]",
              "name": "groupIds",
              "type": "int256[]"
            },
            {
              "internalType": "uint256",
              "name": "botType",
              "type": "uint256"
            },
            {
              "internalType": "string",
              "name": "title",
              "type": "string"
            },
            {
              "internalType": "string",
              "name": "introduction",
              "type": "string"
            },
            {
              "internalType": "string",
              "name": "story",
              "type": "string"
            },
            {
              "internalType": "uint256",
              "name": "eliminateProportion",
              "type": "uint256"
            },
            {
              "internalType": "uint256",
              "name": "awardProportion",
              "type": "uint256"
            },
            {
              "internalType": "uint256",
              "name": "creatorProportion",
              "type": "uint256"
            },
            {
              "internalType": "uint256",
              "name": "sponsorProportion",
              "type": "uint256"
            },
            {
              "internalType": "uint256",
              "name": "winnerNum",
              "type": "uint256"
            },
            {
              "internalType": "uint256[]",
              "name": "buffIds",
              "type": "uint256[]"
            },
            {
              "internalType": "string",
              "name": "buffDesc",
              "type": "string"
            },
            {
              "internalType": "string[]",
              "name": "events",
              "type": "string[]"
            },
            {
              "internalType": "bool",
              "name": "ticketIsEth",
              "type": "bool"
            },
            {
              "internalType": "contract IERC20",
              "name": "ticketsToken",
              "type": "address"
            },
            {
              "internalType": "uint256",
              "name": "ticketAmount",
              "type": "uint256"
            },
            {
              "internalType": "uint256",
              "name": "effectStartTime",
              "type": "uint256"
            },
            {
              "internalType": "uint256",
              "name": "effectEndTime",
              "type": "uint256"
            },
            {
              "internalType": "bool",
              "name": "daily",
              "type": "bool"
            },
            {
              "internalType": "uint256",
              "name": "startH",
              "type": "uint256"
            },
            {
              "internalType": "uint256",
              "name": "startM",
              "type": "uint256"
            },
            {
              "internalType": "bool",
              "name": "exist",
              "type": "bool"
            },
            {
              "internalType": "address",
              "name": "creator",
              "type": "address"
            },
            {
              "internalType": "uint256",
              "name": "blockNum",
              "type": "uint256"
            },
            {
              "internalType": "uint256",
              "name": "blockTimestamp",
              "type": "uint256"
            }
          ],
          "internalType": "struct IGameData.GameDetail",
          "name": "_game",
          "type": "tuple"
        }
      ],
      "name": "createGame",
      "outputs": [],
      "stateMutability": "nonpayable",
      "type": "function"
    },
    {
      "inputs": [
        {
          "internalType": "string",
          "name": "_appId",
          "type": "string"
        }
      ],
      "name": "delAppOperator",
      "outputs": [],
      "stateMutability": "nonpayable",
      "type": "function"
    },
    {
      "inputs": [
        {
          "internalType": "contract IERC20",
          "name": "",
          "type": "address"
        }
      ],
      "name": "erc20Exist",
      "outputs": [
        {
          "internalType": "bool",
          "name": "",
          "type": "bool"
        }
      ],
      "stateMutability": "view",
      "type": "function"
    },
    {
      "inputs": [
        {
          "internalType": "uint256",
          "name": "",
          "type": "uint256"
        }
      ],
      "name": "erc20List",
      "outputs": [
        {
          "internalType": "contract IERC20",
          "name": "",
          "type": "address"
        }
      ],
      "stateMutability": "view",
      "type": "function"
    },
    {
      "inputs": [],
      "name": "gameData",
      "outputs": [
        {
          "internalType": "contract IGameData",
          "name": "",
          "type": "address"
        }
      ],
      "stateMutability": "view",
      "type": "function"
    },
    {
      "inputs": [],
      "name": "gameLogic",
      "outputs": [
        {
          "internalType": "contract IGameLogic",
          "name": "",
          "type": "address"
        }
      ],
      "stateMutability": "view",
      "type": "function"
    },
    {
      "inputs": [
        {
          "internalType": "string",
          "name": "_appId",
          "type": "string"
        },
        {
          "internalType": "uint256",
          "name": "_gameId",
          "type": "uint256"
        },
        {
          "internalType": "uint256",
          "name": "_round",
          "type": "uint256"
        }
      ],
      "name": "gameRoundOver",
      "outputs": [],
      "stateMutability": "nonpayable",
      "type": "function"
    },
    {
      "inputs": [
        {
          "internalType": "string",
          "name": "_appId",
          "type": "string"
        }
      ],
      "name": "isOperator",
      "outputs": [
        {
          "internalType": "bool",
          "name": "",
          "type": "bool"
        }
      ],
      "stateMutability": "view",
      "type": "function"
    },
    {
      "inputs": [],
      "name": "operator",
      "outputs": [
        {
          "internalType": "address payable",
          "name": "",
          "type": "address"
        }
      ],
      "stateMutability": "view",
      "type": "function"
    },
    {
      "inputs": [],
      "name": "owner",
      "outputs": [
        {
          "internalType": "address",
          "name": "",
          "type": "address"
        }
      ],
      "stateMutability": "view",
      "type": "function"
    },
    {
      "inputs": [
        {
          "internalType": "uint256",
          "name": "_newSize",
          "type": "uint256"
        }
      ],
      "name": "setAvailableSize",
      "outputs": [],
      "stateMutability": "nonpayable",
      "type": "function"
    },
    {
      "inputs": [
        {
          "internalType": "string",
          "name": "_appId",
          "type": "string"
        },
        {
          "internalType": "uint256",
          "name": "_gameId",
          "type": "uint256"
        },
        {
          "internalType": "uint256",
          "name": "_launchTime",
          "type": "uint256"
        }
      ],
      "name": "startGame",
      "outputs": [],
      "stateMutability": "payable",
      "type": "function"
    },
    {
      "inputs": [
        {
          "internalType": "address payable",
          "name": "_to",
          "type": "address"
        }
      ],
      "name": "transferAsset",
      "outputs": [],
      "stateMutability": "nonpayable",
      "type": "function"
    },
    {
      "inputs": [
        {
          "internalType": "address",
          "name": "_newOwner",
          "type": "address"
        }
      ],
      "name": "transferOwner",
      "outputs": [],
      "stateMutability": "nonpayable",
      "type": "function"
    }
  ],
  "bytecode": "0x60806040526014600b553480156200001657600080fd5b506040516200613c3803806200613c83398181016040528101906200003c9190620003a1565b336000806101000a81548173ffffffffffffffffffffffffffffffffffffffff021916908373ffffffffffffffffffffffffffffffffffffffff16021790555085600160006101000a81548173ffffffffffffffffffffffffffffffffffffffff021916908373ffffffffffffffffffffffffffffffffffffffff16021790555084600360006101000a81548173ffffffffffffffffffffffffffffffffffffffff021916908373ffffffffffffffffffffffffffffffffffffffff16021790555083600460006101000a81548173ffffffffffffffffffffffffffffffffffffffff021916908373ffffffffffffffffffffffffffffffffffffffff16021790555082600560006101000a81548173ffffffffffffffffffffffffffffffffffffffff021916908373ffffffffffffffffffffffffffffffffffffffff16021790555081600660006101000a81548173ffffffffffffffffffffffffffffffffffffffff021916908373ffffffffffffffffffffffffffffffffffffffff160217905550806007819055505050505050506200043d565b600080fd5b600073ffffffffffffffffffffffffffffffffffffffff82169050919050565b60006200020682620001d9565b9050919050565b6200021881620001f9565b81146200022457600080fd5b50565b60008151905062000238816200020d565b92915050565b60006200024b82620001d9565b9050919050565b60006200025f826200023e565b9050919050565b620002718162000252565b81146200027d57600080fd5b50565b600081519050620002918162000266565b92915050565b6000620002a4826200023e565b9050919050565b620002b68162000297565b8114620002c257600080fd5b50565b600081519050620002d681620002ab565b92915050565b6000620002e9826200023e565b9050919050565b620002fb81620002dc565b81146200030757600080fd5b50565b6000815190506200031b81620002f0565b92915050565b60006200032e826200023e565b9050919050565b620003408162000321565b81146200034c57600080fd5b50565b600081519050620003608162000335565b92915050565b6000819050919050565b6200037b8162000366565b81146200038757600080fd5b50565b6000815190506200039b8162000370565b92915050565b60008060008060008060c08789031215620003c157620003c0620001d4565b5b6000620003d189828a0162000227565b9650506020620003e489828a0162000280565b9550506040620003f789828a01620002c5565b94505060606200040a89828a016200030a565b93505060806200041d89828a016200034f565b92505060a06200043089828a016200038a565b9150509295509295509295565b615cef806200044d6000396000f3fe6080604052600436106101ac5760003560e01c80637d878731116100ec578063bb3f09111161008a578063e606c9b811610064578063e606c9b81461057c578063e86098f5146105a5578063f94fa16f146105e2578063fa24f7431461060b576101ac565b8063bb3f091114610501578063c7d7b6601461052a578063ce6e98f214610553576101ac565b80638da5cb5b116100c65780638da5cb5b14610468578063b05c3f6714610493578063b2888e49146104bc578063b7579b50146104d8576101ac565b80637d878731146103d55780637e3dfe5c14610400578063806908631461043d576101ac565b80632483eee5116101595780634fb2e45d116101335780634fb2e45d1461032d578063570ca735146103565780635a2a7923146103815780637742b301146103ac576101ac565b80632483eee5146102bf57806327a343b3146102e8578063298ec20814610311576101ac565b80630dc6da8d1161018a5780630dc6da8d1461022e578063134087a2146102575780631f041bd114610282576101ac565b806306394c9b146101b157806306d2ae8e146101da5780630bd0997914610205575b600080fd5b3480156101bd57600080fd5b506101d860048036038101906101d39190613050565b610636565b005b3480156101e657600080fd5b506101ef610708565b6040516101fc91906130dc565b60405180910390f35b34801561021157600080fd5b5061022c6004803603810190610227919061323d565b61072e565b005b34801561023a57600080fd5b5061025560048036038101906102509190613991565b61081d565b005b34801561026357600080fd5b5061026c610b79565b60405161027991906139fb565b60405180910390f35b34801561028e57600080fd5b506102a960048036038101906102a49190613a16565b610b9f565b6040516102b69190613a6e565b60405180910390f35b3480156102cb57600080fd5b506102e660048036038101906102e19190613a89565b610c6d565b005b3480156102f457600080fd5b5061030f600480360381019061030a9190613a89565b610d05565b005b61032b60048036038101906103269190613ab6565b610d9d565b005b34801561033957600080fd5b50610354600480360381019061034f9190613af6565b611140565b005b34801561036257600080fd5b5061036b611211565b6040516103789190613b32565b60405180910390f35b34801561038d57600080fd5b50610396611237565b6040516103a39190613b6e565b60405180910390f35b3480156103b857600080fd5b506103d360048036038101906103ce9190613b89565b61125d565b005b3480156103e157600080fd5b506103ea6115d5565b6040516103f79190613c07565b60405180910390f35b34801561040c57600080fd5b5061042760048036038101906104229190613c22565b6115db565b6040516104349190613a6e565b60405180910390f35b34801561044957600080fd5b506104526115fb565b60405161045f9190613c07565b60405180910390f35b34801561047457600080fd5b5061047d611601565b60405161048a9190613c5e565b60405180910390f35b34801561049f57600080fd5b506104ba60048036038101906104b59190613c79565b611625565b005b6104d660048036038101906104d19190613b89565b6118d9565b005b3480156104e457600080fd5b506104ff60048036038101906104fa9190613d0a565b611c50565b005b34801561050d57600080fd5b5061052860048036038101906105239190613a16565b611d22565b005b34801561053657600080fd5b50610551600480360381019061054c9190613050565b611e11565b005b34801561055f57600080fd5b5061057a60048036038101906105759190613d75565b6120b9565b005b34801561058857600080fd5b506105a3600480360381019061059e9190613de0565b61218b565b005b3480156105b157600080fd5b506105cc60048036038101906105c79190613a89565b61225d565b6040516105d99190613e2e565b60405180910390f35b3480156105ee57600080fd5b5061060960048036038101906106049190613e87565b61229c565b005b34801561061757600080fd5b5061062061236e565b60405161062d9190613ed5565b60405180910390f35b60008054906101000a900473ffffffffffffffffffffffffffffffffffffffff1673ffffffffffffffffffffffffffffffffffffffff163373ffffffffffffffffffffffffffffffffffffffff16146106c4576040517f08c379a00000000000000000000000000000000000000000000000000000000081526004016106bb90613f4d565b60405180910390fd5b80600160006101000a81548173ffffffffffffffffffffffffffffffffffffffff021916908373ffffffffffffffffffffffffffffffffffffffff16021790555050565b600360009054906101000a900473ffffffffffffffffffffffffffffffffffffffff1681565b60008054906101000a900473ffffffffffffffffffffffffffffffffffffffff1673ffffffffffffffffffffffffffffffffffffffff163373ffffffffffffffffffffffffffffffffffffffff16146107bc576040517f08c379a00000000000000000000000000000000000000000000000000000000081526004016107b390613f4d565b60405180910390fd5b806002836040516107cd9190613fe7565b908152602001604051809103902060006101000a81548173ffffffffffffffffffffffffffffffffffffffff021916908373ffffffffffffffffffffffffffffffffffffffff1602179055505050565b8060400151600360009054906101000a900473ffffffffffffffffffffffffffffffffffffffff1673ffffffffffffffffffffffffffffffffffffffff1663b796e2b082336040518363ffffffff1660e01b815260040161087f929190614037565b60206040518083038186803b15801561089757600080fd5b505afa1580156108ab573d6000803e3d6000fd5b505050506040513d601f19601f820116820180604052508101906108cf919061407c565b806108df57506108de81610b9f565b5b61091e576040517f08c379a0000000000000000000000000000000000000000000000000000000008152600401610915906140f5565b60405180910390fd5b606461095483610160015161094685610140015186610120015161239490919063ffffffff16565b61239490919063ffffffff16565b1115610995576040517f08c379a000000000000000000000000000000000000000000000000000000000815260040161098c90614161565b60405180910390fd5b6000600460009054906101000a900473ffffffffffffffffffffffffffffffffffffffff1673ffffffffffffffffffffffffffffffffffffffff1663a2f77bcc84600001516040518263ffffffff1660e01b81526004016109f69190613c07565b60006040518083038186803b158015610a0e57600080fd5b505afa158015610a22573d6000803e3d6000fd5b505050506040513d6000823e3d601f19601f82011682018060405250810190610a4b919061478a565b905080610300015115610a93576040517f08c379a0000000000000000000000000000000000000000000000000000000008152600401610a8a9061481f565b60405180910390fd5b8290506001816103000190151590811515815250503381610320019073ffffffffffffffffffffffffffffffffffffffff16908173ffffffffffffffffffffffffffffffffffffffff1681525050600460009054906101000a900473ffffffffffffffffffffffffffffffffffffffff1673ffffffffffffffffffffffffffffffffffffffff16639013e7818460400151836040518363ffffffff1660e01b8152600401610b42929190614d79565b600060405180830381600087803b158015610b5c57600080fd5b505af1158015610b70573d6000803e3d6000fd5b50505050505050565b600560009054906101000a900473ffffffffffffffffffffffffffffffffffffffff1681565b60003373ffffffffffffffffffffffffffffffffffffffff16600160009054906101000a900473ffffffffffffffffffffffffffffffffffffffff1673ffffffffffffffffffffffffffffffffffffffff161480610c6657503373ffffffffffffffffffffffffffffffffffffffff16600283604051610c1f9190613fe7565b908152602001604051809103902060009054906101000a900473ffffffffffffffffffffffffffffffffffffffff1673ffffffffffffffffffffffffffffffffffffffff16145b9050919050565b60008054906101000a900473ffffffffffffffffffffffffffffffffffffffff1673ffffffffffffffffffffffffffffffffffffffff163373ffffffffffffffffffffffffffffffffffffffff1614610cfb576040517f08c379a0000000000000000000000000000000000000000000000000000000008152600401610cf290613f4d565b60405180910390fd5b8060078190555050565b60008054906101000a900473ffffffffffffffffffffffffffffffffffffffff1673ffffffffffffffffffffffffffffffffffffffff163373ffffffffffffffffffffffffffffffffffffffff1614610d93576040517f08c379a0000000000000000000000000000000000000000000000000000000008152600401610d8a90613f4d565b60405180910390fd5b80600b8190555050565b610da782826123f2565b610db182826124ec565b6000600460009054906101000a900473ffffffffffffffffffffffffffffffffffffffff1673ffffffffffffffffffffffffffffffffffffffff1663a2f77bcc846040518263ffffffff1660e01b8152600401610e0e9190613c07565b60006040518083038186803b158015610e2657600080fd5b505afa158015610e3a573d6000803e3d6000fd5b505050506040513d6000823e3d601f19601f82011682018060405250810190610e63919061478a565b90506000610e728484336125e7565b5090508015610eb6576040517f08c379a0000000000000000000000000000000000000000000000000000000008152600401610ead90614dfc565b60405180910390fd5b60008261024001511115610fb85781610200015115610f1c57816102400151341015610f17576040517f08c379a0000000000000000000000000000000000000000000000000000000008152600401610f0e90614e68565b60405180910390fd5b610fb7565b81610220015173ffffffffffffffffffffffffffffffffffffffff166323b872dd33308561024001516040518463ffffffff1660e01b8152600401610f6393929190614e88565b602060405180830381600087803b158015610f7d57600080fd5b505af1158015610f91573d6000803e3d6000fd5b505050506040513d601f19601f82011682018060405250810190610fb5919061407c565b505b5b600460009054906101000a900473ffffffffffffffffffffffffffffffffffffffff1673ffffffffffffffffffffffffffffffffffffffff1663ffe41ad38585336040518463ffffffff1660e01b815260040161101793929190614ebf565b600060405180830381600087803b15801561103157600080fd5b505af1158015611045573d6000803e3d6000fd5b50505050600560009054906101000a900473ffffffffffffffffffffffffffffffffffffffff1673ffffffffffffffffffffffffffffffffffffffff1663a71a0c078585600a60008981526020019081526020016000206000888152602001908152602001600020546040518463ffffffff1660e01b81526004016110cc93929190614f05565b600060405180830381600087803b1580156110e657600080fd5b505af11580156110fa573d6000803e3d6000fd5b505050506001600a6000868152602001908152602001600020600085815260200190815260200160002060008282546111339190614f6b565b9250508190555050505050565b60008054906101000a900473ffffffffffffffffffffffffffffffffffffffff1673ffffffffffffffffffffffffffffffffffffffff163373ffffffffffffffffffffffffffffffffffffffff16146111ce576040517f08c379a00000000000000000000000000000000000000000000000000000000081526004016111c590613f4d565b60405180910390fd5b806000806101000a81548173ffffffffffffffffffffffffffffffffffffffff021916908373ffffffffffffffffffffffffffffffffffffffff16021790555050565b600160009054906101000a900473ffffffffffffffffffffffffffffffffffffffff1681565b600660009054906101000a900473ffffffffffffffffffffffffffffffffffffffff1681565b61126683610b9f565b6112a5576040517f08c379a000000000000000000000000000000000000000000000000000000000815260040161129c9061500d565b60405180910390fd5b6112af82826123f2565b6112b982826124ec565b6000600460009054906101000a900473ffffffffffffffffffffffffffffffffffffffff1673ffffffffffffffffffffffffffffffffffffffff16630d2dce2284846040518363ffffffff1660e01b815260040161131892919061502d565b60006040518083038186803b15801561133057600080fd5b505afa158015611344573d6000803e3d6000fd5b505050506040513d6000823e3d601f19601f8201168201806040525081019061136d9190615119565b90506000600460009054906101000a900473ffffffffffffffffffffffffffffffffffffffff1673ffffffffffffffffffffffffffffffffffffffff166370c1b1d785856040518363ffffffff1660e01b81526004016113ce92919061502d565b60006040518083038186803b1580156113e657600080fd5b505afa1580156113fa573d6000803e3d6000fd5b505050506040513d6000823e3d601f19601f8201168201806040525081019061142391906152de565b9050600080600080600560009054906101000a900473ffffffffffffffffffffffffffffffffffffffff1673ffffffffffffffffffffffffffffffffffffffff1663532af7d289896040518363ffffffff1660e01b815260040161148892919061502d565b600060405180830381600087803b1580156114a257600080fd5b505af11580156114b6573d6000803e3d6000fd5b505050506040513d6000823e3d601f19601f820116820180604052508101906114df9190615327565b93509350935093508085604001819052508551856060018181525050838560c00181905250828560e0018190525081856101000181905250600185610120019015159081151581525050600460009054906101000a900473ffffffffffffffffffffffffffffffffffffffff1673ffffffffffffffffffffffffffffffffffffffff1663f1ae94948989886040518463ffffffff1660e01b8152600401611588939291906155b1565b600060405180830381600087803b1580156115a257600080fd5b505af11580156115b6573d6000803e3d6000fd5b505050506115ca888660800151838a612723565b505050505050505050565b600b5481565b60096020528060005260406000206000915054906101000a900460ff1681565b60075481565b60008054906101000a900473ffffffffffffffffffffffffffffffffffffffff1681565b61162f83836124ec565b61163983836123f2565b6116438382612ab3565b611682576040517f08c379a00000000000000000000000000000000000000000000000000000000081526004016116799061563b565b60405180910390fd5b6000806116908585336125e7565b91509150816116d4576040517f08c379a00000000000000000000000000000000000000000000000000000000081526004016116cb906156a7565b60405180910390fd5b6116df858583612bc4565b1561171f576040517f08c379a000000000000000000000000000000000000000000000000000000000815260040161171690615713565b60405180910390fd5b600660009054906101000a900473ffffffffffffffffffffffffffffffffffffffff1673ffffffffffffffffffffffffffffffffffffffff16639dc29fac336007546040518363ffffffff1660e01b815260040161177e929190615733565b600060405180830381600087803b15801561179857600080fd5b505af11580156117ac573d6000803e3d6000fd5b50505050600460009054906101000a900473ffffffffffffffffffffffffffffffffffffffff1673ffffffffffffffffffffffffffffffffffffffff166342f2a5e38686846040518463ffffffff1660e01b815260040161180f9392919061575c565b600060405180830381600087803b15801561182957600080fd5b505af115801561183d573d6000803e3d6000fd5b50505050600560009054906101000a900473ffffffffffffffffffffffffffffffffffffffff1673ffffffffffffffffffffffffffffffffffffffff1663d8602ed18686846040518463ffffffff1660e01b81526004016118a09392919061575c565b600060405180830381600087803b1580156118ba57600080fd5b505af11580156118ce573d6000803e3d6000fd5b505050505050505050565b6118e282612ccf565b60003411611925576040517f08c379a000000000000000000000000000000000000000000000000000000000815260040161191c906157df565b60405180910390fd5b6000600460009054906101000a900473ffffffffffffffffffffffffffffffffffffffff1673ffffffffffffffffffffffffffffffffffffffff1663dc3dd69e846040518263ffffffff1660e01b81526004016119829190613c07565b60206040518083038186803b15801561199a57600080fd5b505afa1580156119ae573d6000803e3d6000fd5b505050506040513d601f19601f820116820180604052508101906119d291906157ff565b905060008112611ad357600460009054906101000a900473ffffffffffffffffffffffffffffffffffffffff1673ffffffffffffffffffffffffffffffffffffffff166370c1b1d784836040518363ffffffff1660e01b8152600401611a3992919061502d565b60006040518083038186803b158015611a5157600080fd5b505afa158015611a65573d6000803e3d6000fd5b505050506040513d6000823e3d601f19601f82011682018060405250810190611a8e91906152de565b6101200151611ad2576040517f08c379a0000000000000000000000000000000000000000000000000000000008152600401611ac990615878565b60405180910390fd5b5b6000600285604051611ae59190613fe7565b908152602001604051809103902060009054906101000a900473ffffffffffffffffffffffffffffffffffffffff169050600073ffffffffffffffffffffffffffffffffffffffff168173ffffffffffffffffffffffffffffffffffffffff161415611b7157600160009054906101000a900473ffffffffffffffffffffffffffffffffffffffff1690505b8073ffffffffffffffffffffffffffffffffffffffff166108fc349081150290604051600060405180830381858888f19350505050158015611bb7573d6000803e3d6000fd5b50600460009054906101000a900473ffffffffffffffffffffffffffffffffffffffff1673ffffffffffffffffffffffffffffffffffffffff166357e40a648533866040518463ffffffff1660e01b8152600401611c1793929190615898565b600060405180830381600087803b158015611c3157600080fd5b505af1158015611c45573d6000803e3d6000fd5b505050505050505050565b60008054906101000a900473ffffffffffffffffffffffffffffffffffffffff1673ffffffffffffffffffffffffffffffffffffffff163373ffffffffffffffffffffffffffffffffffffffff1614611cde576040517f08c379a0000000000000000000000000000000000000000000000000000000008152600401611cd590613f4d565b60405180910390fd5b80600660006101000a81548173ffffffffffffffffffffffffffffffffffffffff021916908373ffffffffffffffffffffffffffffffffffffffff16021790555050565b60008054906101000a900473ffffffffffffffffffffffffffffffffffffffff1673ffffffffffffffffffffffffffffffffffffffff163373ffffffffffffffffffffffffffffffffffffffff1614611db0576040517f08c379a0000000000000000000000000000000000000000000000000000000008152600401611da790613f4d565b60405180910390fd5b6000600282604051611dc29190613fe7565b908152602001604051809103902060006101000a81548173ffffffffffffffffffffffffffffffffffffffff021916908373ffffffffffffffffffffffffffffffffffffffff16021790555050565b60008054906101000a900473ffffffffffffffffffffffffffffffffffffffff1673ffffffffffffffffffffffffffffffffffffffff163373ffffffffffffffffffffffffffffffffffffffff1614611e9f576040517f08c379a0000000000000000000000000000000000000000000000000000000008152600401611e9690613f4d565b60405180910390fd5b6000471115611ef0578073ffffffffffffffffffffffffffffffffffffffff166108fc479081150290604051600060405180830381858888f19350505050158015611eee573d6000803e3d6000fd5b505b60005b6008805490508110156120b557600060088281548110611f1657611f156158cf565b5b9060005260206000200160009054906101000a900473ffffffffffffffffffffffffffffffffffffffff1673ffffffffffffffffffffffffffffffffffffffff166370a08231306040518263ffffffff1660e01b8152600401611f799190613c5e565b60206040518083038186803b158015611f9157600080fd5b505afa158015611fa5573d6000803e3d6000fd5b505050506040513d601f19601f82011682018060405250810190611fc991906158fe565b905060008111156120a15760088281548110611fe857611fe76158cf565b5b9060005260206000200160009054906101000a900473ffffffffffffffffffffffffffffffffffffffff1673ffffffffffffffffffffffffffffffffffffffff1663a9059cbb84836040518363ffffffff1660e01b815260040161204d92919061594c565b602060405180830381600087803b15801561206757600080fd5b505af115801561207b573d6000803e3d6000fd5b505050506040513d601f19601f8201168201806040525081019061209f919061407c565b505b5080806120ad90615975565b915050611ef3565b5050565b60008054906101000a900473ffffffffffffffffffffffffffffffffffffffff1673ffffffffffffffffffffffffffffffffffffffff163373ffffffffffffffffffffffffffffffffffffffff1614612147576040517f08c379a000000000000000000000000000000000000000000000000000000000815260040161213e90613f4d565b60405180910390fd5b80600360006101000a81548173ffffffffffffffffffffffffffffffffffffffff021916908373ffffffffffffffffffffffffffffffffffffffff16021790555050565b60008054906101000a900473ffffffffffffffffffffffffffffffffffffffff1673ffffffffffffffffffffffffffffffffffffffff163373ffffffffffffffffffffffffffffffffffffffff1614612219576040517f08c379a000000000000000000000000000000000000000000000000000000000815260040161221090613f4d565b60405180910390fd5b80600460006101000a81548173ffffffffffffffffffffffffffffffffffffffff021916908373ffffffffffffffffffffffffffffffffffffffff16021790555050565b6008818154811061226d57600080fd5b906000526020600020016000915054906101000a900473ffffffffffffffffffffffffffffffffffffffff1681565b60008054906101000a900473ffffffffffffffffffffffffffffffffffffffff1673ffffffffffffffffffffffffffffffffffffffff163373ffffffffffffffffffffffffffffffffffffffff161461232a576040517f08c379a000000000000000000000000000000000000000000000000000000000815260040161232190613f4d565b60405180910390fd5b80600560006101000a81548173ffffffffffffffffffffffffffffffffffffffff021916908373ffffffffffffffffffffffffffffffffffffffff16021790555050565b600460009054906101000a900473ffffffffffffffffffffffffffffffffffffffff1681565b60008082846123a39190614f6b565b9050838110156123e8576040517f08c379a00000000000000000000000000000000000000000000000000000000081526004016123df90615a0a565b60405180910390fd5b8091505092915050565b600460009054906101000a900473ffffffffffffffffffffffffffffffffffffffff1673ffffffffffffffffffffffffffffffffffffffff166370c1b1d783836040518363ffffffff1660e01b815260040161244f92919061502d565b60006040518083038186803b15801561246757600080fd5b505afa15801561247b573d6000803e3d6000fd5b505050506040513d6000823e3d601f19601f820116820180604052508101906124a491906152de565b61014001516124e8576040517f08c379a00000000000000000000000000000000000000000000000000000000081526004016124df90615a76565b60405180910390fd5b5050565b600460009054906101000a900473ffffffffffffffffffffffffffffffffffffffff1673ffffffffffffffffffffffffffffffffffffffff166370c1b1d783836040518363ffffffff1660e01b815260040161254992919061502d565b60006040518083038186803b15801561256157600080fd5b505afa158015612575573d6000803e3d6000fd5b505050506040513d6000823e3d601f19601f8201168201806040525081019061259e91906152de565b6101200151156125e3576040517f08c379a00000000000000000000000000000000000000000000000000000000081526004016125da906156a7565b60405180910390fd5b5050565b6000806000600460009054906101000a900473ffffffffffffffffffffffffffffffffffffffff1673ffffffffffffffffffffffffffffffffffffffff16630d2dce2287876040518363ffffffff1660e01b815260040161264992919061502d565b60006040518083038186803b15801561266157600080fd5b505afa158015612675573d6000803e3d6000fd5b505050506040513d6000823e3d601f19601f8201168201806040525081019061269e9190615119565b905060005b8151811015612719578473ffffffffffffffffffffffffffffffffffffffff168282815181106126d6576126d56158cf565b5b602002602001015173ffffffffffffffffffffffffffffffffffffffff1614156127065760019350809250612719565b808061271190615975565b9150506126a3565b5050935093915050565b60008251141561273257612aad565b6000600460009054906101000a900473ffffffffffffffffffffffffffffffffffffffff1673ffffffffffffffffffffffffffffffffffffffff1663a2f77bcc866040518263ffffffff1660e01b815260040161278f9190613c07565b60006040518083038186803b1580156127a757600080fd5b505afa1580156127bb573d6000803e3d6000fd5b505050506040513d6000823e3d601f19601f820116820180604052508101906127e4919061478a565b90506000600460009054906101000a900473ffffffffffffffffffffffffffffffffffffffff1673ffffffffffffffffffffffffffffffffffffffff1663751938af87856040518363ffffffff1660e01b815260040161284592919061502d565b60206040518083038186803b15801561285d57600080fd5b505afa158015612871573d6000803e3d6000fd5b505050506040513d601f19601f8201168201806040525081019061289591906158fe565b905060008114156128a7575050612aad565b60006128d460646128c685610120015185612dc690919063ffffffff16565b612e4190919063ffffffff16565b9050600061290360646128f586610140015186612dc690919063ffffffff16565b612e4190919063ffffffff16565b90506000612932606461292487610160015187612dc690919063ffffffff16565b612e4190919063ffffffff16565b9050600061294a885185612e4190919063ffffffff16565b905060005b8851811015612a8a57866102000151156129c957888181518110612976576129756158cf565b5b602002602001015173ffffffffffffffffffffffffffffffffffffffff166108fc839081150290604051600060405180830381858888f193505050501580156129c3573d6000803e3d6000fd5b50612a77565b86610220015173ffffffffffffffffffffffffffffffffffffffff1663a9059cbb8a83815181106129fd576129fc6158cf565b5b6020026020010151846040518363ffffffff1660e01b8152600401612a23929190615733565b602060405180830381600087803b158015612a3d57600080fd5b505af1158015612a51573d6000803e3d6000fd5b505050506040513d601f19601f82011682018060405250810190612a75919061407c565b505b8080612a8290615975565b91505061294f565b50612a9b8687610320015185612e8b565b612aa6868a84612e8b565b5050505050505b50505050565b600080600460009054906101000a900473ffffffffffffffffffffffffffffffffffffffff1673ffffffffffffffffffffffffffffffffffffffff1663a2f77bcc856040518263ffffffff1660e01b8152600401612b119190613c07565b60006040518083038186803b158015612b2957600080fd5b505afa158015612b3d573d6000803e3d6000fd5b505050506040513d6000823e3d601f19601f82011682018060405250810190612b66919061478a565b6101a0015190506000805b8251811015612bb85784838281518110612b8e57612b8d6158cf565b5b60200260200101511415612ba55760019150612bb8565b8080612bb090615975565b915050612b71565b50809250505092915050565b600080600460009054906101000a900473ffffffffffffffffffffffffffffffffffffffff1673ffffffffffffffffffffffffffffffffffffffff16636a3f5dc586866040518363ffffffff1660e01b8152600401612c2492919061502d565b60006040518083038186803b158015612c3c57600080fd5b505afa158015612c50573d6000803e3d6000fd5b505050506040513d6000823e3d601f19601f82011682018060405250810190612c799190615a96565b90506000805b8251811015612cc25784838281518110612c9c57612c9b6158cf565b5b60200260200101511415612caf57600191505b8080612cba90615975565b915050612c7f565b5080925050509392505050565b600460009054906101000a900473ffffffffffffffffffffffffffffffffffffffff1673ffffffffffffffffffffffffffffffffffffffff1663a2f77bcc826040518263ffffffff1660e01b8152600401612d2a9190613c07565b60006040518083038186803b158015612d4257600080fd5b505afa158015612d56573d6000803e3d6000fd5b505050506040513d6000823e3d601f19601f82011682018060405250810190612d7f919061478a565b6103000151612dc3576040517f08c379a0000000000000000000000000000000000000000000000000000000008152600401612dba90615b2b565b60405180910390fd5b50565b600080831415612dd95760009050612e3b565b60008284612de79190615b4b565b9050828482612df69190615bd4565b14612e36576040517f08c379a0000000000000000000000000000000000000000000000000000000008152600401612e2d90615c77565b60405180910390fd5b809150505b92915050565b6000612e8383836040518060400160405280601a81526020017f536166654d6174683a206469766973696f6e206279207a65726f000000000000815250612f7b565b905092915050565b82610200015115612ee2578173ffffffffffffffffffffffffffffffffffffffff166108fc829081150290604051600060405180830381858888f19350505050158015612edc573d6000803e3d6000fd5b50612f76565b82610220015173ffffffffffffffffffffffffffffffffffffffff1663a9059cbb83836040518363ffffffff1660e01b8152600401612f22929190615733565b602060405180830381600087803b158015612f3c57600080fd5b505af1158015612f50573d6000803e3d6000fd5b505050506040513d601f19601f82011682018060405250810190612f74919061407c565b505b505050565b60008083118290612fc2576040517f08c379a0000000000000000000000000000000000000000000000000000000008152600401612fb99190615c97565b60405180910390fd5b5060008385612fd19190615bd4565b9050809150509392505050565b6000604051905090565b600080fd5b600080fd5b600073ffffffffffffffffffffffffffffffffffffffff82169050919050565b600061301d82612ff2565b9050919050565b61302d81613012565b811461303857600080fd5b50565b60008135905061304a81613024565b92915050565b60006020828403121561306657613065612fe8565b5b60006130748482850161303b565b91505092915050565b6000819050919050565b60006130a261309d61309884612ff2565b61307d565b612ff2565b9050919050565b60006130b482613087565b9050919050565b60006130c6826130a9565b9050919050565b6130d6816130bb565b82525050565b60006020820190506130f160008301846130cd565b92915050565b600080fd5b600080fd5b6000601f19601f8301169050919050565b7f4e487b7100000000000000000000000000000000000000000000000000000000600052604160045260246000fd5b61314a82613101565b810181811067ffffffffffffffff8211171561316957613168613112565b5b80604052505050565b600061317c612fde565b90506131888282613141565b919050565b600067ffffffffffffffff8211156131a8576131a7613112565b5b6131b182613101565b9050602081019050919050565b82818337600083830152505050565b60006131e06131db8461318d565b613172565b9050828152602081018484840111156131fc576131fb6130fc565b5b6132078482856131be565b509392505050565b600082601f830112613224576132236130f7565b5b81356132348482602086016131cd565b91505092915050565b6000806040838503121561325457613253612fe8565b5b600083013567ffffffffffffffff81111561327257613271612fed565b5b61327e8582860161320f565b925050602061328f8582860161303b565b9150509250929050565b600080fd5b600080fd5b6000819050919050565b6132b6816132a3565b81146132c157600080fd5b50565b6000813590506132d3816132ad565b92915050565b600067ffffffffffffffff8211156132f4576132f3613112565b5b602082029050602081019050919050565b600080fd5b6000819050919050565b61331d8161330a565b811461332857600080fd5b50565b60008135905061333a81613314565b92915050565b600061335361334e846132d9565b613172565b9050808382526020820190506020840283018581111561337657613375613305565b5b835b8181101561339f578061338b888261332b565b845260208401935050602081019050613378565b5050509392505050565b600082601f8301126133be576133bd6130f7565b5b81356133ce848260208601613340565b91505092915050565b600067ffffffffffffffff8211156133f2576133f1613112565b5b602082029050602081019050919050565b6000613416613411846133d7565b613172565b9050808382526020820190506020840283018581111561343957613438613305565b5b835b81811015613462578061344e88826132c4565b84526020840193505060208101905061343b565b5050509392505050565b600082601f830112613481576134806130f7565b5b8135613491848260208601613403565b91505092915050565b600067ffffffffffffffff8211156134b5576134b4613112565b5b602082029050602081019050919050565b60006134d96134d48461349a565b613172565b905080838252602082019050602084028301858111156134fc576134fb613305565b5b835b8181101561354357803567ffffffffffffffff811115613521576135206130f7565b5b80860161352e898261320f565b855260208501945050506020810190506134fe565b5050509392505050565b600082601f830112613562576135616130f7565b5b81356135728482602086016134c6565b91505092915050565b60008115159050919050565b6135908161357b565b811461359b57600080fd5b50565b6000813590506135ad81613587565b92915050565b60006135be82612ff2565b9050919050565b60006135d0826135b3565b9050919050565b6135e0816135c5565b81146135eb57600080fd5b50565b6000813590506135fd816135d7565b92915050565b61360c816135b3565b811461361757600080fd5b50565b60008135905061362981613603565b92915050565b6000610380828403121561364657613645613299565b5b613651610380613172565b90506000613661848285016132c4565b6000830152506020613675848285016132c4565b602083015250604082013567ffffffffffffffff8111156136995761369861329e565b5b6136a58482850161320f565b604083015250606082013567ffffffffffffffff8111156136c9576136c861329e565b5b6136d5848285016133a9565b60608301525060806136e9848285016132c4565b60808301525060a082013567ffffffffffffffff81111561370d5761370c61329e565b5b6137198482850161320f565b60a08301525060c082013567ffffffffffffffff81111561373d5761373c61329e565b5b6137498482850161320f565b60c08301525060e082013567ffffffffffffffff81111561376d5761376c61329e565b5b6137798482850161320f565b60e08301525061010061378e848285016132c4565b610100830152506101206137a4848285016132c4565b610120830152506101406137ba848285016132c4565b610140830152506101606137d0848285016132c4565b610160830152506101806137e6848285016132c4565b610180830152506101a082013567ffffffffffffffff81111561380c5761380b61329e565b5b6138188482850161346c565b6101a0830152506101c082013567ffffffffffffffff81111561383e5761383d61329e565b5b61384a8482850161320f565b6101c0830152506101e082013567ffffffffffffffff8111156138705761386f61329e565b5b61387c8482850161354d565b6101e0830152506102006138928482850161359e565b610200830152506102206138a8848285016135ee565b610220830152506102406138be848285016132c4565b610240830152506102606138d4848285016132c4565b610260830152506102806138ea848285016132c4565b610280830152506102a06139008482850161359e565b6102a0830152506102c0613916848285016132c4565b6102c0830152506102e061392c848285016132c4565b6102e0830152506103006139428482850161359e565b610300830152506103206139588482850161361a565b6103208301525061034061396e848285016132c4565b61034083015250610360613984848285016132c4565b6103608301525092915050565b6000602082840312156139a7576139a6612fe8565b5b600082013567ffffffffffffffff8111156139c5576139c4612fed565b5b6139d18482850161362f565b91505092915050565b60006139e5826130a9565b9050919050565b6139f5816139da565b82525050565b6000602082019050613a1060008301846139ec565b92915050565b600060208284031215613a2c57613a2b612fe8565b5b600082013567ffffffffffffffff811115613a4a57613a49612fed565b5b613a568482850161320f565b91505092915050565b613a688161357b565b82525050565b6000602082019050613a836000830184613a5f565b92915050565b600060208284031215613a9f57613a9e612fe8565b5b6000613aad848285016132c4565b91505092915050565b60008060408385031215613acd57613acc612fe8565b5b6000613adb858286016132c4565b9250506020613aec858286016132c4565b9150509250929050565b600060208284031215613b0c57613b0b612fe8565b5b6000613b1a8482850161361a565b91505092915050565b613b2c81613012565b82525050565b6000602082019050613b476000830184613b23565b92915050565b6000613b58826130a9565b9050919050565b613b6881613b4d565b82525050565b6000602082019050613b836000830184613b5f565b92915050565b600080600060608486031215613ba257613ba1612fe8565b5b600084013567ffffffffffffffff811115613bc057613bbf612fed565b5b613bcc8682870161320f565b9350506020613bdd868287016132c4565b9250506040613bee868287016132c4565b9150509250925092565b613c01816132a3565b82525050565b6000602082019050613c1c6000830184613bf8565b92915050565b600060208284031215613c3857613c37612fe8565b5b6000613c46848285016135ee565b91505092915050565b613c58816135b3565b82525050565b6000602082019050613c736000830184613c4f565b92915050565b600080600060608486031215613c9257613c91612fe8565b5b6000613ca0868287016132c4565b9350506020613cb1868287016132c4565b9250506040613cc2868287016132c4565b9150509250925092565b6000613cd7826135b3565b9050919050565b613ce781613ccc565b8114613cf257600080fd5b50565b600081359050613d0481613cde565b92915050565b600060208284031215613d2057613d1f612fe8565b5b6000613d2e84828501613cf5565b91505092915050565b6000613d42826135b3565b9050919050565b613d5281613d37565b8114613d5d57600080fd5b50565b600081359050613d6f81613d49565b92915050565b600060208284031215613d8b57613d8a612fe8565b5b6000613d9984828501613d60565b91505092915050565b6000613dad826135b3565b9050919050565b613dbd81613da2565b8114613dc857600080fd5b50565b600081359050613dda81613db4565b92915050565b600060208284031215613df657613df5612fe8565b5b6000613e0484828501613dcb565b91505092915050565b6000613e18826130a9565b9050919050565b613e2881613e0d565b82525050565b6000602082019050613e436000830184613e1f565b92915050565b6000613e54826135b3565b9050919050565b613e6481613e49565b8114613e6f57600080fd5b50565b600081359050613e8181613e5b565b92915050565b600060208284031215613e9d57613e9c612fe8565b5b6000613eab84828501613e72565b91505092915050565b6000613ebf826130a9565b9050919050565b613ecf81613eb4565b82525050565b6000602082019050613eea6000830184613ec6565b92915050565b600082825260208201905092915050565b7f4f6e6c79204f776e657200000000000000000000000000000000000000000000600082015250565b6000613f37600a83613ef0565b9150613f4282613f01565b602082019050919050565b60006020820190508181036000830152613f6681613f2a565b9050919050565b600081519050919050565b600081905092915050565b60005b83811015613fa1578082015181840152602081019050613f86565b83811115613fb0576000848401525b50505050565b6000613fc182613f6d565b613fcb8185613f78565b9350613fdb818560208601613f83565b80840191505092915050565b6000613ff38284613fb6565b915081905092915050565b600061400982613f6d565b6140138185613ef0565b9350614023818560208601613f83565b61402c81613101565b840191505092915050565b600060408201905081810360008301526140518185613ffe565b90506140606020830184613c4f565b9392505050565b60008151905061407681613587565b92915050565b60006020828403121561409257614091612fe8565b5b60006140a084828501614067565b91505092915050565b7f4f6e6c792061646d696e00000000000000000000000000000000000000000000600082015250565b60006140df600a83613ef0565b91506140ea826140a9565b602082019050919050565b6000602082019050818103600083015261410e816140d2565b9050919050565b7f50726f706f7274696f6e20636f756c64206e6f74206578636565642031000000600082015250565b600061414b601d83613ef0565b915061415682614115565b602082019050919050565b6000602082019050818103600083015261417a8161413e565b9050919050565b600081519050614190816132ad565b92915050565b60006141a96141a48461318d565b613172565b9050828152602081018484840111156141c5576141c46130fc565b5b6141d0848285613f83565b509392505050565b600082601f8301126141ed576141ec6130f7565b5b81516141fd848260208601614196565b91505092915050565b60008151905061421581613314565b92915050565b600061422e614229846132d9565b613172565b9050808382526020820190506020840283018581111561425157614250613305565b5b835b8181101561427a57806142668882614206565b845260208401935050602081019050614253565b5050509392505050565b600082601f830112614299576142986130f7565b5b81516142a984826020860161421b565b91505092915050565b60006142c56142c0846133d7565b613172565b905080838252602082019050602084028301858111156142e8576142e7613305565b5b835b8181101561431157806142fd8882614181565b8452602084019350506020810190506142ea565b5050509392505050565b600082601f8301126143305761432f6130f7565b5b81516143408482602086016142b2565b91505092915050565b600061435c6143578461349a565b613172565b9050808382526020820190506020840283018581111561437f5761437e613305565b5b835b818110156143c657805167ffffffffffffffff8111156143a4576143a36130f7565b5b8086016143b189826141d8565b85526020850194505050602081019050614381565b5050509392505050565b600082601f8301126143e5576143e46130f7565b5b81516143f5848260208601614349565b91505092915050565b60008151905061440d816135d7565b92915050565b60008151905061442281613603565b92915050565b6000610380828403121561443f5761443e613299565b5b61444a610380613172565b9050600061445a84828501614181565b600083015250602061446e84828501614181565b602083015250604082015167ffffffffffffffff8111156144925761449161329e565b5b61449e848285016141d8565b604083015250606082015167ffffffffffffffff8111156144c2576144c161329e565b5b6144ce84828501614284565b60608301525060806144e284828501614181565b60808301525060a082015167ffffffffffffffff8111156145065761450561329e565b5b614512848285016141d8565b60a08301525060c082015167ffffffffffffffff8111156145365761453561329e565b5b614542848285016141d8565b60c08301525060e082015167ffffffffffffffff8111156145665761456561329e565b5b614572848285016141d8565b60e08301525061010061458784828501614181565b6101008301525061012061459d84828501614181565b610120830152506101406145b384828501614181565b610140830152506101606145c984828501614181565b610160830152506101806145df84828501614181565b610180830152506101a082015167ffffffffffffffff8111156146055761460461329e565b5b6146118482850161431b565b6101a0830152506101c082015167ffffffffffffffff8111156146375761463661329e565b5b614643848285016141d8565b6101c0830152506101e082015167ffffffffffffffff8111156146695761466861329e565b5b614675848285016143d0565b6101e08301525061020061468b84828501614067565b610200830152506102206146a1848285016143fe565b610220830152506102406146b784828501614181565b610240830152506102606146cd84828501614181565b610260830152506102806146e384828501614181565b610280830152506102a06146f984828501614067565b6102a0830152506102c061470f84828501614181565b6102c0830152506102e061472584828501614181565b6102e08301525061030061473b84828501614067565b6103008301525061032061475184828501614413565b6103208301525061034061476784828501614181565b6103408301525061036061477d84828501614181565b6103608301525092915050565b6000602082840312156147a05761479f612fe8565b5b600082015167ffffffffffffffff8111156147be576147bd612fed565b5b6147ca84828501614428565b91505092915050565b7f45786973742067616d6500000000000000000000000000000000000000000000600082015250565b6000614809600a83613ef0565b9150614814826147d3565b602082019050919050565b60006020820190508181036000830152614838816147fc565b9050919050565b614848816132a3565b82525050565b600082825260208201905092915050565b600061486a82613f6d565b614874818561484e565b9350614884818560208601613f83565b61488d81613101565b840191505092915050565b600081519050919050565b600082825260208201905092915050565b6000819050602082019050919050565b6148cd8161330a565b82525050565b60006148df83836148c4565b60208301905092915050565b6000602082019050919050565b600061490382614898565b61490d81856148a3565b9350614918836148b4565b8060005b8381101561494957815161493088826148d3565b975061493b836148eb565b92505060018101905061491c565b5085935050505092915050565b600081519050919050565b600082825260208201905092915050565b6000819050602082019050919050565b600061498e838361483f565b60208301905092915050565b6000602082019050919050565b60006149b282614956565b6149bc8185614961565b93506149c783614972565b8060005b838110156149f85781516149df8882614982565b97506149ea8361499a565b9250506001810190506149cb565b5085935050505092915050565b600081519050919050565b600082825260208201905092915050565b6000819050602082019050919050565b6000614a3d838361485f565b905092915050565b6000602082019050919050565b6000614a5d82614a05565b614a678185614a10565b935083602082028501614a7985614a21565b8060005b85811015614ab55784840389528151614a968582614a31565b9450614aa183614a45565b925060208a01995050600181019050614a7d565b50829750879550505050505092915050565b614ad08161357b565b82525050565b614adf81613e0d565b82525050565b614aee816135b3565b82525050565b600061038083016000830151614b0d600086018261483f565b506020830151614b20602086018261483f565b5060408301518482036040860152614b38828261485f565b91505060608301518482036060860152614b5282826148f8565b9150506080830151614b67608086018261483f565b5060a083015184820360a0860152614b7f828261485f565b91505060c083015184820360c0860152614b99828261485f565b91505060e083015184820360e0860152614bb3828261485f565b915050610100830151614bca61010086018261483f565b50610120830151614bdf61012086018261483f565b50610140830151614bf461014086018261483f565b50610160830151614c0961016086018261483f565b50610180830151614c1e61018086018261483f565b506101a08301518482036101a0860152614c3882826149a7565b9150506101c08301518482036101c0860152614c54828261485f565b9150506101e08301518482036101e0860152614c708282614a52565b915050610200830151614c87610200860182614ac7565b50610220830151614c9c610220860182614ad6565b50610240830151614cb161024086018261483f565b50610260830151614cc661026086018261483f565b50610280830151614cdb61028086018261483f565b506102a0830151614cf06102a0860182614ac7565b506102c0830151614d056102c086018261483f565b506102e0830151614d1a6102e086018261483f565b50610300830151614d2f610300860182614ac7565b50610320830151614d44610320860182614ae5565b50610340830151614d5961034086018261483f565b50610360830151614d6e61036086018261483f565b508091505092915050565b60006040820190508181036000830152614d938185613ffe565b90508181036020830152614da78184614af4565b90509392505050565b7f416c7265616479206a6f696e6564207468652067616d65000000000000000000600082015250565b6000614de6601783613ef0565b9150614df182614db0565b602082019050919050565b60006020820190508181036000830152614e1581614dd9565b9050919050565b7f496e73756666696369656e742062616c616e6365000000000000000000000000600082015250565b6000614e52601483613ef0565b9150614e5d82614e1c565b602082019050919050565b60006020820190508181036000830152614e8181614e45565b9050919050565b6000606082019050614e9d6000830186613c4f565b614eaa6020830185613c4f565b614eb76040830184613bf8565b949350505050565b6000606082019050614ed46000830186613bf8565b614ee16020830185613bf8565b614eee6040830184613c4f565b949350505050565b614eff8161330a565b82525050565b6000606082019050614f1a6000830186613bf8565b614f276020830185613bf8565b614f346040830184614ef6565b949350505050565b7f4e487b7100000000000000000000000000000000000000000000000000000000600052601160045260246000fd5b6000614f76826132a3565b9150614f81836132a3565b9250827fffffffffffffffffffffffffffffffffffffffffffffffffffffffffffffffff03821115614fb657614fb5614f3c565b5b828201905092915050565b7f4f6e6c79206f70657261746f7200000000000000000000000000000000000000600082015250565b6000614ff7600d83613ef0565b915061500282614fc1565b602082019050919050565b6000602082019050818103600083015261502681614fea565b9050919050565b60006040820190506150426000830185613bf8565b61504f6020830184613bf8565b9392505050565b600067ffffffffffffffff82111561507157615070613112565b5b602082029050602081019050919050565b600061509561509084615056565b613172565b905080838252602082019050602084028301858111156150b8576150b7613305565b5b835b818110156150e157806150cd8882614413565b8452602084019350506020810190506150ba565b5050509392505050565b600082601f830112615100576150ff6130f7565b5b8151615110848260208601615082565b91505092915050565b60006020828403121561512f5761512e612fe8565b5b600082015167ffffffffffffffff81111561514d5761514c612fed565b5b615159848285016150eb565b91505092915050565b6000610160828403121561517957615178613299565b5b615184610160613172565b9050600061519484828501614181565b60008301525060206151a884828501614181565b602083015250604082015167ffffffffffffffff8111156151cc576151cb61329e565b5b6151d8848285016150eb565b60408301525060606151ec84828501614181565b606083015250608061520084828501614413565b60808301525060a061521484828501614181565b60a08301525060c082015167ffffffffffffffff8111156152385761523761329e565b5b61524484828501614284565b60c08301525060e082015167ffffffffffffffff8111156152685761526761329e565b5b61527484828501614284565b60e08301525061010082015167ffffffffffffffff8111156152995761529861329e565b5b6152a584828501614284565b610100830152506101206152bb84828501614067565b610120830152506101406152d184828501614067565b6101408301525092915050565b6000602082840312156152f4576152f3612fe8565b5b600082015167ffffffffffffffff81111561531257615311612fed565b5b61531e84828501615162565b91505092915050565b6000806000806080858703121561534157615340612fe8565b5b600085015167ffffffffffffffff81111561535f5761535e612fed565b5b61536b87828801614284565b945050602085015167ffffffffffffffff81111561538c5761538b612fed565b5b61539887828801614284565b935050604085015167ffffffffffffffff8111156153b9576153b8612fed565b5b6153c587828801614284565b925050606085015167ffffffffffffffff8111156153e6576153e5612fed565b5b6153f2878288016150eb565b91505092959194509250565b600081519050919050565b600082825260208201905092915050565b6000819050602082019050919050565b60006154368383614ae5565b60208301905092915050565b6000602082019050919050565b600061545a826153fe565b6154648185615409565b935061546f8361541a565b8060005b838110156154a0578151615487888261542a565b975061549283615442565b925050600181019050615473565b5085935050505092915050565b6000610160830160008301516154c6600086018261483f565b5060208301516154d9602086018261483f565b50604083015184820360408601526154f1828261544f565b9150506060830151615506606086018261483f565b5060808301516155196080860182614ae5565b5060a083015161552c60a086018261483f565b5060c083015184820360c086015261554482826148f8565b91505060e083015184820360e086015261555e82826148f8565b91505061010083015184820361010086015261557a82826148f8565b915050610120830151615591610120860182614ac7565b506101408301516155a6610140860182614ac7565b508091505092915050565b60006060820190506155c66000830186613bf8565b6155d36020830185613bf8565b81810360408301526155e581846154ad565b9050949350505050565b7f4e6f206275666620617661696c61626c65000000000000000000000000000000600082015250565b6000615625601183613ef0565b9150615630826155ef565b602082019050919050565b6000602082019050818103600083015261565481615618565b9050919050565b7f47616d6520686173207374617274656400000000000000000000000000000000600082015250565b6000615691601083613ef0565b915061569c8261565b565b602082019050919050565b600060208201905081810360008301526156c081615684565b9050919050565b7f416c726561647920686164206275666600000000000000000000000000000000600082015250565b60006156fd601083613ef0565b9150615708826156c7565b602082019050919050565b6000602082019050818103600083015261572c816156f0565b9050919050565b60006040820190506157486000830185613c4f565b6157556020830184613bf8565b9392505050565b60006060820190506157716000830186613bf8565b61577e6020830185613bf8565b61578b6040830184613bf8565b949350505050565b7f50726570617920666f7220676173000000000000000000000000000000000000600082015250565b60006157c9600e83613ef0565b91506157d482615793565b602082019050919050565b600060208201905081810360008301526157f8816157bc565b9050919050565b60006020828403121561581557615814612fe8565b5b600061582384828501614206565b91505092915050565b7f47616d65207374696c6c2072756e6e696e670000000000000000000000000000600082015250565b6000615862601283613ef0565b915061586d8261582c565b602082019050919050565b6000602082019050818103600083015261589181615855565b9050919050565b60006060820190506158ad6000830186613bf8565b6158ba6020830185613c4f565b6158c76040830184613bf8565b949350505050565b7f4e487b7100000000000000000000000000000000000000000000000000000000600052603260045260246000fd5b60006020828403121561591457615913612fe8565b5b600061592284828501614181565b91505092915050565b6000615936826130a9565b9050919050565b6159468161592b565b82525050565b6000604082019050615961600083018561593d565b61596e6020830184613bf8565b9392505050565b6000615980826132a3565b91507fffffffffffffffffffffffffffffffffffffffffffffffffffffffffffffffff8214156159b3576159b2614f3c565b5b600182019050919050565b7f6164646974696f6e206f766572666c6f77000000000000000000000000000000600082015250565b60006159f4601183613ef0565b91506159ff826159be565b602082019050919050565b60006020820190508181036000830152615a23816159e7565b9050919050565b7f43757272656e742067616d652066696e69736865640000000000000000000000600082015250565b6000615a60601583613ef0565b9150615a6b82615a2a565b602082019050919050565b60006020820190508181036000830152615a8f81615a53565b9050919050565b600060208284031215615aac57615aab612fe8565b5b600082015167ffffffffffffffff811115615aca57615ac9612fed565b5b615ad68482850161431b565b91505092915050565b7f4e6f2067616d6520636f6e666967757265640000000000000000000000000000600082015250565b6000615b15601283613ef0565b9150615b2082615adf565b602082019050919050565b60006020820190508181036000830152615b4481615b08565b9050919050565b6000615b56826132a3565b9150615b61836132a3565b9250817fffffffffffffffffffffffffffffffffffffffffffffffffffffffffffffffff0483118215151615615b9a57615b99614f3c565b5b828202905092915050565b7f4e487b7100000000000000000000000000000000000000000000000000000000600052601260045260246000fd5b6000615bdf826132a3565b9150615bea836132a3565b925082615bfa57615bf9615ba5565b5b828204905092915050565b7f536166654d6174683a206d756c7469706c69636174696f6e206f766572666c6f60008201527f7700000000000000000000000000000000000000000000000000000000000000602082015250565b6000615c61602183613ef0565b9150615c6c82615c05565b604082019050919050565b60006020820190508181036000830152615c9081615c54565b9050919050565b60006020820190508181036000830152615cb18184613ffe565b90509291505056fea2646970667358221220cc06e27ee1605c8d286360638b4ccb784fa2ab857ad63d89e4be27cc33dadab064736f6c63430008090033",
  "linkReferences": {},
  "deployedLinkReferences": {}
}