{
  "_format": "hh-sol-artifact-1",
  "contractName": "Game",
  "sourceName": "src/contracts/game/game.sol",
  "abi": [
    {
      "inputs": [
        {
          "internalType": "address payable",
          "name": "_operator",
          "type": "address"
        },
        {
          "internalType": "contract IAdminData",
          "name": "_adminData",
          "type": "address"
        },
        {
          "internalType": "contract IGameData",
          "name": "_gameData",
          "type": "address"
        },
        {
          "internalType": "contract IGameLogic",
          "name": "_gameLogic",
          "type": "address"
        },
        {
          "internalType": "contract IQuizToken",
          "name": "_buffToken",
          "type": "address"
        },
        {
          "internalType": "uint256",
          "name": "_buffValue",
          "type": "uint256"
        }
      ],
      "stateMutability": "nonpayable",
      "type": "constructor"
    },
    {
      "inputs": [
        {
          "internalType": "string",
          "name": "_appId",
          "type": "string"
        },
        {
          "internalType": "address payable",
          "name": "_newOperator",
          "type": "address"
        }
      ],
      "name": "addAppOperator",
      "outputs": [],
      "stateMutability": "nonpayable",
      "type": "function"
    },
    {
      "inputs": [],
      "name": "adminData",
      "outputs": [
        {
          "internalType": "contract IAdminData",
          "name": "",
          "type": "address"
        }
      ],
      "stateMutability": "view",
      "type": "function"
    },
    {
      "inputs": [],
      "name": "availableSize",
      "outputs": [
        {
          "internalType": "uint256",
          "name": "",
          "type": "uint256"
        }
      ],
      "stateMutability": "view",
      "type": "function"
    },
    {
      "inputs": [],
      "name": "buffToken",
      "outputs": [
        {
          "internalType": "contract IQuizToken",
          "name": "",
          "type": "address"
        }
      ],
      "stateMutability": "view",
      "type": "function"
    },
    {
      "inputs": [],
      "name": "buffValue",
      "outputs": [
        {
          "internalType": "uint256",
          "name": "",
          "type": "uint256"
        }
      ],
      "stateMutability": "view",
      "type": "function"
    },
    {
      "inputs": [
        {
          "internalType": "uint256",
          "name": "_gameId",
          "type": "uint256"
        },
        {
          "internalType": "uint256",
          "name": "_round",
          "type": "uint256"
        },
        {
          "internalType": "uint256",
          "name": "_buffId",
          "type": "uint256"
        }
      ],
      "name": "buyBuff",
      "outputs": [],
      "stateMutability": "nonpayable",
      "type": "function"
    },
    {
      "inputs": [
        {
          "internalType": "uint256",
          "name": "_gameId",
          "type": "uint256"
        },
        {
          "internalType": "uint256",
          "name": "_round",
          "type": "uint256"
        }
      ],
      "name": "buyTicket",
      "outputs": [],
      "stateMutability": "payable",
      "type": "function"
    },
    {
      "inputs": [
        {
          "internalType": "contract IAdminData",
          "name": "_newData",
          "type": "address"
        }
      ],
      "name": "changeAdminData",
      "outputs": [],
      "stateMutability": "nonpayable",
      "type": "function"
    },
    {
      "inputs": [
        {
          "internalType": "contract IQuizToken",
          "name": "_newToken",
          "type": "address"
        }
      ],
      "name": "changeBuffToken",
      "outputs": [],
      "stateMutability": "nonpayable",
      "type": "function"
    },
    {
      "inputs": [
        {
          "internalType": "uint256",
          "name": "_newValue",
          "type": "uint256"
        }
      ],
      "name": "changeBuffValue",
      "outputs": [],
      "stateMutability": "nonpayable",
      "type": "function"
    },
    {
      "inputs": [
        {
          "internalType": "contract IGameData",
          "name": "_newData",
          "type": "address"
        }
      ],
      "name": "changeGameData",
      "outputs": [],
      "stateMutability": "nonpayable",
      "type": "function"
    },
    {
      "inputs": [
        {
          "internalType": "address payable",
          "name": "_newOperator",
          "type": "address"
        }
      ],
      "name": "changeOperator",
      "outputs": [],
      "stateMutability": "nonpayable",
      "type": "function"
    },
    {
      "inputs": [
        {
          "components": [
            {
              "internalType": "uint256",
              "name": "id",
              "type": "uint256"
            },
            {
              "internalType": "uint256",
              "name": "category",
              "type": "uint256"
            },
            {
              "internalType": "string",
              "name": "appId",
              "type": "string"
            },
            {
              "internalType": "int256[]",
              "name": "groupIds",
              "type": "int256[]"
            },
            {
              "internalType": "uint256",
              "name": "botType",
              "type": "uint256"
            },
            {
              "internalType": "string",
              "name": "title",
              "type": "string"
            },
            {
              "internalType": "string",
              "name": "introduction",
              "type": "string"
            },
            {
              "internalType": "string",
              "name": "story",
              "type": "string"
            },
            {
              "internalType": "uint256",
              "name": "eliminateProportion",
              "type": "uint256"
            },
            {
              "internalType": "uint256",
              "name": "awardProportion",
              "type": "uint256"
            },
            {
              "internalType": "uint256",
              "name": "creatorProportion",
              "type": "uint256"
            },
            {
              "internalType": "uint256",
              "name": "sponsorProportion",
              "type": "uint256"
            },
            {
              "internalType": "uint256",
              "name": "winnerNum",
              "type": "uint256"
            },
            {
              "internalType": "uint256[]",
              "name": "buffIds",
              "type": "uint256[]"
            },
            {
              "internalType": "string",
              "name": "buffDesc",
              "type": "string"
            },
            {
              "internalType": "string[]",
              "name": "events",
              "type": "string[]"
            },
            {
              "internalType": "bool",
              "name": "ticketIsEth",
              "type": "bool"
            },
            {
              "internalType": "contract IERC20",
              "name": "ticketsToken",
              "type": "address"
            },
            {
              "internalType": "uint256",
              "name": "ticketAmount",
              "type": "uint256"
            },
            {
              "internalType": "uint256",
              "name": "effectStartTime",
              "type": "uint256"
            },
            {
              "internalType": "uint256",
              "name": "effectEndTime",
              "type": "uint256"
            },
            {
              "internalType": "bool",
              "name": "daily",
              "type": "bool"
            },
            {
              "internalType": "uint256",
              "name": "startH",
              "type": "uint256"
            },
            {
              "internalType": "uint256",
              "name": "startM",
              "type": "uint256"
            },
            {
              "internalType": "bool",
              "name": "exist",
              "type": "bool"
            },
            {
              "internalType": "address",
              "name": "creator",
              "type": "address"
            }
          ],
          "internalType": "struct IGameData.GameDetail",
          "name": "_game",
          "type": "tuple"
        }
      ],
      "name": "createGame",
      "outputs": [],
      "stateMutability": "nonpayable",
      "type": "function"
    },
    {
      "inputs": [
        {
          "internalType": "string",
          "name": "_appId",
          "type": "string"
        }
      ],
      "name": "delAppOperator",
      "outputs": [],
      "stateMutability": "nonpayable",
      "type": "function"
    },
    {
      "inputs": [
        {
          "internalType": "contract IERC20",
          "name": "",
          "type": "address"
        }
      ],
      "name": "erc20Exist",
      "outputs": [
        {
          "internalType": "bool",
          "name": "",
          "type": "bool"
        }
      ],
      "stateMutability": "view",
      "type": "function"
    },
    {
      "inputs": [
        {
          "internalType": "uint256",
          "name": "",
          "type": "uint256"
        }
      ],
      "name": "erc20List",
      "outputs": [
        {
          "internalType": "contract IERC20",
          "name": "",
          "type": "address"
        }
      ],
      "stateMutability": "view",
      "type": "function"
    },
    {
      "inputs": [],
      "name": "gameData",
      "outputs": [
        {
          "internalType": "contract IGameData",
          "name": "",
          "type": "address"
        }
      ],
      "stateMutability": "view",
      "type": "function"
    },
    {
      "inputs": [],
      "name": "gameLogic",
      "outputs": [
        {
          "internalType": "contract IGameLogic",
          "name": "",
          "type": "address"
        }
      ],
      "stateMutability": "view",
      "type": "function"
    },
    {
      "inputs": [
        {
          "internalType": "string",
          "name": "_appId",
          "type": "string"
        },
        {
          "internalType": "uint256",
          "name": "_gameId",
          "type": "uint256"
        },
        {
          "internalType": "uint256",
          "name": "_round",
          "type": "uint256"
        }
      ],
      "name": "gameRoundOver",
      "outputs": [],
      "stateMutability": "nonpayable",
      "type": "function"
    },
    {
      "inputs": [
        {
          "internalType": "string",
          "name": "_appId",
          "type": "string"
        }
      ],
      "name": "isOperator",
      "outputs": [
        {
          "internalType": "bool",
          "name": "",
          "type": "bool"
        }
      ],
      "stateMutability": "view",
      "type": "function"
    },
    {
      "inputs": [],
      "name": "operator",
      "outputs": [
        {
          "internalType": "address payable",
          "name": "",
          "type": "address"
        }
      ],
      "stateMutability": "view",
      "type": "function"
    },
    {
      "inputs": [],
      "name": "owner",
      "outputs": [
        {
          "internalType": "address",
          "name": "",
          "type": "address"
        }
      ],
      "stateMutability": "view",
      "type": "function"
    },
    {
      "inputs": [
        {
          "internalType": "uint256",
          "name": "_newSize",
          "type": "uint256"
        }
      ],
      "name": "setAvailableSize",
      "outputs": [],
      "stateMutability": "nonpayable",
      "type": "function"
    },
    {
      "inputs": [
        {
          "internalType": "string",
          "name": "_appId",
          "type": "string"
        },
        {
          "internalType": "uint256",
          "name": "_gameId",
          "type": "uint256"
        },
        {
          "internalType": "uint256",
          "name": "_launchTime",
          "type": "uint256"
        }
      ],
      "name": "startGame",
      "outputs": [],
      "stateMutability": "payable",
      "type": "function"
    },
    {
      "inputs": [
        {
          "internalType": "address payable",
          "name": "_to",
          "type": "address"
        }
      ],
      "name": "transferAsset",
      "outputs": [],
      "stateMutability": "nonpayable",
      "type": "function"
    },
    {
      "inputs": [
        {
          "internalType": "address",
          "name": "_newOwner",
          "type": "address"
        }
      ],
      "name": "transferOwner",
      "outputs": [],
      "stateMutability": "nonpayable",
      "type": "function"
    }
  ],
  "bytecode": "0x60806040526014600b553480156200001657600080fd5b5060405162005e6538038062005e6583398181016040528101906200003c9190620003a1565b336000806101000a81548173ffffffffffffffffffffffffffffffffffffffff021916908373ffffffffffffffffffffffffffffffffffffffff16021790555085600160006101000a81548173ffffffffffffffffffffffffffffffffffffffff021916908373ffffffffffffffffffffffffffffffffffffffff16021790555084600360006101000a81548173ffffffffffffffffffffffffffffffffffffffff021916908373ffffffffffffffffffffffffffffffffffffffff16021790555083600460006101000a81548173ffffffffffffffffffffffffffffffffffffffff021916908373ffffffffffffffffffffffffffffffffffffffff16021790555082600560006101000a81548173ffffffffffffffffffffffffffffffffffffffff021916908373ffffffffffffffffffffffffffffffffffffffff16021790555081600660006101000a81548173ffffffffffffffffffffffffffffffffffffffff021916908373ffffffffffffffffffffffffffffffffffffffff160217905550806007819055505050505050506200043d565b600080fd5b600073ffffffffffffffffffffffffffffffffffffffff82169050919050565b60006200020682620001d9565b9050919050565b6200021881620001f9565b81146200022457600080fd5b50565b60008151905062000238816200020d565b92915050565b60006200024b82620001d9565b9050919050565b60006200025f826200023e565b9050919050565b620002718162000252565b81146200027d57600080fd5b50565b600081519050620002918162000266565b92915050565b6000620002a4826200023e565b9050919050565b620002b68162000297565b8114620002c257600080fd5b50565b600081519050620002d681620002ab565b92915050565b6000620002e9826200023e565b9050919050565b620002fb81620002dc565b81146200030757600080fd5b50565b6000815190506200031b81620002f0565b92915050565b60006200032e826200023e565b9050919050565b620003408162000321565b81146200034c57600080fd5b50565b600081519050620003608162000335565b92915050565b6000819050919050565b6200037b8162000366565b81146200038757600080fd5b50565b6000815190506200039b8162000370565b92915050565b60008060008060008060c08789031215620003c157620003c0620001d4565b5b6000620003d189828a0162000227565b9650506020620003e489828a0162000280565b9550506040620003f789828a01620002c5565b94505060606200040a89828a016200030a565b93505060806200041d89828a016200034f565b92505060a06200043089828a016200038a565b9150509295509295509295565b615a18806200044d6000396000f3fe6080604052600436106101a15760003560e01c80637e3dfe5c116100e1578063bb3f09111161008a578063d5a921a711610064578063d5a921a714610548578063e606c9b814610571578063e86098f51461059a578063fa24f743146105d7576101a1565b8063bb3f0911146104cd578063c7d7b660146104f6578063ce6e98f21461051f576101a1565b8063b05c3f67116100bb578063b05c3f671461045f578063b2888e4914610488578063b7579b50146104a4576101a1565b80637e3dfe5c146103cc57806380690863146104095780638da5cb5b14610434576101a1565b806327a343b31161014e578063570ca73511610128578063570ca735146103225780635a2a79231461034d5780637742b301146103785780637d878731146103a1576101a1565b806327a343b3146102b4578063298ec208146102dd5780634fb2e45d146102f9576101a1565b8063134087a21161017f578063134087a2146102235780631f041bd11461024e5780632483eee51461028b576101a1565b806306394c9b146101a657806306d2ae8e146101cf5780630bd09979146101fa575b600080fd5b3480156101b257600080fd5b506101cd60048036038101906101c89190612e27565b610602565b005b3480156101db57600080fd5b506101e46106d4565b6040516101f19190612eb3565b60405180910390f35b34801561020657600080fd5b50610221600480360381019061021c9190613014565b6106fa565b005b34801561022f57600080fd5b506102386107e9565b6040516102459190613091565b60405180910390f35b34801561025a57600080fd5b50610275600480360381019061027091906130ac565b61080f565b6040516102829190613110565b60405180910390f35b34801561029757600080fd5b506102b260048036038101906102ad9190613161565b6108dd565b005b3480156102c057600080fd5b506102db60048036038101906102d69190613161565b610975565b005b6102f760048036038101906102f2919061318e565b610a0d565b005b34801561030557600080fd5b50610320600480360381019061031b919061320c565b610db0565b005b34801561032e57600080fd5b50610337610e81565b6040516103449190613248565b60405180910390f35b34801561035957600080fd5b50610362610ea7565b60405161036f9190613284565b60405180910390f35b34801561038457600080fd5b5061039f600480360381019061039a919061329f565b610ecd565b005b3480156103ad57600080fd5b506103b6611245565b6040516103c3919061331d565b60405180910390f35b3480156103d857600080fd5b506103f360048036038101906103ee9190613376565b61124b565b6040516104009190613110565b60405180910390f35b34801561041557600080fd5b5061041e61126b565b60405161042b919061331d565b60405180910390f35b34801561044057600080fd5b50610449611271565b60405161045691906133b2565b60405180910390f35b34801561046b57600080fd5b50610486600480360381019061048191906133cd565b611295565b005b6104a2600480360381019061049d919061329f565b611549565b005b3480156104b057600080fd5b506104cb60048036038101906104c6919061345e565b611711565b005b3480156104d957600080fd5b506104f460048036038101906104ef91906130ac565b6117e3565b005b34801561050257600080fd5b5061051d60048036038101906105189190612e27565b6118d2565b005b34801561052b57600080fd5b50610546600480360381019061054191906134c9565b611b7a565b005b34801561055457600080fd5b5061056f600480360381019061056a9190613b04565b611c4c565b005b34801561057d57600080fd5b5061059860048036038101906105939190613b8b565b611ff0565b005b3480156105a657600080fd5b506105c160048036038101906105bc9190613161565b6120c2565b6040516105ce9190613bd9565b60405180910390f35b3480156105e357600080fd5b506105ec612101565b6040516105f99190613c15565b60405180910390f35b60008054906101000a900473ffffffffffffffffffffffffffffffffffffffff1673ffffffffffffffffffffffffffffffffffffffff163373ffffffffffffffffffffffffffffffffffffffff1614610690576040517f08c379a000000000000000000000000000000000000000000000000000000000815260040161068790613c8d565b60405180910390fd5b80600160006101000a81548173ffffffffffffffffffffffffffffffffffffffff021916908373ffffffffffffffffffffffffffffffffffffffff16021790555050565b600360009054906101000a900473ffffffffffffffffffffffffffffffffffffffff1681565b60008054906101000a900473ffffffffffffffffffffffffffffffffffffffff1673ffffffffffffffffffffffffffffffffffffffff163373ffffffffffffffffffffffffffffffffffffffff1614610788576040517f08c379a000000000000000000000000000000000000000000000000000000000815260040161077f90613c8d565b60405180910390fd5b806002836040516107999190613d27565b908152602001604051809103902060006101000a81548173ffffffffffffffffffffffffffffffffffffffff021916908373ffffffffffffffffffffffffffffffffffffffff1602179055505050565b600560009054906101000a900473ffffffffffffffffffffffffffffffffffffffff1681565b60003373ffffffffffffffffffffffffffffffffffffffff16600160009054906101000a900473ffffffffffffffffffffffffffffffffffffffff1673ffffffffffffffffffffffffffffffffffffffff1614806108d657503373ffffffffffffffffffffffffffffffffffffffff1660028360405161088f9190613d27565b908152602001604051809103902060009054906101000a900473ffffffffffffffffffffffffffffffffffffffff1673ffffffffffffffffffffffffffffffffffffffff16145b9050919050565b60008054906101000a900473ffffffffffffffffffffffffffffffffffffffff1673ffffffffffffffffffffffffffffffffffffffff163373ffffffffffffffffffffffffffffffffffffffff161461096b576040517f08c379a000000000000000000000000000000000000000000000000000000000815260040161096290613c8d565b60405180910390fd5b8060078190555050565b60008054906101000a900473ffffffffffffffffffffffffffffffffffffffff1673ffffffffffffffffffffffffffffffffffffffff163373ffffffffffffffffffffffffffffffffffffffff1614610a03576040517f08c379a00000000000000000000000000000000000000000000000000000000081526004016109fa90613c8d565b60405180910390fd5b80600b8190555050565b610a178282612127565b610a218282612221565b6000600460009054906101000a900473ffffffffffffffffffffffffffffffffffffffff1673ffffffffffffffffffffffffffffffffffffffff1663a2f77bcc846040518263ffffffff1660e01b8152600401610a7e919061331d565b60006040518083038186803b158015610a9657600080fd5b505afa158015610aaa573d6000803e3d6000fd5b505050506040513d6000823e3d601f19601f82011682018060405250810190610ad39190614330565b90506000610ae284843361231c565b5090508015610b26576040517f08c379a0000000000000000000000000000000000000000000000000000000008152600401610b1d906143c5565b60405180910390fd5b60008261024001511115610c285781610200015115610b8c57816102400151341015610b87576040517f08c379a0000000000000000000000000000000000000000000000000000000008152600401610b7e90614431565b60405180910390fd5b610c27565b81610220015173ffffffffffffffffffffffffffffffffffffffff166323b872dd33308561024001516040518463ffffffff1660e01b8152600401610bd393929190614451565b602060405180830381600087803b158015610bed57600080fd5b505af1158015610c01573d6000803e3d6000fd5b505050506040513d601f19601f82011682018060405250810190610c259190614488565b505b5b600460009054906101000a900473ffffffffffffffffffffffffffffffffffffffff1673ffffffffffffffffffffffffffffffffffffffff1663ffe41ad38585336040518463ffffffff1660e01b8152600401610c87939291906144b5565b600060405180830381600087803b158015610ca157600080fd5b505af1158015610cb5573d6000803e3d6000fd5b50505050600560009054906101000a900473ffffffffffffffffffffffffffffffffffffffff1673ffffffffffffffffffffffffffffffffffffffff1663a71a0c078585600a60008981526020019081526020016000206000888152602001908152602001600020546040518463ffffffff1660e01b8152600401610d3c939291906144fb565b600060405180830381600087803b158015610d5657600080fd5b505af1158015610d6a573d6000803e3d6000fd5b505050506001600a600086815260200190815260200160002060008581526020019081526020016000206000828254610da39190614561565b9250508190555050505050565b60008054906101000a900473ffffffffffffffffffffffffffffffffffffffff1673ffffffffffffffffffffffffffffffffffffffff163373ffffffffffffffffffffffffffffffffffffffff1614610e3e576040517f08c379a0000000000000000000000000000000000000000000000000000000008152600401610e3590613c8d565b60405180910390fd5b806000806101000a81548173ffffffffffffffffffffffffffffffffffffffff021916908373ffffffffffffffffffffffffffffffffffffffff16021790555050565b600160009054906101000a900473ffffffffffffffffffffffffffffffffffffffff1681565b600660009054906101000a900473ffffffffffffffffffffffffffffffffffffffff1681565b610ed68361080f565b610f15576040517f08c379a0000000000000000000000000000000000000000000000000000000008152600401610f0c90614603565b60405180910390fd5b610f1f8282612127565b610f298282612221565b6000600460009054906101000a900473ffffffffffffffffffffffffffffffffffffffff1673ffffffffffffffffffffffffffffffffffffffff16630d2dce2284846040518363ffffffff1660e01b8152600401610f88929190614623565b60006040518083038186803b158015610fa057600080fd5b505afa158015610fb4573d6000803e3d6000fd5b505050506040513d6000823e3d601f19601f82011682018060405250810190610fdd919061470f565b90506000600460009054906101000a900473ffffffffffffffffffffffffffffffffffffffff1673ffffffffffffffffffffffffffffffffffffffff166370c1b1d785856040518363ffffffff1660e01b815260040161103e929190614623565b60006040518083038186803b15801561105657600080fd5b505afa15801561106a573d6000803e3d6000fd5b505050506040513d6000823e3d601f19601f8201168201806040525081019061109391906148d4565b9050600080600080600560009054906101000a900473ffffffffffffffffffffffffffffffffffffffff1673ffffffffffffffffffffffffffffffffffffffff1663532af7d289896040518363ffffffff1660e01b81526004016110f8929190614623565b600060405180830381600087803b15801561111257600080fd5b505af1158015611126573d6000803e3d6000fd5b505050506040513d6000823e3d601f19601f8201168201806040525081019061114f919061491d565b93509350935093508085604001819052508551856060018181525050838560c00181905250828560e0018190525081856101000181905250600185610120019015159081151581525050600460009054906101000a900473ffffffffffffffffffffffffffffffffffffffff1673ffffffffffffffffffffffffffffffffffffffff1663f1ae94948989886040518463ffffffff1660e01b81526004016111f893929190614c92565b600060405180830381600087803b15801561121257600080fd5b505af1158015611226573d6000803e3d6000fd5b5050505061123a888660800151838a612458565b505050505050505050565b600b5481565b60096020528060005260406000206000915054906101000a900460ff1681565b60075481565b60008054906101000a900473ffffffffffffffffffffffffffffffffffffffff1681565b61129f8383612221565b6112a98383612127565b6112b383826127e8565b6112f2576040517f08c379a00000000000000000000000000000000000000000000000000000000081526004016112e990614d1c565b60405180910390fd5b60008061130085853361231c565b9150915081611344576040517f08c379a000000000000000000000000000000000000000000000000000000000815260040161133b90614d88565b60405180910390fd5b61134f8585836128f9565b1561138f576040517f08c379a000000000000000000000000000000000000000000000000000000000815260040161138690614df4565b60405180910390fd5b600660009054906101000a900473ffffffffffffffffffffffffffffffffffffffff1673ffffffffffffffffffffffffffffffffffffffff16639dc29fac336007546040518363ffffffff1660e01b81526004016113ee929190614e14565b600060405180830381600087803b15801561140857600080fd5b505af115801561141c573d6000803e3d6000fd5b50505050600460009054906101000a900473ffffffffffffffffffffffffffffffffffffffff1673ffffffffffffffffffffffffffffffffffffffff166342f2a5e38686846040518463ffffffff1660e01b815260040161147f93929190614e3d565b600060405180830381600087803b15801561149957600080fd5b505af11580156114ad573d6000803e3d6000fd5b50505050600560009054906101000a900473ffffffffffffffffffffffffffffffffffffffff1673ffffffffffffffffffffffffffffffffffffffff1663d8602ed18686846040518463ffffffff1660e01b815260040161151093929190614e3d565b600060405180830381600087803b15801561152a57600080fd5b505af115801561153e573d6000803e3d6000fd5b505050505050505050565b61155282612a04565b60003411611595576040517f08c379a000000000000000000000000000000000000000000000000000000000815260040161158c90614ec0565b60405180910390fd5b60006002846040516115a79190613d27565b908152602001604051809103902060009054906101000a900473ffffffffffffffffffffffffffffffffffffffff169050600073ffffffffffffffffffffffffffffffffffffffff168173ffffffffffffffffffffffffffffffffffffffff16141561163357600160009054906101000a900473ffffffffffffffffffffffffffffffffffffffff1690505b8073ffffffffffffffffffffffffffffffffffffffff166108fc349081150290604051600060405180830381858888f19350505050158015611679573d6000803e3d6000fd5b50600460009054906101000a900473ffffffffffffffffffffffffffffffffffffffff1673ffffffffffffffffffffffffffffffffffffffff166357e40a648433856040518463ffffffff1660e01b81526004016116d993929190614ee0565b600060405180830381600087803b1580156116f357600080fd5b505af1158015611707573d6000803e3d6000fd5b5050505050505050565b60008054906101000a900473ffffffffffffffffffffffffffffffffffffffff1673ffffffffffffffffffffffffffffffffffffffff163373ffffffffffffffffffffffffffffffffffffffff161461179f576040517f08c379a000000000000000000000000000000000000000000000000000000000815260040161179690613c8d565b60405180910390fd5b80600660006101000a81548173ffffffffffffffffffffffffffffffffffffffff021916908373ffffffffffffffffffffffffffffffffffffffff16021790555050565b60008054906101000a900473ffffffffffffffffffffffffffffffffffffffff1673ffffffffffffffffffffffffffffffffffffffff163373ffffffffffffffffffffffffffffffffffffffff1614611871576040517f08c379a000000000000000000000000000000000000000000000000000000000815260040161186890613c8d565b60405180910390fd5b60006002826040516118839190613d27565b908152602001604051809103902060006101000a81548173ffffffffffffffffffffffffffffffffffffffff021916908373ffffffffffffffffffffffffffffffffffffffff16021790555050565b60008054906101000a900473ffffffffffffffffffffffffffffffffffffffff1673ffffffffffffffffffffffffffffffffffffffff163373ffffffffffffffffffffffffffffffffffffffff1614611960576040517f08c379a000000000000000000000000000000000000000000000000000000000815260040161195790613c8d565b60405180910390fd5b60004711156119b1578073ffffffffffffffffffffffffffffffffffffffff166108fc479081150290604051600060405180830381858888f193505050501580156119af573d6000803e3d6000fd5b505b60005b600880549050811015611b76576000600882815481106119d7576119d6614f17565b5b9060005260206000200160009054906101000a900473ffffffffffffffffffffffffffffffffffffffff1673ffffffffffffffffffffffffffffffffffffffff166370a08231306040518263ffffffff1660e01b8152600401611a3a91906133b2565b60206040518083038186803b158015611a5257600080fd5b505afa158015611a66573d6000803e3d6000fd5b505050506040513d601f19601f82011682018060405250810190611a8a9190614f46565b90506000811115611b625760088281548110611aa957611aa8614f17565b5b9060005260206000200160009054906101000a900473ffffffffffffffffffffffffffffffffffffffff1673ffffffffffffffffffffffffffffffffffffffff1663a9059cbb84836040518363ffffffff1660e01b8152600401611b0e929190614f94565b602060405180830381600087803b158015611b2857600080fd5b505af1158015611b3c573d6000803e3d6000fd5b505050506040513d601f19601f82011682018060405250810190611b609190614488565b505b508080611b6e90614fbd565b9150506119b4565b5050565b60008054906101000a900473ffffffffffffffffffffffffffffffffffffffff1673ffffffffffffffffffffffffffffffffffffffff163373ffffffffffffffffffffffffffffffffffffffff1614611c08576040517f08c379a0000000000000000000000000000000000000000000000000000000008152600401611bff90613c8d565b60405180910390fd5b80600360006101000a81548173ffffffffffffffffffffffffffffffffffffffff021916908373ffffffffffffffffffffffffffffffffffffffff16021790555050565b8060400151600360009054906101000a900473ffffffffffffffffffffffffffffffffffffffff1673ffffffffffffffffffffffffffffffffffffffff1663b796e2b082336040518363ffffffff1660e01b8152600401611cae92919061503f565b60206040518083038186803b158015611cc657600080fd5b505afa158015611cda573d6000803e3d6000fd5b505050506040513d601f19601f82011682018060405250810190611cfe9190614488565b80611d0e5750611d0d8161080f565b5b611d4d576040517f08c379a0000000000000000000000000000000000000000000000000000000008152600401611d44906150bb565b60405180910390fd5b600082600001511415611d95576040517f08c379a0000000000000000000000000000000000000000000000000000000008152600401611d8c90615127565b60405180910390fd5b6064611dcb836101600151611dbd856101400151866101200151612b3f90919063ffffffff16565b612b3f90919063ffffffff16565b1115611e0c576040517f08c379a0000000000000000000000000000000000000000000000000000000008152600401611e0390615193565b60405180910390fd5b6000600460009054906101000a900473ffffffffffffffffffffffffffffffffffffffff1673ffffffffffffffffffffffffffffffffffffffff1663a2f77bcc84600001516040518263ffffffff1660e01b8152600401611e6d919061331d565b60006040518083038186803b158015611e8557600080fd5b505afa158015611e99573d6000803e3d6000fd5b505050506040513d6000823e3d601f19601f82011682018060405250810190611ec29190614330565b905080610300015115611f0a576040517f08c379a0000000000000000000000000000000000000000000000000000000008152600401611f01906151ff565b60405180910390fd5b8290506001816103000190151590811515815250503381610320019073ffffffffffffffffffffffffffffffffffffffff16908173ffffffffffffffffffffffffffffffffffffffff1681525050600460009054906101000a900473ffffffffffffffffffffffffffffffffffffffff1673ffffffffffffffffffffffffffffffffffffffff1663ea9b440a8460400151836040518363ffffffff1660e01b8152600401611fb9929190615644565b600060405180830381600087803b158015611fd357600080fd5b505af1158015611fe7573d6000803e3d6000fd5b50505050505050565b60008054906101000a900473ffffffffffffffffffffffffffffffffffffffff1673ffffffffffffffffffffffffffffffffffffffff163373ffffffffffffffffffffffffffffffffffffffff161461207e576040517f08c379a000000000000000000000000000000000000000000000000000000000815260040161207590613c8d565b60405180910390fd5b80600460006101000a81548173ffffffffffffffffffffffffffffffffffffffff021916908373ffffffffffffffffffffffffffffffffffffffff16021790555050565b600881815481106120d257600080fd5b906000526020600020016000915054906101000a900473ffffffffffffffffffffffffffffffffffffffff1681565b600460009054906101000a900473ffffffffffffffffffffffffffffffffffffffff1681565b600460009054906101000a900473ffffffffffffffffffffffffffffffffffffffff1673ffffffffffffffffffffffffffffffffffffffff166370c1b1d783836040518363ffffffff1660e01b8152600401612184929190614623565b60006040518083038186803b15801561219c57600080fd5b505afa1580156121b0573d6000803e3d6000fd5b505050506040513d6000823e3d601f19601f820116820180604052508101906121d991906148d4565b610140015161221d576040517f08c379a0000000000000000000000000000000000000000000000000000000008152600401612214906156c7565b60405180910390fd5b5050565b600460009054906101000a900473ffffffffffffffffffffffffffffffffffffffff1673ffffffffffffffffffffffffffffffffffffffff166370c1b1d783836040518363ffffffff1660e01b815260040161227e929190614623565b60006040518083038186803b15801561229657600080fd5b505afa1580156122aa573d6000803e3d6000fd5b505050506040513d6000823e3d601f19601f820116820180604052508101906122d391906148d4565b610120015115612318576040517f08c379a000000000000000000000000000000000000000000000000000000000815260040161230f90615733565b60405180910390fd5b5050565b6000806000600460009054906101000a900473ffffffffffffffffffffffffffffffffffffffff1673ffffffffffffffffffffffffffffffffffffffff16630d2dce2287876040518363ffffffff1660e01b815260040161237e929190614623565b60006040518083038186803b15801561239657600080fd5b505afa1580156123aa573d6000803e3d6000fd5b505050506040513d6000823e3d601f19601f820116820180604052508101906123d3919061470f565b905060005b815181101561244e578473ffffffffffffffffffffffffffffffffffffffff1682828151811061240b5761240a614f17565b5b602002602001015173ffffffffffffffffffffffffffffffffffffffff16141561243b576001935080925061244e565b808061244690614fbd565b9150506123d8565b5050935093915050565b600082511415612467576127e2565b6000600460009054906101000a900473ffffffffffffffffffffffffffffffffffffffff1673ffffffffffffffffffffffffffffffffffffffff1663a2f77bcc866040518263ffffffff1660e01b81526004016124c4919061331d565b60006040518083038186803b1580156124dc57600080fd5b505afa1580156124f0573d6000803e3d6000fd5b505050506040513d6000823e3d601f19601f820116820180604052508101906125199190614330565b90506000600460009054906101000a900473ffffffffffffffffffffffffffffffffffffffff1673ffffffffffffffffffffffffffffffffffffffff1663751938af87856040518363ffffffff1660e01b815260040161257a929190614623565b60206040518083038186803b15801561259257600080fd5b505afa1580156125a6573d6000803e3d6000fd5b505050506040513d601f19601f820116820180604052508101906125ca9190614f46565b905060008114156125dc5750506127e2565b600061260960646125fb85610120015185612b9d90919063ffffffff16565b612c1890919063ffffffff16565b90506000612638606461262a86610140015186612b9d90919063ffffffff16565b612c1890919063ffffffff16565b90506000612667606461265987610160015187612b9d90919063ffffffff16565b612c1890919063ffffffff16565b9050600061267f885185612c1890919063ffffffff16565b905060005b88518110156127bf57866102000151156126fe578881815181106126ab576126aa614f17565b5b602002602001015173ffffffffffffffffffffffffffffffffffffffff166108fc839081150290604051600060405180830381858888f193505050501580156126f8573d6000803e3d6000fd5b506127ac565b86610220015173ffffffffffffffffffffffffffffffffffffffff1663a9059cbb8a838151811061273257612731614f17565b5b6020026020010151846040518363ffffffff1660e01b8152600401612758929190614e14565b602060405180830381600087803b15801561277257600080fd5b505af1158015612786573d6000803e3d6000fd5b505050506040513d601f19601f820116820180604052508101906127aa9190614488565b505b80806127b790614fbd565b915050612684565b506127d08687610320015185612c62565b6127db868a84612c62565b5050505050505b50505050565b600080600460009054906101000a900473ffffffffffffffffffffffffffffffffffffffff1673ffffffffffffffffffffffffffffffffffffffff1663a2f77bcc856040518263ffffffff1660e01b8152600401612846919061331d565b60006040518083038186803b15801561285e57600080fd5b505afa158015612872573d6000803e3d6000fd5b505050506040513d6000823e3d601f19601f8201168201806040525081019061289b9190614330565b6101a0015190506000805b82518110156128ed57848382815181106128c3576128c2614f17565b5b602002602001015114156128da57600191506128ed565b80806128e590614fbd565b9150506128a6565b50809250505092915050565b600080600460009054906101000a900473ffffffffffffffffffffffffffffffffffffffff1673ffffffffffffffffffffffffffffffffffffffff16636a3f5dc586866040518363ffffffff1660e01b8152600401612959929190614623565b60006040518083038186803b15801561297157600080fd5b505afa158015612985573d6000803e3d6000fd5b505050506040513d6000823e3d601f19601f820116820180604052508101906129ae9190615753565b90506000805b82518110156129f757848382815181106129d1576129d0614f17565b5b602002602001015114156129e457600191505b80806129ef90614fbd565b9150506129b4565b5080925050509392505050565b6000811415612a48576040517f08c379a0000000000000000000000000000000000000000000000000000000008152600401612a3f90615127565b60405180910390fd5b600460009054906101000a900473ffffffffffffffffffffffffffffffffffffffff1673ffffffffffffffffffffffffffffffffffffffff1663a2f77bcc826040518263ffffffff1660e01b8152600401612aa3919061331d565b60006040518083038186803b158015612abb57600080fd5b505afa158015612acf573d6000803e3d6000fd5b505050506040513d6000823e3d601f19601f82011682018060405250810190612af89190614330565b6103000151612b3c576040517f08c379a0000000000000000000000000000000000000000000000000000000008152600401612b33906157e8565b60405180910390fd5b50565b6000808284612b4e9190614561565b905083811015612b93576040517f08c379a0000000000000000000000000000000000000000000000000000000008152600401612b8a90615854565b60405180910390fd5b8091505092915050565b600080831415612bb05760009050612c12565b60008284612bbe9190615874565b9050828482612bcd91906158fd565b14612c0d576040517f08c379a0000000000000000000000000000000000000000000000000000000008152600401612c04906159a0565b60405180910390fd5b809150505b92915050565b6000612c5a83836040518060400160405280601a81526020017f536166654d6174683a206469766973696f6e206279207a65726f000000000000815250612d52565b905092915050565b82610200015115612cb9578173ffffffffffffffffffffffffffffffffffffffff166108fc829081150290604051600060405180830381858888f19350505050158015612cb3573d6000803e3d6000fd5b50612d4d565b82610220015173ffffffffffffffffffffffffffffffffffffffff1663a9059cbb83836040518363ffffffff1660e01b8152600401612cf9929190614e14565b602060405180830381600087803b158015612d1357600080fd5b505af1158015612d27573d6000803e3d6000fd5b505050506040513d601f19601f82011682018060405250810190612d4b9190614488565b505b505050565b60008083118290612d99576040517f08c379a0000000000000000000000000000000000000000000000000000000008152600401612d9091906159c0565b60405180910390fd5b5060008385612da891906158fd565b9050809150509392505050565b6000604051905090565b600080fd5b600080fd5b600073ffffffffffffffffffffffffffffffffffffffff82169050919050565b6000612df482612dc9565b9050919050565b612e0481612de9565b8114612e0f57600080fd5b50565b600081359050612e2181612dfb565b92915050565b600060208284031215612e3d57612e3c612dbf565b5b6000612e4b84828501612e12565b91505092915050565b6000819050919050565b6000612e79612e74612e6f84612dc9565b612e54565b612dc9565b9050919050565b6000612e8b82612e5e565b9050919050565b6000612e9d82612e80565b9050919050565b612ead81612e92565b82525050565b6000602082019050612ec86000830184612ea4565b92915050565b600080fd5b600080fd5b6000601f19601f8301169050919050565b7f4e487b7100000000000000000000000000000000000000000000000000000000600052604160045260246000fd5b612f2182612ed8565b810181811067ffffffffffffffff82111715612f4057612f3f612ee9565b5b80604052505050565b6000612f53612db5565b9050612f5f8282612f18565b919050565b600067ffffffffffffffff821115612f7f57612f7e612ee9565b5b612f8882612ed8565b9050602081019050919050565b82818337600083830152505050565b6000612fb7612fb284612f64565b612f49565b905082815260208101848484011115612fd357612fd2612ed3565b5b612fde848285612f95565b509392505050565b600082601f830112612ffb57612ffa612ece565b5b813561300b848260208601612fa4565b91505092915050565b6000806040838503121561302b5761302a612dbf565b5b600083013567ffffffffffffffff81111561304957613048612dc4565b5b61305585828601612fe6565b925050602061306685828601612e12565b9150509250929050565b600061307b82612e80565b9050919050565b61308b81613070565b82525050565b60006020820190506130a66000830184613082565b92915050565b6000602082840312156130c2576130c1612dbf565b5b600082013567ffffffffffffffff8111156130e0576130df612dc4565b5b6130ec84828501612fe6565b91505092915050565b60008115159050919050565b61310a816130f5565b82525050565b60006020820190506131256000830184613101565b92915050565b6000819050919050565b61313e8161312b565b811461314957600080fd5b50565b60008135905061315b81613135565b92915050565b60006020828403121561317757613176612dbf565b5b60006131858482850161314c565b91505092915050565b600080604083850312156131a5576131a4612dbf565b5b60006131b38582860161314c565b92505060206131c48582860161314c565b9150509250929050565b60006131d982612dc9565b9050919050565b6131e9816131ce565b81146131f457600080fd5b50565b600081359050613206816131e0565b92915050565b60006020828403121561322257613221612dbf565b5b6000613230848285016131f7565b91505092915050565b61324281612de9565b82525050565b600060208201905061325d6000830184613239565b92915050565b600061326e82612e80565b9050919050565b61327e81613263565b82525050565b60006020820190506132996000830184613275565b92915050565b6000806000606084860312156132b8576132b7612dbf565b5b600084013567ffffffffffffffff8111156132d6576132d5612dc4565b5b6132e286828701612fe6565b93505060206132f38682870161314c565b92505060406133048682870161314c565b9150509250925092565b6133178161312b565b82525050565b6000602082019050613332600083018461330e565b92915050565b6000613343826131ce565b9050919050565b61335381613338565b811461335e57600080fd5b50565b6000813590506133708161334a565b92915050565b60006020828403121561338c5761338b612dbf565b5b600061339a84828501613361565b91505092915050565b6133ac816131ce565b82525050565b60006020820190506133c760008301846133a3565b92915050565b6000806000606084860312156133e6576133e5612dbf565b5b60006133f48682870161314c565b93505060206134058682870161314c565b92505060406134168682870161314c565b9150509250925092565b600061342b826131ce565b9050919050565b61343b81613420565b811461344657600080fd5b50565b60008135905061345881613432565b92915050565b60006020828403121561347457613473612dbf565b5b600061348284828501613449565b91505092915050565b6000613496826131ce565b9050919050565b6134a68161348b565b81146134b157600080fd5b50565b6000813590506134c38161349d565b92915050565b6000602082840312156134df576134de612dbf565b5b60006134ed848285016134b4565b91505092915050565b600080fd5b600080fd5b600067ffffffffffffffff82111561351b5761351a612ee9565b5b602082029050602081019050919050565b600080fd5b6000819050919050565b61354481613531565b811461354f57600080fd5b50565b6000813590506135618161353b565b92915050565b600061357a61357584613500565b612f49565b9050808382526020820190506020840283018581111561359d5761359c61352c565b5b835b818110156135c657806135b28882613552565b84526020840193505060208101905061359f565b5050509392505050565b600082601f8301126135e5576135e4612ece565b5b81356135f5848260208601613567565b91505092915050565b600067ffffffffffffffff82111561361957613618612ee9565b5b602082029050602081019050919050565b600061363d613638846135fe565b612f49565b905080838252602082019050602084028301858111156136605761365f61352c565b5b835b818110156136895780613675888261314c565b845260208401935050602081019050613662565b5050509392505050565b600082601f8301126136a8576136a7612ece565b5b81356136b884826020860161362a565b91505092915050565b600067ffffffffffffffff8211156136dc576136db612ee9565b5b602082029050602081019050919050565b60006137006136fb846136c1565b612f49565b905080838252602082019050602084028301858111156137235761372261352c565b5b835b8181101561376a57803567ffffffffffffffff81111561374857613747612ece565b5b8086016137558982612fe6565b85526020850194505050602081019050613725565b5050509392505050565b600082601f83011261378957613788612ece565b5b81356137998482602086016136ed565b91505092915050565b6137ab816130f5565b81146137b657600080fd5b50565b6000813590506137c8816137a2565b92915050565b600061034082840312156137e5576137e46134f6565b5b6137f0610340612f49565b905060006138008482850161314c565b60008301525060206138148482850161314c565b602083015250604082013567ffffffffffffffff811115613838576138376134fb565b5b61384484828501612fe6565b604083015250606082013567ffffffffffffffff811115613868576138676134fb565b5b613874848285016135d0565b60608301525060806138888482850161314c565b60808301525060a082013567ffffffffffffffff8111156138ac576138ab6134fb565b5b6138b884828501612fe6565b60a08301525060c082013567ffffffffffffffff8111156138dc576138db6134fb565b5b6138e884828501612fe6565b60c08301525060e082013567ffffffffffffffff81111561390c5761390b6134fb565b5b61391884828501612fe6565b60e08301525061010061392d8482850161314c565b610100830152506101206139438482850161314c565b610120830152506101406139598482850161314c565b6101408301525061016061396f8482850161314c565b610160830152506101806139858482850161314c565b610180830152506101a082013567ffffffffffffffff8111156139ab576139aa6134fb565b5b6139b784828501613693565b6101a0830152506101c082013567ffffffffffffffff8111156139dd576139dc6134fb565b5b6139e984828501612fe6565b6101c0830152506101e082013567ffffffffffffffff811115613a0f57613a0e6134fb565b5b613a1b84828501613774565b6101e083015250610200613a31848285016137b9565b61020083015250610220613a4784828501613361565b61022083015250610240613a5d8482850161314c565b61024083015250610260613a738482850161314c565b61026083015250610280613a898482850161314c565b610280830152506102a0613a9f848285016137b9565b6102a0830152506102c0613ab58482850161314c565b6102c0830152506102e0613acb8482850161314c565b6102e083015250610300613ae1848285016137b9565b61030083015250610320613af7848285016131f7565b6103208301525092915050565b600060208284031215613b1a57613b19612dbf565b5b600082013567ffffffffffffffff811115613b3857613b37612dc4565b5b613b44848285016137ce565b91505092915050565b6000613b58826131ce565b9050919050565b613b6881613b4d565b8114613b7357600080fd5b50565b600081359050613b8581613b5f565b92915050565b600060208284031215613ba157613ba0612dbf565b5b6000613baf84828501613b76565b91505092915050565b6000613bc382612e80565b9050919050565b613bd381613bb8565b82525050565b6000602082019050613bee6000830184613bca565b92915050565b6000613bff82612e80565b9050919050565b613c0f81613bf4565b82525050565b6000602082019050613c2a6000830184613c06565b92915050565b600082825260208201905092915050565b7f4f6e6c79204f776e657200000000000000000000000000000000000000000000600082015250565b6000613c77600a83613c30565b9150613c8282613c41565b602082019050919050565b60006020820190508181036000830152613ca681613c6a565b9050919050565b600081519050919050565b600081905092915050565b60005b83811015613ce1578082015181840152602081019050613cc6565b83811115613cf0576000848401525b50505050565b6000613d0182613cad565b613d0b8185613cb8565b9350613d1b818560208601613cc3565b80840191505092915050565b6000613d338284613cf6565b915081905092915050565b600081519050613d4d81613135565b92915050565b6000613d66613d6184612f64565b612f49565b905082815260208101848484011115613d8257613d81612ed3565b5b613d8d848285613cc3565b509392505050565b600082601f830112613daa57613da9612ece565b5b8151613dba848260208601613d53565b91505092915050565b600081519050613dd28161353b565b92915050565b6000613deb613de684613500565b612f49565b90508083825260208201905060208402830185811115613e0e57613e0d61352c565b5b835b81811015613e375780613e238882613dc3565b845260208401935050602081019050613e10565b5050509392505050565b600082601f830112613e5657613e55612ece565b5b8151613e66848260208601613dd8565b91505092915050565b6000613e82613e7d846135fe565b612f49565b90508083825260208201905060208402830185811115613ea557613ea461352c565b5b835b81811015613ece5780613eba8882613d3e565b845260208401935050602081019050613ea7565b5050509392505050565b600082601f830112613eed57613eec612ece565b5b8151613efd848260208601613e6f565b91505092915050565b6000613f19613f14846136c1565b612f49565b90508083825260208201905060208402830185811115613f3c57613f3b61352c565b5b835b81811015613f8357805167ffffffffffffffff811115613f6157613f60612ece565b5b808601613f6e8982613d95565b85526020850194505050602081019050613f3e565b5050509392505050565b600082601f830112613fa257613fa1612ece565b5b8151613fb2848260208601613f06565b91505092915050565b600081519050613fca816137a2565b92915050565b600081519050613fdf8161334a565b92915050565b600081519050613ff4816131e0565b92915050565b60006103408284031215614011576140106134f6565b5b61401c610340612f49565b9050600061402c84828501613d3e565b600083015250602061404084828501613d3e565b602083015250604082015167ffffffffffffffff811115614064576140636134fb565b5b61407084828501613d95565b604083015250606082015167ffffffffffffffff811115614094576140936134fb565b5b6140a084828501613e41565b60608301525060806140b484828501613d3e565b60808301525060a082015167ffffffffffffffff8111156140d8576140d76134fb565b5b6140e484828501613d95565b60a08301525060c082015167ffffffffffffffff811115614108576141076134fb565b5b61411484828501613d95565b60c08301525060e082015167ffffffffffffffff811115614138576141376134fb565b5b61414484828501613d95565b60e08301525061010061415984828501613d3e565b6101008301525061012061416f84828501613d3e565b6101208301525061014061418584828501613d3e565b6101408301525061016061419b84828501613d3e565b610160830152506101806141b184828501613d3e565b610180830152506101a082015167ffffffffffffffff8111156141d7576141d66134fb565b5b6141e384828501613ed8565b6101a0830152506101c082015167ffffffffffffffff811115614209576142086134fb565b5b61421584828501613d95565b6101c0830152506101e082015167ffffffffffffffff81111561423b5761423a6134fb565b5b61424784828501613f8d565b6101e08301525061020061425d84828501613fbb565b6102008301525061022061427384828501613fd0565b6102208301525061024061428984828501613d3e565b6102408301525061026061429f84828501613d3e565b610260830152506102806142b584828501613d3e565b610280830152506102a06142cb84828501613fbb565b6102a0830152506102c06142e184828501613d3e565b6102c0830152506102e06142f784828501613d3e565b6102e08301525061030061430d84828501613fbb565b6103008301525061032061432384828501613fe5565b6103208301525092915050565b60006020828403121561434657614345612dbf565b5b600082015167ffffffffffffffff81111561436457614363612dc4565b5b61437084828501613ffa565b91505092915050565b7f486173207469636b657473000000000000000000000000000000000000000000600082015250565b60006143af600b83613c30565b91506143ba82614379565b602082019050919050565b600060208201905081810360008301526143de816143a2565b9050919050565b7f496e73756666696369656e740000000000000000000000000000000000000000600082015250565b600061441b600c83613c30565b9150614426826143e5565b602082019050919050565b6000602082019050818103600083015261444a8161440e565b9050919050565b600060608201905061446660008301866133a3565b61447360208301856133a3565b614480604083018461330e565b949350505050565b60006020828403121561449e5761449d612dbf565b5b60006144ac84828501613fbb565b91505092915050565b60006060820190506144ca600083018661330e565b6144d7602083018561330e565b6144e460408301846133a3565b949350505050565b6144f581613531565b82525050565b6000606082019050614510600083018661330e565b61451d602083018561330e565b61452a60408301846144ec565b949350505050565b7f4e487b7100000000000000000000000000000000000000000000000000000000600052601160045260246000fd5b600061456c8261312b565b91506145778361312b565b9250827fffffffffffffffffffffffffffffffffffffffffffffffffffffffffffffffff038211156145ac576145ab614532565b5b828201905092915050565b7f4f6e6c79206f70657261746f7200000000000000000000000000000000000000600082015250565b60006145ed600d83613c30565b91506145f8826145b7565b602082019050919050565b6000602082019050818103600083015261461c816145e0565b9050919050565b6000604082019050614638600083018561330e565b614645602083018461330e565b9392505050565b600067ffffffffffffffff82111561466757614666612ee9565b5b602082029050602081019050919050565b600061468b6146868461464c565b612f49565b905080838252602082019050602084028301858111156146ae576146ad61352c565b5b835b818110156146d757806146c38882613fe5565b8452602084019350506020810190506146b0565b5050509392505050565b600082601f8301126146f6576146f5612ece565b5b8151614706848260208601614678565b91505092915050565b60006020828403121561472557614724612dbf565b5b600082015167ffffffffffffffff81111561474357614742612dc4565b5b61474f848285016146e1565b91505092915050565b6000610160828403121561476f5761476e6134f6565b5b61477a610160612f49565b9050600061478a84828501613d3e565b600083015250602061479e84828501613d3e565b602083015250604082015167ffffffffffffffff8111156147c2576147c16134fb565b5b6147ce848285016146e1565b60408301525060606147e284828501613d3e565b60608301525060806147f684828501613fe5565b60808301525060a061480a84828501613d3e565b60a08301525060c082015167ffffffffffffffff81111561482e5761482d6134fb565b5b61483a84828501613e41565b60c08301525060e082015167ffffffffffffffff81111561485e5761485d6134fb565b5b61486a84828501613e41565b60e08301525061010082015167ffffffffffffffff81111561488f5761488e6134fb565b5b61489b84828501613e41565b610100830152506101206148b184828501613fbb565b610120830152506101406148c784828501613fbb565b6101408301525092915050565b6000602082840312156148ea576148e9612dbf565b5b600082015167ffffffffffffffff81111561490857614907612dc4565b5b61491484828501614758565b91505092915050565b6000806000806080858703121561493757614936612dbf565b5b600085015167ffffffffffffffff81111561495557614954612dc4565b5b61496187828801613e41565b945050602085015167ffffffffffffffff81111561498257614981612dc4565b5b61498e87828801613e41565b935050604085015167ffffffffffffffff8111156149af576149ae612dc4565b5b6149bb87828801613e41565b925050606085015167ffffffffffffffff8111156149dc576149db612dc4565b5b6149e8878288016146e1565b91505092959194509250565b6149fd8161312b565b82525050565b600081519050919050565b600082825260208201905092915050565b6000819050602082019050919050565b614a38816131ce565b82525050565b6000614a4a8383614a2f565b60208301905092915050565b6000602082019050919050565b6000614a6e82614a03565b614a788185614a0e565b9350614a8383614a1f565b8060005b83811015614ab4578151614a9b8882614a3e565b9750614aa683614a56565b925050600181019050614a87565b5085935050505092915050565b600081519050919050565b600082825260208201905092915050565b6000819050602082019050919050565b614af681613531565b82525050565b6000614b088383614aed565b60208301905092915050565b6000602082019050919050565b6000614b2c82614ac1565b614b368185614acc565b9350614b4183614add565b8060005b83811015614b72578151614b598882614afc565b9750614b6483614b14565b925050600181019050614b45565b5085935050505092915050565b614b88816130f5565b82525050565b600061016083016000830151614ba760008601826149f4565b506020830151614bba60208601826149f4565b5060408301518482036040860152614bd28282614a63565b9150506060830151614be760608601826149f4565b506080830151614bfa6080860182614a2f565b5060a0830151614c0d60a08601826149f4565b5060c083015184820360c0860152614c258282614b21565b91505060e083015184820360e0860152614c3f8282614b21565b915050610100830151848203610100860152614c5b8282614b21565b915050610120830151614c72610120860182614b7f565b50610140830151614c87610140860182614b7f565b508091505092915050565b6000606082019050614ca7600083018661330e565b614cb4602083018561330e565b8181036040830152614cc68184614b8e565b9050949350505050565b7f6e6f742062756666000000000000000000000000000000000000000000000000600082015250565b6000614d06600883613c30565b9150614d1182614cd0565b602082019050919050565b60006020820190508181036000830152614d3581614cf9565b9050919050565b7f4e6f7420696e20726f756e640000000000000000000000000000000000000000600082015250565b6000614d72600c83613c30565b9150614d7d82614d3c565b602082019050919050565b60006020820190508181036000830152614da181614d65565b9050919050565b7f4861732062756666000000000000000000000000000000000000000000000000600082015250565b6000614dde600883613c30565b9150614de982614da8565b602082019050919050565b60006020820190508181036000830152614e0d81614dd1565b9050919050565b6000604082019050614e2960008301856133a3565b614e36602083018461330e565b9392505050565b6000606082019050614e52600083018661330e565b614e5f602083018561330e565b614e6c604083018461330e565b949350505050565b7f50726570617920666f7220676173000000000000000000000000000000000000600082015250565b6000614eaa600e83613c30565b9150614eb582614e74565b602082019050919050565b60006020820190508181036000830152614ed981614e9d565b9050919050565b6000606082019050614ef5600083018661330e565b614f0260208301856133a3565b614f0f604083018461330e565b949350505050565b7f4e487b7100000000000000000000000000000000000000000000000000000000600052603260045260246000fd5b600060208284031215614f5c57614f5b612dbf565b5b6000614f6a84828501613d3e565b91505092915050565b6000614f7e82612e80565b9050919050565b614f8e81614f73565b82525050565b6000604082019050614fa96000830185614f85565b614fb6602083018461330e565b9392505050565b6000614fc88261312b565b91507fffffffffffffffffffffffffffffffffffffffffffffffffffffffffffffffff821415614ffb57614ffa614532565b5b600182019050919050565b600061501182613cad565b61501b8185613c30565b935061502b818560208601613cc3565b61503481612ed8565b840191505092915050565b600060408201905081810360008301526150598185615006565b905061506860208301846133a3565b9392505050565b7f4f6e6c792061646d696e00000000000000000000000000000000000000000000600082015250565b60006150a5600a83613c30565b91506150b08261506f565b602082019050919050565b600060208201905081810360008301526150d481615098565b9050919050565b7f496e76616c696420696400000000000000000000000000000000000000000000600082015250565b6000615111600a83613c30565b915061511c826150db565b602082019050919050565b6000602082019050818103600083015261514081615104565b9050919050565b7f70726f706f7274696f6e20657863656564656400000000000000000000000000600082015250565b600061517d601383613c30565b915061518882615147565b602082019050919050565b600060208201905081810360008301526151ac81615170565b9050919050565b7f45786973742067616d6500000000000000000000000000000000000000000000600082015250565b60006151e9600a83613c30565b91506151f4826151b3565b602082019050919050565b60006020820190508181036000830152615218816151dc565b9050919050565b600082825260208201905092915050565b600061523b82613cad565b615245818561521f565b9350615255818560208601613cc3565b61525e81612ed8565b840191505092915050565b600081519050919050565b600082825260208201905092915050565b6000819050602082019050919050565b60006152a183836149f4565b60208301905092915050565b6000602082019050919050565b60006152c582615269565b6152cf8185615274565b93506152da83615285565b8060005b8381101561530b5781516152f28882615295565b97506152fd836152ad565b9250506001810190506152de565b5085935050505092915050565b600081519050919050565b600082825260208201905092915050565b6000819050602082019050919050565b60006153508383615230565b905092915050565b6000602082019050919050565b600061537082615318565b61537a8185615323565b93508360208202850161538c85615334565b8060005b858110156153c857848403895281516153a98582615344565b94506153b483615358565b925060208a01995050600181019050615390565b50829750879550505050505092915050565b6153e381613bb8565b82525050565b60006103408301600083015161540260008601826149f4565b50602083015161541560208601826149f4565b506040830151848203604086015261542d8282615230565b915050606083015184820360608601526154478282614b21565b915050608083015161545c60808601826149f4565b5060a083015184820360a08601526154748282615230565b91505060c083015184820360c086015261548e8282615230565b91505060e083015184820360e08601526154a88282615230565b9150506101008301516154bf6101008601826149f4565b506101208301516154d46101208601826149f4565b506101408301516154e96101408601826149f4565b506101608301516154fe6101608601826149f4565b506101808301516155136101808601826149f4565b506101a08301518482036101a086015261552d82826152ba565b9150506101c08301518482036101c08601526155498282615230565b9150506101e08301518482036101e08601526155658282615365565b91505061020083015161557c610200860182614b7f565b506102208301516155916102208601826153da565b506102408301516155a66102408601826149f4565b506102608301516155bb6102608601826149f4565b506102808301516155d06102808601826149f4565b506102a08301516155e56102a0860182614b7f565b506102c08301516155fa6102c08601826149f4565b506102e083015161560f6102e08601826149f4565b50610300830151615624610300860182614b7f565b50610320830151615639610320860182614a2f565b508091505092915050565b6000604082019050818103600083015261565e8185615006565b9050818103602083015261567281846153e9565b90509392505050565b7f4e6f7420737461727420726f756e640000000000000000000000000000000000600082015250565b60006156b1600f83613c30565b91506156bc8261567b565b602082019050919050565b600060208201905081810360008301526156e0816156a4565b9050919050565b7f4f76657220726f756e6400000000000000000000000000000000000000000000600082015250565b600061571d600a83613c30565b9150615728826156e7565b602082019050919050565b6000602082019050818103600083015261574c81615710565b9050919050565b60006020828403121561576957615768612dbf565b5b600082015167ffffffffffffffff81111561578757615786612dc4565b5b61579384828501613ed8565b91505092915050565b7f4e6f742065786973742067616d65000000000000000000000000000000000000600082015250565b60006157d2600e83613c30565b91506157dd8261579c565b602082019050919050565b60006020820190508181036000830152615801816157c5565b9050919050565b7f6164646974696f6e206f766572666c6f77000000000000000000000000000000600082015250565b600061583e601183613c30565b915061584982615808565b602082019050919050565b6000602082019050818103600083015261586d81615831565b9050919050565b600061587f8261312b565b915061588a8361312b565b9250817fffffffffffffffffffffffffffffffffffffffffffffffffffffffffffffffff04831182151516156158c3576158c2614532565b5b828202905092915050565b7f4e487b7100000000000000000000000000000000000000000000000000000000600052601260045260246000fd5b60006159088261312b565b91506159138361312b565b925082615923576159226158ce565b5b828204905092915050565b7f536166654d6174683a206d756c7469706c69636174696f6e206f766572666c6f60008201527f7700000000000000000000000000000000000000000000000000000000000000602082015250565b600061598a602183613c30565b91506159958261592e565b604082019050919050565b600060208201905081810360008301526159b98161597d565b9050919050565b600060208201905081810360008301526159da8184615006565b90509291505056fea26469706673582212205b3d0ddb35b2f1e42b7f42c9667c399e02c2cf1a7bed8f125c328d9127aae4e564736f6c63430008090033",
  "linkReferences": {},
  "deployedLinkReferences": {}
}