{
  "_format": "hh-sol-artifact-1",
  "contractName": "Game",
  "sourceName": "src/contracts/game/game.sol",
  "abi": [
    {
      "inputs": [
        {
          "internalType": "address payable",
          "name": "_operator",
          "type": "address"
        },
        {
          "internalType": "contract IAdminData",
          "name": "_adminData",
          "type": "address"
        },
        {
          "internalType": "contract IGameData",
          "name": "_gameData",
          "type": "address"
        },
        {
          "internalType": "contract IQuizToken",
          "name": "_buffToken",
          "type": "address"
        },
        {
          "internalType": "uint256",
          "name": "_buffValue",
          "type": "uint256"
        }
      ],
      "stateMutability": "nonpayable",
      "type": "constructor"
    },
    {
      "inputs": [
        {
          "internalType": "string",
          "name": "_appId",
          "type": "string"
        },
        {
          "internalType": "address payable",
          "name": "_newOperator",
          "type": "address"
        }
      ],
      "name": "addAppOperator",
      "outputs": [],
      "stateMutability": "nonpayable",
      "type": "function"
    },
    {
      "inputs": [],
      "name": "adminData",
      "outputs": [
        {
          "internalType": "contract IAdminData",
          "name": "",
          "type": "address"
        }
      ],
      "stateMutability": "view",
      "type": "function"
    },
    {
      "inputs": [],
      "name": "buffToken",
      "outputs": [
        {
          "internalType": "contract IQuizToken",
          "name": "",
          "type": "address"
        }
      ],
      "stateMutability": "view",
      "type": "function"
    },
    {
      "inputs": [],
      "name": "buffValue",
      "outputs": [
        {
          "internalType": "uint256",
          "name": "",
          "type": "uint256"
        }
      ],
      "stateMutability": "view",
      "type": "function"
    },
    {
      "inputs": [
        {
          "internalType": "uint256",
          "name": "_gameId",
          "type": "uint256"
        },
        {
          "internalType": "uint256",
          "name": "_round",
          "type": "uint256"
        },
        {
          "internalType": "uint256",
          "name": "_buffId",
          "type": "uint256"
        }
      ],
      "name": "buyBuff",
      "outputs": [],
      "stateMutability": "nonpayable",
      "type": "function"
    },
    {
      "inputs": [
        {
          "internalType": "uint256",
          "name": "_gameId",
          "type": "uint256"
        },
        {
          "internalType": "uint256",
          "name": "_round",
          "type": "uint256"
        }
      ],
      "name": "buyErc20Ticket",
      "outputs": [],
      "stateMutability": "nonpayable",
      "type": "function"
    },
    {
      "inputs": [
        {
          "internalType": "uint256",
          "name": "_gameId",
          "type": "uint256"
        },
        {
          "internalType": "uint256",
          "name": "_round",
          "type": "uint256"
        }
      ],
      "name": "buyEthTicket",
      "outputs": [],
      "stateMutability": "payable",
      "type": "function"
    },
    {
      "inputs": [
        {
          "internalType": "contract IAdminData",
          "name": "_newData",
          "type": "address"
        }
      ],
      "name": "changeAdminData",
      "outputs": [],
      "stateMutability": "nonpayable",
      "type": "function"
    },
    {
      "inputs": [
        {
          "internalType": "contract IQuizToken",
          "name": "_newToken",
          "type": "address"
        }
      ],
      "name": "changeBuffToken",
      "outputs": [],
      "stateMutability": "nonpayable",
      "type": "function"
    },
    {
      "inputs": [
        {
          "internalType": "uint256",
          "name": "_newValue",
          "type": "uint256"
        }
      ],
      "name": "changeBuffValue",
      "outputs": [],
      "stateMutability": "nonpayable",
      "type": "function"
    },
    {
      "inputs": [
        {
          "internalType": "contract IGameData",
          "name": "_newData",
          "type": "address"
        }
      ],
      "name": "changeGameData",
      "outputs": [],
      "stateMutability": "nonpayable",
      "type": "function"
    },
    {
      "inputs": [
        {
          "internalType": "address payable",
          "name": "_newOperator",
          "type": "address"
        }
      ],
      "name": "changeOperator",
      "outputs": [],
      "stateMutability": "nonpayable",
      "type": "function"
    },
    {
      "inputs": [
        {
          "components": [
            {
              "internalType": "uint256",
              "name": "id",
              "type": "uint256"
            },
            {
              "internalType": "uint256",
              "name": "category",
              "type": "uint256"
            },
            {
              "internalType": "string",
              "name": "appId",
              "type": "string"
            },
            {
              "internalType": "int256",
              "name": "groupId",
              "type": "int256"
            },
            {
              "internalType": "uint256",
              "name": "botType",
              "type": "uint256"
            },
            {
              "internalType": "string",
              "name": "title",
              "type": "string"
            },
            {
              "internalType": "string",
              "name": "introduction",
              "type": "string"
            },
            {
              "internalType": "string",
              "name": "story",
              "type": "string"
            },
            {
              "internalType": "uint256",
              "name": "eliminateProportion",
              "type": "uint256"
            },
            {
              "internalType": "uint256",
              "name": "awardProportion",
              "type": "uint256"
            },
            {
              "internalType": "uint256",
              "name": "winNum",
              "type": "uint256"
            },
            {
              "internalType": "uint256[]",
              "name": "buffIds",
              "type": "uint256[]"
            },
            {
              "internalType": "string[]",
              "name": "events",
              "type": "string[]"
            },
            {
              "internalType": "bool",
              "name": "ticketIsEth",
              "type": "bool"
            },
            {
              "internalType": "contract IERC20",
              "name": "ticketsToken",
              "type": "address"
            },
            {
              "internalType": "uint256",
              "name": "ticketAmount",
              "type": "uint256"
            },
            {
              "internalType": "uint256",
              "name": "effectStartTime",
              "type": "uint256"
            },
            {
              "internalType": "uint256",
              "name": "effectEndTime",
              "type": "uint256"
            },
            {
              "internalType": "bool",
              "name": "daily",
              "type": "bool"
            },
            {
              "internalType": "uint256",
              "name": "startH",
              "type": "uint256"
            },
            {
              "internalType": "uint256",
              "name": "startM",
              "type": "uint256"
            },
            {
              "internalType": "bool",
              "name": "exist",
              "type": "bool"
            },
            {
              "internalType": "address",
              "name": "creator",
              "type": "address"
            }
          ],
          "internalType": "struct IGameData.GameDetail",
          "name": "_game",
          "type": "tuple"
        }
      ],
      "name": "createGame",
      "outputs": [],
      "stateMutability": "nonpayable",
      "type": "function"
    },
    {
      "inputs": [
        {
          "internalType": "string",
          "name": "_appId",
          "type": "string"
        }
      ],
      "name": "delAppOperator",
      "outputs": [],
      "stateMutability": "nonpayable",
      "type": "function"
    },
    {
      "inputs": [
        {
          "internalType": "contract IERC20",
          "name": "",
          "type": "address"
        }
      ],
      "name": "erc20Exist",
      "outputs": [
        {
          "internalType": "bool",
          "name": "",
          "type": "bool"
        }
      ],
      "stateMutability": "view",
      "type": "function"
    },
    {
      "inputs": [
        {
          "internalType": "uint256",
          "name": "",
          "type": "uint256"
        }
      ],
      "name": "erc20List",
      "outputs": [
        {
          "internalType": "contract IERC20",
          "name": "",
          "type": "address"
        }
      ],
      "stateMutability": "view",
      "type": "function"
    },
    {
      "inputs": [],
      "name": "gameData",
      "outputs": [
        {
          "internalType": "contract IGameData",
          "name": "",
          "type": "address"
        }
      ],
      "stateMutability": "view",
      "type": "function"
    },
    {
      "inputs": [
        {
          "internalType": "string",
          "name": "_appId",
          "type": "string"
        },
        {
          "internalType": "uint256",
          "name": "_gameId",
          "type": "uint256"
        },
        {
          "internalType": "uint256",
          "name": "_round",
          "type": "uint256"
        }
      ],
      "name": "gameRoundOver",
      "outputs": [],
      "stateMutability": "nonpayable",
      "type": "function"
    },
    {
      "inputs": [
        {
          "internalType": "string",
          "name": "_appId",
          "type": "string"
        }
      ],
      "name": "isOperator",
      "outputs": [
        {
          "internalType": "bool",
          "name": "",
          "type": "bool"
        }
      ],
      "stateMutability": "view",
      "type": "function"
    },
    {
      "inputs": [],
      "name": "operator",
      "outputs": [
        {
          "internalType": "address payable",
          "name": "",
          "type": "address"
        }
      ],
      "stateMutability": "view",
      "type": "function"
    },
    {
      "inputs": [],
      "name": "owner",
      "outputs": [
        {
          "internalType": "address",
          "name": "",
          "type": "address"
        }
      ],
      "stateMutability": "view",
      "type": "function"
    },
    {
      "inputs": [
        {
          "internalType": "string",
          "name": "_appId",
          "type": "string"
        },
        {
          "internalType": "uint256",
          "name": "_gameId",
          "type": "uint256"
        },
        {
          "internalType": "uint256",
          "name": "_launchTime",
          "type": "uint256"
        }
      ],
      "name": "startGame",
      "outputs": [],
      "stateMutability": "payable",
      "type": "function"
    },
    {
      "inputs": [
        {
          "internalType": "address payable",
          "name": "_to",
          "type": "address"
        }
      ],
      "name": "transferAsset",
      "outputs": [],
      "stateMutability": "nonpayable",
      "type": "function"
    },
    {
      "inputs": [
        {
          "internalType": "address",
          "name": "_newOwner",
          "type": "address"
        }
      ],
      "name": "transferOwner",
      "outputs": [],
      "stateMutability": "nonpayable",
      "type": "function"
    }
  ],
  "bytecode": "0x60806040523480156200001157600080fd5b506040516200637838038062006378833981810160405281019062000037919062000315565b336000806101000a81548173ffffffffffffffffffffffffffffffffffffffff021916908373ffffffffffffffffffffffffffffffffffffffff16021790555084600160006101000a81548173ffffffffffffffffffffffffffffffffffffffff021916908373ffffffffffffffffffffffffffffffffffffffff16021790555083600360006101000a81548173ffffffffffffffffffffffffffffffffffffffff021916908373ffffffffffffffffffffffffffffffffffffffff16021790555082600460006101000a81548173ffffffffffffffffffffffffffffffffffffffff021916908373ffffffffffffffffffffffffffffffffffffffff16021790555081600560006101000a81548173ffffffffffffffffffffffffffffffffffffffff021916908373ffffffffffffffffffffffffffffffffffffffff1602179055508060068190555050505050506200039d565b600080fd5b600073ffffffffffffffffffffffffffffffffffffffff82169050919050565b6000620001bf8262000192565b9050919050565b620001d181620001b2565b8114620001dd57600080fd5b50565b600081519050620001f181620001c6565b92915050565b6000620002048262000192565b9050919050565b60006200021882620001f7565b9050919050565b6200022a816200020b565b81146200023657600080fd5b50565b6000815190506200024a816200021f565b92915050565b60006200025d82620001f7565b9050919050565b6200026f8162000250565b81146200027b57600080fd5b50565b6000815190506200028f8162000264565b92915050565b6000620002a282620001f7565b9050919050565b620002b48162000295565b8114620002c057600080fd5b50565b600081519050620002d481620002a9565b92915050565b6000819050919050565b620002ef81620002da565b8114620002fb57600080fd5b50565b6000815190506200030f81620002e4565b92915050565b600080600080600060a086880312156200033457620003336200018d565b5b60006200034488828901620001e0565b9550506020620003578882890162000239565b94505060406200036a888289016200027e565b93505060606200037d88828901620002c3565b92505060806200039088828901620002fe565b9150509295509295909350565b615fcb80620003ad6000396000f3fe60806040526004361061018b5760003560e01c80637e3dfe5c116100d6578063bb3f09111161007f578063e606c9b811610059578063e606c9b814610505578063e86098f51461052e578063fa24f7431461056b5761018b565b8063bb3f09111461048a578063c7d7b660146104b3578063ce6e98f2146104dc5761018b565b8063b05c3f67116100b0578063b05c3f671461041c578063b2888e4914610445578063b7579b50146104615761018b565b80637e3dfe5c1461038957806380690863146103c65780638da5cb5b146103f15761018b565b80632483eee5116101385780635a2a7923116101125780635a2a7923146103195780635cffe600146103445780637742b301146103605761018b565b80632483eee51461029c5780634fb2e45d146102c5578063570ca735146102ee5761018b565b80630bd09979116101695780630bd099791461020d5780631f041bd11461023657806321010323146102735761018b565b806306394c9b1461019057806306d2ae8e146101b957806307603a3a146101e4575b600080fd5b34801561019c57600080fd5b506101b760048036038101906101b2919061362b565b610596565b005b3480156101c557600080fd5b506101ce610668565b6040516101db91906136b7565b60405180910390f35b3480156101f057600080fd5b5061020b60048036038101906102069190613708565b61068e565b005b34801561021957600080fd5b50610234600480360381019061022f919061388e565b61092c565b005b34801561024257600080fd5b5061025d600480360381019061025891906138ea565b610a1b565b60405161026a919061394e565b60405180910390f35b34801561027f57600080fd5b5061029a60048036038101906102959190613eb6565b610ae9565b005b3480156102a857600080fd5b506102c360048036038101906102be9190613eff565b610e16565b005b3480156102d157600080fd5b506102ec60048036038101906102e79190613f2c565b610eae565b005b3480156102fa57600080fd5b50610303610f7f565b6040516103109190613f68565b60405180910390f35b34801561032557600080fd5b5061032e610fa5565b60405161033b9190613fa4565b60405180910390f35b61035e60048036038101906103599190613708565b610fcb565b005b34801561036c57600080fd5b5061038760048036038101906103829190613fbf565b611208565b005b34801561039557600080fd5b506103b060048036038101906103ab919061402e565b6116c1565b6040516103bd919061394e565b60405180910390f35b3480156103d257600080fd5b506103db6116e1565b6040516103e8919061406a565b60405180910390f35b3480156103fd57600080fd5b506104066116e7565b6040516104139190614094565b60405180910390f35b34801561042857600080fd5b50610443600480360381019061043e91906140af565b61170b565b005b61045f600480360381019061045a9190613fbf565b6118ee565b005b34801561046d57600080fd5b5061048860048036038101906104839190614140565b611ab6565b005b34801561049657600080fd5b506104b160048036038101906104ac91906138ea565b611b88565b005b3480156104bf57600080fd5b506104da60048036038101906104d5919061362b565b611c77565b005b3480156104e857600080fd5b5061050360048036038101906104fe91906141ab565b611f1f565b005b34801561051157600080fd5b5061052c60048036038101906105279190614216565b611ff1565b005b34801561053a57600080fd5b5061055560048036038101906105509190613eff565b6120c3565b6040516105629190614264565b60405180910390f35b34801561057757600080fd5b50610580612102565b60405161058d91906142a0565b60405180910390f35b60008054906101000a900473ffffffffffffffffffffffffffffffffffffffff1673ffffffffffffffffffffffffffffffffffffffff163373ffffffffffffffffffffffffffffffffffffffff1614610624576040517f08c379a000000000000000000000000000000000000000000000000000000000815260040161061b90614318565b60405180910390fd5b80600160006101000a81548173ffffffffffffffffffffffffffffffffffffffff021916908373ffffffffffffffffffffffffffffffffffffffff16021790555050565b600360009054906101000a900473ffffffffffffffffffffffffffffffffffffffff1681565b6106988282612128565b6106a28282612222565b6000600460009054906101000a900473ffffffffffffffffffffffffffffffffffffffff1673ffffffffffffffffffffffffffffffffffffffff1663a2f77bcc846040518263ffffffff1660e01b81526004016106ff919061406a565b60006040518083038186803b15801561071757600080fd5b505afa15801561072b573d6000803e3d6000fd5b505050506040513d6000823e3d601f19601f82011682018060405250810190610754919061484c565b9050806101a001511561079c576040517f08c379a0000000000000000000000000000000000000000000000000000000008152600401610793906148e1565b60405180910390fd5b60006107a984843361231d565b50905080156107ed576040517f08c379a00000000000000000000000000000000000000000000000000000000081526004016107e49061494d565b60405180910390fd5b816101c0015173ffffffffffffffffffffffffffffffffffffffff166323b872dd3330856101e001516040518463ffffffff1660e01b81526004016108349392919061496d565b602060405180830381600087803b15801561084e57600080fd5b505af1158015610862573d6000803e3d6000fd5b505050506040513d601f19601f8201168201806040525081019061088691906149a4565b50600460009054906101000a900473ffffffffffffffffffffffffffffffffffffffff1673ffffffffffffffffffffffffffffffffffffffff1663ffe41ad38585336040518463ffffffff1660e01b81526004016108e6939291906149d1565b600060405180830381600087803b15801561090057600080fd5b505af1158015610914573d6000803e3d6000fd5b50505050610926826101c00151612459565b50505050565b60008054906101000a900473ffffffffffffffffffffffffffffffffffffffff1673ffffffffffffffffffffffffffffffffffffffff163373ffffffffffffffffffffffffffffffffffffffff16146109ba576040517f08c379a00000000000000000000000000000000000000000000000000000000081526004016109b190614318565b60405180910390fd5b806002836040516109cb9190614a4f565b908152602001604051809103902060006101000a81548173ffffffffffffffffffffffffffffffffffffffff021916908373ffffffffffffffffffffffffffffffffffffffff1602179055505050565b60003373ffffffffffffffffffffffffffffffffffffffff16600160009054906101000a900473ffffffffffffffffffffffffffffffffffffffff1673ffffffffffffffffffffffffffffffffffffffff161480610ae257503373ffffffffffffffffffffffffffffffffffffffff16600283604051610a9b9190614a4f565b908152602001604051809103902060009054906101000a900473ffffffffffffffffffffffffffffffffffffffff1673ffffffffffffffffffffffffffffffffffffffff16145b9050919050565b8060400151600360009054906101000a900473ffffffffffffffffffffffffffffffffffffffff1673ffffffffffffffffffffffffffffffffffffffff1663b796e2b082336040518363ffffffff1660e01b8152600401610b4b929190614a9f565b60206040518083038186803b158015610b6357600080fd5b505afa158015610b77573d6000803e3d6000fd5b505050506040513d601f19601f82011682018060405250810190610b9b91906149a4565b80610bab5750610baa81610a1b565b5b610bea576040517f08c379a0000000000000000000000000000000000000000000000000000000008152600401610be190614b1b565b60405180910390fd5b600082600001511415610c32576040517f08c379a0000000000000000000000000000000000000000000000000000000008152600401610c2990614b87565b60405180910390fd5b6000600460009054906101000a900473ffffffffffffffffffffffffffffffffffffffff1673ffffffffffffffffffffffffffffffffffffffff1663a2f77bcc84600001516040518263ffffffff1660e01b8152600401610c93919061406a565b60006040518083038186803b158015610cab57600080fd5b505afa158015610cbf573d6000803e3d6000fd5b505050506040513d6000823e3d601f19601f82011682018060405250810190610ce8919061484c565b9050806102a0015115610d30576040517f08c379a0000000000000000000000000000000000000000000000000000000008152600401610d2790614bf3565b60405180910390fd5b8290506001816102a001901515908115158152505033816102c0019073ffffffffffffffffffffffffffffffffffffffff16908173ffffffffffffffffffffffffffffffffffffffff1681525050600460009054906101000a900473ffffffffffffffffffffffffffffffffffffffff1673ffffffffffffffffffffffffffffffffffffffff16639851ad4b8460400151836040518363ffffffff1660e01b8152600401610ddf929190615027565b600060405180830381600087803b158015610df957600080fd5b505af1158015610e0d573d6000803e3d6000fd5b50505050505050565b60008054906101000a900473ffffffffffffffffffffffffffffffffffffffff1673ffffffffffffffffffffffffffffffffffffffff163373ffffffffffffffffffffffffffffffffffffffff1614610ea4576040517f08c379a0000000000000000000000000000000000000000000000000000000008152600401610e9b90614318565b60405180910390fd5b8060068190555050565b60008054906101000a900473ffffffffffffffffffffffffffffffffffffffff1673ffffffffffffffffffffffffffffffffffffffff163373ffffffffffffffffffffffffffffffffffffffff1614610f3c576040517f08c379a0000000000000000000000000000000000000000000000000000000008152600401610f3390614318565b60405180910390fd5b806000806101000a81548173ffffffffffffffffffffffffffffffffffffffff021916908373ffffffffffffffffffffffffffffffffffffffff16021790555050565b600160009054906101000a900473ffffffffffffffffffffffffffffffffffffffff1681565b600560009054906101000a900473ffffffffffffffffffffffffffffffffffffffff1681565b610fd58282612128565b610fdf8282612222565b6000600460009054906101000a900473ffffffffffffffffffffffffffffffffffffffff1673ffffffffffffffffffffffffffffffffffffffff1663a2f77bcc846040518263ffffffff1660e01b815260040161103c919061406a565b60006040518083038186803b15801561105457600080fd5b505afa158015611068573d6000803e3d6000fd5b505050506040513d6000823e3d601f19601f82011682018060405250810190611091919061484c565b9050806101a001516110d8576040517f08c379a00000000000000000000000000000000000000000000000000000000081526004016110cf906150aa565b60405180910390fd5b60006110e584843361231d565b5090508015611129576040517f08c379a00000000000000000000000000000000000000000000000000000000081526004016111209061494d565b60405180910390fd5b816101e00151341015611171576040517f08c379a000000000000000000000000000000000000000000000000000000000815260040161116890615116565b60405180910390fd5b600460009054906101000a900473ffffffffffffffffffffffffffffffffffffffff1673ffffffffffffffffffffffffffffffffffffffff1663ffe41ad38585336040518463ffffffff1660e01b81526004016111d0939291906149d1565b600060405180830381600087803b1580156111ea57600080fd5b505af11580156111fe573d6000803e3d6000fd5b5050505050505050565b61121183610a1b565b611250576040517f08c379a000000000000000000000000000000000000000000000000000000000815260040161124790615182565b60405180910390fd5b61125a8282612128565b6112648282612222565b6000600460009054906101000a900473ffffffffffffffffffffffffffffffffffffffff1673ffffffffffffffffffffffffffffffffffffffff16630d2dce2284846040518363ffffffff1660e01b81526004016112c39291906151a2565b60006040518083038186803b1580156112db57600080fd5b505afa1580156112ef573d6000803e3d6000fd5b505050506040513d6000823e3d601f19601f82011682018060405250810190611318919061528e565b90506000600460009054906101000a900473ffffffffffffffffffffffffffffffffffffffff1673ffffffffffffffffffffffffffffffffffffffff166370c1b1d785856040518363ffffffff1660e01b81526004016113799291906151a2565b60006040518083038186803b15801561139157600080fd5b505afa1580156113a5573d6000803e3d6000fd5b505050506040513d6000823e3d601f19601f820116820180604052508101906113ce9190615500565b90506113db848484612569565b60096000858152602001908152602001600020600084815260200190815260200160002080548060200260200160405190810160405280929190818152602001828054801561147f57602002820191906000526020600020905b8160009054906101000a900473ffffffffffffffffffffffffffffffffffffffff1673ffffffffffffffffffffffffffffffffffffffff1681526020019060010190808311611435575b505050505081602001819052508151816040018181525050600a6000858152602001908152602001600020600084815260200190815260200160002080548060200260200160405190810160405280929190818152602001828054801561150557602002820191906000526020600020905b8154815260200190600101908083116114f1575b50505050508160a00181905250600b6000858152602001908152602001600020600084815260200190815260200160002080548060200260200160405190810160405280929190818152602001828054801561158057602002820191906000526020600020905b81548152602001906001019080831161156c575b50505050508160c00181905250600c600085815260200190815260200160002060008481526020019081526020016000208054806020026020016040519081016040528092919081815260200182805480156115fb57602002820191906000526020600020905b8154815260200190600101908083116115e7575b50505050508160e00181905250600181610100019015159081151581525050600460009054906101000a900473ffffffffffffffffffffffffffffffffffffffff1673ffffffffffffffffffffffffffffffffffffffff1663ea7a48da8585846040518463ffffffff1660e01b815260040161167993929190615796565b600060405180830381600087803b15801561169357600080fd5b505af11580156116a7573d6000803e3d6000fd5b505050506116ba848260200151856127c0565b5050505050565b60086020528060005260406000206000915054906101000a900460ff1681565b60065481565b60008054906101000a900473ffffffffffffffffffffffffffffffffffffffff1681565b6117158383612222565b61171f8383612128565b61172881612ae6565b60008061173685853361231d565b915091508161177a576040517f08c379a000000000000000000000000000000000000000000000000000000000815260040161177190615820565b60405180910390fd5b611785858583612b2d565b156117c5576040517f08c379a00000000000000000000000000000000000000000000000000000000081526004016117bc9061588c565b60405180910390fd5b600560009054906101000a900473ffffffffffffffffffffffffffffffffffffffff1673ffffffffffffffffffffffffffffffffffffffff16639dc29fac336006546040518363ffffffff1660e01b81526004016118249291906158ac565b600060405180830381600087803b15801561183e57600080fd5b505af1158015611852573d6000803e3d6000fd5b50505050600460009054906101000a900473ffffffffffffffffffffffffffffffffffffffff1673ffffffffffffffffffffffffffffffffffffffff166342f2a5e38686846040518463ffffffff1660e01b81526004016118b5939291906158d5565b600060405180830381600087803b1580156118cf57600080fd5b505af11580156118e3573d6000803e3d6000fd5b505050505050505050565b6118f782612c38565b6000341161193a576040517f08c379a000000000000000000000000000000000000000000000000000000000815260040161193190615958565b60405180910390fd5b600060028460405161194c9190614a4f565b908152602001604051809103902060009054906101000a900473ffffffffffffffffffffffffffffffffffffffff169050600073ffffffffffffffffffffffffffffffffffffffff168173ffffffffffffffffffffffffffffffffffffffff1614156119d857600160009054906101000a900473ffffffffffffffffffffffffffffffffffffffff1690505b8073ffffffffffffffffffffffffffffffffffffffff166108fc349081150290604051600060405180830381858888f19350505050158015611a1e573d6000803e3d6000fd5b50600460009054906101000a900473ffffffffffffffffffffffffffffffffffffffff1673ffffffffffffffffffffffffffffffffffffffff166357e40a648433856040518463ffffffff1660e01b8152600401611a7e93929190615978565b600060405180830381600087803b158015611a9857600080fd5b505af1158015611aac573d6000803e3d6000fd5b5050505050505050565b60008054906101000a900473ffffffffffffffffffffffffffffffffffffffff1673ffffffffffffffffffffffffffffffffffffffff163373ffffffffffffffffffffffffffffffffffffffff1614611b44576040517f08c379a0000000000000000000000000000000000000000000000000000000008152600401611b3b90614318565b60405180910390fd5b80600560006101000a81548173ffffffffffffffffffffffffffffffffffffffff021916908373ffffffffffffffffffffffffffffffffffffffff16021790555050565b60008054906101000a900473ffffffffffffffffffffffffffffffffffffffff1673ffffffffffffffffffffffffffffffffffffffff163373ffffffffffffffffffffffffffffffffffffffff1614611c16576040517f08c379a0000000000000000000000000000000000000000000000000000000008152600401611c0d90614318565b60405180910390fd5b6000600282604051611c289190614a4f565b908152602001604051809103902060006101000a81548173ffffffffffffffffffffffffffffffffffffffff021916908373ffffffffffffffffffffffffffffffffffffffff16021790555050565b60008054906101000a900473ffffffffffffffffffffffffffffffffffffffff1673ffffffffffffffffffffffffffffffffffffffff163373ffffffffffffffffffffffffffffffffffffffff1614611d05576040517f08c379a0000000000000000000000000000000000000000000000000000000008152600401611cfc90614318565b60405180910390fd5b6000471115611d56578073ffffffffffffffffffffffffffffffffffffffff166108fc479081150290604051600060405180830381858888f19350505050158015611d54573d6000803e3d6000fd5b505b60005b600780549050811015611f1b57600060078281548110611d7c57611d7b6159af565b5b9060005260206000200160009054906101000a900473ffffffffffffffffffffffffffffffffffffffff1673ffffffffffffffffffffffffffffffffffffffff166370a08231306040518263ffffffff1660e01b8152600401611ddf9190614094565b60206040518083038186803b158015611df757600080fd5b505afa158015611e0b573d6000803e3d6000fd5b505050506040513d601f19601f82011682018060405250810190611e2f91906159de565b90506000811115611f075760078281548110611e4e57611e4d6159af565b5b9060005260206000200160009054906101000a900473ffffffffffffffffffffffffffffffffffffffff1673ffffffffffffffffffffffffffffffffffffffff1663a9059cbb84836040518363ffffffff1660e01b8152600401611eb3929190615a2c565b602060405180830381600087803b158015611ecd57600080fd5b505af1158015611ee1573d6000803e3d6000fd5b505050506040513d601f19601f82011682018060405250810190611f0591906149a4565b505b508080611f1390615a84565b915050611d59565b5050565b60008054906101000a900473ffffffffffffffffffffffffffffffffffffffff1673ffffffffffffffffffffffffffffffffffffffff163373ffffffffffffffffffffffffffffffffffffffff1614611fad576040517f08c379a0000000000000000000000000000000000000000000000000000000008152600401611fa490614318565b60405180910390fd5b80600360006101000a81548173ffffffffffffffffffffffffffffffffffffffff021916908373ffffffffffffffffffffffffffffffffffffffff16021790555050565b60008054906101000a900473ffffffffffffffffffffffffffffffffffffffff1673ffffffffffffffffffffffffffffffffffffffff163373ffffffffffffffffffffffffffffffffffffffff161461207f576040517f08c379a000000000000000000000000000000000000000000000000000000000815260040161207690614318565b60405180910390fd5b80600460006101000a81548173ffffffffffffffffffffffffffffffffffffffff021916908373ffffffffffffffffffffffffffffffffffffffff16021790555050565b600781815481106120d357600080fd5b906000526020600020016000915054906101000a900473ffffffffffffffffffffffffffffffffffffffff1681565b600460009054906101000a900473ffffffffffffffffffffffffffffffffffffffff1681565b600460009054906101000a900473ffffffffffffffffffffffffffffffffffffffff1673ffffffffffffffffffffffffffffffffffffffff166370c1b1d783836040518363ffffffff1660e01b81526004016121859291906151a2565b60006040518083038186803b15801561219d57600080fd5b505afa1580156121b1573d6000803e3d6000fd5b505050506040513d6000823e3d601f19601f820116820180604052508101906121da9190615500565b610120015161221e576040517f08c379a000000000000000000000000000000000000000000000000000000000815260040161221590615b19565b60405180910390fd5b5050565b600460009054906101000a900473ffffffffffffffffffffffffffffffffffffffff1673ffffffffffffffffffffffffffffffffffffffff166370c1b1d783836040518363ffffffff1660e01b815260040161227f9291906151a2565b60006040518083038186803b15801561229757600080fd5b505afa1580156122ab573d6000803e3d6000fd5b505050506040513d6000823e3d601f19601f820116820180604052508101906122d49190615500565b610100015115612319576040517f08c379a000000000000000000000000000000000000000000000000000000000815260040161231090615b85565b60405180910390fd5b5050565b6000806000600460009054906101000a900473ffffffffffffffffffffffffffffffffffffffff1673ffffffffffffffffffffffffffffffffffffffff16630d2dce2287876040518363ffffffff1660e01b815260040161237f9291906151a2565b60006040518083038186803b15801561239757600080fd5b505afa1580156123ab573d6000803e3d6000fd5b505050506040513d6000823e3d601f19601f820116820180604052508101906123d4919061528e565b905060005b815181101561244f578473ffffffffffffffffffffffffffffffffffffffff1682828151811061240c5761240b6159af565b5b602002602001015173ffffffffffffffffffffffffffffffffffffffff16141561243c576001935080925061244f565b808061244790615a84565b9150506123d9565b5050935093915050565b600860008273ffffffffffffffffffffffffffffffffffffffff1673ffffffffffffffffffffffffffffffffffffffff16815260200190815260200160002060009054906101000a900460ff16612566576007819080600181540180825580915050600190039060005260206000200160009091909190916101000a81548173ffffffffffffffffffffffffffffffffffffffff021916908373ffffffffffffffffffffffffffffffffffffffff1602179055506001600860008373ffffffffffffffffffffffffffffffffffffffff1673ffffffffffffffffffffffffffffffffffffffff16815260200190815260200160002060006101000a81548160ff0219169083151502179055505b50565b6000600460009054906101000a900473ffffffffffffffffffffffffffffffffffffffff1673ffffffffffffffffffffffffffffffffffffffff1663a2f77bcc856040518263ffffffff1660e01b81526004016125c6919061406a565b60006040518083038186803b1580156125de57600080fd5b505afa1580156125f2573d6000803e3d6000fd5b505050506040513d6000823e3d601f19601f8201168201806040525081019061261b919061484c565b9050600082519050816101400151811161266f57826009600087815260200190815260200160002060008681526020019081526020016000209080519060200190612667929190613512565b5050506127bb565b5b8161014001518111156127ad5760006126aa606461269c85610100015185612d7390919063ffffffff16565b612dee90919063ffffffff16565b905060008114156126ba57600190505b60005b8181101561279c5760006126d2865184612e38565b90505b61275181600a60008b815260200190815260200160002060008a815260200190815260200160002080548060200260200160405190810160405280929190818152602001828054801561274757602002820191906000526020600020905b815481526020019060010190808311612733575b5050505050612e9a565b1561276857612761865184612e38565b90506126d5565b61277a88888388610180015151612ef2565b838061278590615ba5565b94505050808061279490615a84565b9150506126bd565b506127a7868661307e565b50612670565b6127b88585856131c3565b50505b505050565b6000825114156127cf57612ae1565b6000600460009054906101000a900473ffffffffffffffffffffffffffffffffffffffff1673ffffffffffffffffffffffffffffffffffffffff1663a2f77bcc856040518263ffffffff1660e01b815260040161282c919061406a565b60006040518083038186803b15801561284457600080fd5b505afa158015612858573d6000803e3d6000fd5b505050506040513d6000823e3d601f19601f82011682018060405250810190612881919061484c565b90506000600460009054906101000a900473ffffffffffffffffffffffffffffffffffffffff1673ffffffffffffffffffffffffffffffffffffffff1663751938af86856040518363ffffffff1660e01b81526004016128e29291906151a2565b60206040518083038186803b1580156128fa57600080fd5b505afa15801561290e573d6000803e3d6000fd5b505050506040513d601f19601f8201168201806040525081019061293291906159de565b90506000612961836101200151612953606485612dee90919063ffffffff16565b612d7390919063ffffffff16565b90506000612978828461330890919063ffffffff16565b90506000612990875184612dee90919063ffffffff16565b905060005b8751811015612ad057856101a0015115612a5b57856101c0015173ffffffffffffffffffffffffffffffffffffffff1663a9059cbb8983815181106129dd576129dc6159af565b5b6020026020010151846040518363ffffffff1660e01b8152600401612a039291906158ac565b602060405180830381600087803b158015612a1d57600080fd5b505af1158015612a31573d6000803e3d6000fd5b505050506040513d601f19601f82011682018060405250810190612a5591906149a4565b50612abd565b878181518110612a6e57612a6d6159af565b5b602002602001015173ffffffffffffffffffffffffffffffffffffffff166108fc839081150290604051600060405180830381858888f19350505050158015612abb573d6000803e3d6000fd5b505b8080612ac890615a84565b915050612995565b50612adb8583613352565b50505050505b505050565b6000811415612b2a576040517f08c379a0000000000000000000000000000000000000000000000000000000008152600401612b2190615c1b565b60405180910390fd5b50565b600080600460009054906101000a900473ffffffffffffffffffffffffffffffffffffffff1673ffffffffffffffffffffffffffffffffffffffff16636a3f5dc586866040518363ffffffff1660e01b8152600401612b8d9291906151a2565b60006040518083038186803b158015612ba557600080fd5b505afa158015612bb9573d6000803e3d6000fd5b505050506040513d6000823e3d601f19601f82011682018060405250810190612be29190615c3b565b90506000805b8251811015612c2b5784838281518110612c0557612c046159af565b5b60200260200101511415612c1857600191505b8080612c2390615a84565b915050612be8565b5080925050509392505050565b6000811415612c7c576040517f08c379a0000000000000000000000000000000000000000000000000000000008152600401612c7390614b87565b60405180910390fd5b600460009054906101000a900473ffffffffffffffffffffffffffffffffffffffff1673ffffffffffffffffffffffffffffffffffffffff1663a2f77bcc826040518263ffffffff1660e01b8152600401612cd7919061406a565b60006040518083038186803b158015612cef57600080fd5b505afa158015612d03573d6000803e3d6000fd5b505050506040513d6000823e3d601f19601f82011682018060405250810190612d2c919061484c565b6102a00151612d70576040517f08c379a0000000000000000000000000000000000000000000000000000000008152600401612d6790615cd0565b60405180910390fd5b50565b600080831415612d865760009050612de8565b60008284612d949190615cf0565b9050828482612da39190615d79565b14612de3576040517f08c379a0000000000000000000000000000000000000000000000000000000008152600401612dda90615e1c565b60405180910390fd5b809150505b92915050565b6000612e3083836040518060400160405280601a81526020017f536166654d6174683a206469766973696f6e206279207a65726f00000000000081525061344b565b905092915050565b6000824244604051602001612e4e929190615e5d565b60405160208183030381529060405283604051602001612e6f929190615ede565b6040516020818303038152906040528051906020012060001c612e929190615f0e565b905092915050565b6000806000905060005b8351811015612ee75784848281518110612ec157612ec06159af565b5b60200260200101511415612ed457600191505b8080612edf90615a84565b915050612ea4565b508091505092915050565b612efd848484612b2d565b8015612f825750612f8082600b60008781526020019081526020016000206000868152602001908152602001600020805480602002602001604051908101604052809291908181526020018280548015612f7657602002820191906000526020600020905b815481526020019060010190808311612f62575b5050505050612e9a565b155b15612fd757600b60008581526020019081526020016000206000848152602001908152602001600020829080600181540180825580915050600190039060005260206000200160009091909190915055613078565b600a60008581526020019081526020016000206000848152602001908152602001600020829080600181540180825580915050600190039060005260206000200160009091909190915055600c60008581526020019081526020016000206000848152602001908152602001600020613051826001612e38565b90806001815401808255809150506001900390600052602060002001600090919091909150555b50505050565b600a600083815260200190815260200160002060008281526020019081526020016000207fffffffffffffffffffffffffffffffffffffffffffffffffffffffffffffffff9080600181540180825580915050600190039060005260206000200160009091909190915055600c600083815260200190815260200160002060008281526020019081526020016000207fffffffffffffffffffffffffffffffffffffffffffffffffffffffffffffffff9080600181540180825580915050600190039060005260206000200160009091909190915055600b600083815260200190815260200160002060008281526020019081526020016000207fffffffffffffffffffffffffffffffffffffffffffffffffffffffffffffffff90806001815401808255809150506001900390600052602060002001600090919091909150555050565b60005b81518110156133025761324b81600a6000878152602001908152602001600020600086815260200190815260200160002080548060200260200160405190810160405280929190818152602001828054801561324157602002820191906000526020600020905b81548152602001906001019080831161322d575b5050505050612e9a565b6132ef57600960008581526020019081526020016000206000848152602001908152602001600020828281518110613286576132856159af565b5b60200260200101519080600181540180825580915050600190039060005260206000200160009091909190916101000a81548173ffffffffffffffffffffffffffffffffffffffff021916908373ffffffffffffffffffffffffffffffffffffffff1602179055505b80806132fa90615a84565b9150506131c6565b50505050565b600061334a83836040518060400160405280601481526020017f7375627472616374696f6e206f766572666c6f770000000000000000000000008152506134ae565b905092915050565b816101a00151156133fa57816101c0015173ffffffffffffffffffffffffffffffffffffffff1663a9059cbb836102c00151836040518363ffffffff1660e01b81526004016133a29291906158ac565b602060405180830381600087803b1580156133bc57600080fd5b505af11580156133d0573d6000803e3d6000fd5b505050506040513d601f19601f820116820180604052508101906133f491906149a4565b50613447565b816102c0015173ffffffffffffffffffffffffffffffffffffffff166108fc829081150290604051600060405180830381858888f19350505050158015613445573d6000803e3d6000fd5b505b5050565b60008083118290613492576040517f08c379a00000000000000000000000000000000000000000000000000000000081526004016134899190615f3f565b60405180910390fd5b50600083856134a19190615d79565b9050809150509392505050565b60008383111582906134f6576040517f08c379a00000000000000000000000000000000000000000000000000000000081526004016134ed9190615f3f565b60405180910390fd5b50600083856135059190615f61565b9050809150509392505050565b82805482825590600052602060002090810192821561358b579160200282015b8281111561358a5782518260006101000a81548173ffffffffffffffffffffffffffffffffffffffff021916908373ffffffffffffffffffffffffffffffffffffffff16021790555091602001919060010190613532565b5b509050613598919061359c565b5090565b5b808211156135b557600081600090555060010161359d565b5090565b6000604051905090565b600080fd5b600080fd5b600073ffffffffffffffffffffffffffffffffffffffff82169050919050565b60006135f8826135cd565b9050919050565b613608816135ed565b811461361357600080fd5b50565b600081359050613625816135ff565b92915050565b600060208284031215613641576136406135c3565b5b600061364f84828501613616565b91505092915050565b6000819050919050565b600061367d613678613673846135cd565b613658565b6135cd565b9050919050565b600061368f82613662565b9050919050565b60006136a182613684565b9050919050565b6136b181613696565b82525050565b60006020820190506136cc60008301846136a8565b92915050565b6000819050919050565b6136e5816136d2565b81146136f057600080fd5b50565b600081359050613702816136dc565b92915050565b6000806040838503121561371f5761371e6135c3565b5b600061372d858286016136f3565b925050602061373e858286016136f3565b9150509250929050565b600080fd5b600080fd5b6000601f19601f8301169050919050565b7f4e487b7100000000000000000000000000000000000000000000000000000000600052604160045260246000fd5b61379b82613752565b810181811067ffffffffffffffff821117156137ba576137b9613763565b5b80604052505050565b60006137cd6135b9565b90506137d98282613792565b919050565b600067ffffffffffffffff8211156137f9576137f8613763565b5b61380282613752565b9050602081019050919050565b82818337600083830152505050565b600061383161382c846137de565b6137c3565b90508281526020810184848401111561384d5761384c61374d565b5b61385884828561380f565b509392505050565b600082601f83011261387557613874613748565b5b813561388584826020860161381e565b91505092915050565b600080604083850312156138a5576138a46135c3565b5b600083013567ffffffffffffffff8111156138c3576138c26135c8565b5b6138cf85828601613860565b92505060206138e085828601613616565b9150509250929050565b600060208284031215613900576138ff6135c3565b5b600082013567ffffffffffffffff81111561391e5761391d6135c8565b5b61392a84828501613860565b91505092915050565b60008115159050919050565b61394881613933565b82525050565b6000602082019050613963600083018461393f565b92915050565b600080fd5b600080fd5b6000819050919050565b61398681613973565b811461399157600080fd5b50565b6000813590506139a38161397d565b92915050565b600067ffffffffffffffff8211156139c4576139c3613763565b5b602082029050602081019050919050565b600080fd5b60006139ed6139e8846139a9565b6137c3565b90508083825260208201905060208402830185811115613a1057613a0f6139d5565b5b835b81811015613a395780613a2588826136f3565b845260208401935050602081019050613a12565b5050509392505050565b600082601f830112613a5857613a57613748565b5b8135613a688482602086016139da565b91505092915050565b600067ffffffffffffffff821115613a8c57613a8b613763565b5b602082029050602081019050919050565b6000613ab0613aab84613a71565b6137c3565b90508083825260208201905060208402830185811115613ad357613ad26139d5565b5b835b81811015613b1a57803567ffffffffffffffff811115613af857613af7613748565b5b808601613b058982613860565b85526020850194505050602081019050613ad5565b5050509392505050565b600082601f830112613b3957613b38613748565b5b8135613b49848260208601613a9d565b91505092915050565b613b5b81613933565b8114613b6657600080fd5b50565b600081359050613b7881613b52565b92915050565b6000613b89826135cd565b9050919050565b6000613b9b82613b7e565b9050919050565b613bab81613b90565b8114613bb657600080fd5b50565b600081359050613bc881613ba2565b92915050565b613bd781613b7e565b8114613be257600080fd5b50565b600081359050613bf481613bce565b92915050565b60006102e08284031215613c1157613c10613969565b5b613c1c6102e06137c3565b90506000613c2c848285016136f3565b6000830152506020613c40848285016136f3565b602083015250604082013567ffffffffffffffff811115613c6457613c6361396e565b5b613c7084828501613860565b6040830152506060613c8484828501613994565b6060830152506080613c98848285016136f3565b60808301525060a082013567ffffffffffffffff811115613cbc57613cbb61396e565b5b613cc884828501613860565b60a08301525060c082013567ffffffffffffffff811115613cec57613ceb61396e565b5b613cf884828501613860565b60c08301525060e082013567ffffffffffffffff811115613d1c57613d1b61396e565b5b613d2884828501613860565b60e083015250610100613d3d848285016136f3565b61010083015250610120613d53848285016136f3565b61012083015250610140613d69848285016136f3565b6101408301525061016082013567ffffffffffffffff811115613d8f57613d8e61396e565b5b613d9b84828501613a43565b6101608301525061018082013567ffffffffffffffff811115613dc157613dc061396e565b5b613dcd84828501613b24565b610180830152506101a0613de384828501613b69565b6101a0830152506101c0613df984828501613bb9565b6101c0830152506101e0613e0f848285016136f3565b6101e083015250610200613e25848285016136f3565b61020083015250610220613e3b848285016136f3565b61022083015250610240613e5184828501613b69565b61024083015250610260613e67848285016136f3565b61026083015250610280613e7d848285016136f3565b610280830152506102a0613e9384828501613b69565b6102a0830152506102c0613ea984828501613be5565b6102c08301525092915050565b600060208284031215613ecc57613ecb6135c3565b5b600082013567ffffffffffffffff811115613eea57613ee96135c8565b5b613ef684828501613bfa565b91505092915050565b600060208284031215613f1557613f146135c3565b5b6000613f23848285016136f3565b91505092915050565b600060208284031215613f4257613f416135c3565b5b6000613f5084828501613be5565b91505092915050565b613f62816135ed565b82525050565b6000602082019050613f7d6000830184613f59565b92915050565b6000613f8e82613684565b9050919050565b613f9e81613f83565b82525050565b6000602082019050613fb96000830184613f95565b92915050565b600080600060608486031215613fd857613fd76135c3565b5b600084013567ffffffffffffffff811115613ff657613ff56135c8565b5b61400286828701613860565b9350506020614013868287016136f3565b9250506040614024868287016136f3565b9150509250925092565b600060208284031215614044576140436135c3565b5b600061405284828501613bb9565b91505092915050565b614064816136d2565b82525050565b600060208201905061407f600083018461405b565b92915050565b61408e81613b7e565b82525050565b60006020820190506140a96000830184614085565b92915050565b6000806000606084860312156140c8576140c76135c3565b5b60006140d6868287016136f3565b93505060206140e7868287016136f3565b92505060406140f8868287016136f3565b9150509250925092565b600061410d82613b7e565b9050919050565b61411d81614102565b811461412857600080fd5b50565b60008135905061413a81614114565b92915050565b600060208284031215614156576141556135c3565b5b60006141648482850161412b565b91505092915050565b600061417882613b7e565b9050919050565b6141888161416d565b811461419357600080fd5b50565b6000813590506141a58161417f565b92915050565b6000602082840312156141c1576141c06135c3565b5b60006141cf84828501614196565b91505092915050565b60006141e382613b7e565b9050919050565b6141f3816141d8565b81146141fe57600080fd5b50565b600081359050614210816141ea565b92915050565b60006020828403121561422c5761422b6135c3565b5b600061423a84828501614201565b91505092915050565b600061424e82613684565b9050919050565b61425e81614243565b82525050565b60006020820190506142796000830184614255565b92915050565b600061428a82613684565b9050919050565b61429a8161427f565b82525050565b60006020820190506142b56000830184614291565b92915050565b600082825260208201905092915050565b7f4f6e6c79204f776e657200000000000000000000000000000000000000000000600082015250565b6000614302600a836142bb565b915061430d826142cc565b602082019050919050565b60006020820190508181036000830152614331816142f5565b9050919050565b600081519050614347816136dc565b92915050565b60005b8381101561436b578082015181840152602081019050614350565b8381111561437a576000848401525b50505050565b600061439361438e846137de565b6137c3565b9050828152602081018484840111156143af576143ae61374d565b5b6143ba84828561434d565b509392505050565b600082601f8301126143d7576143d6613748565b5b81516143e7848260208601614380565b91505092915050565b6000815190506143ff8161397d565b92915050565b6000614418614413846139a9565b6137c3565b9050808382526020820190506020840283018581111561443b5761443a6139d5565b5b835b8181101561446457806144508882614338565b84526020840193505060208101905061443d565b5050509392505050565b600082601f83011261448357614482613748565b5b8151614493848260208601614405565b91505092915050565b60006144af6144aa84613a71565b6137c3565b905080838252602082019050602084028301858111156144d2576144d16139d5565b5b835b8181101561451957805167ffffffffffffffff8111156144f7576144f6613748565b5b80860161450489826143c2565b855260208501945050506020810190506144d4565b5050509392505050565b600082601f83011261453857614537613748565b5b815161454884826020860161449c565b91505092915050565b60008151905061456081613b52565b92915050565b60008151905061457581613ba2565b92915050565b60008151905061458a81613bce565b92915050565b60006102e082840312156145a7576145a6613969565b5b6145b26102e06137c3565b905060006145c284828501614338565b60008301525060206145d684828501614338565b602083015250604082015167ffffffffffffffff8111156145fa576145f961396e565b5b614606848285016143c2565b604083015250606061461a848285016143f0565b606083015250608061462e84828501614338565b60808301525060a082015167ffffffffffffffff8111156146525761465161396e565b5b61465e848285016143c2565b60a08301525060c082015167ffffffffffffffff8111156146825761468161396e565b5b61468e848285016143c2565b60c08301525060e082015167ffffffffffffffff8111156146b2576146b161396e565b5b6146be848285016143c2565b60e0830152506101006146d384828501614338565b610100830152506101206146e984828501614338565b610120830152506101406146ff84828501614338565b6101408301525061016082015167ffffffffffffffff8111156147255761472461396e565b5b6147318482850161446e565b6101608301525061018082015167ffffffffffffffff8111156147575761475661396e565b5b61476384828501614523565b610180830152506101a061477984828501614551565b6101a0830152506101c061478f84828501614566565b6101c0830152506101e06147a584828501614338565b6101e0830152506102006147bb84828501614338565b610200830152506102206147d184828501614338565b610220830152506102406147e784828501614551565b610240830152506102606147fd84828501614338565b6102608301525061028061481384828501614338565b610280830152506102a061482984828501614551565b6102a0830152506102c061483f8482850161457b565b6102c08301525092915050565b600060208284031215614862576148616135c3565b5b600082015167ffffffffffffffff8111156148805761487f6135c8565b5b61488c84828501614590565b91505092915050565b7f4e6f742065726332300000000000000000000000000000000000000000000000600082015250565b60006148cb6009836142bb565b91506148d682614895565b602082019050919050565b600060208201905081810360008301526148fa816148be565b9050919050565b7f486173207469636b657473000000000000000000000000000000000000000000600082015250565b6000614937600b836142bb565b915061494282614901565b602082019050919050565b600060208201905081810360008301526149668161492a565b9050919050565b60006060820190506149826000830186614085565b61498f6020830185614085565b61499c604083018461405b565b949350505050565b6000602082840312156149ba576149b96135c3565b5b60006149c884828501614551565b91505092915050565b60006060820190506149e6600083018661405b565b6149f3602083018561405b565b614a006040830184614085565b949350505050565b600081519050919050565b600081905092915050565b6000614a2982614a08565b614a338185614a13565b9350614a4381856020860161434d565b80840191505092915050565b6000614a5b8284614a1e565b915081905092915050565b6000614a7182614a08565b614a7b81856142bb565b9350614a8b81856020860161434d565b614a9481613752565b840191505092915050565b60006040820190508181036000830152614ab98185614a66565b9050614ac86020830184614085565b9392505050565b7f4f6e6c792061646d696e00000000000000000000000000000000000000000000600082015250565b6000614b05600a836142bb565b9150614b1082614acf565b602082019050919050565b60006020820190508181036000830152614b3481614af8565b9050919050565b7f496e76616c696420696400000000000000000000000000000000000000000000600082015250565b6000614b71600a836142bb565b9150614b7c82614b3b565b602082019050919050565b60006020820190508181036000830152614ba081614b64565b9050919050565b7f45786973742067616d6500000000000000000000000000000000000000000000600082015250565b6000614bdd600a836142bb565b9150614be882614ba7565b602082019050919050565b60006020820190508181036000830152614c0c81614bd0565b9050919050565b614c1c816136d2565b82525050565b600082825260208201905092915050565b6000614c3e82614a08565b614c488185614c22565b9350614c5881856020860161434d565b614c6181613752565b840191505092915050565b614c7581613973565b82525050565b600081519050919050565b600082825260208201905092915050565b6000819050602082019050919050565b6000614cb38383614c13565b60208301905092915050565b6000602082019050919050565b6000614cd782614c7b565b614ce18185614c86565b9350614cec83614c97565b8060005b83811015614d1d578151614d048882614ca7565b9750614d0f83614cbf565b925050600181019050614cf0565b5085935050505092915050565b600081519050919050565b600082825260208201905092915050565b6000819050602082019050919050565b6000614d628383614c33565b905092915050565b6000602082019050919050565b6000614d8282614d2a565b614d8c8185614d35565b935083602082028501614d9e85614d46565b8060005b85811015614dda5784840389528151614dbb8582614d56565b9450614dc683614d6a565b925060208a01995050600181019050614da2565b50829750879550505050505092915050565b614df581613933565b82525050565b614e0481614243565b82525050565b614e1381613b7e565b82525050565b60006102e083016000830151614e326000860182614c13565b506020830151614e456020860182614c13565b5060408301518482036040860152614e5d8282614c33565b9150506060830151614e726060860182614c6c565b506080830151614e856080860182614c13565b5060a083015184820360a0860152614e9d8282614c33565b91505060c083015184820360c0860152614eb78282614c33565b91505060e083015184820360e0860152614ed18282614c33565b915050610100830151614ee8610100860182614c13565b50610120830151614efd610120860182614c13565b50610140830151614f12610140860182614c13565b50610160830151848203610160860152614f2c8282614ccc565b915050610180830151848203610180860152614f488282614d77565b9150506101a0830151614f5f6101a0860182614dec565b506101c0830151614f746101c0860182614dfb565b506101e0830151614f896101e0860182614c13565b50610200830151614f9e610200860182614c13565b50610220830151614fb3610220860182614c13565b50610240830151614fc8610240860182614dec565b50610260830151614fdd610260860182614c13565b50610280830151614ff2610280860182614c13565b506102a08301516150076102a0860182614dec565b506102c083015161501c6102c0860182614e0a565b508091505092915050565b600060408201905081810360008301526150418185614a66565b905081810360208301526150558184614e19565b90509392505050565b7f4e6f742065746800000000000000000000000000000000000000000000000000600082015250565b60006150946007836142bb565b915061509f8261505e565b602082019050919050565b600060208201905081810360008301526150c381615087565b9050919050565b7f496e73756666696369656e740000000000000000000000000000000000000000600082015250565b6000615100600c836142bb565b915061510b826150ca565b602082019050919050565b6000602082019050818103600083015261512f816150f3565b9050919050565b7f4f6e6c79206f70657261746f7200000000000000000000000000000000000000600082015250565b600061516c600d836142bb565b915061517782615136565b602082019050919050565b6000602082019050818103600083015261519b8161515f565b9050919050565b60006040820190506151b7600083018561405b565b6151c4602083018461405b565b9392505050565b600067ffffffffffffffff8211156151e6576151e5613763565b5b602082029050602081019050919050565b600061520a615205846151cb565b6137c3565b9050808382526020820190506020840283018581111561522d5761522c6139d5565b5b835b818110156152565780615242888261457b565b84526020840193505060208101905061522f565b5050509392505050565b600082601f83011261527557615274613748565b5b81516152858482602086016151f7565b91505092915050565b6000602082840312156152a4576152a36135c3565b5b600082015167ffffffffffffffff8111156152c2576152c16135c8565b5b6152ce84828501615260565b91505092915050565b600067ffffffffffffffff8211156152f2576152f1613763565b5b602082029050602081019050919050565b6000615316615311846152d7565b6137c3565b90508083825260208201905060208402830185811115615339576153386139d5565b5b835b81811015615362578061534e88826143f0565b84526020840193505060208101905061533b565b5050509392505050565b600082601f83011261538157615380613748565b5b8151615391848260208601615303565b91505092915050565b600061014082840312156153b1576153b0613969565b5b6153bc6101406137c3565b905060006153cc84828501614338565b600083015250602082015167ffffffffffffffff8111156153f0576153ef61396e565b5b6153fc84828501615260565b602083015250604061541084828501614338565b60408301525060606154248482850161457b565b606083015250608061543884828501614338565b60808301525060a082015167ffffffffffffffff81111561545c5761545b61396e565b5b6154688482850161536c565b60a08301525060c082015167ffffffffffffffff81111561548c5761548b61396e565b5b6154988482850161536c565b60c08301525060e082015167ffffffffffffffff8111156154bc576154bb61396e565b5b6154c88482850161536c565b60e0830152506101006154dd84828501614551565b610100830152506101206154f384828501614551565b6101208301525092915050565b600060208284031215615516576155156135c3565b5b600082015167ffffffffffffffff811115615534576155336135c8565b5b6155408482850161539a565b91505092915050565b600081519050919050565b600082825260208201905092915050565b6000819050602082019050919050565b60006155818383614e0a565b60208301905092915050565b6000602082019050919050565b60006155a582615549565b6155af8185615554565b93506155ba83615565565b8060005b838110156155eb5781516155d28882615575565b97506155dd8361558d565b9250506001810190506155be565b5085935050505092915050565b600081519050919050565b600082825260208201905092915050565b6000819050602082019050919050565b60006156308383614c6c565b60208301905092915050565b6000602082019050919050565b6000615654826155f8565b61565e8185615603565b935061566983615614565b8060005b8381101561569a5781516156818882615624565b975061568c8361563c565b92505060018101905061566d565b5085935050505092915050565b6000610140830160008301516156c06000860182614c13565b50602083015184820360208601526156d8828261559a565b91505060408301516156ed6040860182614c13565b5060608301516157006060860182614e0a565b5060808301516157136080860182614c13565b5060a083015184820360a086015261572b8282615649565b91505060c083015184820360c08601526157458282615649565b91505060e083015184820360e086015261575f8282615649565b915050610100830151615776610100860182614dec565b5061012083015161578b610120860182614dec565b508091505092915050565b60006060820190506157ab600083018661405b565b6157b8602083018561405b565b81810360408301526157ca81846156a7565b9050949350505050565b7f4e6f7420696e20726f756e640000000000000000000000000000000000000000600082015250565b600061580a600c836142bb565b9150615815826157d4565b602082019050919050565b60006020820190508181036000830152615839816157fd565b9050919050565b7f4861732062756666000000000000000000000000000000000000000000000000600082015250565b60006158766008836142bb565b915061588182615840565b602082019050919050565b600060208201905081810360008301526158a581615869565b9050919050565b60006040820190506158c16000830185614085565b6158ce602083018461405b565b9392505050565b60006060820190506158ea600083018661405b565b6158f7602083018561405b565b615904604083018461405b565b949350505050565b7f50726570617920666f7220676173000000000000000000000000000000000000600082015250565b6000615942600e836142bb565b915061594d8261590c565b602082019050919050565b6000602082019050818103600083015261597181615935565b9050919050565b600060608201905061598d600083018661405b565b61599a6020830185614085565b6159a7604083018461405b565b949350505050565b7f4e487b7100000000000000000000000000000000000000000000000000000000600052603260045260246000fd5b6000602082840312156159f4576159f36135c3565b5b6000615a0284828501614338565b91505092915050565b6000615a1682613684565b9050919050565b615a2681615a0b565b82525050565b6000604082019050615a416000830185615a1d565b615a4e602083018461405b565b9392505050565b7f4e487b7100000000000000000000000000000000000000000000000000000000600052601160045260246000fd5b6000615a8f826136d2565b91507fffffffffffffffffffffffffffffffffffffffffffffffffffffffffffffffff821415615ac257615ac1615a55565b5b600182019050919050565b7f4e6f7420737461727420726f756e640000000000000000000000000000000000600082015250565b6000615b03600f836142bb565b9150615b0e82615acd565b602082019050919050565b60006020820190508181036000830152615b3281615af6565b9050919050565b7f4f76657220726f756e6400000000000000000000000000000000000000000000600082015250565b6000615b6f600a836142bb565b9150615b7a82615b39565b602082019050919050565b60006020820190508181036000830152615b9e81615b62565b9050919050565b6000615bb0826136d2565b91506000821415615bc457615bc3615a55565b5b600182039050919050565b7f4e6f742062756666000000000000000000000000000000000000000000000000600082015250565b6000615c056008836142bb565b9150615c1082615bcf565b602082019050919050565b60006020820190508181036000830152615c3481615bf8565b9050919050565b600060208284031215615c5157615c506135c3565b5b600082015167ffffffffffffffff811115615c6f57615c6e6135c8565b5b615c7b8482850161446e565b91505092915050565b7f4e6f742065786973742067616d65000000000000000000000000000000000000600082015250565b6000615cba600e836142bb565b9150615cc582615c84565b602082019050919050565b60006020820190508181036000830152615ce981615cad565b9050919050565b6000615cfb826136d2565b9150615d06836136d2565b9250817fffffffffffffffffffffffffffffffffffffffffffffffffffffffffffffffff0483118215151615615d3f57615d3e615a55565b5b828202905092915050565b7f4e487b7100000000000000000000000000000000000000000000000000000000600052601260045260246000fd5b6000615d84826136d2565b9150615d8f836136d2565b925082615d9f57615d9e615d4a565b5b828204905092915050565b7f536166654d6174683a206d756c7469706c69636174696f6e206f766572666c6f60008201527f7700000000000000000000000000000000000000000000000000000000000000602082015250565b6000615e066021836142bb565b9150615e1182615daa565b604082019050919050565b60006020820190508181036000830152615e3581615df9565b9050919050565b6000819050919050565b615e57615e52826136d2565b615e3c565b82525050565b6000615e698285615e46565b602082019150615e798284615e46565b6020820191508190509392505050565b600081519050919050565b600082825260208201905092915050565b6000615eb082615e89565b615eba8185615e94565b9350615eca81856020860161434d565b615ed381613752565b840191505092915050565b60006040820190508181036000830152615ef88185615ea5565b9050615f07602083018461405b565b9392505050565b6000615f19826136d2565b9150615f24836136d2565b925082615f3457615f33615d4a565b5b828206905092915050565b60006020820190508181036000830152615f598184614a66565b905092915050565b6000615f6c826136d2565b9150615f77836136d2565b925082821015615f8a57615f89615a55565b5b82820390509291505056fea2646970667358221220ea0dd7fa460122a6f2554ae9df0bf9371cb751f09f8e972039486acb665d2f3e64736f6c63430008090033",
  "linkReferences": {},
  "deployedLinkReferences": {}
}