{
  "_format": "hh-sol-artifact-1",
  "contractName": "Game",
  "sourceName": "src/contracts/game/game.sol",
  "abi": [
    {
      "inputs": [
        {
          "internalType": "address payable",
          "name": "_operator",
          "type": "address"
        },
        {
          "internalType": "contract IAdminData",
          "name": "_adminData",
          "type": "address"
        },
        {
          "internalType": "contract IGameData",
          "name": "_gameData",
          "type": "address"
        },
        {
          "internalType": "contract IGameLogic",
          "name": "_gameLogic",
          "type": "address"
        },
        {
          "internalType": "contract IQuizToken",
          "name": "_buffToken",
          "type": "address"
        },
        {
          "internalType": "uint256",
          "name": "_buffValue",
          "type": "uint256"
        }
      ],
      "stateMutability": "nonpayable",
      "type": "constructor"
    },
    {
      "inputs": [
        {
          "internalType": "string",
          "name": "_appId",
          "type": "string"
        },
        {
          "internalType": "address payable",
          "name": "_newOperator",
          "type": "address"
        }
      ],
      "name": "addAppOperator",
      "outputs": [],
      "stateMutability": "nonpayable",
      "type": "function"
    },
    {
      "inputs": [],
      "name": "adminData",
      "outputs": [
        {
          "internalType": "contract IAdminData",
          "name": "",
          "type": "address"
        }
      ],
      "stateMutability": "view",
      "type": "function"
    },
    {
      "inputs": [],
      "name": "availableSize",
      "outputs": [
        {
          "internalType": "uint256",
          "name": "",
          "type": "uint256"
        }
      ],
      "stateMutability": "view",
      "type": "function"
    },
    {
      "inputs": [],
      "name": "buffToken",
      "outputs": [
        {
          "internalType": "contract IQuizToken",
          "name": "",
          "type": "address"
        }
      ],
      "stateMutability": "view",
      "type": "function"
    },
    {
      "inputs": [],
      "name": "buffValue",
      "outputs": [
        {
          "internalType": "uint256",
          "name": "",
          "type": "uint256"
        }
      ],
      "stateMutability": "view",
      "type": "function"
    },
    {
      "inputs": [
        {
          "internalType": "uint256",
          "name": "_gameId",
          "type": "uint256"
        },
        {
          "internalType": "uint256",
          "name": "_round",
          "type": "uint256"
        },
        {
          "internalType": "uint256",
          "name": "_buffId",
          "type": "uint256"
        }
      ],
      "name": "buyBuff",
      "outputs": [],
      "stateMutability": "nonpayable",
      "type": "function"
    },
    {
      "inputs": [
        {
          "internalType": "uint256",
          "name": "_gameId",
          "type": "uint256"
        },
        {
          "internalType": "uint256",
          "name": "_round",
          "type": "uint256"
        }
      ],
      "name": "buyTicket",
      "outputs": [],
      "stateMutability": "payable",
      "type": "function"
    },
    {
      "inputs": [
        {
          "internalType": "contract IAdminData",
          "name": "_newData",
          "type": "address"
        }
      ],
      "name": "changeAdminData",
      "outputs": [],
      "stateMutability": "nonpayable",
      "type": "function"
    },
    {
      "inputs": [
        {
          "internalType": "contract IQuizToken",
          "name": "_newToken",
          "type": "address"
        }
      ],
      "name": "changeBuffToken",
      "outputs": [],
      "stateMutability": "nonpayable",
      "type": "function"
    },
    {
      "inputs": [
        {
          "internalType": "uint256",
          "name": "_newValue",
          "type": "uint256"
        }
      ],
      "name": "changeBuffValue",
      "outputs": [],
      "stateMutability": "nonpayable",
      "type": "function"
    },
    {
      "inputs": [
        {
          "internalType": "contract IGameData",
          "name": "_newData",
          "type": "address"
        }
      ],
      "name": "changeGameData",
      "outputs": [],
      "stateMutability": "nonpayable",
      "type": "function"
    },
    {
      "inputs": [
        {
          "internalType": "contract IGameLogic",
          "name": "_newLogic",
          "type": "address"
        }
      ],
      "name": "changeGameLogic",
      "outputs": [],
      "stateMutability": "nonpayable",
      "type": "function"
    },
    {
      "inputs": [
        {
          "internalType": "address payable",
          "name": "_newOperator",
          "type": "address"
        }
      ],
      "name": "changeOperator",
      "outputs": [],
      "stateMutability": "nonpayable",
      "type": "function"
    },
    {
      "inputs": [
        {
          "components": [
            {
              "internalType": "uint256",
              "name": "id",
              "type": "uint256"
            },
            {
              "internalType": "uint256",
              "name": "category",
              "type": "uint256"
            },
            {
              "internalType": "string",
              "name": "appId",
              "type": "string"
            },
            {
              "internalType": "int256[]",
              "name": "groupIds",
              "type": "int256[]"
            },
            {
              "internalType": "uint256",
              "name": "botType",
              "type": "uint256"
            },
            {
              "internalType": "string",
              "name": "title",
              "type": "string"
            },
            {
              "internalType": "string",
              "name": "introduction",
              "type": "string"
            },
            {
              "internalType": "string",
              "name": "story",
              "type": "string"
            },
            {
              "internalType": "uint256",
              "name": "eliminateProportion",
              "type": "uint256"
            },
            {
              "internalType": "uint256",
              "name": "awardProportion",
              "type": "uint256"
            },
            {
              "internalType": "uint256",
              "name": "creatorProportion",
              "type": "uint256"
            },
            {
              "internalType": "uint256",
              "name": "sponsorProportion",
              "type": "uint256"
            },
            {
              "internalType": "uint256",
              "name": "winnerNum",
              "type": "uint256"
            },
            {
              "internalType": "uint256[]",
              "name": "buffIds",
              "type": "uint256[]"
            },
            {
              "internalType": "string",
              "name": "buffDesc",
              "type": "string"
            },
            {
              "internalType": "string[]",
              "name": "events",
              "type": "string[]"
            },
            {
              "internalType": "bool",
              "name": "ticketIsEth",
              "type": "bool"
            },
            {
              "internalType": "contract IERC20",
              "name": "ticketsToken",
              "type": "address"
            },
            {
              "internalType": "uint256",
              "name": "ticketAmount",
              "type": "uint256"
            },
            {
              "internalType": "uint256",
              "name": "effectStartTime",
              "type": "uint256"
            },
            {
              "internalType": "uint256",
              "name": "effectEndTime",
              "type": "uint256"
            },
            {
              "internalType": "bool",
              "name": "daily",
              "type": "bool"
            },
            {
              "internalType": "uint256",
              "name": "startH",
              "type": "uint256"
            },
            {
              "internalType": "uint256",
              "name": "startM",
              "type": "uint256"
            },
            {
              "internalType": "bool",
              "name": "exist",
              "type": "bool"
            },
            {
              "internalType": "address",
              "name": "creator",
              "type": "address"
            },
            {
              "internalType": "uint256",
              "name": "blockNum",
              "type": "uint256"
            },
            {
              "internalType": "uint256",
              "name": "blockTimestamp",
              "type": "uint256"
            }
          ],
          "internalType": "struct IGameData.GameDetail",
          "name": "_game",
          "type": "tuple"
        }
      ],
      "name": "createGame",
      "outputs": [],
      "stateMutability": "nonpayable",
      "type": "function"
    },
    {
      "inputs": [
        {
          "internalType": "string",
          "name": "_appId",
          "type": "string"
        }
      ],
      "name": "delAppOperator",
      "outputs": [],
      "stateMutability": "nonpayable",
      "type": "function"
    },
    {
      "inputs": [
        {
          "internalType": "contract IERC20",
          "name": "",
          "type": "address"
        }
      ],
      "name": "erc20Exist",
      "outputs": [
        {
          "internalType": "bool",
          "name": "",
          "type": "bool"
        }
      ],
      "stateMutability": "view",
      "type": "function"
    },
    {
      "inputs": [
        {
          "internalType": "uint256",
          "name": "",
          "type": "uint256"
        }
      ],
      "name": "erc20List",
      "outputs": [
        {
          "internalType": "contract IERC20",
          "name": "",
          "type": "address"
        }
      ],
      "stateMutability": "view",
      "type": "function"
    },
    {
      "inputs": [],
      "name": "gameData",
      "outputs": [
        {
          "internalType": "contract IGameData",
          "name": "",
          "type": "address"
        }
      ],
      "stateMutability": "view",
      "type": "function"
    },
    {
      "inputs": [],
      "name": "gameLogic",
      "outputs": [
        {
          "internalType": "contract IGameLogic",
          "name": "",
          "type": "address"
        }
      ],
      "stateMutability": "view",
      "type": "function"
    },
    {
      "inputs": [
        {
          "internalType": "string",
          "name": "_appId",
          "type": "string"
        },
        {
          "internalType": "uint256",
          "name": "_gameId",
          "type": "uint256"
        },
        {
          "internalType": "uint256",
          "name": "_round",
          "type": "uint256"
        }
      ],
      "name": "gameRoundOver",
      "outputs": [],
      "stateMutability": "nonpayable",
      "type": "function"
    },
    {
      "inputs": [
        {
          "internalType": "string",
          "name": "_appId",
          "type": "string"
        }
      ],
      "name": "isOperator",
      "outputs": [
        {
          "internalType": "bool",
          "name": "",
          "type": "bool"
        }
      ],
      "stateMutability": "view",
      "type": "function"
    },
    {
      "inputs": [],
      "name": "operator",
      "outputs": [
        {
          "internalType": "address payable",
          "name": "",
          "type": "address"
        }
      ],
      "stateMutability": "view",
      "type": "function"
    },
    {
      "inputs": [],
      "name": "owner",
      "outputs": [
        {
          "internalType": "address",
          "name": "",
          "type": "address"
        }
      ],
      "stateMutability": "view",
      "type": "function"
    },
    {
      "inputs": [
        {
          "internalType": "uint256",
          "name": "_newSize",
          "type": "uint256"
        }
      ],
      "name": "setAvailableSize",
      "outputs": [],
      "stateMutability": "nonpayable",
      "type": "function"
    },
    {
      "inputs": [
        {
          "internalType": "string",
          "name": "_appId",
          "type": "string"
        },
        {
          "internalType": "uint256",
          "name": "_gameId",
          "type": "uint256"
        },
        {
          "internalType": "uint256",
          "name": "_launchTime",
          "type": "uint256"
        }
      ],
      "name": "startGame",
      "outputs": [],
      "stateMutability": "payable",
      "type": "function"
    },
    {
      "inputs": [
        {
          "internalType": "address payable",
          "name": "_to",
          "type": "address"
        }
      ],
      "name": "transferAsset",
      "outputs": [],
      "stateMutability": "nonpayable",
      "type": "function"
    },
    {
      "inputs": [
        {
          "internalType": "address",
          "name": "_newOwner",
          "type": "address"
        }
      ],
      "name": "transferOwner",
      "outputs": [],
      "stateMutability": "nonpayable",
      "type": "function"
    }
  ],
  "bytecode": "0x60806040526014600b553480156200001657600080fd5b506040516200448b3803806200448b8339810160408190526200003991620000c3565b60008054336001600160a01b0319918216179091556001805482166001600160a01b039889161790556003805482169688169690961790955560048054861694871694909417909355600580548516928616929092179091556006805490931693169290921790556007556200014b565b6001600160a01b0381168114620000c057600080fd5b50565b60008060008060008060c08789031215620000dd57600080fd5b8651620000ea81620000aa565b6020880151909650620000fd81620000aa565b60408801519095506200011081620000aa565b60608801519094506200012381620000aa565b60808801519093506200013681620000aa565b8092505060a087015190509295509295509295565b614330806200015b6000396000f3fe6080604052600436106101ac5760003560e01c80637d878731116100ec578063bb3f09111161008a578063e606c9b811610064578063e606c9b8146104fe578063e86098f51461051e578063f94fa16f1461053e578063fa24f7431461055e57600080fd5b8063bb3f09111461049e578063c7d7b660146104be578063ce6e98f2146104de57600080fd5b80638da5cb5b116100c65780638da5cb5b1461041e578063b05c3f671461044b578063b2888e491461046b578063b7579b501461047e57600080fd5b80637d878731146103b45780637e3dfe5c146103d8578063806908631461040857600080fd5b80632483eee5116101595780634fb2e45d116101335780634fb2e45d1461031a578063570ca7351461033a5780635a2a7923146103675780637742b3011461039457600080fd5b80632483eee5146102c757806327a343b3146102e7578063298ec2081461030757600080fd5b80630dc6da8d1161018a5780630dc6da8d1461024a578063134087a21461026a5780631f041bd11461029757600080fd5b806306394c9b146101b157806306d2ae8e146101d35780630bd099791461022a575b600080fd5b3480156101bd57600080fd5b506101d16101cc366004612fdc565b61058b565b005b3480156101df57600080fd5b506003546102009073ffffffffffffffffffffffffffffffffffffffff1681565b60405173ffffffffffffffffffffffffffffffffffffffff90911681526020015b60405180910390f35b34801561023657600080fd5b506101d1610245366004613161565b610658565b34801561025657600080fd5b506101d16102653660046132e6565b610742565b34801561027657600080fd5b506005546102009073ffffffffffffffffffffffffffffffffffffffff1681565b3480156102a357600080fd5b506102b76102b2366004613564565b610ad5565b6040519015158152602001610221565b3480156102d357600080fd5b506101d16102e23660046135a1565b610b4e565b3480156102f357600080fd5b506101d16103023660046135a1565b610bd4565b6101d16103153660046135ba565b610c5a565b34801561032657600080fd5b506101d1610335366004612fdc565b611069565b34801561034657600080fd5b506001546102009073ffffffffffffffffffffffffffffffffffffffff1681565b34801561037357600080fd5b506006546102009073ffffffffffffffffffffffffffffffffffffffff1681565b3480156103a057600080fd5b506101d16103af3660046135dc565b611131565b3480156103c057600080fd5b506103ca600b5481565b604051908152602001610221565b3480156103e457600080fd5b506102b76103f3366004612fdc565b60096020526000908152604090205460ff1681565b34801561041457600080fd5b506103ca60075481565b34801561042a57600080fd5b506000546102009073ffffffffffffffffffffffffffffffffffffffff1681565b34801561045757600080fd5b506101d161046636600461362a565b611503565b6101d16104793660046135dc565b61181f565b34801561048a57600080fd5b506101d1610499366004612fdc565b611b74565b3480156104aa57600080fd5b506101d16104b9366004613564565b611c3c565b3480156104ca57600080fd5b506101d16104d9366004612fdc565b611d26565b3480156104ea57600080fd5b506101d16104f9366004612fdc565b611fa6565b34801561050a57600080fd5b506101d1610519366004612fdc565b61206e565b34801561052a57600080fd5b506102006105393660046135a1565b612136565b34801561054a57600080fd5b506101d1610559366004612fdc565b61216d565b34801561056a57600080fd5b506004546102009073ffffffffffffffffffffffffffffffffffffffff1681565b60005473ffffffffffffffffffffffffffffffffffffffff163314610611576040517f08c379a000000000000000000000000000000000000000000000000000000000815260206004820152600a60248201527f4f6e6c79204f776e65720000000000000000000000000000000000000000000060448201526064015b60405180910390fd5b600180547fffffffffffffffffffffffff00000000000000000000000000000000000000001673ffffffffffffffffffffffffffffffffffffffff92909216919091179055565b60005473ffffffffffffffffffffffffffffffffffffffff1633146106d9576040517f08c379a000000000000000000000000000000000000000000000000000000000815260206004820152600a60248201527f4f6e6c79204f776e6572000000000000000000000000000000000000000000006044820152606401610608565b806002836040516106ea9190613682565b908152604051908190036020019020805473ffffffffffffffffffffffffffffffffffffffff929092167fffffffffffffffffffffffff00000000000000000000000000000000000000009092169190911790555050565b60408082015160035491517fb796e2b0000000000000000000000000000000000000000000000000000000008152909173ffffffffffffffffffffffffffffffffffffffff169063b796e2b09061079f90849033906004016136e8565b60206040518083038186803b1580156107b757600080fd5b505afa1580156107cb573d6000803e3d6000fd5b505050506040513d601f19601f820116820180604052508101906107ef919061372b565b806107fe57506107fe81610ad5565b610864576040517f08c379a000000000000000000000000000000000000000000000000000000000815260206004820152600a60248201527f4f6e6c792061646d696e000000000000000000000000000000000000000000006044820152606401610608565b606461089283610160015161088c85610140015186610120015161223590919063ffffffff16565b90612235565b11156108fa576040517f08c379a000000000000000000000000000000000000000000000000000000000815260206004820152601d60248201527f50726f706f7274696f6e20636f756c64206e6f742065786365656420310000006044820152606401610608565b6004805483516040517fa2f77bcc0000000000000000000000000000000000000000000000000000000081529283015260009173ffffffffffffffffffffffffffffffffffffffff9091169063a2f77bcc9060240160006040518083038186803b15801561096757600080fd5b505afa15801561097b573d6000803e3d6000fd5b505050506040513d6000823e601f3d9081017fffffffffffffffffffffffffffffffffffffffffffffffffffffffffffffffe01682016040526109c19190810190613873565b905080610300015115610a30576040517f08c379a000000000000000000000000000000000000000000000000000000000815260206004820152600a60248201527f45786973742067616d65000000000000000000000000000000000000000000006044820152606401610608565b506001610300830152336103208301526004805460408085015190517f9013e781000000000000000000000000000000000000000000000000000000008152859373ffffffffffffffffffffffffffffffffffffffff90931692639013e78192610a9e929091869101613b7e565b600060405180830381600087803b158015610ab857600080fd5b505af1158015610acc573d6000803e3d6000fd5b50505050505050565b60015460009073ffffffffffffffffffffffffffffffffffffffff16331480610b4857503373ffffffffffffffffffffffffffffffffffffffff16600283604051610b209190613682565b9081526040519081900360200190205473ffffffffffffffffffffffffffffffffffffffff16145b92915050565b60005473ffffffffffffffffffffffffffffffffffffffff163314610bcf576040517f08c379a000000000000000000000000000000000000000000000000000000000815260206004820152600a60248201527f4f6e6c79204f776e6572000000000000000000000000000000000000000000006044820152606401610608565b600755565b60005473ffffffffffffffffffffffffffffffffffffffff163314610c55576040517f08c379a000000000000000000000000000000000000000000000000000000000815260206004820152600a60248201527f4f6e6c79204f776e6572000000000000000000000000000000000000000000006044820152606401610608565b600b55565b610c6482826122b5565b610c6e82826123e9565b600480546040517fa2f77bcc00000000000000000000000000000000000000000000000000000000815291820184905260009173ffffffffffffffffffffffffffffffffffffffff9091169063a2f77bcc9060240160006040518083038186803b158015610cdb57600080fd5b505afa158015610cef573d6000803e3d6000fd5b505050506040513d6000823e601f3d9081017fffffffffffffffffffffffffffffffffffffffffffffffffffffffffffffffe0168201604052610d359190810190613873565b90506000610d4484843361251e565b5090508015610daf576040517f08c379a000000000000000000000000000000000000000000000000000000000815260206004820152601760248201527f416c7265616479206a6f696e6564207468652067616d650000000000000000006044820152606401610608565b61024082015115610ef55781610200015115610e3957816102400151341015610e34576040517f08c379a000000000000000000000000000000000000000000000000000000000815260206004820152601460248201527f496e73756666696369656e742062616c616e63650000000000000000000000006044820152606401610608565b610ef5565b6102208201516102408301516040517f23b872dd000000000000000000000000000000000000000000000000000000008152336004820152306024820152604481019190915273ffffffffffffffffffffffffffffffffffffffff909116906323b872dd90606401602060405180830381600087803b158015610ebb57600080fd5b505af1158015610ecf573d6000803e3d6000fd5b505050506040513d601f19601f82011682018060405250810190610ef3919061372b565b505b600480546040517fffe41ad30000000000000000000000000000000000000000000000000000000081529182018690526024820185905233604483015273ffffffffffffffffffffffffffffffffffffffff169063ffe41ad390606401600060405180830381600087803b158015610f6c57600080fd5b505af1158015610f80573d6000803e3d6000fd5b50506005546000878152600a60209081526040808320898452909152908190205490517fa71a0c070000000000000000000000000000000000000000000000000000000081526004810189905260248101889052604481019190915273ffffffffffffffffffffffffffffffffffffffff909116925063a71a0c079150606401600060405180830381600087803b15801561101a57600080fd5b505af115801561102e573d6000803e3d6000fd5b5050506000858152600a60209081526040808320878452909152812080546001935090919061105e908490613daf565b909155505050505050565b60005473ffffffffffffffffffffffffffffffffffffffff1633146110ea576040517f08c379a000000000000000000000000000000000000000000000000000000000815260206004820152600a60248201527f4f6e6c79204f776e6572000000000000000000000000000000000000000000006044820152606401610608565b600080547fffffffffffffffffffffffff00000000000000000000000000000000000000001673ffffffffffffffffffffffffffffffffffffffff92909216919091179055565b61113a83610ad5565b6111a0576040517f08c379a000000000000000000000000000000000000000000000000000000000815260206004820152600d60248201527f4f6e6c79206f70657261746f72000000000000000000000000000000000000006044820152606401610608565b6111aa82826122b5565b6111b482826123e9565b600480546040517f0d2dce220000000000000000000000000000000000000000000000000000000081529182018490526024820183905260009173ffffffffffffffffffffffffffffffffffffffff90911690630d2dce229060440160006040518083038186803b15801561122857600080fd5b505afa15801561123c573d6000803e3d6000fd5b505050506040513d6000823e601f3d9081017fffffffffffffffffffffffffffffffffffffffffffffffffffffffffffffffe01682016040526112829190810190613e2b565b600480546040517f70c1b1d70000000000000000000000000000000000000000000000000000000081529182018690526024820185905291925060009173ffffffffffffffffffffffffffffffffffffffff16906370c1b1d79060440160006040518083038186803b1580156112f757600080fd5b505afa15801561130b573d6000803e3d6000fd5b505050506040513d6000823e601f3d9081017fffffffffffffffffffffffffffffffffffffffffffffffffffffffffffffffe01682016040526113519190810190613e60565b6005546040517f532af7d2000000000000000000000000000000000000000000000000000000008152600481018790526024810186905291925060009182918291829173ffffffffffffffffffffffffffffffffffffffff169063532af7d290604401600060405180830381600087803b1580156113ce57600080fd5b505af11580156113e2573d6000803e3d6000fd5b505050506040513d6000823e601f3d9081017fffffffffffffffffffffffffffffffffffffffffffffffffffffffffffffffe01682016040526114289190810190613f9f565b6040808a018290528a5160608b015260c08a0185905260e08a018490526101008a0183905260016101208b01526004805491517ff1ae9494000000000000000000000000000000000000000000000000000000008152959950939750919550935073ffffffffffffffffffffffffffffffffffffffff169163f1ae9494916114b6918c918c918b9101614092565b600060405180830381600087803b1580156114d057600080fd5b505af11580156114e4573d6000803e3d6000fd5b505050506114f8888660800151838a612673565b505050505050505050565b61150d83836123e9565b61151783836122b5565b6115218382612a06565b611587576040517f08c379a000000000000000000000000000000000000000000000000000000000815260206004820152601160248201527f4e6f206275666620617661696c61626c650000000000000000000000000000006044820152606401610608565b60008061159585853361251e565b9150915081611600576040517f08c379a000000000000000000000000000000000000000000000000000000000815260206004820152601060248201527f47616d65206861732073746172746564000000000000000000000000000000006044820152606401610608565b61160b858583612b26565b15611672576040517f08c379a000000000000000000000000000000000000000000000000000000000815260206004820152601060248201527f416c7265616479206861642062756666000000000000000000000000000000006044820152606401610608565b6006546007546040517f9dc29fac000000000000000000000000000000000000000000000000000000008152336004820152602481019190915273ffffffffffffffffffffffffffffffffffffffff90911690639dc29fac90604401600060405180830381600087803b1580156116e857600080fd5b505af11580156116fc573d6000803e3d6000fd5b5050600480546040517f42f2a5e3000000000000000000000000000000000000000000000000000000008152918201899052602482018890526044820185905273ffffffffffffffffffffffffffffffffffffffff1692506342f2a5e39150606401600060405180830381600087803b15801561177857600080fd5b505af115801561178c573d6000803e3d6000fd5b50506005546040517fd8602ed100000000000000000000000000000000000000000000000000000000815260048101899052602481018890526044810185905273ffffffffffffffffffffffffffffffffffffffff909116925063d8602ed191506064015b600060405180830381600087803b15801561180b57600080fd5b505af11580156114f8573d6000803e3d6000fd5b61182882612c45565b60003411611892576040517f08c379a000000000000000000000000000000000000000000000000000000000815260206004820152600e60248201527f50726570617920666f72206761730000000000000000000000000000000000006044820152606401610608565b600480546040517fdc3dd69e00000000000000000000000000000000000000000000000000000000815291820184905260009173ffffffffffffffffffffffffffffffffffffffff9091169063dc3dd69e9060240160206040518083038186803b1580156118ff57600080fd5b505afa158015611913573d6000803e3d6000fd5b505050506040513d601f19601f8201168201806040525081019061193791906141b9565b905060008112611a7557600480546040517f70c1b1d70000000000000000000000000000000000000000000000000000000081529182018590526024820183905273ffffffffffffffffffffffffffffffffffffffff16906370c1b1d79060440160006040518083038186803b1580156119b057600080fd5b505afa1580156119c4573d6000803e3d6000fd5b505050506040513d6000823e601f3d9081017fffffffffffffffffffffffffffffffffffffffffffffffffffffffffffffffe0168201604052611a0a9190810190613e60565b6101200151611a75576040517f08c379a000000000000000000000000000000000000000000000000000000000815260206004820152601260248201527f47616d65207374696c6c2072756e6e696e6700000000000000000000000000006044820152606401610608565b6000600285604051611a879190613682565b9081526040519081900360200190205473ffffffffffffffffffffffffffffffffffffffff16905080611acf575060015473ffffffffffffffffffffffffffffffffffffffff165b60405173ffffffffffffffffffffffffffffffffffffffff8216903480156108fc02916000818181858888f19350505050158015611b11573d6000803e3d6000fd5b50600480546040517f57e40a640000000000000000000000000000000000000000000000000000000081529182018690523360248301526044820185905273ffffffffffffffffffffffffffffffffffffffff16906357e40a64906064016117f1565b60005473ffffffffffffffffffffffffffffffffffffffff163314611bf5576040517f08c379a000000000000000000000000000000000000000000000000000000000815260206004820152600a60248201527f4f6e6c79204f776e6572000000000000000000000000000000000000000000006044820152606401610608565b600680547fffffffffffffffffffffffff00000000000000000000000000000000000000001673ffffffffffffffffffffffffffffffffffffffff92909216919091179055565b60005473ffffffffffffffffffffffffffffffffffffffff163314611cbd576040517f08c379a000000000000000000000000000000000000000000000000000000000815260206004820152600a60248201527f4f6e6c79204f776e6572000000000000000000000000000000000000000000006044820152606401610608565b6000600282604051611ccf9190613682565b908152604051908190036020019020805473ffffffffffffffffffffffffffffffffffffffff929092167fffffffffffffffffffffffff000000000000000000000000000000000000000090921691909117905550565b60005473ffffffffffffffffffffffffffffffffffffffff163314611da7576040517f08c379a000000000000000000000000000000000000000000000000000000000815260206004820152600a60248201527f4f6e6c79204f776e6572000000000000000000000000000000000000000000006044820152606401610608565b4715611df15760405173ffffffffffffffffffffffffffffffffffffffff8216904780156108fc02916000818181858888f19350505050158015611def573d6000803e3d6000fd5b505b60005b600854811015611fa257600060088281548110611e1357611e136141d2565b6000918252602090912001546040517f70a0823100000000000000000000000000000000000000000000000000000000815230600482015273ffffffffffffffffffffffffffffffffffffffff909116906370a082319060240160206040518083038186803b158015611e8557600080fd5b505afa158015611e99573d6000803e3d6000fd5b505050506040513d601f19601f82011682018060405250810190611ebd91906141b9565b90508015611f8f5760088281548110611ed857611ed86141d2565b6000918252602090912001546040517fa9059cbb00000000000000000000000000000000000000000000000000000000815273ffffffffffffffffffffffffffffffffffffffff8581166004830152602482018490529091169063a9059cbb90604401602060405180830381600087803b158015611f5557600080fd5b505af1158015611f69573d6000803e3d6000fd5b505050506040513d601f19601f82011682018060405250810190611f8d919061372b565b505b5080611f9a81614201565b915050611df4565b5050565b60005473ffffffffffffffffffffffffffffffffffffffff163314612027576040517f08c379a000000000000000000000000000000000000000000000000000000000815260206004820152600a60248201527f4f6e6c79204f776e6572000000000000000000000000000000000000000000006044820152606401610608565b600380547fffffffffffffffffffffffff00000000000000000000000000000000000000001673ffffffffffffffffffffffffffffffffffffffff92909216919091179055565b60005473ffffffffffffffffffffffffffffffffffffffff1633146120ef576040517f08c379a000000000000000000000000000000000000000000000000000000000815260206004820152600a60248201527f4f6e6c79204f776e6572000000000000000000000000000000000000000000006044820152606401610608565b600480547fffffffffffffffffffffffff00000000000000000000000000000000000000001673ffffffffffffffffffffffffffffffffffffffff92909216919091179055565b6008818154811061214657600080fd5b60009182526020909120015473ffffffffffffffffffffffffffffffffffffffff16905081565b60005473ffffffffffffffffffffffffffffffffffffffff1633146121ee576040517f08c379a000000000000000000000000000000000000000000000000000000000815260206004820152600a60248201527f4f6e6c79204f776e6572000000000000000000000000000000000000000000006044820152606401610608565b600580547fffffffffffffffffffffffff00000000000000000000000000000000000000001673ffffffffffffffffffffffffffffffffffffffff92909216919091179055565b6000806122428385613daf565b9050838110156122ae576040517f08c379a000000000000000000000000000000000000000000000000000000000815260206004820152601160248201527f6164646974696f6e206f766572666c6f770000000000000000000000000000006044820152606401610608565b9392505050565b600480546040517f70c1b1d70000000000000000000000000000000000000000000000000000000081529182018490526024820183905273ffffffffffffffffffffffffffffffffffffffff16906370c1b1d79060440160006040518083038186803b15801561232457600080fd5b505afa158015612338573d6000803e3d6000fd5b505050506040513d6000823e601f3d9081017fffffffffffffffffffffffffffffffffffffffffffffffffffffffffffffffe016820160405261237e9190810190613e60565b6101400151611fa2576040517f08c379a000000000000000000000000000000000000000000000000000000000815260206004820152601560248201527f43757272656e742067616d652066696e697368656400000000000000000000006044820152606401610608565b600480546040517f70c1b1d70000000000000000000000000000000000000000000000000000000081529182018490526024820183905273ffffffffffffffffffffffffffffffffffffffff16906370c1b1d79060440160006040518083038186803b15801561245857600080fd5b505afa15801561246c573d6000803e3d6000fd5b505050506040513d6000823e601f3d9081017fffffffffffffffffffffffffffffffffffffffffffffffffffffffffffffffe01682016040526124b29190810190613e60565b610120015115611fa2576040517f08c379a000000000000000000000000000000000000000000000000000000000815260206004820152601060248201527f47616d65206861732073746172746564000000000000000000000000000000006044820152606401610608565b600480546040517f0d2dce22000000000000000000000000000000000000000000000000000000008152918201859052602482018490526000918291829173ffffffffffffffffffffffffffffffffffffffff90911690630d2dce229060440160006040518083038186803b15801561259657600080fd5b505afa1580156125aa573d6000803e3d6000fd5b505050506040513d6000823e601f3d9081017fffffffffffffffffffffffffffffffffffffffffffffffffffffffffffffffe01682016040526125f09190810190613e2b565b905060005b8151811015612669578473ffffffffffffffffffffffffffffffffffffffff16828281518110612627576126276141d2565b602002602001015173ffffffffffffffffffffffffffffffffffffffff1614156126575760019350809250612669565b8061266181614201565b9150506125f5565b5050935093915050565b815161267e57612a00565b600480546040517fa2f77bcc00000000000000000000000000000000000000000000000000000000815291820186905260009173ffffffffffffffffffffffffffffffffffffffff9091169063a2f77bcc9060240160006040518083038186803b1580156126eb57600080fd5b505afa1580156126ff573d6000803e3d6000fd5b505050506040513d6000823e601f3d9081017fffffffffffffffffffffffffffffffffffffffffffffffffffffffffffffffe01682016040526127459190810190613873565b600480546040517f751938af0000000000000000000000000000000000000000000000000000000081529182018890526024820185905291925060009173ffffffffffffffffffffffffffffffffffffffff169063751938af9060440160206040518083038186803b1580156127ba57600080fd5b505afa1580156127ce573d6000803e3d6000fd5b505050506040513d601f19601f820116820180604052508101906127f291906141b9565b905080612800575050612a00565b6000612825606461281f85610120015185612d7590919063ffffffff16565b90612e2a565b90506000612846606461281f86610140015186612d7590919063ffffffff16565b90506000612867606461281f87610160015187612d7590919063ffffffff16565b9050600061287f885185612e2a90919063ffffffff16565b905060005b88518110156129dd57866102000151156128fd578881815181106128aa576128aa6141d2565b602002602001015173ffffffffffffffffffffffffffffffffffffffff166108fc839081150290604051600060405180830381858888f193505050501580156128f7573d6000803e3d6000fd5b506129cb565b86610220015173ffffffffffffffffffffffffffffffffffffffff1663a9059cbb8a8381518110612930576129306141d2565b6020026020010151846040518363ffffffff1660e01b815260040161297792919073ffffffffffffffffffffffffffffffffffffffff929092168252602082015260400190565b602060405180830381600087803b15801561299157600080fd5b505af11580156129a5573d6000803e3d6000fd5b505050506040513d601f19601f820116820180604052508101906129c9919061372b565b505b806129d581614201565b915050612884565b506129ee8687610320015185612e6c565b6129f9868a84612e6c565b5050505050505b50505050565b600480546040517fa2f77bcc000000000000000000000000000000000000000000000000000000008152918201849052600091829173ffffffffffffffffffffffffffffffffffffffff169063a2f77bcc9060240160006040518083038186803b158015612a7357600080fd5b505afa158015612a87573d6000803e3d6000fd5b505050506040513d6000823e601f3d9081017fffffffffffffffffffffffffffffffffffffffffffffffffffffffffffffffe0168201604052612acd9190810190613873565b6101a0015190506000805b8251811015612b1d5784838281518110612af457612af46141d2565b60200260200101511415612b0b5760019150612b1d565b80612b1581614201565b915050612ad8565b50949350505050565b600480546040517f6a3f5dc500000000000000000000000000000000000000000000000000000000815291820185905260248201849052600091829173ffffffffffffffffffffffffffffffffffffffff1690636a3f5dc59060440160006040518083038186803b158015612b9a57600080fd5b505afa158015612bae573d6000803e3d6000fd5b505050506040513d6000823e601f3d9081017fffffffffffffffffffffffffffffffffffffffffffffffffffffffffffffffe0168201604052612bf4919081019061423a565b90506000805b8251811015612c3b5784838281518110612c1657612c166141d2565b60200260200101511415612c2957600191505b80612c3381614201565b915050612bfa565b5095945050505050565b600480546040517fa2f77bcc00000000000000000000000000000000000000000000000000000000815291820183905273ffffffffffffffffffffffffffffffffffffffff169063a2f77bcc9060240160006040518083038186803b158015612cad57600080fd5b505afa158015612cc1573d6000803e3d6000fd5b505050506040513d6000823e601f3d9081017fffffffffffffffffffffffffffffffffffffffffffffffffffffffffffffffe0168201604052612d079190810190613873565b6103000151612d72576040517f08c379a000000000000000000000000000000000000000000000000000000000815260206004820152601260248201527f4e6f2067616d6520636f6e6669677572656400000000000000000000000000006044820152606401610608565b50565b600082612d8457506000610b48565b6000612d90838561426f565b905082612d9d85836142ac565b146122ae576040517f08c379a000000000000000000000000000000000000000000000000000000000815260206004820152602160248201527f536166654d6174683a206d756c7469706c69636174696f6e206f766572666c6f60448201527f77000000000000000000000000000000000000000000000000000000000000006064820152608401610608565b60006122ae83836040518060400160405280601a81526020017f536166654d6174683a206469766973696f6e206279207a65726f000000000000815250612f69565b82610200015115612eba5760405173ffffffffffffffffffffffffffffffffffffffff83169082156108fc029083906000818181858888f19350505050158015612a00573d6000803e3d6000fd5b6102208301516040517fa9059cbb00000000000000000000000000000000000000000000000000000000815273ffffffffffffffffffffffffffffffffffffffff8481166004830152602482018490529091169063a9059cbb90604401602060405180830381600087803b158015612f3157600080fd5b505af1158015612f45573d6000803e3d6000fd5b505050506040513d601f19601f82011682018060405250810190612a00919061372b565b60008183612fa4576040517f08c379a000000000000000000000000000000000000000000000000000000000815260040161060891906142e7565b506000612fb184866142ac565b95945050505050565b73ffffffffffffffffffffffffffffffffffffffff81168114612d7257600080fd5b600060208284031215612fee57600080fd5b81356122ae81612fba565b7f4e487b7100000000000000000000000000000000000000000000000000000000600052604160045260246000fd5b604051610380810167ffffffffffffffff8111828210171561304c5761304c612ff9565b60405290565b604051610160810167ffffffffffffffff8111828210171561304c5761304c612ff9565b604051601f82017fffffffffffffffffffffffffffffffffffffffffffffffffffffffffffffffe016810167ffffffffffffffff811182821017156130bd576130bd612ff9565b604052919050565b600067ffffffffffffffff8211156130df576130df612ff9565b50601f017fffffffffffffffffffffffffffffffffffffffffffffffffffffffffffffffe01660200190565b600082601f83011261311c57600080fd5b813561312f61312a826130c5565b613076565b81815284602083860101111561314457600080fd5b816020850160208301376000918101602001919091529392505050565b6000806040838503121561317457600080fd5b823567ffffffffffffffff81111561318b57600080fd5b6131978582860161310b565b92505060208301356131a881612fba565b809150509250929050565b600067ffffffffffffffff8211156131cd576131cd612ff9565b5060051b60200190565b600082601f8301126131e857600080fd5b813560206131f861312a836131b3565b82815260059290921b8401810191818101908684111561321757600080fd5b8286015b84811015613232578035835291830191830161321b565b509695505050505050565b600082601f83011261324e57600080fd5b8135602061325e61312a836131b3565b82815260059290921b8401810191818101908684111561327d57600080fd5b8286015b8481101561323257803567ffffffffffffffff8111156132a15760008081fd5b6132af8986838b010161310b565b845250918301918301613281565b8015158114612d7257600080fd5b80356132d6816132bd565b919050565b80356132d681612fba565b6000602082840312156132f857600080fd5b813567ffffffffffffffff8082111561331057600080fd5b90830190610380828603121561332557600080fd5b61332d613028565b823581526020830135602082015260408301358281111561334d57600080fd5b6133598782860161310b565b60408301525060608301358281111561337157600080fd5b61337d878286016131d7565b6060830152506080830135608082015260a08301358281111561339f57600080fd5b6133ab8782860161310b565b60a08301525060c0830135828111156133c357600080fd5b6133cf8782860161310b565b60c08301525060e0830135828111156133e757600080fd5b6133f38782860161310b565b60e083015250610100838101359082015261012080840135908201526101408084013590820152610160808401359082015261018080840135908201526101a0808401358381111561344457600080fd5b613450888287016131d7565b8284015250506101c0808401358381111561346a57600080fd5b6134768882870161310b565b8284015250506101e0808401358381111561349057600080fd5b61349c8882870161323d565b82840152505061020091506134b28284016132cb565b8282015261022091506134c68284016132db565b918101919091526102408281013590820152610260808301359082015261028080830135908201526102a0906134fd8284016132cb565b918101919091526102c082810135908201526102e08083013590820152610300906135298284016132cb565b82820152610320915061353d8284016132db565b91810191909152610340828101359082015261036091820135918101919091529392505050565b60006020828403121561357657600080fd5b813567ffffffffffffffff81111561358d57600080fd5b6135998482850161310b565b949350505050565b6000602082840312156135b357600080fd5b5035919050565b600080604083850312156135cd57600080fd5b50508035926020909101359150565b6000806000606084860312156135f157600080fd5b833567ffffffffffffffff81111561360857600080fd5b6136148682870161310b565b9660208601359650604090950135949350505050565b60008060006060848603121561363f57600080fd5b505081359360208301359350604090920135919050565b60005b83811015613671578181015183820152602001613659565b83811115612a005750506000910152565b60008251613694818460208701613656565b9190910192915050565b600081518084526136b6816020860160208601613656565b601f017fffffffffffffffffffffffffffffffffffffffffffffffffffffffffffffffe0169290920160200192915050565b6040815260006136fb604083018561369e565b905073ffffffffffffffffffffffffffffffffffffffff831660208301529392505050565b80516132d6816132bd565b60006020828403121561373d57600080fd5b81516122ae816132bd565b600082601f83011261375957600080fd5b815161376761312a826130c5565b81815284602083860101111561377c57600080fd5b613599826020830160208701613656565b600082601f83011261379e57600080fd5b815160206137ae61312a836131b3565b82815260059290921b840181019181810190868411156137cd57600080fd5b8286015b8481101561323257805183529183019183016137d1565b600082601f8301126137f957600080fd5b8151602061380961312a836131b3565b82815260059290921b8401810191818101908684111561382857600080fd5b8286015b8481101561323257805167ffffffffffffffff81111561384c5760008081fd5b61385a8986838b0101613748565b84525091830191830161382c565b80516132d681612fba565b60006020828403121561388557600080fd5b815167ffffffffffffffff8082111561389d57600080fd5b9083019061038082860312156138b257600080fd5b6138ba613028565b82518152602083015160208201526040830151828111156138da57600080fd5b6138e687828601613748565b6040830152506060830151828111156138fe57600080fd5b61390a8782860161378d565b6060830152506080830151608082015260a08301518281111561392c57600080fd5b61393887828601613748565b60a08301525060c08301518281111561395057600080fd5b61395c87828601613748565b60c08301525060e08301518281111561397457600080fd5b61398087828601613748565b60e083015250610100838101519082015261012080840151908201526101408084015190820152610160808401519082015261018080840151908201526101a080840151838111156139d157600080fd5b6139dd8882870161378d565b8284015250506101c080840151838111156139f757600080fd5b613a0388828701613748565b8284015250506101e08084015183811115613a1d57600080fd5b613a29888287016137e8565b8284015250506102009150613a3f828401613720565b828201526102209150613a53828401613868565b918101919091526102408281015190820152610260808301519082015261028080830151908201526102a090613a8a828401613720565b918101919091526102c082810151908201526102e0808301519082015261030090613ab6828401613720565b828201526103209150613aca828401613868565b91810191909152610340828101519082015261036091820151918101919091529392505050565b600081518084526020808501945080840160005b83811015613b2157815187529582019590820190600101613b05565b509495945050505050565b6000815180845260208085019450848260051b860182860160005b85811015613b71578383038952613b5f83835161369e565b98850198925090840190600101613b47565b5090979650505050505050565b604081526000613b91604083018561369e565b828103602084015261038084518252602085015160208301526040850151816040840152613bc18284018261369e565b91505060608501518282036060840152613bdb8282613af1565b9150506080850151608083015260a085015182820360a0840152613bff828261369e565b91505060c085015182820360c0840152613c19828261369e565b91505060e085015182820360e0840152613c33828261369e565b610100878101519085015261012080880151908501526101408088015190850152610160808801519085015261018080880151908501526101a080880151858303828701529193509150613c878382613af1565b925050506101c08086015183830382850152613ca3838261369e565b925050506101e08086015183830382850152613cbf8382613b2c565b9250505061020080860151613cd78285018215159052565b50506102208581015173ffffffffffffffffffffffffffffffffffffffff908116918401919091526102408087015190840152610260808701519084015261028080870151908401526102a0808701511515908401526102c080870151908401526102e080870151908401526103008087015115159084015261032080870151909116908301526103408086015190830152610360948501519490910193909352509092915050565b7f4e487b7100000000000000000000000000000000000000000000000000000000600052601160045260246000fd5b60008219821115613dc257613dc2613d80565b500190565b600082601f830112613dd857600080fd5b81516020613de861312a836131b3565b82815260059290921b84018101918181019086841115613e0757600080fd5b8286015b84811015613232578051613e1e81612fba565b8352918301918301613e0b565b600060208284031215613e3d57600080fd5b815167ffffffffffffffff811115613e5457600080fd5b61359984828501613dc7565b600060208284031215613e7257600080fd5b815167ffffffffffffffff80821115613e8a57600080fd5b908301906101608286031215613e9f57600080fd5b613ea7613052565b8251815260208301516020820152604083015182811115613ec757600080fd5b613ed387828601613dc7565b60408301525060608301516060820152613eef60808401613868565b608082015260a083015160a082015260c083015182811115613f1057600080fd5b613f1c8782860161378d565b60c08301525060e083015182811115613f3457600080fd5b613f408782860161378d565b60e0830152506101008084015183811115613f5a57600080fd5b613f668882870161378d565b8284015250506101209150613f7c828401613720565b828201526101409150613f90828401613720565b91810191909152949350505050565b60008060008060808587031215613fb557600080fd5b845167ffffffffffffffff80821115613fcd57600080fd5b613fd98883890161378d565b95506020870151915080821115613fef57600080fd5b613ffb8883890161378d565b9450604087015191508082111561401157600080fd5b61401d8883890161378d565b9350606087015191508082111561403357600080fd5b5061404087828801613dc7565b91505092959194509250565b600081518084526020808501945080840160005b83811015613b2157815173ffffffffffffffffffffffffffffffffffffffff1687529582019590820190600101614060565b838152826020820152606060408201528151606082015260208201516080820152600060408301516101608060a08501526140d16101c085018361404c565b9150606085015160c0850152608085015161410460e086018273ffffffffffffffffffffffffffffffffffffffff169052565b5060a0850151610100818187015260c087015191507fffffffffffffffffffffffffffffffffffffffffffffffffffffffffffffffa06101208188870301818901526141508685613af1565b955060e089015193506101408289880301818a015261416f8786613af1565b9650838a015194508289880301868a015261418a8786613af1565b9650818a015195506141a16101808a018715159052565b8901518015156101a08a01529450612c3b9350505050565b6000602082840312156141cb57600080fd5b5051919050565b7f4e487b7100000000000000000000000000000000000000000000000000000000600052603260045260246000fd5b60007fffffffffffffffffffffffffffffffffffffffffffffffffffffffffffffffff82141561423357614233613d80565b5060010190565b60006020828403121561424c57600080fd5b815167ffffffffffffffff81111561426357600080fd5b6135998482850161378d565b6000817fffffffffffffffffffffffffffffffffffffffffffffffffffffffffffffffff04831182151516156142a7576142a7613d80565b500290565b6000826142e2577f4e487b7100000000000000000000000000000000000000000000000000000000600052601260045260246000fd5b500490565b6020815260006122ae602083018461369e56fea2646970667358221220212250e999a305a5132c9761cbcb6c3806aa35d7486e3c56f36c1545de80e97d64736f6c63430008090033",
  "linkReferences": {},
  "deployedLinkReferences": {}
}