{
  "_format": "hh-sol-artifact-1",
  "contractName": "Game",
  "sourceName": "src/contracts/game/game.sol",
  "abi": [
    {
      "inputs": [
        {
          "internalType": "address payable",
          "name": "_operator",
          "type": "address"
        },
        {
          "internalType": "contract IAdminData",
          "name": "_adminData",
          "type": "address"
        },
        {
          "internalType": "contract IGameData",
          "name": "_gameData",
          "type": "address"
        },
        {
          "internalType": "contract IGameLogic",
          "name": "_gameLogic",
          "type": "address"
        },
        {
          "internalType": "contract IQuizToken",
          "name": "_buffToken",
          "type": "address"
        },
        {
          "internalType": "uint256",
          "name": "_buffValue",
          "type": "uint256"
        }
      ],
      "stateMutability": "nonpayable",
      "type": "constructor"
    },
    {
      "inputs": [
        {
          "internalType": "string",
          "name": "_appId",
          "type": "string"
        },
        {
          "internalType": "address payable",
          "name": "_newOperator",
          "type": "address"
        }
      ],
      "name": "addAppOperator",
      "outputs": [],
      "stateMutability": "nonpayable",
      "type": "function"
    },
    {
      "inputs": [],
      "name": "adminData",
      "outputs": [
        {
          "internalType": "contract IAdminData",
          "name": "",
          "type": "address"
        }
      ],
      "stateMutability": "view",
      "type": "function"
    },
    {
      "inputs": [],
      "name": "availableSize",
      "outputs": [
        {
          "internalType": "uint256",
          "name": "",
          "type": "uint256"
        }
      ],
      "stateMutability": "view",
      "type": "function"
    },
    {
      "inputs": [],
      "name": "buffToken",
      "outputs": [
        {
          "internalType": "contract IQuizToken",
          "name": "",
          "type": "address"
        }
      ],
      "stateMutability": "view",
      "type": "function"
    },
    {
      "inputs": [],
      "name": "buffValue",
      "outputs": [
        {
          "internalType": "uint256",
          "name": "",
          "type": "uint256"
        }
      ],
      "stateMutability": "view",
      "type": "function"
    },
    {
      "inputs": [
        {
          "internalType": "uint256",
          "name": "_gameId",
          "type": "uint256"
        },
        {
          "internalType": "uint256",
          "name": "_round",
          "type": "uint256"
        },
        {
          "internalType": "uint256",
          "name": "_buffId",
          "type": "uint256"
        }
      ],
      "name": "buyBuff",
      "outputs": [],
      "stateMutability": "nonpayable",
      "type": "function"
    },
    {
      "inputs": [
        {
          "internalType": "uint256",
          "name": "_gameId",
          "type": "uint256"
        },
        {
          "internalType": "uint256",
          "name": "_round",
          "type": "uint256"
        }
      ],
      "name": "buyTicket",
      "outputs": [],
      "stateMutability": "payable",
      "type": "function"
    },
    {
      "inputs": [
        {
          "internalType": "contract IAdminData",
          "name": "_newData",
          "type": "address"
        }
      ],
      "name": "changeAdminData",
      "outputs": [],
      "stateMutability": "nonpayable",
      "type": "function"
    },
    {
      "inputs": [
        {
          "internalType": "contract IQuizToken",
          "name": "_newToken",
          "type": "address"
        }
      ],
      "name": "changeBuffToken",
      "outputs": [],
      "stateMutability": "nonpayable",
      "type": "function"
    },
    {
      "inputs": [
        {
          "internalType": "uint256",
          "name": "_newValue",
          "type": "uint256"
        }
      ],
      "name": "changeBuffValue",
      "outputs": [],
      "stateMutability": "nonpayable",
      "type": "function"
    },
    {
      "inputs": [
        {
          "internalType": "contract IGameData",
          "name": "_newData",
          "type": "address"
        }
      ],
      "name": "changeGameData",
      "outputs": [],
      "stateMutability": "nonpayable",
      "type": "function"
    },
    {
      "inputs": [
        {
          "internalType": "address payable",
          "name": "_newOperator",
          "type": "address"
        }
      ],
      "name": "changeOperator",
      "outputs": [],
      "stateMutability": "nonpayable",
      "type": "function"
    },
    {
      "inputs": [
        {
          "components": [
            {
              "internalType": "uint256",
              "name": "id",
              "type": "uint256"
            },
            {
              "internalType": "uint256",
              "name": "category",
              "type": "uint256"
            },
            {
              "internalType": "string",
              "name": "appId",
              "type": "string"
            },
            {
              "internalType": "int256",
              "name": "groupId",
              "type": "int256"
            },
            {
              "internalType": "uint256",
              "name": "botType",
              "type": "uint256"
            },
            {
              "internalType": "string",
              "name": "title",
              "type": "string"
            },
            {
              "internalType": "string",
              "name": "introduction",
              "type": "string"
            },
            {
              "internalType": "string",
              "name": "story",
              "type": "string"
            },
            {
              "internalType": "uint256",
              "name": "eliminateProportion",
              "type": "uint256"
            },
            {
              "internalType": "uint256",
              "name": "awardProportion",
              "type": "uint256"
            },
            {
              "internalType": "uint256",
              "name": "winnerNum",
              "type": "uint256"
            },
            {
              "internalType": "uint256[]",
              "name": "buffIds",
              "type": "uint256[]"
            },
            {
              "internalType": "string",
              "name": "buffDesc",
              "type": "string"
            },
            {
              "internalType": "string[]",
              "name": "events",
              "type": "string[]"
            },
            {
              "internalType": "bool",
              "name": "ticketIsEth",
              "type": "bool"
            },
            {
              "internalType": "contract IERC20",
              "name": "ticketsToken",
              "type": "address"
            },
            {
              "internalType": "uint256",
              "name": "ticketAmount",
              "type": "uint256"
            },
            {
              "internalType": "uint256",
              "name": "effectStartTime",
              "type": "uint256"
            },
            {
              "internalType": "uint256",
              "name": "effectEndTime",
              "type": "uint256"
            },
            {
              "internalType": "bool",
              "name": "daily",
              "type": "bool"
            },
            {
              "internalType": "uint256",
              "name": "startH",
              "type": "uint256"
            },
            {
              "internalType": "uint256",
              "name": "startM",
              "type": "uint256"
            },
            {
              "internalType": "bool",
              "name": "exist",
              "type": "bool"
            },
            {
              "internalType": "address",
              "name": "creator",
              "type": "address"
            }
          ],
          "internalType": "struct IGameData.GameDetail",
          "name": "_game",
          "type": "tuple"
        }
      ],
      "name": "createGame",
      "outputs": [],
      "stateMutability": "nonpayable",
      "type": "function"
    },
    {
      "inputs": [
        {
          "internalType": "string",
          "name": "_appId",
          "type": "string"
        }
      ],
      "name": "delAppOperator",
      "outputs": [],
      "stateMutability": "nonpayable",
      "type": "function"
    },
    {
      "inputs": [
        {
          "internalType": "contract IERC20",
          "name": "",
          "type": "address"
        }
      ],
      "name": "erc20Exist",
      "outputs": [
        {
          "internalType": "bool",
          "name": "",
          "type": "bool"
        }
      ],
      "stateMutability": "view",
      "type": "function"
    },
    {
      "inputs": [
        {
          "internalType": "uint256",
          "name": "",
          "type": "uint256"
        }
      ],
      "name": "erc20List",
      "outputs": [
        {
          "internalType": "contract IERC20",
          "name": "",
          "type": "address"
        }
      ],
      "stateMutability": "view",
      "type": "function"
    },
    {
      "inputs": [],
      "name": "gameData",
      "outputs": [
        {
          "internalType": "contract IGameData",
          "name": "",
          "type": "address"
        }
      ],
      "stateMutability": "view",
      "type": "function"
    },
    {
      "inputs": [],
      "name": "gameLogic",
      "outputs": [
        {
          "internalType": "contract IGameLogic",
          "name": "",
          "type": "address"
        }
      ],
      "stateMutability": "view",
      "type": "function"
    },
    {
      "inputs": [
        {
          "internalType": "string",
          "name": "_appId",
          "type": "string"
        },
        {
          "internalType": "uint256",
          "name": "_gameId",
          "type": "uint256"
        },
        {
          "internalType": "uint256",
          "name": "_round",
          "type": "uint256"
        }
      ],
      "name": "gameRoundOver",
      "outputs": [],
      "stateMutability": "nonpayable",
      "type": "function"
    },
    {
      "inputs": [
        {
          "internalType": "string",
          "name": "_appId",
          "type": "string"
        }
      ],
      "name": "isOperator",
      "outputs": [
        {
          "internalType": "bool",
          "name": "",
          "type": "bool"
        }
      ],
      "stateMutability": "view",
      "type": "function"
    },
    {
      "inputs": [],
      "name": "operator",
      "outputs": [
        {
          "internalType": "address payable",
          "name": "",
          "type": "address"
        }
      ],
      "stateMutability": "view",
      "type": "function"
    },
    {
      "inputs": [],
      "name": "owner",
      "outputs": [
        {
          "internalType": "address",
          "name": "",
          "type": "address"
        }
      ],
      "stateMutability": "view",
      "type": "function"
    },
    {
      "inputs": [
        {
          "internalType": "uint256",
          "name": "_newSize",
          "type": "uint256"
        }
      ],
      "name": "setAvailableSize",
      "outputs": [],
      "stateMutability": "nonpayable",
      "type": "function"
    },
    {
      "inputs": [
        {
          "internalType": "string",
          "name": "_appId",
          "type": "string"
        },
        {
          "internalType": "uint256",
          "name": "_gameId",
          "type": "uint256"
        },
        {
          "internalType": "uint256",
          "name": "_launchTime",
          "type": "uint256"
        }
      ],
      "name": "startGame",
      "outputs": [],
      "stateMutability": "payable",
      "type": "function"
    },
    {
      "inputs": [
        {
          "internalType": "address payable",
          "name": "_to",
          "type": "address"
        }
      ],
      "name": "transferAsset",
      "outputs": [],
      "stateMutability": "nonpayable",
      "type": "function"
    },
    {
      "inputs": [
        {
          "internalType": "address",
          "name": "_newOwner",
          "type": "address"
        }
      ],
      "name": "transferOwner",
      "outputs": [],
      "stateMutability": "nonpayable",
      "type": "function"
    }
  ],
  "bytecode": "0x60806040526014600b553480156200001657600080fd5b5060405162005ba138038062005ba183398181016040528101906200003c9190620003a1565b336000806101000a81548173ffffffffffffffffffffffffffffffffffffffff021916908373ffffffffffffffffffffffffffffffffffffffff16021790555085600160006101000a81548173ffffffffffffffffffffffffffffffffffffffff021916908373ffffffffffffffffffffffffffffffffffffffff16021790555084600360006101000a81548173ffffffffffffffffffffffffffffffffffffffff021916908373ffffffffffffffffffffffffffffffffffffffff16021790555083600460006101000a81548173ffffffffffffffffffffffffffffffffffffffff021916908373ffffffffffffffffffffffffffffffffffffffff16021790555082600560006101000a81548173ffffffffffffffffffffffffffffffffffffffff021916908373ffffffffffffffffffffffffffffffffffffffff16021790555081600660006101000a81548173ffffffffffffffffffffffffffffffffffffffff021916908373ffffffffffffffffffffffffffffffffffffffff160217905550806007819055505050505050506200043d565b600080fd5b600073ffffffffffffffffffffffffffffffffffffffff82169050919050565b60006200020682620001d9565b9050919050565b6200021881620001f9565b81146200022457600080fd5b50565b60008151905062000238816200020d565b92915050565b60006200024b82620001d9565b9050919050565b60006200025f826200023e565b9050919050565b620002718162000252565b81146200027d57600080fd5b50565b600081519050620002918162000266565b92915050565b6000620002a4826200023e565b9050919050565b620002b68162000297565b8114620002c257600080fd5b50565b600081519050620002d681620002ab565b92915050565b6000620002e9826200023e565b9050919050565b620002fb81620002dc565b81146200030757600080fd5b50565b6000815190506200031b81620002f0565b92915050565b60006200032e826200023e565b9050919050565b620003408162000321565b81146200034c57600080fd5b50565b600081519050620003608162000335565b92915050565b6000819050919050565b6200037b8162000366565b81146200038757600080fd5b50565b6000815190506200039b8162000370565b92915050565b60008060008060008060c08789031215620003c157620003c0620001d4565b5b6000620003d189828a0162000227565b9650506020620003e489828a0162000280565b9550506040620003f789828a01620002c5565b94505060606200040a89828a016200030a565b93505060806200041d89828a016200034f565b92505060a06200043089828a016200038a565b9150509295509295509295565b615754806200044d6000396000f3fe6080604052600436106101a15760003560e01c80637e3dfe5c116100e1578063b7579b501161008a578063ce6e98f211610064578063ce6e98f214610548578063e606c9b814610571578063e86098f51461059a578063fa24f743146105d7576101a1565b8063b7579b50146104cd578063bb3f0911146104f6578063c7d7b6601461051f576101a1565b80638da5cb5b116100bb5780638da5cb5b1461045d578063b05c3f6714610488578063b2888e49146104b1576101a1565b80637e3dfe5c146103cc57806380690863146104095780638553ee9014610434576101a1565b806327a343b31161014e578063570ca73511610128578063570ca735146103225780635a2a79231461034d5780637742b301146103785780637d878731146103a1576101a1565b806327a343b3146102b4578063298ec208146102dd5780634fb2e45d146102f9576101a1565b8063134087a21161017f578063134087a2146102235780631f041bd11461024e5780632483eee51461028b576101a1565b806306394c9b146101a657806306d2ae8e146101cf5780630bd09979146101fa575b600080fd5b3480156101b257600080fd5b506101cd60048036038101906101c89190612d8a565b610602565b005b3480156101db57600080fd5b506101e46106d4565b6040516101f19190612e16565b60405180910390f35b34801561020657600080fd5b50610221600480360381019061021c9190612f77565b6106fa565b005b34801561022f57600080fd5b506102386107e9565b6040516102459190612ff4565b60405180910390f35b34801561025a57600080fd5b506102756004803603810190610270919061300f565b61080f565b6040516102829190613073565b60405180910390f35b34801561029757600080fd5b506102b260048036038101906102ad91906130c4565b6108dd565b005b3480156102c057600080fd5b506102db60048036038101906102d691906130c4565b610975565b005b6102f760048036038101906102f291906130f1565b610a0d565b005b34801561030557600080fd5b50610320600480360381019061031b919061316f565b610da1565b005b34801561032e57600080fd5b50610337610e72565b60405161034491906131ab565b60405180910390f35b34801561035957600080fd5b50610362610e98565b60405161036f91906131e7565b60405180910390f35b34801561038457600080fd5b5061039f600480360381019061039a9190613202565b610ebe565b005b3480156103ad57600080fd5b506103b6611230565b6040516103c39190613280565b60405180910390f35b3480156103d857600080fd5b506103f360048036038101906103ee91906132d9565b611236565b6040516104009190613073565b60405180910390f35b34801561041557600080fd5b5061041e611256565b60405161042b9190613280565b60405180910390f35b34801561044057600080fd5b5061045b60048036038101906104569190613809565b61125c565b005b34801561046957600080fd5b50610472611589565b60405161047f9190613861565b60405180910390f35b34801561049457600080fd5b506104af60048036038101906104aa919061387c565b6115ad565b005b6104cb60048036038101906104c69190613202565b611861565b005b3480156104d957600080fd5b506104f460048036038101906104ef919061390d565b611a29565b005b34801561050257600080fd5b5061051d6004803603810190610518919061300f565b611afb565b005b34801561052b57600080fd5b5061054660048036038101906105419190612d8a565b611bea565b005b34801561055457600080fd5b5061056f600480360381019061056a9190613978565b611e92565b005b34801561057d57600080fd5b50610598600480360381019061059391906139e3565b611f64565b005b3480156105a657600080fd5b506105c160048036038101906105bc91906130c4565b612036565b6040516105ce9190613a31565b60405180910390f35b3480156105e357600080fd5b506105ec612075565b6040516105f99190613a6d565b60405180910390f35b60008054906101000a900473ffffffffffffffffffffffffffffffffffffffff1673ffffffffffffffffffffffffffffffffffffffff163373ffffffffffffffffffffffffffffffffffffffff1614610690576040517f08c379a000000000000000000000000000000000000000000000000000000000815260040161068790613ae5565b60405180910390fd5b80600160006101000a81548173ffffffffffffffffffffffffffffffffffffffff021916908373ffffffffffffffffffffffffffffffffffffffff16021790555050565b600360009054906101000a900473ffffffffffffffffffffffffffffffffffffffff1681565b60008054906101000a900473ffffffffffffffffffffffffffffffffffffffff1673ffffffffffffffffffffffffffffffffffffffff163373ffffffffffffffffffffffffffffffffffffffff1614610788576040517f08c379a000000000000000000000000000000000000000000000000000000000815260040161077f90613ae5565b60405180910390fd5b806002836040516107999190613b7f565b908152602001604051809103902060006101000a81548173ffffffffffffffffffffffffffffffffffffffff021916908373ffffffffffffffffffffffffffffffffffffffff1602179055505050565b600560009054906101000a900473ffffffffffffffffffffffffffffffffffffffff1681565b60003373ffffffffffffffffffffffffffffffffffffffff16600160009054906101000a900473ffffffffffffffffffffffffffffffffffffffff1673ffffffffffffffffffffffffffffffffffffffff1614806108d657503373ffffffffffffffffffffffffffffffffffffffff1660028360405161088f9190613b7f565b908152602001604051809103902060009054906101000a900473ffffffffffffffffffffffffffffffffffffffff1673ffffffffffffffffffffffffffffffffffffffff16145b9050919050565b60008054906101000a900473ffffffffffffffffffffffffffffffffffffffff1673ffffffffffffffffffffffffffffffffffffffff163373ffffffffffffffffffffffffffffffffffffffff161461096b576040517f08c379a000000000000000000000000000000000000000000000000000000000815260040161096290613ae5565b60405180910390fd5b8060078190555050565b60008054906101000a900473ffffffffffffffffffffffffffffffffffffffff1673ffffffffffffffffffffffffffffffffffffffff163373ffffffffffffffffffffffffffffffffffffffff1614610a03576040517f08c379a00000000000000000000000000000000000000000000000000000000081526004016109fa90613ae5565b60405180910390fd5b80600b8190555050565b610a17828261209b565b610a218282612195565b6000600460009054906101000a900473ffffffffffffffffffffffffffffffffffffffff1673ffffffffffffffffffffffffffffffffffffffff1663a2f77bcc846040518263ffffffff1660e01b8152600401610a7e9190613280565b60006040518083038186803b158015610a9657600080fd5b505afa158015610aaa573d6000803e3d6000fd5b505050506040513d6000823e3d601f19601f82011682018060405250810190610ad391906140a9565b90506000610ae2848433612290565b5090508015610b26576040517f08c379a0000000000000000000000000000000000000000000000000000000008152600401610b1d9061413e565b60405180910390fd5b816101c0015115610b7e57816102000151341015610b79576040517f08c379a0000000000000000000000000000000000000000000000000000000008152600401610b70906141aa565b60405180910390fd5b610c19565b816101e0015173ffffffffffffffffffffffffffffffffffffffff166323b872dd33308561020001516040518463ffffffff1660e01b8152600401610bc5939291906141ca565b602060405180830381600087803b158015610bdf57600080fd5b505af1158015610bf3573d6000803e3d6000fd5b505050506040513d601f19601f82011682018060405250810190610c179190614201565b505b600460009054906101000a900473ffffffffffffffffffffffffffffffffffffffff1673ffffffffffffffffffffffffffffffffffffffff1663ffe41ad38585336040518463ffffffff1660e01b8152600401610c789392919061422e565b600060405180830381600087803b158015610c9257600080fd5b505af1158015610ca6573d6000803e3d6000fd5b50505050600560009054906101000a900473ffffffffffffffffffffffffffffffffffffffff1673ffffffffffffffffffffffffffffffffffffffff1663a71a0c078585600a60008981526020019081526020016000206000888152602001908152602001600020546040518463ffffffff1660e01b8152600401610d2d93929190614274565b600060405180830381600087803b158015610d4757600080fd5b505af1158015610d5b573d6000803e3d6000fd5b505050506001600a600086815260200190815260200160002060008581526020019081526020016000206000828254610d9491906142da565b9250508190555050505050565b60008054906101000a900473ffffffffffffffffffffffffffffffffffffffff1673ffffffffffffffffffffffffffffffffffffffff163373ffffffffffffffffffffffffffffffffffffffff1614610e2f576040517f08c379a0000000000000000000000000000000000000000000000000000000008152600401610e2690613ae5565b60405180910390fd5b806000806101000a81548173ffffffffffffffffffffffffffffffffffffffff021916908373ffffffffffffffffffffffffffffffffffffffff16021790555050565b600160009054906101000a900473ffffffffffffffffffffffffffffffffffffffff1681565b600660009054906101000a900473ffffffffffffffffffffffffffffffffffffffff1681565b610ec78361080f565b610f06576040517f08c379a0000000000000000000000000000000000000000000000000000000008152600401610efd9061437c565b60405180910390fd5b610f10828261209b565b610f1a8282612195565b6000600460009054906101000a900473ffffffffffffffffffffffffffffffffffffffff1673ffffffffffffffffffffffffffffffffffffffff16630d2dce2284846040518363ffffffff1660e01b8152600401610f7992919061439c565b60006040518083038186803b158015610f9157600080fd5b505afa158015610fa5573d6000803e3d6000fd5b505050506040513d6000823e3d601f19601f82011682018060405250810190610fce9190614488565b90506000600460009054906101000a900473ffffffffffffffffffffffffffffffffffffffff1673ffffffffffffffffffffffffffffffffffffffff166370c1b1d785856040518363ffffffff1660e01b815260040161102f92919061439c565b60006040518083038186803b15801561104757600080fd5b505afa15801561105b573d6000803e3d6000fd5b505050506040513d6000823e3d601f19601f8201168201806040525081019061108491906146fa565b9050600080600080600560009054906101000a900473ffffffffffffffffffffffffffffffffffffffff1673ffffffffffffffffffffffffffffffffffffffff1663532af7d289896040518363ffffffff1660e01b81526004016110e992919061439c565b600060405180830381600087803b15801561110357600080fd5b505af1158015611117573d6000803e3d6000fd5b505050506040513d6000823e3d601f19601f820116820180604052508101906111409190614743565b93509350935093508085602001819052508551856040018181525050838560a00181905250828560c00181905250818560e00181905250600185610100019015159081151581525050600460009054906101000a900473ffffffffffffffffffffffffffffffffffffffff1673ffffffffffffffffffffffffffffffffffffffff1663ea7a48da8989886040518463ffffffff1660e01b81526004016111e893929190614aa3565b600060405180830381600087803b15801561120257600080fd5b505af1158015611216573d6000803e3d6000fd5b505050506112258882896123cc565b505050505050505050565b600b5481565b60096020528060005260406000206000915054906101000a900460ff1681565b60075481565b8060400151600360009054906101000a900473ffffffffffffffffffffffffffffffffffffffff1673ffffffffffffffffffffffffffffffffffffffff1663b796e2b082336040518363ffffffff1660e01b81526004016112be929190614b1a565b60206040518083038186803b1580156112d657600080fd5b505afa1580156112ea573d6000803e3d6000fd5b505050506040513d601f19601f8201168201806040525081019061130e9190614201565b8061131e575061131d8161080f565b5b61135d576040517f08c379a000000000000000000000000000000000000000000000000000000000815260040161135490614b96565b60405180910390fd5b6000826000015114156113a5576040517f08c379a000000000000000000000000000000000000000000000000000000000815260040161139c90614c02565b60405180910390fd5b6000600460009054906101000a900473ffffffffffffffffffffffffffffffffffffffff1673ffffffffffffffffffffffffffffffffffffffff1663a2f77bcc84600001516040518263ffffffff1660e01b81526004016114069190613280565b60006040518083038186803b15801561141e57600080fd5b505afa158015611432573d6000803e3d6000fd5b505050506040513d6000823e3d601f19601f8201168201806040525081019061145b91906140a9565b9050806102c00151156114a3576040517f08c379a000000000000000000000000000000000000000000000000000000000815260040161149a90614c6e565b60405180910390fd5b8290506001816102c001901515908115158152505033816102e0019073ffffffffffffffffffffffffffffffffffffffff16908173ffffffffffffffffffffffffffffffffffffffff1681525050600460009054906101000a900473ffffffffffffffffffffffffffffffffffffffff1673ffffffffffffffffffffffffffffffffffffffff1663dcdc38258460400151836040518363ffffffff1660e01b8152600401611552929190615082565b600060405180830381600087803b15801561156c57600080fd5b505af1158015611580573d6000803e3d6000fd5b50505050505050565b60008054906101000a900473ffffffffffffffffffffffffffffffffffffffff1681565b6115b78383612195565b6115c1838361209b565b6115cb83826126f2565b61160a576040517f08c379a000000000000000000000000000000000000000000000000000000000815260040161160190615105565b60405180910390fd5b600080611618858533612290565b915091508161165c576040517f08c379a000000000000000000000000000000000000000000000000000000000815260040161165390615171565b60405180910390fd5b611667858583612803565b156116a7576040517f08c379a000000000000000000000000000000000000000000000000000000000815260040161169e906151dd565b60405180910390fd5b600660009054906101000a900473ffffffffffffffffffffffffffffffffffffffff1673ffffffffffffffffffffffffffffffffffffffff16639dc29fac336007546040518363ffffffff1660e01b81526004016117069291906151fd565b600060405180830381600087803b15801561172057600080fd5b505af1158015611734573d6000803e3d6000fd5b50505050600460009054906101000a900473ffffffffffffffffffffffffffffffffffffffff1673ffffffffffffffffffffffffffffffffffffffff166342f2a5e38686846040518463ffffffff1660e01b815260040161179793929190615226565b600060405180830381600087803b1580156117b157600080fd5b505af11580156117c5573d6000803e3d6000fd5b50505050600560009054906101000a900473ffffffffffffffffffffffffffffffffffffffff1673ffffffffffffffffffffffffffffffffffffffff1663d8602ed18686846040518463ffffffff1660e01b815260040161182893929190615226565b600060405180830381600087803b15801561184257600080fd5b505af1158015611856573d6000803e3d6000fd5b505050505050505050565b61186a8261290e565b600034116118ad576040517f08c379a00000000000000000000000000000000000000000000000000000000081526004016118a4906152a9565b60405180910390fd5b60006002846040516118bf9190613b7f565b908152602001604051809103902060009054906101000a900473ffffffffffffffffffffffffffffffffffffffff169050600073ffffffffffffffffffffffffffffffffffffffff168173ffffffffffffffffffffffffffffffffffffffff16141561194b57600160009054906101000a900473ffffffffffffffffffffffffffffffffffffffff1690505b8073ffffffffffffffffffffffffffffffffffffffff166108fc349081150290604051600060405180830381858888f19350505050158015611991573d6000803e3d6000fd5b50600460009054906101000a900473ffffffffffffffffffffffffffffffffffffffff1673ffffffffffffffffffffffffffffffffffffffff166357e40a648433856040518463ffffffff1660e01b81526004016119f1939291906152c9565b600060405180830381600087803b158015611a0b57600080fd5b505af1158015611a1f573d6000803e3d6000fd5b5050505050505050565b60008054906101000a900473ffffffffffffffffffffffffffffffffffffffff1673ffffffffffffffffffffffffffffffffffffffff163373ffffffffffffffffffffffffffffffffffffffff1614611ab7576040517f08c379a0000000000000000000000000000000000000000000000000000000008152600401611aae90613ae5565b60405180910390fd5b80600660006101000a81548173ffffffffffffffffffffffffffffffffffffffff021916908373ffffffffffffffffffffffffffffffffffffffff16021790555050565b60008054906101000a900473ffffffffffffffffffffffffffffffffffffffff1673ffffffffffffffffffffffffffffffffffffffff163373ffffffffffffffffffffffffffffffffffffffff1614611b89576040517f08c379a0000000000000000000000000000000000000000000000000000000008152600401611b8090613ae5565b60405180910390fd5b6000600282604051611b9b9190613b7f565b908152602001604051809103902060006101000a81548173ffffffffffffffffffffffffffffffffffffffff021916908373ffffffffffffffffffffffffffffffffffffffff16021790555050565b60008054906101000a900473ffffffffffffffffffffffffffffffffffffffff1673ffffffffffffffffffffffffffffffffffffffff163373ffffffffffffffffffffffffffffffffffffffff1614611c78576040517f08c379a0000000000000000000000000000000000000000000000000000000008152600401611c6f90613ae5565b60405180910390fd5b6000471115611cc9578073ffffffffffffffffffffffffffffffffffffffff166108fc479081150290604051600060405180830381858888f19350505050158015611cc7573d6000803e3d6000fd5b505b60005b600880549050811015611e8e57600060088281548110611cef57611cee615300565b5b9060005260206000200160009054906101000a900473ffffffffffffffffffffffffffffffffffffffff1673ffffffffffffffffffffffffffffffffffffffff166370a08231306040518263ffffffff1660e01b8152600401611d529190613861565b60206040518083038186803b158015611d6a57600080fd5b505afa158015611d7e573d6000803e3d6000fd5b505050506040513d601f19601f82011682018060405250810190611da2919061532f565b90506000811115611e7a5760088281548110611dc157611dc0615300565b5b9060005260206000200160009054906101000a900473ffffffffffffffffffffffffffffffffffffffff1673ffffffffffffffffffffffffffffffffffffffff1663a9059cbb84836040518363ffffffff1660e01b8152600401611e2692919061537d565b602060405180830381600087803b158015611e4057600080fd5b505af1158015611e54573d6000803e3d6000fd5b505050506040513d601f19601f82011682018060405250810190611e789190614201565b505b508080611e86906153a6565b915050611ccc565b5050565b60008054906101000a900473ffffffffffffffffffffffffffffffffffffffff1673ffffffffffffffffffffffffffffffffffffffff163373ffffffffffffffffffffffffffffffffffffffff1614611f20576040517f08c379a0000000000000000000000000000000000000000000000000000000008152600401611f1790613ae5565b60405180910390fd5b80600360006101000a81548173ffffffffffffffffffffffffffffffffffffffff021916908373ffffffffffffffffffffffffffffffffffffffff16021790555050565b60008054906101000a900473ffffffffffffffffffffffffffffffffffffffff1673ffffffffffffffffffffffffffffffffffffffff163373ffffffffffffffffffffffffffffffffffffffff1614611ff2576040517f08c379a0000000000000000000000000000000000000000000000000000000008152600401611fe990613ae5565b60405180910390fd5b80600460006101000a81548173ffffffffffffffffffffffffffffffffffffffff021916908373ffffffffffffffffffffffffffffffffffffffff16021790555050565b6008818154811061204657600080fd5b906000526020600020016000915054906101000a900473ffffffffffffffffffffffffffffffffffffffff1681565b600460009054906101000a900473ffffffffffffffffffffffffffffffffffffffff1681565b600460009054906101000a900473ffffffffffffffffffffffffffffffffffffffff1673ffffffffffffffffffffffffffffffffffffffff166370c1b1d783836040518363ffffffff1660e01b81526004016120f892919061439c565b60006040518083038186803b15801561211057600080fd5b505afa158015612124573d6000803e3d6000fd5b505050506040513d6000823e3d601f19601f8201168201806040525081019061214d91906146fa565b6101200151612191576040517f08c379a00000000000000000000000000000000000000000000000000000000081526004016121889061543b565b60405180910390fd5b5050565b600460009054906101000a900473ffffffffffffffffffffffffffffffffffffffff1673ffffffffffffffffffffffffffffffffffffffff166370c1b1d783836040518363ffffffff1660e01b81526004016121f292919061439c565b60006040518083038186803b15801561220a57600080fd5b505afa15801561221e573d6000803e3d6000fd5b505050506040513d6000823e3d601f19601f8201168201806040525081019061224791906146fa565b61010001511561228c576040517f08c379a0000000000000000000000000000000000000000000000000000000008152600401612283906154a7565b60405180910390fd5b5050565b6000806000600460009054906101000a900473ffffffffffffffffffffffffffffffffffffffff1673ffffffffffffffffffffffffffffffffffffffff16630d2dce2287876040518363ffffffff1660e01b81526004016122f292919061439c565b60006040518083038186803b15801561230a57600080fd5b505afa15801561231e573d6000803e3d6000fd5b505050506040513d6000823e3d601f19601f820116820180604052508101906123479190614488565b905060005b81518110156123c2578473ffffffffffffffffffffffffffffffffffffffff1682828151811061237f5761237e615300565b5b602002602001015173ffffffffffffffffffffffffffffffffffffffff1614156123af57600193508092506123c2565b80806123ba906153a6565b91505061234c565b5050935093915050565b6000825114156123db576126ed565b6000600460009054906101000a900473ffffffffffffffffffffffffffffffffffffffff1673ffffffffffffffffffffffffffffffffffffffff1663a2f77bcc856040518263ffffffff1660e01b81526004016124389190613280565b60006040518083038186803b15801561245057600080fd5b505afa158015612464573d6000803e3d6000fd5b505050506040513d6000823e3d601f19601f8201168201806040525081019061248d91906140a9565b90506000600460009054906101000a900473ffffffffffffffffffffffffffffffffffffffff1673ffffffffffffffffffffffffffffffffffffffff1663751938af86856040518363ffffffff1660e01b81526004016124ee92919061439c565b60206040518083038186803b15801561250657600080fd5b505afa15801561251a573d6000803e3d6000fd5b505050506040513d601f19601f8201168201806040525081019061253e919061532f565b9050600061256d606461255f85610120015185612a4990919063ffffffff16565b612ac490919063ffffffff16565b905060006125848284612b0e90919063ffffffff16565b9050600061259c875184612ac490919063ffffffff16565b905060005b87518110156126dc57856101c001511561261b578781815181106125c8576125c7615300565b5b602002602001015173ffffffffffffffffffffffffffffffffffffffff166108fc839081150290604051600060405180830381858888f19350505050158015612615573d6000803e3d6000fd5b506126c9565b856101e0015173ffffffffffffffffffffffffffffffffffffffff1663a9059cbb89838151811061264f5761264e615300565b5b6020026020010151846040518363ffffffff1660e01b81526004016126759291906151fd565b602060405180830381600087803b15801561268f57600080fd5b505af11580156126a3573d6000803e3d6000fd5b505050506040513d601f19601f820116820180604052508101906126c79190614201565b505b80806126d4906153a6565b9150506125a1565b506126e78583612b58565b50505050505b505050565b600080600460009054906101000a900473ffffffffffffffffffffffffffffffffffffffff1673ffffffffffffffffffffffffffffffffffffffff1663a2f77bcc856040518263ffffffff1660e01b81526004016127509190613280565b60006040518083038186803b15801561276857600080fd5b505afa15801561277c573d6000803e3d6000fd5b505050506040513d6000823e3d601f19601f820116820180604052508101906127a591906140a9565b610160015190506000805b82518110156127f757848382815181106127cd576127cc615300565b5b602002602001015114156127e457600191506127f7565b80806127ef906153a6565b9150506127b0565b50809250505092915050565b600080600460009054906101000a900473ffffffffffffffffffffffffffffffffffffffff1673ffffffffffffffffffffffffffffffffffffffff16636a3f5dc586866040518363ffffffff1660e01b815260040161286392919061439c565b60006040518083038186803b15801561287b57600080fd5b505afa15801561288f573d6000803e3d6000fd5b505050506040513d6000823e3d601f19601f820116820180604052508101906128b891906154c7565b90506000805b825181101561290157848382815181106128db576128da615300565b5b602002602001015114156128ee57600191505b80806128f9906153a6565b9150506128be565b5080925050509392505050565b6000811415612952576040517f08c379a000000000000000000000000000000000000000000000000000000000815260040161294990614c02565b60405180910390fd5b600460009054906101000a900473ffffffffffffffffffffffffffffffffffffffff1673ffffffffffffffffffffffffffffffffffffffff1663a2f77bcc826040518263ffffffff1660e01b81526004016129ad9190613280565b60006040518083038186803b1580156129c557600080fd5b505afa1580156129d9573d6000803e3d6000fd5b505050506040513d6000823e3d601f19601f82011682018060405250810190612a0291906140a9565b6102c00151612a46576040517f08c379a0000000000000000000000000000000000000000000000000000000008152600401612a3d9061555c565b60405180910390fd5b50565b600080831415612a5c5760009050612abe565b60008284612a6a919061557c565b9050828482612a799190615605565b14612ab9576040517f08c379a0000000000000000000000000000000000000000000000000000000008152600401612ab0906156a8565b60405180910390fd5b809150505b92915050565b6000612b0683836040518060400160405280601a81526020017f536166654d6174683a206469766973696f6e206279207a65726f000000000000815250612c51565b905092915050565b6000612b5083836040518060400160405280601481526020017f7375627472616374696f6e206f766572666c6f77000000000000000000000000815250612cb4565b905092915050565b816101c0015115612bb457816102e0015173ffffffffffffffffffffffffffffffffffffffff166108fc829081150290604051600060405180830381858888f19350505050158015612bae573d6000803e3d6000fd5b50612c4d565b816101e0015173ffffffffffffffffffffffffffffffffffffffff1663a9059cbb836102e00151836040518363ffffffff1660e01b8152600401612bf99291906151fd565b602060405180830381600087803b158015612c1357600080fd5b505af1158015612c27573d6000803e3d6000fd5b505050506040513d601f19601f82011682018060405250810190612c4b9190614201565b505b5050565b60008083118290612c98576040517f08c379a0000000000000000000000000000000000000000000000000000000008152600401612c8f91906156c8565b60405180910390fd5b5060008385612ca79190615605565b9050809150509392505050565b6000838311158290612cfc576040517f08c379a0000000000000000000000000000000000000000000000000000000008152600401612cf391906156c8565b60405180910390fd5b5060008385612d0b91906156ea565b9050809150509392505050565b6000604051905090565b600080fd5b600080fd5b600073ffffffffffffffffffffffffffffffffffffffff82169050919050565b6000612d5782612d2c565b9050919050565b612d6781612d4c565b8114612d7257600080fd5b50565b600081359050612d8481612d5e565b92915050565b600060208284031215612da057612d9f612d22565b5b6000612dae84828501612d75565b91505092915050565b6000819050919050565b6000612ddc612dd7612dd284612d2c565b612db7565b612d2c565b9050919050565b6000612dee82612dc1565b9050919050565b6000612e0082612de3565b9050919050565b612e1081612df5565b82525050565b6000602082019050612e2b6000830184612e07565b92915050565b600080fd5b600080fd5b6000601f19601f8301169050919050565b7f4e487b7100000000000000000000000000000000000000000000000000000000600052604160045260246000fd5b612e8482612e3b565b810181811067ffffffffffffffff82111715612ea357612ea2612e4c565b5b80604052505050565b6000612eb6612d18565b9050612ec28282612e7b565b919050565b600067ffffffffffffffff821115612ee257612ee1612e4c565b5b612eeb82612e3b565b9050602081019050919050565b82818337600083830152505050565b6000612f1a612f1584612ec7565b612eac565b905082815260208101848484011115612f3657612f35612e36565b5b612f41848285612ef8565b509392505050565b600082601f830112612f5e57612f5d612e31565b5b8135612f6e848260208601612f07565b91505092915050565b60008060408385031215612f8e57612f8d612d22565b5b600083013567ffffffffffffffff811115612fac57612fab612d27565b5b612fb885828601612f49565b9250506020612fc985828601612d75565b9150509250929050565b6000612fde82612de3565b9050919050565b612fee81612fd3565b82525050565b60006020820190506130096000830184612fe5565b92915050565b60006020828403121561302557613024612d22565b5b600082013567ffffffffffffffff81111561304357613042612d27565b5b61304f84828501612f49565b91505092915050565b60008115159050919050565b61306d81613058565b82525050565b60006020820190506130886000830184613064565b92915050565b6000819050919050565b6130a18161308e565b81146130ac57600080fd5b50565b6000813590506130be81613098565b92915050565b6000602082840312156130da576130d9612d22565b5b60006130e8848285016130af565b91505092915050565b6000806040838503121561310857613107612d22565b5b6000613116858286016130af565b9250506020613127858286016130af565b9150509250929050565b600061313c82612d2c565b9050919050565b61314c81613131565b811461315757600080fd5b50565b60008135905061316981613143565b92915050565b60006020828403121561318557613184612d22565b5b60006131938482850161315a565b91505092915050565b6131a581612d4c565b82525050565b60006020820190506131c0600083018461319c565b92915050565b60006131d182612de3565b9050919050565b6131e1816131c6565b82525050565b60006020820190506131fc60008301846131d8565b92915050565b60008060006060848603121561321b5761321a612d22565b5b600084013567ffffffffffffffff81111561323957613238612d27565b5b61324586828701612f49565b9350506020613256868287016130af565b9250506040613267868287016130af565b9150509250925092565b61327a8161308e565b82525050565b60006020820190506132956000830184613271565b92915050565b60006132a682613131565b9050919050565b6132b68161329b565b81146132c157600080fd5b50565b6000813590506132d3816132ad565b92915050565b6000602082840312156132ef576132ee612d22565b5b60006132fd848285016132c4565b91505092915050565b600080fd5b600080fd5b6000819050919050565b61332381613310565b811461332e57600080fd5b50565b6000813590506133408161331a565b92915050565b600067ffffffffffffffff82111561336157613360612e4c565b5b602082029050602081019050919050565b600080fd5b600061338a61338584613346565b612eac565b905080838252602082019050602084028301858111156133ad576133ac613372565b5b835b818110156133d657806133c288826130af565b8452602084019350506020810190506133af565b5050509392505050565b600082601f8301126133f5576133f4612e31565b5b8135613405848260208601613377565b91505092915050565b600067ffffffffffffffff82111561342957613428612e4c565b5b602082029050602081019050919050565b600061344d6134488461340e565b612eac565b905080838252602082019050602084028301858111156134705761346f613372565b5b835b818110156134b757803567ffffffffffffffff81111561349557613494612e31565b5b8086016134a28982612f49565b85526020850194505050602081019050613472565b5050509392505050565b600082601f8301126134d6576134d5612e31565b5b81356134e684826020860161343a565b91505092915050565b6134f881613058565b811461350357600080fd5b50565b600081359050613515816134ef565b92915050565b6000610300828403121561353257613531613306565b5b61353d610300612eac565b9050600061354d848285016130af565b6000830152506020613561848285016130af565b602083015250604082013567ffffffffffffffff8111156135855761358461330b565b5b61359184828501612f49565b60408301525060606135a584828501613331565b60608301525060806135b9848285016130af565b60808301525060a082013567ffffffffffffffff8111156135dd576135dc61330b565b5b6135e984828501612f49565b60a08301525060c082013567ffffffffffffffff81111561360d5761360c61330b565b5b61361984828501612f49565b60c08301525060e082013567ffffffffffffffff81111561363d5761363c61330b565b5b61364984828501612f49565b60e08301525061010061365e848285016130af565b61010083015250610120613674848285016130af565b6101208301525061014061368a848285016130af565b6101408301525061016082013567ffffffffffffffff8111156136b0576136af61330b565b5b6136bc848285016133e0565b6101608301525061018082013567ffffffffffffffff8111156136e2576136e161330b565b5b6136ee84828501612f49565b610180830152506101a082013567ffffffffffffffff8111156137145761371361330b565b5b613720848285016134c1565b6101a0830152506101c061373684828501613506565b6101c0830152506101e061374c848285016132c4565b6101e083015250610200613762848285016130af565b61020083015250610220613778848285016130af565b6102208301525061024061378e848285016130af565b610240830152506102606137a484828501613506565b610260830152506102806137ba848285016130af565b610280830152506102a06137d0848285016130af565b6102a0830152506102c06137e684828501613506565b6102c0830152506102e06137fc8482850161315a565b6102e08301525092915050565b60006020828403121561381f5761381e612d22565b5b600082013567ffffffffffffffff81111561383d5761383c612d27565b5b6138498482850161351b565b91505092915050565b61385b81613131565b82525050565b60006020820190506138766000830184613852565b92915050565b60008060006060848603121561389557613894612d22565b5b60006138a3868287016130af565b93505060206138b4868287016130af565b92505060406138c5868287016130af565b9150509250925092565b60006138da82613131565b9050919050565b6138ea816138cf565b81146138f557600080fd5b50565b600081359050613907816138e1565b92915050565b60006020828403121561392357613922612d22565b5b6000613931848285016138f8565b91505092915050565b600061394582613131565b9050919050565b6139558161393a565b811461396057600080fd5b50565b6000813590506139728161394c565b92915050565b60006020828403121561398e5761398d612d22565b5b600061399c84828501613963565b91505092915050565b60006139b082613131565b9050919050565b6139c0816139a5565b81146139cb57600080fd5b50565b6000813590506139dd816139b7565b92915050565b6000602082840312156139f9576139f8612d22565b5b6000613a07848285016139ce565b91505092915050565b6000613a1b82612de3565b9050919050565b613a2b81613a10565b82525050565b6000602082019050613a466000830184613a22565b92915050565b6000613a5782612de3565b9050919050565b613a6781613a4c565b82525050565b6000602082019050613a826000830184613a5e565b92915050565b600082825260208201905092915050565b7f4f6e6c79204f776e657200000000000000000000000000000000000000000000600082015250565b6000613acf600a83613a88565b9150613ada82613a99565b602082019050919050565b60006020820190508181036000830152613afe81613ac2565b9050919050565b600081519050919050565b600081905092915050565b60005b83811015613b39578082015181840152602081019050613b1e565b83811115613b48576000848401525b50505050565b6000613b5982613b05565b613b638185613b10565b9350613b73818560208601613b1b565b80840191505092915050565b6000613b8b8284613b4e565b915081905092915050565b600081519050613ba581613098565b92915050565b6000613bbe613bb984612ec7565b612eac565b905082815260208101848484011115613bda57613bd9612e36565b5b613be5848285613b1b565b509392505050565b600082601f830112613c0257613c01612e31565b5b8151613c12848260208601613bab565b91505092915050565b600081519050613c2a8161331a565b92915050565b6000613c43613c3e84613346565b612eac565b90508083825260208201905060208402830185811115613c6657613c65613372565b5b835b81811015613c8f5780613c7b8882613b96565b845260208401935050602081019050613c68565b5050509392505050565b600082601f830112613cae57613cad612e31565b5b8151613cbe848260208601613c30565b91505092915050565b6000613cda613cd58461340e565b612eac565b90508083825260208201905060208402830185811115613cfd57613cfc613372565b5b835b81811015613d4457805167ffffffffffffffff811115613d2257613d21612e31565b5b808601613d2f8982613bed565b85526020850194505050602081019050613cff565b5050509392505050565b600082601f830112613d6357613d62612e31565b5b8151613d73848260208601613cc7565b91505092915050565b600081519050613d8b816134ef565b92915050565b600081519050613da0816132ad565b92915050565b600081519050613db581613143565b92915050565b60006103008284031215613dd257613dd1613306565b5b613ddd610300612eac565b90506000613ded84828501613b96565b6000830152506020613e0184828501613b96565b602083015250604082015167ffffffffffffffff811115613e2557613e2461330b565b5b613e3184828501613bed565b6040830152506060613e4584828501613c1b565b6060830152506080613e5984828501613b96565b60808301525060a082015167ffffffffffffffff811115613e7d57613e7c61330b565b5b613e8984828501613bed565b60a08301525060c082015167ffffffffffffffff811115613ead57613eac61330b565b5b613eb984828501613bed565b60c08301525060e082015167ffffffffffffffff811115613edd57613edc61330b565b5b613ee984828501613bed565b60e083015250610100613efe84828501613b96565b61010083015250610120613f1484828501613b96565b61012083015250610140613f2a84828501613b96565b6101408301525061016082015167ffffffffffffffff811115613f5057613f4f61330b565b5b613f5c84828501613c99565b6101608301525061018082015167ffffffffffffffff811115613f8257613f8161330b565b5b613f8e84828501613bed565b610180830152506101a082015167ffffffffffffffff811115613fb457613fb361330b565b5b613fc084828501613d4e565b6101a0830152506101c0613fd684828501613d7c565b6101c0830152506101e0613fec84828501613d91565b6101e08301525061020061400284828501613b96565b6102008301525061022061401884828501613b96565b6102208301525061024061402e84828501613b96565b6102408301525061026061404484828501613d7c565b6102608301525061028061405a84828501613b96565b610280830152506102a061407084828501613b96565b6102a0830152506102c061408684828501613d7c565b6102c0830152506102e061409c84828501613da6565b6102e08301525092915050565b6000602082840312156140bf576140be612d22565b5b600082015167ffffffffffffffff8111156140dd576140dc612d27565b5b6140e984828501613dbb565b91505092915050565b7f486173207469636b657473000000000000000000000000000000000000000000600082015250565b6000614128600b83613a88565b9150614133826140f2565b602082019050919050565b600060208201905081810360008301526141578161411b565b9050919050565b7f496e73756666696369656e740000000000000000000000000000000000000000600082015250565b6000614194600c83613a88565b915061419f8261415e565b602082019050919050565b600060208201905081810360008301526141c381614187565b9050919050565b60006060820190506141df6000830186613852565b6141ec6020830185613852565b6141f96040830184613271565b949350505050565b60006020828403121561421757614216612d22565b5b600061422584828501613d7c565b91505092915050565b60006060820190506142436000830186613271565b6142506020830185613271565b61425d6040830184613852565b949350505050565b61426e81613310565b82525050565b60006060820190506142896000830186613271565b6142966020830185613271565b6142a36040830184614265565b949350505050565b7f4e487b7100000000000000000000000000000000000000000000000000000000600052601160045260246000fd5b60006142e58261308e565b91506142f08361308e565b9250827fffffffffffffffffffffffffffffffffffffffffffffffffffffffffffffffff03821115614325576143246142ab565b5b828201905092915050565b7f4f6e6c79206f70657261746f7200000000000000000000000000000000000000600082015250565b6000614366600d83613a88565b915061437182614330565b602082019050919050565b6000602082019050818103600083015261439581614359565b9050919050565b60006040820190506143b16000830185613271565b6143be6020830184613271565b9392505050565b600067ffffffffffffffff8211156143e0576143df612e4c565b5b602082029050602081019050919050565b60006144046143ff846143c5565b612eac565b9050808382526020820190506020840283018581111561442757614426613372565b5b835b81811015614450578061443c8882613da6565b845260208401935050602081019050614429565b5050509392505050565b600082601f83011261446f5761446e612e31565b5b815161447f8482602086016143f1565b91505092915050565b60006020828403121561449e5761449d612d22565b5b600082015167ffffffffffffffff8111156144bc576144bb612d27565b5b6144c88482850161445a565b91505092915050565b600067ffffffffffffffff8211156144ec576144eb612e4c565b5b602082029050602081019050919050565b600061451061450b846144d1565b612eac565b9050808382526020820190506020840283018581111561453357614532613372565b5b835b8181101561455c57806145488882613c1b565b845260208401935050602081019050614535565b5050509392505050565b600082601f83011261457b5761457a612e31565b5b815161458b8482602086016144fd565b91505092915050565b600061014082840312156145ab576145aa613306565b5b6145b6610140612eac565b905060006145c684828501613b96565b600083015250602082015167ffffffffffffffff8111156145ea576145e961330b565b5b6145f68482850161445a565b602083015250604061460a84828501613b96565b604083015250606061461e84828501613da6565b606083015250608061463284828501613b96565b60808301525060a082015167ffffffffffffffff8111156146565761465561330b565b5b61466284828501614566565b60a08301525060c082015167ffffffffffffffff8111156146865761468561330b565b5b61469284828501614566565b60c08301525060e082015167ffffffffffffffff8111156146b6576146b561330b565b5b6146c284828501614566565b60e0830152506101006146d784828501613d7c565b610100830152506101206146ed84828501613d7c565b6101208301525092915050565b6000602082840312156147105761470f612d22565b5b600082015167ffffffffffffffff81111561472e5761472d612d27565b5b61473a84828501614594565b91505092915050565b6000806000806080858703121561475d5761475c612d22565b5b600085015167ffffffffffffffff81111561477b5761477a612d27565b5b61478787828801614566565b945050602085015167ffffffffffffffff8111156147a8576147a7612d27565b5b6147b487828801614566565b935050604085015167ffffffffffffffff8111156147d5576147d4612d27565b5b6147e187828801614566565b925050606085015167ffffffffffffffff81111561480257614801612d27565b5b61480e8782880161445a565b91505092959194509250565b6148238161308e565b82525050565b600081519050919050565b600082825260208201905092915050565b6000819050602082019050919050565b61485e81613131565b82525050565b60006148708383614855565b60208301905092915050565b6000602082019050919050565b600061489482614829565b61489e8185614834565b93506148a983614845565b8060005b838110156148da5781516148c18882614864565b97506148cc8361487c565b9250506001810190506148ad565b5085935050505092915050565b600081519050919050565b600082825260208201905092915050565b6000819050602082019050919050565b61491c81613310565b82525050565b600061492e8383614913565b60208301905092915050565b6000602082019050919050565b6000614952826148e7565b61495c81856148f2565b935061496783614903565b8060005b8381101561499857815161497f8882614922565b975061498a8361493a565b92505060018101905061496b565b5085935050505092915050565b6149ae81613058565b82525050565b6000610140830160008301516149cd600086018261481a565b50602083015184820360208601526149e58282614889565b91505060408301516149fa604086018261481a565b506060830151614a0d6060860182614855565b506080830151614a20608086018261481a565b5060a083015184820360a0860152614a388282614947565b91505060c083015184820360c0860152614a528282614947565b91505060e083015184820360e0860152614a6c8282614947565b915050610100830151614a836101008601826149a5565b50610120830151614a986101208601826149a5565b508091505092915050565b6000606082019050614ab86000830186613271565b614ac56020830185613271565b8181036040830152614ad781846149b4565b9050949350505050565b6000614aec82613b05565b614af68185613a88565b9350614b06818560208601613b1b565b614b0f81612e3b565b840191505092915050565b60006040820190508181036000830152614b348185614ae1565b9050614b436020830184613852565b9392505050565b7f4f6e6c792061646d696e00000000000000000000000000000000000000000000600082015250565b6000614b80600a83613a88565b9150614b8b82614b4a565b602082019050919050565b60006020820190508181036000830152614baf81614b73565b9050919050565b7f496e76616c696420696400000000000000000000000000000000000000000000600082015250565b6000614bec600a83613a88565b9150614bf782614bb6565b602082019050919050565b60006020820190508181036000830152614c1b81614bdf565b9050919050565b7f45786973742067616d6500000000000000000000000000000000000000000000600082015250565b6000614c58600a83613a88565b9150614c6382614c22565b602082019050919050565b60006020820190508181036000830152614c8781614c4b565b9050919050565b600082825260208201905092915050565b6000614caa82613b05565b614cb48185614c8e565b9350614cc4818560208601613b1b565b614ccd81612e3b565b840191505092915050565b600081519050919050565b600082825260208201905092915050565b6000819050602082019050919050565b6000614d10838361481a565b60208301905092915050565b6000602082019050919050565b6000614d3482614cd8565b614d3e8185614ce3565b9350614d4983614cf4565b8060005b83811015614d7a578151614d618882614d04565b9750614d6c83614d1c565b925050600181019050614d4d565b5085935050505092915050565b600081519050919050565b600082825260208201905092915050565b6000819050602082019050919050565b6000614dbf8383614c9f565b905092915050565b6000602082019050919050565b6000614ddf82614d87565b614de98185614d92565b935083602082028501614dfb85614da3565b8060005b85811015614e375784840389528151614e188582614db3565b9450614e2383614dc7565b925060208a01995050600181019050614dff565b50829750879550505050505092915050565b614e5281613a10565b82525050565b600061030083016000830151614e71600086018261481a565b506020830151614e84602086018261481a565b5060408301518482036040860152614e9c8282614c9f565b9150506060830151614eb16060860182614913565b506080830151614ec4608086018261481a565b5060a083015184820360a0860152614edc8282614c9f565b91505060c083015184820360c0860152614ef68282614c9f565b91505060e083015184820360e0860152614f108282614c9f565b915050610100830151614f2761010086018261481a565b50610120830151614f3c61012086018261481a565b50610140830151614f5161014086018261481a565b50610160830151848203610160860152614f6b8282614d29565b915050610180830151848203610180860152614f878282614c9f565b9150506101a08301518482036101a0860152614fa38282614dd4565b9150506101c0830151614fba6101c08601826149a5565b506101e0830151614fcf6101e0860182614e49565b50610200830151614fe461020086018261481a565b50610220830151614ff961022086018261481a565b5061024083015161500e61024086018261481a565b506102608301516150236102608601826149a5565b5061028083015161503861028086018261481a565b506102a083015161504d6102a086018261481a565b506102c08301516150626102c08601826149a5565b506102e08301516150776102e0860182614855565b508091505092915050565b6000604082019050818103600083015261509c8185614ae1565b905081810360208301526150b08184614e58565b90509392505050565b7f6e6f742062756666000000000000000000000000000000000000000000000000600082015250565b60006150ef600883613a88565b91506150fa826150b9565b602082019050919050565b6000602082019050818103600083015261511e816150e2565b9050919050565b7f4e6f7420696e20726f756e640000000000000000000000000000000000000000600082015250565b600061515b600c83613a88565b915061516682615125565b602082019050919050565b6000602082019050818103600083015261518a8161514e565b9050919050565b7f4861732062756666000000000000000000000000000000000000000000000000600082015250565b60006151c7600883613a88565b91506151d282615191565b602082019050919050565b600060208201905081810360008301526151f6816151ba565b9050919050565b60006040820190506152126000830185613852565b61521f6020830184613271565b9392505050565b600060608201905061523b6000830186613271565b6152486020830185613271565b6152556040830184613271565b949350505050565b7f50726570617920666f7220676173000000000000000000000000000000000000600082015250565b6000615293600e83613a88565b915061529e8261525d565b602082019050919050565b600060208201905081810360008301526152c281615286565b9050919050565b60006060820190506152de6000830186613271565b6152eb6020830185613852565b6152f86040830184613271565b949350505050565b7f4e487b7100000000000000000000000000000000000000000000000000000000600052603260045260246000fd5b60006020828403121561534557615344612d22565b5b600061535384828501613b96565b91505092915050565b600061536782612de3565b9050919050565b6153778161535c565b82525050565b6000604082019050615392600083018561536e565b61539f6020830184613271565b9392505050565b60006153b18261308e565b91507fffffffffffffffffffffffffffffffffffffffffffffffffffffffffffffffff8214156153e4576153e36142ab565b5b600182019050919050565b7f4e6f7420737461727420726f756e640000000000000000000000000000000000600082015250565b6000615425600f83613a88565b9150615430826153ef565b602082019050919050565b6000602082019050818103600083015261545481615418565b9050919050565b7f4f76657220726f756e6400000000000000000000000000000000000000000000600082015250565b6000615491600a83613a88565b915061549c8261545b565b602082019050919050565b600060208201905081810360008301526154c081615484565b9050919050565b6000602082840312156154dd576154dc612d22565b5b600082015167ffffffffffffffff8111156154fb576154fa612d27565b5b61550784828501613c99565b91505092915050565b7f4e6f742065786973742067616d65000000000000000000000000000000000000600082015250565b6000615546600e83613a88565b915061555182615510565b602082019050919050565b6000602082019050818103600083015261557581615539565b9050919050565b60006155878261308e565b91506155928361308e565b9250817fffffffffffffffffffffffffffffffffffffffffffffffffffffffffffffffff04831182151516156155cb576155ca6142ab565b5b828202905092915050565b7f4e487b7100000000000000000000000000000000000000000000000000000000600052601260045260246000fd5b60006156108261308e565b915061561b8361308e565b92508261562b5761562a6155d6565b5b828204905092915050565b7f536166654d6174683a206d756c7469706c69636174696f6e206f766572666c6f60008201527f7700000000000000000000000000000000000000000000000000000000000000602082015250565b6000615692602183613a88565b915061569d82615636565b604082019050919050565b600060208201905081810360008301526156c181615685565b9050919050565b600060208201905081810360008301526156e28184614ae1565b905092915050565b60006156f58261308e565b91506157008361308e565b925082821015615713576157126142ab565b5b82820390509291505056fea2646970667358221220fb6d2a5c886e0b7b0b41b84b2d74101afdbda638ccddffcd57c83eea78b4e4d664736f6c63430008090033",
  "linkReferences": {},
  "deployedLinkReferences": {}
}