{
  "_format": "hh-sol-artifact-1",
  "contractName": "Game",
  "sourceName": "src/contracts/game/game.sol",
  "abi": [
    {
      "inputs": [
        {
          "internalType": "address payable",
          "name": "_operator",
          "type": "address"
        },
        {
          "internalType": "contract IAdminData",
          "name": "_adminData",
          "type": "address"
        },
        {
          "internalType": "contract IGameData",
          "name": "_gameData",
          "type": "address"
        },
        {
          "internalType": "contract IGameLogic",
          "name": "_gameLogic",
          "type": "address"
        },
        {
          "internalType": "contract IQuizToken",
          "name": "_buffToken",
          "type": "address"
        },
        {
          "internalType": "uint256",
          "name": "_buffValue",
          "type": "uint256"
        }
      ],
      "stateMutability": "nonpayable",
      "type": "constructor"
    },
    {
      "inputs": [
        {
          "internalType": "string",
          "name": "_appId",
          "type": "string"
        },
        {
          "internalType": "address payable",
          "name": "_newOperator",
          "type": "address"
        }
      ],
      "name": "addAppOperator",
      "outputs": [],
      "stateMutability": "nonpayable",
      "type": "function"
    },
    {
      "inputs": [],
      "name": "adminData",
      "outputs": [
        {
          "internalType": "contract IAdminData",
          "name": "",
          "type": "address"
        }
      ],
      "stateMutability": "view",
      "type": "function"
    },
    {
      "inputs": [],
      "name": "availableSize",
      "outputs": [
        {
          "internalType": "uint256",
          "name": "",
          "type": "uint256"
        }
      ],
      "stateMutability": "view",
      "type": "function"
    },
    {
      "inputs": [],
      "name": "buffToken",
      "outputs": [
        {
          "internalType": "contract IQuizToken",
          "name": "",
          "type": "address"
        }
      ],
      "stateMutability": "view",
      "type": "function"
    },
    {
      "inputs": [],
      "name": "buffValue",
      "outputs": [
        {
          "internalType": "uint256",
          "name": "",
          "type": "uint256"
        }
      ],
      "stateMutability": "view",
      "type": "function"
    },
    {
      "inputs": [
        {
          "internalType": "uint256",
          "name": "_gameId",
          "type": "uint256"
        },
        {
          "internalType": "uint256",
          "name": "_round",
          "type": "uint256"
        },
        {
          "internalType": "uint256",
          "name": "_buffId",
          "type": "uint256"
        }
      ],
      "name": "buyBuff",
      "outputs": [],
      "stateMutability": "nonpayable",
      "type": "function"
    },
    {
      "inputs": [
        {
          "internalType": "uint256",
          "name": "_gameId",
          "type": "uint256"
        },
        {
          "internalType": "uint256",
          "name": "_round",
          "type": "uint256"
        }
      ],
      "name": "buyTicket",
      "outputs": [],
      "stateMutability": "payable",
      "type": "function"
    },
    {
      "inputs": [
        {
          "internalType": "contract IAdminData",
          "name": "_newData",
          "type": "address"
        }
      ],
      "name": "changeAdminData",
      "outputs": [],
      "stateMutability": "nonpayable",
      "type": "function"
    },
    {
      "inputs": [
        {
          "internalType": "contract IQuizToken",
          "name": "_newToken",
          "type": "address"
        }
      ],
      "name": "changeBuffToken",
      "outputs": [],
      "stateMutability": "nonpayable",
      "type": "function"
    },
    {
      "inputs": [
        {
          "internalType": "uint256",
          "name": "_newValue",
          "type": "uint256"
        }
      ],
      "name": "changeBuffValue",
      "outputs": [],
      "stateMutability": "nonpayable",
      "type": "function"
    },
    {
      "inputs": [
        {
          "internalType": "contract IGameData",
          "name": "_newData",
          "type": "address"
        }
      ],
      "name": "changeGameData",
      "outputs": [],
      "stateMutability": "nonpayable",
      "type": "function"
    },
    {
      "inputs": [
        {
          "internalType": "address payable",
          "name": "_newOperator",
          "type": "address"
        }
      ],
      "name": "changeOperator",
      "outputs": [],
      "stateMutability": "nonpayable",
      "type": "function"
    },
    {
      "inputs": [
        {
          "components": [
            {
              "internalType": "uint256",
              "name": "id",
              "type": "uint256"
            },
            {
              "internalType": "uint256",
              "name": "category",
              "type": "uint256"
            },
            {
              "internalType": "string",
              "name": "appId",
              "type": "string"
            },
            {
              "internalType": "int256",
              "name": "groupId",
              "type": "int256"
            },
            {
              "internalType": "uint256",
              "name": "botType",
              "type": "uint256"
            },
            {
              "internalType": "string",
              "name": "title",
              "type": "string"
            },
            {
              "internalType": "string",
              "name": "introduction",
              "type": "string"
            },
            {
              "internalType": "string",
              "name": "story",
              "type": "string"
            },
            {
              "internalType": "uint256",
              "name": "eliminateProportion",
              "type": "uint256"
            },
            {
              "internalType": "uint256",
              "name": "awardProportion",
              "type": "uint256"
            },
            {
              "internalType": "uint256",
              "name": "winNum",
              "type": "uint256"
            },
            {
              "internalType": "uint256[]",
              "name": "buffIds",
              "type": "uint256[]"
            },
            {
              "internalType": "string",
              "name": "buffDesc",
              "type": "string"
            },
            {
              "internalType": "string[]",
              "name": "events",
              "type": "string[]"
            },
            {
              "internalType": "bool",
              "name": "ticketIsEth",
              "type": "bool"
            },
            {
              "internalType": "contract IERC20",
              "name": "ticketsToken",
              "type": "address"
            },
            {
              "internalType": "uint256",
              "name": "ticketAmount",
              "type": "uint256"
            },
            {
              "internalType": "uint256",
              "name": "effectStartTime",
              "type": "uint256"
            },
            {
              "internalType": "uint256",
              "name": "effectEndTime",
              "type": "uint256"
            },
            {
              "internalType": "bool",
              "name": "daily",
              "type": "bool"
            },
            {
              "internalType": "uint256",
              "name": "startH",
              "type": "uint256"
            },
            {
              "internalType": "uint256",
              "name": "startM",
              "type": "uint256"
            },
            {
              "internalType": "bool",
              "name": "exist",
              "type": "bool"
            },
            {
              "internalType": "address",
              "name": "creator",
              "type": "address"
            }
          ],
          "internalType": "struct IGameData.GameDetail",
          "name": "_game",
          "type": "tuple"
        }
      ],
      "name": "createGame",
      "outputs": [],
      "stateMutability": "nonpayable",
      "type": "function"
    },
    {
      "inputs": [
        {
          "internalType": "string",
          "name": "_appId",
          "type": "string"
        }
      ],
      "name": "delAppOperator",
      "outputs": [],
      "stateMutability": "nonpayable",
      "type": "function"
    },
    {
      "inputs": [
        {
          "internalType": "contract IERC20",
          "name": "",
          "type": "address"
        }
      ],
      "name": "erc20Exist",
      "outputs": [
        {
          "internalType": "bool",
          "name": "",
          "type": "bool"
        }
      ],
      "stateMutability": "view",
      "type": "function"
    },
    {
      "inputs": [
        {
          "internalType": "uint256",
          "name": "",
          "type": "uint256"
        }
      ],
      "name": "erc20List",
      "outputs": [
        {
          "internalType": "contract IERC20",
          "name": "",
          "type": "address"
        }
      ],
      "stateMutability": "view",
      "type": "function"
    },
    {
      "inputs": [],
      "name": "gameData",
      "outputs": [
        {
          "internalType": "contract IGameData",
          "name": "",
          "type": "address"
        }
      ],
      "stateMutability": "view",
      "type": "function"
    },
    {
      "inputs": [],
      "name": "gameLogic",
      "outputs": [
        {
          "internalType": "contract IGameLogic",
          "name": "",
          "type": "address"
        }
      ],
      "stateMutability": "view",
      "type": "function"
    },
    {
      "inputs": [
        {
          "internalType": "string",
          "name": "_appId",
          "type": "string"
        },
        {
          "internalType": "uint256",
          "name": "_gameId",
          "type": "uint256"
        },
        {
          "internalType": "uint256",
          "name": "_round",
          "type": "uint256"
        }
      ],
      "name": "gameRoundOver",
      "outputs": [],
      "stateMutability": "nonpayable",
      "type": "function"
    },
    {
      "inputs": [],
      "name": "getAvailableGameIds",
      "outputs": [
        {
          "internalType": "uint256[]",
          "name": "",
          "type": "uint256[]"
        }
      ],
      "stateMutability": "view",
      "type": "function"
    },
    {
      "inputs": [
        {
          "internalType": "int256",
          "name": "_groupId",
          "type": "int256"
        }
      ],
      "name": "getGroupGameIds",
      "outputs": [
        {
          "internalType": "uint256[]",
          "name": "",
          "type": "uint256[]"
        }
      ],
      "stateMutability": "view",
      "type": "function"
    },
    {
      "inputs": [
        {
          "internalType": "string",
          "name": "_appId",
          "type": "string"
        }
      ],
      "name": "isOperator",
      "outputs": [
        {
          "internalType": "bool",
          "name": "",
          "type": "bool"
        }
      ],
      "stateMutability": "view",
      "type": "function"
    },
    {
      "inputs": [],
      "name": "operator",
      "outputs": [
        {
          "internalType": "address payable",
          "name": "",
          "type": "address"
        }
      ],
      "stateMutability": "view",
      "type": "function"
    },
    {
      "inputs": [],
      "name": "owner",
      "outputs": [
        {
          "internalType": "address",
          "name": "",
          "type": "address"
        }
      ],
      "stateMutability": "view",
      "type": "function"
    },
    {
      "inputs": [
        {
          "internalType": "uint256",
          "name": "_newSize",
          "type": "uint256"
        }
      ],
      "name": "setAvailableSize",
      "outputs": [],
      "stateMutability": "nonpayable",
      "type": "function"
    },
    {
      "inputs": [
        {
          "internalType": "string",
          "name": "_appId",
          "type": "string"
        },
        {
          "internalType": "uint256",
          "name": "_gameId",
          "type": "uint256"
        },
        {
          "internalType": "uint256",
          "name": "_launchTime",
          "type": "uint256"
        }
      ],
      "name": "startGame",
      "outputs": [],
      "stateMutability": "payable",
      "type": "function"
    },
    {
      "inputs": [
        {
          "internalType": "address payable",
          "name": "_to",
          "type": "address"
        }
      ],
      "name": "transferAsset",
      "outputs": [],
      "stateMutability": "nonpayable",
      "type": "function"
    },
    {
      "inputs": [
        {
          "internalType": "address",
          "name": "_newOwner",
          "type": "address"
        }
      ],
      "name": "transferOwner",
      "outputs": [],
      "stateMutability": "nonpayable",
      "type": "function"
    }
  ],
  "bytecode": "0x60806040526064600b553480156200001657600080fd5b50604051620062aa380380620062aa83398181016040528101906200003c9190620003a1565b336000806101000a81548173ffffffffffffffffffffffffffffffffffffffff021916908373ffffffffffffffffffffffffffffffffffffffff16021790555085600160006101000a81548173ffffffffffffffffffffffffffffffffffffffff021916908373ffffffffffffffffffffffffffffffffffffffff16021790555084600360006101000a81548173ffffffffffffffffffffffffffffffffffffffff021916908373ffffffffffffffffffffffffffffffffffffffff16021790555083600460006101000a81548173ffffffffffffffffffffffffffffffffffffffff021916908373ffffffffffffffffffffffffffffffffffffffff16021790555082600560006101000a81548173ffffffffffffffffffffffffffffffffffffffff021916908373ffffffffffffffffffffffffffffffffffffffff16021790555081600660006101000a81548173ffffffffffffffffffffffffffffffffffffffff021916908373ffffffffffffffffffffffffffffffffffffffff160217905550806007819055505050505050506200043d565b600080fd5b600073ffffffffffffffffffffffffffffffffffffffff82169050919050565b60006200020682620001d9565b9050919050565b6200021881620001f9565b81146200022457600080fd5b50565b60008151905062000238816200020d565b92915050565b60006200024b82620001d9565b9050919050565b60006200025f826200023e565b9050919050565b620002718162000252565b81146200027d57600080fd5b50565b600081519050620002918162000266565b92915050565b6000620002a4826200023e565b9050919050565b620002b68162000297565b8114620002c257600080fd5b50565b600081519050620002d681620002ab565b92915050565b6000620002e9826200023e565b9050919050565b620002fb81620002dc565b81146200030757600080fd5b50565b6000815190506200031b81620002f0565b92915050565b60006200032e826200023e565b9050919050565b620003408162000321565b81146200034c57600080fd5b50565b600081519050620003608162000335565b92915050565b6000819050919050565b6200037b8162000366565b81146200038757600080fd5b50565b6000815190506200039b8162000370565b92915050565b60008060008060008060c08789031215620003c157620003c0620001d4565b5b6000620003d189828a0162000227565b9650506020620003e489828a0162000280565b9550506040620003f789828a01620002c5565b94505060606200040a89828a016200030a565b93505060806200041d89828a016200034f565b92505060a06200043089828a016200038a565b9150509295509295509295565b615e5d806200044d6000396000f3fe6080604052600436106101b75760003560e01c80637e3dfe5c116100ec578063bb3f09111161008a578063d798860511610064578063d7988605146105b2578063e606c9b8146105ef578063e86098f514610618578063fa24f74314610655576101b7565b8063bb3f091114610537578063c7d7b66014610560578063ce6e98f214610589576101b7565b80638da5cb5b116100c65780638da5cb5b1461049e578063b05c3f67146104c9578063b2888e49146104f2578063b7579b501461050e576101b7565b80637e3dfe5c1461040d578063806908631461044a5780638553ee9014610475576101b7565b8063298ec20811610159578063570ca73511610133578063570ca735146103635780635a2a79231461038e5780637742b301146103b95780637d878731146103e2576101b7565b8063298ec208146102f357806331e1bf381461030f5780634fb2e45d1461033a576101b7565b8063134087a211610195578063134087a2146102395780631f041bd1146102645780632483eee5146102a157806327a343b3146102ca576101b7565b806306394c9b146101bc57806306d2ae8e146101e55780630bd0997914610210575b600080fd5b3480156101c857600080fd5b506101e360048036038101906101de91906133d5565b610680565b005b3480156101f157600080fd5b506101fa610752565b6040516102079190613461565b60405180910390f35b34801561021c57600080fd5b50610237600480360381019061023291906135c2565b610778565b005b34801561024557600080fd5b5061024e610867565b60405161025b919061363f565b60405180910390f35b34801561027057600080fd5b5061028b6004803603810190610286919061365a565b61088d565b60405161029891906136be565b60405180910390f35b3480156102ad57600080fd5b506102c860048036038101906102c3919061370f565b61095b565b005b3480156102d657600080fd5b506102f160048036038101906102ec919061370f565b6109f3565b005b61030d6004803603810190610308919061373c565b610a8b565b005b34801561031b57600080fd5b50610324610e1f565b604051610331919061383a565b60405180910390f35b34801561034657600080fd5b50610361600480360381019061035c919061389a565b6110fc565b005b34801561036f57600080fd5b506103786111cd565b60405161038591906138d6565b60405180910390f35b34801561039a57600080fd5b506103a36111f3565b6040516103b09190613912565b60405180910390f35b3480156103c557600080fd5b506103e060048036038101906103db919061392d565b611219565b005b3480156103ee57600080fd5b506103f761158b565b60405161040491906139ab565b60405180910390f35b34801561041957600080fd5b50610434600480360381019061042f9190613a04565b611591565b60405161044191906136be565b60405180910390f35b34801561045657600080fd5b5061045f6115b1565b60405161046c91906139ab565b60405180910390f35b34801561048157600080fd5b5061049c60048036038101906104979190613f34565b6115b7565b005b3480156104aa57600080fd5b506104b36118e4565b6040516104c09190613f8c565b60405180910390f35b3480156104d557600080fd5b506104f060048036038101906104eb9190613fa7565b611908565b005b61050c6004803603810190610507919061392d565b611bbc565b005b34801561051a57600080fd5b5061053560048036038101906105309190614038565b611d84565b005b34801561054357600080fd5b5061055e6004803603810190610559919061365a565b611e56565b005b34801561056c57600080fd5b50610587600480360381019061058291906133d5565b611f45565b005b34801561059557600080fd5b506105b060048036038101906105ab91906140a3565b6121ed565b005b3480156105be57600080fd5b506105d960048036038101906105d491906140d0565b6122bf565b6040516105e6919061383a565b60405180910390f35b3480156105fb57600080fd5b506106166004803603810190610611919061413b565b6125af565b005b34801561062457600080fd5b5061063f600480360381019061063a919061370f565b612681565b60405161064c9190614189565b60405180910390f35b34801561066157600080fd5b5061066a6126c0565b60405161067791906141c5565b60405180910390f35b60008054906101000a900473ffffffffffffffffffffffffffffffffffffffff1673ffffffffffffffffffffffffffffffffffffffff163373ffffffffffffffffffffffffffffffffffffffff161461070e576040517f08c379a00000000000000000000000000000000000000000000000000000000081526004016107059061423d565b60405180910390fd5b80600160006101000a81548173ffffffffffffffffffffffffffffffffffffffff021916908373ffffffffffffffffffffffffffffffffffffffff16021790555050565b600360009054906101000a900473ffffffffffffffffffffffffffffffffffffffff1681565b60008054906101000a900473ffffffffffffffffffffffffffffffffffffffff1673ffffffffffffffffffffffffffffffffffffffff163373ffffffffffffffffffffffffffffffffffffffff1614610806576040517f08c379a00000000000000000000000000000000000000000000000000000000081526004016107fd9061423d565b60405180910390fd5b8060028360405161081791906142d7565b908152602001604051809103902060006101000a81548173ffffffffffffffffffffffffffffffffffffffff021916908373ffffffffffffffffffffffffffffffffffffffff1602179055505050565b600560009054906101000a900473ffffffffffffffffffffffffffffffffffffffff1681565b60003373ffffffffffffffffffffffffffffffffffffffff16600160009054906101000a900473ffffffffffffffffffffffffffffffffffffffff1673ffffffffffffffffffffffffffffffffffffffff16148061095457503373ffffffffffffffffffffffffffffffffffffffff1660028360405161090d91906142d7565b908152602001604051809103902060009054906101000a900473ffffffffffffffffffffffffffffffffffffffff1673ffffffffffffffffffffffffffffffffffffffff16145b9050919050565b60008054906101000a900473ffffffffffffffffffffffffffffffffffffffff1673ffffffffffffffffffffffffffffffffffffffff163373ffffffffffffffffffffffffffffffffffffffff16146109e9576040517f08c379a00000000000000000000000000000000000000000000000000000000081526004016109e09061423d565b60405180910390fd5b8060078190555050565b60008054906101000a900473ffffffffffffffffffffffffffffffffffffffff1673ffffffffffffffffffffffffffffffffffffffff163373ffffffffffffffffffffffffffffffffffffffff1614610a81576040517f08c379a0000000000000000000000000000000000000000000000000000000008152600401610a789061423d565b60405180910390fd5b80600b8190555050565b610a9582826126e6565b610a9f82826127e0565b6000600460009054906101000a900473ffffffffffffffffffffffffffffffffffffffff1673ffffffffffffffffffffffffffffffffffffffff1663a2f77bcc846040518263ffffffff1660e01b8152600401610afc91906139ab565b60006040518083038186803b158015610b1457600080fd5b505afa158015610b28573d6000803e3d6000fd5b505050506040513d6000823e3d601f19601f82011682018060405250810190610b519190614801565b90506000610b608484336128db565b5090508015610ba4576040517f08c379a0000000000000000000000000000000000000000000000000000000008152600401610b9b90614896565b60405180910390fd5b816101c0015115610bfc57816102000151341015610bf7576040517f08c379a0000000000000000000000000000000000000000000000000000000008152600401610bee90614902565b60405180910390fd5b610c97565b816101e0015173ffffffffffffffffffffffffffffffffffffffff166323b872dd33308561020001516040518463ffffffff1660e01b8152600401610c4393929190614922565b602060405180830381600087803b158015610c5d57600080fd5b505af1158015610c71573d6000803e3d6000fd5b505050506040513d601f19601f82011682018060405250810190610c959190614959565b505b600460009054906101000a900473ffffffffffffffffffffffffffffffffffffffff1673ffffffffffffffffffffffffffffffffffffffff1663ffe41ad38585336040518463ffffffff1660e01b8152600401610cf693929190614986565b600060405180830381600087803b158015610d1057600080fd5b505af1158015610d24573d6000803e3d6000fd5b50505050600560009054906101000a900473ffffffffffffffffffffffffffffffffffffffff1673ffffffffffffffffffffffffffffffffffffffff1663a71a0c078585600a60008981526020019081526020016000206000888152602001908152602001600020546040518463ffffffff1660e01b8152600401610dab939291906149cc565b600060405180830381600087803b158015610dc557600080fd5b505af1158015610dd9573d6000803e3d6000fd5b505050506001600a600086815260200190815260200160002060008581526020019081526020016000206000828254610e129190614a32565b9250508190555050505050565b60606000600b5467ffffffffffffffff811115610e3f57610e3e613497565b5b604051908082528060200260200182016040528015610e6d5781602001602082028036833780820191505090505b5090506000805b600460009054906101000a900473ffffffffffffffffffffffffffffffffffffffff1673ffffffffffffffffffffffffffffffffffffffff16639f668bba6040518163ffffffff1660e01b815260040160006040518083038186803b158015610edc57600080fd5b505afa158015610ef0573d6000803e3d6000fd5b505050506040513d6000823e3d601f19601f82011682018060405250810190610f199190614a88565b518110156110f35760648210610f2e576110f3565b6000600460009054906101000a900473ffffffffffffffffffffffffffffffffffffffff1673ffffffffffffffffffffffffffffffffffffffff1663a2f77bcc600460009054906101000a900473ffffffffffffffffffffffffffffffffffffffff1673ffffffffffffffffffffffffffffffffffffffff16639f668bba6040518163ffffffff1660e01b815260040160006040518083038186803b158015610fd657600080fd5b505afa158015610fea573d6000803e3d6000fd5b505050506040513d6000823e3d601f19601f820116820180604052508101906110139190614a88565b848151811061102557611024614ad1565b5b60200260200101516040518263ffffffff1660e01b815260040161104991906139ab565b60006040518083038186803b15801561106157600080fd5b505afa158015611075573d6000803e3d6000fd5b505050506040513d6000823e3d601f19601f8201168201806040525081019061109e9190614801565b905042816102400151106110df5782806110b790614b00565b93505080600001518484815181106110d2576110d1614ad1565b5b6020026020010181815250505b5080806110eb90614b00565b915050610e74565b50819250505090565b60008054906101000a900473ffffffffffffffffffffffffffffffffffffffff1673ffffffffffffffffffffffffffffffffffffffff163373ffffffffffffffffffffffffffffffffffffffff161461118a576040517f08c379a00000000000000000000000000000000000000000000000000000000081526004016111819061423d565b60405180910390fd5b806000806101000a81548173ffffffffffffffffffffffffffffffffffffffff021916908373ffffffffffffffffffffffffffffffffffffffff16021790555050565b600160009054906101000a900473ffffffffffffffffffffffffffffffffffffffff1681565b600660009054906101000a900473ffffffffffffffffffffffffffffffffffffffff1681565b6112228361088d565b611261576040517f08c379a000000000000000000000000000000000000000000000000000000000815260040161125890614b95565b60405180910390fd5b61126b82826126e6565b61127582826127e0565b6000600460009054906101000a900473ffffffffffffffffffffffffffffffffffffffff1673ffffffffffffffffffffffffffffffffffffffff16630d2dce2284846040518363ffffffff1660e01b81526004016112d4929190614bb5565b60006040518083038186803b1580156112ec57600080fd5b505afa158015611300573d6000803e3d6000fd5b505050506040513d6000823e3d601f19601f820116820180604052508101906113299190614ca1565b90506000600460009054906101000a900473ffffffffffffffffffffffffffffffffffffffff1673ffffffffffffffffffffffffffffffffffffffff166370c1b1d785856040518363ffffffff1660e01b815260040161138a929190614bb5565b60006040518083038186803b1580156113a257600080fd5b505afa1580156113b6573d6000803e3d6000fd5b505050506040513d6000823e3d601f19601f820116820180604052508101906113df9190614f13565b9050600080600080600560009054906101000a900473ffffffffffffffffffffffffffffffffffffffff1673ffffffffffffffffffffffffffffffffffffffff1663532af7d289896040518363ffffffff1660e01b8152600401611444929190614bb5565b600060405180830381600087803b15801561145e57600080fd5b505af1158015611472573d6000803e3d6000fd5b505050506040513d6000823e3d601f19601f8201168201806040525081019061149b9190614f5c565b93509350935093508085602001819052508551856040018181525050838560a00181905250828560c00181905250818560e00181905250600185610100019015159081151581525050600460009054906101000a900473ffffffffffffffffffffffffffffffffffffffff1673ffffffffffffffffffffffffffffffffffffffff1663ea7a48da8989886040518463ffffffff1660e01b8152600401611543939291906152ad565b600060405180830381600087803b15801561155d57600080fd5b505af1158015611571573d6000803e3d6000fd5b50505050611580888289612a17565b505050505050505050565b600b5481565b60096020528060005260406000206000915054906101000a900460ff1681565b60075481565b8060400151600360009054906101000a900473ffffffffffffffffffffffffffffffffffffffff1673ffffffffffffffffffffffffffffffffffffffff1663b796e2b082336040518363ffffffff1660e01b8152600401611619929190615324565b60206040518083038186803b15801561163157600080fd5b505afa158015611645573d6000803e3d6000fd5b505050506040513d601f19601f820116820180604052508101906116699190614959565b8061167957506116788161088d565b5b6116b8576040517f08c379a00000000000000000000000000000000000000000000000000000000081526004016116af906153a0565b60405180910390fd5b600082600001511415611700576040517f08c379a00000000000000000000000000000000000000000000000000000000081526004016116f79061540c565b60405180910390fd5b6000600460009054906101000a900473ffffffffffffffffffffffffffffffffffffffff1673ffffffffffffffffffffffffffffffffffffffff1663a2f77bcc84600001516040518263ffffffff1660e01b815260040161176191906139ab565b60006040518083038186803b15801561177957600080fd5b505afa15801561178d573d6000803e3d6000fd5b505050506040513d6000823e3d601f19601f820116820180604052508101906117b69190614801565b9050806102c00151156117fe576040517f08c379a00000000000000000000000000000000000000000000000000000000081526004016117f590615478565b60405180910390fd5b8290506001816102c001901515908115158152505033816102e0019073ffffffffffffffffffffffffffffffffffffffff16908173ffffffffffffffffffffffffffffffffffffffff1681525050600460009054906101000a900473ffffffffffffffffffffffffffffffffffffffff1673ffffffffffffffffffffffffffffffffffffffff1663dcdc38258460400151836040518363ffffffff1660e01b81526004016118ad92919061584c565b600060405180830381600087803b1580156118c757600080fd5b505af11580156118db573d6000803e3d6000fd5b50505050505050565b60008054906101000a900473ffffffffffffffffffffffffffffffffffffffff1681565b61191283836127e0565b61191c83836126e6565b6119268382612d3d565b611965576040517f08c379a000000000000000000000000000000000000000000000000000000000815260040161195c906158cf565b60405180910390fd5b6000806119738585336128db565b91509150816119b7576040517f08c379a00000000000000000000000000000000000000000000000000000000081526004016119ae9061593b565b60405180910390fd5b6119c2858583612e4e565b15611a02576040517f08c379a00000000000000000000000000000000000000000000000000000000081526004016119f9906159a7565b60405180910390fd5b600660009054906101000a900473ffffffffffffffffffffffffffffffffffffffff1673ffffffffffffffffffffffffffffffffffffffff16639dc29fac336007546040518363ffffffff1660e01b8152600401611a619291906159c7565b600060405180830381600087803b158015611a7b57600080fd5b505af1158015611a8f573d6000803e3d6000fd5b50505050600460009054906101000a900473ffffffffffffffffffffffffffffffffffffffff1673ffffffffffffffffffffffffffffffffffffffff166342f2a5e38686846040518463ffffffff1660e01b8152600401611af2939291906159f0565b600060405180830381600087803b158015611b0c57600080fd5b505af1158015611b20573d6000803e3d6000fd5b50505050600560009054906101000a900473ffffffffffffffffffffffffffffffffffffffff1673ffffffffffffffffffffffffffffffffffffffff1663d8602ed18686846040518463ffffffff1660e01b8152600401611b83939291906159f0565b600060405180830381600087803b158015611b9d57600080fd5b505af1158015611bb1573d6000803e3d6000fd5b505050505050505050565b611bc582612f59565b60003411611c08576040517f08c379a0000000000000000000000000000000000000000000000000000000008152600401611bff90615a73565b60405180910390fd5b6000600284604051611c1a91906142d7565b908152602001604051809103902060009054906101000a900473ffffffffffffffffffffffffffffffffffffffff169050600073ffffffffffffffffffffffffffffffffffffffff168173ffffffffffffffffffffffffffffffffffffffff161415611ca657600160009054906101000a900473ffffffffffffffffffffffffffffffffffffffff1690505b8073ffffffffffffffffffffffffffffffffffffffff166108fc349081150290604051600060405180830381858888f19350505050158015611cec573d6000803e3d6000fd5b50600460009054906101000a900473ffffffffffffffffffffffffffffffffffffffff1673ffffffffffffffffffffffffffffffffffffffff166357e40a648433856040518463ffffffff1660e01b8152600401611d4c93929190615a93565b600060405180830381600087803b158015611d6657600080fd5b505af1158015611d7a573d6000803e3d6000fd5b5050505050505050565b60008054906101000a900473ffffffffffffffffffffffffffffffffffffffff1673ffffffffffffffffffffffffffffffffffffffff163373ffffffffffffffffffffffffffffffffffffffff1614611e12576040517f08c379a0000000000000000000000000000000000000000000000000000000008152600401611e099061423d565b60405180910390fd5b80600660006101000a81548173ffffffffffffffffffffffffffffffffffffffff021916908373ffffffffffffffffffffffffffffffffffffffff16021790555050565b60008054906101000a900473ffffffffffffffffffffffffffffffffffffffff1673ffffffffffffffffffffffffffffffffffffffff163373ffffffffffffffffffffffffffffffffffffffff1614611ee4576040517f08c379a0000000000000000000000000000000000000000000000000000000008152600401611edb9061423d565b60405180910390fd5b6000600282604051611ef691906142d7565b908152602001604051809103902060006101000a81548173ffffffffffffffffffffffffffffffffffffffff021916908373ffffffffffffffffffffffffffffffffffffffff16021790555050565b60008054906101000a900473ffffffffffffffffffffffffffffffffffffffff1673ffffffffffffffffffffffffffffffffffffffff163373ffffffffffffffffffffffffffffffffffffffff1614611fd3576040517f08c379a0000000000000000000000000000000000000000000000000000000008152600401611fca9061423d565b60405180910390fd5b6000471115612024578073ffffffffffffffffffffffffffffffffffffffff166108fc479081150290604051600060405180830381858888f19350505050158015612022573d6000803e3d6000fd5b505b60005b6008805490508110156121e95760006008828154811061204a57612049614ad1565b5b9060005260206000200160009054906101000a900473ffffffffffffffffffffffffffffffffffffffff1673ffffffffffffffffffffffffffffffffffffffff166370a08231306040518263ffffffff1660e01b81526004016120ad9190613f8c565b60206040518083038186803b1580156120c557600080fd5b505afa1580156120d9573d6000803e3d6000fd5b505050506040513d601f19601f820116820180604052508101906120fd9190615aca565b905060008111156121d5576008828154811061211c5761211b614ad1565b5b9060005260206000200160009054906101000a900473ffffffffffffffffffffffffffffffffffffffff1673ffffffffffffffffffffffffffffffffffffffff1663a9059cbb84836040518363ffffffff1660e01b8152600401612181929190615b18565b602060405180830381600087803b15801561219b57600080fd5b505af11580156121af573d6000803e3d6000fd5b505050506040513d601f19601f820116820180604052508101906121d39190614959565b505b5080806121e190614b00565b915050612027565b5050565b60008054906101000a900473ffffffffffffffffffffffffffffffffffffffff1673ffffffffffffffffffffffffffffffffffffffff163373ffffffffffffffffffffffffffffffffffffffff161461227b576040517f08c379a00000000000000000000000000000000000000000000000000000000081526004016122729061423d565b60405180910390fd5b80600360006101000a81548173ffffffffffffffffffffffffffffffffffffffff021916908373ffffffffffffffffffffffffffffffffffffffff16021790555050565b60606000600b5467ffffffffffffffff8111156122df576122de613497565b5b60405190808252806020026020018201604052801561230d5781602001602082028036833780820191505090505b5090506000805b600460009054906101000a900473ffffffffffffffffffffffffffffffffffffffff1673ffffffffffffffffffffffffffffffffffffffff16639f668bba6040518163ffffffff1660e01b815260040160006040518083038186803b15801561237c57600080fd5b505afa158015612390573d6000803e3d6000fd5b505050506040513d6000823e3d601f19601f820116820180604052508101906123b99190614a88565b518110156125a457606482106123ce576125a4565b6000600460009054906101000a900473ffffffffffffffffffffffffffffffffffffffff1673ffffffffffffffffffffffffffffffffffffffff1663a2f77bcc600460009054906101000a900473ffffffffffffffffffffffffffffffffffffffff1673ffffffffffffffffffffffffffffffffffffffff16639f668bba6040518163ffffffff1660e01b815260040160006040518083038186803b15801561247657600080fd5b505afa15801561248a573d6000803e3d6000fd5b505050506040513d6000823e3d601f19601f820116820180604052508101906124b39190614a88565b84815181106124c5576124c4614ad1565b5b60200260200101516040518263ffffffff1660e01b81526004016124e991906139ab565b60006040518083038186803b15801561250157600080fd5b505afa158015612515573d6000803e3d6000fd5b505050506040513d6000823e3d601f19601f8201168201806040525081019061253e9190614801565b905042816102400151101580156125585750858160600151145b1561259057828061256890614b00565b935050806000015184848151811061258357612582614ad1565b5b6020026020010181815250505b50808061259c90614b00565b915050612314565b508192505050919050565b60008054906101000a900473ffffffffffffffffffffffffffffffffffffffff1673ffffffffffffffffffffffffffffffffffffffff163373ffffffffffffffffffffffffffffffffffffffff161461263d576040517f08c379a00000000000000000000000000000000000000000000000000000000081526004016126349061423d565b60405180910390fd5b80600460006101000a81548173ffffffffffffffffffffffffffffffffffffffff021916908373ffffffffffffffffffffffffffffffffffffffff16021790555050565b6008818154811061269157600080fd5b906000526020600020016000915054906101000a900473ffffffffffffffffffffffffffffffffffffffff1681565b600460009054906101000a900473ffffffffffffffffffffffffffffffffffffffff1681565b600460009054906101000a900473ffffffffffffffffffffffffffffffffffffffff1673ffffffffffffffffffffffffffffffffffffffff166370c1b1d783836040518363ffffffff1660e01b8152600401612743929190614bb5565b60006040518083038186803b15801561275b57600080fd5b505afa15801561276f573d6000803e3d6000fd5b505050506040513d6000823e3d601f19601f820116820180604052508101906127989190614f13565b61012001516127dc576040517f08c379a00000000000000000000000000000000000000000000000000000000081526004016127d390615b8d565b60405180910390fd5b5050565b600460009054906101000a900473ffffffffffffffffffffffffffffffffffffffff1673ffffffffffffffffffffffffffffffffffffffff166370c1b1d783836040518363ffffffff1660e01b815260040161283d929190614bb5565b60006040518083038186803b15801561285557600080fd5b505afa158015612869573d6000803e3d6000fd5b505050506040513d6000823e3d601f19601f820116820180604052508101906128929190614f13565b6101000151156128d7576040517f08c379a00000000000000000000000000000000000000000000000000000000081526004016128ce90615bf9565b60405180910390fd5b5050565b6000806000600460009054906101000a900473ffffffffffffffffffffffffffffffffffffffff1673ffffffffffffffffffffffffffffffffffffffff16630d2dce2287876040518363ffffffff1660e01b815260040161293d929190614bb5565b60006040518083038186803b15801561295557600080fd5b505afa158015612969573d6000803e3d6000fd5b505050506040513d6000823e3d601f19601f820116820180604052508101906129929190614ca1565b905060005b8151811015612a0d578473ffffffffffffffffffffffffffffffffffffffff168282815181106129ca576129c9614ad1565b5b602002602001015173ffffffffffffffffffffffffffffffffffffffff1614156129fa5760019350809250612a0d565b8080612a0590614b00565b915050612997565b5050935093915050565b600082511415612a2657612d38565b6000600460009054906101000a900473ffffffffffffffffffffffffffffffffffffffff1673ffffffffffffffffffffffffffffffffffffffff1663a2f77bcc856040518263ffffffff1660e01b8152600401612a8391906139ab565b60006040518083038186803b158015612a9b57600080fd5b505afa158015612aaf573d6000803e3d6000fd5b505050506040513d6000823e3d601f19601f82011682018060405250810190612ad89190614801565b90506000600460009054906101000a900473ffffffffffffffffffffffffffffffffffffffff1673ffffffffffffffffffffffffffffffffffffffff1663751938af86856040518363ffffffff1660e01b8152600401612b39929190614bb5565b60206040518083038186803b158015612b5157600080fd5b505afa158015612b65573d6000803e3d6000fd5b505050506040513d601f19601f82011682018060405250810190612b899190615aca565b90506000612bb8836101200151612baa60648561309490919063ffffffff16565b6130de90919063ffffffff16565b90506000612bcf828461315990919063ffffffff16565b90506000612be787518461309490919063ffffffff16565b905060005b8751811015612d2757856101c0015115612c6657878181518110612c1357612c12614ad1565b5b602002602001015173ffffffffffffffffffffffffffffffffffffffff166108fc839081150290604051600060405180830381858888f19350505050158015612c60573d6000803e3d6000fd5b50612d14565b856101e0015173ffffffffffffffffffffffffffffffffffffffff1663a9059cbb898381518110612c9a57612c99614ad1565b5b6020026020010151846040518363ffffffff1660e01b8152600401612cc09291906159c7565b602060405180830381600087803b158015612cda57600080fd5b505af1158015612cee573d6000803e3d6000fd5b505050506040513d601f19601f82011682018060405250810190612d129190614959565b505b8080612d1f90614b00565b915050612bec565b50612d3285836131a3565b50505050505b505050565b600080600460009054906101000a900473ffffffffffffffffffffffffffffffffffffffff1673ffffffffffffffffffffffffffffffffffffffff1663a2f77bcc856040518263ffffffff1660e01b8152600401612d9b91906139ab565b60006040518083038186803b158015612db357600080fd5b505afa158015612dc7573d6000803e3d6000fd5b505050506040513d6000823e3d601f19601f82011682018060405250810190612df09190614801565b610160015190506000805b8251811015612e425784838281518110612e1857612e17614ad1565b5b60200260200101511415612e2f5760019150612e42565b8080612e3a90614b00565b915050612dfb565b50809250505092915050565b600080600460009054906101000a900473ffffffffffffffffffffffffffffffffffffffff1673ffffffffffffffffffffffffffffffffffffffff16636a3f5dc586866040518363ffffffff1660e01b8152600401612eae929190614bb5565b60006040518083038186803b158015612ec657600080fd5b505afa158015612eda573d6000803e3d6000fd5b505050506040513d6000823e3d601f19601f82011682018060405250810190612f039190614a88565b90506000805b8251811015612f4c5784838281518110612f2657612f25614ad1565b5b60200260200101511415612f3957600191505b8080612f4490614b00565b915050612f09565b5080925050509392505050565b6000811415612f9d576040517f08c379a0000000000000000000000000000000000000000000000000000000008152600401612f949061540c565b60405180910390fd5b600460009054906101000a900473ffffffffffffffffffffffffffffffffffffffff1673ffffffffffffffffffffffffffffffffffffffff1663a2f77bcc826040518263ffffffff1660e01b8152600401612ff891906139ab565b60006040518083038186803b15801561301057600080fd5b505afa158015613024573d6000803e3d6000fd5b505050506040513d6000823e3d601f19601f8201168201806040525081019061304d9190614801565b6102c00151613091576040517f08c379a000000000000000000000000000000000000000000000000000000000815260040161308890615c65565b60405180910390fd5b50565b60006130d683836040518060400160405280601a81526020017f536166654d6174683a206469766973696f6e206279207a65726f00000000000081525061329c565b905092915050565b6000808314156130f15760009050613153565b600082846130ff9190615c85565b905082848261310e9190615d0e565b1461314e576040517f08c379a000000000000000000000000000000000000000000000000000000000815260040161314590615db1565b60405180910390fd5b809150505b92915050565b600061319b83836040518060400160405280601481526020017f7375627472616374696f6e206f766572666c6f770000000000000000000000008152506132ff565b905092915050565b816101c00151156131ff57816102e0015173ffffffffffffffffffffffffffffffffffffffff166108fc829081150290604051600060405180830381858888f193505050501580156131f9573d6000803e3d6000fd5b50613298565b816101e0015173ffffffffffffffffffffffffffffffffffffffff1663a9059cbb836102e00151836040518363ffffffff1660e01b81526004016132449291906159c7565b602060405180830381600087803b15801561325e57600080fd5b505af1158015613272573d6000803e3d6000fd5b505050506040513d601f19601f820116820180604052508101906132969190614959565b505b5050565b600080831182906132e3576040517f08c379a00000000000000000000000000000000000000000000000000000000081526004016132da9190615dd1565b60405180910390fd5b50600083856132f29190615d0e565b9050809150509392505050565b6000838311158290613347576040517f08c379a000000000000000000000000000000000000000000000000000000000815260040161333e9190615dd1565b60405180910390fd5b50600083856133569190615df3565b9050809150509392505050565b6000604051905090565b600080fd5b600080fd5b600073ffffffffffffffffffffffffffffffffffffffff82169050919050565b60006133a282613377565b9050919050565b6133b281613397565b81146133bd57600080fd5b50565b6000813590506133cf816133a9565b92915050565b6000602082840312156133eb576133ea61336d565b5b60006133f9848285016133c0565b91505092915050565b6000819050919050565b600061342761342261341d84613377565b613402565b613377565b9050919050565b60006134398261340c565b9050919050565b600061344b8261342e565b9050919050565b61345b81613440565b82525050565b60006020820190506134766000830184613452565b92915050565b600080fd5b600080fd5b6000601f19601f8301169050919050565b7f4e487b7100000000000000000000000000000000000000000000000000000000600052604160045260246000fd5b6134cf82613486565b810181811067ffffffffffffffff821117156134ee576134ed613497565b5b80604052505050565b6000613501613363565b905061350d82826134c6565b919050565b600067ffffffffffffffff82111561352d5761352c613497565b5b61353682613486565b9050602081019050919050565b82818337600083830152505050565b600061356561356084613512565b6134f7565b90508281526020810184848401111561358157613580613481565b5b61358c848285613543565b509392505050565b600082601f8301126135a9576135a861347c565b5b81356135b9848260208601613552565b91505092915050565b600080604083850312156135d9576135d861336d565b5b600083013567ffffffffffffffff8111156135f7576135f6613372565b5b61360385828601613594565b9250506020613614858286016133c0565b9150509250929050565b60006136298261342e565b9050919050565b6136398161361e565b82525050565b60006020820190506136546000830184613630565b92915050565b6000602082840312156136705761366f61336d565b5b600082013567ffffffffffffffff81111561368e5761368d613372565b5b61369a84828501613594565b91505092915050565b60008115159050919050565b6136b8816136a3565b82525050565b60006020820190506136d360008301846136af565b92915050565b6000819050919050565b6136ec816136d9565b81146136f757600080fd5b50565b600081359050613709816136e3565b92915050565b6000602082840312156137255761372461336d565b5b6000613733848285016136fa565b91505092915050565b600080604083850312156137535761375261336d565b5b6000613761858286016136fa565b9250506020613772858286016136fa565b9150509250929050565b600081519050919050565b600082825260208201905092915050565b6000819050602082019050919050565b6137b1816136d9565b82525050565b60006137c383836137a8565b60208301905092915050565b6000602082019050919050565b60006137e78261377c565b6137f18185613787565b93506137fc83613798565b8060005b8381101561382d57815161381488826137b7565b975061381f836137cf565b925050600181019050613800565b5085935050505092915050565b6000602082019050818103600083015261385481846137dc565b905092915050565b600061386782613377565b9050919050565b6138778161385c565b811461388257600080fd5b50565b6000813590506138948161386e565b92915050565b6000602082840312156138b0576138af61336d565b5b60006138be84828501613885565b91505092915050565b6138d081613397565b82525050565b60006020820190506138eb60008301846138c7565b92915050565b60006138fc8261342e565b9050919050565b61390c816138f1565b82525050565b60006020820190506139276000830184613903565b92915050565b6000806000606084860312156139465761394561336d565b5b600084013567ffffffffffffffff81111561396457613963613372565b5b61397086828701613594565b9350506020613981868287016136fa565b9250506040613992868287016136fa565b9150509250925092565b6139a5816136d9565b82525050565b60006020820190506139c0600083018461399c565b92915050565b60006139d18261385c565b9050919050565b6139e1816139c6565b81146139ec57600080fd5b50565b6000813590506139fe816139d8565b92915050565b600060208284031215613a1a57613a1961336d565b5b6000613a28848285016139ef565b91505092915050565b600080fd5b600080fd5b6000819050919050565b613a4e81613a3b565b8114613a5957600080fd5b50565b600081359050613a6b81613a45565b92915050565b600067ffffffffffffffff821115613a8c57613a8b613497565b5b602082029050602081019050919050565b600080fd5b6000613ab5613ab084613a71565b6134f7565b90508083825260208201905060208402830185811115613ad857613ad7613a9d565b5b835b81811015613b015780613aed88826136fa565b845260208401935050602081019050613ada565b5050509392505050565b600082601f830112613b2057613b1f61347c565b5b8135613b30848260208601613aa2565b91505092915050565b600067ffffffffffffffff821115613b5457613b53613497565b5b602082029050602081019050919050565b6000613b78613b7384613b39565b6134f7565b90508083825260208201905060208402830185811115613b9b57613b9a613a9d565b5b835b81811015613be257803567ffffffffffffffff811115613bc057613bbf61347c565b5b808601613bcd8982613594565b85526020850194505050602081019050613b9d565b5050509392505050565b600082601f830112613c0157613c0061347c565b5b8135613c11848260208601613b65565b91505092915050565b613c23816136a3565b8114613c2e57600080fd5b50565b600081359050613c4081613c1a565b92915050565b60006103008284031215613c5d57613c5c613a31565b5b613c686103006134f7565b90506000613c78848285016136fa565b6000830152506020613c8c848285016136fa565b602083015250604082013567ffffffffffffffff811115613cb057613caf613a36565b5b613cbc84828501613594565b6040830152506060613cd084828501613a5c565b6060830152506080613ce4848285016136fa565b60808301525060a082013567ffffffffffffffff811115613d0857613d07613a36565b5b613d1484828501613594565b60a08301525060c082013567ffffffffffffffff811115613d3857613d37613a36565b5b613d4484828501613594565b60c08301525060e082013567ffffffffffffffff811115613d6857613d67613a36565b5b613d7484828501613594565b60e083015250610100613d89848285016136fa565b61010083015250610120613d9f848285016136fa565b61012083015250610140613db5848285016136fa565b6101408301525061016082013567ffffffffffffffff811115613ddb57613dda613a36565b5b613de784828501613b0b565b6101608301525061018082013567ffffffffffffffff811115613e0d57613e0c613a36565b5b613e1984828501613594565b610180830152506101a082013567ffffffffffffffff811115613e3f57613e3e613a36565b5b613e4b84828501613bec565b6101a0830152506101c0613e6184828501613c31565b6101c0830152506101e0613e77848285016139ef565b6101e083015250610200613e8d848285016136fa565b61020083015250610220613ea3848285016136fa565b61022083015250610240613eb9848285016136fa565b61024083015250610260613ecf84828501613c31565b61026083015250610280613ee5848285016136fa565b610280830152506102a0613efb848285016136fa565b6102a0830152506102c0613f1184828501613c31565b6102c0830152506102e0613f2784828501613885565b6102e08301525092915050565b600060208284031215613f4a57613f4961336d565b5b600082013567ffffffffffffffff811115613f6857613f67613372565b5b613f7484828501613c46565b91505092915050565b613f868161385c565b82525050565b6000602082019050613fa16000830184613f7d565b92915050565b600080600060608486031215613fc057613fbf61336d565b5b6000613fce868287016136fa565b9350506020613fdf868287016136fa565b9250506040613ff0868287016136fa565b9150509250925092565b60006140058261385c565b9050919050565b61401581613ffa565b811461402057600080fd5b50565b6000813590506140328161400c565b92915050565b60006020828403121561404e5761404d61336d565b5b600061405c84828501614023565b91505092915050565b60006140708261385c565b9050919050565b61408081614065565b811461408b57600080fd5b50565b60008135905061409d81614077565b92915050565b6000602082840312156140b9576140b861336d565b5b60006140c78482850161408e565b91505092915050565b6000602082840312156140e6576140e561336d565b5b60006140f484828501613a5c565b91505092915050565b60006141088261385c565b9050919050565b614118816140fd565b811461412357600080fd5b50565b6000813590506141358161410f565b92915050565b6000602082840312156141515761415061336d565b5b600061415f84828501614126565b91505092915050565b60006141738261342e565b9050919050565b61418381614168565b82525050565b600060208201905061419e600083018461417a565b92915050565b60006141af8261342e565b9050919050565b6141bf816141a4565b82525050565b60006020820190506141da60008301846141b6565b92915050565b600082825260208201905092915050565b7f4f6e6c79204f776e657200000000000000000000000000000000000000000000600082015250565b6000614227600a836141e0565b9150614232826141f1565b602082019050919050565b600060208201905081810360008301526142568161421a565b9050919050565b600081519050919050565b600081905092915050565b60005b83811015614291578082015181840152602081019050614276565b838111156142a0576000848401525b50505050565b60006142b18261425d565b6142bb8185614268565b93506142cb818560208601614273565b80840191505092915050565b60006142e382846142a6565b915081905092915050565b6000815190506142fd816136e3565b92915050565b600061431661431184613512565b6134f7565b90508281526020810184848401111561433257614331613481565b5b61433d848285614273565b509392505050565b600082601f83011261435a5761435961347c565b5b815161436a848260208601614303565b91505092915050565b60008151905061438281613a45565b92915050565b600061439b61439684613a71565b6134f7565b905080838252602082019050602084028301858111156143be576143bd613a9d565b5b835b818110156143e757806143d388826142ee565b8452602084019350506020810190506143c0565b5050509392505050565b600082601f8301126144065761440561347c565b5b8151614416848260208601614388565b91505092915050565b600061443261442d84613b39565b6134f7565b9050808382526020820190506020840283018581111561445557614454613a9d565b5b835b8181101561449c57805167ffffffffffffffff81111561447a5761447961347c565b5b8086016144878982614345565b85526020850194505050602081019050614457565b5050509392505050565b600082601f8301126144bb576144ba61347c565b5b81516144cb84826020860161441f565b91505092915050565b6000815190506144e381613c1a565b92915050565b6000815190506144f8816139d8565b92915050565b60008151905061450d8161386e565b92915050565b6000610300828403121561452a57614529613a31565b5b6145356103006134f7565b90506000614545848285016142ee565b6000830152506020614559848285016142ee565b602083015250604082015167ffffffffffffffff81111561457d5761457c613a36565b5b61458984828501614345565b604083015250606061459d84828501614373565b60608301525060806145b1848285016142ee565b60808301525060a082015167ffffffffffffffff8111156145d5576145d4613a36565b5b6145e184828501614345565b60a08301525060c082015167ffffffffffffffff81111561460557614604613a36565b5b61461184828501614345565b60c08301525060e082015167ffffffffffffffff81111561463557614634613a36565b5b61464184828501614345565b60e083015250610100614656848285016142ee565b6101008301525061012061466c848285016142ee565b61012083015250610140614682848285016142ee565b6101408301525061016082015167ffffffffffffffff8111156146a8576146a7613a36565b5b6146b4848285016143f1565b6101608301525061018082015167ffffffffffffffff8111156146da576146d9613a36565b5b6146e684828501614345565b610180830152506101a082015167ffffffffffffffff81111561470c5761470b613a36565b5b614718848285016144a6565b6101a0830152506101c061472e848285016144d4565b6101c0830152506101e0614744848285016144e9565b6101e08301525061020061475a848285016142ee565b61020083015250610220614770848285016142ee565b61022083015250610240614786848285016142ee565b6102408301525061026061479c848285016144d4565b610260830152506102806147b2848285016142ee565b610280830152506102a06147c8848285016142ee565b6102a0830152506102c06147de848285016144d4565b6102c0830152506102e06147f4848285016144fe565b6102e08301525092915050565b6000602082840312156148175761481661336d565b5b600082015167ffffffffffffffff81111561483557614834613372565b5b61484184828501614513565b91505092915050565b7f486173207469636b657473000000000000000000000000000000000000000000600082015250565b6000614880600b836141e0565b915061488b8261484a565b602082019050919050565b600060208201905081810360008301526148af81614873565b9050919050565b7f496e73756666696369656e740000000000000000000000000000000000000000600082015250565b60006148ec600c836141e0565b91506148f7826148b6565b602082019050919050565b6000602082019050818103600083015261491b816148df565b9050919050565b60006060820190506149376000830186613f7d565b6149446020830185613f7d565b614951604083018461399c565b949350505050565b60006020828403121561496f5761496e61336d565b5b600061497d848285016144d4565b91505092915050565b600060608201905061499b600083018661399c565b6149a8602083018561399c565b6149b56040830184613f7d565b949350505050565b6149c681613a3b565b82525050565b60006060820190506149e1600083018661399c565b6149ee602083018561399c565b6149fb60408301846149bd565b949350505050565b7f4e487b7100000000000000000000000000000000000000000000000000000000600052601160045260246000fd5b6000614a3d826136d9565b9150614a48836136d9565b9250827fffffffffffffffffffffffffffffffffffffffffffffffffffffffffffffffff03821115614a7d57614a7c614a03565b5b828201905092915050565b600060208284031215614a9e57614a9d61336d565b5b600082015167ffffffffffffffff811115614abc57614abb613372565b5b614ac8848285016143f1565b91505092915050565b7f4e487b7100000000000000000000000000000000000000000000000000000000600052603260045260246000fd5b6000614b0b826136d9565b91507fffffffffffffffffffffffffffffffffffffffffffffffffffffffffffffffff821415614b3e57614b3d614a03565b5b600182019050919050565b7f4f6e6c79206f70657261746f7200000000000000000000000000000000000000600082015250565b6000614b7f600d836141e0565b9150614b8a82614b49565b602082019050919050565b60006020820190508181036000830152614bae81614b72565b9050919050565b6000604082019050614bca600083018561399c565b614bd7602083018461399c565b9392505050565b600067ffffffffffffffff821115614bf957614bf8613497565b5b602082029050602081019050919050565b6000614c1d614c1884614bde565b6134f7565b90508083825260208201905060208402830185811115614c4057614c3f613a9d565b5b835b81811015614c695780614c5588826144fe565b845260208401935050602081019050614c42565b5050509392505050565b600082601f830112614c8857614c8761347c565b5b8151614c98848260208601614c0a565b91505092915050565b600060208284031215614cb757614cb661336d565b5b600082015167ffffffffffffffff811115614cd557614cd4613372565b5b614ce184828501614c73565b91505092915050565b600067ffffffffffffffff821115614d0557614d04613497565b5b602082029050602081019050919050565b6000614d29614d2484614cea565b6134f7565b90508083825260208201905060208402830185811115614d4c57614d4b613a9d565b5b835b81811015614d755780614d618882614373565b845260208401935050602081019050614d4e565b5050509392505050565b600082601f830112614d9457614d9361347c565b5b8151614da4848260208601614d16565b91505092915050565b60006101408284031215614dc457614dc3613a31565b5b614dcf6101406134f7565b90506000614ddf848285016142ee565b600083015250602082015167ffffffffffffffff811115614e0357614e02613a36565b5b614e0f84828501614c73565b6020830152506040614e23848285016142ee565b6040830152506060614e37848285016144fe565b6060830152506080614e4b848285016142ee565b60808301525060a082015167ffffffffffffffff811115614e6f57614e6e613a36565b5b614e7b84828501614d7f565b60a08301525060c082015167ffffffffffffffff811115614e9f57614e9e613a36565b5b614eab84828501614d7f565b60c08301525060e082015167ffffffffffffffff811115614ecf57614ece613a36565b5b614edb84828501614d7f565b60e083015250610100614ef0848285016144d4565b61010083015250610120614f06848285016144d4565b6101208301525092915050565b600060208284031215614f2957614f2861336d565b5b600082015167ffffffffffffffff811115614f4757614f46613372565b5b614f5384828501614dad565b91505092915050565b60008060008060808587031215614f7657614f7561336d565b5b600085015167ffffffffffffffff811115614f9457614f93613372565b5b614fa087828801614d7f565b945050602085015167ffffffffffffffff811115614fc157614fc0613372565b5b614fcd87828801614d7f565b935050604085015167ffffffffffffffff811115614fee57614fed613372565b5b614ffa87828801614d7f565b925050606085015167ffffffffffffffff81111561501b5761501a613372565b5b61502787828801614c73565b91505092959194509250565b600081519050919050565b600082825260208201905092915050565b6000819050602082019050919050565b6150688161385c565b82525050565b600061507a838361505f565b60208301905092915050565b6000602082019050919050565b600061509e82615033565b6150a8818561503e565b93506150b38361504f565b8060005b838110156150e45781516150cb888261506e565b97506150d683615086565b9250506001810190506150b7565b5085935050505092915050565b600081519050919050565b600082825260208201905092915050565b6000819050602082019050919050565b61512681613a3b565b82525050565b6000615138838361511d565b60208301905092915050565b6000602082019050919050565b600061515c826150f1565b61516681856150fc565b93506151718361510d565b8060005b838110156151a2578151615189888261512c565b975061519483615144565b925050600181019050615175565b5085935050505092915050565b6151b8816136a3565b82525050565b6000610140830160008301516151d760008601826137a8565b50602083015184820360208601526151ef8282615093565b915050604083015161520460408601826137a8565b506060830151615217606086018261505f565b50608083015161522a60808601826137a8565b5060a083015184820360a08601526152428282615151565b91505060c083015184820360c086015261525c8282615151565b91505060e083015184820360e08601526152768282615151565b91505061010083015161528d6101008601826151af565b506101208301516152a26101208601826151af565b508091505092915050565b60006060820190506152c2600083018661399c565b6152cf602083018561399c565b81810360408301526152e181846151be565b9050949350505050565b60006152f68261425d565b61530081856141e0565b9350615310818560208601614273565b61531981613486565b840191505092915050565b6000604082019050818103600083015261533e81856152eb565b905061534d6020830184613f7d565b9392505050565b7f4f6e6c792061646d696e00000000000000000000000000000000000000000000600082015250565b600061538a600a836141e0565b915061539582615354565b602082019050919050565b600060208201905081810360008301526153b98161537d565b9050919050565b7f496e76616c696420696400000000000000000000000000000000000000000000600082015250565b60006153f6600a836141e0565b9150615401826153c0565b602082019050919050565b60006020820190508181036000830152615425816153e9565b9050919050565b7f45786973742067616d6500000000000000000000000000000000000000000000600082015250565b6000615462600a836141e0565b915061546d8261542c565b602082019050919050565b6000602082019050818103600083015261549181615455565b9050919050565b600082825260208201905092915050565b60006154b48261425d565b6154be8185615498565b93506154ce818560208601614273565b6154d781613486565b840191505092915050565b600082825260208201905092915050565b60006154fe8261377c565b61550881856154e2565b935061551383613798565b8060005b8381101561554457815161552b88826137b7565b9750615536836137cf565b925050600181019050615517565b5085935050505092915050565b600081519050919050565b600082825260208201905092915050565b6000819050602082019050919050565b600061558983836154a9565b905092915050565b6000602082019050919050565b60006155a982615551565b6155b3818561555c565b9350836020820285016155c58561556d565b8060005b8581101561560157848403895281516155e2858261557d565b94506155ed83615591565b925060208a019950506001810190506155c9565b50829750879550505050505092915050565b61561c81614168565b82525050565b60006103008301600083015161563b60008601826137a8565b50602083015161564e60208601826137a8565b506040830151848203604086015261566682826154a9565b915050606083015161567b606086018261511d565b50608083015161568e60808601826137a8565b5060a083015184820360a08601526156a682826154a9565b91505060c083015184820360c08601526156c082826154a9565b91505060e083015184820360e08601526156da82826154a9565b9150506101008301516156f16101008601826137a8565b506101208301516157066101208601826137a8565b5061014083015161571b6101408601826137a8565b5061016083015184820361016086015261573582826154f3565b91505061018083015184820361018086015261575182826154a9565b9150506101a08301518482036101a086015261576d828261559e565b9150506101c08301516157846101c08601826151af565b506101e08301516157996101e0860182615613565b506102008301516157ae6102008601826137a8565b506102208301516157c36102208601826137a8565b506102408301516157d86102408601826137a8565b506102608301516157ed6102608601826151af565b506102808301516158026102808601826137a8565b506102a08301516158176102a08601826137a8565b506102c083015161582c6102c08601826151af565b506102e08301516158416102e086018261505f565b508091505092915050565b6000604082019050818103600083015261586681856152eb565b9050818103602083015261587a8184615622565b90509392505050565b7f6e6f742062756666000000000000000000000000000000000000000000000000600082015250565b60006158b96008836141e0565b91506158c482615883565b602082019050919050565b600060208201905081810360008301526158e8816158ac565b9050919050565b7f4e6f7420696e20726f756e640000000000000000000000000000000000000000600082015250565b6000615925600c836141e0565b9150615930826158ef565b602082019050919050565b6000602082019050818103600083015261595481615918565b9050919050565b7f4861732062756666000000000000000000000000000000000000000000000000600082015250565b60006159916008836141e0565b915061599c8261595b565b602082019050919050565b600060208201905081810360008301526159c081615984565b9050919050565b60006040820190506159dc6000830185613f7d565b6159e9602083018461399c565b9392505050565b6000606082019050615a05600083018661399c565b615a12602083018561399c565b615a1f604083018461399c565b949350505050565b7f50726570617920666f7220676173000000000000000000000000000000000000600082015250565b6000615a5d600e836141e0565b9150615a6882615a27565b602082019050919050565b60006020820190508181036000830152615a8c81615a50565b9050919050565b6000606082019050615aa8600083018661399c565b615ab56020830185613f7d565b615ac2604083018461399c565b949350505050565b600060208284031215615ae057615adf61336d565b5b6000615aee848285016142ee565b91505092915050565b6000615b028261342e565b9050919050565b615b1281615af7565b82525050565b6000604082019050615b2d6000830185615b09565b615b3a602083018461399c565b9392505050565b7f4e6f7420737461727420726f756e640000000000000000000000000000000000600082015250565b6000615b77600f836141e0565b9150615b8282615b41565b602082019050919050565b60006020820190508181036000830152615ba681615b6a565b9050919050565b7f4f76657220726f756e6400000000000000000000000000000000000000000000600082015250565b6000615be3600a836141e0565b9150615bee82615bad565b602082019050919050565b60006020820190508181036000830152615c1281615bd6565b9050919050565b7f4e6f742065786973742067616d65000000000000000000000000000000000000600082015250565b6000615c4f600e836141e0565b9150615c5a82615c19565b602082019050919050565b60006020820190508181036000830152615c7e81615c42565b9050919050565b6000615c90826136d9565b9150615c9b836136d9565b9250817fffffffffffffffffffffffffffffffffffffffffffffffffffffffffffffffff0483118215151615615cd457615cd3614a03565b5b828202905092915050565b7f4e487b7100000000000000000000000000000000000000000000000000000000600052601260045260246000fd5b6000615d19826136d9565b9150615d24836136d9565b925082615d3457615d33615cdf565b5b828204905092915050565b7f536166654d6174683a206d756c7469706c69636174696f6e206f766572666c6f60008201527f7700000000000000000000000000000000000000000000000000000000000000602082015250565b6000615d9b6021836141e0565b9150615da682615d3f565b604082019050919050565b60006020820190508181036000830152615dca81615d8e565b9050919050565b60006020820190508181036000830152615deb81846152eb565b905092915050565b6000615dfe826136d9565b9150615e09836136d9565b925082821015615e1c57615e1b614a03565b5b82820390509291505056fea2646970667358221220f5ba17d61fda99651d9f93d0d616f2d71ba5480d50c57ef987c401174f22692d64736f6c63430008090033",
  "linkReferences": {},
  "deployedLinkReferences": {}
}