{
  "_format": "hh-sol-artifact-1",
  "contractName": "Game",
  "sourceName": "src/contracts/game/game.sol",
  "abi": [
    {
      "inputs": [
        {
          "internalType": "address payable",
          "name": "_operator",
          "type": "address"
        },
        {
          "internalType": "contract IAdminData",
          "name": "_adminData",
          "type": "address"
        },
        {
          "internalType": "contract IGameData",
          "name": "_gameData",
          "type": "address"
        },
        {
          "internalType": "contract IGameLogic",
          "name": "_gameLogic",
          "type": "address"
        },
        {
          "internalType": "contract IQuizToken",
          "name": "_buffToken",
          "type": "address"
        },
        {
          "internalType": "uint256",
          "name": "_buffValue",
          "type": "uint256"
        }
      ],
      "stateMutability": "nonpayable",
      "type": "constructor"
    },
    {
      "inputs": [
        {
          "internalType": "string",
          "name": "_appId",
          "type": "string"
        },
        {
          "internalType": "address payable",
          "name": "_newOperator",
          "type": "address"
        }
      ],
      "name": "addAppOperator",
      "outputs": [],
      "stateMutability": "nonpayable",
      "type": "function"
    },
    {
      "inputs": [],
      "name": "adminData",
      "outputs": [
        {
          "internalType": "contract IAdminData",
          "name": "",
          "type": "address"
        }
      ],
      "stateMutability": "view",
      "type": "function"
    },
    {
      "inputs": [],
      "name": "availableSize",
      "outputs": [
        {
          "internalType": "uint256",
          "name": "",
          "type": "uint256"
        }
      ],
      "stateMutability": "view",
      "type": "function"
    },
    {
      "inputs": [],
      "name": "buffToken",
      "outputs": [
        {
          "internalType": "contract IQuizToken",
          "name": "",
          "type": "address"
        }
      ],
      "stateMutability": "view",
      "type": "function"
    },
    {
      "inputs": [],
      "name": "buffValue",
      "outputs": [
        {
          "internalType": "uint256",
          "name": "",
          "type": "uint256"
        }
      ],
      "stateMutability": "view",
      "type": "function"
    },
    {
      "inputs": [
        {
          "internalType": "uint256",
          "name": "_gameId",
          "type": "uint256"
        },
        {
          "internalType": "uint256",
          "name": "_round",
          "type": "uint256"
        },
        {
          "internalType": "uint256",
          "name": "_buffId",
          "type": "uint256"
        }
      ],
      "name": "buyBuff",
      "outputs": [],
      "stateMutability": "nonpayable",
      "type": "function"
    },
    {
      "inputs": [
        {
          "internalType": "uint256",
          "name": "_gameId",
          "type": "uint256"
        },
        {
          "internalType": "uint256",
          "name": "_round",
          "type": "uint256"
        }
      ],
      "name": "buyTicket",
      "outputs": [],
      "stateMutability": "payable",
      "type": "function"
    },
    {
      "inputs": [
        {
          "internalType": "contract IAdminData",
          "name": "_newData",
          "type": "address"
        }
      ],
      "name": "changeAdminData",
      "outputs": [],
      "stateMutability": "nonpayable",
      "type": "function"
    },
    {
      "inputs": [
        {
          "internalType": "contract IQuizToken",
          "name": "_newToken",
          "type": "address"
        }
      ],
      "name": "changeBuffToken",
      "outputs": [],
      "stateMutability": "nonpayable",
      "type": "function"
    },
    {
      "inputs": [
        {
          "internalType": "uint256",
          "name": "_newValue",
          "type": "uint256"
        }
      ],
      "name": "changeBuffValue",
      "outputs": [],
      "stateMutability": "nonpayable",
      "type": "function"
    },
    {
      "inputs": [
        {
          "internalType": "contract IGameData",
          "name": "_newData",
          "type": "address"
        }
      ],
      "name": "changeGameData",
      "outputs": [],
      "stateMutability": "nonpayable",
      "type": "function"
    },
    {
      "inputs": [
        {
          "internalType": "address payable",
          "name": "_newOperator",
          "type": "address"
        }
      ],
      "name": "changeOperator",
      "outputs": [],
      "stateMutability": "nonpayable",
      "type": "function"
    },
    {
      "inputs": [
        {
          "components": [
            {
              "internalType": "uint256",
              "name": "id",
              "type": "uint256"
            },
            {
              "internalType": "uint256",
              "name": "category",
              "type": "uint256"
            },
            {
              "internalType": "string",
              "name": "appId",
              "type": "string"
            },
            {
              "internalType": "int256",
              "name": "groupId",
              "type": "int256"
            },
            {
              "internalType": "uint256",
              "name": "botType",
              "type": "uint256"
            },
            {
              "internalType": "string",
              "name": "title",
              "type": "string"
            },
            {
              "internalType": "string",
              "name": "introduction",
              "type": "string"
            },
            {
              "internalType": "string",
              "name": "story",
              "type": "string"
            },
            {
              "internalType": "uint256",
              "name": "eliminateProportion",
              "type": "uint256"
            },
            {
              "internalType": "uint256",
              "name": "awardProportion",
              "type": "uint256"
            },
            {
              "internalType": "uint256",
              "name": "winNum",
              "type": "uint256"
            },
            {
              "internalType": "uint256[]",
              "name": "buffIds",
              "type": "uint256[]"
            },
            {
              "internalType": "string",
              "name": "buffDesc",
              "type": "string"
            },
            {
              "internalType": "string[]",
              "name": "events",
              "type": "string[]"
            },
            {
              "internalType": "bool",
              "name": "ticketIsEth",
              "type": "bool"
            },
            {
              "internalType": "contract IERC20",
              "name": "ticketsToken",
              "type": "address"
            },
            {
              "internalType": "uint256",
              "name": "ticketAmount",
              "type": "uint256"
            },
            {
              "internalType": "uint256",
              "name": "effectStartTime",
              "type": "uint256"
            },
            {
              "internalType": "uint256",
              "name": "effectEndTime",
              "type": "uint256"
            },
            {
              "internalType": "bool",
              "name": "daily",
              "type": "bool"
            },
            {
              "internalType": "uint256",
              "name": "startH",
              "type": "uint256"
            },
            {
              "internalType": "uint256",
              "name": "startM",
              "type": "uint256"
            },
            {
              "internalType": "bool",
              "name": "exist",
              "type": "bool"
            },
            {
              "internalType": "address",
              "name": "creator",
              "type": "address"
            }
          ],
          "internalType": "struct IGameData.GameDetail",
          "name": "_game",
          "type": "tuple"
        }
      ],
      "name": "createGame",
      "outputs": [],
      "stateMutability": "nonpayable",
      "type": "function"
    },
    {
      "inputs": [
        {
          "internalType": "string",
          "name": "_appId",
          "type": "string"
        }
      ],
      "name": "delAppOperator",
      "outputs": [],
      "stateMutability": "nonpayable",
      "type": "function"
    },
    {
      "inputs": [
        {
          "internalType": "contract IERC20",
          "name": "",
          "type": "address"
        }
      ],
      "name": "erc20Exist",
      "outputs": [
        {
          "internalType": "bool",
          "name": "",
          "type": "bool"
        }
      ],
      "stateMutability": "view",
      "type": "function"
    },
    {
      "inputs": [
        {
          "internalType": "uint256",
          "name": "",
          "type": "uint256"
        }
      ],
      "name": "erc20List",
      "outputs": [
        {
          "internalType": "contract IERC20",
          "name": "",
          "type": "address"
        }
      ],
      "stateMutability": "view",
      "type": "function"
    },
    {
      "inputs": [],
      "name": "gameData",
      "outputs": [
        {
          "internalType": "contract IGameData",
          "name": "",
          "type": "address"
        }
      ],
      "stateMutability": "view",
      "type": "function"
    },
    {
      "inputs": [],
      "name": "gameLogic",
      "outputs": [
        {
          "internalType": "contract IGameLogic",
          "name": "",
          "type": "address"
        }
      ],
      "stateMutability": "view",
      "type": "function"
    },
    {
      "inputs": [
        {
          "internalType": "string",
          "name": "_appId",
          "type": "string"
        },
        {
          "internalType": "uint256",
          "name": "_gameId",
          "type": "uint256"
        },
        {
          "internalType": "uint256",
          "name": "_round",
          "type": "uint256"
        }
      ],
      "name": "gameRoundOver",
      "outputs": [],
      "stateMutability": "nonpayable",
      "type": "function"
    },
    {
      "inputs": [],
      "name": "getAvailableGameIds",
      "outputs": [
        {
          "internalType": "uint256[]",
          "name": "",
          "type": "uint256[]"
        }
      ],
      "stateMutability": "view",
      "type": "function"
    },
    {
      "inputs": [
        {
          "internalType": "string",
          "name": "_appId",
          "type": "string"
        }
      ],
      "name": "isOperator",
      "outputs": [
        {
          "internalType": "bool",
          "name": "",
          "type": "bool"
        }
      ],
      "stateMutability": "view",
      "type": "function"
    },
    {
      "inputs": [],
      "name": "operator",
      "outputs": [
        {
          "internalType": "address payable",
          "name": "",
          "type": "address"
        }
      ],
      "stateMutability": "view",
      "type": "function"
    },
    {
      "inputs": [],
      "name": "owner",
      "outputs": [
        {
          "internalType": "address",
          "name": "",
          "type": "address"
        }
      ],
      "stateMutability": "view",
      "type": "function"
    },
    {
      "inputs": [
        {
          "internalType": "uint256",
          "name": "_newSize",
          "type": "uint256"
        }
      ],
      "name": "setAvailableSize",
      "outputs": [],
      "stateMutability": "nonpayable",
      "type": "function"
    },
    {
      "inputs": [
        {
          "internalType": "string",
          "name": "_appId",
          "type": "string"
        },
        {
          "internalType": "uint256",
          "name": "_gameId",
          "type": "uint256"
        },
        {
          "internalType": "uint256",
          "name": "_launchTime",
          "type": "uint256"
        }
      ],
      "name": "startGame",
      "outputs": [],
      "stateMutability": "payable",
      "type": "function"
    },
    {
      "inputs": [
        {
          "internalType": "address payable",
          "name": "_to",
          "type": "address"
        }
      ],
      "name": "transferAsset",
      "outputs": [],
      "stateMutability": "nonpayable",
      "type": "function"
    },
    {
      "inputs": [
        {
          "internalType": "address",
          "name": "_newOwner",
          "type": "address"
        }
      ],
      "name": "transferOwner",
      "outputs": [],
      "stateMutability": "nonpayable",
      "type": "function"
    }
  ],
  "bytecode": "0x60806040526064600b553480156200001657600080fd5b5060405162005f4538038062005f4583398181016040528101906200003c9190620003a1565b336000806101000a81548173ffffffffffffffffffffffffffffffffffffffff021916908373ffffffffffffffffffffffffffffffffffffffff16021790555085600160006101000a81548173ffffffffffffffffffffffffffffffffffffffff021916908373ffffffffffffffffffffffffffffffffffffffff16021790555084600360006101000a81548173ffffffffffffffffffffffffffffffffffffffff021916908373ffffffffffffffffffffffffffffffffffffffff16021790555083600460006101000a81548173ffffffffffffffffffffffffffffffffffffffff021916908373ffffffffffffffffffffffffffffffffffffffff16021790555082600560006101000a81548173ffffffffffffffffffffffffffffffffffffffff021916908373ffffffffffffffffffffffffffffffffffffffff16021790555081600660006101000a81548173ffffffffffffffffffffffffffffffffffffffff021916908373ffffffffffffffffffffffffffffffffffffffff160217905550806007819055505050505050506200043d565b600080fd5b600073ffffffffffffffffffffffffffffffffffffffff82169050919050565b60006200020682620001d9565b9050919050565b6200021881620001f9565b81146200022457600080fd5b50565b60008151905062000238816200020d565b92915050565b60006200024b82620001d9565b9050919050565b60006200025f826200023e565b9050919050565b620002718162000252565b81146200027d57600080fd5b50565b600081519050620002918162000266565b92915050565b6000620002a4826200023e565b9050919050565b620002b68162000297565b8114620002c257600080fd5b50565b600081519050620002d681620002ab565b92915050565b6000620002e9826200023e565b9050919050565b620002fb81620002dc565b81146200030757600080fd5b50565b6000815190506200031b81620002f0565b92915050565b60006200032e826200023e565b9050919050565b620003408162000321565b81146200034c57600080fd5b50565b600081519050620003608162000335565b92915050565b6000819050919050565b6200037b8162000366565b81146200038757600080fd5b50565b6000815190506200039b8162000370565b92915050565b60008060008060008060c08789031215620003c157620003c0620001d4565b5b6000620003d189828a0162000227565b9650506020620003e489828a0162000280565b9550506040620003f789828a01620002c5565b94505060606200040a89828a016200030a565b93505060806200041d89828a016200034f565b92505060a06200043089828a016200038a565b9150509295509295509295565b615af8806200044d6000396000f3fe6080604052600436106101ac5760003560e01c80637d878731116100ec578063b7579b501161008a578063ce6e98f211610064578063ce6e98f21461057e578063e606c9b8146105a7578063e86098f5146105d0578063fa24f7431461060d576101ac565b8063b7579b5014610503578063bb3f09111461052c578063c7d7b66014610555576101ac565b80638553ee90116100c65780638553ee901461046a5780638da5cb5b14610493578063b05c3f67146104be578063b2888e49146104e7576101ac565b80637d878731146103d75780637e3dfe5c14610402578063806908631461043f576101ac565b806327a343b3116101595780634fb2e45d116101335780634fb2e45d1461032f578063570ca735146103585780635a2a7923146103835780637742b301146103ae576101ac565b806327a343b3146102bf578063298ec208146102e857806331e1bf3814610304576101ac565b8063134087a21161018a578063134087a21461022e5780631f041bd1146102595780632483eee514610296576101ac565b806306394c9b146101b157806306d2ae8e146101da5780630bd0997914610205575b600080fd5b3480156101bd57600080fd5b506101d860048036038101906101d3919061309d565b610638565b005b3480156101e657600080fd5b506101ef61070a565b6040516101fc9190613129565b60405180910390f35b34801561021157600080fd5b5061022c6004803603810190610227919061328a565b610730565b005b34801561023a57600080fd5b5061024361081f565b6040516102509190613307565b60405180910390f35b34801561026557600080fd5b50610280600480360381019061027b9190613322565b610845565b60405161028d9190613386565b60405180910390f35b3480156102a257600080fd5b506102bd60048036038101906102b891906133d7565b610913565b005b3480156102cb57600080fd5b506102e660048036038101906102e191906133d7565b6109ab565b005b61030260048036038101906102fd9190613404565b610a43565b005b34801561031057600080fd5b50610319610dd7565b6040516103269190613502565b60405180910390f35b34801561033b57600080fd5b5061035660048036038101906103519190613562565b6110b4565b005b34801561036457600080fd5b5061036d611185565b60405161037a919061359e565b60405180910390f35b34801561038f57600080fd5b506103986111ab565b6040516103a591906135da565b60405180910390f35b3480156103ba57600080fd5b506103d560048036038101906103d091906135f5565b6111d1565b005b3480156103e357600080fd5b506103ec611543565b6040516103f99190613673565b60405180910390f35b34801561040e57600080fd5b50610429600480360381019061042491906136cc565b611549565b6040516104369190613386565b60405180910390f35b34801561044b57600080fd5b50610454611569565b6040516104619190613673565b60405180910390f35b34801561047657600080fd5b50610491600480360381019061048c9190613bfc565b61156f565b005b34801561049f57600080fd5b506104a861189c565b6040516104b59190613c54565b60405180910390f35b3480156104ca57600080fd5b506104e560048036038101906104e09190613c6f565b6118c0565b005b61050160048036038101906104fc91906135f5565b611b74565b005b34801561050f57600080fd5b5061052a60048036038101906105259190613d00565b611d3c565b005b34801561053857600080fd5b50610553600480360381019061054e9190613322565b611e0e565b005b34801561056157600080fd5b5061057c6004803603810190610577919061309d565b611efd565b005b34801561058a57600080fd5b506105a560048036038101906105a09190613d6b565b6121a5565b005b3480156105b357600080fd5b506105ce60048036038101906105c99190613dd6565b612277565b005b3480156105dc57600080fd5b506105f760048036038101906105f291906133d7565b612349565b6040516106049190613e24565b60405180910390f35b34801561061957600080fd5b50610622612388565b60405161062f9190613e60565b60405180910390f35b60008054906101000a900473ffffffffffffffffffffffffffffffffffffffff1673ffffffffffffffffffffffffffffffffffffffff163373ffffffffffffffffffffffffffffffffffffffff16146106c6576040517f08c379a00000000000000000000000000000000000000000000000000000000081526004016106bd90613ed8565b60405180910390fd5b80600160006101000a81548173ffffffffffffffffffffffffffffffffffffffff021916908373ffffffffffffffffffffffffffffffffffffffff16021790555050565b600360009054906101000a900473ffffffffffffffffffffffffffffffffffffffff1681565b60008054906101000a900473ffffffffffffffffffffffffffffffffffffffff1673ffffffffffffffffffffffffffffffffffffffff163373ffffffffffffffffffffffffffffffffffffffff16146107be576040517f08c379a00000000000000000000000000000000000000000000000000000000081526004016107b590613ed8565b60405180910390fd5b806002836040516107cf9190613f72565b908152602001604051809103902060006101000a81548173ffffffffffffffffffffffffffffffffffffffff021916908373ffffffffffffffffffffffffffffffffffffffff1602179055505050565b600560009054906101000a900473ffffffffffffffffffffffffffffffffffffffff1681565b60003373ffffffffffffffffffffffffffffffffffffffff16600160009054906101000a900473ffffffffffffffffffffffffffffffffffffffff1673ffffffffffffffffffffffffffffffffffffffff16148061090c57503373ffffffffffffffffffffffffffffffffffffffff166002836040516108c59190613f72565b908152602001604051809103902060009054906101000a900473ffffffffffffffffffffffffffffffffffffffff1673ffffffffffffffffffffffffffffffffffffffff16145b9050919050565b60008054906101000a900473ffffffffffffffffffffffffffffffffffffffff1673ffffffffffffffffffffffffffffffffffffffff163373ffffffffffffffffffffffffffffffffffffffff16146109a1576040517f08c379a000000000000000000000000000000000000000000000000000000000815260040161099890613ed8565b60405180910390fd5b8060078190555050565b60008054906101000a900473ffffffffffffffffffffffffffffffffffffffff1673ffffffffffffffffffffffffffffffffffffffff163373ffffffffffffffffffffffffffffffffffffffff1614610a39576040517f08c379a0000000000000000000000000000000000000000000000000000000008152600401610a3090613ed8565b60405180910390fd5b80600b8190555050565b610a4d82826123ae565b610a5782826124a8565b6000600460009054906101000a900473ffffffffffffffffffffffffffffffffffffffff1673ffffffffffffffffffffffffffffffffffffffff1663a2f77bcc846040518263ffffffff1660e01b8152600401610ab49190613673565b60006040518083038186803b158015610acc57600080fd5b505afa158015610ae0573d6000803e3d6000fd5b505050506040513d6000823e3d601f19601f82011682018060405250810190610b09919061449c565b90506000610b188484336125a3565b5090508015610b5c576040517f08c379a0000000000000000000000000000000000000000000000000000000008152600401610b5390614531565b60405180910390fd5b816101c0015115610bb457816102000151341015610baf576040517f08c379a0000000000000000000000000000000000000000000000000000000008152600401610ba69061459d565b60405180910390fd5b610c4f565b816101e0015173ffffffffffffffffffffffffffffffffffffffff166323b872dd33308561020001516040518463ffffffff1660e01b8152600401610bfb939291906145bd565b602060405180830381600087803b158015610c1557600080fd5b505af1158015610c29573d6000803e3d6000fd5b505050506040513d601f19601f82011682018060405250810190610c4d91906145f4565b505b600460009054906101000a900473ffffffffffffffffffffffffffffffffffffffff1673ffffffffffffffffffffffffffffffffffffffff1663ffe41ad38585336040518463ffffffff1660e01b8152600401610cae93929190614621565b600060405180830381600087803b158015610cc857600080fd5b505af1158015610cdc573d6000803e3d6000fd5b50505050600560009054906101000a900473ffffffffffffffffffffffffffffffffffffffff1673ffffffffffffffffffffffffffffffffffffffff1663a71a0c078585600a60008981526020019081526020016000206000888152602001908152602001600020546040518463ffffffff1660e01b8152600401610d6393929190614667565b600060405180830381600087803b158015610d7d57600080fd5b505af1158015610d91573d6000803e3d6000fd5b505050506001600a600086815260200190815260200160002060008581526020019081526020016000206000828254610dca91906146cd565b9250508190555050505050565b60606000600b5467ffffffffffffffff811115610df757610df661315f565b5b604051908082528060200260200182016040528015610e255781602001602082028036833780820191505090505b5090506000805b600460009054906101000a900473ffffffffffffffffffffffffffffffffffffffff1673ffffffffffffffffffffffffffffffffffffffff16639f668bba6040518163ffffffff1660e01b815260040160006040518083038186803b158015610e9457600080fd5b505afa158015610ea8573d6000803e3d6000fd5b505050506040513d6000823e3d601f19601f82011682018060405250810190610ed19190614723565b518110156110ab5760648210610ee6576110ab565b6000600460009054906101000a900473ffffffffffffffffffffffffffffffffffffffff1673ffffffffffffffffffffffffffffffffffffffff1663a2f77bcc600460009054906101000a900473ffffffffffffffffffffffffffffffffffffffff1673ffffffffffffffffffffffffffffffffffffffff16639f668bba6040518163ffffffff1660e01b815260040160006040518083038186803b158015610f8e57600080fd5b505afa158015610fa2573d6000803e3d6000fd5b505050506040513d6000823e3d601f19601f82011682018060405250810190610fcb9190614723565b8481518110610fdd57610fdc61476c565b5b60200260200101516040518263ffffffff1660e01b81526004016110019190613673565b60006040518083038186803b15801561101957600080fd5b505afa15801561102d573d6000803e3d6000fd5b505050506040513d6000823e3d601f19601f82011682018060405250810190611056919061449c565b9050428161024001511061109757828061106f9061479b565b935050806000015184848151811061108a5761108961476c565b5b6020026020010181815250505b5080806110a39061479b565b915050610e2c565b50819250505090565b60008054906101000a900473ffffffffffffffffffffffffffffffffffffffff1673ffffffffffffffffffffffffffffffffffffffff163373ffffffffffffffffffffffffffffffffffffffff1614611142576040517f08c379a000000000000000000000000000000000000000000000000000000000815260040161113990613ed8565b60405180910390fd5b806000806101000a81548173ffffffffffffffffffffffffffffffffffffffff021916908373ffffffffffffffffffffffffffffffffffffffff16021790555050565b600160009054906101000a900473ffffffffffffffffffffffffffffffffffffffff1681565b600660009054906101000a900473ffffffffffffffffffffffffffffffffffffffff1681565b6111da83610845565b611219576040517f08c379a000000000000000000000000000000000000000000000000000000000815260040161121090614830565b60405180910390fd5b61122382826123ae565b61122d82826124a8565b6000600460009054906101000a900473ffffffffffffffffffffffffffffffffffffffff1673ffffffffffffffffffffffffffffffffffffffff16630d2dce2284846040518363ffffffff1660e01b815260040161128c929190614850565b60006040518083038186803b1580156112a457600080fd5b505afa1580156112b8573d6000803e3d6000fd5b505050506040513d6000823e3d601f19601f820116820180604052508101906112e1919061493c565b90506000600460009054906101000a900473ffffffffffffffffffffffffffffffffffffffff1673ffffffffffffffffffffffffffffffffffffffff166370c1b1d785856040518363ffffffff1660e01b8152600401611342929190614850565b60006040518083038186803b15801561135a57600080fd5b505afa15801561136e573d6000803e3d6000fd5b505050506040513d6000823e3d601f19601f820116820180604052508101906113979190614bae565b9050600080600080600560009054906101000a900473ffffffffffffffffffffffffffffffffffffffff1673ffffffffffffffffffffffffffffffffffffffff1663532af7d289896040518363ffffffff1660e01b81526004016113fc929190614850565b600060405180830381600087803b15801561141657600080fd5b505af115801561142a573d6000803e3d6000fd5b505050506040513d6000823e3d601f19601f820116820180604052508101906114539190614bf7565b93509350935093508085602001819052508551856040018181525050838560a00181905250828560c00181905250818560e00181905250600185610100019015159081151581525050600460009054906101000a900473ffffffffffffffffffffffffffffffffffffffff1673ffffffffffffffffffffffffffffffffffffffff1663ea7a48da8989886040518463ffffffff1660e01b81526004016114fb93929190614f48565b600060405180830381600087803b15801561151557600080fd5b505af1158015611529573d6000803e3d6000fd5b505050506115388882896126df565b505050505050505050565b600b5481565b60096020528060005260406000206000915054906101000a900460ff1681565b60075481565b8060400151600360009054906101000a900473ffffffffffffffffffffffffffffffffffffffff1673ffffffffffffffffffffffffffffffffffffffff1663b796e2b082336040518363ffffffff1660e01b81526004016115d1929190614fbf565b60206040518083038186803b1580156115e957600080fd5b505afa1580156115fd573d6000803e3d6000fd5b505050506040513d601f19601f8201168201806040525081019061162191906145f4565b80611631575061163081610845565b5b611670576040517f08c379a00000000000000000000000000000000000000000000000000000000081526004016116679061503b565b60405180910390fd5b6000826000015114156116b8576040517f08c379a00000000000000000000000000000000000000000000000000000000081526004016116af906150a7565b60405180910390fd5b6000600460009054906101000a900473ffffffffffffffffffffffffffffffffffffffff1673ffffffffffffffffffffffffffffffffffffffff1663a2f77bcc84600001516040518263ffffffff1660e01b81526004016117199190613673565b60006040518083038186803b15801561173157600080fd5b505afa158015611745573d6000803e3d6000fd5b505050506040513d6000823e3d601f19601f8201168201806040525081019061176e919061449c565b9050806102c00151156117b6576040517f08c379a00000000000000000000000000000000000000000000000000000000081526004016117ad90615113565b60405180910390fd5b8290506001816102c001901515908115158152505033816102e0019073ffffffffffffffffffffffffffffffffffffffff16908173ffffffffffffffffffffffffffffffffffffffff1681525050600460009054906101000a900473ffffffffffffffffffffffffffffffffffffffff1673ffffffffffffffffffffffffffffffffffffffff1663dcdc38258460400151836040518363ffffffff1660e01b81526004016118659291906154e7565b600060405180830381600087803b15801561187f57600080fd5b505af1158015611893573d6000803e3d6000fd5b50505050505050565b60008054906101000a900473ffffffffffffffffffffffffffffffffffffffff1681565b6118ca83836124a8565b6118d483836123ae565b6118de8382612a05565b61191d576040517f08c379a00000000000000000000000000000000000000000000000000000000081526004016119149061556a565b60405180910390fd5b60008061192b8585336125a3565b915091508161196f576040517f08c379a0000000000000000000000000000000000000000000000000000000008152600401611966906155d6565b60405180910390fd5b61197a858583612b16565b156119ba576040517f08c379a00000000000000000000000000000000000000000000000000000000081526004016119b190615642565b60405180910390fd5b600660009054906101000a900473ffffffffffffffffffffffffffffffffffffffff1673ffffffffffffffffffffffffffffffffffffffff16639dc29fac336007546040518363ffffffff1660e01b8152600401611a19929190615662565b600060405180830381600087803b158015611a3357600080fd5b505af1158015611a47573d6000803e3d6000fd5b50505050600460009054906101000a900473ffffffffffffffffffffffffffffffffffffffff1673ffffffffffffffffffffffffffffffffffffffff166342f2a5e38686846040518463ffffffff1660e01b8152600401611aaa9392919061568b565b600060405180830381600087803b158015611ac457600080fd5b505af1158015611ad8573d6000803e3d6000fd5b50505050600560009054906101000a900473ffffffffffffffffffffffffffffffffffffffff1673ffffffffffffffffffffffffffffffffffffffff1663d8602ed18686846040518463ffffffff1660e01b8152600401611b3b9392919061568b565b600060405180830381600087803b158015611b5557600080fd5b505af1158015611b69573d6000803e3d6000fd5b505050505050505050565b611b7d82612c21565b60003411611bc0576040517f08c379a0000000000000000000000000000000000000000000000000000000008152600401611bb79061570e565b60405180910390fd5b6000600284604051611bd29190613f72565b908152602001604051809103902060009054906101000a900473ffffffffffffffffffffffffffffffffffffffff169050600073ffffffffffffffffffffffffffffffffffffffff168173ffffffffffffffffffffffffffffffffffffffff161415611c5e57600160009054906101000a900473ffffffffffffffffffffffffffffffffffffffff1690505b8073ffffffffffffffffffffffffffffffffffffffff166108fc349081150290604051600060405180830381858888f19350505050158015611ca4573d6000803e3d6000fd5b50600460009054906101000a900473ffffffffffffffffffffffffffffffffffffffff1673ffffffffffffffffffffffffffffffffffffffff166357e40a648433856040518463ffffffff1660e01b8152600401611d049392919061572e565b600060405180830381600087803b158015611d1e57600080fd5b505af1158015611d32573d6000803e3d6000fd5b5050505050505050565b60008054906101000a900473ffffffffffffffffffffffffffffffffffffffff1673ffffffffffffffffffffffffffffffffffffffff163373ffffffffffffffffffffffffffffffffffffffff1614611dca576040517f08c379a0000000000000000000000000000000000000000000000000000000008152600401611dc190613ed8565b60405180910390fd5b80600660006101000a81548173ffffffffffffffffffffffffffffffffffffffff021916908373ffffffffffffffffffffffffffffffffffffffff16021790555050565b60008054906101000a900473ffffffffffffffffffffffffffffffffffffffff1673ffffffffffffffffffffffffffffffffffffffff163373ffffffffffffffffffffffffffffffffffffffff1614611e9c576040517f08c379a0000000000000000000000000000000000000000000000000000000008152600401611e9390613ed8565b60405180910390fd5b6000600282604051611eae9190613f72565b908152602001604051809103902060006101000a81548173ffffffffffffffffffffffffffffffffffffffff021916908373ffffffffffffffffffffffffffffffffffffffff16021790555050565b60008054906101000a900473ffffffffffffffffffffffffffffffffffffffff1673ffffffffffffffffffffffffffffffffffffffff163373ffffffffffffffffffffffffffffffffffffffff1614611f8b576040517f08c379a0000000000000000000000000000000000000000000000000000000008152600401611f8290613ed8565b60405180910390fd5b6000471115611fdc578073ffffffffffffffffffffffffffffffffffffffff166108fc479081150290604051600060405180830381858888f19350505050158015611fda573d6000803e3d6000fd5b505b60005b6008805490508110156121a1576000600882815481106120025761200161476c565b5b9060005260206000200160009054906101000a900473ffffffffffffffffffffffffffffffffffffffff1673ffffffffffffffffffffffffffffffffffffffff166370a08231306040518263ffffffff1660e01b81526004016120659190613c54565b60206040518083038186803b15801561207d57600080fd5b505afa158015612091573d6000803e3d6000fd5b505050506040513d601f19601f820116820180604052508101906120b59190615765565b9050600081111561218d57600882815481106120d4576120d361476c565b5b9060005260206000200160009054906101000a900473ffffffffffffffffffffffffffffffffffffffff1673ffffffffffffffffffffffffffffffffffffffff1663a9059cbb84836040518363ffffffff1660e01b81526004016121399291906157b3565b602060405180830381600087803b15801561215357600080fd5b505af1158015612167573d6000803e3d6000fd5b505050506040513d601f19601f8201168201806040525081019061218b91906145f4565b505b5080806121999061479b565b915050611fdf565b5050565b60008054906101000a900473ffffffffffffffffffffffffffffffffffffffff1673ffffffffffffffffffffffffffffffffffffffff163373ffffffffffffffffffffffffffffffffffffffff1614612233576040517f08c379a000000000000000000000000000000000000000000000000000000000815260040161222a90613ed8565b60405180910390fd5b80600360006101000a81548173ffffffffffffffffffffffffffffffffffffffff021916908373ffffffffffffffffffffffffffffffffffffffff16021790555050565b60008054906101000a900473ffffffffffffffffffffffffffffffffffffffff1673ffffffffffffffffffffffffffffffffffffffff163373ffffffffffffffffffffffffffffffffffffffff1614612305576040517f08c379a00000000000000000000000000000000000000000000000000000000081526004016122fc90613ed8565b60405180910390fd5b80600460006101000a81548173ffffffffffffffffffffffffffffffffffffffff021916908373ffffffffffffffffffffffffffffffffffffffff16021790555050565b6008818154811061235957600080fd5b906000526020600020016000915054906101000a900473ffffffffffffffffffffffffffffffffffffffff1681565b600460009054906101000a900473ffffffffffffffffffffffffffffffffffffffff1681565b600460009054906101000a900473ffffffffffffffffffffffffffffffffffffffff1673ffffffffffffffffffffffffffffffffffffffff166370c1b1d783836040518363ffffffff1660e01b815260040161240b929190614850565b60006040518083038186803b15801561242357600080fd5b505afa158015612437573d6000803e3d6000fd5b505050506040513d6000823e3d601f19601f820116820180604052508101906124609190614bae565b61012001516124a4576040517f08c379a000000000000000000000000000000000000000000000000000000000815260040161249b90615828565b60405180910390fd5b5050565b600460009054906101000a900473ffffffffffffffffffffffffffffffffffffffff1673ffffffffffffffffffffffffffffffffffffffff166370c1b1d783836040518363ffffffff1660e01b8152600401612505929190614850565b60006040518083038186803b15801561251d57600080fd5b505afa158015612531573d6000803e3d6000fd5b505050506040513d6000823e3d601f19601f8201168201806040525081019061255a9190614bae565b61010001511561259f576040517f08c379a000000000000000000000000000000000000000000000000000000000815260040161259690615894565b60405180910390fd5b5050565b6000806000600460009054906101000a900473ffffffffffffffffffffffffffffffffffffffff1673ffffffffffffffffffffffffffffffffffffffff16630d2dce2287876040518363ffffffff1660e01b8152600401612605929190614850565b60006040518083038186803b15801561261d57600080fd5b505afa158015612631573d6000803e3d6000fd5b505050506040513d6000823e3d601f19601f8201168201806040525081019061265a919061493c565b905060005b81518110156126d5578473ffffffffffffffffffffffffffffffffffffffff168282815181106126925761269161476c565b5b602002602001015173ffffffffffffffffffffffffffffffffffffffff1614156126c257600193508092506126d5565b80806126cd9061479b565b91505061265f565b5050935093915050565b6000825114156126ee57612a00565b6000600460009054906101000a900473ffffffffffffffffffffffffffffffffffffffff1673ffffffffffffffffffffffffffffffffffffffff1663a2f77bcc856040518263ffffffff1660e01b815260040161274b9190613673565b60006040518083038186803b15801561276357600080fd5b505afa158015612777573d6000803e3d6000fd5b505050506040513d6000823e3d601f19601f820116820180604052508101906127a0919061449c565b90506000600460009054906101000a900473ffffffffffffffffffffffffffffffffffffffff1673ffffffffffffffffffffffffffffffffffffffff1663751938af86856040518363ffffffff1660e01b8152600401612801929190614850565b60206040518083038186803b15801561281957600080fd5b505afa15801561282d573d6000803e3d6000fd5b505050506040513d601f19601f820116820180604052508101906128519190615765565b90506000612880836101200151612872606485612d5c90919063ffffffff16565b612da690919063ffffffff16565b905060006128978284612e2190919063ffffffff16565b905060006128af875184612d5c90919063ffffffff16565b905060005b87518110156129ef57856101c001511561292e578781815181106128db576128da61476c565b5b602002602001015173ffffffffffffffffffffffffffffffffffffffff166108fc839081150290604051600060405180830381858888f19350505050158015612928573d6000803e3d6000fd5b506129dc565b856101e0015173ffffffffffffffffffffffffffffffffffffffff1663a9059cbb8983815181106129625761296161476c565b5b6020026020010151846040518363ffffffff1660e01b8152600401612988929190615662565b602060405180830381600087803b1580156129a257600080fd5b505af11580156129b6573d6000803e3d6000fd5b505050506040513d601f19601f820116820180604052508101906129da91906145f4565b505b80806129e79061479b565b9150506128b4565b506129fa8583612e6b565b50505050505b505050565b600080600460009054906101000a900473ffffffffffffffffffffffffffffffffffffffff1673ffffffffffffffffffffffffffffffffffffffff1663a2f77bcc856040518263ffffffff1660e01b8152600401612a639190613673565b60006040518083038186803b158015612a7b57600080fd5b505afa158015612a8f573d6000803e3d6000fd5b505050506040513d6000823e3d601f19601f82011682018060405250810190612ab8919061449c565b610160015190506000805b8251811015612b0a5784838281518110612ae057612adf61476c565b5b60200260200101511415612af75760019150612b0a565b8080612b029061479b565b915050612ac3565b50809250505092915050565b600080600460009054906101000a900473ffffffffffffffffffffffffffffffffffffffff1673ffffffffffffffffffffffffffffffffffffffff16636a3f5dc586866040518363ffffffff1660e01b8152600401612b76929190614850565b60006040518083038186803b158015612b8e57600080fd5b505afa158015612ba2573d6000803e3d6000fd5b505050506040513d6000823e3d601f19601f82011682018060405250810190612bcb9190614723565b90506000805b8251811015612c145784838281518110612bee57612bed61476c565b5b60200260200101511415612c0157600191505b8080612c0c9061479b565b915050612bd1565b5080925050509392505050565b6000811415612c65576040517f08c379a0000000000000000000000000000000000000000000000000000000008152600401612c5c906150a7565b60405180910390fd5b600460009054906101000a900473ffffffffffffffffffffffffffffffffffffffff1673ffffffffffffffffffffffffffffffffffffffff1663a2f77bcc826040518263ffffffff1660e01b8152600401612cc09190613673565b60006040518083038186803b158015612cd857600080fd5b505afa158015612cec573d6000803e3d6000fd5b505050506040513d6000823e3d601f19601f82011682018060405250810190612d15919061449c565b6102c00151612d59576040517f08c379a0000000000000000000000000000000000000000000000000000000008152600401612d5090615900565b60405180910390fd5b50565b6000612d9e83836040518060400160405280601a81526020017f536166654d6174683a206469766973696f6e206279207a65726f000000000000815250612f64565b905092915050565b600080831415612db95760009050612e1b565b60008284612dc79190615920565b9050828482612dd691906159a9565b14612e16576040517f08c379a0000000000000000000000000000000000000000000000000000000008152600401612e0d90615a4c565b60405180910390fd5b809150505b92915050565b6000612e6383836040518060400160405280601481526020017f7375627472616374696f6e206f766572666c6f77000000000000000000000000815250612fc7565b905092915050565b816101c0015115612ec757816102e0015173ffffffffffffffffffffffffffffffffffffffff166108fc829081150290604051600060405180830381858888f19350505050158015612ec1573d6000803e3d6000fd5b50612f60565b816101e0015173ffffffffffffffffffffffffffffffffffffffff1663a9059cbb836102e00151836040518363ffffffff1660e01b8152600401612f0c929190615662565b602060405180830381600087803b158015612f2657600080fd5b505af1158015612f3a573d6000803e3d6000fd5b505050506040513d601f19601f82011682018060405250810190612f5e91906145f4565b505b5050565b60008083118290612fab576040517f08c379a0000000000000000000000000000000000000000000000000000000008152600401612fa29190615a6c565b60405180910390fd5b5060008385612fba91906159a9565b9050809150509392505050565b600083831115829061300f576040517f08c379a00000000000000000000000000000000000000000000000000000000081526004016130069190615a6c565b60405180910390fd5b506000838561301e9190615a8e565b9050809150509392505050565b6000604051905090565b600080fd5b600080fd5b600073ffffffffffffffffffffffffffffffffffffffff82169050919050565b600061306a8261303f565b9050919050565b61307a8161305f565b811461308557600080fd5b50565b60008135905061309781613071565b92915050565b6000602082840312156130b3576130b2613035565b5b60006130c184828501613088565b91505092915050565b6000819050919050565b60006130ef6130ea6130e58461303f565b6130ca565b61303f565b9050919050565b6000613101826130d4565b9050919050565b6000613113826130f6565b9050919050565b61312381613108565b82525050565b600060208201905061313e600083018461311a565b92915050565b600080fd5b600080fd5b6000601f19601f8301169050919050565b7f4e487b7100000000000000000000000000000000000000000000000000000000600052604160045260246000fd5b6131978261314e565b810181811067ffffffffffffffff821117156131b6576131b561315f565b5b80604052505050565b60006131c961302b565b90506131d5828261318e565b919050565b600067ffffffffffffffff8211156131f5576131f461315f565b5b6131fe8261314e565b9050602081019050919050565b82818337600083830152505050565b600061322d613228846131da565b6131bf565b90508281526020810184848401111561324957613248613149565b5b61325484828561320b565b509392505050565b600082601f83011261327157613270613144565b5b813561328184826020860161321a565b91505092915050565b600080604083850312156132a1576132a0613035565b5b600083013567ffffffffffffffff8111156132bf576132be61303a565b5b6132cb8582860161325c565b92505060206132dc85828601613088565b9150509250929050565b60006132f1826130f6565b9050919050565b613301816132e6565b82525050565b600060208201905061331c60008301846132f8565b92915050565b60006020828403121561333857613337613035565b5b600082013567ffffffffffffffff8111156133565761335561303a565b5b6133628482850161325c565b91505092915050565b60008115159050919050565b6133808161336b565b82525050565b600060208201905061339b6000830184613377565b92915050565b6000819050919050565b6133b4816133a1565b81146133bf57600080fd5b50565b6000813590506133d1816133ab565b92915050565b6000602082840312156133ed576133ec613035565b5b60006133fb848285016133c2565b91505092915050565b6000806040838503121561341b5761341a613035565b5b6000613429858286016133c2565b925050602061343a858286016133c2565b9150509250929050565b600081519050919050565b600082825260208201905092915050565b6000819050602082019050919050565b613479816133a1565b82525050565b600061348b8383613470565b60208301905092915050565b6000602082019050919050565b60006134af82613444565b6134b9818561344f565b93506134c483613460565b8060005b838110156134f55781516134dc888261347f565b97506134e783613497565b9250506001810190506134c8565b5085935050505092915050565b6000602082019050818103600083015261351c81846134a4565b905092915050565b600061352f8261303f565b9050919050565b61353f81613524565b811461354a57600080fd5b50565b60008135905061355c81613536565b92915050565b60006020828403121561357857613577613035565b5b60006135868482850161354d565b91505092915050565b6135988161305f565b82525050565b60006020820190506135b3600083018461358f565b92915050565b60006135c4826130f6565b9050919050565b6135d4816135b9565b82525050565b60006020820190506135ef60008301846135cb565b92915050565b60008060006060848603121561360e5761360d613035565b5b600084013567ffffffffffffffff81111561362c5761362b61303a565b5b6136388682870161325c565b9350506020613649868287016133c2565b925050604061365a868287016133c2565b9150509250925092565b61366d816133a1565b82525050565b60006020820190506136886000830184613664565b92915050565b600061369982613524565b9050919050565b6136a98161368e565b81146136b457600080fd5b50565b6000813590506136c6816136a0565b92915050565b6000602082840312156136e2576136e1613035565b5b60006136f0848285016136b7565b91505092915050565b600080fd5b600080fd5b6000819050919050565b61371681613703565b811461372157600080fd5b50565b6000813590506137338161370d565b92915050565b600067ffffffffffffffff8211156137545761375361315f565b5b602082029050602081019050919050565b600080fd5b600061377d61377884613739565b6131bf565b905080838252602082019050602084028301858111156137a05761379f613765565b5b835b818110156137c957806137b588826133c2565b8452602084019350506020810190506137a2565b5050509392505050565b600082601f8301126137e8576137e7613144565b5b81356137f884826020860161376a565b91505092915050565b600067ffffffffffffffff82111561381c5761381b61315f565b5b602082029050602081019050919050565b600061384061383b84613801565b6131bf565b9050808382526020820190506020840283018581111561386357613862613765565b5b835b818110156138aa57803567ffffffffffffffff81111561388857613887613144565b5b808601613895898261325c565b85526020850194505050602081019050613865565b5050509392505050565b600082601f8301126138c9576138c8613144565b5b81356138d984826020860161382d565b91505092915050565b6138eb8161336b565b81146138f657600080fd5b50565b600081359050613908816138e2565b92915050565b60006103008284031215613925576139246136f9565b5b6139306103006131bf565b90506000613940848285016133c2565b6000830152506020613954848285016133c2565b602083015250604082013567ffffffffffffffff811115613978576139776136fe565b5b6139848482850161325c565b604083015250606061399884828501613724565b60608301525060806139ac848285016133c2565b60808301525060a082013567ffffffffffffffff8111156139d0576139cf6136fe565b5b6139dc8482850161325c565b60a08301525060c082013567ffffffffffffffff811115613a00576139ff6136fe565b5b613a0c8482850161325c565b60c08301525060e082013567ffffffffffffffff811115613a3057613a2f6136fe565b5b613a3c8482850161325c565b60e083015250610100613a51848285016133c2565b61010083015250610120613a67848285016133c2565b61012083015250610140613a7d848285016133c2565b6101408301525061016082013567ffffffffffffffff811115613aa357613aa26136fe565b5b613aaf848285016137d3565b6101608301525061018082013567ffffffffffffffff811115613ad557613ad46136fe565b5b613ae18482850161325c565b610180830152506101a082013567ffffffffffffffff811115613b0757613b066136fe565b5b613b13848285016138b4565b6101a0830152506101c0613b29848285016138f9565b6101c0830152506101e0613b3f848285016136b7565b6101e083015250610200613b55848285016133c2565b61020083015250610220613b6b848285016133c2565b61022083015250610240613b81848285016133c2565b61024083015250610260613b97848285016138f9565b61026083015250610280613bad848285016133c2565b610280830152506102a0613bc3848285016133c2565b6102a0830152506102c0613bd9848285016138f9565b6102c0830152506102e0613bef8482850161354d565b6102e08301525092915050565b600060208284031215613c1257613c11613035565b5b600082013567ffffffffffffffff811115613c3057613c2f61303a565b5b613c3c8482850161390e565b91505092915050565b613c4e81613524565b82525050565b6000602082019050613c696000830184613c45565b92915050565b600080600060608486031215613c8857613c87613035565b5b6000613c96868287016133c2565b9350506020613ca7868287016133c2565b9250506040613cb8868287016133c2565b9150509250925092565b6000613ccd82613524565b9050919050565b613cdd81613cc2565b8114613ce857600080fd5b50565b600081359050613cfa81613cd4565b92915050565b600060208284031215613d1657613d15613035565b5b6000613d2484828501613ceb565b91505092915050565b6000613d3882613524565b9050919050565b613d4881613d2d565b8114613d5357600080fd5b50565b600081359050613d6581613d3f565b92915050565b600060208284031215613d8157613d80613035565b5b6000613d8f84828501613d56565b91505092915050565b6000613da382613524565b9050919050565b613db381613d98565b8114613dbe57600080fd5b50565b600081359050613dd081613daa565b92915050565b600060208284031215613dec57613deb613035565b5b6000613dfa84828501613dc1565b91505092915050565b6000613e0e826130f6565b9050919050565b613e1e81613e03565b82525050565b6000602082019050613e396000830184613e15565b92915050565b6000613e4a826130f6565b9050919050565b613e5a81613e3f565b82525050565b6000602082019050613e756000830184613e51565b92915050565b600082825260208201905092915050565b7f4f6e6c79204f776e657200000000000000000000000000000000000000000000600082015250565b6000613ec2600a83613e7b565b9150613ecd82613e8c565b602082019050919050565b60006020820190508181036000830152613ef181613eb5565b9050919050565b600081519050919050565b600081905092915050565b60005b83811015613f2c578082015181840152602081019050613f11565b83811115613f3b576000848401525b50505050565b6000613f4c82613ef8565b613f568185613f03565b9350613f66818560208601613f0e565b80840191505092915050565b6000613f7e8284613f41565b915081905092915050565b600081519050613f98816133ab565b92915050565b6000613fb1613fac846131da565b6131bf565b905082815260208101848484011115613fcd57613fcc613149565b5b613fd8848285613f0e565b509392505050565b600082601f830112613ff557613ff4613144565b5b8151614005848260208601613f9e565b91505092915050565b60008151905061401d8161370d565b92915050565b600061403661403184613739565b6131bf565b9050808382526020820190506020840283018581111561405957614058613765565b5b835b81811015614082578061406e8882613f89565b84526020840193505060208101905061405b565b5050509392505050565b600082601f8301126140a1576140a0613144565b5b81516140b1848260208601614023565b91505092915050565b60006140cd6140c884613801565b6131bf565b905080838252602082019050602084028301858111156140f0576140ef613765565b5b835b8181101561413757805167ffffffffffffffff81111561411557614114613144565b5b8086016141228982613fe0565b855260208501945050506020810190506140f2565b5050509392505050565b600082601f83011261415657614155613144565b5b81516141668482602086016140ba565b91505092915050565b60008151905061417e816138e2565b92915050565b600081519050614193816136a0565b92915050565b6000815190506141a881613536565b92915050565b600061030082840312156141c5576141c46136f9565b5b6141d06103006131bf565b905060006141e084828501613f89565b60008301525060206141f484828501613f89565b602083015250604082015167ffffffffffffffff811115614218576142176136fe565b5b61422484828501613fe0565b60408301525060606142388482850161400e565b606083015250608061424c84828501613f89565b60808301525060a082015167ffffffffffffffff8111156142705761426f6136fe565b5b61427c84828501613fe0565b60a08301525060c082015167ffffffffffffffff8111156142a05761429f6136fe565b5b6142ac84828501613fe0565b60c08301525060e082015167ffffffffffffffff8111156142d0576142cf6136fe565b5b6142dc84828501613fe0565b60e0830152506101006142f184828501613f89565b6101008301525061012061430784828501613f89565b6101208301525061014061431d84828501613f89565b6101408301525061016082015167ffffffffffffffff811115614343576143426136fe565b5b61434f8482850161408c565b6101608301525061018082015167ffffffffffffffff811115614375576143746136fe565b5b61438184828501613fe0565b610180830152506101a082015167ffffffffffffffff8111156143a7576143a66136fe565b5b6143b384828501614141565b6101a0830152506101c06143c98482850161416f565b6101c0830152506101e06143df84828501614184565b6101e0830152506102006143f584828501613f89565b6102008301525061022061440b84828501613f89565b6102208301525061024061442184828501613f89565b610240830152506102606144378482850161416f565b6102608301525061028061444d84828501613f89565b610280830152506102a061446384828501613f89565b6102a0830152506102c06144798482850161416f565b6102c0830152506102e061448f84828501614199565b6102e08301525092915050565b6000602082840312156144b2576144b1613035565b5b600082015167ffffffffffffffff8111156144d0576144cf61303a565b5b6144dc848285016141ae565b91505092915050565b7f486173207469636b657473000000000000000000000000000000000000000000600082015250565b600061451b600b83613e7b565b9150614526826144e5565b602082019050919050565b6000602082019050818103600083015261454a8161450e565b9050919050565b7f496e73756666696369656e740000000000000000000000000000000000000000600082015250565b6000614587600c83613e7b565b915061459282614551565b602082019050919050565b600060208201905081810360008301526145b68161457a565b9050919050565b60006060820190506145d26000830186613c45565b6145df6020830185613c45565b6145ec6040830184613664565b949350505050565b60006020828403121561460a57614609613035565b5b60006146188482850161416f565b91505092915050565b60006060820190506146366000830186613664565b6146436020830185613664565b6146506040830184613c45565b949350505050565b61466181613703565b82525050565b600060608201905061467c6000830186613664565b6146896020830185613664565b6146966040830184614658565b949350505050565b7f4e487b7100000000000000000000000000000000000000000000000000000000600052601160045260246000fd5b60006146d8826133a1565b91506146e3836133a1565b9250827fffffffffffffffffffffffffffffffffffffffffffffffffffffffffffffffff038211156147185761471761469e565b5b828201905092915050565b60006020828403121561473957614738613035565b5b600082015167ffffffffffffffff8111156147575761475661303a565b5b6147638482850161408c565b91505092915050565b7f4e487b7100000000000000000000000000000000000000000000000000000000600052603260045260246000fd5b60006147a6826133a1565b91507fffffffffffffffffffffffffffffffffffffffffffffffffffffffffffffffff8214156147d9576147d861469e565b5b600182019050919050565b7f4f6e6c79206f70657261746f7200000000000000000000000000000000000000600082015250565b600061481a600d83613e7b565b9150614825826147e4565b602082019050919050565b600060208201905081810360008301526148498161480d565b9050919050565b60006040820190506148656000830185613664565b6148726020830184613664565b9392505050565b600067ffffffffffffffff8211156148945761489361315f565b5b602082029050602081019050919050565b60006148b86148b384614879565b6131bf565b905080838252602082019050602084028301858111156148db576148da613765565b5b835b8181101561490457806148f08882614199565b8452602084019350506020810190506148dd565b5050509392505050565b600082601f83011261492357614922613144565b5b81516149338482602086016148a5565b91505092915050565b60006020828403121561495257614951613035565b5b600082015167ffffffffffffffff8111156149705761496f61303a565b5b61497c8482850161490e565b91505092915050565b600067ffffffffffffffff8211156149a05761499f61315f565b5b602082029050602081019050919050565b60006149c46149bf84614985565b6131bf565b905080838252602082019050602084028301858111156149e7576149e6613765565b5b835b81811015614a1057806149fc888261400e565b8452602084019350506020810190506149e9565b5050509392505050565b600082601f830112614a2f57614a2e613144565b5b8151614a3f8482602086016149b1565b91505092915050565b60006101408284031215614a5f57614a5e6136f9565b5b614a6a6101406131bf565b90506000614a7a84828501613f89565b600083015250602082015167ffffffffffffffff811115614a9e57614a9d6136fe565b5b614aaa8482850161490e565b6020830152506040614abe84828501613f89565b6040830152506060614ad284828501614199565b6060830152506080614ae684828501613f89565b60808301525060a082015167ffffffffffffffff811115614b0a57614b096136fe565b5b614b1684828501614a1a565b60a08301525060c082015167ffffffffffffffff811115614b3a57614b396136fe565b5b614b4684828501614a1a565b60c08301525060e082015167ffffffffffffffff811115614b6a57614b696136fe565b5b614b7684828501614a1a565b60e083015250610100614b8b8482850161416f565b61010083015250610120614ba18482850161416f565b6101208301525092915050565b600060208284031215614bc457614bc3613035565b5b600082015167ffffffffffffffff811115614be257614be161303a565b5b614bee84828501614a48565b91505092915050565b60008060008060808587031215614c1157614c10613035565b5b600085015167ffffffffffffffff811115614c2f57614c2e61303a565b5b614c3b87828801614a1a565b945050602085015167ffffffffffffffff811115614c5c57614c5b61303a565b5b614c6887828801614a1a565b935050604085015167ffffffffffffffff811115614c8957614c8861303a565b5b614c9587828801614a1a565b925050606085015167ffffffffffffffff811115614cb657614cb561303a565b5b614cc28782880161490e565b91505092959194509250565b600081519050919050565b600082825260208201905092915050565b6000819050602082019050919050565b614d0381613524565b82525050565b6000614d158383614cfa565b60208301905092915050565b6000602082019050919050565b6000614d3982614cce565b614d438185614cd9565b9350614d4e83614cea565b8060005b83811015614d7f578151614d668882614d09565b9750614d7183614d21565b925050600181019050614d52565b5085935050505092915050565b600081519050919050565b600082825260208201905092915050565b6000819050602082019050919050565b614dc181613703565b82525050565b6000614dd38383614db8565b60208301905092915050565b6000602082019050919050565b6000614df782614d8c565b614e018185614d97565b9350614e0c83614da8565b8060005b83811015614e3d578151614e248882614dc7565b9750614e2f83614ddf565b925050600181019050614e10565b5085935050505092915050565b614e538161336b565b82525050565b600061014083016000830151614e726000860182613470565b5060208301518482036020860152614e8a8282614d2e565b9150506040830151614e9f6040860182613470565b506060830151614eb26060860182614cfa565b506080830151614ec56080860182613470565b5060a083015184820360a0860152614edd8282614dec565b91505060c083015184820360c0860152614ef78282614dec565b91505060e083015184820360e0860152614f118282614dec565b915050610100830151614f28610100860182614e4a565b50610120830151614f3d610120860182614e4a565b508091505092915050565b6000606082019050614f5d6000830186613664565b614f6a6020830185613664565b8181036040830152614f7c8184614e59565b9050949350505050565b6000614f9182613ef8565b614f9b8185613e7b565b9350614fab818560208601613f0e565b614fb48161314e565b840191505092915050565b60006040820190508181036000830152614fd98185614f86565b9050614fe86020830184613c45565b9392505050565b7f4f6e6c792061646d696e00000000000000000000000000000000000000000000600082015250565b6000615025600a83613e7b565b915061503082614fef565b602082019050919050565b6000602082019050818103600083015261505481615018565b9050919050565b7f496e76616c696420696400000000000000000000000000000000000000000000600082015250565b6000615091600a83613e7b565b915061509c8261505b565b602082019050919050565b600060208201905081810360008301526150c081615084565b9050919050565b7f45786973742067616d6500000000000000000000000000000000000000000000600082015250565b60006150fd600a83613e7b565b9150615108826150c7565b602082019050919050565b6000602082019050818103600083015261512c816150f0565b9050919050565b600082825260208201905092915050565b600061514f82613ef8565b6151598185615133565b9350615169818560208601613f0e565b6151728161314e565b840191505092915050565b600082825260208201905092915050565b600061519982613444565b6151a3818561517d565b93506151ae83613460565b8060005b838110156151df5781516151c6888261347f565b97506151d183613497565b9250506001810190506151b2565b5085935050505092915050565b600081519050919050565b600082825260208201905092915050565b6000819050602082019050919050565b60006152248383615144565b905092915050565b6000602082019050919050565b6000615244826151ec565b61524e81856151f7565b93508360208202850161526085615208565b8060005b8581101561529c578484038952815161527d8582615218565b94506152888361522c565b925060208a01995050600181019050615264565b50829750879550505050505092915050565b6152b781613e03565b82525050565b6000610300830160008301516152d66000860182613470565b5060208301516152e96020860182613470565b50604083015184820360408601526153018282615144565b91505060608301516153166060860182614db8565b5060808301516153296080860182613470565b5060a083015184820360a08601526153418282615144565b91505060c083015184820360c086015261535b8282615144565b91505060e083015184820360e08601526153758282615144565b91505061010083015161538c610100860182613470565b506101208301516153a1610120860182613470565b506101408301516153b6610140860182613470565b506101608301518482036101608601526153d0828261518e565b9150506101808301518482036101808601526153ec8282615144565b9150506101a08301518482036101a08601526154088282615239565b9150506101c083015161541f6101c0860182614e4a565b506101e08301516154346101e08601826152ae565b50610200830151615449610200860182613470565b5061022083015161545e610220860182613470565b50610240830151615473610240860182613470565b50610260830151615488610260860182614e4a565b5061028083015161549d610280860182613470565b506102a08301516154b26102a0860182613470565b506102c08301516154c76102c0860182614e4a565b506102e08301516154dc6102e0860182614cfa565b508091505092915050565b600060408201905081810360008301526155018185614f86565b9050818103602083015261551581846152bd565b90509392505050565b7f6e6f742062756666000000000000000000000000000000000000000000000000600082015250565b6000615554600883613e7b565b915061555f8261551e565b602082019050919050565b6000602082019050818103600083015261558381615547565b9050919050565b7f4e6f7420696e20726f756e640000000000000000000000000000000000000000600082015250565b60006155c0600c83613e7b565b91506155cb8261558a565b602082019050919050565b600060208201905081810360008301526155ef816155b3565b9050919050565b7f4861732062756666000000000000000000000000000000000000000000000000600082015250565b600061562c600883613e7b565b9150615637826155f6565b602082019050919050565b6000602082019050818103600083015261565b8161561f565b9050919050565b60006040820190506156776000830185613c45565b6156846020830184613664565b9392505050565b60006060820190506156a06000830186613664565b6156ad6020830185613664565b6156ba6040830184613664565b949350505050565b7f50726570617920666f7220676173000000000000000000000000000000000000600082015250565b60006156f8600e83613e7b565b9150615703826156c2565b602082019050919050565b60006020820190508181036000830152615727816156eb565b9050919050565b60006060820190506157436000830186613664565b6157506020830185613c45565b61575d6040830184613664565b949350505050565b60006020828403121561577b5761577a613035565b5b600061578984828501613f89565b91505092915050565b600061579d826130f6565b9050919050565b6157ad81615792565b82525050565b60006040820190506157c860008301856157a4565b6157d56020830184613664565b9392505050565b7f4e6f7420737461727420726f756e640000000000000000000000000000000000600082015250565b6000615812600f83613e7b565b915061581d826157dc565b602082019050919050565b6000602082019050818103600083015261584181615805565b9050919050565b7f4f76657220726f756e6400000000000000000000000000000000000000000000600082015250565b600061587e600a83613e7b565b915061588982615848565b602082019050919050565b600060208201905081810360008301526158ad81615871565b9050919050565b7f4e6f742065786973742067616d65000000000000000000000000000000000000600082015250565b60006158ea600e83613e7b565b91506158f5826158b4565b602082019050919050565b60006020820190508181036000830152615919816158dd565b9050919050565b600061592b826133a1565b9150615936836133a1565b9250817fffffffffffffffffffffffffffffffffffffffffffffffffffffffffffffffff048311821515161561596f5761596e61469e565b5b828202905092915050565b7f4e487b7100000000000000000000000000000000000000000000000000000000600052601260045260246000fd5b60006159b4826133a1565b91506159bf836133a1565b9250826159cf576159ce61597a565b5b828204905092915050565b7f536166654d6174683a206d756c7469706c69636174696f6e206f766572666c6f60008201527f7700000000000000000000000000000000000000000000000000000000000000602082015250565b6000615a36602183613e7b565b9150615a41826159da565b604082019050919050565b60006020820190508181036000830152615a6581615a29565b9050919050565b60006020820190508181036000830152615a868184614f86565b905092915050565b6000615a99826133a1565b9150615aa4836133a1565b925082821015615ab757615ab661469e565b5b82820390509291505056fea2646970667358221220d76621cb473c934df7b818fd1f800d3753d5f94857744820cf786b819920b8bb64736f6c63430008090033",
  "linkReferences": {},
  "deployedLinkReferences": {}
}