{
  "_format": "hh-sol-artifact-1",
  "contractName": "Permission",
  "sourceName": "src/contracts/game/game.sol",
  "abi": [
    {
      "inputs": [
        {
          "internalType": "string",
          "name": "_appId",
          "type": "string"
        },
        {
          "internalType": "address payable",
          "name": "_newOperator",
          "type": "address"
        }
      ],
      "name": "addAppOperator",
      "outputs": [],
      "stateMutability": "nonpayable",
      "type": "function"
    },
    {
      "inputs": [
        {
          "internalType": "address payable",
          "name": "_newOperator",
          "type": "address"
        }
      ],
      "name": "changeOperator",
      "outputs": [],
      "stateMutability": "nonpayable",
      "type": "function"
    },
    {
      "inputs": [
        {
          "internalType": "string",
          "name": "_appId",
          "type": "string"
        }
      ],
      "name": "delAppOperator",
      "outputs": [],
      "stateMutability": "nonpayable",
      "type": "function"
    },
    {
      "inputs": [
        {
          "internalType": "string",
          "name": "_appId",
          "type": "string"
        }
      ],
      "name": "isOperator",
      "outputs": [
        {
          "internalType": "bool",
          "name": "",
          "type": "bool"
        }
      ],
      "stateMutability": "view",
      "type": "function"
    },
    {
      "inputs": [],
      "name": "operator",
      "outputs": [
        {
          "internalType": "address payable",
          "name": "",
          "type": "address"
        }
      ],
      "stateMutability": "view",
      "type": "function"
    },
    {
      "inputs": [],
      "name": "owner",
      "outputs": [
        {
          "internalType": "address",
          "name": "",
          "type": "address"
        }
      ],
      "stateMutability": "view",
      "type": "function"
    },
    {
      "inputs": [
        {
          "internalType": "address",
          "name": "_newOwner",
          "type": "address"
        }
      ],
      "name": "transferOwner",
      "outputs": [],
      "stateMutability": "nonpayable",
      "type": "function"
    }
  ],
  "bytecode": "0x608060405234801561001057600080fd5b50610762806100206000396000f3fe608060405234801561001057600080fd5b506004361061007d5760003560e01c80634fb2e45d1161005b5780634fb2e45d146100d2578063570ca735146100e55780638da5cb5b1461012a578063bb3f09111461014a57600080fd5b806306394c9b146100825780630bd09979146100975780631f041bd1146100aa575b600080fd5b610095610090366004610564565b61015d565b005b6100956100a5366004610662565b61022a565b6100bd6100b83660046106b4565b610314565b60405190151581526020015b60405180910390f35b6100956100e0366004610564565b61038d565b6001546101059073ffffffffffffffffffffffffffffffffffffffff1681565b60405173ffffffffffffffffffffffffffffffffffffffff90911681526020016100c9565b6000546101059073ffffffffffffffffffffffffffffffffffffffff1681565b6100956101583660046106b4565b610455565b60005473ffffffffffffffffffffffffffffffffffffffff1633146101e3576040517f08c379a000000000000000000000000000000000000000000000000000000000815260206004820152600a60248201527f4f6e6c79204f776e65720000000000000000000000000000000000000000000060448201526064015b60405180910390fd5b600180547fffffffffffffffffffffffff00000000000000000000000000000000000000001673ffffffffffffffffffffffffffffffffffffffff92909216919091179055565b60005473ffffffffffffffffffffffffffffffffffffffff1633146102ab576040517f08c379a000000000000000000000000000000000000000000000000000000000815260206004820152600a60248201527f4f6e6c79204f776e65720000000000000000000000000000000000000000000060448201526064016101da565b806002836040516102bc91906106f1565b908152604051908190036020019020805473ffffffffffffffffffffffffffffffffffffffff929092167fffffffffffffffffffffffff00000000000000000000000000000000000000009092169190911790555050565b60015460009073ffffffffffffffffffffffffffffffffffffffff1633148061038757503373ffffffffffffffffffffffffffffffffffffffff1660028360405161035f91906106f1565b9081526040519081900360200190205473ffffffffffffffffffffffffffffffffffffffff16145b92915050565b60005473ffffffffffffffffffffffffffffffffffffffff16331461040e576040517f08c379a000000000000000000000000000000000000000000000000000000000815260206004820152600a60248201527f4f6e6c79204f776e65720000000000000000000000000000000000000000000060448201526064016101da565b600080547fffffffffffffffffffffffff00000000000000000000000000000000000000001673ffffffffffffffffffffffffffffffffffffffff92909216919091179055565b60005473ffffffffffffffffffffffffffffffffffffffff1633146104d6576040517f08c379a000000000000000000000000000000000000000000000000000000000815260206004820152600a60248201527f4f6e6c79204f776e65720000000000000000000000000000000000000000000060448201526064016101da565b60006002826040516104e891906106f1565b908152604051908190036020019020805473ffffffffffffffffffffffffffffffffffffffff929092167fffffffffffffffffffffffff000000000000000000000000000000000000000090921691909117905550565b73ffffffffffffffffffffffffffffffffffffffff8116811461056157600080fd5b50565b60006020828403121561057657600080fd5b81356105818161053f565b9392505050565b7f4e487b7100000000000000000000000000000000000000000000000000000000600052604160045260246000fd5b600082601f8301126105c857600080fd5b813567ffffffffffffffff808211156105e3576105e3610588565b604051601f83017fffffffffffffffffffffffffffffffffffffffffffffffffffffffffffffffe0908116603f0116810190828211818310171561062957610629610588565b8160405283815286602085880101111561064257600080fd5b836020870160208301376000602085830101528094505050505092915050565b6000806040838503121561067557600080fd5b823567ffffffffffffffff81111561068c57600080fd5b610698858286016105b7565b92505060208301356106a98161053f565b809150509250929050565b6000602082840312156106c657600080fd5b813567ffffffffffffffff8111156106dd57600080fd5b6106e9848285016105b7565b949350505050565b6000825160005b8181101561071257602081860181015185830152016106f8565b81811115610721576000828501525b50919091019291505056fea264697066735822122025323d8f8510046c7819b29b2b97c0017371629fe1bfefdcb635ec7aa52b2a8164736f6c63430008090033",
  "linkReferences": {},
  "deployedLinkReferences": {}
}