{
  "_format": "hh-sol-artifact-1",
  "contractName": "Permission",
  "sourceName": "src/contracts/game/game.sol",
  "abi": [
    {
      "inputs": [
        {
          "internalType": "string",
          "name": "_appId",
          "type": "string"
        },
        {
          "internalType": "address payable",
          "name": "_newOperator",
          "type": "address"
        }
      ],
      "name": "addAppOperator",
      "outputs": [],
      "stateMutability": "nonpayable",
      "type": "function"
    },
    {
      "inputs": [
        {
          "internalType": "address payable",
          "name": "_newOperator",
          "type": "address"
        }
      ],
      "name": "changeOperator",
      "outputs": [],
      "stateMutability": "nonpayable",
      "type": "function"
    },
    {
      "inputs": [
        {
          "internalType": "string",
          "name": "_appId",
          "type": "string"
        }
      ],
      "name": "delAppOperator",
      "outputs": [],
      "stateMutability": "nonpayable",
      "type": "function"
    },
    {
      "inputs": [
        {
          "internalType": "string",
          "name": "_appId",
          "type": "string"
        }
      ],
      "name": "isOperator",
      "outputs": [
        {
          "internalType": "bool",
          "name": "",
          "type": "bool"
        }
      ],
      "stateMutability": "view",
      "type": "function"
    },
    {
      "inputs": [],
      "name": "operator",
      "outputs": [
        {
          "internalType": "address payable",
          "name": "",
          "type": "address"
        }
      ],
      "stateMutability": "view",
      "type": "function"
    },
    {
      "inputs": [],
      "name": "owner",
      "outputs": [
        {
          "internalType": "address",
          "name": "",
          "type": "address"
        }
      ],
      "stateMutability": "view",
      "type": "function"
    },
    {
      "inputs": [
        {
          "internalType": "address",
          "name": "_newOwner",
          "type": "address"
        }
      ],
      "name": "transferOwner",
      "outputs": [],
      "stateMutability": "nonpayable",
      "type": "function"
    }
  ],
  "bytecode": "0x608060405234801561001057600080fd5b50610aba806100206000396000f3fe608060405234801561001057600080fd5b506004361061007d5760003560e01c80634fb2e45d1161005b5780634fb2e45d146100ea578063570ca735146101065780638da5cb5b14610124578063bb3f0911146101425761007d565b806306394c9b146100825780630bd099791461009e5780631f041bd1146100ba575b600080fd5b61009c60048036038101906100979190610669565b61015e565b005b6100b860048036038101906100b391906107dc565b610230565b005b6100d460048036038101906100cf9190610838565b61031f565b6040516100e1919061089c565b60405180910390f35b61010460048036038101906100ff91906108f5565b6103ed565b005b61010e6104be565b60405161011b9190610931565b60405180910390f35b61012c6104e4565b604051610139919061095b565b60405180910390f35b61015c60048036038101906101579190610838565b610508565b005b60008054906101000a900473ffffffffffffffffffffffffffffffffffffffff1673ffffffffffffffffffffffffffffffffffffffff163373ffffffffffffffffffffffffffffffffffffffff16146101ec576040517f08c379a00000000000000000000000000000000000000000000000000000000081526004016101e3906109d3565b60405180910390fd5b80600160006101000a81548173ffffffffffffffffffffffffffffffffffffffff021916908373ffffffffffffffffffffffffffffffffffffffff16021790555050565b60008054906101000a900473ffffffffffffffffffffffffffffffffffffffff1673ffffffffffffffffffffffffffffffffffffffff163373ffffffffffffffffffffffffffffffffffffffff16146102be576040517f08c379a00000000000000000000000000000000000000000000000000000000081526004016102b5906109d3565b60405180910390fd5b806002836040516102cf9190610a6d565b908152602001604051809103902060006101000a81548173ffffffffffffffffffffffffffffffffffffffff021916908373ffffffffffffffffffffffffffffffffffffffff1602179055505050565b60003373ffffffffffffffffffffffffffffffffffffffff16600160009054906101000a900473ffffffffffffffffffffffffffffffffffffffff1673ffffffffffffffffffffffffffffffffffffffff1614806103e657503373ffffffffffffffffffffffffffffffffffffffff1660028360405161039f9190610a6d565b908152602001604051809103902060009054906101000a900473ffffffffffffffffffffffffffffffffffffffff1673ffffffffffffffffffffffffffffffffffffffff16145b9050919050565b60008054906101000a900473ffffffffffffffffffffffffffffffffffffffff1673ffffffffffffffffffffffffffffffffffffffff163373ffffffffffffffffffffffffffffffffffffffff161461047b576040517f08c379a0000000000000000000000000000000000000000000000000000000008152600401610472906109d3565b60405180910390fd5b806000806101000a81548173ffffffffffffffffffffffffffffffffffffffff021916908373ffffffffffffffffffffffffffffffffffffffff16021790555050565b600160009054906101000a900473ffffffffffffffffffffffffffffffffffffffff1681565b60008054906101000a900473ffffffffffffffffffffffffffffffffffffffff1681565b60008054906101000a900473ffffffffffffffffffffffffffffffffffffffff1673ffffffffffffffffffffffffffffffffffffffff163373ffffffffffffffffffffffffffffffffffffffff1614610596576040517f08c379a000000000000000000000000000000000000000000000000000000000815260040161058d906109d3565b60405180910390fd5b60006002826040516105a89190610a6d565b908152602001604051809103902060006101000a81548173ffffffffffffffffffffffffffffffffffffffff021916908373ffffffffffffffffffffffffffffffffffffffff16021790555050565b6000604051905090565b600080fd5b600080fd5b600073ffffffffffffffffffffffffffffffffffffffff82169050919050565b60006106368261060b565b9050919050565b6106468161062b565b811461065157600080fd5b50565b6000813590506106638161063d565b92915050565b60006020828403121561067f5761067e610601565b5b600061068d84828501610654565b91505092915050565b600080fd5b600080fd5b6000601f19601f8301169050919050565b7f4e487b7100000000000000000000000000000000000000000000000000000000600052604160045260246000fd5b6106e9826106a0565b810181811067ffffffffffffffff82111715610708576107076106b1565b5b80604052505050565b600061071b6105f7565b905061072782826106e0565b919050565b600067ffffffffffffffff821115610747576107466106b1565b5b610750826106a0565b9050602081019050919050565b82818337600083830152505050565b600061077f61077a8461072c565b610711565b90508281526020810184848401111561079b5761079a61069b565b5b6107a684828561075d565b509392505050565b600082601f8301126107c3576107c2610696565b5b81356107d384826020860161076c565b91505092915050565b600080604083850312156107f3576107f2610601565b5b600083013567ffffffffffffffff81111561081157610810610606565b5b61081d858286016107ae565b925050602061082e85828601610654565b9150509250929050565b60006020828403121561084e5761084d610601565b5b600082013567ffffffffffffffff81111561086c5761086b610606565b5b610878848285016107ae565b91505092915050565b60008115159050919050565b61089681610881565b82525050565b60006020820190506108b1600083018461088d565b92915050565b60006108c28261060b565b9050919050565b6108d2816108b7565b81146108dd57600080fd5b50565b6000813590506108ef816108c9565b92915050565b60006020828403121561090b5761090a610601565b5b6000610919848285016108e0565b91505092915050565b61092b8161062b565b82525050565b60006020820190506109466000830184610922565b92915050565b610955816108b7565b82525050565b6000602082019050610970600083018461094c565b92915050565b600082825260208201905092915050565b7f4f6e6c79204f776e657200000000000000000000000000000000000000000000600082015250565b60006109bd600a83610976565b91506109c882610987565b602082019050919050565b600060208201905081810360008301526109ec816109b0565b9050919050565b600081519050919050565b600081905092915050565b60005b83811015610a27578082015181840152602081019050610a0c565b83811115610a36576000848401525b50505050565b6000610a47826109f3565b610a5181856109fe565b9350610a61818560208601610a09565b80840191505092915050565b6000610a798284610a3c565b91508190509291505056fea2646970667358221220b947df935e18de43777d7c2ffe64e73f541c2e980c48efa454afbe8b137d513564736f6c63430008090033",
  "linkReferences": {},
  "deployedLinkReferences": {}
}